{
  "_format": "hh-sol-artifact-1",
  "contractName": "ArenaNFT",
  "sourceName": "contracts/ArenaNft.sol",
  "abi": [
    {
      "inputs": [
        {
          "internalType": "string",
          "name": "_name",
          "type": "string"
        },
        {
          "internalType": "string",
          "name": "_symbol",
          "type": "string"
        },
        {
          "internalType": "address",
          "name": "_initialSigner",
          "type": "address"
        }
      ],
      "stateMutability": "nonpayable",
      "type": "constructor"
    },
    {
      "inputs": [],
      "name": "InvalidShortString",
      "type": "error"
    },
    {
      "inputs": [
        {
          "internalType": "string",
          "name": "str",
          "type": "string"
        }
      ],
      "name": "StringTooLong",
      "type": "error"
    },
    {
      "anonymous": false,
      "inputs": [
        {
          "indexed": true,
          "internalType": "address",
          "name": "owner",
          "type": "address"
        },
        {
          "indexed": true,
          "internalType": "address",
          "name": "approved",
          "type": "address"
        },
        {
          "indexed": true,
          "internalType": "uint256",
          "name": "tokenId",
          "type": "uint256"
        }
      ],
      "name": "Approval",
      "type": "event"
    },
    {
      "anonymous": false,
      "inputs": [
        {
          "indexed": true,
          "internalType": "address",
          "name": "owner",
          "type": "address"
        },
        {
          "indexed": true,
          "internalType": "address",
          "name": "operator",
          "type": "address"
        },
        {
          "indexed": false,
          "internalType": "bool",
          "name": "approved",
          "type": "bool"
        }
      ],
      "name": "ApprovalForAll",
      "type": "event"
    },
    {
      "anonymous": false,
      "inputs": [],
      "name": "EIP712DomainChanged",
      "type": "event"
    },
    {
      "anonymous": false,
      "inputs": [
        {
          "indexed": true,
          "internalType": "address",
          "name": "previousOwner",
          "type": "address"
        },
        {
          "indexed": true,
          "internalType": "address",
          "name": "newOwner",
          "type": "address"
        }
      ],
      "name": "OwnershipTransferred",
      "type": "event"
    },
    {
      "anonymous": false,
      "inputs": [
        {
          "indexed": true,
          "internalType": "uint256",
          "name": "raffleId",
          "type": "uint256"
        },
        {
          "indexed": false,
          "internalType": "string",
          "name": "description",
          "type": "string"
        },
        {
          "indexed": false,
          "internalType": "uint256",
          "name": "requiredPoints",
          "type": "uint256"
        }
      ],
      "name": "RaffleCreated",
      "type": "event"
    },
    {
      "anonymous": false,
      "inputs": [
        {
          "indexed": true,
          "internalType": "uint256",
          "name": "raffleId",
          "type": "uint256"
        },
        {
          "indexed": true,
          "internalType": "address",
          "name": "winner",
          "type": "address"
        },
        {
          "indexed": false,
          "internalType": "uint256",
          "name": "nftId",
          "type": "uint256"
        }
      ],
      "name": "RaffleResolved",
      "type": "event"
    },
    {
      "anonymous": false,
      "inputs": [
        {
          "indexed": true,
          "internalType": "address",
          "name": "from",
          "type": "address"
        },
        {
          "indexed": true,
          "internalType": "address",
          "name": "to",
          "type": "address"
        },
        {
          "indexed": true,
          "internalType": "uint256",
          "name": "tokenId",
          "type": "uint256"
        }
      ],
      "name": "Transfer",
      "type": "event"
    },
    {
      "anonymous": false,
      "inputs": [
        {
          "indexed": true,
          "internalType": "uint256",
          "name": "raffleId",
          "type": "uint256"
        },
        {
          "indexed": true,
          "internalType": "address",
          "name": "user",
          "type": "address"
        }
      ],
      "name": "UserEntered",
      "type": "event"
    },
    {
      "inputs": [
        {
          "internalType": "address",
          "name": "to",
          "type": "address"
        },
        {
          "internalType": "uint256",
          "name": "tokenId",
          "type": "uint256"
        }
      ],
      "name": "approve",
      "outputs": [],
      "stateMutability": "nonpayable",
      "type": "function"
    },
    {
      "inputs": [
        {
          "internalType": "address",
          "name": "owner",
          "type": "address"
        }
      ],
      "name": "balanceOf",
      "outputs": [
        {
          "internalType": "uint256",
          "name": "",
          "type": "uint256"
        }
      ],
      "stateMutability": "view",
      "type": "function"
    },
    {
      "inputs": [
        {
          "internalType": "string",
          "name": "_description",
          "type": "string"
        },
        {
          "internalType": "uint256",
          "name": "_requiredPoints",
          "type": "uint256"
        },
        {
          "internalType": "uint256",
          "name": "_deadline",
          "type": "uint256"
        }
      ],
      "name": "createRaffle",
      "outputs": [],
      "stateMutability": "nonpayable",
      "type": "function"
    },
    {
      "inputs": [],
      "name": "eip712Domain",
      "outputs": [
        {
          "internalType": "bytes1",
          "name": "fields",
          "type": "bytes1"
        },
        {
          "internalType": "string",
          "name": "name",
          "type": "string"
        },
        {
          "internalType": "string",
          "name": "version",
          "type": "string"
        },
        {
          "internalType": "uint256",
          "name": "chainId",
          "type": "uint256"
        },
        {
          "internalType": "address",
          "name": "verifyingContract",
          "type": "address"
        },
        {
          "internalType": "bytes32",
          "name": "salt",
          "type": "bytes32"
        },
        {
          "internalType": "uint256[]",
          "name": "extensions",
          "type": "uint256[]"
        }
      ],
      "stateMutability": "view",
      "type": "function"
    },
    {
      "inputs": [
        {
          "internalType": "uint256",
          "name": "_raffleId",
          "type": "uint256"
        },
        {
          "internalType": "bytes",
          "name": "_signature",
          "type": "bytes"
        }
      ],
      "name": "enterRaffle",
      "outputs": [],
      "stateMutability": "nonpayable",
      "type": "function"
    },
    {
      "inputs": [
        {
          "internalType": "uint256",
          "name": "tokenId",
          "type": "uint256"
        }
      ],
      "name": "getApproved",
      "outputs": [
        {
          "internalType": "address",
          "name": "",
          "type": "address"
        }
      ],
      "stateMutability": "view",
      "type": "function"
    },
    {
      "inputs": [
        {
          "internalType": "address",
          "name": "owner",
          "type": "address"
        },
        {
          "internalType": "address",
          "name": "operator",
          "type": "address"
        }
      ],
      "name": "isApprovedForAll",
      "outputs": [
        {
          "internalType": "bool",
          "name": "",
          "type": "bool"
        }
      ],
      "stateMutability": "view",
      "type": "function"
    },
    {
      "inputs": [],
      "name": "name",
      "outputs": [
        {
          "internalType": "string",
          "name": "",
          "type": "string"
        }
      ],
      "stateMutability": "view",
      "type": "function"
    },
    {
      "inputs": [],
      "name": "nextRaffleId",
      "outputs": [
        {
          "internalType": "uint256",
          "name": "",
          "type": "uint256"
        }
      ],
      "stateMutability": "view",
      "type": "function"
    },
    {
      "inputs": [],
      "name": "owner",
      "outputs": [
        {
          "internalType": "address",
          "name": "",
          "type": "address"
        }
      ],
      "stateMutability": "view",
      "type": "function"
    },
    {
      "inputs": [
        {
          "internalType": "uint256",
          "name": "tokenId",
          "type": "uint256"
        }
      ],
      "name": "ownerOf",
      "outputs": [
        {
          "internalType": "address",
          "name": "",
          "type": "address"
        }
      ],
      "stateMutability": "view",
      "type": "function"
    },
    {
      "inputs": [
        {
          "internalType": "uint256",
          "name": "",
          "type": "uint256"
        }
      ],
      "name": "raffles",
      "outputs": [
        {
          "internalType": "string",
          "name": "description",
          "type": "string"
        },
        {
          "internalType": "uint256",
          "name": "requiredPoints",
          "type": "uint256"
        },
        {
          "internalType": "uint256",
          "name": "deadline",
          "type": "uint256"
        },
        {
          "internalType": "bool",
          "name": "isResolved",
          "type": "bool"
        },
        {
          "internalType": "address",
          "name": "winner",
          "type": "address"
        }
      ],
      "stateMutability": "view",
      "type": "function"
    },
    {
      "inputs": [],
      "name": "renounceOwnership",
      "outputs": [],
      "stateMutability": "nonpayable",
      "type": "function"
    },
    {
      "inputs": [
        {
          "internalType": "uint256",
          "name": "_raffleId",
          "type": "uint256"
        },
        {
          "internalType": "address",
          "name": "_winner",
          "type": "address"
        }
      ],
      "name": "resolveRaffleAndMint",
      "outputs": [],
      "stateMutability": "nonpayable",
      "type": "function"
    },
    {
      "inputs": [
        {
          "internalType": "address",
          "name": "from",
          "type": "address"
        },
        {
          "internalType": "address",
          "name": "to",
          "type": "address"
        },
        {
          "internalType": "uint256",
          "name": "tokenId",
          "type": "uint256"
        }
      ],
      "name": "safeTransferFrom",
      "outputs": [],
      "stateMutability": "nonpayable",
      "type": "function"
    },
    {
      "inputs": [
        {
          "internalType": "address",
          "name": "from",
          "type": "address"
        },
        {
          "internalType": "address",
          "name": "to",
          "type": "address"
        },
        {
          "internalType": "uint256",
          "name": "tokenId",
          "type": "uint256"
        },
        {
          "internalType": "bytes",
          "name": "data",
          "type": "bytes"
        }
      ],
      "name": "safeTransferFrom",
      "outputs": [],
      "stateMutability": "nonpayable",
      "type": "function"
    },
    {
      "inputs": [
        {
          "internalType": "address",
          "name": "operator",
          "type": "address"
        },
        {
          "internalType": "bool",
          "name": "approved",
          "type": "bool"
        }
      ],
      "name": "setApprovalForAll",
      "outputs": [],
      "stateMutability": "nonpayable",
      "type": "function"
    },
    {
      "inputs": [],
      "name": "signerAddress",
      "outputs": [
        {
          "internalType": "address",
          "name": "",
          "type": "address"
        }
      ],
      "stateMutability": "view",
      "type": "function"
    },
    {
      "inputs": [
        {
          "internalType": "bytes4",
          "name": "interfaceId",
          "type": "bytes4"
        }
      ],
      "name": "supportsInterface",
      "outputs": [
        {
          "internalType": "bool",
          "name": "",
          "type": "bool"
        }
      ],
      "stateMutability": "view",
      "type": "function"
    },
    {
      "inputs": [],
      "name": "symbol",
      "outputs": [
        {
          "internalType": "string",
          "name": "",
          "type": "string"
        }
      ],
      "stateMutability": "view",
      "type": "function"
    },
    {
      "inputs": [
        {
          "internalType": "uint256",
          "name": "tokenId",
          "type": "uint256"
        }
      ],
      "name": "tokenURI",
      "outputs": [
        {
          "internalType": "string",
          "name": "",
          "type": "string"
        }
      ],
      "stateMutability": "view",
      "type": "function"
    },
    {
      "inputs": [
        {
          "internalType": "address",
          "name": "from",
          "type": "address"
        },
        {
          "internalType": "address",
          "name": "to",
          "type": "address"
        },
        {
          "internalType": "uint256",
          "name": "tokenId",
          "type": "uint256"
        }
      ],
      "name": "transferFrom",
      "outputs": [],
      "stateMutability": "nonpayable",
      "type": "function"
    },
    {
      "inputs": [
        {
          "internalType": "address",
          "name": "newOwner",
          "type": "address"
        }
      ],
      "name": "transferOwnership",
      "outputs": [],
      "stateMutability": "nonpayable",
      "type": "function"
    }
  ],
  "bytecode": "0x6101608060405234620004d057620026a98038038091620000218285620004d5565b83398101606082820312620004d05781516001600160401b038111620004d057816200004f9184016200051e565b60208301519091906001600160401b038111620004d057604091620000769185016200051e565b9201516001600160a01b0381168103620004d05760408051929083016001600160401b03811184821017620002d15760405260018352603160f81b602084015280516001600160401b038111620002d157600054600181811c91168015620004c5575b6020821014620003ca57601f81116200046d575b50806020601f8211600114620003f757600091620003eb575b508160011b916000199060031b1c1916176000555b83516001600160401b038111620002d157600154600181811c91168015620003e0575b6020821014620003ca57601f811162000360575b50602094601f8211600114620002f357948192939495600092620002e7575b50508160011b916000199060031b1c1916176001555b60068054336001600160a01b03198083168217909355906001600160a01b03167f8be0079c531659141344cd1fd0a4f28419497f9722a3daafe3b4186f6b6457e0600080a3620001d78262000579565b90610120918252620001e98562000721565b9261014093845260208151910120948560e0526020815191012093610100958587524660a0526040519560208701917f8b73c3c69bb8fe3d512ecc4cf759cc79239f7b179b0ffacaa9a75d522b39400f8352604088015260608701524660808701523060a087015260a0865260c086019580871060018060401b03881117620002d157866040525190206080523060c05260018060a01b031690600b541617600b55611e10938462000879853960805184611ce8015260a05184611db4015260c05184611cb2015260e05184611d3701525183611d5d0152518261072d015251816107560152f35b634e487b7160e01b600052604160045260246000fd5b01519050388062000171565b601f19821695600160005260206000209160005b88811062000347575083600195969798106200032d575b505050811b0160015562000187565b015160001960f88460031b161c191690553880806200031e565b9192602060018192868501518155019401920162000307565b60016000527fb10e2d527612073b26eecdfd717e6a320cf44b4afac2b0732d9fcbe2b7fa0cf6601f830160051c81019160208410620003bf575b601f0160051c01905b818110620003b2575062000152565b60008155600101620003a3565b90915081906200039a565b634e487b7160e01b600052602260045260246000fd5b90607f16906200013e565b90508201513862000106565b6000808052600080516020620026898339815191529250601f198416905b81811062000454575090836001949392106200043a575b5050811b016000556200011b565b84015160001960f88460031b161c1916905538806200042c565b9192602060018192868901518155019401920162000415565b6000805260008051602062002689833981519152601f830160051c81019160208410620004ba575b601f0160051c01905b818110620004ad5750620000ed565b600081556001016200049e565b909150819062000495565b90607f1690620000d9565b600080fd5b601f909101601f19168101906001600160401b03821190821017620002d157604052565b60005b8381106200050d5750506000910152565b8181015183820152602001620004fc565b81601f82011215620004d05780516001600160401b038111620002d1576040519262000555601f8301601f191660200185620004d5565b81845260208284010111620004d057620005769160208085019101620004f9565b90565b805160209081811015620005f75750601f825111620005b55780825192015190808310620005a657501790565b82600019910360031b1b161790565b604490620005e99260405193849263305a27a960e01b845280600485015282519283918260248701528686019101620004f9565b601f01601f19168101030190fd5b906001600160401b038211620002d157600754926001938481811c9116801562000716575b83821014620003ca57601f8111620006dc575b5081601f841160011462000670575092829391839260009462000664575b50501b916000199060031b1c19161760075560ff90565b0151925038806200064d565b919083601f198116600760005284600020946000905b88838310620006c15750505010620006a7575b505050811b0160075560ff90565b015160001960f88460031b161c1916905538808062000699565b85870151885590960195948501948793509081019062000686565b600760005284601f84600020920160051c820191601f860160051c015b828110620007095750506200062f565b60008155018590620006f9565b90607f16906200061c565b8051602090818110156200074e5750601f825111620005b55780825192015190808310620005a657501790565b906001600160401b038211620002d157600854926001938481811c911680156200086d575b83821014620003ca57601f811162000833575b5081601f8411600114620007c75750928293918392600094620007bb575b50501b916000199060031b1c19161760085560ff90565b015192503880620007a4565b919083601f198116600860005284600020946000905b88838310620008185750505010620007fe575b505050811b0160085560ff90565b015160001960f88460031b161c19169055388080620007f0565b858701518855909601959485019487935090810190620007dd565b600860005284601f84600020920160051c820191601f860160051c015b8281106200086057505062000786565b6000815501859062000850565b90607f16906200077356fe6080604081815260048036101561001557600080fd5b600092833560e01c90816301ffc9a7146111455750806306fdde031461109d578063081812fc1461107d578063095ea7b314610f1057806323b872dd14610eeb57806342842e0e14610eb75780634968493e14610cb75780635b7633d014610c8e5780635d36a23614610a485780635d4bc0ce1461094d5780636352211e1461091c57806370a0823114610886578063715018a6146108295780638458e3e41461080a57806384b0196e146107155780638da5cb5b146106ec57806395d89b4114610609578063a22cb4651461053a578063b88d4fde146104bd578063c68cd7d9146102b0578063c87b56dd14610240578063e985e9c5146101ee5763f2fde38b1461012057600080fd5b346101ea5760203660031901126101ea576101396111f1565b90610142611372565b6001600160a01b03918216928315610198575050600654826bffffffffffffffffffffffff60a01b821617600655167f8be0079c531659141344cd1fd0a4f28419497f9722a3daafe3b4186f6b6457e08380a380f35b906020608492519162461bcd60e51b8352820152602660248201527f4f776e61626c653a206e6577206f776e657220697320746865207a65726f206160448201526564647265737360d01b6064820152fd5b8280fd5b50503461023c578060031936011261023c5760ff8160209361020e6111f1565b61021661120c565b6001600160a01b0391821683526005875283832091168252855220549151911615158152f35b5080fd5b5091903461023c57602036600319011261023c5761027f61027a6102ac9435600052600260205260018060a01b0360406000205416151590565b6113ca565b81815161028b81611257565b5280519161029883611257565b8252519182916020835260208301906111b1565b0390f35b5082346104ba5760603660031901126104ba5767ffffffffffffffff9282358481116101ea57366023820112156101ea576102f490369060248187013591016112e3565b60243591610300611372565b600a54928385526020906009825282862084519889116104a7576103248154611338565b601f8111610464575b5082601f8a116001146103e157988088999a7f36ef0ed77747caef9e531b27ca219d606acf84371054260fc29fb4df9cdc3b709899916103d6575b508160011b916000199060031b1c19161790555b8587526009825282872081600182015560026044359101556103a783519484869586528501906111b1565b918301520390a2600a5460001981146103c357600101600a5580f35b506011602492634e487b7160e01b835252fd5b90508601518b610368565b81885283882090601f198b16895b81811061044d5750918b917f36ef0ed77747caef9e531b27ca219d606acf84371054260fc29fb4df9cdc3b70999a9b9c60019410610434575b5050811b01905561037c565b88015160001960f88460031b161c191690558b80610428565b91928660018192868c0151815501940192016103ef565b818852838820601f8b0160051c810191858c1061049d575b601f0160051c01905b818110610492575061032d565b888155600101610485565b909150819061047c565b634e487b7160e01b875260418852602487fd5b80fd5b83823461023c57608036600319011261023c576104d86111f1565b906104e161120c565b916044356064359367ffffffffffffffff85116105365761050b61052e946105339636910161131a565b9261051e6105198433611550565b611477565b610529838383611618565b611848565b61152c565b80f35b8580fd5b5090346101ea57806003193601126101ea576105546111f1565b9060243591821515809303610605576001600160a01b0316923384146105c35750338452600560205280842083855260205280842060ff1981541660ff8416179055519081527f17307eab39ab6107e8899845ad3d59bd9653f200f220920489ca2b5937696c3160203392a380f35b6020606492519162461bcd60e51b8352820152601960248201527f4552433732313a20617070726f766520746f2063616c6c6572000000000000006044820152fd5b8480fd5b50503461023c578160031936011261023c5780519082600180549161062d83611338565b808652928281169081156106c45750600114610668575b505050610656826102ac9403836112a5565b519182916020835260208301906111b1565b94508085527fb10e2d527612073b26eecdfd717e6a320cf44b4afac2b0732d9fcbe2b7fa0cf65b8286106106ac575050506106568260206102ac9582010194610644565b8054602087870181019190915290950194810161068f565b6102ac97508693506020925061065694915060ff191682840152151560051b82010194610644565b50503461023c578160031936011261023c5760065490516001600160a01b039091168152602090f35b50503461023c578160031936011261023c57906107517f00000000000000000000000000000000000000000000000000000000000000006118cf565b61077a7f00000000000000000000000000000000000000000000000000000000000000006119c8565b9183519161078783611257565b8183526107bc8551958695600f60f81b87526107af60209460e0868a015260e08901906111b1565b91878303908801526111b1565b904660608601523060808601528260a086015284820360c08601528080855193848152019401925b8281106107f357505050500390f35b8351855286955093810193928101926001016107e4565b50503461023c578160031936011261023c57602090600a549051908152f35b83346104ba57806003193601126104ba57610842611372565b600680546001600160a01b0319811690915581906001600160a01b03167f8be0079c531659141344cd1fd0a4f28419497f9722a3daafe3b4186f6b6457e08280a380f35b5082903461023c57602036600319011261023c576001600160a01b036108aa6111f1565b169081156108c75760208480858581526003845220549051908152f35b608490602085519162461bcd60e51b8352820152602960248201527f4552433732313a2061646472657373207a65726f206973206e6f7420612076616044820152683634b21037bbb732b960b91b6064820152fd5b5091346104ba5760203660031901126104ba575061093c60209235611416565b90516001600160a01b039091168152f35b50346101ea5760209081600319360112610a445735835260098152818320918051928481549061097c82611338565b908187526001928381169081600014610a2657506001146109f2575b50506109a9856109cb9703866112a5565b810154916003600283015492015492815196879660a0885260a08801906111b1565b9486015284015260ff81161515606084015260081c6001600160a01b031660808301520390f35b9096508281528481205b878210610a1357508501840195506109a985610998565b80548783018701529085019082016109fc565b60ff1916878901525050151560051b8501840195506109a985610998565b8380fd5b50346101ea57816003193601126101ea57803590610a6461120c565b92610a6d611372565b8285526020916009835260ff6003838820015416610c4d57838652600983528186206001600160a01b03861680885290820184528287205490959060ff1615610c0b578487526009845282872060030180546001600160a81b031916600883901b610100600160a81b0316176001179055825191610aea83611257565b8783528615610bca575061052e7fd7eb48ea2594ee9155a6a61c37dfa0b04cdce70843408db48148695fe8bad1a194939286610bc293610b48610b4283600052600260205260018060a01b0360406000205416151590565b15611a82565b600082815260026020526040902054610b6b906001600160a01b03161515610b42565b898b5260038752858b2080546001019055818b5260028752858b2080546001600160a01b0319168b179055818a8c7fddf252ad1be2c89b69c2b068fc378daa952ba7f163c4a11628f55a4df523b3ef8180a461172e565b51838152a380f35b606490858086519262461bcd60e51b845283015260248201527f4552433732313a206d696e7420746f20746865207a65726f20616464726573736044820152fd5b5082606492519162461bcd60e51b8352820152601a60248201527f57696e6e657220646964206e6f742070617274696369706174650000000000006044820152fd5b82606492519162461bcd60e51b8352820152601760248201527f526166666c6520616c7265616479207265736f6c7665640000000000000000006044820152fd5b50503461023c578160031936011261023c57600b5490516001600160a01b039091168152602090f35b5090346101ea57806003193601126101ea5781359167ffffffffffffffff9060243582811161053657610ced903690830161131a565b908486526020916009835284872060ff6003820154161580610eaa575b15610e745782019333885284845260ff8689205416610e3f578551848101917f853c297dc4da46737b8997541d4330dd30c5d7022b88e2dfc46c8f1657436af08352888883015233606083015260608252608082019082821090821117610e2c578752519020610da791610d9f91604290610d83611caf565b9089519161190160f01b83526002830152602282015220611be8565b919091611ace565b600b546001600160a01b03908116911603610df75750338552528220600160ff1982541617905533907fa42c6ee33c865db3856a2d6143fe6f030aae133fe6b234ba31d1e4b27eb23f458380a380f35b60649184519162461bcd60e51b83528201526011602482015270496e76616c6964207369676e617475726560781b6044820152fd5b634e487b7160e01b8a526041855260248afd5b855162461bcd60e51b8152808401859052600f60248201526e105b1c9958591e48195b9d195c9959608a1b6044820152606490fd5b855162461bcd60e51b8152808401859052601060248201526f149859999b19481a5cc818db1bdcd95960821b6044820152606490fd5b5060028101544210610d0a565b50503461023c5761052e61053391610ece36611222565b91925192610edb84611257565b86845261051e6105198433611550565b83346104ba57610533610efd36611222565b91610f0b6105198433611550565b611618565b50346101ea57816003193601126101ea57610f296111f1565b6024359290916001600160a01b0391908280610f4487611416565b1694169380851461103057803314908115611011575b5015610fa957848652602052842080546001600160a01b03191683179055610f8183611416565b167f8c5be1e5ebec7d5bd14f71427d1e84f3dd0314c0f7b2291e5b200ac8c7c3b9258480a480f35b6020608492519162461bcd60e51b8352820152603d60248201527f4552433732313a20617070726f76652063616c6c6572206973206e6f7420746f60448201527f6b656e206f776e6572206f7220617070726f76656420666f7220616c6c0000006064820152fd5b90508652600560205281862033875260205260ff828720541638610f5a565b506020608492519162461bcd60e51b8352820152602160248201527f4552433732313a20617070726f76616c20746f2063757272656e74206f776e656044820152603960f91b6064820152fd5b5091346104ba5760203660031901126104ba575061093c60209235611439565b50503461023c578160031936011261023c578051908280546110be81611338565b808552916001918083169081156106c457506001146110e957505050610656826102ac9403836112a5565b80809650527f290decd9548b62a8d60345a988386fc84ba6bc95484008f6362f93160ef3e5635b82861061112d575050506106568260206102ac9582010194610644565b80546020878701810191909152909501948101611110565b925050346101ea5760203660031901126101ea573563ffffffff60e01b81168091036101ea57602092506380ac58cd60e01b81149081156111a0575b811561118f575b5015158152f35b6301ffc9a760e01b14905038611188565b635b5e139f60e01b81149150611181565b919082519283825260005b8481106111dd575050826000602080949584010152601f8019910116010190565b6020818301810151848301820152016111bc565b600435906001600160a01b038216820361120757565b600080fd5b602435906001600160a01b038216820361120757565b6060906003190112611207576001600160a01b0390600435828116810361120757916024359081168103611207579060443590565b6020810190811067ffffffffffffffff82111761127357604052565b634e487b7160e01b600052604160045260246000fd5b6040810190811067ffffffffffffffff82111761127357604052565b90601f8019910116810190811067ffffffffffffffff82111761127357604052565b67ffffffffffffffff811161127357601f01601f191660200190565b9291926112ef826112c7565b916112fd60405193846112a5565b829481845281830111611207578281602093846000960137010152565b9080601f8301121561120757816020611335933591016112e3565b90565b90600182811c92168015611368575b602083101461135257565b634e487b7160e01b600052602260045260246000fd5b91607f1691611347565b6006546001600160a01b0316330361138657565b606460405162461bcd60e51b815260206004820152602060248201527f4f776e61626c653a2063616c6c6572206973206e6f7420746865206f776e65726044820152fd5b156113d157565b60405162461bcd60e51b815260206004820152601860248201527f4552433732313a20696e76616c696420746f6b656e20494400000000000000006044820152606490fd5b6000908152600260205260409020546001600160a01b03166113358115156113ca565b60008181526002602052604090205461145c906001600160a01b031615156113ca565b6000908152600460205260409020546001600160a01b031690565b1561147e57565b60405162461bcd60e51b815260206004820152602d60248201527f4552433732313a2063616c6c6572206973206e6f7420746f6b656e206f776e6560448201526c1c881bdc88185c1c1c9bdd9959609a1b6064820152608490fd5b60809060208152603260208201527f4552433732313a207472616e7366657220746f206e6f6e20455243373231526560408201527131b2b4bb32b91034b6b83632b6b2b73a32b960711b60608201520190565b1561153357565b60405162461bcd60e51b81528061154c600482016114d9565b0390fd5b906001600160a01b03808061156484611416565b16931691838314938415611597575b508315611581575b50505090565b61158d91929350611439565b161438808061157b565b909350600052600560205260406000208260005260205260ff604060002054169238611573565b156115c557565b60405162461bcd60e51b815260206004820152602560248201527f4552433732313a207472616e736665722066726f6d20696e636f72726563742060448201526437bbb732b960d91b6064820152608490fd5b906116409161162684611416565b6001600160a01b03939184169284929091831684146115be565b169182156116dd578161165d9161165686611416565b16146115be565b7fddf252ad1be2c89b69c2b068fc378daa952ba7f163c4a11628f55a4df523b3ef60008481526004602052604081206bffffffffffffffffffffffff60a01b9081815416905583825260036020526040822060001981540190558482526040822060018154019055858252600260205284604083209182541617905580a4565b60405162461bcd60e51b8152602060048201526024808201527f4552433732313a207472616e7366657220746f20746865207a65726f206164646044820152637265737360e01b6064820152608490fd5b91929091803b1561183f5761177b936040519081630a85bd0160e11b9384825233600483015260009687602484015260448301526080606483015281878160209a8b9660848301906111b1565b03926001600160a01b03165af18491816117ff575b506117ee575050503d6000146117e6573d6117aa816112c7565b906117b860405192836112a5565b81528091833d92013e5b805191826117e35760405162461bcd60e51b81528061154c600482016114d9565b01fd5b5060606117c2565b6001600160e01b0319161492509050565b9091508581813d8311611838575b61181781836112a5565b8101031261060557516001600160e01b031981168103610605579038611790565b503d61180d565b50915050600190565b92939190803b156118c55761189a946040518092630a85bd0160e11b9485835233600484015260018060a01b03809816602484015260448301526080606483015281806020998a9560848301906111b1565b03916000988991165af18491816117ff57506117ee575050503d6000146117e6573d6117aa816112c7565b5050915050600190565b60ff811461190d5760ff811690601f82116118fb57604051916118f183611289565b8252602082015290565b604051632cd44ac360e21b8152600490fd5b5060405160075481600061192083611338565b808352926001908181169081156119a65750600114611947575b50611335925003826112a5565b6007600090815291507fa66cc928b5edb82af9bd49922954155ab7b0942694bea4ce44661d9a8736c6885b84831061198b575061133593505081016020013861193a565b81935090816020925483858901015201910190918492611972565b90506020925061133594915060ff191682840152151560051b8201013861193a565b60ff81146119ea5760ff811690601f82116118fb57604051916118f183611289565b506040516008548160006119fd83611338565b808352926001908181169081156119a65750600114611a235750611335925003826112a5565b6008600090815291507ff3f7a9fe364faab93b216da50a3214154f22a0a2b415b23a84c8169e8b636ee35b848310611a67575061133593505081016020013861193a565b81935090816020925483858901015201910190918492611a4e565b15611a8957565b60405162461bcd60e51b815260206004820152601c60248201527f4552433732313a20746f6b656e20616c7265616479206d696e746564000000006044820152606490fd5b6005811015611bd25780611adf5750565b60018103611b2c5760405162461bcd60e51b815260206004820152601860248201527f45434453413a20696e76616c6964207369676e617475726500000000000000006044820152606490fd5b60028103611b795760405162461bcd60e51b815260206004820152601f60248201527f45434453413a20696e76616c6964207369676e6174757265206c656e677468006044820152606490fd5b600314611b8257565b60405162461bcd60e51b815260206004820152602260248201527f45434453413a20696e76616c6964207369676e6174757265202773272076616c604482015261756560f01b6064820152608490fd5b634e487b7160e01b600052602160045260246000fd5b906041815114600014611c1657611c12916020820151906060604084015193015160001a90611c20565b9091565b5050600090600290565b9291907f7fffffffffffffffffffffffffffffff5d576e7357a4501ddfe92f46681b20a08311611ca35791608094939160ff602094604051948552168484015260408301526060820152600093849182805260015afa15611c965781516001600160a01b03811615611c90579190565b50600190565b50604051903d90823e3d90fd5b50505050600090600390565b307f00000000000000000000000000000000000000000000000000000000000000006001600160a01b03161480611db1575b15611d0a577f000000000000000000000000000000000000000000000000000000000000000090565b60405160208101907f8b73c3c69bb8fe3d512ecc4cf759cc79239f7b179b0ffacaa9a75d522b39400f82527f000000000000000000000000000000000000000000000000000000000000000060408201527f000000000000000000000000000000000000000000000000000000000000000060608201524660808201523060a082015260a0815260c0810181811067ffffffffffffffff8211176112735760405251902090565b507f00000000000000000000000000000000000000000000000000000000000000004614611ce156fea26469706673582212201fd6b0e748db46741bed49165b97202cdd027e83fcd5b678ab6d5ee0b9b9034e64736f6c63430008140033290decd9548b62a8d60345a988386fc84ba6bc95484008f6362f93160ef3e563",
  "linkReferences": {},
  "deployedLinkReferences": {}
}