{
  "_format": "hh-sol-artifact-1",
  "contractName": "ArenaNFT",
  "sourceName": "contracts/ArenaNft.sol",
  "abi": [
    {
      "inputs": [
        {
          "internalType": "string",
          "name": "_name",
          "type": "string"
        },
        {
          "internalType": "string",
          "name": "_symbol",
          "type": "string"
        },
        {
          "internalType": "address",
          "name": "_initialSigner",
          "type": "address"
        }
      ],
      "stateMutability": "nonpayable",
      "type": "constructor"
    },
    {
      "inputs": [],
      "name": "InvalidShortString",
      "type": "error"
    },
    {
      "inputs": [
        {
          "internalType": "string",
          "name": "str",
          "type": "string"
        }
      ],
      "name": "StringTooLong",
      "type": "error"
    },
    {
      "anonymous": false,
      "inputs": [
        {
          "indexed": true,
          "internalType": "address",
          "name": "owner",
          "type": "address"
        },
        {
          "indexed": true,
          "internalType": "address",
          "name": "approved",
          "type": "address"
        },
        {
          "indexed": true,
          "internalType": "uint256",
          "name": "tokenId",
          "type": "uint256"
        }
      ],
      "name": "Approval",
      "type": "event"
    },
    {
      "anonymous": false,
      "inputs": [
        {
          "indexed": true,
          "internalType": "address",
          "name": "owner",
          "type": "address"
        },
        {
          "indexed": true,
          "internalType": "address",
          "name": "operator",
          "type": "address"
        },
        {
          "indexed": false,
          "internalType": "bool",
          "name": "approved",
          "type": "bool"
        }
      ],
      "name": "ApprovalForAll",
      "type": "event"
    },
    {
      "anonymous": false,
      "inputs": [],
      "name": "EIP712DomainChanged",
      "type": "event"
    },
    {
      "anonymous": false,
      "inputs": [
        {
          "indexed": true,
          "internalType": "address",
          "name": "previousOwner",
          "type": "address"
        },
        {
          "indexed": true,
          "internalType": "address",
          "name": "newOwner",
          "type": "address"
        }
      ],
      "name": "OwnershipTransferred",
      "type": "event"
    },
    {
      "anonymous": false,
      "inputs": [
        {
          "indexed": true,
          "internalType": "uint256",
          "name": "raffleId",
          "type": "uint256"
        },
        {
          "indexed": false,
          "internalType": "string",
          "name": "description",
          "type": "string"
        },
        {
          "indexed": false,
          "internalType": "uint256",
          "name": "requiredPoints",
          "type": "uint256"
        }
      ],
      "name": "RaffleCreated",
      "type": "event"
    },
    {
      "anonymous": false,
      "inputs": [
        {
          "indexed": true,
          "internalType": "uint256",
          "name": "raffleId",
          "type": "uint256"
        },
        {
          "indexed": true,
          "internalType": "address",
          "name": "winner",
          "type": "address"
        },
        {
          "indexed": false,
          "internalType": "uint256",
          "name": "nftId",
          "type": "uint256"
        }
      ],
      "name": "RaffleResolved",
      "type": "event"
    },
    {
      "anonymous": false,
      "inputs": [
        {
          "indexed": true,
          "internalType": "address",
          "name": "from",
          "type": "address"
        },
        {
          "indexed": true,
          "internalType": "address",
          "name": "to",
          "type": "address"
        },
        {
          "indexed": true,
          "internalType": "uint256",
          "name": "tokenId",
          "type": "uint256"
        }
      ],
      "name": "Transfer",
      "type": "event"
    },
    {
      "anonymous": false,
      "inputs": [
        {
          "indexed": true,
          "internalType": "uint256",
          "name": "raffleId",
          "type": "uint256"
        },
        {
          "indexed": true,
          "internalType": "address",
          "name": "user",
          "type": "address"
        }
      ],
      "name": "UserEntered",
      "type": "event"
    },
    {
      "inputs": [
        {
          "internalType": "address",
          "name": "to",
          "type": "address"
        },
        {
          "internalType": "uint256",
          "name": "tokenId",
          "type": "uint256"
        }
      ],
      "name": "approve",
      "outputs": [],
      "stateMutability": "nonpayable",
      "type": "function"
    },
    {
      "inputs": [
        {
          "internalType": "address",
          "name": "owner",
          "type": "address"
        }
      ],
      "name": "balanceOf",
      "outputs": [
        {
          "internalType": "uint256",
          "name": "",
          "type": "uint256"
        }
      ],
      "stateMutability": "view",
      "type": "function"
    },
    {
      "inputs": [
        {
          "internalType": "string",
          "name": "_description",
          "type": "string"
        },
        {
          "internalType": "uint256",
          "name": "_requiredPoints",
          "type": "uint256"
        },
        {
          "internalType": "uint256",
          "name": "_deadline",
          "type": "uint256"
        }
      ],
      "name": "createRaffle",
      "outputs": [],
      "stateMutability": "nonpayable",
      "type": "function"
    },
    {
      "inputs": [],
      "name": "eip712Domain",
      "outputs": [
        {
          "internalType": "bytes1",
          "name": "fields",
          "type": "bytes1"
        },
        {
          "internalType": "string",
          "name": "name",
          "type": "string"
        },
        {
          "internalType": "string",
          "name": "version",
          "type": "string"
        },
        {
          "internalType": "uint256",
          "name": "chainId",
          "type": "uint256"
        },
        {
          "internalType": "address",
          "name": "verifyingContract",
          "type": "address"
        },
        {
          "internalType": "bytes32",
          "name": "salt",
          "type": "bytes32"
        },
        {
          "internalType": "uint256[]",
          "name": "extensions",
          "type": "uint256[]"
        }
      ],
      "stateMutability": "view",
      "type": "function"
    },
    {
      "inputs": [
        {
          "internalType": "uint256",
          "name": "_raffleId",
          "type": "uint256"
        },
        {
          "internalType": "bytes",
          "name": "_signature",
          "type": "bytes"
        }
      ],
      "name": "enterRaffle",
      "outputs": [],
      "stateMutability": "nonpayable",
      "type": "function"
    },
    {
      "inputs": [
        {
          "internalType": "uint256",
          "name": "tokenId",
          "type": "uint256"
        }
      ],
      "name": "getApproved",
      "outputs": [
        {
          "internalType": "address",
          "name": "",
          "type": "address"
        }
      ],
      "stateMutability": "view",
      "type": "function"
    },
    {
      "inputs": [
        {
          "internalType": "address",
          "name": "owner",
          "type": "address"
        },
        {
          "internalType": "address",
          "name": "operator",
          "type": "address"
        }
      ],
      "name": "isApprovedForAll",
      "outputs": [
        {
          "internalType": "bool",
          "name": "",
          "type": "bool"
        }
      ],
      "stateMutability": "view",
      "type": "function"
    },
    {
      "inputs": [],
      "name": "name",
      "outputs": [
        {
          "internalType": "string",
          "name": "",
          "type": "string"
        }
      ],
      "stateMutability": "view",
      "type": "function"
    },
    {
      "inputs": [],
      "name": "nextRaffleId",
      "outputs": [
        {
          "internalType": "uint256",
          "name": "",
          "type": "uint256"
        }
      ],
      "stateMutability": "view",
      "type": "function"
    },
    {
      "inputs": [],
      "name": "owner",
      "outputs": [
        {
          "internalType": "address",
          "name": "",
          "type": "address"
        }
      ],
      "stateMutability": "view",
      "type": "function"
    },
    {
      "inputs": [
        {
          "internalType": "uint256",
          "name": "tokenId",
          "type": "uint256"
        }
      ],
      "name": "ownerOf",
      "outputs": [
        {
          "internalType": "address",
          "name": "",
          "type": "address"
        }
      ],
      "stateMutability": "view",
      "type": "function"
    },
    {
      "inputs": [
        {
          "internalType": "uint256",
          "name": "",
          "type": "uint256"
        }
      ],
      "name": "raffles",
      "outputs": [
        {
          "internalType": "string",
          "name": "description",
          "type": "string"
        },
        {
          "internalType": "uint256",
          "name": "requiredPoints",
          "type": "uint256"
        },
        {
          "internalType": "uint256",
          "name": "deadline",
          "type": "uint256"
        },
        {
          "internalType": "bool",
          "name": "isResolved",
          "type": "bool"
        },
        {
          "internalType": "address",
          "name": "winner",
          "type": "address"
        }
      ],
      "stateMutability": "view",
      "type": "function"
    },
    {
      "inputs": [],
      "name": "renounceOwnership",
      "outputs": [],
      "stateMutability": "nonpayable",
      "type": "function"
    },
    {
      "inputs": [
        {
          "internalType": "uint256",
          "name": "_raffleId",
          "type": "uint256"
        },
        {
          "internalType": "address",
          "name": "_winner",
          "type": "address"
        }
      ],
      "name": "resolveRaffleAndMint",
      "outputs": [],
      "stateMutability": "nonpayable",
      "type": "function"
    },
    {
      "inputs": [
        {
          "internalType": "address",
          "name": "from",
          "type": "address"
        },
        {
          "internalType": "address",
          "name": "to",
          "type": "address"
        },
        {
          "internalType": "uint256",
          "name": "tokenId",
          "type": "uint256"
        }
      ],
      "name": "safeTransferFrom",
      "outputs": [],
      "stateMutability": "nonpayable",
      "type": "function"
    },
    {
      "inputs": [
        {
          "internalType": "address",
          "name": "from",
          "type": "address"
        },
        {
          "internalType": "address",
          "name": "to",
          "type": "address"
        },
        {
          "internalType": "uint256",
          "name": "tokenId",
          "type": "uint256"
        },
        {
          "internalType": "bytes",
          "name": "data",
          "type": "bytes"
        }
      ],
      "name": "safeTransferFrom",
      "outputs": [],
      "stateMutability": "nonpayable",
      "type": "function"
    },
    {
      "inputs": [
        {
          "internalType": "address",
          "name": "operator",
          "type": "address"
        },
        {
          "internalType": "bool",
          "name": "approved",
          "type": "bool"
        }
      ],
      "name": "setApprovalForAll",
      "outputs": [],
      "stateMutability": "nonpayable",
      "type": "function"
    },
    {
      "inputs": [],
      "name": "signerAddress",
      "outputs": [
        {
          "internalType": "address",
          "name": "",
          "type": "address"
        }
      ],
      "stateMutability": "view",
      "type": "function"
    },
    {
      "inputs": [
        {
          "internalType": "bytes4",
          "name": "interfaceId",
          "type": "bytes4"
        }
      ],
      "name": "supportsInterface",
      "outputs": [
        {
          "internalType": "bool",
          "name": "",
          "type": "bool"
        }
      ],
      "stateMutability": "view",
      "type": "function"
    },
    {
      "inputs": [],
      "name": "symbol",
      "outputs": [
        {
          "internalType": "string",
          "name": "",
          "type": "string"
        }
      ],
      "stateMutability": "view",
      "type": "function"
    },
    {
      "inputs": [
        {
          "internalType": "uint256",
          "name": "tokenId",
          "type": "uint256"
        }
      ],
      "name": "tokenURI",
      "outputs": [
        {
          "internalType": "string",
          "name": "",
          "type": "string"
        }
      ],
      "stateMutability": "view",
      "type": "function"
    },
    {
      "inputs": [
        {
          "internalType": "address",
          "name": "from",
          "type": "address"
        },
        {
          "internalType": "address",
          "name": "to",
          "type": "address"
        },
        {
          "internalType": "uint256",
          "name": "tokenId",
          "type": "uint256"
        }
      ],
      "name": "transferFrom",
      "outputs": [],
      "stateMutability": "nonpayable",
      "type": "function"
    },
    {
      "inputs": [
        {
          "internalType": "address",
          "name": "newOwner",
          "type": "address"
        }
      ],
      "name": "transferOwnership",
      "outputs": [],
      "stateMutability": "nonpayable",
      "type": "function"
    }
  ],
  "bytecode": "0x6101606040523480156200001257600080fd5b506040516200280938038062002809833981016040819052620000359162000311565b6040805180820190915260018152603160f81b60208201528390818460006200005f83826200042d565b5060016200006e82826200042d565b5050506200008b620000856200016960201b60201c565b6200016d565b62000098826007620001bf565b61012052620000a9816008620001bf565b61014052815160208084019190912060e052815190820120610100524660a0526200013760e05161010051604080517f8b73c3c69bb8fe3d512ecc4cf759cc79239f7b179b0ffacaa9a75d522b39400f60208201529081019290925260608201524660808201523060a082015260009060c00160405160208183030381529060405280519060200120905090565b60805250503060c052600b80546001600160a01b0319166001600160a01b039290921691909117905550620005539050565b3390565b600680546001600160a01b038381166001600160a01b0319831681179093556040519116919082907f8be0079c531659141344cd1fd0a4f28419497f9722a3daafe3b4186f6b6457e090600090a35050565b6000602083511015620001df57620001d783620001f8565b9050620001f2565b81620001ec84826200042d565b5060ff90505b92915050565b600080829050601f815111156200022f578260405163305a27a960e01b8152600401620002269190620004f9565b60405180910390fd5b80516200023c826200052e565b179392505050565b634e487b7160e01b600052604160045260246000fd5b60005b83811015620002775781810151838201526020016200025d565b50506000910152565b600082601f8301126200029257600080fd5b81516001600160401b0380821115620002af57620002af62000244565b604051601f8301601f19908116603f01168101908282118183101715620002da57620002da62000244565b81604052838152866020858801011115620002f457600080fd5b620003078460208301602089016200025a565b9695505050505050565b6000806000606084860312156200032757600080fd5b83516001600160401b03808211156200033f57600080fd5b6200034d8783880162000280565b945060208601519150808211156200036457600080fd5b50620003738682870162000280565b604086015190935090506001600160a01b03811681146200039357600080fd5b809150509250925092565b600181811c90821680620003b357607f821691505b602082108103620003d457634e487b7160e01b600052602260045260246000fd5b50919050565b601f8211156200042857600081815260208120601f850160051c81016020861015620004035750805b601f850160051c820191505b8181101562000424578281556001016200040f565b5050505b505050565b81516001600160401b0381111562000449576200044962000244565b62000461816200045a84546200039e565b84620003da565b602080601f831160018114620004995760008415620004805750858301515b600019600386901b1c1916600185901b17855562000424565b600085815260208120601f198616915b82811015620004ca57888601518255948401946001909101908401620004a9565b5085821015620004e95787850151600019600388901b60f8161c191681555b5050505050600190811b01905550565b60208152600082518060208401526200051a8160408501602087016200025a565b601f01601f19169190910160400192915050565b80516020808301519190811015620003d45760001960209190910360031b1b16919050565b60805160a05160c05160e05161010051610120516101405161225b620005ae6000396000610a6f01526000610a44015260006116440152600061161c01526000611577015260006115a1015260006115cb015261225b6000f3fe608060405234801561001057600080fd5b506004361061014d5760003560e01c806370a08231116100c3578063a22cb4651161007c578063a22cb465146102cb578063b88d4fde146102de578063c68cd7d9146102f1578063c87b56dd14610304578063e985e9c514610317578063f2fde38b1461032a57600080fd5b806370a0823114610265578063715018a6146102865780638458e3e41461028e57806384b0196e146102975780638da5cb5b146102b257806395d89b41146102c357600080fd5b806342842e0e1161011557806342842e0e146101e25780634968493e146101f55780635b7633d0146102085780635d36a2361461021b5780635d4bc0ce1461022e5780636352211e1461025257600080fd5b806301ffc9a71461015257806306fdde031461017a578063081812fc1461018f578063095ea7b3146101ba57806323b872dd146101cf575b600080fd5b610165610160366004611ab6565b61033d565b60405190151581526020015b60405180910390f35b61018261038f565b6040516101719190611b23565b6101a261019d366004611b36565b610421565b6040516001600160a01b039091168152602001610171565b6101cd6101c8366004611b6b565b610448565b005b6101cd6101dd366004611b95565b610562565b6101cd6101f0366004611b95565b610593565b6101cd610203366004611c7d565b6105ae565b600b546101a2906001600160a01b031681565b6101cd610229366004611cc4565b610711565b61024161023c366004611b36565b610877565b604051610171959493929190611cf0565b6101a2610260366004611b36565b61093c565b610278610273366004611d30565b61099c565b604051908152602001610171565b6101cd610a22565b610278600a5481565b61029f610a36565b6040516101719796959493929190611d4b565b6006546001600160a01b03166101a2565b610182610abf565b6101cd6102d9366004611de1565b610ace565b6101cd6102ec366004611e1d565b610add565b6101cd6102ff366004611e85565b610b15565b610182610312366004611b36565b610bab565b610165610325366004611ee7565b610c1f565b6101cd610338366004611d30565b610c4d565b60006001600160e01b031982166380ac58cd60e01b148061036e57506001600160e01b03198216635b5e139f60e01b145b8061038957506301ffc9a760e01b6001600160e01b03198316145b92915050565b60606000805461039e90611f11565b80601f01602080910402602001604051908101604052809291908181526020018280546103ca90611f11565b80156104175780601f106103ec57610100808354040283529160200191610417565b820191906000526020600020905b8154815290600101906020018083116103fa57829003601f168201915b5050505050905090565b600061042c82610cc6565b506000908152600460205260409020546001600160a01b031690565b60006104538261093c565b9050806001600160a01b0316836001600160a01b0316036104c55760405162461bcd60e51b815260206004820152602160248201527f4552433732313a20617070726f76616c20746f2063757272656e74206f776e656044820152603960f91b60648201526084015b60405180910390fd5b336001600160a01b03821614806104e157506104e18133610c1f565b6105535760405162461bcd60e51b815260206004820152603d60248201527f4552433732313a20617070726f76652063616c6c6572206973206e6f7420746f60448201527f6b656e206f776e6572206f7220617070726f76656420666f7220616c6c00000060648201526084016104bc565b61055d8383610d25565b505050565b61056c3382610d93565b6105885760405162461bcd60e51b81526004016104bc90611f4b565b61055d838383610df2565b61055d83838360405180602001604052806000815250610add565b6000828152600960205260409020600381015460ff161580156105d45750806002015442105b6106135760405162461bcd60e51b815260206004820152601060248201526f149859999b19481a5cc818db1bdcd95960821b60448201526064016104bc565b33600090815260048201602052604090205460ff16156106675760405162461bcd60e51b815260206004820152600f60248201526e105b1c9958591e48195b9d195c9959608a1b60448201526064016104bc565b6000610674843385610f56565b600b549091506001600160a01b038083169116146106c85760405162461bcd60e51b8152602060048201526011602482015270496e76616c6964207369676e617475726560781b60448201526064016104bc565b336000818152600484016020526040808220805460ff191660011790555186917fa42c6ee33c865db3856a2d6143fe6f030aae133fe6b234ba31d1e4b27eb23f4591a350505050565b610719610fd1565b60008281526009602052604090206003015460ff161561077b5760405162461bcd60e51b815260206004820152601760248201527f526166666c6520616c7265616479207265736f6c76656400000000000000000060448201526064016104bc565b60008281526009602090815260408083206001600160a01b038516845260040190915290205460ff166107f05760405162461bcd60e51b815260206004820152601a60248201527f57696e6e657220646964206e6f7420706172746963697061746500000000000060448201526064016104bc565b600082815260096020526040902060030180546001600160a01b038316610100026001600160a81b03199091161760011790558161082e828261102b565b816001600160a01b0316837fd7eb48ea2594ee9155a6a61c37dfa0b04cdce70843408db48148695fe8bad1a18360405161086a91815260200190565b60405180910390a3505050565b60096020526000908152604090208054819061089290611f11565b80601f01602080910402602001604051908101604052809291908181526020018280546108be90611f11565b801561090b5780601f106108e05761010080835404028352916020019161090b565b820191906000526020600020905b8154815290600101906020018083116108ee57829003601f168201915b50505050600183015460028401546003909401549293909290915060ff81169061010090046001600160a01b031685565b6000818152600260205260408120546001600160a01b0316806103895760405162461bcd60e51b8152602060048201526018602482015277115490cdcc8c4e881a5b9d985b1a59081d1bdad95b88125160421b60448201526064016104bc565b60006001600160a01b038216610a065760405162461bcd60e51b815260206004820152602960248201527f4552433732313a2061646472657373207a65726f206973206e6f7420612076616044820152683634b21037bbb732b960b91b60648201526084016104bc565b506001600160a01b031660009081526003602052604090205490565b610a2a610fd1565b610a346000611045565b565b600060608082808083610a6a7f00000000000000000000000000000000000000000000000000000000000000006007611097565b610a957f00000000000000000000000000000000000000000000000000000000000000006008611097565b60408051600080825260208201909252600f60f81b9b939a50919850469750309650945092509050565b60606001805461039e90611f11565b610ad9338383611142565b5050565b610ae73383610d93565b610b035760405162461bcd60e51b81526004016104bc90611f4b565b610b0f84848484611208565b50505050565b610b1d610fd1565b600a546000818152600960205260409020610b388582611fe6565b5060008181526009602052604090819020600181018590556002018390555181907f36ef0ed77747caef9e531b27ca219d606acf84371054260fc29fb4df9cdc3b7090610b8890879087906120a6565b60405180910390a2600a8054906000610ba0836120c8565b919050555050505050565b6060610bb682610cc6565b6000610bcd60408051602081019091526000815290565b90506000815111610bed5760405180602001604052806000815250610c18565b80610bf78461123b565b604051602001610c089291906120ef565b6040516020818303038152906040525b9392505050565b6001600160a01b03918216600090815260056020908152604080832093909416825291909152205460ff1690565b610c55610fd1565b6001600160a01b038116610cba5760405162461bcd60e51b815260206004820152602660248201527f4f776e61626c653a206e6577206f776e657220697320746865207a65726f206160448201526564647265737360d01b60648201526084016104bc565b610cc381611045565b50565b6000818152600260205260409020546001600160a01b0316610cc35760405162461bcd60e51b8152602060048201526018602482015277115490cdcc8c4e881a5b9d985b1a59081d1bdad95b88125160421b60448201526064016104bc565b600081815260046020526040902080546001600160a01b0319166001600160a01b0384169081179091558190610d5a8261093c565b6001600160a01b03167f8c5be1e5ebec7d5bd14f71427d1e84f3dd0314c0f7b2291e5b200ac8c7c3b92560405160405180910390a45050565b600080610d9f8361093c565b9050806001600160a01b0316846001600160a01b03161480610dc65750610dc68185610c1f565b80610dea5750836001600160a01b0316610ddf84610421565b6001600160a01b0316145b949350505050565b826001600160a01b0316610e058261093c565b6001600160a01b031614610e2b5760405162461bcd60e51b81526004016104bc9061211e565b6001600160a01b038216610e8d5760405162461bcd60e51b8152602060048201526024808201527f4552433732313a207472616e7366657220746f20746865207a65726f206164646044820152637265737360e01b60648201526084016104bc565b826001600160a01b0316610ea08261093c565b6001600160a01b031614610ec65760405162461bcd60e51b81526004016104bc9061211e565b600081815260046020908152604080832080546001600160a01b03199081169091556001600160a01b0387811680865260038552838620805460001901905590871680865283862080546001019055868652600290945282852080549092168417909155905184937fddf252ad1be2c89b69c2b068fc378daa952ba7f163c4a11628f55a4df523b3ef91a4505050565b604080517f853c297dc4da46737b8997541d4330dd30c5d7022b88e2dfc46c8f1657436af060208201529081018490526001600160a01b03831660608201526000908190610fbc90608001604051602081830303815290604052805190602001206112ce565b9050610fc881846112fb565b95945050505050565b6006546001600160a01b03163314610a345760405162461bcd60e51b815260206004820181905260248201527f4f776e61626c653a2063616c6c6572206973206e6f7420746865206f776e657260448201526064016104bc565b610ad982826040518060200160405280600081525061131f565b600680546001600160a01b038381166001600160a01b0319831681179093556040519116919082907f8be0079c531659141344cd1fd0a4f28419497f9722a3daafe3b4186f6b6457e090600090a35050565b606060ff83146110b1576110aa83611352565b9050610389565b8180546110bd90611f11565b80601f01602080910402602001604051908101604052809291908181526020018280546110e990611f11565b80156111365780601f1061110b57610100808354040283529160200191611136565b820191906000526020600020905b81548152906001019060200180831161111957829003601f168201915b50505050509050610389565b816001600160a01b0316836001600160a01b0316036111a35760405162461bcd60e51b815260206004820152601960248201527f4552433732313a20617070726f766520746f2063616c6c65720000000000000060448201526064016104bc565b6001600160a01b03838116600081815260056020908152604080832094871680845294825291829020805460ff191686151590811790915591519182527f17307eab39ab6107e8899845ad3d59bd9653f200f220920489ca2b5937696c31910161086a565b611213848484610df2565b61121f84848484611391565b610b0f5760405162461bcd60e51b81526004016104bc90612163565b6060600061124883611492565b600101905060008167ffffffffffffffff81111561126857611268611bd1565b6040519080825280601f01601f191660200182016040528015611292576020820181803683370190505b5090508181016020015b600019016f181899199a1a9b1b9c1cb0b131b232b360811b600a86061a8153600a850494508461129c57509392505050565b60006103896112db61156a565b8360405161190160f01b8152600281019290925260228201526042902090565b600080600061130a858561169a565b91509150611317816116df565b509392505050565b6113298383611829565b6113366000848484611391565b61055d5760405162461bcd60e51b81526004016104bc90612163565b6060600061135f836119b4565b604080516020808252818301909252919250600091906020820181803683375050509182525060208101929092525090565b60006001600160a01b0384163b1561148757604051630a85bd0160e11b81526001600160a01b0385169063150b7a02906113d59033908990889088906004016121b5565b6020604051808303816000875af1925050508015611410575060408051601f3d908101601f1916820190925261140d918101906121f2565b60015b61146d573d80801561143e576040519150601f19603f3d011682016040523d82523d6000602084013e611443565b606091505b5080516000036114655760405162461bcd60e51b81526004016104bc90612163565b805181602001fd5b6001600160e01b031916630a85bd0160e11b149050610dea565b506001949350505050565b60008072184f03e93ff9f4daa797ed6e38ed64bf6a1f0160401b83106114d15772184f03e93ff9f4daa797ed6e38ed64bf6a1f0160401b830492506040015b6d04ee2d6d415b85acef810000000083106114fd576d04ee2d6d415b85acef8100000000830492506020015b662386f26fc10000831061151b57662386f26fc10000830492506010015b6305f5e1008310611533576305f5e100830492506008015b612710831061154757612710830492506004015b60648310611559576064830492506002015b600a83106103895760010192915050565b6000306001600160a01b037f0000000000000000000000000000000000000000000000000000000000000000161480156115c357507f000000000000000000000000000000000000000000000000000000000000000046145b156115ed57507f000000000000000000000000000000000000000000000000000000000000000090565b611695604080517f8b73c3c69bb8fe3d512ecc4cf759cc79239f7b179b0ffacaa9a75d522b39400f60208201527f0000000000000000000000000000000000000000000000000000000000000000918101919091527f000000000000000000000000000000000000000000000000000000000000000060608201524660808201523060a082015260009060c00160405160208183030381529060405280519060200120905090565b905090565b60008082516041036116d05760208301516040840151606085015160001a6116c4878285856119dc565b945094505050506116d8565b506000905060025b9250929050565b60008160048111156116f3576116f361220f565b036116fb5750565b600181600481111561170f5761170f61220f565b0361175c5760405162461bcd60e51b815260206004820152601860248201527f45434453413a20696e76616c6964207369676e6174757265000000000000000060448201526064016104bc565b60028160048111156117705761177061220f565b036117bd5760405162461bcd60e51b815260206004820152601f60248201527f45434453413a20696e76616c6964207369676e6174757265206c656e6774680060448201526064016104bc565b60038160048111156117d1576117d161220f565b03610cc35760405162461bcd60e51b815260206004820152602260248201527f45434453413a20696e76616c6964207369676e6174757265202773272076616c604482015261756560f01b60648201526084016104bc565b6001600160a01b03821661187f5760405162461bcd60e51b815260206004820181905260248201527f4552433732313a206d696e7420746f20746865207a65726f206164647265737360448201526064016104bc565b6000818152600260205260409020546001600160a01b0316156118e45760405162461bcd60e51b815260206004820152601c60248201527f4552433732313a20746f6b656e20616c7265616479206d696e7465640000000060448201526064016104bc565b6000818152600260205260409020546001600160a01b0316156119495760405162461bcd60e51b815260206004820152601c60248201527f4552433732313a20746f6b656e20616c7265616479206d696e7465640000000060448201526064016104bc565b6001600160a01b038216600081815260036020908152604080832080546001019055848352600290915280822080546001600160a01b0319168417905551839291907fddf252ad1be2c89b69c2b068fc378daa952ba7f163c4a11628f55a4df523b3ef908290a45050565b600060ff8216601f81111561038957604051632cd44ac360e21b815260040160405180910390fd5b6000807f7fffffffffffffffffffffffffffffff5d576e7357a4501ddfe92f46681b20a0831115611a135750600090506003611a97565b6040805160008082526020820180845289905260ff881692820192909252606081018690526080810185905260019060a0016020604051602081039080840390855afa158015611a67573d6000803e3d6000fd5b5050604051601f1901519150506001600160a01b038116611a9057600060019250925050611a97565b9150600090505b94509492505050565b6001600160e01b031981168114610cc357600080fd5b600060208284031215611ac857600080fd5b8135610c1881611aa0565b60005b83811015611aee578181015183820152602001611ad6565b50506000910152565b60008151808452611b0f816020860160208601611ad3565b601f01601f19169290920160200192915050565b602081526000610c186020830184611af7565b600060208284031215611b4857600080fd5b5035919050565b80356001600160a01b0381168114611b6657600080fd5b919050565b60008060408385031215611b7e57600080fd5b611b8783611b4f565b946020939093013593505050565b600080600060608486031215611baa57600080fd5b611bb384611b4f565b9250611bc160208501611b4f565b9150604084013590509250925092565b634e487b7160e01b600052604160045260246000fd5b600067ffffffffffffffff80841115611c0257611c02611bd1565b604051601f8501601f19908116603f01168101908282118183101715611c2a57611c2a611bd1565b81604052809350858152868686011115611c4357600080fd5b858560208301376000602087830101525050509392505050565b600082601f830112611c6e57600080fd5b610c1883833560208501611be7565b60008060408385031215611c9057600080fd5b82359150602083013567ffffffffffffffff811115611cae57600080fd5b611cba85828601611c5d565b9150509250929050565b60008060408385031215611cd757600080fd5b82359150611ce760208401611b4f565b90509250929050565b60a081526000611d0360a0830188611af7565b602083019690965250604081019390935290151560608301526001600160a01b0316608090910152919050565b600060208284031215611d4257600080fd5b610c1882611b4f565b60ff60f81b881681526000602060e081840152611d6b60e084018a611af7565b8381036040850152611d7d818a611af7565b606085018990526001600160a01b038816608086015260a0850187905284810360c0860152855180825283870192509083019060005b81811015611dcf57835183529284019291840191600101611db3565b50909c9b505050505050505050505050565b60008060408385031215611df457600080fd5b611dfd83611b4f565b915060208301358015158114611e1257600080fd5b809150509250929050565b60008060008060808587031215611e3357600080fd5b611e3c85611b4f565b9350611e4a60208601611b4f565b925060408501359150606085013567ffffffffffffffff811115611e6d57600080fd5b611e7987828801611c5d565b91505092959194509250565b600080600060608486031215611e9a57600080fd5b833567ffffffffffffffff811115611eb157600080fd5b8401601f81018613611ec257600080fd5b611ed186823560208401611be7565b9660208601359650604090950135949350505050565b60008060408385031215611efa57600080fd5b611f0383611b4f565b9150611ce760208401611b4f565b600181811c90821680611f2557607f821691505b602082108103611f4557634e487b7160e01b600052602260045260246000fd5b50919050565b6020808252602d908201527f4552433732313a2063616c6c6572206973206e6f7420746f6b656e206f776e6560408201526c1c881bdc88185c1c1c9bdd9959609a1b606082015260800190565b601f82111561055d57600081815260208120601f850160051c81016020861015611fbf5750805b601f850160051c820191505b81811015611fde57828155600101611fcb565b505050505050565b815167ffffffffffffffff81111561200057612000611bd1565b6120148161200e8454611f11565b84611f98565b602080601f83116001811461204957600084156120315750858301515b600019600386901b1c1916600185901b178555611fde565b600085815260208120601f198616915b8281101561207857888601518255948401946001909101908401612059565b50858210156120965787850151600019600388901b60f8161c191681555b5050505050600190811b01905550565b6040815260006120b96040830185611af7565b90508260208301529392505050565b6000600182016120e857634e487b7160e01b600052601160045260246000fd5b5060010190565b60008351612101818460208801611ad3565b835190830190612115818360208801611ad3565b01949350505050565b60208082526025908201527f4552433732313a207472616e736665722066726f6d20696e636f72726563742060408201526437bbb732b960d91b606082015260800190565b60208082526032908201527f4552433732313a207472616e7366657220746f206e6f6e20455243373231526560408201527131b2b4bb32b91034b6b83632b6b2b73a32b960711b606082015260800190565b6001600160a01b03858116825284166020820152604081018390526080606082018190526000906121e890830184611af7565b9695505050505050565b60006020828403121561220457600080fd5b8151610c1881611aa0565b634e487b7160e01b600052602160045260246000fdfea26469706673582212203a36a2cc4baa5b3ee4b8b041413457f98436aa2bc88a6815a009c257368da9fb64736f6c63430008140033",
  "linkReferences": {},
  "deployedLinkReferences": {}
}