{"contracts/SimpleDuel.sol":{"SimpleDuelSecure":{"abi":[{"inputs":[{"internalType":"address","name":"_bettingTokenAddress","type":"address"},{"internalType":"address","name":"_fanTokenAddress","type":"address"},{"internalType":"uint8","name":"_fanTokenDecimals","type":"uint8"},{"internalType":"uint8","name":"_bettingTokenDecimals","type":"uint8"}],"stateMutability":"nonpayable","type":"constructor"},{"anonymous":false,"inputs":[{"indexed":true,"internalType":"address","name":"user","type":"address"},{"indexed":false,"internalType":"uint256","name":"duelId","type":"uint256"}],"name":"ArenaEligibleBet","type":"event"},{"anonymous":false,"inputs":[{"indexed":true,"internalType":"uint256","name":"duelId","type":"uint256"},{"indexed":true,"internalType":"address","name":"user","type":"address"},{"indexed":false,"internalType":"uint256","name":"outcomeId","type":"uint256"},{"indexed":false,"internalType":"uint256","name":"amount","type":"uint256"},{"indexed":false,"internalType":"uint256","name":"fanTokenBalance","type":"uint256"}],"name":"BetPlaced","type":"event"},{"anonymous":false,"inputs":[{"indexed":true,"internalType":"uint256","name":"duelId","type":"uint256"}],"name":"DuelCanceled","type":"event"},{"anonymous":false,"inputs":[{"indexed":true,"internalType":"uint256","name":"duelId","type":"uint256"},{"indexed":false,"internalType":"string","name":"title","type":"string"},{"indexed":false,"internalType":"string","name":"category","type":"string"},{"indexed":false,"internalType":"bool","name":"arenaEligible","type":"bool"},{"indexed":false,"internalType":"string[3]","name":"outcomes","type":"string[3]"},{"indexed":false,"internalType":"uint256","name":"deadline","type":"uint256"}],"name":"DuelCreated","type":"event"},{"anonymous":false,"inputs":[{"indexed":true,"internalType":"uint256","name":"duelId","type":"uint256"},{"indexed":false,"internalType":"uint256","name":"winningOutcomeId","type":"uint256"}],"name":"DuelResolved","type":"event"},{"anonymous":false,"inputs":[{"indexed":true,"internalType":"address","name":"to","type":"address"},{"indexed":false,"internalType":"uint256","name":"amount","type":"uint256"}],"name":"FeesWithdrawn","type":"event"},{"anonymous":false,"inputs":[{"indexed":true,"internalType":"uint256","name":"duelId","type":"uint256"},{"indexed":true,"internalType":"address","name":"user","type":"address"},{"indexed":false,"internalType":"uint256","name":"amount","type":"uint256"},{"indexed":false,"internalType":"uint256","name":"bonus","type":"uint256"}],"name":"GainsClaimed","type":"event"},{"anonymous":false,"inputs":[{"indexed":true,"internalType":"address","name":"previousOwner","type":"address"},{"indexed":true,"internalType":"address","name":"newOwner","type":"address"}],"name":"OwnershipTransferred","type":"event"},{"anonymous":false,"inputs":[{"indexed":false,"internalType":"address","name":"account","type":"address"}],"name":"Paused","type":"event"},{"anonymous":false,"inputs":[{"indexed":true,"internalType":"address","name":"user","type":"address"},{"indexed":false,"internalType":"uint256","name":"duelId","type":"uint256"},{"indexed":false,"internalType":"uint256","name":"points","type":"uint256"}],"name":"PointsEarned","type":"event"},{"anonymous":false,"inputs":[{"indexed":true,"internalType":"uint256","name":"duelId","type":"uint256"},{"indexed":true,"internalType":"address","name":"user","type":"address"},{"indexed":false,"internalType":"uint256","name":"amount","type":"uint256"}],"name":"RefundIssued","type":"event"},{"anonymous":false,"inputs":[{"indexed":true,"internalType":"uint256","name":"duelId","type":"uint256"},{"indexed":false,"internalType":"uint256","name":"winningOutcomeId","type":"uint256"},{"indexed":false,"internalType":"uint256","name":"executeAt","type":"uint256"}],"name":"ResolutionProposed","type":"event"},{"anonymous":false,"inputs":[{"indexed":true,"internalType":"address","name":"resolver","type":"address"},{"indexed":false,"internalType":"bool","name":"authorized","type":"bool"}],"name":"ResolverAuthorized","type":"event"},{"anonymous":false,"inputs":[{"indexed":false,"internalType":"address","name":"account","type":"address"}],"name":"Unpaused","type":"event"},{"inputs":[],"name":"MAX_FEE_PERCENT","outputs":[{"internalType":"uint256","name":"","type":"uint256"}],"stateMutability":"view","type":"function"},{"inputs":[],"name":"RESOLUTION_TIMELOCK","outputs":[{"internalType":"uint256","name":"","type":"uint256"}],"stateMutability":"view","type":"function"},{"inputs":[{"internalType":"address","name":"_resolver","type":"address"},{"internalType":"bool","name":"_authorized","type":"bool"}],"name":"authorizeResolver","outputs":[],"stateMutability":"nonpayable","type":"function"},{"inputs":[{"internalType":"address","name":"","type":"address"}],"name":"authorizedResolvers","outputs":[{"internalType":"bool","name":"","type":"bool"}],"stateMutability":"view","type":"function"},{"inputs":[],"name":"bettingToken","outputs":[{"internalType":"contract IERC20","name":"","type":"address"}],"stateMutability":"view","type":"function"},{"inputs":[],"name":"bettingTokenDecimals","outputs":[{"internalType":"uint8","name":"","type":"uint8"}],"stateMutability":"view","type":"function"},{"inputs":[{"internalType":"uint256","name":"_duelId","type":"uint256"},{"internalType":"address","name":"_user","type":"address"}],"name":"calculatePotentialGains","outputs":[{"internalType":"uint256","name":"baseGains","type":"uint256"},{"internalType":"uint256","name":"bonusGains","type":"uint256"}],"stateMutability":"view","type":"function"},{"inputs":[{"internalType":"uint256","name":"_duelId","type":"uint256"}],"name":"claimGains","outputs":[],"stateMutability":"nonpayable","type":"function"},{"inputs":[{"internalType":"uint256","name":"_duelId","type":"uint256"}],"name":"claimRefund","outputs":[],"stateMutability":"nonpayable","type":"function"},{"inputs":[{"internalType":"string","name":"_title","type":"string"},{"internalType":"string","name":"_category","type":"string"},{"internalType":"bool","name":"_arenaEligible","type":"bool"},{"internalType":"string[3]","name":"_outcomes","type":"string[3]"},{"internalType":"uint256","name":"_deadline","type":"uint256"}],"name":"createDuel","outputs":[],"stateMutability":"nonpayable","type":"function"},{"inputs":[{"internalType":"uint256","name":"","type":"uint256"}],"name":"duels","outputs":[{"internalType":"string","name":"title","type":"string"},{"internalType":"string","name":"category","type":"string"},{"internalType":"bool","name":"arenaEligible","type":"bool"},{"internalType":"uint256","name":"deadline","type":"uint256"},{"internalType":"bool","name":"isResolved","type":"bool"},{"internalType":"bool","name":"isCanceled","type":"bool"},{"internalType":"uint256","name":"winningOutcomeId","type":"uint256"},{"internalType":"uint256","name":"potTotal","type":"uint256"},{"internalType":"uint256","name":"feesCollected","type":"uint256"}],"stateMutability":"view","type":"function"},{"inputs":[{"internalType":"address","name":"_token","type":"address"},{"internalType":"address","name":"_to","type":"address"},{"internalType":"uint256","name":"_amount","type":"uint256"}],"name":"emergencyWithdraw","outputs":[],"stateMutability":"nonpayable","type":"function"},{"inputs":[{"internalType":"uint256","name":"_duelId","type":"uint256"},{"internalType":"uint256","name":"_winningOutcomeId","type":"uint256"}],"name":"executeResolution","outputs":[],"stateMutability":"nonpayable","type":"function"},{"inputs":[],"name":"fanToken","outputs":[{"internalType":"contract IERC20","name":"","type":"address"}],"stateMutability":"view","type":"function"},{"inputs":[{"internalType":"uint256","name":"","type":"uint256"},{"internalType":"address","name":"","type":"address"}],"name":"fanTokenBalanceSnapshot","outputs":[{"internalType":"uint256","name":"","type":"uint256"}],"stateMutability":"view","type":"function"},{"inputs":[],"name":"fanTokenDecimals","outputs":[{"internalType":"uint8","name":"","type":"uint8"}],"stateMutability":"view","type":"function"},{"inputs":[],"name":"fanTokenThreshold","outputs":[{"internalType":"uint256","name":"","type":"uint256"}],"stateMutability":"view","type":"function"},{"inputs":[],"name":"getBettingToken","outputs":[{"internalType":"address","name":"","type":"address"}],"stateMutability":"view","type":"function"},{"inputs":[{"internalType":"uint256","name":"_duelId","type":"uint256"}],"name":"getDuelInfo","outputs":[{"internalType":"string","name":"title","type":"string"},{"internalType":"string","name":"category","type":"string"},{"internalType":"bool","name":"arenaEligible","type":"bool"},{"internalType":"string[3]","name":"outcomes","type":"string[3]"},{"internalType":"uint256","name":"potTotal","type":"uint256"},{"internalType":"uint256","name":"deadline","type":"uint256"},{"internalType":"bool","name":"isResolved","type":"bool"},{"internalType":"bool","name":"isCanceled","type":"bool"},{"internalType":"uint256","name":"winningOutcomeId","type":"uint256"}],"stateMutability":"view","type":"function"},{"inputs":[],"name":"getFanToken","outputs":[{"internalType":"address","name":"","type":"address"}],"stateMutability":"view","type":"function"},{"inputs":[{"internalType":"uint256","name":"_duelId","type":"uint256"},{"internalType":"uint256","name":"_outcomeId","type":"uint256"}],"name":"getOutcomePot","outputs":[{"internalType":"uint256","name":"","type":"uint256"}],"stateMutability":"view","type":"function"},{"inputs":[],"name":"getPlatformFeePercent","outputs":[{"internalType":"uint256","name":"","type":"uint256"}],"stateMutability":"view","type":"function"},{"inputs":[{"internalType":"uint256","name":"_duelId","type":"uint256"},{"internalType":"address","name":"_user","type":"address"}],"name":"getUserBets","outputs":[{"internalType":"uint256[3]","name":"","type":"uint256[3]"}],"stateMutability":"view","type":"function"},{"inputs":[{"internalType":"uint256","name":"_duelId","type":"uint256"}],"name":"isDuelBalanced","outputs":[{"internalType":"bool","name":"","type":"bool"}],"stateMutability":"view","type":"function"},{"inputs":[],"name":"nextDuelId","outputs":[{"internalType":"uint256","name":"","type":"uint256"}],"stateMutability":"view","type":"function"},{"inputs":[],"name":"owner","outputs":[{"internalType":"address","name":"","type":"address"}],"stateMutability":"view","type":"function"},{"inputs":[],"name":"pause","outputs":[],"stateMutability":"nonpayable","type":"function"},{"inputs":[],"name":"paused","outputs":[{"internalType":"bool","name":"","type":"bool"}],"stateMutability":"view","type":"function"},{"inputs":[{"internalType":"bytes32","name":"","type":"bytes32"}],"name":"pendingResolutions","outputs":[{"internalType":"uint256","name":"","type":"uint256"}],"stateMutability":"view","type":"function"},{"inputs":[{"internalType":"uint256","name":"_duelId","type":"uint256"},{"internalType":"uint256","name":"_outcomeId","type":"uint256"},{"internalType":"uint256","name":"_amount","type":"uint256"}],"name":"placeBet","outputs":[],"stateMutability":"nonpayable","type":"function"},{"inputs":[],"name":"platformFeePercent","outputs":[{"internalType":"uint256","name":"","type":"uint256"}],"stateMutability":"view","type":"function"},{"inputs":[],"name":"pointsPerBetUnit","outputs":[{"internalType":"uint256","name":"","type":"uint256"}],"stateMutability":"view","type":"function"},{"inputs":[{"internalType":"uint256","name":"_duelId","type":"uint256"},{"internalType":"uint256","name":"_winningOutcomeId","type":"uint256"}],"name":"proposeResolution","outputs":[],"stateMutability":"nonpayable","type":"function"},{"inputs":[],"name":"renounceOwnership","outputs":[],"stateMutability":"nonpayable","type":"function"},{"inputs":[{"internalType":"uint256","name":"_newThreshold","type":"uint256"}],"name":"setFanTokenThreshold","outputs":[],"stateMutability":"nonpayable","type":"function"},{"inputs":[{"internalType":"uint256","name":"_newFee","type":"uint256"}],"name":"setPlatformFeePercent","outputs":[],"stateMutability":"nonpayable","type":"function"},{"inputs":[{"internalType":"uint256","name":"_newPoints","type":"uint256"}],"name":"setPointsPerBetUnit","outputs":[],"stateMutability":"nonpayable","type":"function"},{"inputs":[],"name":"totalFeesAccumulated","outputs":[{"internalType":"uint256","name":"","type":"uint256"}],"stateMutability":"view","type":"function"},{"inputs":[{"internalType":"address","name":"newOwner","type":"address"}],"name":"transferOwnership","outputs":[],"stateMutability":"nonpayable","type":"function"},{"inputs":[],"name":"unpause","outputs":[],"stateMutability":"nonpayable","type":"function"},{"inputs":[{"internalType":"uint256","name":"_duelId","type":"uint256"}],"name":"validateAndCancelDuel","outputs":[],"stateMutability":"nonpayable","type":"function"},{"inputs":[{"internalType":"address","name":"_to","type":"address"},{"internalType":"uint256","name":"_amount","type":"uint256"}],"name":"withdrawFees","outputs":[],"stateMutability":"nonpayable","type":"function"}],"evm":{"bytecode":{"linkReferences":{},"object":"61010060405261012c60035560146005553480156200001d57600080fd5b506040516200360e3803806200360e8339810160408190526200004091620001e2565b6200004b3362000163565b600180556002805460ff191690556001600160a01b038416620000b55760405162461bcd60e51b815260206004820152601560248201527f496e76616c69642062657474696e6720746f6b656e000000000000000000000060448201526064015b60405180910390fd5b6001600160a01b038316620001015760405162461bcd60e51b815260206004820152601160248201527024b73b30b634b2103330b7103a37b5b2b760791b6044820152606401620000ac565b6001600160a01b03808516608052831660a05260ff80831660c052811660e0526200012e82600a62000354565b6200013b9060646200036c565b6006555050336000908152600b60205260409020805460ff1916600117905550620003869050565b600080546001600160a01b038381166001600160a01b0319831681178455604051919092169283917f8be0079c531659141344cd1fd0a4f28419497f9722a3daafe3b4186f6b6457e09190a35050565b80516001600160a01b0381168114620001cb57600080fd5b919050565b805160ff81168114620001cb57600080fd5b60008060008060808587031215620001f957600080fd5b6200020485620001b3565b93506200021460208601620001b3565b92506200022460408601620001d0565b91506200023460608601620001d0565b905092959194509250565b634e487b7160e01b600052601160045260246000fd5b600181815b80851115620002965781600019048211156200027a576200027a6200023f565b808516156200028857918102915b93841c93908002906200025a565b509250929050565b600082620002af575060016200034e565b81620002be575060006200034e565b8160018114620002d75760028114620002e25762000302565b60019150506200034e565b60ff841115620002f657620002f66200023f565b50506001821b6200034e565b5060208310610133831016604e8410600b841016171562000327575081810a6200034e565b62000333838362000255565b80600019048211156200034a576200034a6200023f565b0290505b92915050565b60006200036560ff8416836200029e565b9392505050565b80820281158282048414176200034e576200034e6200023f565b60805160a05160c05160e0516132016200040d6000396000818161029501528181611e6601528181611ea0015261214b015260006104570152600081816104300152818161054f0152818161203701526121ab0152600081816102f30152818161034b01528181610d7b015281816113150152818161174b0152611f4901526132016000f3fe608060405234801561001057600080fd5b506004361061025e5760003560e01c80638456cb5911610146578063c8d5ba80116100c3578063de2f6a4f11610087578063de2f6a4f146105c5578063e63ea408146105d8578063e71c9697146105eb578063ed798fec146105fe578063f2fde38b14610611578063fa744dd31461062457600080fd5b8063c8d5ba801461054d578063cab230d214610573578063d794d2d914610586578063dadad0f3146105a9578063daf19f2b146105bc57600080fd5b8063a24a27bc1161010a578063a24a27bc146104d6578063ad3b1b47146104f6578063af6f4bce14610509578063ba973e4414610531578063c50809d31461053a57600080fd5b80638456cb5914610479578063859a62d0146104815780638931ecd0146104a95780638c639a85146104bc5780638da5cb5b146104c557600080fd5b80634952ce76116101df57806367d81740116101a357806367d81740146103e5578063698a4957146103ee578063715018a6146103f857806374c94bb91461040057806375daa3de1461042b5780637e06a6171461045257600080fd5b80634952ce76146103a15780634c9c3f85146103aa578063549ec614146103b25780635b7baf64146103bb5780635c975abb146103ce57600080fd5b80633809ae17116102265780633809ae171461032b5780633f4ba83a1461033e57806343425e88146103465780634692c9621461036d57806347b557661461038e57600080fd5b80631713ecbc1461026357806319ab9bd8146102905780631f528480146102c9578063253e35fc146102de57806329cf655b146102f1575b600080fd5b610276610271366004612970565b610644565b604080519283526020830191909152015b60405180910390f35b6102b77f000000000000000000000000000000000000000000000000000000000000000081565b60405160ff9091168152602001610287565b6102dc6102d736600461299c565b61077b565b005b6102dc6102ec3660046129be565b6109b3565b7f00000000000000000000000000000000000000000000000000000000000000005b6040516001600160a01b039091168152602001610287565b6102dc6103393660046129be565b610b31565b6102dc610e7e565b6103137f000000000000000000000000000000000000000000000000000000000000000081565b61038061037b36600461299c565b610e90565b604051908152602001610287565b6102dc61039c366004612ab1565b610f04565b61038060075481565b600354610380565b61038060045481565b6102dc6103c93660046129be565b6111a2565b60025460ff165b6040519015158152602001610287565b6103806103e881565b6103806201518081565b6102dc611408565b61038061040e366004612970565b600a60209081526000928352604080842090915290825290205481565b6103137f000000000000000000000000000000000000000000000000000000000000000081565b6102b77f000000000000000000000000000000000000000000000000000000000000000081565b6102dc61141a565b61049461048f3660046129be565b61142a565b60405161028799989796959493929190612bf5565b6103d56104b73660046129be565b61158c565b61038060035481565b6000546001600160a01b0316610313565b6103806104e43660046129be565b60086020526000908152604090205481565b6102dc610504366004612c56565b61166c565b61051c6105173660046129be565b611843565b60405161028799989796959493929190612cc5565b61038060065481565b6102dc6105483660046129be565b611a9b565b7f0000000000000000000000000000000000000000000000000000000000000000610313565b6102dc6105813660046129be565b611afd565b6103d5610594366004612d39565b600b6020526000908152604090205460ff1681565b6102dc6105b73660046129be565b611b4b565b61038060055481565b6102dc6105d3366004612d5b565b611b58565b6102dc6105e6366004612d92565b611c0e565b6102dc6105f9366004612dce565b611cd7565b6102dc61060c36600461299c565b6122ef565b6102dc61061f366004612d39565b612579565b610637610632366004612970565b6125e0565b6040516102879190612dfa565b6000828152600960205260408120600781015482919060ff16158061067257506007810154610100900460ff165b15610684576000809250925050610774565b60088101546001600160a01b0385166000908152600e83016020526040812082600381106106b4576106b4612e2b565b01549050806000036106cf5760008094509450505050610774565b600083600b0183600381106106e6576106e6612e2b565b01549050600084600a015485600901546107009190612e57565b90508161070d8285612e6a565b6107179190612e81565b965082871015610725578296505b6000898152600a602090815260408083206001600160a01b038c168452909152902054600654811061076d576127106107608961012c612e6a565b61076a9190612e81565b96505b5050505050505b9250929050565b336000908152600b602052604090205460ff16806107a357506000546001600160a01b031633145b6107f05760405162461bcd60e51b81526020600482015260196024820152784e6f7420617574686f72697a656420746f207265736f6c766560381b60448201526064015b60405180910390fd5b604080516020808201859052818301849052825180830384018152606090920183528151918101919091206000818152600890925291812054900361086f5760405162461bcd60e51b81526020600482015260156024820152742737903832b73234b733903932b9b7b63aba34b7b760591b60448201526064016107e7565b6000818152600860205260409020544210156108c45760405162461bcd60e51b8152602060048201526014602482015273151a5b595b1bd8dac81b9bdd08195e1c1a5c995960621b60448201526064016107e7565b6000838152600960205260409020600781015460ff161580156108f157506007810154610100900460ff16155b61090d5760405162461bcd60e51b81526004016107e790612ea3565b600061271060035483600901546109249190612e6a565b61092e9190612e81565b90508082600a0181905550806007600082825461094b9190612eda565b909155505060078201805460ff191660011790556008808301859055600084815260209182526040808220919091555185815286917f147951699da2828eef91ad406d09ddd88be2fbc13c15b98c3228c3d80e6999ff91015b60405180910390a25050505050565b6109bb61263e565b6000818152600960205260409020600781015460ff161580156109e857506007810154610100900460ff16155b610a405760405162461bcd60e51b8152602060048201526024808201527f4475656c206973207265736f6c766564206f7220616c72656164792063616e63604482015263195b195960e21b60648201526084016107e7565b8060060154421015610a8b5760405162461bcd60e51b8152602060048201526014602482015273111958591b1a5b99481b9bdd081c995858da195960621b60448201526064016107e7565b610a948261158c565b15610af15760405162461bcd60e51b815260206004820152602760248201527f4475656c2069732062616c616e63656420616e642063616e6e6f742062652063604482015266185b98d95b195960ca1b60648201526084016107e7565b60078101805461ff00191661010017905560405182907fbb08acbd04feafc2c9a5dbfba32cd5488e51d178ebb70f355c6e0b00cda5ef8790600090a25050565b610b39612698565b6000818152600960205260409020600781015460ff16610b925760405162461bcd60e51b8152602060048201526014602482015273111d595b081a5cc81b9bdd081c995cdbdb1d995960621b60448201526064016107e7565b6007810154610100900460ff1615610bdf5760405162461bcd60e51b815260206004820152601060248201526f111d595b081a5cc818d85b98d95b195960821b60448201526064016107e7565b336000908152600f8201602052604090205460ff1615610c335760405162461bcd60e51b815260206004820152600f60248201526e105b1c9958591e4818db185a5b5959608a1b60448201526064016107e7565b6008810154336000908152600e8301602052604081208260038110610c5a57610c5a612e2b565b0154905060008111610ca05760405162461bcd60e51b815260206004820152600f60248201526e4e6f2077696e6e696e67206265747360881b60448201526064016107e7565b336000908152600f840160205260408120805460ff19166001179055600b84018360038110610cd157610cd1612e2b565b01549050600084600a01548560090154610ceb9190612e57565b9050600082610cfa8386612e6a565b610d049190612e81565b905083811015610d115750825b6000878152600a602090815260408083203384529091528120546006548110610d5057612710610d43846101f4612e6a565b610d4d9190612e81565b91505b6000610d5c8385612eda565b60405163a9059cbb60e01b8152336004820152602481018290529091507f00000000000000000000000000000000000000000000000000000000000000006001600160a01b03169063a9059cbb906044016020604051808303816000875af1158015610dcc573d6000803e3d6000fd5b505050506040513d601f19601f82011682018060405250810190610df09190612eed565b610e2c5760405162461bcd60e51b815260206004820152600d60248201526c14185e5bdd5d0819985a5b1959609a1b60448201526064016107e7565b604080518581526020810185905233918c917f16eb6194ec5e287f7418c9784085dbbf1eedd440c05dbb3c961f4a141e857baf910160405180910390a3505050505050505050610e7b60018055565b50565b610e8661263e565b610e8e6126f1565b565b600060038210610ed75760405162461bcd60e51b8152602060048201526012602482015271125b9d985b1a59081bdd5d18dbdb5948125160721b60448201526064016107e7565b6000838152600960205260409020600b018260038110610ef957610ef9612e2b565b015490505b92915050565b610f0c61263e565b610f14612743565b610f2042610e10612eda565b8111610f625760405162461bcd60e51b81526020600482015260116024820152702232b0b23634b732903a37b79039b7b7b760791b60448201526064016107e7565b610f70426301e13380612eda565b8110610fb15760405162461bcd60e51b815260206004820152601060248201526f2232b0b23634b732903a37b7903330b960811b60448201526064016107e7565b60008551118015610fc457506064855111155b6110005760405162461bcd60e51b815260206004820152600d60248201526c496e76616c6964207469746c6560981b60448201526064016107e7565b6000845111801561101357506032845111155b6110525760405162461bcd60e51b815260206004820152601060248201526f496e76616c69642063617465676f727960801b60448201526064016107e7565b60005b60038110156110ed57600083826003811061107257611072612e2b565b60200201515111801561109d5750603283826003811061109457611094612e2b565b60200201515111155b6110db5760405162461bcd60e51b815260206004820152600f60248201526e496e76616c6964206f7574636f6d6560881b60448201526064016107e7565b806110e581612f0a565b915050611055565b5060045460008181526009602052604090208061110a8882612fab565b50600181016111198782612fab565b5060028101805460ff191686151517905561113a600380830190869061285f565b50828160060181905550817fd839a273fcea4d270e0cfdb75b7a42bebddbacf59569ab821f70611e281695ed888888888860405161117c95949392919061306b565b60405180910390a26004805490600061119483612f0a565b919050555050505050505050565b6111aa612698565b60008181526009602052604090206007810154610100900460ff166112085760405162461bcd60e51b8152602060048201526014602482015273111d595b081a5cc81b9bdd0818d85b98d95b195960621b60448201526064016107e7565b33600090815260108201602052604090205460ff16156112635760405162461bcd60e51b8152602060048201526016602482015275105b1c9958591e4818db185a5b5959081c99599d5b9960521b60448201526064016107e7565b336000908152600e820160205260408120600281015460018201549154909161128b91612eda565b6112959190612eda565b9050600081116112db5760405162461bcd60e51b8152602060048201526011602482015270139bc818995d1cc81d1bc81c99599d5b99607a1b60448201526064016107e7565b33600081815260108401602052604090819020805460ff191660011790555163a9059cbb60e01b81526004810191909152602481018290527f00000000000000000000000000000000000000000000000000000000000000006001600160a01b03169063a9059cbb906044016020604051808303816000875af1158015611366573d6000803e3d6000fd5b505050506040513d601f19601f8201168201806040525081019061138a9190612eed565b6113c65760405162461bcd60e51b815260206004820152600d60248201526c1499599d5b990819985a5b1959609a1b60448201526064016107e7565b604051818152339084907f7a482fdeb6bc9a1376f597068a214a7a39472bb2eff1b8cad21ba04f49ddca1b9060200160405180910390a35050610e7b60018055565b61141061263e565b610e8e6000612789565b61142261263e565b610e8e6127d9565b60096020526000908152604090208054819061144590612f23565b80601f016020809104026020016040519081016040528092919081815260200182805461147190612f23565b80156114be5780601f10611493576101008083540402835291602001916114be565b820191906000526020600020905b8154815290600101906020018083116114a157829003601f168201915b5050505050908060010180546114d390612f23565b80601f01602080910402602001604051908101604052809291908181526020018280546114ff90612f23565b801561154c5780601f106115215761010080835404028352916020019161154c565b820191906000526020600020905b81548152906001019060200180831161152f57829003601f168201915b50505060028401546006850154600786015460088701546009880154600a90980154969760ff948516979396508285169550610100909204909316929189565b600081815260096020819052604082209081015482036115af5750600092915050565b60008060005b600381101561163457600084600b0182600381106115d5576115d5612e2b565b0154111561162257816115e781612f0a565b9250508284600b01826003811061160057611600612e2b565b015411156116225783600b01816003811061161d5761161d612e2b565b015492505b8061162c81612f0a565b9150506115b5565b506002811015801561166357506127108360090154611f406116569190612e6a565b6116609190612e81565b82105b95945050505050565b61167461263e565b6001600160a01b0382166116bc5760405162461bcd60e51b815260206004820152600f60248201526e496e76616c6964206164647265737360881b60448201526064016107e7565b60075481111561170e5760405162461bcd60e51b815260206004820152601f60248201527f416d6f756e74206578636565647320616363756d756c6174656420666565730060448201526064016107e7565b80600760008282546117209190612e57565b909155505060405163a9059cbb60e01b81526001600160a01b038381166004830152602482018390527f0000000000000000000000000000000000000000000000000000000000000000169063a9059cbb906044016020604051808303816000875af1158015611794573d6000803e3d6000fd5b505050506040513d601f19601f820116820180604052508101906117b89190612eed565b6117fc5760405162461bcd60e51b8152602060048201526015602482015274119959481dda5d1a191c985dd85b0819985a5b1959605a1b60448201526064016107e7565b816001600160a01b03167fc0819c13be868895eb93e40eaceb96de976442fa1d404e5c55f14bb65a8c489a8260405161183791815260200190565b60405180910390a25050565b60608060006118506128a8565b600085815260096020819052604082206002810154918101546006820154600783015460088401548454879687968796879691958695600187019560ff95861695600389019593808216936101009091049091169189906118b090612f23565b80601f01602080910402602001604051908101604052809291908181526020018280546118dc90612f23565b80156119295780601f106118fe57610100808354040283529160200191611929565b820191906000526020600020905b81548152906001019060200180831161190c57829003601f168201915b5050505050985087805461193c90612f23565b80601f016020809104026020016040519081016040528092919081815260200182805461196890612f23565b80156119b55780601f1061198a576101008083540402835291602001916119b5565b820191906000526020600020905b81548152906001019060200180831161199857829003601f168201915b50506040805160608101909152939b508992506003915060009050835b82821015611a755783820180546119e890612f23565b80601f0160208091040260200160405190810160405280929190818152602001828054611a1490612f23565b8015611a615780601f10611a3657610100808354040283529160200191611a61565b820191906000526020600020905b815481529060010190602001808311611a4457829003601f168201915b5050505050815260200190600101906119d2565b505050509550995099509950995099509950995099509950509193959799909294969850565b611aa361263e565b600081118015611ab557506103e88111155b611af85760405162461bcd60e51b8152602060048201526014602482015273496e76616c696420706f696e74732076616c756560601b60448201526064016107e7565b600555565b611b0561263e565b6103e8811115611b465760405162461bcd60e51b815260206004820152600c60248201526b08ccaca40e8dede40d0d2ced60a31b60448201526064016107e7565b600355565b611b5361263e565b600655565b611b6061263e565b6001600160a01b038216611bb65760405162461bcd60e51b815260206004820152601860248201527f496e76616c6964207265736f6c7665722061646472657373000000000000000060448201526064016107e7565b6001600160a01b0382166000818152600b6020908152604091829020805460ff191685151590811790915591519182527f287574cf078fb59442fa4e01830412374e9c38ff02733f8d1e2afc3f2325eb489101611837565b611c1661263e565b6001600160a01b038216611c5e5760405162461bcd60e51b815260206004820152600f60248201526e496e76616c6964206164647265737360881b60448201526064016107e7565b60405163a9059cbb60e01b81526001600160a01b0383811660048301526024820183905284169063a9059cbb906044016020604051808303816000875af1158015611cad573d6000803e3d6000fd5b505050506040513d601f19601f82011682018060405250810190611cd19190612eed565b50505050565b611cdf612698565b611ce7612743565b60008381526009602052604090206004548410611d3c5760405162461bcd60e51b8152602060048201526013602482015272111d595b08191bd95cc81b9bdd08195e1a5cdd606a1b60448201526064016107e7565b600781015460ff16158015611d5b57506007810154610100900460ff16155b611d775760405162461bcd60e51b81526004016107e790612ea3565b80600601544210611dca5760405162461bcd60e51b815260206004820152601b60248201527f42657474696e6720646561646c696e652068617320706173736564000000000060448201526064016107e7565b60038310611e0f5760405162461bcd60e51b8152602060048201526012602482015271125b9d985b1a59081bdd5d18dbdb5948125160721b60448201526064016107e7565b60008211611e5f5760405162461bcd60e51b815260206004820152601760248201527f416d6f756e74206d75737420626520706f73697469766500000000000000000060448201526064016107e7565b6000611e8c7f0000000000000000000000000000000000000000000000000000000000000000600a6131a3565b611e97906001612e6a565b90506000611ec67f0000000000000000000000000000000000000000000000000000000000000000600a6131a3565b611ed2906103e8612e6a565b9050818410158015611ee45750808411155b611f275760405162461bcd60e51b8152602060048201526014602482015273416d6f756e74206f7574206f6620626f756e647360601b60448201526064016107e7565b6040516323b872dd60e01b8152336004820152306024820152604481018590527f00000000000000000000000000000000000000000000000000000000000000006001600160a01b0316906323b872dd906064016020604051808303816000875af1158015611f9a573d6000803e3d6000fd5b505050506040513d601f19601f82011682018060405250810190611fbe9190612eed565b6120025760405162461bcd60e51b8152602060048201526015602482015274151bdad95b881d1c985b9cd9995c8819985a5b1959605a1b60448201526064016107e7565b6000868152600a6020908152604080832033845290915281205490036120c5576040516370a0823160e01b81523360048201527f00000000000000000000000000000000000000000000000000000000000000006001600160a01b0316906370a0823190602401602060405180830381865afa158015612086573d6000803e3d6000fd5b505050506040513d601f19601f820116820180604052508101906120aa91906131b2565b6000878152600a602090815260408083203384529091529020555b838360090160008282546120d99190612eda565b90915550849050600b840186600381106120f5576120f5612e2b565b0160008282546121059190612eda565b9091555050336000908152600e8401602052604090208490866003811061212e5761212e612e2b565b01600082825461213e9190612eda565b90915550600090506121717f0000000000000000000000000000000000000000000000000000000000000000600a6131a3565b60055461217e9087612e6a565b6121889190612e81565b6040516370a0823160e01b81523360048201529091506000906001600160a01b037f000000000000000000000000000000000000000000000000000000000000000016906370a0823190602401602060405180830381865afa1580156121f2573d6000803e3d6000fd5b505050506040513d601f19601f8201168201806040525081019061221691906131b2565b6040805189815260208101899052908101829052909150339089907fab2115bac1de808eb7fe2be0309085b11f1f42b1eb980de8352efefdbfc098e29060600160405180910390a3604080518981526020810184905233917f4b97a5e5e9b332836eea24e70b760c1ffce3041c0eb15309837d180f8bfff26a910160405180910390a2600285015460ff16156122dc5760405188815233907fc7cef681ee4e9b064e67dcb5d564e1378ae41c9e65da8e232b1f5cd8662253259060200160405180910390a25b50505050506122ea60018055565b505050565b336000908152600b602052604090205460ff168061231757506000546001600160a01b031633145b61235f5760405162461bcd60e51b81526020600482015260196024820152784e6f7420617574686f72697a656420746f207265736f6c766560381b60448201526064016107e7565b6000828152600960205260409020600781015460ff1615801561238c57506007810154610100900460ff16155b6123a85760405162461bcd60e51b81526004016107e790612ea3565b600382106123f85760405162461bcd60e51b815260206004820152601760248201527f496e76616c69642077696e6e696e67206f7574636f6d6500000000000000000060448201526064016107e7565b80600601544210156124435760405162461bcd60e51b8152602060048201526014602482015273111958591b1a5b99481b9bdd081c995858da195960621b60448201526064016107e7565b600081600b01836003811061245a5761245a612e2b565b0154116124a95760405162461bcd60e51b815260206004820152601a60248201527f4e6f2062657473206f6e2077696e6e696e67206f7574636f6d6500000000000060448201526064016107e7565b6124b28361158c565b6124f55760405162461bcd60e51b8152602060048201526014602482015273111d595b081a5cc81b9bdd0818985b185b98d95960621b60448201526064016107e7565b60408051602080820186905281830185905282518083038401815260609092019092528051910120600061252c6201518042612eda565b600083815260086020908152604091829020839055815187815290810183905291925086917fcc684ba03c326954c633140f1fc4ead5adb1243a9675fef4bbe39f56e846315891016109a4565b61258161263e565b6001600160a01b0381166125d75760405162461bcd60e51b815260206004820152601d60248201527f4e6577206f776e657220697320746865207a65726f206164647265737300000060448201526064016107e7565b610e7b81612789565b6125e86128cf565b50604080516060810182526000938452600960209081528285206001600160a01b0394909416808652600e9094018082528386208054845260018101548385015294909552939093526002909101549082015290565b6000546001600160a01b03163314610e8e5760405162461bcd60e51b815260206004820181905260248201527f4f776e61626c653a2063616c6c6572206973206e6f7420746865206f776e657260448201526064016107e7565b6002600154036126ea5760405162461bcd60e51b815260206004820152601f60248201527f5265656e7472616e637947756172643a207265656e7472616e742063616c6c0060448201526064016107e7565b6002600155565b6126f9612816565b6002805460ff191690557f5db9ee0a495bf2e6ff9c91a7834c1ba4fdd244a5e8aa4e537bd38aeae4b073aa335b6040516001600160a01b03909116815260200160405180910390a1565b60025460ff1615610e8e5760405162461bcd60e51b815260206004820152601060248201526f14185d5cd8589b194e881c185d5cd95960821b60448201526064016107e7565b600080546001600160a01b038381166001600160a01b0319831681178455604051919092169283917f8be0079c531659141344cd1fd0a4f28419497f9722a3daafe3b4186f6b6457e09190a35050565b6127e1612743565b6002805460ff191660011790557f62e78cea01bee320cd4e420270b5ea74000d11b0c9f74754ebdbfc544b05a2586127263390565b60025460ff16610e8e5760405162461bcd60e51b815260206004820152601460248201527314185d5cd8589b194e881b9bdd081c185d5cd95960621b60448201526064016107e7565b8260038101928215612898579160200282015b8281111561289857825182906128889082612fab565b5091602001919060010190612872565b506128a49291506128ed565b5090565b60405180606001604052806003905b60608152602001906001900390816128b75790505090565b60405180606001604052806003906020820280368337509192915050565b808211156128a4576000612901828261290a565b506001016128ed565b50805461291690612f23565b6000825580601f10612926575050565b601f016020900490600052602060002090810190610e7b91905b808211156128a45760008155600101612940565b80356001600160a01b038116811461296b57600080fd5b919050565b6000806040838503121561298357600080fd5b8235915061299360208401612954565b90509250929050565b600080604083850312156129af57600080fd5b50508035926020909101359150565b6000602082840312156129d057600080fd5b5035919050565b634e487b7160e01b600052604160045260246000fd5b6040516060810167ffffffffffffffff81118282101715612a1057612a106129d7565b60405290565b600082601f830112612a2757600080fd5b813567ffffffffffffffff80821115612a4257612a426129d7565b604051601f8301601f19908116603f01168101908282118183101715612a6a57612a6a6129d7565b81604052838152866020858801011115612a8357600080fd5b836020870160208301376000602085830101528094505050505092915050565b8015158114610e7b57600080fd5b600080600080600060a08688031215612ac957600080fd5b853567ffffffffffffffff80821115612ae157600080fd5b612aed89838a01612a16565b9650602091508188013581811115612b0457600080fd5b612b108a828b01612a16565b9650506040880135612b2181612aa3565b9450606088013581811115612b3557600080fd5b8801601f81018a13612b4657600080fd5b612b4e6129ed565b80606083018c811115612b6057600080fd5b835b81811015612b9457803586811115612b7a5760008081fd5b612b868f828801612a16565b855250928601928601612b62565b50508096505050505050608086013590509295509295909350565b6000815180845260005b81811015612bd557602081850181015186830182015201612bb9565b506000602082860101526020601f19601f83011685010191505092915050565b6000610120808352612c098184018d612baf565b90508281036020840152612c1d818c612baf565b991515604084015250506060810196909652931515608086015291151560a085015260c084015260e08301526101009091015292915050565b60008060408385031215612c6957600080fd5b612c7283612954565b946020939093013593505050565b600082606081018360005b6003811015612cba578383038752612ca4838351612baf565b6020978801979093509190910190600101612c8b565b509095945050505050565b6000610120808352612cd98184018d612baf565b90508281036020840152612ced818c612baf565b905089151560408401528281036060840152612d09818a612c80565b6080840198909852505060a081019490945291151560c0840152151560e083015261010090910152949350505050565b600060208284031215612d4b57600080fd5b612d5482612954565b9392505050565b60008060408385031215612d6e57600080fd5b612d7783612954565b91506020830135612d8781612aa3565b809150509250929050565b600080600060608486031215612da757600080fd5b612db084612954565b9250612dbe60208501612954565b9150604084013590509250925092565b600080600060608486031215612de357600080fd5b505081359360208301359350604090920135919050565b60608101818360005b6003811015612e22578151835260209283019290910190600101612e03565b50505092915050565b634e487b7160e01b600052603260045260246000fd5b634e487b7160e01b600052601160045260246000fd5b81810381811115610efe57610efe612e41565b8082028115828204841417610efe57610efe612e41565b600082612e9e57634e487b7160e01b600052601260045260246000fd5b500490565b6020808252601c908201527f4475656c206973207265736f6c766564206f722063616e63656c656400000000604082015260600190565b80820180821115610efe57610efe612e41565b600060208284031215612eff57600080fd5b8151612d5481612aa3565b600060018201612f1c57612f1c612e41565b5060010190565b600181811c90821680612f3757607f821691505b602082108103612f5757634e487b7160e01b600052602260045260246000fd5b50919050565b601f8211156122ea57600081815260208120601f850160051c81016020861015612f845750805b601f850160051c820191505b81811015612fa357828155600101612f90565b505050505050565b815167ffffffffffffffff811115612fc557612fc56129d7565b612fd981612fd38454612f23565b84612f5d565b602080601f83116001811461300e5760008415612ff65750858301515b600019600386901b1c1916600185901b178555612fa3565b600085815260208120601f198616915b8281101561303d5788860151825594840194600190910190840161301e565b508582101561305b5787850151600019600388901b60f8161c191681555b5050505050600190811b01905550565b60a08152600061307e60a0830188612baf565b82810360208401526130908188612baf565b9050851515604084015282810360608401526130ac8186612c80565b9150508260808301529695505050505050565b600181815b808511156130fa5781600019048211156130e0576130e0612e41565b808516156130ed57918102915b93841c93908002906130c4565b509250929050565b60008261311157506001610efe565b8161311e57506000610efe565b8160018114613134576002811461313e5761315a565b6001915050610efe565b60ff84111561314f5761314f612e41565b50506001821b610efe565b5060208310610133831016604e8410600b841016171561317d575081810a610efe565b61318783836130bf565b806000190482111561319b5761319b612e41565b029392505050565b6000612d5460ff841683613102565b6000602082840312156131c457600080fd5b505191905056fea2646970667358221220fe60c5efa84594c6d5766928ed73d6db33ee9191ff216eb4c69bf57eb859a50c64736f6c63430008140033","opcodes":"PUSH2 0x100 PUSH1 0x40 MSTORE PUSH2 0x12C PUSH1 0x3 SSTORE PUSH1 0x14 PUSH1 0x5 SSTORE CALLVALUE DUP1 ISZERO PUSH3 0x1D JUMPI PUSH1 0x0 DUP1 REVERT JUMPDEST POP PUSH1 0x40 MLOAD PUSH3 0x360E CODESIZE SUB DUP1 PUSH3 0x360E DUP4 CODECOPY DUP2 ADD PUSH1 0x40 DUP2 SWAP1 MSTORE PUSH3 0x40 SWAP2 PUSH3 0x1E2 JUMP JUMPDEST PUSH3 0x4B CALLER PUSH3 0x163 JUMP JUMPDEST PUSH1 0x1 DUP1 SSTORE PUSH1 0x2 DUP1 SLOAD PUSH1 0xFF NOT AND SWAP1 SSTORE PUSH1 0x1 PUSH1 0x1 PUSH1 0xA0 SHL SUB DUP5 AND PUSH3 0xB5 JUMPI PUSH1 0x40 MLOAD PUSH3 0x461BCD PUSH1 0xE5 SHL DUP2 MSTORE PUSH1 0x20 PUSH1 0x4 DUP3 ADD MSTORE PUSH1 0x15 PUSH1 0x24 DUP3 ADD MSTORE PUSH32 0x496E76616C69642062657474696E6720746F6B656E0000000000000000000000 PUSH1 0x44 DUP3 ADD MSTORE PUSH1 0x64 ADD JUMPDEST PUSH1 0x40 MLOAD DUP1 SWAP2 SUB SWAP1 REVERT JUMPDEST PUSH1 0x1 PUSH1 0x1 PUSH1 0xA0 SHL SUB DUP4 AND PUSH3 0x101 JUMPI PUSH1 0x40 MLOAD PUSH3 0x461BCD PUSH1 0xE5 SHL DUP2 MSTORE PUSH1 0x20 PUSH1 0x4 DUP3 ADD MSTORE PUSH1 0x11 PUSH1 0x24 DUP3 ADD MSTORE PUSH17 0x24B73B30B634B2103330B7103A37B5B2B7 PUSH1 0x79 SHL PUSH1 0x44 DUP3 ADD MSTORE PUSH1 0x64 ADD PUSH3 0xAC JUMP JUMPDEST PUSH1 0x1 PUSH1 0x1 PUSH1 0xA0 SHL SUB DUP1 DUP6 AND PUSH1 0x80 MSTORE DUP4 AND PUSH1 0xA0 MSTORE PUSH1 0xFF DUP1 DUP4 AND PUSH1 0xC0 MSTORE DUP2 AND PUSH1 0xE0 MSTORE PUSH3 0x12E DUP3 PUSH1 0xA PUSH3 0x354 JUMP JUMPDEST PUSH3 0x13B SWAP1 PUSH1 0x64 PUSH3 0x36C JUMP JUMPDEST PUSH1 0x6 SSTORE POP POP CALLER PUSH1 0x0 SWAP1 DUP2 MSTORE PUSH1 0xB PUSH1 0x20 MSTORE PUSH1 0x40 SWAP1 KECCAK256 DUP1 SLOAD PUSH1 0xFF NOT AND PUSH1 0x1 OR SWAP1 SSTORE POP PUSH3 0x386 SWAP1 POP JUMP JUMPDEST PUSH1 0x0 DUP1 SLOAD PUSH1 0x1 PUSH1 0x1 PUSH1 0xA0 SHL SUB DUP4 DUP2 AND PUSH1 0x1 PUSH1 0x1 PUSH1 0xA0 SHL SUB NOT DUP4 AND DUP2 OR DUP5 SSTORE PUSH1 0x40 MLOAD SWAP2 SWAP1 SWAP3 AND SWAP3 DUP4 SWAP2 PUSH32 0x8BE0079C531659141344CD1FD0A4F28419497F9722A3DAAFE3B4186F6B6457E0 SWAP2 SWAP1 LOG3 POP POP JUMP JUMPDEST DUP1 MLOAD PUSH1 0x1 PUSH1 0x1 PUSH1 0xA0 SHL SUB DUP2 AND DUP2 EQ PUSH3 0x1CB JUMPI PUSH1 0x0 DUP1 REVERT JUMPDEST SWAP2 SWAP1 POP JUMP JUMPDEST DUP1 MLOAD PUSH1 0xFF DUP2 AND DUP2 EQ PUSH3 0x1CB JUMPI PUSH1 0x0 DUP1 REVERT JUMPDEST PUSH1 0x0 DUP1 PUSH1 0x0 DUP1 PUSH1 0x80 DUP6 DUP8 SUB SLT ISZERO PUSH3 0x1F9 JUMPI PUSH1 0x0 DUP1 REVERT JUMPDEST PUSH3 0x204 DUP6 PUSH3 0x1B3 JUMP JUMPDEST SWAP4 POP PUSH3 0x214 PUSH1 0x20 DUP7 ADD PUSH3 0x1B3 JUMP JUMPDEST SWAP3 POP PUSH3 0x224 PUSH1 0x40 DUP7 ADD PUSH3 0x1D0 JUMP JUMPDEST SWAP2 POP PUSH3 0x234 PUSH1 0x60 DUP7 ADD PUSH3 0x1D0 JUMP JUMPDEST SWAP1 POP SWAP3 SWAP6 SWAP2 SWAP5 POP SWAP3 POP JUMP JUMPDEST PUSH4 0x4E487B71 PUSH1 0xE0 SHL PUSH1 0x0 MSTORE PUSH1 0x11 PUSH1 0x4 MSTORE PUSH1 0x24 PUSH1 0x0 REVERT JUMPDEST PUSH1 0x1 DUP2 DUP2 JUMPDEST DUP1 DUP6 GT ISZERO PUSH3 0x296 JUMPI DUP2 PUSH1 0x0 NOT DIV DUP3 GT ISZERO PUSH3 0x27A JUMPI PUSH3 0x27A PUSH3 0x23F JUMP JUMPDEST DUP1 DUP6 AND ISZERO PUSH3 0x288 JUMPI SWAP2 DUP2 MUL SWAP2 JUMPDEST SWAP4 DUP5 SHR SWAP4 SWAP1 DUP1 MUL SWAP1 PUSH3 0x25A JUMP JUMPDEST POP SWAP3 POP SWAP3 SWAP1 POP JUMP JUMPDEST PUSH1 0x0 DUP3 PUSH3 0x2AF JUMPI POP PUSH1 0x1 PUSH3 0x34E JUMP JUMPDEST DUP2 PUSH3 0x2BE JUMPI POP PUSH1 0x0 PUSH3 0x34E JUMP JUMPDEST DUP2 PUSH1 0x1 DUP2 EQ PUSH3 0x2D7 JUMPI PUSH1 0x2 DUP2 EQ PUSH3 0x2E2 JUMPI PUSH3 0x302 JUMP JUMPDEST PUSH1 0x1 SWAP2 POP POP PUSH3 0x34E JUMP JUMPDEST PUSH1 0xFF DUP5 GT ISZERO PUSH3 0x2F6 JUMPI PUSH3 0x2F6 PUSH3 0x23F JUMP JUMPDEST POP POP PUSH1 0x1 DUP3 SHL PUSH3 0x34E JUMP JUMPDEST POP PUSH1 0x20 DUP4 LT PUSH2 0x133 DUP4 LT AND PUSH1 0x4E DUP5 LT PUSH1 0xB DUP5 LT AND OR ISZERO PUSH3 0x327 JUMPI POP DUP2 DUP2 EXP PUSH3 0x34E JUMP JUMPDEST PUSH3 0x333 DUP4 DUP4 PUSH3 0x255 JUMP JUMPDEST DUP1 PUSH1 0x0 NOT DIV DUP3 GT ISZERO PUSH3 0x34A JUMPI PUSH3 0x34A PUSH3 0x23F JUMP JUMPDEST MUL SWAP1 POP JUMPDEST SWAP3 SWAP2 POP POP JUMP JUMPDEST PUSH1 0x0 PUSH3 0x365 PUSH1 0xFF DUP5 AND DUP4 PUSH3 0x29E JUMP JUMPDEST SWAP4 SWAP3 POP POP POP JUMP JUMPDEST DUP1 DUP3 MUL DUP2 ISZERO DUP3 DUP3 DIV DUP5 EQ OR PUSH3 0x34E JUMPI PUSH3 0x34E PUSH3 0x23F JUMP JUMPDEST PUSH1 0x80 MLOAD PUSH1 0xA0 MLOAD PUSH1 0xC0 MLOAD PUSH1 0xE0 MLOAD PUSH2 0x3201 PUSH3 0x40D PUSH1 0x0 CODECOPY PUSH1 0x0 DUP2 DUP2 PUSH2 0x295 ADD MSTORE DUP2 DUP2 PUSH2 0x1E66 ADD MSTORE DUP2 DUP2 PUSH2 0x1EA0 ADD MSTORE PUSH2 0x214B ADD MSTORE PUSH1 0x0 PUSH2 0x457 ADD MSTORE PUSH1 0x0 DUP2 DUP2 PUSH2 0x430 ADD MSTORE DUP2 DUP2 PUSH2 0x54F ADD MSTORE DUP2 DUP2 PUSH2 0x2037 ADD MSTORE PUSH2 0x21AB ADD MSTORE PUSH1 0x0 DUP2 DUP2 PUSH2 0x2F3 ADD MSTORE DUP2 DUP2 PUSH2 0x34B ADD MSTORE DUP2 DUP2 PUSH2 0xD7B ADD MSTORE DUP2 DUP2 PUSH2 0x1315 ADD MSTORE DUP2 DUP2 PUSH2 0x174B ADD MSTORE PUSH2 0x1F49 ADD MSTORE PUSH2 0x3201 PUSH1 0x0 RETURN INVALID PUSH1 0x80 PUSH1 0x40 MSTORE CALLVALUE DUP1 ISZERO PUSH2 0x10 JUMPI PUSH1 0x0 DUP1 REVERT JUMPDEST POP PUSH1 0x4 CALLDATASIZE LT PUSH2 0x25E JUMPI PUSH1 0x0 CALLDATALOAD PUSH1 0xE0 SHR DUP1 PUSH4 0x8456CB59 GT PUSH2 0x146 JUMPI DUP1 PUSH4 0xC8D5BA80 GT PUSH2 0xC3 JUMPI DUP1 PUSH4 0xDE2F6A4F GT PUSH2 0x87 JUMPI DUP1 PUSH4 0xDE2F6A4F EQ PUSH2 0x5C5 JUMPI DUP1 PUSH4 0xE63EA408 EQ PUSH2 0x5D8 JUMPI DUP1 PUSH4 0xE71C9697 EQ PUSH2 0x5EB JUMPI DUP1 PUSH4 0xED798FEC EQ PUSH2 0x5FE JUMPI DUP1 PUSH4 0xF2FDE38B EQ PUSH2 0x611 JUMPI DUP1 PUSH4 0xFA744DD3 EQ PUSH2 0x624 JUMPI PUSH1 0x0 DUP1 REVERT JUMPDEST DUP1 PUSH4 0xC8D5BA80 EQ PUSH2 0x54D JUMPI DUP1 PUSH4 0xCAB230D2 EQ PUSH2 0x573 JUMPI DUP1 PUSH4 0xD794D2D9 EQ PUSH2 0x586 JUMPI DUP1 PUSH4 0xDADAD0F3 EQ PUSH2 0x5A9 JUMPI DUP1 PUSH4 0xDAF19F2B EQ PUSH2 0x5BC JUMPI PUSH1 0x0 DUP1 REVERT JUMPDEST DUP1 PUSH4 0xA24A27BC GT PUSH2 0x10A JUMPI DUP1 PUSH4 0xA24A27BC EQ PUSH2 0x4D6 JUMPI DUP1 PUSH4 0xAD3B1B47 EQ PUSH2 0x4F6 JUMPI DUP1 PUSH4 0xAF6F4BCE EQ PUSH2 0x509 JUMPI DUP1 PUSH4 0xBA973E44 EQ PUSH2 0x531 JUMPI DUP1 PUSH4 0xC50809D3 EQ PUSH2 0x53A JUMPI PUSH1 0x0 DUP1 REVERT JUMPDEST DUP1 PUSH4 0x8456CB59 EQ PUSH2 0x479 JUMPI DUP1 PUSH4 0x859A62D0 EQ PUSH2 0x481 JUMPI DUP1 PUSH4 0x8931ECD0 EQ PUSH2 0x4A9 JUMPI DUP1 PUSH4 0x8C639A85 EQ PUSH2 0x4BC JUMPI DUP1 PUSH4 0x8DA5CB5B EQ PUSH2 0x4C5 JUMPI PUSH1 0x0 DUP1 REVERT JUMPDEST DUP1 PUSH4 0x4952CE76 GT PUSH2 0x1DF JUMPI DUP1 PUSH4 0x67D81740 GT PUSH2 0x1A3 JUMPI DUP1 PUSH4 0x67D81740 EQ PUSH2 0x3E5 JUMPI DUP1 PUSH4 0x698A4957 EQ PUSH2 0x3EE JUMPI DUP1 PUSH4 0x715018A6 EQ PUSH2 0x3F8 JUMPI DUP1 PUSH4 0x74C94BB9 EQ PUSH2 0x400 JUMPI DUP1 PUSH4 0x75DAA3DE EQ PUSH2 0x42B JUMPI DUP1 PUSH4 0x7E06A617 EQ PUSH2 0x452 JUMPI PUSH1 0x0 DUP1 REVERT JUMPDEST DUP1 PUSH4 0x4952CE76 EQ PUSH2 0x3A1 JUMPI DUP1 PUSH4 0x4C9C3F85 EQ PUSH2 0x3AA JUMPI DUP1 PUSH4 0x549EC614 EQ PUSH2 0x3B2 JUMPI DUP1 PUSH4 0x5B7BAF64 EQ PUSH2 0x3BB JUMPI DUP1 PUSH4 0x5C975ABB EQ PUSH2 0x3CE JUMPI PUSH1 0x0 DUP1 REVERT JUMPDEST DUP1 PUSH4 0x3809AE17 GT PUSH2 0x226 JUMPI DUP1 PUSH4 0x3809AE17 EQ PUSH2 0x32B JUMPI DUP1 PUSH4 0x3F4BA83A EQ PUSH2 0x33E JUMPI DUP1 PUSH4 0x43425E88 EQ PUSH2 0x346 JUMPI DUP1 PUSH4 0x4692C962 EQ PUSH2 0x36D JUMPI DUP1 PUSH4 0x47B55766 EQ PUSH2 0x38E JUMPI PUSH1 0x0 DUP1 REVERT JUMPDEST DUP1 PUSH4 0x1713ECBC EQ PUSH2 0x263 JUMPI DUP1 PUSH4 0x19AB9BD8 EQ PUSH2 0x290 JUMPI DUP1 PUSH4 0x1F528480 EQ PUSH2 0x2C9 JUMPI DUP1 PUSH4 0x253E35FC EQ PUSH2 0x2DE JUMPI DUP1 PUSH4 0x29CF655B EQ PUSH2 0x2F1 JUMPI JUMPDEST PUSH1 0x0 DUP1 REVERT JUMPDEST PUSH2 0x276 PUSH2 0x271 CALLDATASIZE PUSH1 0x4 PUSH2 0x2970 JUMP JUMPDEST PUSH2 0x644 JUMP JUMPDEST PUSH1 0x40 DUP1 MLOAD SWAP3 DUP4 MSTORE PUSH1 0x20 DUP4 ADD SWAP2 SWAP1 SWAP2 MSTORE ADD JUMPDEST PUSH1 0x40 MLOAD DUP1 SWAP2 SUB SWAP1 RETURN JUMPDEST PUSH2 0x2B7 PUSH32 0x0 DUP2 JUMP JUMPDEST PUSH1 0x40 MLOAD PUSH1 0xFF SWAP1 SWAP2 AND DUP2 MSTORE PUSH1 0x20 ADD PUSH2 0x287 JUMP JUMPDEST PUSH2 0x2DC PUSH2 0x2D7 CALLDATASIZE PUSH1 0x4 PUSH2 0x299C JUMP JUMPDEST PUSH2 0x77B JUMP JUMPDEST STOP JUMPDEST PUSH2 0x2DC PUSH2 0x2EC CALLDATASIZE PUSH1 0x4 PUSH2 0x29BE JUMP JUMPDEST PUSH2 0x9B3 JUMP JUMPDEST PUSH32 0x0 JUMPDEST PUSH1 0x40 MLOAD PUSH1 0x1 PUSH1 0x1 PUSH1 0xA0 SHL SUB SWAP1 SWAP2 AND DUP2 MSTORE PUSH1 0x20 ADD PUSH2 0x287 JUMP JUMPDEST PUSH2 0x2DC PUSH2 0x339 CALLDATASIZE PUSH1 0x4 PUSH2 0x29BE JUMP JUMPDEST PUSH2 0xB31 JUMP JUMPDEST PUSH2 0x2DC PUSH2 0xE7E JUMP JUMPDEST PUSH2 0x313 PUSH32 0x0 DUP2 JUMP JUMPDEST PUSH2 0x380 PUSH2 0x37B CALLDATASIZE PUSH1 0x4 PUSH2 0x299C JUMP JUMPDEST PUSH2 0xE90 JUMP JUMPDEST PUSH1 0x40 MLOAD SWAP1 DUP2 MSTORE PUSH1 0x20 ADD PUSH2 0x287 JUMP JUMPDEST PUSH2 0x2DC PUSH2 0x39C CALLDATASIZE PUSH1 0x4 PUSH2 0x2AB1 JUMP JUMPDEST PUSH2 0xF04 JUMP JUMPDEST PUSH2 0x380 PUSH1 0x7 SLOAD DUP2 JUMP JUMPDEST PUSH1 0x3 SLOAD PUSH2 0x380 JUMP JUMPDEST PUSH2 0x380 PUSH1 0x4 SLOAD DUP2 JUMP JUMPDEST PUSH2 0x2DC PUSH2 0x3C9 CALLDATASIZE PUSH1 0x4 PUSH2 0x29BE JUMP JUMPDEST PUSH2 0x11A2 JUMP JUMPDEST PUSH1 0x2 SLOAD PUSH1 0xFF AND JUMPDEST PUSH1 0x40 MLOAD SWAP1 ISZERO ISZERO DUP2 MSTORE PUSH1 0x20 ADD PUSH2 0x287 JUMP JUMPDEST PUSH2 0x380 PUSH2 0x3E8 DUP2 JUMP JUMPDEST PUSH2 0x380 PUSH3 0x15180 DUP2 JUMP JUMPDEST PUSH2 0x2DC PUSH2 0x1408 JUMP JUMPDEST PUSH2 0x380 PUSH2 0x40E CALLDATASIZE PUSH1 0x4 PUSH2 0x2970 JUMP JUMPDEST PUSH1 0xA PUSH1 0x20 SWAP1 DUP2 MSTORE PUSH1 0x0 SWAP3 DUP4 MSTORE PUSH1 0x40 DUP1 DUP5 KECCAK256 SWAP1 SWAP2 MSTORE SWAP1 DUP3 MSTORE SWAP1 KECCAK256 SLOAD DUP2 JUMP JUMPDEST PUSH2 0x313 PUSH32 0x0 DUP2 JUMP JUMPDEST PUSH2 0x2B7 PUSH32 0x0 DUP2 JUMP JUMPDEST PUSH2 0x2DC PUSH2 0x141A JUMP JUMPDEST PUSH2 0x494 PUSH2 0x48F CALLDATASIZE PUSH1 0x4 PUSH2 0x29BE JUMP JUMPDEST PUSH2 0x142A JUMP JUMPDEST PUSH1 0x40 MLOAD PUSH2 0x287 SWAP10 SWAP9 SWAP8 SWAP7 SWAP6 SWAP5 SWAP4 SWAP3 SWAP2 SWAP1 PUSH2 0x2BF5 JUMP JUMPDEST PUSH2 0x3D5 PUSH2 0x4B7 CALLDATASIZE PUSH1 0x4 PUSH2 0x29BE JUMP JUMPDEST PUSH2 0x158C JUMP JUMPDEST PUSH2 0x380 PUSH1 0x3 SLOAD DUP2 JUMP JUMPDEST PUSH1 0x0 SLOAD PUSH1 0x1 PUSH1 0x1 PUSH1 0xA0 SHL SUB AND PUSH2 0x313 JUMP JUMPDEST PUSH2 0x380 PUSH2 0x4E4 CALLDATASIZE PUSH1 0x4 PUSH2 0x29BE JUMP JUMPDEST PUSH1 0x8 PUSH1 0x20 MSTORE PUSH1 0x0 SWAP1 DUP2 MSTORE PUSH1 0x40 SWAP1 KECCAK256 SLOAD DUP2 JUMP JUMPDEST PUSH2 0x2DC PUSH2 0x504 CALLDATASIZE PUSH1 0x4 PUSH2 0x2C56 JUMP JUMPDEST PUSH2 0x166C JUMP JUMPDEST PUSH2 0x51C PUSH2 0x517 CALLDATASIZE PUSH1 0x4 PUSH2 0x29BE JUMP JUMPDEST PUSH2 0x1843 JUMP JUMPDEST PUSH1 0x40 MLOAD PUSH2 0x287 SWAP10 SWAP9 SWAP8 SWAP7 SWAP6 SWAP5 SWAP4 SWAP3 SWAP2 SWAP1 PUSH2 0x2CC5 JUMP JUMPDEST PUSH2 0x380 PUSH1 0x6 SLOAD DUP2 JUMP JUMPDEST PUSH2 0x2DC PUSH2 0x548 CALLDATASIZE PUSH1 0x4 PUSH2 0x29BE JUMP JUMPDEST PUSH2 0x1A9B JUMP JUMPDEST PUSH32 0x0 PUSH2 0x313 JUMP JUMPDEST PUSH2 0x2DC PUSH2 0x581 CALLDATASIZE PUSH1 0x4 PUSH2 0x29BE JUMP JUMPDEST PUSH2 0x1AFD JUMP JUMPDEST PUSH2 0x3D5 PUSH2 0x594 CALLDATASIZE PUSH1 0x4 PUSH2 0x2D39 JUMP JUMPDEST PUSH1 0xB PUSH1 0x20 MSTORE PUSH1 0x0 SWAP1 DUP2 MSTORE PUSH1 0x40 SWAP1 KECCAK256 SLOAD PUSH1 0xFF AND DUP2 JUMP JUMPDEST PUSH2 0x2DC PUSH2 0x5B7 CALLDATASIZE PUSH1 0x4 PUSH2 0x29BE JUMP JUMPDEST PUSH2 0x1B4B JUMP JUMPDEST PUSH2 0x380 PUSH1 0x5 SLOAD DUP2 JUMP JUMPDEST PUSH2 0x2DC PUSH2 0x5D3 CALLDATASIZE PUSH1 0x4 PUSH2 0x2D5B JUMP JUMPDEST PUSH2 0x1B58 JUMP JUMPDEST PUSH2 0x2DC PUSH2 0x5E6 CALLDATASIZE PUSH1 0x4 PUSH2 0x2D92 JUMP JUMPDEST PUSH2 0x1C0E JUMP JUMPDEST PUSH2 0x2DC PUSH2 0x5F9 CALLDATASIZE PUSH1 0x4 PUSH2 0x2DCE JUMP JUMPDEST PUSH2 0x1CD7 JUMP JUMPDEST PUSH2 0x2DC PUSH2 0x60C CALLDATASIZE PUSH1 0x4 PUSH2 0x299C JUMP JUMPDEST PUSH2 0x22EF JUMP JUMPDEST PUSH2 0x2DC PUSH2 0x61F CALLDATASIZE PUSH1 0x4 PUSH2 0x2D39 JUMP JUMPDEST PUSH2 0x2579 JUMP JUMPDEST PUSH2 0x637 PUSH2 0x632 CALLDATASIZE PUSH1 0x4 PUSH2 0x2970 JUMP JUMPDEST PUSH2 0x25E0 JUMP JUMPDEST PUSH1 0x40 MLOAD PUSH2 0x287 SWAP2 SWAP1 PUSH2 0x2DFA JUMP JUMPDEST PUSH1 0x0 DUP3 DUP2 MSTORE PUSH1 0x9 PUSH1 0x20 MSTORE PUSH1 0x40 DUP2 KECCAK256 PUSH1 0x7 DUP2 ADD SLOAD DUP3 SWAP2 SWAP1 PUSH1 0xFF AND ISZERO DUP1 PUSH2 0x672 JUMPI POP PUSH1 0x7 DUP2 ADD SLOAD PUSH2 0x100 SWAP1 DIV PUSH1 0xFF AND JUMPDEST ISZERO PUSH2 0x684 JUMPI PUSH1 0x0 DUP1 SWAP3 POP SWAP3 POP POP PUSH2 0x774 JUMP JUMPDEST PUSH1 0x8 DUP2 ADD SLOAD PUSH1 0x1 PUSH1 0x1 PUSH1 0xA0 SHL SUB DUP6 AND PUSH1 0x0 SWAP1 DUP2 MSTORE PUSH1 0xE DUP4 ADD PUSH1 0x20 MSTORE PUSH1 0x40 DUP2 KECCAK256 DUP3 PUSH1 0x3 DUP2 LT PUSH2 0x6B4 JUMPI PUSH2 0x6B4 PUSH2 0x2E2B JUMP JUMPDEST ADD SLOAD SWAP1 POP DUP1 PUSH1 0x0 SUB PUSH2 0x6CF JUMPI PUSH1 0x0 DUP1 SWAP5 POP SWAP5 POP POP POP POP PUSH2 0x774 JUMP JUMPDEST PUSH1 0x0 DUP4 PUSH1 0xB ADD DUP4 PUSH1 0x3 DUP2 LT PUSH2 0x6E6 JUMPI PUSH2 0x6E6 PUSH2 0x2E2B JUMP JUMPDEST ADD SLOAD SWAP1 POP PUSH1 0x0 DUP5 PUSH1 0xA ADD SLOAD DUP6 PUSH1 0x9 ADD SLOAD PUSH2 0x700 SWAP2 SWAP1 PUSH2 0x2E57 JUMP JUMPDEST SWAP1 POP DUP2 PUSH2 0x70D DUP3 DUP6 PUSH2 0x2E6A JUMP JUMPDEST PUSH2 0x717 SWAP2 SWAP1 PUSH2 0x2E81 JUMP JUMPDEST SWAP7 POP DUP3 DUP8 LT ISZERO PUSH2 0x725 JUMPI DUP3 SWAP7 POP JUMPDEST PUSH1 0x0 DUP10 DUP2 MSTORE PUSH1 0xA PUSH1 0x20 SWAP1 DUP2 MSTORE PUSH1 0x40 DUP1 DUP4 KECCAK256 PUSH1 0x1 PUSH1 0x1 PUSH1 0xA0 SHL SUB DUP13 AND DUP5 MSTORE SWAP1 SWAP2 MSTORE SWAP1 KECCAK256 SLOAD PUSH1 0x6 SLOAD DUP2 LT PUSH2 0x76D JUMPI PUSH2 0x2710 PUSH2 0x760 DUP10 PUSH2 0x12C PUSH2 0x2E6A JUMP JUMPDEST PUSH2 0x76A SWAP2 SWAP1 PUSH2 0x2E81 JUMP JUMPDEST SWAP7 POP JUMPDEST POP POP POP POP POP POP JUMPDEST SWAP3 POP SWAP3 SWAP1 POP JUMP JUMPDEST CALLER PUSH1 0x0 SWAP1 DUP2 MSTORE PUSH1 0xB PUSH1 0x20 MSTORE PUSH1 0x40 SWAP1 KECCAK256 SLOAD PUSH1 0xFF AND DUP1 PUSH2 0x7A3 JUMPI POP PUSH1 0x0 SLOAD PUSH1 0x1 PUSH1 0x1 PUSH1 0xA0 SHL SUB AND CALLER EQ JUMPDEST PUSH2 0x7F0 JUMPI PUSH1 0x40 MLOAD PUSH3 0x461BCD PUSH1 0xE5 SHL DUP2 MSTORE PUSH1 0x20 PUSH1 0x4 DUP3 ADD MSTORE PUSH1 0x19 PUSH1 0x24 DUP3 ADD MSTORE PUSH25 0x4E6F7420617574686F72697A656420746F207265736F6C7665 PUSH1 0x38 SHL PUSH1 0x44 DUP3 ADD MSTORE PUSH1 0x64 ADD JUMPDEST PUSH1 0x40 MLOAD DUP1 SWAP2 SUB SWAP1 REVERT JUMPDEST PUSH1 0x40 DUP1 MLOAD PUSH1 0x20 DUP1 DUP3 ADD DUP6 SWAP1 MSTORE DUP2 DUP4 ADD DUP5 SWAP1 MSTORE DUP3 MLOAD DUP1 DUP4 SUB DUP5 ADD DUP2 MSTORE PUSH1 0x60 SWAP1 SWAP3 ADD DUP4 MSTORE DUP2 MLOAD SWAP2 DUP2 ADD SWAP2 SWAP1 SWAP2 KECCAK256 PUSH1 0x0 DUP2 DUP2 MSTORE PUSH1 0x8 SWAP1 SWAP3 MSTORE SWAP2 DUP2 KECCAK256 SLOAD SWAP1 SUB PUSH2 0x86F JUMPI PUSH1 0x40 MLOAD PUSH3 0x461BCD PUSH1 0xE5 SHL DUP2 MSTORE PUSH1 0x20 PUSH1 0x4 DUP3 ADD MSTORE PUSH1 0x15 PUSH1 0x24 DUP3 ADD MSTORE PUSH21 0x2737903832B73234B733903932B9B7B63ABA34B7B7 PUSH1 0x59 SHL PUSH1 0x44 DUP3 ADD MSTORE PUSH1 0x64 ADD PUSH2 0x7E7 JUMP JUMPDEST PUSH1 0x0 DUP2 DUP2 MSTORE PUSH1 0x8 PUSH1 0x20 MSTORE PUSH1 0x40 SWAP1 KECCAK256 SLOAD TIMESTAMP LT ISZERO PUSH2 0x8C4 JUMPI PUSH1 0x40 MLOAD PUSH3 0x461BCD PUSH1 0xE5 SHL DUP2 MSTORE PUSH1 0x20 PUSH1 0x4 DUP3 ADD MSTORE PUSH1 0x14 PUSH1 0x24 DUP3 ADD MSTORE PUSH20 0x151A5B595B1BD8DAC81B9BDD08195E1C1A5C9959 PUSH1 0x62 SHL PUSH1 0x44 DUP3 ADD MSTORE PUSH1 0x64 ADD PUSH2 0x7E7 JUMP JUMPDEST PUSH1 0x0 DUP4 DUP2 MSTORE PUSH1 0x9 PUSH1 0x20 MSTORE PUSH1 0x40 SWAP1 KECCAK256 PUSH1 0x7 DUP2 ADD SLOAD PUSH1 0xFF AND ISZERO DUP1 ISZERO PUSH2 0x8F1 JUMPI POP PUSH1 0x7 DUP2 ADD SLOAD PUSH2 0x100 SWAP1 DIV PUSH1 0xFF AND ISZERO JUMPDEST PUSH2 0x90D JUMPI PUSH1 0x40 MLOAD PUSH3 0x461BCD PUSH1 0xE5 SHL DUP2 MSTORE PUSH1 0x4 ADD PUSH2 0x7E7 SWAP1 PUSH2 0x2EA3 JUMP JUMPDEST PUSH1 0x0 PUSH2 0x2710 PUSH1 0x3 SLOAD DUP4 PUSH1 0x9 ADD SLOAD PUSH2 0x924 SWAP2 SWAP1 PUSH2 0x2E6A JUMP JUMPDEST PUSH2 0x92E SWAP2 SWAP1 PUSH2 0x2E81 JUMP JUMPDEST SWAP1 POP DUP1 DUP3 PUSH1 0xA ADD DUP2 SWAP1 SSTORE POP DUP1 PUSH1 0x7 PUSH1 0x0 DUP3 DUP3 SLOAD PUSH2 0x94B SWAP2 SWAP1 PUSH2 0x2EDA JUMP JUMPDEST SWAP1 SWAP2 SSTORE POP POP PUSH1 0x7 DUP3 ADD DUP1 SLOAD PUSH1 0xFF NOT AND PUSH1 0x1 OR SWAP1 SSTORE PUSH1 0x8 DUP1 DUP4 ADD DUP6 SWAP1 SSTORE PUSH1 0x0 DUP5 DUP2 MSTORE PUSH1 0x20 SWAP2 DUP3 MSTORE PUSH1 0x40 DUP1 DUP3 KECCAK256 SWAP2 SWAP1 SWAP2 SSTORE MLOAD DUP6 DUP2 MSTORE DUP7 SWAP2 PUSH32 0x147951699DA2828EEF91AD406D09DDD88BE2FBC13C15B98C3228C3D80E6999FF SWAP2 ADD JUMPDEST PUSH1 0x40 MLOAD DUP1 SWAP2 SUB SWAP1 LOG2 POP POP POP POP POP JUMP JUMPDEST PUSH2 0x9BB PUSH2 0x263E JUMP JUMPDEST PUSH1 0x0 DUP2 DUP2 MSTORE PUSH1 0x9 PUSH1 0x20 MSTORE PUSH1 0x40 SWAP1 KECCAK256 PUSH1 0x7 DUP2 ADD SLOAD PUSH1 0xFF AND ISZERO DUP1 ISZERO PUSH2 0x9E8 JUMPI POP PUSH1 0x7 DUP2 ADD SLOAD PUSH2 0x100 SWAP1 DIV PUSH1 0xFF AND ISZERO JUMPDEST PUSH2 0xA40 JUMPI PUSH1 0x40 MLOAD PUSH3 0x461BCD PUSH1 0xE5 SHL DUP2 MSTORE PUSH1 0x20 PUSH1 0x4 DUP3 ADD MSTORE PUSH1 0x24 DUP1 DUP3 ADD MSTORE PUSH32 0x4475656C206973207265736F6C766564206F7220616C72656164792063616E63 PUSH1 0x44 DUP3 ADD MSTORE PUSH4 0x195B1959 PUSH1 0xE2 SHL PUSH1 0x64 DUP3 ADD MSTORE PUSH1 0x84 ADD PUSH2 0x7E7 JUMP JUMPDEST DUP1 PUSH1 0x6 ADD SLOAD TIMESTAMP LT ISZERO PUSH2 0xA8B JUMPI PUSH1 0x40 MLOAD PUSH3 0x461BCD PUSH1 0xE5 SHL DUP2 MSTORE PUSH1 0x20 PUSH1 0x4 DUP3 ADD MSTORE PUSH1 0x14 PUSH1 0x24 DUP3 ADD MSTORE PUSH20 0x111958591B1A5B99481B9BDD081C995858DA1959 PUSH1 0x62 SHL PUSH1 0x44 DUP3 ADD MSTORE PUSH1 0x64 ADD PUSH2 0x7E7 JUMP JUMPDEST PUSH2 0xA94 DUP3 PUSH2 0x158C JUMP JUMPDEST ISZERO PUSH2 0xAF1 JUMPI PUSH1 0x40 MLOAD PUSH3 0x461BCD PUSH1 0xE5 SHL DUP2 MSTORE PUSH1 0x20 PUSH1 0x4 DUP3 ADD MSTORE PUSH1 0x27 PUSH1 0x24 DUP3 ADD MSTORE PUSH32 0x4475656C2069732062616C616E63656420616E642063616E6E6F742062652063 PUSH1 0x44 DUP3 ADD MSTORE PUSH7 0x185B98D95B1959 PUSH1 0xCA SHL PUSH1 0x64 DUP3 ADD MSTORE PUSH1 0x84 ADD PUSH2 0x7E7 JUMP JUMPDEST PUSH1 0x7 DUP2 ADD DUP1 SLOAD PUSH2 0xFF00 NOT AND PUSH2 0x100 OR SWAP1 SSTORE PUSH1 0x40 MLOAD DUP3 SWAP1 PUSH32 0xBB08ACBD04FEAFC2C9A5DBFBA32CD5488E51D178EBB70F355C6E0B00CDA5EF87 SWAP1 PUSH1 0x0 SWAP1 LOG2 POP POP JUMP JUMPDEST PUSH2 0xB39 PUSH2 0x2698 JUMP JUMPDEST PUSH1 0x0 DUP2 DUP2 MSTORE PUSH1 0x9 PUSH1 0x20 MSTORE PUSH1 0x40 SWAP1 KECCAK256 PUSH1 0x7 DUP2 ADD SLOAD PUSH1 0xFF AND PUSH2 0xB92 JUMPI PUSH1 0x40 MLOAD PUSH3 0x461BCD PUSH1 0xE5 SHL DUP2 MSTORE PUSH1 0x20 PUSH1 0x4 DUP3 ADD MSTORE PUSH1 0x14 PUSH1 0x24 DUP3 ADD MSTORE PUSH20 0x111D595B081A5CC81B9BDD081C995CDBDB1D9959 PUSH1 0x62 SHL PUSH1 0x44 DUP3 ADD MSTORE PUSH1 0x64 ADD PUSH2 0x7E7 JUMP JUMPDEST PUSH1 0x7 DUP2 ADD SLOAD PUSH2 0x100 SWAP1 DIV PUSH1 0xFF AND ISZERO PUSH2 0xBDF JUMPI PUSH1 0x40 MLOAD PUSH3 0x461BCD PUSH1 0xE5 SHL DUP2 MSTORE PUSH1 0x20 PUSH1 0x4 DUP3 ADD MSTORE PUSH1 0x10 PUSH1 0x24 DUP3 ADD MSTORE PUSH16 0x111D595B081A5CC818D85B98D95B1959 PUSH1 0x82 SHL PUSH1 0x44 DUP3 ADD MSTORE PUSH1 0x64 ADD PUSH2 0x7E7 JUMP JUMPDEST CALLER PUSH1 0x0 SWAP1 DUP2 MSTORE PUSH1 0xF DUP3 ADD PUSH1 0x20 MSTORE PUSH1 0x40 SWAP1 KECCAK256 SLOAD PUSH1 0xFF AND ISZERO PUSH2 0xC33 JUMPI PUSH1 0x40 MLOAD PUSH3 0x461BCD PUSH1 0xE5 SHL DUP2 MSTORE PUSH1 0x20 PUSH1 0x4 DUP3 ADD MSTORE PUSH1 0xF PUSH1 0x24 DUP3 ADD MSTORE PUSH15 0x105B1C9958591E4818DB185A5B5959 PUSH1 0x8A SHL PUSH1 0x44 DUP3 ADD MSTORE PUSH1 0x64 ADD PUSH2 0x7E7 JUMP JUMPDEST PUSH1 0x8 DUP2 ADD SLOAD CALLER PUSH1 0x0 SWAP1 DUP2 MSTORE PUSH1 0xE DUP4 ADD PUSH1 0x20 MSTORE PUSH1 0x40 DUP2 KECCAK256 DUP3 PUSH1 0x3 DUP2 LT PUSH2 0xC5A JUMPI PUSH2 0xC5A PUSH2 0x2E2B JUMP JUMPDEST ADD SLOAD SWAP1 POP PUSH1 0x0 DUP2 GT PUSH2 0xCA0 JUMPI PUSH1 0x40 MLOAD PUSH3 0x461BCD PUSH1 0xE5 SHL DUP2 MSTORE PUSH1 0x20 PUSH1 0x4 DUP3 ADD MSTORE PUSH1 0xF PUSH1 0x24 DUP3 ADD MSTORE PUSH15 0x4E6F2077696E6E696E672062657473 PUSH1 0x88 SHL PUSH1 0x44 DUP3 ADD MSTORE PUSH1 0x64 ADD PUSH2 0x7E7 JUMP JUMPDEST CALLER PUSH1 0x0 SWAP1 DUP2 MSTORE PUSH1 0xF DUP5 ADD PUSH1 0x20 MSTORE PUSH1 0x40 DUP2 KECCAK256 DUP1 SLOAD PUSH1 0xFF NOT AND PUSH1 0x1 OR SWAP1 SSTORE PUSH1 0xB DUP5 ADD DUP4 PUSH1 0x3 DUP2 LT PUSH2 0xCD1 JUMPI PUSH2 0xCD1 PUSH2 0x2E2B JUMP JUMPDEST ADD SLOAD SWAP1 POP PUSH1 0x0 DUP5 PUSH1 0xA ADD SLOAD DUP6 PUSH1 0x9 ADD SLOAD PUSH2 0xCEB SWAP2 SWAP1 PUSH2 0x2E57 JUMP JUMPDEST SWAP1 POP PUSH1 0x0 DUP3 PUSH2 0xCFA DUP4 DUP7 PUSH2 0x2E6A JUMP JUMPDEST PUSH2 0xD04 SWAP2 SWAP1 PUSH2 0x2E81 JUMP JUMPDEST SWAP1 POP DUP4 DUP2 LT ISZERO PUSH2 0xD11 JUMPI POP DUP3 JUMPDEST PUSH1 0x0 DUP8 DUP2 MSTORE PUSH1 0xA PUSH1 0x20 SWAP1 DUP2 MSTORE PUSH1 0x40 DUP1 DUP4 KECCAK256 CALLER DUP5 MSTORE SWAP1 SWAP2 MSTORE DUP2 KECCAK256 SLOAD PUSH1 0x6 SLOAD DUP2 LT PUSH2 0xD50 JUMPI PUSH2 0x2710 PUSH2 0xD43 DUP5 PUSH2 0x1F4 PUSH2 0x2E6A JUMP JUMPDEST PUSH2 0xD4D SWAP2 SWAP1 PUSH2 0x2E81 JUMP JUMPDEST SWAP2 POP JUMPDEST PUSH1 0x0 PUSH2 0xD5C DUP4 DUP6 PUSH2 0x2EDA JUMP JUMPDEST PUSH1 0x40 MLOAD PUSH4 0xA9059CBB PUSH1 0xE0 SHL DUP2 MSTORE CALLER PUSH1 0x4 DUP3 ADD MSTORE PUSH1 0x24 DUP2 ADD DUP3 SWAP1 MSTORE SWAP1 SWAP2 POP PUSH32 0x0 PUSH1 0x1 PUSH1 0x1 PUSH1 0xA0 SHL SUB AND SWAP1 PUSH4 0xA9059CBB SWAP1 PUSH1 0x44 ADD PUSH1 0x20 PUSH1 0x40 MLOAD DUP1 DUP4 SUB DUP2 PUSH1 0x0 DUP8 GAS CALL ISZERO DUP1 ISZERO PUSH2 0xDCC JUMPI RETURNDATASIZE PUSH1 0x0 DUP1 RETURNDATACOPY RETURNDATASIZE PUSH1 0x0 REVERT JUMPDEST POP POP POP POP PUSH1 0x40 MLOAD RETURNDATASIZE PUSH1 0x1F NOT PUSH1 0x1F DUP3 ADD AND DUP3 ADD DUP1 PUSH1 0x40 MSTORE POP DUP2 ADD SWAP1 PUSH2 0xDF0 SWAP2 SWAP1 PUSH2 0x2EED JUMP JUMPDEST PUSH2 0xE2C JUMPI PUSH1 0x40 MLOAD PUSH3 0x461BCD PUSH1 0xE5 SHL DUP2 MSTORE PUSH1 0x20 PUSH1 0x4 DUP3 ADD MSTORE PUSH1 0xD PUSH1 0x24 DUP3 ADD MSTORE PUSH13 0x14185E5BDD5D0819985A5B1959 PUSH1 0x9A SHL PUSH1 0x44 DUP3 ADD MSTORE PUSH1 0x64 ADD PUSH2 0x7E7 JUMP JUMPDEST PUSH1 0x40 DUP1 MLOAD DUP6 DUP2 MSTORE PUSH1 0x20 DUP2 ADD DUP6 SWAP1 MSTORE CALLER SWAP2 DUP13 SWAP2 PUSH32 0x16EB6194EC5E287F7418C9784085DBBF1EEDD440C05DBB3C961F4A141E857BAF SWAP2 ADD PUSH1 0x40 MLOAD DUP1 SWAP2 SUB SWAP1 LOG3 POP POP POP POP POP POP POP POP POP PUSH2 0xE7B PUSH1 0x1 DUP1 SSTORE JUMP JUMPDEST POP JUMP JUMPDEST PUSH2 0xE86 PUSH2 0x263E JUMP JUMPDEST PUSH2 0xE8E PUSH2 0x26F1 JUMP JUMPDEST JUMP JUMPDEST PUSH1 0x0 PUSH1 0x3 DUP3 LT PUSH2 0xED7 JUMPI PUSH1 0x40 MLOAD PUSH3 0x461BCD PUSH1 0xE5 SHL DUP2 MSTORE PUSH1 0x20 PUSH1 0x4 DUP3 ADD MSTORE PUSH1 0x12 PUSH1 0x24 DUP3 ADD MSTORE PUSH18 0x125B9D985B1A59081BDD5D18DBDB59481251 PUSH1 0x72 SHL PUSH1 0x44 DUP3 ADD MSTORE PUSH1 0x64 ADD PUSH2 0x7E7 JUMP JUMPDEST PUSH1 0x0 DUP4 DUP2 MSTORE PUSH1 0x9 PUSH1 0x20 MSTORE PUSH1 0x40 SWAP1 KECCAK256 PUSH1 0xB ADD DUP3 PUSH1 0x3 DUP2 LT PUSH2 0xEF9 JUMPI PUSH2 0xEF9 PUSH2 0x2E2B JUMP JUMPDEST ADD SLOAD SWAP1 POP JUMPDEST SWAP3 SWAP2 POP POP JUMP JUMPDEST PUSH2 0xF0C PUSH2 0x263E JUMP JUMPDEST PUSH2 0xF14 PUSH2 0x2743 JUMP JUMPDEST PUSH2 0xF20 TIMESTAMP PUSH2 0xE10 PUSH2 0x2EDA JUMP JUMPDEST DUP2 GT PUSH2 0xF62 JUMPI PUSH1 0x40 MLOAD PUSH3 0x461BCD PUSH1 0xE5 SHL DUP2 MSTORE PUSH1 0x20 PUSH1 0x4 DUP3 ADD MSTORE PUSH1 0x11 PUSH1 0x24 DUP3 ADD MSTORE PUSH17 0x2232B0B23634B732903A37B79039B7B7B7 PUSH1 0x79 SHL PUSH1 0x44 DUP3 ADD MSTORE PUSH1 0x64 ADD PUSH2 0x7E7 JUMP JUMPDEST PUSH2 0xF70 TIMESTAMP PUSH4 0x1E13380 PUSH2 0x2EDA JUMP JUMPDEST DUP2 LT PUSH2 0xFB1 JUMPI PUSH1 0x40 MLOAD PUSH3 0x461BCD PUSH1 0xE5 SHL DUP2 MSTORE PUSH1 0x20 PUSH1 0x4 DUP3 ADD MSTORE PUSH1 0x10 PUSH1 0x24 DUP3 ADD MSTORE PUSH16 0x2232B0B23634B732903A37B7903330B9 PUSH1 0x81 SHL PUSH1 0x44 DUP3 ADD MSTORE PUSH1 0x64 ADD PUSH2 0x7E7 JUMP JUMPDEST PUSH1 0x0 DUP6 MLOAD GT DUP1 ISZERO PUSH2 0xFC4 JUMPI POP PUSH1 0x64 DUP6 MLOAD GT ISZERO JUMPDEST PUSH2 0x1000 JUMPI PUSH1 0x40 MLOAD PUSH3 0x461BCD PUSH1 0xE5 SHL DUP2 MSTORE PUSH1 0x20 PUSH1 0x4 DUP3 ADD MSTORE PUSH1 0xD PUSH1 0x24 DUP3 ADD MSTORE PUSH13 0x496E76616C6964207469746C65 PUSH1 0x98 SHL PUSH1 0x44 DUP3 ADD MSTORE PUSH1 0x64 ADD PUSH2 0x7E7 JUMP JUMPDEST PUSH1 0x0 DUP5 MLOAD GT DUP1 ISZERO PUSH2 0x1013 JUMPI POP PUSH1 0x32 DUP5 MLOAD GT ISZERO JUMPDEST PUSH2 0x1052 JUMPI PUSH1 0x40 MLOAD PUSH3 0x461BCD PUSH1 0xE5 SHL DUP2 MSTORE PUSH1 0x20 PUSH1 0x4 DUP3 ADD MSTORE PUSH1 0x10 PUSH1 0x24 DUP3 ADD MSTORE PUSH16 0x496E76616C69642063617465676F7279 PUSH1 0x80 SHL PUSH1 0x44 DUP3 ADD MSTORE PUSH1 0x64 ADD PUSH2 0x7E7 JUMP JUMPDEST PUSH1 0x0 JUMPDEST PUSH1 0x3 DUP2 LT ISZERO PUSH2 0x10ED JUMPI PUSH1 0x0 DUP4 DUP3 PUSH1 0x3 DUP2 LT PUSH2 0x1072 JUMPI PUSH2 0x1072 PUSH2 0x2E2B JUMP JUMPDEST PUSH1 0x20 MUL ADD MLOAD MLOAD GT DUP1 ISZERO PUSH2 0x109D JUMPI POP PUSH1 0x32 DUP4 DUP3 PUSH1 0x3 DUP2 LT PUSH2 0x1094 JUMPI PUSH2 0x1094 PUSH2 0x2E2B JUMP JUMPDEST PUSH1 0x20 MUL ADD MLOAD MLOAD GT ISZERO JUMPDEST PUSH2 0x10DB JUMPI PUSH1 0x40 MLOAD PUSH3 0x461BCD PUSH1 0xE5 SHL DUP2 MSTORE PUSH1 0x20 PUSH1 0x4 DUP3 ADD MSTORE PUSH1 0xF PUSH1 0x24 DUP3 ADD MSTORE PUSH15 0x496E76616C6964206F7574636F6D65 PUSH1 0x88 SHL PUSH1 0x44 DUP3 ADD MSTORE PUSH1 0x64 ADD PUSH2 0x7E7 JUMP JUMPDEST DUP1 PUSH2 0x10E5 DUP2 PUSH2 0x2F0A JUMP JUMPDEST SWAP2 POP POP PUSH2 0x1055 JUMP JUMPDEST POP PUSH1 0x4 SLOAD PUSH1 0x0 DUP2 DUP2 MSTORE PUSH1 0x9 PUSH1 0x20 MSTORE PUSH1 0x40 SWAP1 KECCAK256 DUP1 PUSH2 0x110A DUP9 DUP3 PUSH2 0x2FAB JUMP JUMPDEST POP PUSH1 0x1 DUP2 ADD PUSH2 0x1119 DUP8 DUP3 PUSH2 0x2FAB JUMP JUMPDEST POP PUSH1 0x2 DUP2 ADD DUP1 SLOAD PUSH1 0xFF NOT AND DUP7 ISZERO ISZERO OR SWAP1 SSTORE PUSH2 0x113A PUSH1 0x3 DUP1 DUP4 ADD SWAP1 DUP7 SWAP1 PUSH2 0x285F JUMP JUMPDEST POP DUP3 DUP2 PUSH1 0x6 ADD DUP2 SWAP1 SSTORE POP DUP2 PUSH32 0xD839A273FCEA4D270E0CFDB75B7A42BEBDDBACF59569AB821F70611E281695ED DUP9 DUP9 DUP9 DUP9 DUP9 PUSH1 0x40 MLOAD PUSH2 0x117C SWAP6 SWAP5 SWAP4 SWAP3 SWAP2 SWAP1 PUSH2 0x306B JUMP JUMPDEST PUSH1 0x40 MLOAD DUP1 SWAP2 SUB SWAP1 LOG2 PUSH1 0x4 DUP1 SLOAD SWAP1 PUSH1 0x0 PUSH2 0x1194 DUP4 PUSH2 0x2F0A JUMP JUMPDEST SWAP2 SWAP1 POP SSTORE POP POP POP POP POP POP POP POP JUMP JUMPDEST PUSH2 0x11AA PUSH2 0x2698 JUMP JUMPDEST PUSH1 0x0 DUP2 DUP2 MSTORE PUSH1 0x9 PUSH1 0x20 MSTORE PUSH1 0x40 SWAP1 KECCAK256 PUSH1 0x7 DUP2 ADD SLOAD PUSH2 0x100 SWAP1 DIV PUSH1 0xFF AND PUSH2 0x1208 JUMPI PUSH1 0x40 MLOAD PUSH3 0x461BCD PUSH1 0xE5 SHL DUP2 MSTORE PUSH1 0x20 PUSH1 0x4 DUP3 ADD MSTORE PUSH1 0x14 PUSH1 0x24 DUP3 ADD MSTORE PUSH20 0x111D595B081A5CC81B9BDD0818D85B98D95B1959 PUSH1 0x62 SHL PUSH1 0x44 DUP3 ADD MSTORE PUSH1 0x64 ADD PUSH2 0x7E7 JUMP JUMPDEST CALLER PUSH1 0x0 SWAP1 DUP2 MSTORE PUSH1 0x10 DUP3 ADD PUSH1 0x20 MSTORE PUSH1 0x40 SWAP1 KECCAK256 SLOAD PUSH1 0xFF AND ISZERO PUSH2 0x1263 JUMPI PUSH1 0x40 MLOAD PUSH3 0x461BCD PUSH1 0xE5 SHL DUP2 MSTORE PUSH1 0x20 PUSH1 0x4 DUP3 ADD MSTORE PUSH1 0x16 PUSH1 0x24 DUP3 ADD MSTORE PUSH22 0x105B1C9958591E4818DB185A5B5959081C99599D5B99 PUSH1 0x52 SHL PUSH1 0x44 DUP3 ADD MSTORE PUSH1 0x64 ADD PUSH2 0x7E7 JUMP JUMPDEST CALLER PUSH1 0x0 SWAP1 DUP2 MSTORE PUSH1 0xE DUP3 ADD PUSH1 0x20 MSTORE PUSH1 0x40 DUP2 KECCAK256 PUSH1 0x2 DUP2 ADD SLOAD PUSH1 0x1 DUP3 ADD SLOAD SWAP2 SLOAD SWAP1 SWAP2 PUSH2 0x128B SWAP2 PUSH2 0x2EDA JUMP JUMPDEST PUSH2 0x1295 SWAP2 SWAP1 PUSH2 0x2EDA JUMP JUMPDEST SWAP1 POP PUSH1 0x0 DUP2 GT PUSH2 0x12DB JUMPI PUSH1 0x40 MLOAD PUSH3 0x461BCD PUSH1 0xE5 SHL DUP2 MSTORE PUSH1 0x20 PUSH1 0x4 DUP3 ADD MSTORE PUSH1 0x11 PUSH1 0x24 DUP3 ADD MSTORE PUSH17 0x139BC818995D1CC81D1BC81C99599D5B99 PUSH1 0x7A SHL PUSH1 0x44 DUP3 ADD MSTORE PUSH1 0x64 ADD PUSH2 0x7E7 JUMP JUMPDEST CALLER PUSH1 0x0 DUP2 DUP2 MSTORE PUSH1 0x10 DUP5 ADD PUSH1 0x20 MSTORE PUSH1 0x40 SWAP1 DUP2 SWAP1 KECCAK256 DUP1 SLOAD PUSH1 0xFF NOT AND PUSH1 0x1 OR SWAP1 SSTORE MLOAD PUSH4 0xA9059CBB PUSH1 0xE0 SHL DUP2 MSTORE PUSH1 0x4 DUP2 ADD SWAP2 SWAP1 SWAP2 MSTORE PUSH1 0x24 DUP2 ADD DUP3 SWAP1 MSTORE PUSH32 0x0 PUSH1 0x1 PUSH1 0x1 PUSH1 0xA0 SHL SUB AND SWAP1 PUSH4 0xA9059CBB SWAP1 PUSH1 0x44 ADD PUSH1 0x20 PUSH1 0x40 MLOAD DUP1 DUP4 SUB DUP2 PUSH1 0x0 DUP8 GAS CALL ISZERO DUP1 ISZERO PUSH2 0x1366 JUMPI RETURNDATASIZE PUSH1 0x0 DUP1 RETURNDATACOPY RETURNDATASIZE PUSH1 0x0 REVERT JUMPDEST POP POP POP POP PUSH1 0x40 MLOAD RETURNDATASIZE PUSH1 0x1F NOT PUSH1 0x1F DUP3 ADD AND DUP3 ADD DUP1 PUSH1 0x40 MSTORE POP DUP2 ADD SWAP1 PUSH2 0x138A SWAP2 SWAP1 PUSH2 0x2EED JUMP JUMPDEST PUSH2 0x13C6 JUMPI PUSH1 0x40 MLOAD PUSH3 0x461BCD PUSH1 0xE5 SHL DUP2 MSTORE PUSH1 0x20 PUSH1 0x4 DUP3 ADD MSTORE PUSH1 0xD PUSH1 0x24 DUP3 ADD MSTORE PUSH13 0x1499599D5B990819985A5B1959 PUSH1 0x9A SHL PUSH1 0x44 DUP3 ADD MSTORE PUSH1 0x64 ADD PUSH2 0x7E7 JUMP JUMPDEST PUSH1 0x40 MLOAD DUP2 DUP2 MSTORE CALLER SWAP1 DUP5 SWAP1 PUSH32 0x7A482FDEB6BC9A1376F597068A214A7A39472BB2EFF1B8CAD21BA04F49DDCA1B SWAP1 PUSH1 0x20 ADD PUSH1 0x40 MLOAD DUP1 SWAP2 SUB SWAP1 LOG3 POP POP PUSH2 0xE7B PUSH1 0x1 DUP1 SSTORE JUMP JUMPDEST PUSH2 0x1410 PUSH2 0x263E JUMP JUMPDEST PUSH2 0xE8E PUSH1 0x0 PUSH2 0x2789 JUMP JUMPDEST PUSH2 0x1422 PUSH2 0x263E JUMP JUMPDEST PUSH2 0xE8E PUSH2 0x27D9 JUMP JUMPDEST PUSH1 0x9 PUSH1 0x20 MSTORE PUSH1 0x0 SWAP1 DUP2 MSTORE PUSH1 0x40 SWAP1 KECCAK256 DUP1 SLOAD DUP2 SWAP1 PUSH2 0x1445 SWAP1 PUSH2 0x2F23 JUMP JUMPDEST DUP1 PUSH1 0x1F ADD PUSH1 0x20 DUP1 SWAP2 DIV MUL PUSH1 0x20 ADD PUSH1 0x40 MLOAD SWAP1 DUP2 ADD PUSH1 0x40 MSTORE DUP1 SWAP3 SWAP2 SWAP1 DUP2 DUP2 MSTORE PUSH1 0x20 ADD DUP3 DUP1 SLOAD PUSH2 0x1471 SWAP1 PUSH2 0x2F23 JUMP JUMPDEST DUP1 ISZERO PUSH2 0x14BE JUMPI DUP1 PUSH1 0x1F LT PUSH2 0x1493 JUMPI PUSH2 0x100 DUP1 DUP4 SLOAD DIV MUL DUP4 MSTORE SWAP2 PUSH1 0x20 ADD SWAP2 PUSH2 0x14BE JUMP JUMPDEST DUP3 ADD SWAP2 SWAP1 PUSH1 0x0 MSTORE PUSH1 0x20 PUSH1 0x0 KECCAK256 SWAP1 JUMPDEST DUP2 SLOAD DUP2 MSTORE SWAP1 PUSH1 0x1 ADD SWAP1 PUSH1 0x20 ADD DUP1 DUP4 GT PUSH2 0x14A1 JUMPI DUP3 SWAP1 SUB PUSH1 0x1F AND DUP3 ADD SWAP2 JUMPDEST POP POP POP POP POP SWAP1 DUP1 PUSH1 0x1 ADD DUP1 SLOAD PUSH2 0x14D3 SWAP1 PUSH2 0x2F23 JUMP JUMPDEST DUP1 PUSH1 0x1F ADD PUSH1 0x20 DUP1 SWAP2 DIV MUL PUSH1 0x20 ADD PUSH1 0x40 MLOAD SWAP1 DUP2 ADD PUSH1 0x40 MSTORE DUP1 SWAP3 SWAP2 SWAP1 DUP2 DUP2 MSTORE PUSH1 0x20 ADD DUP3 DUP1 SLOAD PUSH2 0x14FF SWAP1 PUSH2 0x2F23 JUMP JUMPDEST DUP1 ISZERO PUSH2 0x154C JUMPI DUP1 PUSH1 0x1F LT PUSH2 0x1521 JUMPI PUSH2 0x100 DUP1 DUP4 SLOAD DIV MUL DUP4 MSTORE SWAP2 PUSH1 0x20 ADD SWAP2 PUSH2 0x154C JUMP JUMPDEST DUP3 ADD SWAP2 SWAP1 PUSH1 0x0 MSTORE PUSH1 0x20 PUSH1 0x0 KECCAK256 SWAP1 JUMPDEST DUP2 SLOAD DUP2 MSTORE SWAP1 PUSH1 0x1 ADD SWAP1 PUSH1 0x20 ADD DUP1 DUP4 GT PUSH2 0x152F JUMPI DUP3 SWAP1 SUB PUSH1 0x1F AND DUP3 ADD SWAP2 JUMPDEST POP POP POP PUSH1 0x2 DUP5 ADD SLOAD PUSH1 0x6 DUP6 ADD SLOAD PUSH1 0x7 DUP7 ADD SLOAD PUSH1 0x8 DUP8 ADD SLOAD PUSH1 0x9 DUP9 ADD SLOAD PUSH1 0xA SWAP1 SWAP9 ADD SLOAD SWAP7 SWAP8 PUSH1 0xFF SWAP5 DUP6 AND SWAP8 SWAP4 SWAP7 POP DUP3 DUP6 AND SWAP6 POP PUSH2 0x100 SWAP1 SWAP3 DIV SWAP1 SWAP4 AND SWAP3 SWAP2 DUP10 JUMP JUMPDEST PUSH1 0x0 DUP2 DUP2 MSTORE PUSH1 0x9 PUSH1 0x20 DUP2 SWAP1 MSTORE PUSH1 0x40 DUP3 KECCAK256 SWAP1 DUP2 ADD SLOAD DUP3 SUB PUSH2 0x15AF JUMPI POP PUSH1 0x0 SWAP3 SWAP2 POP POP JUMP JUMPDEST PUSH1 0x0 DUP1 PUSH1 0x0 JUMPDEST PUSH1 0x3 DUP2 LT ISZERO PUSH2 0x1634 JUMPI PUSH1 0x0 DUP5 PUSH1 0xB ADD DUP3 PUSH1 0x3 DUP2 LT PUSH2 0x15D5 JUMPI PUSH2 0x15D5 PUSH2 0x2E2B JUMP JUMPDEST ADD SLOAD GT ISZERO PUSH2 0x1622 JUMPI DUP2 PUSH2 0x15E7 DUP2 PUSH2 0x2F0A JUMP JUMPDEST SWAP3 POP POP DUP3 DUP5 PUSH1 0xB ADD DUP3 PUSH1 0x3 DUP2 LT PUSH2 0x1600 JUMPI PUSH2 0x1600 PUSH2 0x2E2B JUMP JUMPDEST ADD SLOAD GT ISZERO PUSH2 0x1622 JUMPI DUP4 PUSH1 0xB ADD DUP2 PUSH1 0x3 DUP2 LT PUSH2 0x161D JUMPI PUSH2 0x161D PUSH2 0x2E2B JUMP JUMPDEST ADD SLOAD SWAP3 POP JUMPDEST DUP1 PUSH2 0x162C DUP2 PUSH2 0x2F0A JUMP JUMPDEST SWAP2 POP POP PUSH2 0x15B5 JUMP JUMPDEST POP PUSH1 0x2 DUP2 LT ISZERO DUP1 ISZERO PUSH2 0x1663 JUMPI POP PUSH2 0x2710 DUP4 PUSH1 0x9 ADD SLOAD PUSH2 0x1F40 PUSH2 0x1656 SWAP2 SWAP1 PUSH2 0x2E6A JUMP JUMPDEST PUSH2 0x1660 SWAP2 SWAP1 PUSH2 0x2E81 JUMP JUMPDEST DUP3 LT JUMPDEST SWAP6 SWAP5 POP POP POP POP POP JUMP JUMPDEST PUSH2 0x1674 PUSH2 0x263E JUMP JUMPDEST PUSH1 0x1 PUSH1 0x1 PUSH1 0xA0 SHL SUB DUP3 AND PUSH2 0x16BC JUMPI PUSH1 0x40 MLOAD PUSH3 0x461BCD PUSH1 0xE5 SHL DUP2 MSTORE PUSH1 0x20 PUSH1 0x4 DUP3 ADD MSTORE PUSH1 0xF PUSH1 0x24 DUP3 ADD MSTORE PUSH15 0x496E76616C69642061646472657373 PUSH1 0x88 SHL PUSH1 0x44 DUP3 ADD MSTORE PUSH1 0x64 ADD PUSH2 0x7E7 JUMP JUMPDEST PUSH1 0x7 SLOAD DUP2 GT ISZERO PUSH2 0x170E JUMPI PUSH1 0x40 MLOAD PUSH3 0x461BCD PUSH1 0xE5 SHL DUP2 MSTORE PUSH1 0x20 PUSH1 0x4 DUP3 ADD MSTORE PUSH1 0x1F PUSH1 0x24 DUP3 ADD MSTORE PUSH32 0x416D6F756E74206578636565647320616363756D756C61746564206665657300 PUSH1 0x44 DUP3 ADD MSTORE PUSH1 0x64 ADD PUSH2 0x7E7 JUMP JUMPDEST DUP1 PUSH1 0x7 PUSH1 0x0 DUP3 DUP3 SLOAD PUSH2 0x1720 SWAP2 SWAP1 PUSH2 0x2E57 JUMP JUMPDEST SWAP1 SWAP2 SSTORE POP POP PUSH1 0x40 MLOAD PUSH4 0xA9059CBB PUSH1 0xE0 SHL DUP2 MSTORE PUSH1 0x1 PUSH1 0x1 PUSH1 0xA0 SHL SUB DUP4 DUP2 AND PUSH1 0x4 DUP4 ADD MSTORE PUSH1 0x24 DUP3 ADD DUP4 SWAP1 MSTORE PUSH32 0x0 AND SWAP1 PUSH4 0xA9059CBB SWAP1 PUSH1 0x44 ADD PUSH1 0x20 PUSH1 0x40 MLOAD DUP1 DUP4 SUB DUP2 PUSH1 0x0 DUP8 GAS CALL ISZERO DUP1 ISZERO PUSH2 0x1794 JUMPI RETURNDATASIZE PUSH1 0x0 DUP1 RETURNDATACOPY RETURNDATASIZE PUSH1 0x0 REVERT JUMPDEST POP POP POP POP PUSH1 0x40 MLOAD RETURNDATASIZE PUSH1 0x1F NOT PUSH1 0x1F DUP3 ADD AND DUP3 ADD DUP1 PUSH1 0x40 MSTORE POP DUP2 ADD SWAP1 PUSH2 0x17B8 SWAP2 SWAP1 PUSH2 0x2EED JUMP JUMPDEST PUSH2 0x17FC JUMPI PUSH1 0x40 MLOAD PUSH3 0x461BCD PUSH1 0xE5 SHL DUP2 MSTORE PUSH1 0x20 PUSH1 0x4 DUP3 ADD MSTORE PUSH1 0x15 PUSH1 0x24 DUP3 ADD MSTORE PUSH21 0x119959481DDA5D1A191C985DD85B0819985A5B1959 PUSH1 0x5A SHL PUSH1 0x44 DUP3 ADD MSTORE PUSH1 0x64 ADD PUSH2 0x7E7 JUMP JUMPDEST DUP2 PUSH1 0x1 PUSH1 0x1 PUSH1 0xA0 SHL SUB AND PUSH32 0xC0819C13BE868895EB93E40EACEB96DE976442FA1D404E5C55F14BB65A8C489A DUP3 PUSH1 0x40 MLOAD PUSH2 0x1837 SWAP2 DUP2 MSTORE PUSH1 0x20 ADD SWAP1 JUMP JUMPDEST PUSH1 0x40 MLOAD DUP1 SWAP2 SUB SWAP1 LOG2 POP POP JUMP JUMPDEST PUSH1 0x60 DUP1 PUSH1 0x0 PUSH2 0x1850 PUSH2 0x28A8 JUMP JUMPDEST PUSH1 0x0 DUP6 DUP2 MSTORE PUSH1 0x9 PUSH1 0x20 DUP2 SWAP1 MSTORE PUSH1 0x40 DUP3 KECCAK256 PUSH1 0x2 DUP2 ADD SLOAD SWAP2 DUP2 ADD SLOAD PUSH1 0x6 DUP3 ADD SLOAD PUSH1 0x7 DUP4 ADD SLOAD PUSH1 0x8 DUP5 ADD SLOAD DUP5 SLOAD DUP8 SWAP7 DUP8 SWAP7 DUP8 SWAP7 DUP8 SWAP7 SWAP2 SWAP6 DUP7 SWAP6 PUSH1 0x1 DUP8 ADD SWAP6 PUSH1 0xFF SWAP6 DUP7 AND SWAP6 PUSH1 0x3 DUP10 ADD SWAP6 SWAP4 DUP1 DUP3 AND SWAP4 PUSH2 0x100 SWAP1 SWAP2 DIV SWAP1 SWAP2 AND SWAP2 DUP10 SWAP1 PUSH2 0x18B0 SWAP1 PUSH2 0x2F23 JUMP JUMPDEST DUP1 PUSH1 0x1F ADD PUSH1 0x20 DUP1 SWAP2 DIV MUL PUSH1 0x20 ADD PUSH1 0x40 MLOAD SWAP1 DUP2 ADD PUSH1 0x40 MSTORE DUP1 SWAP3 SWAP2 SWAP1 DUP2 DUP2 MSTORE PUSH1 0x20 ADD DUP3 DUP1 SLOAD PUSH2 0x18DC SWAP1 PUSH2 0x2F23 JUMP JUMPDEST DUP1 ISZERO PUSH2 0x1929 JUMPI DUP1 PUSH1 0x1F LT PUSH2 0x18FE JUMPI PUSH2 0x100 DUP1 DUP4 SLOAD DIV MUL DUP4 MSTORE SWAP2 PUSH1 0x20 ADD SWAP2 PUSH2 0x1929 JUMP JUMPDEST DUP3 ADD SWAP2 SWAP1 PUSH1 0x0 MSTORE PUSH1 0x20 PUSH1 0x0 KECCAK256 SWAP1 JUMPDEST DUP2 SLOAD DUP2 MSTORE SWAP1 PUSH1 0x1 ADD SWAP1 PUSH1 0x20 ADD DUP1 DUP4 GT PUSH2 0x190C JUMPI DUP3 SWAP1 SUB PUSH1 0x1F AND DUP3 ADD SWAP2 JUMPDEST POP POP POP POP POP SWAP9 POP DUP8 DUP1 SLOAD PUSH2 0x193C SWAP1 PUSH2 0x2F23 JUMP JUMPDEST DUP1 PUSH1 0x1F ADD PUSH1 0x20 DUP1 SWAP2 DIV MUL PUSH1 0x20 ADD PUSH1 0x40 MLOAD SWAP1 DUP2 ADD PUSH1 0x40 MSTORE DUP1 SWAP3 SWAP2 SWAP1 DUP2 DUP2 MSTORE PUSH1 0x20 ADD DUP3 DUP1 SLOAD PUSH2 0x1968 SWAP1 PUSH2 0x2F23 JUMP JUMPDEST DUP1 ISZERO PUSH2 0x19B5 JUMPI DUP1 PUSH1 0x1F LT PUSH2 0x198A JUMPI PUSH2 0x100 DUP1 DUP4 SLOAD DIV MUL DUP4 MSTORE SWAP2 PUSH1 0x20 ADD SWAP2 PUSH2 0x19B5 JUMP JUMPDEST DUP3 ADD SWAP2 SWAP1 PUSH1 0x0 MSTORE PUSH1 0x20 PUSH1 0x0 KECCAK256 SWAP1 JUMPDEST DUP2 SLOAD DUP2 MSTORE SWAP1 PUSH1 0x1 ADD SWAP1 PUSH1 0x20 ADD DUP1 DUP4 GT PUSH2 0x1998 JUMPI DUP3 SWAP1 SUB PUSH1 0x1F AND DUP3 ADD SWAP2 JUMPDEST POP POP PUSH1 0x40 DUP1 MLOAD PUSH1 0x60 DUP2 ADD SWAP1 SWAP2 MSTORE SWAP4 SWAP12 POP DUP10 SWAP3 POP PUSH1 0x3 SWAP2 POP PUSH1 0x0 SWAP1 POP DUP4 JUMPDEST DUP3 DUP3 LT ISZERO PUSH2 0x1A75 JUMPI DUP4 DUP3 ADD DUP1 SLOAD PUSH2 0x19E8 SWAP1 PUSH2 0x2F23 JUMP JUMPDEST DUP1 PUSH1 0x1F ADD PUSH1 0x20 DUP1 SWAP2 DIV MUL PUSH1 0x20 ADD PUSH1 0x40 MLOAD SWAP1 DUP2 ADD PUSH1 0x40 MSTORE DUP1 SWAP3 SWAP2 SWAP1 DUP2 DUP2 MSTORE PUSH1 0x20 ADD DUP3 DUP1 SLOAD PUSH2 0x1A14 SWAP1 PUSH2 0x2F23 JUMP JUMPDEST DUP1 ISZERO PUSH2 0x1A61 JUMPI DUP1 PUSH1 0x1F LT PUSH2 0x1A36 JUMPI PUSH2 0x100 DUP1 DUP4 SLOAD DIV MUL DUP4 MSTORE SWAP2 PUSH1 0x20 ADD SWAP2 PUSH2 0x1A61 JUMP JUMPDEST DUP3 ADD SWAP2 SWAP1 PUSH1 0x0 MSTORE PUSH1 0x20 PUSH1 0x0 KECCAK256 SWAP1 JUMPDEST DUP2 SLOAD DUP2 MSTORE SWAP1 PUSH1 0x1 ADD SWAP1 PUSH1 0x20 ADD DUP1 DUP4 GT PUSH2 0x1A44 JUMPI DUP3 SWAP1 SUB PUSH1 0x1F AND DUP3 ADD SWAP2 JUMPDEST POP POP POP POP POP DUP2 MSTORE PUSH1 0x20 ADD SWAP1 PUSH1 0x1 ADD SWAP1 PUSH2 0x19D2 JUMP JUMPDEST POP POP POP POP SWAP6 POP SWAP10 POP SWAP10 POP SWAP10 POP SWAP10 POP SWAP10 POP SWAP10 POP SWAP10 POP SWAP10 POP SWAP10 POP POP SWAP2 SWAP4 SWAP6 SWAP8 SWAP10 SWAP1 SWAP3 SWAP5 SWAP7 SWAP9 POP JUMP JUMPDEST PUSH2 0x1AA3 PUSH2 0x263E JUMP JUMPDEST PUSH1 0x0 DUP2 GT DUP1 ISZERO PUSH2 0x1AB5 JUMPI POP PUSH2 0x3E8 DUP2 GT ISZERO JUMPDEST PUSH2 0x1AF8 JUMPI PUSH1 0x40 MLOAD PUSH3 0x461BCD PUSH1 0xE5 SHL DUP2 MSTORE PUSH1 0x20 PUSH1 0x4 DUP3 ADD MSTORE PUSH1 0x14 PUSH1 0x24 DUP3 ADD MSTORE PUSH20 0x496E76616C696420706F696E74732076616C7565 PUSH1 0x60 SHL PUSH1 0x44 DUP3 ADD MSTORE PUSH1 0x64 ADD PUSH2 0x7E7 JUMP JUMPDEST PUSH1 0x5 SSTORE JUMP JUMPDEST PUSH2 0x1B05 PUSH2 0x263E JUMP JUMPDEST PUSH2 0x3E8 DUP2 GT ISZERO PUSH2 0x1B46 JUMPI PUSH1 0x40 MLOAD PUSH3 0x461BCD PUSH1 0xE5 SHL DUP2 MSTORE PUSH1 0x20 PUSH1 0x4 DUP3 ADD MSTORE PUSH1 0xC PUSH1 0x24 DUP3 ADD MSTORE PUSH12 0x8CCACA40E8DEDE40D0D2CED PUSH1 0xA3 SHL PUSH1 0x44 DUP3 ADD MSTORE PUSH1 0x64 ADD PUSH2 0x7E7 JUMP JUMPDEST PUSH1 0x3 SSTORE JUMP JUMPDEST PUSH2 0x1B53 PUSH2 0x263E JUMP JUMPDEST PUSH1 0x6 SSTORE JUMP JUMPDEST PUSH2 0x1B60 PUSH2 0x263E JUMP JUMPDEST PUSH1 0x1 PUSH1 0x1 PUSH1 0xA0 SHL SUB DUP3 AND PUSH2 0x1BB6 JUMPI PUSH1 0x40 MLOAD PUSH3 0x461BCD PUSH1 0xE5 SHL DUP2 MSTORE PUSH1 0x20 PUSH1 0x4 DUP3 ADD MSTORE PUSH1 0x18 PUSH1 0x24 DUP3 ADD MSTORE PUSH32 0x496E76616C6964207265736F6C76657220616464726573730000000000000000 PUSH1 0x44 DUP3 ADD MSTORE PUSH1 0x64 ADD PUSH2 0x7E7 JUMP JUMPDEST PUSH1 0x1 PUSH1 0x1 PUSH1 0xA0 SHL SUB DUP3 AND PUSH1 0x0 DUP2 DUP2 MSTORE PUSH1 0xB PUSH1 0x20 SWAP1 DUP2 MSTORE PUSH1 0x40 SWAP2 DUP3 SWAP1 KECCAK256 DUP1 SLOAD PUSH1 0xFF NOT AND DUP6 ISZERO ISZERO SWAP1 DUP2 OR SWAP1 SWAP2 SSTORE SWAP2 MLOAD SWAP2 DUP3 MSTORE PUSH32 0x287574CF078FB59442FA4E01830412374E9C38FF02733F8D1E2AFC3F2325EB48 SWAP2 ADD PUSH2 0x1837 JUMP JUMPDEST PUSH2 0x1C16 PUSH2 0x263E JUMP JUMPDEST PUSH1 0x1 PUSH1 0x1 PUSH1 0xA0 SHL SUB DUP3 AND PUSH2 0x1C5E JUMPI PUSH1 0x40 MLOAD PUSH3 0x461BCD PUSH1 0xE5 SHL DUP2 MSTORE PUSH1 0x20 PUSH1 0x4 DUP3 ADD MSTORE PUSH1 0xF PUSH1 0x24 DUP3 ADD MSTORE PUSH15 0x496E76616C69642061646472657373 PUSH1 0x88 SHL PUSH1 0x44 DUP3 ADD MSTORE PUSH1 0x64 ADD PUSH2 0x7E7 JUMP JUMPDEST PUSH1 0x40 MLOAD PUSH4 0xA9059CBB PUSH1 0xE0 SHL DUP2 MSTORE PUSH1 0x1 PUSH1 0x1 PUSH1 0xA0 SHL SUB DUP4 DUP2 AND PUSH1 0x4 DUP4 ADD MSTORE PUSH1 0x24 DUP3 ADD DUP4 SWAP1 MSTORE DUP5 AND SWAP1 PUSH4 0xA9059CBB SWAP1 PUSH1 0x44 ADD PUSH1 0x20 PUSH1 0x40 MLOAD DUP1 DUP4 SUB DUP2 PUSH1 0x0 DUP8 GAS CALL ISZERO DUP1 ISZERO PUSH2 0x1CAD JUMPI RETURNDATASIZE PUSH1 0x0 DUP1 RETURNDATACOPY RETURNDATASIZE PUSH1 0x0 REVERT JUMPDEST POP POP POP POP PUSH1 0x40 MLOAD RETURNDATASIZE PUSH1 0x1F NOT PUSH1 0x1F DUP3 ADD AND DUP3 ADD DUP1 PUSH1 0x40 MSTORE POP DUP2 ADD SWAP1 PUSH2 0x1CD1 SWAP2 SWAP1 PUSH2 0x2EED JUMP JUMPDEST POP POP POP POP JUMP JUMPDEST PUSH2 0x1CDF PUSH2 0x2698 JUMP JUMPDEST PUSH2 0x1CE7 PUSH2 0x2743 JUMP JUMPDEST PUSH1 0x0 DUP4 DUP2 MSTORE PUSH1 0x9 PUSH1 0x20 MSTORE PUSH1 0x40 SWAP1 KECCAK256 PUSH1 0x4 SLOAD DUP5 LT PUSH2 0x1D3C JUMPI PUSH1 0x40 MLOAD PUSH3 0x461BCD PUSH1 0xE5 SHL DUP2 MSTORE PUSH1 0x20 PUSH1 0x4 DUP3 ADD MSTORE PUSH1 0x13 PUSH1 0x24 DUP3 ADD MSTORE PUSH19 0x111D595B08191BD95CC81B9BDD08195E1A5CDD PUSH1 0x6A SHL PUSH1 0x44 DUP3 ADD MSTORE PUSH1 0x64 ADD PUSH2 0x7E7 JUMP JUMPDEST PUSH1 0x7 DUP2 ADD SLOAD PUSH1 0xFF AND ISZERO DUP1 ISZERO PUSH2 0x1D5B JUMPI POP PUSH1 0x7 DUP2 ADD SLOAD PUSH2 0x100 SWAP1 DIV PUSH1 0xFF AND ISZERO JUMPDEST PUSH2 0x1D77 JUMPI PUSH1 0x40 MLOAD PUSH3 0x461BCD PUSH1 0xE5 SHL DUP2 MSTORE PUSH1 0x4 ADD PUSH2 0x7E7 SWAP1 PUSH2 0x2EA3 JUMP JUMPDEST DUP1 PUSH1 0x6 ADD SLOAD TIMESTAMP LT PUSH2 0x1DCA JUMPI PUSH1 0x40 MLOAD PUSH3 0x461BCD PUSH1 0xE5 SHL DUP2 MSTORE PUSH1 0x20 PUSH1 0x4 DUP3 ADD MSTORE PUSH1 0x1B PUSH1 0x24 DUP3 ADD MSTORE PUSH32 0x42657474696E6720646561646C696E6520686173207061737365640000000000 PUSH1 0x44 DUP3 ADD MSTORE PUSH1 0x64 ADD PUSH2 0x7E7 JUMP JUMPDEST PUSH1 0x3 DUP4 LT PUSH2 0x1E0F JUMPI PUSH1 0x40 MLOAD PUSH3 0x461BCD PUSH1 0xE5 SHL DUP2 MSTORE PUSH1 0x20 PUSH1 0x4 DUP3 ADD MSTORE PUSH1 0x12 PUSH1 0x24 DUP3 ADD MSTORE PUSH18 0x125B9D985B1A59081BDD5D18DBDB59481251 PUSH1 0x72 SHL PUSH1 0x44 DUP3 ADD MSTORE PUSH1 0x64 ADD PUSH2 0x7E7 JUMP JUMPDEST PUSH1 0x0 DUP3 GT PUSH2 0x1E5F JUMPI PUSH1 0x40 MLOAD PUSH3 0x461BCD PUSH1 0xE5 SHL DUP2 MSTORE PUSH1 0x20 PUSH1 0x4 DUP3 ADD MSTORE PUSH1 0x17 PUSH1 0x24 DUP3 ADD MSTORE PUSH32 0x416D6F756E74206D75737420626520706F736974697665000000000000000000 PUSH1 0x44 DUP3 ADD MSTORE PUSH1 0x64 ADD PUSH2 0x7E7 JUMP JUMPDEST PUSH1 0x0 PUSH2 0x1E8C PUSH32 0x0 PUSH1 0xA PUSH2 0x31A3 JUMP JUMPDEST PUSH2 0x1E97 SWAP1 PUSH1 0x1 PUSH2 0x2E6A JUMP JUMPDEST SWAP1 POP PUSH1 0x0 PUSH2 0x1EC6 PUSH32 0x0 PUSH1 0xA PUSH2 0x31A3 JUMP JUMPDEST PUSH2 0x1ED2 SWAP1 PUSH2 0x3E8 PUSH2 0x2E6A JUMP JUMPDEST SWAP1 POP DUP2 DUP5 LT ISZERO DUP1 ISZERO PUSH2 0x1EE4 JUMPI POP DUP1 DUP5 GT ISZERO JUMPDEST PUSH2 0x1F27 JUMPI PUSH1 0x40 MLOAD PUSH3 0x461BCD PUSH1 0xE5 SHL DUP2 MSTORE PUSH1 0x20 PUSH1 0x4 DUP3 ADD MSTORE PUSH1 0x14 PUSH1 0x24 DUP3 ADD MSTORE PUSH20 0x416D6F756E74206F7574206F6620626F756E6473 PUSH1 0x60 SHL PUSH1 0x44 DUP3 ADD MSTORE PUSH1 0x64 ADD PUSH2 0x7E7 JUMP JUMPDEST PUSH1 0x40 MLOAD PUSH4 0x23B872DD PUSH1 0xE0 SHL DUP2 MSTORE CALLER PUSH1 0x4 DUP3 ADD MSTORE ADDRESS PUSH1 0x24 DUP3 ADD MSTORE PUSH1 0x44 DUP2 ADD DUP6 SWAP1 MSTORE PUSH32 0x0 PUSH1 0x1 PUSH1 0x1 PUSH1 0xA0 SHL SUB AND SWAP1 PUSH4 0x23B872DD SWAP1 PUSH1 0x64 ADD PUSH1 0x20 PUSH1 0x40 MLOAD DUP1 DUP4 SUB DUP2 PUSH1 0x0 DUP8 GAS CALL ISZERO DUP1 ISZERO PUSH2 0x1F9A JUMPI RETURNDATASIZE PUSH1 0x0 DUP1 RETURNDATACOPY RETURNDATASIZE PUSH1 0x0 REVERT JUMPDEST POP POP POP POP PUSH1 0x40 MLOAD RETURNDATASIZE PUSH1 0x1F NOT PUSH1 0x1F DUP3 ADD AND DUP3 ADD DUP1 PUSH1 0x40 MSTORE POP DUP2 ADD SWAP1 PUSH2 0x1FBE SWAP2 SWAP1 PUSH2 0x2EED JUMP JUMPDEST PUSH2 0x2002 JUMPI PUSH1 0x40 MLOAD PUSH3 0x461BCD PUSH1 0xE5 SHL DUP2 MSTORE PUSH1 0x20 PUSH1 0x4 DUP3 ADD MSTORE PUSH1 0x15 PUSH1 0x24 DUP3 ADD MSTORE PUSH21 0x151BDAD95B881D1C985B9CD9995C8819985A5B1959 PUSH1 0x5A SHL PUSH1 0x44 DUP3 ADD MSTORE PUSH1 0x64 ADD PUSH2 0x7E7 JUMP JUMPDEST PUSH1 0x0 DUP7 DUP2 MSTORE PUSH1 0xA PUSH1 0x20 SWAP1 DUP2 MSTORE PUSH1 0x40 DUP1 DUP4 KECCAK256 CALLER DUP5 MSTORE SWAP1 SWAP2 MSTORE DUP2 KECCAK256 SLOAD SWAP1 SUB PUSH2 0x20C5 JUMPI PUSH1 0x40 MLOAD PUSH4 0x70A08231 PUSH1 0xE0 SHL DUP2 MSTORE CALLER PUSH1 0x4 DUP3 ADD MSTORE PUSH32 0x0 PUSH1 0x1 PUSH1 0x1 PUSH1 0xA0 SHL SUB AND SWAP1 PUSH4 0x70A08231 SWAP1 PUSH1 0x24 ADD PUSH1 0x20 PUSH1 0x40 MLOAD DUP1 DUP4 SUB DUP2 DUP7 GAS STATICCALL ISZERO DUP1 ISZERO PUSH2 0x2086 JUMPI RETURNDATASIZE PUSH1 0x0 DUP1 RETURNDATACOPY RETURNDATASIZE PUSH1 0x0 REVERT JUMPDEST POP POP POP POP PUSH1 0x40 MLOAD RETURNDATASIZE PUSH1 0x1F NOT PUSH1 0x1F DUP3 ADD AND DUP3 ADD DUP1 PUSH1 0x40 MSTORE POP DUP2 ADD SWAP1 PUSH2 0x20AA SWAP2 SWAP1 PUSH2 0x31B2 JUMP JUMPDEST PUSH1 0x0 DUP8 DUP2 MSTORE PUSH1 0xA PUSH1 0x20 SWAP1 DUP2 MSTORE PUSH1 0x40 DUP1 DUP4 KECCAK256 CALLER DUP5 MSTORE SWAP1 SWAP2 MSTORE SWAP1 KECCAK256 SSTORE JUMPDEST DUP4 DUP4 PUSH1 0x9 ADD PUSH1 0x0 DUP3 DUP3 SLOAD PUSH2 0x20D9 SWAP2 SWAP1 PUSH2 0x2EDA JUMP JUMPDEST SWAP1 SWAP2 SSTORE POP DUP5 SWAP1 POP PUSH1 0xB DUP5 ADD DUP7 PUSH1 0x3 DUP2 LT PUSH2 0x20F5 JUMPI PUSH2 0x20F5 PUSH2 0x2E2B JUMP JUMPDEST ADD PUSH1 0x0 DUP3 DUP3 SLOAD PUSH2 0x2105 SWAP2 SWAP1 PUSH2 0x2EDA JUMP JUMPDEST SWAP1 SWAP2 SSTORE POP POP CALLER PUSH1 0x0 SWAP1 DUP2 MSTORE PUSH1 0xE DUP5 ADD PUSH1 0x20 MSTORE PUSH1 0x40 SWAP1 KECCAK256 DUP5 SWAP1 DUP7 PUSH1 0x3 DUP2 LT PUSH2 0x212E JUMPI PUSH2 0x212E PUSH2 0x2E2B JUMP JUMPDEST ADD PUSH1 0x0 DUP3 DUP3 SLOAD PUSH2 0x213E SWAP2 SWAP1 PUSH2 0x2EDA JUMP JUMPDEST SWAP1 SWAP2 SSTORE POP PUSH1 0x0 SWAP1 POP PUSH2 0x2171 PUSH32 0x0 PUSH1 0xA PUSH2 0x31A3 JUMP JUMPDEST PUSH1 0x5 SLOAD PUSH2 0x217E SWAP1 DUP8 PUSH2 0x2E6A JUMP JUMPDEST PUSH2 0x2188 SWAP2 SWAP1 PUSH2 0x2E81 JUMP JUMPDEST PUSH1 0x40 MLOAD PUSH4 0x70A08231 PUSH1 0xE0 SHL DUP2 MSTORE CALLER PUSH1 0x4 DUP3 ADD MSTORE SWAP1 SWAP2 POP PUSH1 0x0 SWAP1 PUSH1 0x1 PUSH1 0x1 PUSH1 0xA0 SHL SUB PUSH32 0x0 AND SWAP1 PUSH4 0x70A08231 SWAP1 PUSH1 0x24 ADD PUSH1 0x20 PUSH1 0x40 MLOAD DUP1 DUP4 SUB DUP2 DUP7 GAS STATICCALL ISZERO DUP1 ISZERO PUSH2 0x21F2 JUMPI RETURNDATASIZE PUSH1 0x0 DUP1 RETURNDATACOPY RETURNDATASIZE PUSH1 0x0 REVERT JUMPDEST POP POP POP POP PUSH1 0x40 MLOAD RETURNDATASIZE PUSH1 0x1F NOT PUSH1 0x1F DUP3 ADD AND DUP3 ADD DUP1 PUSH1 0x40 MSTORE POP DUP2 ADD SWAP1 PUSH2 0x2216 SWAP2 SWAP1 PUSH2 0x31B2 JUMP JUMPDEST PUSH1 0x40 DUP1 MLOAD DUP10 DUP2 MSTORE PUSH1 0x20 DUP2 ADD DUP10 SWAP1 MSTORE SWAP1 DUP2 ADD DUP3 SWAP1 MSTORE SWAP1 SWAP2 POP CALLER SWAP1 DUP10 SWAP1 PUSH32 0xAB2115BAC1DE808EB7FE2BE0309085B11F1F42B1EB980DE8352EFEFDBFC098E2 SWAP1 PUSH1 0x60 ADD PUSH1 0x40 MLOAD DUP1 SWAP2 SUB SWAP1 LOG3 PUSH1 0x40 DUP1 MLOAD DUP10 DUP2 MSTORE PUSH1 0x20 DUP2 ADD DUP5 SWAP1 MSTORE CALLER SWAP2 PUSH32 0x4B97A5E5E9B332836EEA24E70B760C1FFCE3041C0EB15309837D180F8BFFF26A SWAP2 ADD PUSH1 0x40 MLOAD DUP1 SWAP2 SUB SWAP1 LOG2 PUSH1 0x2 DUP6 ADD SLOAD PUSH1 0xFF AND ISZERO PUSH2 0x22DC JUMPI PUSH1 0x40 MLOAD DUP9 DUP2 MSTORE CALLER SWAP1 PUSH32 0xC7CEF681EE4E9B064E67DCB5D564E1378AE41C9E65DA8E232B1F5CD866225325 SWAP1 PUSH1 0x20 ADD PUSH1 0x40 MLOAD DUP1 SWAP2 SUB SWAP1 LOG2 JUMPDEST POP POP POP POP POP PUSH2 0x22EA PUSH1 0x1 DUP1 SSTORE JUMP JUMPDEST POP POP POP JUMP JUMPDEST CALLER PUSH1 0x0 SWAP1 DUP2 MSTORE PUSH1 0xB PUSH1 0x20 MSTORE PUSH1 0x40 SWAP1 KECCAK256 SLOAD PUSH1 0xFF AND DUP1 PUSH2 0x2317 JUMPI POP PUSH1 0x0 SLOAD PUSH1 0x1 PUSH1 0x1 PUSH1 0xA0 SHL SUB AND CALLER EQ JUMPDEST PUSH2 0x235F JUMPI PUSH1 0x40 MLOAD PUSH3 0x461BCD PUSH1 0xE5 SHL DUP2 MSTORE PUSH1 0x20 PUSH1 0x4 DUP3 ADD MSTORE PUSH1 0x19 PUSH1 0x24 DUP3 ADD MSTORE PUSH25 0x4E6F7420617574686F72697A656420746F207265736F6C7665 PUSH1 0x38 SHL PUSH1 0x44 DUP3 ADD MSTORE PUSH1 0x64 ADD PUSH2 0x7E7 JUMP JUMPDEST PUSH1 0x0 DUP3 DUP2 MSTORE PUSH1 0x9 PUSH1 0x20 MSTORE PUSH1 0x40 SWAP1 KECCAK256 PUSH1 0x7 DUP2 ADD SLOAD PUSH1 0xFF AND ISZERO DUP1 ISZERO PUSH2 0x238C JUMPI POP PUSH1 0x7 DUP2 ADD SLOAD PUSH2 0x100 SWAP1 DIV PUSH1 0xFF AND ISZERO JUMPDEST PUSH2 0x23A8 JUMPI PUSH1 0x40 MLOAD PUSH3 0x461BCD PUSH1 0xE5 SHL DUP2 MSTORE PUSH1 0x4 ADD PUSH2 0x7E7 SWAP1 PUSH2 0x2EA3 JUMP JUMPDEST PUSH1 0x3 DUP3 LT PUSH2 0x23F8 JUMPI PUSH1 0x40 MLOAD PUSH3 0x461BCD PUSH1 0xE5 SHL DUP2 MSTORE PUSH1 0x20 PUSH1 0x4 DUP3 ADD MSTORE PUSH1 0x17 PUSH1 0x24 DUP3 ADD MSTORE PUSH32 0x496E76616C69642077696E6E696E67206F7574636F6D65000000000000000000 PUSH1 0x44 DUP3 ADD MSTORE PUSH1 0x64 ADD PUSH2 0x7E7 JUMP JUMPDEST DUP1 PUSH1 0x6 ADD SLOAD TIMESTAMP LT ISZERO PUSH2 0x2443 JUMPI PUSH1 0x40 MLOAD PUSH3 0x461BCD PUSH1 0xE5 SHL DUP2 MSTORE PUSH1 0x20 PUSH1 0x4 DUP3 ADD MSTORE PUSH1 0x14 PUSH1 0x24 DUP3 ADD MSTORE PUSH20 0x111958591B1A5B99481B9BDD081C995858DA1959 PUSH1 0x62 SHL PUSH1 0x44 DUP3 ADD MSTORE PUSH1 0x64 ADD PUSH2 0x7E7 JUMP JUMPDEST PUSH1 0x0 DUP2 PUSH1 0xB ADD DUP4 PUSH1 0x3 DUP2 LT PUSH2 0x245A JUMPI PUSH2 0x245A PUSH2 0x2E2B JUMP JUMPDEST ADD SLOAD GT PUSH2 0x24A9 JUMPI PUSH1 0x40 MLOAD PUSH3 0x461BCD PUSH1 0xE5 SHL DUP2 MSTORE PUSH1 0x20 PUSH1 0x4 DUP3 ADD MSTORE PUSH1 0x1A PUSH1 0x24 DUP3 ADD MSTORE PUSH32 0x4E6F2062657473206F6E2077696E6E696E67206F7574636F6D65000000000000 PUSH1 0x44 DUP3 ADD MSTORE PUSH1 0x64 ADD PUSH2 0x7E7 JUMP JUMPDEST PUSH2 0x24B2 DUP4 PUSH2 0x158C JUMP JUMPDEST PUSH2 0x24F5 JUMPI PUSH1 0x40 MLOAD PUSH3 0x461BCD PUSH1 0xE5 SHL DUP2 MSTORE PUSH1 0x20 PUSH1 0x4 DUP3 ADD MSTORE PUSH1 0x14 PUSH1 0x24 DUP3 ADD MSTORE PUSH20 0x111D595B081A5CC81B9BDD0818985B185B98D959 PUSH1 0x62 SHL PUSH1 0x44 DUP3 ADD MSTORE PUSH1 0x64 ADD PUSH2 0x7E7 JUMP JUMPDEST PUSH1 0x40 DUP1 MLOAD PUSH1 0x20 DUP1 DUP3 ADD DUP7 SWAP1 MSTORE DUP2 DUP4 ADD DUP6 SWAP1 MSTORE DUP3 MLOAD DUP1 DUP4 SUB DUP5 ADD DUP2 MSTORE PUSH1 0x60 SWAP1 SWAP3 ADD SWAP1 SWAP3 MSTORE DUP1 MLOAD SWAP2 ADD KECCAK256 PUSH1 0x0 PUSH2 0x252C PUSH3 0x15180 TIMESTAMP PUSH2 0x2EDA JUMP JUMPDEST PUSH1 0x0 DUP4 DUP2 MSTORE PUSH1 0x8 PUSH1 0x20 SWAP1 DUP2 MSTORE PUSH1 0x40 SWAP2 DUP3 SWAP1 KECCAK256 DUP4 SWAP1 SSTORE DUP2 MLOAD DUP8 DUP2 MSTORE SWAP1 DUP2 ADD DUP4 SWAP1 MSTORE SWAP2 SWAP3 POP DUP7 SWAP2 PUSH32 0xCC684BA03C326954C633140F1FC4EAD5ADB1243A9675FEF4BBE39F56E8463158 SWAP2 ADD PUSH2 0x9A4 JUMP JUMPDEST PUSH2 0x2581 PUSH2 0x263E JUMP JUMPDEST PUSH1 0x1 PUSH1 0x1 PUSH1 0xA0 SHL SUB DUP2 AND PUSH2 0x25D7 JUMPI PUSH1 0x40 MLOAD PUSH3 0x461BCD PUSH1 0xE5 SHL DUP2 MSTORE PUSH1 0x20 PUSH1 0x4 DUP3 ADD MSTORE PUSH1 0x1D PUSH1 0x24 DUP3 ADD MSTORE PUSH32 0x4E6577206F776E657220697320746865207A65726F2061646472657373000000 PUSH1 0x44 DUP3 ADD MSTORE PUSH1 0x64 ADD PUSH2 0x7E7 JUMP JUMPDEST PUSH2 0xE7B DUP2 PUSH2 0x2789 JUMP JUMPDEST PUSH2 0x25E8 PUSH2 0x28CF JUMP JUMPDEST POP PUSH1 0x40 DUP1 MLOAD PUSH1 0x60 DUP2 ADD DUP3 MSTORE PUSH1 0x0 SWAP4 DUP5 MSTORE PUSH1 0x9 PUSH1 0x20 SWAP1 DUP2 MSTORE DUP3 DUP6 KECCAK256 PUSH1 0x1 PUSH1 0x1 PUSH1 0xA0 SHL SUB SWAP5 SWAP1 SWAP5 AND DUP1 DUP7 MSTORE PUSH1 0xE SWAP1 SWAP5 ADD DUP1 DUP3 MSTORE DUP4 DUP7 KECCAK256 DUP1 SLOAD DUP5 MSTORE PUSH1 0x1 DUP2 ADD SLOAD DUP4 DUP6 ADD MSTORE SWAP5 SWAP1 SWAP6 MSTORE SWAP4 SWAP1 SWAP4 MSTORE PUSH1 0x2 SWAP1 SWAP2 ADD SLOAD SWAP1 DUP3 ADD MSTORE SWAP1 JUMP JUMPDEST PUSH1 0x0 SLOAD PUSH1 0x1 PUSH1 0x1 PUSH1 0xA0 SHL SUB AND CALLER EQ PUSH2 0xE8E JUMPI PUSH1 0x40 MLOAD PUSH3 0x461BCD PUSH1 0xE5 SHL DUP2 MSTORE PUSH1 0x20 PUSH1 0x4 DUP3 ADD DUP2 SWAP1 MSTORE PUSH1 0x24 DUP3 ADD MSTORE PUSH32 0x4F776E61626C653A2063616C6C6572206973206E6F7420746865206F776E6572 PUSH1 0x44 DUP3 ADD MSTORE PUSH1 0x64 ADD PUSH2 0x7E7 JUMP JUMPDEST PUSH1 0x2 PUSH1 0x1 SLOAD SUB PUSH2 0x26EA JUMPI PUSH1 0x40 MLOAD PUSH3 0x461BCD PUSH1 0xE5 SHL DUP2 MSTORE PUSH1 0x20 PUSH1 0x4 DUP3 ADD MSTORE PUSH1 0x1F PUSH1 0x24 DUP3 ADD MSTORE PUSH32 0x5265656E7472616E637947756172643A207265656E7472616E742063616C6C00 PUSH1 0x44 DUP3 ADD MSTORE PUSH1 0x64 ADD PUSH2 0x7E7 JUMP JUMPDEST PUSH1 0x2 PUSH1 0x1 SSTORE JUMP JUMPDEST PUSH2 0x26F9 PUSH2 0x2816 JUMP JUMPDEST PUSH1 0x2 DUP1 SLOAD PUSH1 0xFF NOT AND SWAP1 SSTORE PUSH32 0x5DB9EE0A495BF2E6FF9C91A7834C1BA4FDD244A5E8AA4E537BD38AEAE4B073AA CALLER JUMPDEST PUSH1 0x40 MLOAD PUSH1 0x1 PUSH1 0x1 PUSH1 0xA0 SHL SUB SWAP1 SWAP2 AND DUP2 MSTORE PUSH1 0x20 ADD PUSH1 0x40 MLOAD DUP1 SWAP2 SUB SWAP1 LOG1 JUMP JUMPDEST PUSH1 0x2 SLOAD PUSH1 0xFF AND ISZERO PUSH2 0xE8E JUMPI PUSH1 0x40 MLOAD PUSH3 0x461BCD PUSH1 0xE5 SHL DUP2 MSTORE PUSH1 0x20 PUSH1 0x4 DUP3 ADD MSTORE PUSH1 0x10 PUSH1 0x24 DUP3 ADD MSTORE PUSH16 0x14185D5CD8589B194E881C185D5CD959 PUSH1 0x82 SHL PUSH1 0x44 DUP3 ADD MSTORE PUSH1 0x64 ADD PUSH2 0x7E7 JUMP JUMPDEST PUSH1 0x0 DUP1 SLOAD PUSH1 0x1 PUSH1 0x1 PUSH1 0xA0 SHL SUB DUP4 DUP2 AND PUSH1 0x1 PUSH1 0x1 PUSH1 0xA0 SHL SUB NOT DUP4 AND DUP2 OR DUP5 SSTORE PUSH1 0x40 MLOAD SWAP2 SWAP1 SWAP3 AND SWAP3 DUP4 SWAP2 PUSH32 0x8BE0079C531659141344CD1FD0A4F28419497F9722A3DAAFE3B4186F6B6457E0 SWAP2 SWAP1 LOG3 POP POP JUMP JUMPDEST PUSH2 0x27E1 PUSH2 0x2743 JUMP JUMPDEST PUSH1 0x2 DUP1 SLOAD PUSH1 0xFF NOT AND PUSH1 0x1 OR SWAP1 SSTORE PUSH32 0x62E78CEA01BEE320CD4E420270B5EA74000D11B0C9F74754EBDBFC544B05A258 PUSH2 0x2726 CALLER SWAP1 JUMP JUMPDEST PUSH1 0x2 SLOAD PUSH1 0xFF AND PUSH2 0xE8E JUMPI PUSH1 0x40 MLOAD PUSH3 0x461BCD PUSH1 0xE5 SHL DUP2 MSTORE PUSH1 0x20 PUSH1 0x4 DUP3 ADD MSTORE PUSH1 0x14 PUSH1 0x24 DUP3 ADD MSTORE PUSH20 0x14185D5CD8589B194E881B9BDD081C185D5CD959 PUSH1 0x62 SHL PUSH1 0x44 DUP3 ADD MSTORE PUSH1 0x64 ADD PUSH2 0x7E7 JUMP JUMPDEST DUP3 PUSH1 0x3 DUP2 ADD SWAP3 DUP3 ISZERO PUSH2 0x2898 JUMPI SWAP2 PUSH1 0x20 MUL DUP3 ADD JUMPDEST DUP3 DUP2 GT ISZERO PUSH2 0x2898 JUMPI DUP3 MLOAD DUP3 SWAP1 PUSH2 0x2888 SWAP1 DUP3 PUSH2 0x2FAB JUMP JUMPDEST POP SWAP2 PUSH1 0x20 ADD SWAP2 SWAP1 PUSH1 0x1 ADD SWAP1 PUSH2 0x2872 JUMP JUMPDEST POP PUSH2 0x28A4 SWAP3 SWAP2 POP PUSH2 0x28ED JUMP JUMPDEST POP SWAP1 JUMP JUMPDEST PUSH1 0x40 MLOAD DUP1 PUSH1 0x60 ADD PUSH1 0x40 MSTORE DUP1 PUSH1 0x3 SWAP1 JUMPDEST PUSH1 0x60 DUP2 MSTORE PUSH1 0x20 ADD SWAP1 PUSH1 0x1 SWAP1 SUB SWAP1 DUP2 PUSH2 0x28B7 JUMPI SWAP1 POP POP SWAP1 JUMP JUMPDEST PUSH1 0x40 MLOAD DUP1 PUSH1 0x60 ADD PUSH1 0x40 MSTORE DUP1 PUSH1 0x3 SWAP1 PUSH1 0x20 DUP3 MUL DUP1 CALLDATASIZE DUP4 CALLDATACOPY POP SWAP2 SWAP3 SWAP2 POP POP JUMP JUMPDEST DUP1 DUP3 GT ISZERO PUSH2 0x28A4 JUMPI PUSH1 0x0 PUSH2 0x2901 DUP3 DUP3 PUSH2 0x290A JUMP JUMPDEST POP PUSH1 0x1 ADD PUSH2 0x28ED JUMP JUMPDEST POP DUP1 SLOAD PUSH2 0x2916 SWAP1 PUSH2 0x2F23 JUMP JUMPDEST PUSH1 0x0 DUP3 SSTORE DUP1 PUSH1 0x1F LT PUSH2 0x2926 JUMPI POP POP JUMP JUMPDEST PUSH1 0x1F ADD PUSH1 0x20 SWAP1 DIV SWAP1 PUSH1 0x0 MSTORE PUSH1 0x20 PUSH1 0x0 KECCAK256 SWAP1 DUP2 ADD SWAP1 PUSH2 0xE7B SWAP2 SWAP1 JUMPDEST DUP1 DUP3 GT ISZERO PUSH2 0x28A4 JUMPI PUSH1 0x0 DUP2 SSTORE PUSH1 0x1 ADD PUSH2 0x2940 JUMP JUMPDEST DUP1 CALLDATALOAD PUSH1 0x1 PUSH1 0x1 PUSH1 0xA0 SHL SUB DUP2 AND DUP2 EQ PUSH2 0x296B JUMPI PUSH1 0x0 DUP1 REVERT JUMPDEST SWAP2 SWAP1 POP JUMP JUMPDEST PUSH1 0x0 DUP1 PUSH1 0x40 DUP4 DUP6 SUB SLT ISZERO PUSH2 0x2983 JUMPI PUSH1 0x0 DUP1 REVERT JUMPDEST DUP3 CALLDATALOAD SWAP2 POP PUSH2 0x2993 PUSH1 0x20 DUP5 ADD PUSH2 0x2954 JUMP JUMPDEST SWAP1 POP SWAP3 POP SWAP3 SWAP1 POP JUMP JUMPDEST PUSH1 0x0 DUP1 PUSH1 0x40 DUP4 DUP6 SUB SLT ISZERO PUSH2 0x29AF JUMPI PUSH1 0x0 DUP1 REVERT JUMPDEST POP POP DUP1 CALLDATALOAD SWAP3 PUSH1 0x20 SWAP1 SWAP2 ADD CALLDATALOAD SWAP2 POP JUMP JUMPDEST PUSH1 0x0 PUSH1 0x20 DUP3 DUP5 SUB SLT ISZERO PUSH2 0x29D0 JUMPI PUSH1 0x0 DUP1 REVERT JUMPDEST POP CALLDATALOAD SWAP2 SWAP1 POP JUMP JUMPDEST PUSH4 0x4E487B71 PUSH1 0xE0 SHL PUSH1 0x0 MSTORE PUSH1 0x41 PUSH1 0x4 MSTORE PUSH1 0x24 PUSH1 0x0 REVERT JUMPDEST PUSH1 0x40 MLOAD PUSH1 0x60 DUP2 ADD PUSH8 0xFFFFFFFFFFFFFFFF DUP2 GT DUP3 DUP3 LT OR ISZERO PUSH2 0x2A10 JUMPI PUSH2 0x2A10 PUSH2 0x29D7 JUMP JUMPDEST PUSH1 0x40 MSTORE SWAP1 JUMP JUMPDEST PUSH1 0x0 DUP3 PUSH1 0x1F DUP4 ADD SLT PUSH2 0x2A27 JUMPI PUSH1 0x0 DUP1 REVERT JUMPDEST DUP2 CALLDATALOAD PUSH8 0xFFFFFFFFFFFFFFFF DUP1 DUP3 GT ISZERO PUSH2 0x2A42 JUMPI PUSH2 0x2A42 PUSH2 0x29D7 JUMP JUMPDEST PUSH1 0x40 MLOAD PUSH1 0x1F DUP4 ADD PUSH1 0x1F NOT SWAP1 DUP2 AND PUSH1 0x3F ADD AND DUP2 ADD SWAP1 DUP3 DUP3 GT DUP2 DUP4 LT OR ISZERO PUSH2 0x2A6A JUMPI PUSH2 0x2A6A PUSH2 0x29D7 JUMP JUMPDEST DUP2 PUSH1 0x40 MSTORE DUP4 DUP2 MSTORE DUP7 PUSH1 0x20 DUP6 DUP9 ADD ADD GT ISZERO PUSH2 0x2A83 JUMPI PUSH1 0x0 DUP1 REVERT JUMPDEST DUP4 PUSH1 0x20 DUP8 ADD PUSH1 0x20 DUP4 ADD CALLDATACOPY PUSH1 0x0 PUSH1 0x20 DUP6 DUP4 ADD ADD MSTORE DUP1 SWAP5 POP POP POP POP POP SWAP3 SWAP2 POP POP JUMP JUMPDEST DUP1 ISZERO ISZERO DUP2 EQ PUSH2 0xE7B JUMPI PUSH1 0x0 DUP1 REVERT JUMPDEST PUSH1 0x0 DUP1 PUSH1 0x0 DUP1 PUSH1 0x0 PUSH1 0xA0 DUP7 DUP9 SUB SLT ISZERO PUSH2 0x2AC9 JUMPI PUSH1 0x0 DUP1 REVERT JUMPDEST DUP6 CALLDATALOAD PUSH8 0xFFFFFFFFFFFFFFFF DUP1 DUP3 GT ISZERO PUSH2 0x2AE1 JUMPI PUSH1 0x0 DUP1 REVERT JUMPDEST PUSH2 0x2AED DUP10 DUP4 DUP11 ADD PUSH2 0x2A16 JUMP JUMPDEST SWAP7 POP PUSH1 0x20 SWAP2 POP DUP2 DUP9 ADD CALLDATALOAD DUP2 DUP2 GT ISZERO PUSH2 0x2B04 JUMPI PUSH1 0x0 DUP1 REVERT JUMPDEST PUSH2 0x2B10 DUP11 DUP3 DUP12 ADD PUSH2 0x2A16 JUMP JUMPDEST SWAP7 POP POP PUSH1 0x40 DUP9 ADD CALLDATALOAD PUSH2 0x2B21 DUP2 PUSH2 0x2AA3 JUMP JUMPDEST SWAP5 POP PUSH1 0x60 DUP9 ADD CALLDATALOAD DUP2 DUP2 GT ISZERO PUSH2 0x2B35 JUMPI PUSH1 0x0 DUP1 REVERT JUMPDEST DUP9 ADD PUSH1 0x1F DUP2 ADD DUP11 SGT PUSH2 0x2B46 JUMPI PUSH1 0x0 DUP1 REVERT JUMPDEST PUSH2 0x2B4E PUSH2 0x29ED JUMP JUMPDEST DUP1 PUSH1 0x60 DUP4 ADD DUP13 DUP2 GT ISZERO PUSH2 0x2B60 JUMPI PUSH1 0x0 DUP1 REVERT JUMPDEST DUP4 JUMPDEST DUP2 DUP2 LT ISZERO PUSH2 0x2B94 JUMPI DUP1 CALLDATALOAD DUP7 DUP2 GT ISZERO PUSH2 0x2B7A JUMPI PUSH1 0x0 DUP1 DUP2 REVERT JUMPDEST PUSH2 0x2B86 DUP16 DUP3 DUP9 ADD PUSH2 0x2A16 JUMP JUMPDEST DUP6 MSTORE POP SWAP3 DUP7 ADD SWAP3 DUP7 ADD PUSH2 0x2B62 JUMP JUMPDEST POP POP DUP1 SWAP7 POP POP POP POP POP POP PUSH1 0x80 DUP7 ADD CALLDATALOAD SWAP1 POP SWAP3 SWAP6 POP SWAP3 SWAP6 SWAP1 SWAP4 POP JUMP JUMPDEST PUSH1 0x0 DUP2 MLOAD DUP1 DUP5 MSTORE PUSH1 0x0 JUMPDEST DUP2 DUP2 LT ISZERO PUSH2 0x2BD5 JUMPI PUSH1 0x20 DUP2 DUP6 ADD DUP2 ADD MLOAD DUP7 DUP4 ADD DUP3 ADD MSTORE ADD PUSH2 0x2BB9 JUMP JUMPDEST POP PUSH1 0x0 PUSH1 0x20 DUP3 DUP7 ADD ADD MSTORE PUSH1 0x20 PUSH1 0x1F NOT PUSH1 0x1F DUP4 ADD AND DUP6 ADD ADD SWAP2 POP POP SWAP3 SWAP2 POP POP JUMP JUMPDEST PUSH1 0x0 PUSH2 0x120 DUP1 DUP4 MSTORE PUSH2 0x2C09 DUP2 DUP5 ADD DUP14 PUSH2 0x2BAF JUMP JUMPDEST SWAP1 POP DUP3 DUP2 SUB PUSH1 0x20 DUP5 ADD MSTORE PUSH2 0x2C1D DUP2 DUP13 PUSH2 0x2BAF JUMP JUMPDEST SWAP10 ISZERO ISZERO PUSH1 0x40 DUP5 ADD MSTORE POP POP PUSH1 0x60 DUP2 ADD SWAP7 SWAP1 SWAP7 MSTORE SWAP4 ISZERO ISZERO PUSH1 0x80 DUP7 ADD MSTORE SWAP2 ISZERO ISZERO PUSH1 0xA0 DUP6 ADD MSTORE PUSH1 0xC0 DUP5 ADD MSTORE PUSH1 0xE0 DUP4 ADD MSTORE PUSH2 0x100 SWAP1 SWAP2 ADD MSTORE SWAP3 SWAP2 POP POP JUMP JUMPDEST PUSH1 0x0 DUP1 PUSH1 0x40 DUP4 DUP6 SUB SLT ISZERO PUSH2 0x2C69 JUMPI PUSH1 0x0 DUP1 REVERT JUMPDEST PUSH2 0x2C72 DUP4 PUSH2 0x2954 JUMP JUMPDEST SWAP5 PUSH1 0x20 SWAP4 SWAP1 SWAP4 ADD CALLDATALOAD SWAP4 POP POP POP JUMP JUMPDEST PUSH1 0x0 DUP3 PUSH1 0x60 DUP2 ADD DUP4 PUSH1 0x0 JUMPDEST PUSH1 0x3 DUP2 LT ISZERO PUSH2 0x2CBA JUMPI DUP4 DUP4 SUB DUP8 MSTORE PUSH2 0x2CA4 DUP4 DUP4 MLOAD PUSH2 0x2BAF JUMP JUMPDEST PUSH1 0x20 SWAP8 DUP9 ADD SWAP8 SWAP1 SWAP4 POP SWAP2 SWAP1 SWAP2 ADD SWAP1 PUSH1 0x1 ADD PUSH2 0x2C8B JUMP JUMPDEST POP SWAP1 SWAP6 SWAP5 POP POP POP POP POP JUMP JUMPDEST PUSH1 0x0 PUSH2 0x120 DUP1 DUP4 MSTORE PUSH2 0x2CD9 DUP2 DUP5 ADD DUP14 PUSH2 0x2BAF JUMP JUMPDEST SWAP1 POP DUP3 DUP2 SUB PUSH1 0x20 DUP5 ADD MSTORE PUSH2 0x2CED DUP2 DUP13 PUSH2 0x2BAF JUMP JUMPDEST SWAP1 POP DUP10 ISZERO ISZERO PUSH1 0x40 DUP5 ADD MSTORE DUP3 DUP2 SUB PUSH1 0x60 DUP5 ADD MSTORE PUSH2 0x2D09 DUP2 DUP11 PUSH2 0x2C80 JUMP JUMPDEST PUSH1 0x80 DUP5 ADD SWAP9 SWAP1 SWAP9 MSTORE POP POP PUSH1 0xA0 DUP2 ADD SWAP5 SWAP1 SWAP5 MSTORE SWAP2 ISZERO ISZERO PUSH1 0xC0 DUP5 ADD MSTORE ISZERO ISZERO PUSH1 0xE0 DUP4 ADD MSTORE PUSH2 0x100 SWAP1 SWAP2 ADD MSTORE SWAP5 SWAP4 POP POP POP POP JUMP JUMPDEST PUSH1 0x0 PUSH1 0x20 DUP3 DUP5 SUB SLT ISZERO PUSH2 0x2D4B JUMPI PUSH1 0x0 DUP1 REVERT JUMPDEST PUSH2 0x2D54 DUP3 PUSH2 0x2954 JUMP JUMPDEST SWAP4 SWAP3 POP POP POP JUMP JUMPDEST PUSH1 0x0 DUP1 PUSH1 0x40 DUP4 DUP6 SUB SLT ISZERO PUSH2 0x2D6E JUMPI PUSH1 0x0 DUP1 REVERT JUMPDEST PUSH2 0x2D77 DUP4 PUSH2 0x2954 JUMP JUMPDEST SWAP2 POP PUSH1 0x20 DUP4 ADD CALLDATALOAD PUSH2 0x2D87 DUP2 PUSH2 0x2AA3 JUMP JUMPDEST DUP1 SWAP2 POP POP SWAP3 POP SWAP3 SWAP1 POP JUMP JUMPDEST PUSH1 0x0 DUP1 PUSH1 0x0 PUSH1 0x60 DUP5 DUP7 SUB SLT ISZERO PUSH2 0x2DA7 JUMPI PUSH1 0x0 DUP1 REVERT JUMPDEST PUSH2 0x2DB0 DUP5 PUSH2 0x2954 JUMP JUMPDEST SWAP3 POP PUSH2 0x2DBE PUSH1 0x20 DUP6 ADD PUSH2 0x2954 JUMP JUMPDEST SWAP2 POP PUSH1 0x40 DUP5 ADD CALLDATALOAD SWAP1 POP SWAP3 POP SWAP3 POP SWAP3 JUMP JUMPDEST PUSH1 0x0 DUP1 PUSH1 0x0 PUSH1 0x60 DUP5 DUP7 SUB SLT ISZERO PUSH2 0x2DE3 JUMPI PUSH1 0x0 DUP1 REVERT JUMPDEST POP POP DUP2 CALLDATALOAD SWAP4 PUSH1 0x20 DUP4 ADD CALLDATALOAD SWAP4 POP PUSH1 0x40 SWAP1 SWAP3 ADD CALLDATALOAD SWAP2 SWAP1 POP JUMP JUMPDEST PUSH1 0x60 DUP2 ADD DUP2 DUP4 PUSH1 0x0 JUMPDEST PUSH1 0x3 DUP2 LT ISZERO PUSH2 0x2E22 JUMPI DUP2 MLOAD DUP4 MSTORE PUSH1 0x20 SWAP3 DUP4 ADD SWAP3 SWAP1 SWAP2 ADD SWAP1 PUSH1 0x1 ADD PUSH2 0x2E03 JUMP JUMPDEST POP POP POP SWAP3 SWAP2 POP POP JUMP JUMPDEST PUSH4 0x4E487B71 PUSH1 0xE0 SHL PUSH1 0x0 MSTORE PUSH1 0x32 PUSH1 0x4 MSTORE PUSH1 0x24 PUSH1 0x0 REVERT JUMPDEST PUSH4 0x4E487B71 PUSH1 0xE0 SHL PUSH1 0x0 MSTORE PUSH1 0x11 PUSH1 0x4 MSTORE PUSH1 0x24 PUSH1 0x0 REVERT JUMPDEST DUP2 DUP2 SUB DUP2 DUP2 GT ISZERO PUSH2 0xEFE JUMPI PUSH2 0xEFE PUSH2 0x2E41 JUMP JUMPDEST DUP1 DUP3 MUL DUP2 ISZERO DUP3 DUP3 DIV DUP5 EQ OR PUSH2 0xEFE JUMPI PUSH2 0xEFE PUSH2 0x2E41 JUMP JUMPDEST PUSH1 0x0 DUP3 PUSH2 0x2E9E JUMPI PUSH4 0x4E487B71 PUSH1 0xE0 SHL PUSH1 0x0 MSTORE PUSH1 0x12 PUSH1 0x4 MSTORE PUSH1 0x24 PUSH1 0x0 REVERT JUMPDEST POP DIV SWAP1 JUMP JUMPDEST PUSH1 0x20 DUP1 DUP3 MSTORE PUSH1 0x1C SWAP1 DUP3 ADD MSTORE PUSH32 0x4475656C206973207265736F6C766564206F722063616E63656C656400000000 PUSH1 0x40 DUP3 ADD MSTORE PUSH1 0x60 ADD SWAP1 JUMP JUMPDEST DUP1 DUP3 ADD DUP1 DUP3 GT ISZERO PUSH2 0xEFE JUMPI PUSH2 0xEFE PUSH2 0x2E41 JUMP JUMPDEST PUSH1 0x0 PUSH1 0x20 DUP3 DUP5 SUB SLT ISZERO PUSH2 0x2EFF JUMPI PUSH1 0x0 DUP1 REVERT JUMPDEST DUP2 MLOAD PUSH2 0x2D54 DUP2 PUSH2 0x2AA3 JUMP JUMPDEST PUSH1 0x0 PUSH1 0x1 DUP3 ADD PUSH2 0x2F1C JUMPI PUSH2 0x2F1C PUSH2 0x2E41 JUMP JUMPDEST POP PUSH1 0x1 ADD SWAP1 JUMP JUMPDEST PUSH1 0x1 DUP2 DUP2 SHR SWAP1 DUP3 AND DUP1 PUSH2 0x2F37 JUMPI PUSH1 0x7F DUP3 AND SWAP2 POP JUMPDEST PUSH1 0x20 DUP3 LT DUP2 SUB PUSH2 0x2F57 JUMPI PUSH4 0x4E487B71 PUSH1 0xE0 SHL PUSH1 0x0 MSTORE PUSH1 0x22 PUSH1 0x4 MSTORE PUSH1 0x24 PUSH1 0x0 REVERT JUMPDEST POP SWAP2 SWAP1 POP JUMP JUMPDEST PUSH1 0x1F DUP3 GT ISZERO PUSH2 0x22EA JUMPI PUSH1 0x0 DUP2 DUP2 MSTORE PUSH1 0x20 DUP2 KECCAK256 PUSH1 0x1F DUP6 ADD PUSH1 0x5 SHR DUP2 ADD PUSH1 0x20 DUP7 LT ISZERO PUSH2 0x2F84 JUMPI POP DUP1 JUMPDEST PUSH1 0x1F DUP6 ADD PUSH1 0x5 SHR DUP3 ADD SWAP2 POP JUMPDEST DUP2 DUP2 LT ISZERO PUSH2 0x2FA3 JUMPI DUP3 DUP2 SSTORE PUSH1 0x1 ADD PUSH2 0x2F90 JUMP JUMPDEST POP POP POP POP POP POP JUMP JUMPDEST DUP2 MLOAD PUSH8 0xFFFFFFFFFFFFFFFF DUP2 GT ISZERO PUSH2 0x2FC5 JUMPI PUSH2 0x2FC5 PUSH2 0x29D7 JUMP JUMPDEST PUSH2 0x2FD9 DUP2 PUSH2 0x2FD3 DUP5 SLOAD PUSH2 0x2F23 JUMP JUMPDEST DUP5 PUSH2 0x2F5D JUMP JUMPDEST PUSH1 0x20 DUP1 PUSH1 0x1F DUP4 GT PUSH1 0x1 DUP2 EQ PUSH2 0x300E JUMPI PUSH1 0x0 DUP5 ISZERO PUSH2 0x2FF6 JUMPI POP DUP6 DUP4 ADD MLOAD JUMPDEST PUSH1 0x0 NOT PUSH1 0x3 DUP7 SWAP1 SHL SHR NOT AND PUSH1 0x1 DUP6 SWAP1 SHL OR DUP6 SSTORE PUSH2 0x2FA3 JUMP JUMPDEST PUSH1 0x0 DUP6 DUP2 MSTORE PUSH1 0x20 DUP2 KECCAK256 PUSH1 0x1F NOT DUP7 AND SWAP2 JUMPDEST DUP3 DUP2 LT ISZERO PUSH2 0x303D JUMPI DUP9 DUP7 ADD MLOAD DUP3 SSTORE SWAP5 DUP5 ADD SWAP5 PUSH1 0x1 SWAP1 SWAP2 ADD SWAP1 DUP5 ADD PUSH2 0x301E JUMP JUMPDEST POP DUP6 DUP3 LT ISZERO PUSH2 0x305B JUMPI DUP8 DUP6 ADD MLOAD PUSH1 0x0 NOT PUSH1 0x3 DUP9 SWAP1 SHL PUSH1 0xF8 AND SHR NOT AND DUP2 SSTORE JUMPDEST POP POP POP POP POP PUSH1 0x1 SWAP1 DUP2 SHL ADD SWAP1 SSTORE POP JUMP JUMPDEST PUSH1 0xA0 DUP2 MSTORE PUSH1 0x0 PUSH2 0x307E PUSH1 0xA0 DUP4 ADD DUP9 PUSH2 0x2BAF JUMP JUMPDEST DUP3 DUP2 SUB PUSH1 0x20 DUP5 ADD MSTORE PUSH2 0x3090 DUP2 DUP9 PUSH2 0x2BAF JUMP JUMPDEST SWAP1 POP DUP6 ISZERO ISZERO PUSH1 0x40 DUP5 ADD MSTORE DUP3 DUP2 SUB PUSH1 0x60 DUP5 ADD MSTORE PUSH2 0x30AC DUP2 DUP7 PUSH2 0x2C80 JUMP JUMPDEST SWAP2 POP POP DUP3 PUSH1 0x80 DUP4 ADD MSTORE SWAP7 SWAP6 POP POP POP POP POP POP JUMP JUMPDEST PUSH1 0x1 DUP2 DUP2 JUMPDEST DUP1 DUP6 GT ISZERO PUSH2 0x30FA JUMPI DUP2 PUSH1 0x0 NOT DIV DUP3 GT ISZERO PUSH2 0x30E0 JUMPI PUSH2 0x30E0 PUSH2 0x2E41 JUMP JUMPDEST DUP1 DUP6 AND ISZERO PUSH2 0x30ED JUMPI SWAP2 DUP2 MUL SWAP2 JUMPDEST SWAP4 DUP5 SHR SWAP4 SWAP1 DUP1 MUL SWAP1 PUSH2 0x30C4 JUMP JUMPDEST POP SWAP3 POP SWAP3 SWAP1 POP JUMP JUMPDEST PUSH1 0x0 DUP3 PUSH2 0x3111 JUMPI POP PUSH1 0x1 PUSH2 0xEFE JUMP JUMPDEST DUP2 PUSH2 0x311E JUMPI POP PUSH1 0x0 PUSH2 0xEFE JUMP JUMPDEST DUP2 PUSH1 0x1 DUP2 EQ PUSH2 0x3134 JUMPI PUSH1 0x2 DUP2 EQ PUSH2 0x313E JUMPI PUSH2 0x315A JUMP JUMPDEST PUSH1 0x1 SWAP2 POP POP PUSH2 0xEFE JUMP JUMPDEST PUSH1 0xFF DUP5 GT ISZERO PUSH2 0x314F JUMPI PUSH2 0x314F PUSH2 0x2E41 JUMP JUMPDEST POP POP PUSH1 0x1 DUP3 SHL PUSH2 0xEFE JUMP JUMPDEST POP PUSH1 0x20 DUP4 LT PUSH2 0x133 DUP4 LT AND PUSH1 0x4E DUP5 LT PUSH1 0xB DUP5 LT AND OR ISZERO PUSH2 0x317D JUMPI POP DUP2 DUP2 EXP PUSH2 0xEFE JUMP JUMPDEST PUSH2 0x3187 DUP4 DUP4 PUSH2 0x30BF JUMP JUMPDEST DUP1 PUSH1 0x0 NOT DIV DUP3 GT ISZERO PUSH2 0x319B JUMPI PUSH2 0x319B PUSH2 0x2E41 JUMP JUMPDEST MUL SWAP4 SWAP3 POP POP POP JUMP JUMPDEST PUSH1 0x0 PUSH2 0x2D54 PUSH1 0xFF DUP5 AND DUP4 PUSH2 0x3102 JUMP JUMPDEST PUSH1 0x0 PUSH1 0x20 DUP3 DUP5 SUB SLT ISZERO PUSH2 0x31C4 JUMPI PUSH1 0x0 DUP1 REVERT JUMPDEST POP MLOAD SWAP2 SWAP1 POP JUMP INVALID LOG2 PUSH5 0x6970667358 0x22 SLT KECCAK256 INVALID PUSH1 0xC5 0xEF 0xA8 GASLIMIT SWAP5 0xC6 0xD5 PUSH23 0x6928ED73D6DB33EE9191FF216EB4C69BF57EB859A50C64 PUSH20 0x6F6C634300081400330000000000000000000000 "},"methodIdentifiers":{"MAX_FEE_PERCENT()":"67d81740","RESOLUTION_TIMELOCK()":"698a4957","authorizeResolver(address,bool)":"de2f6a4f","authorizedResolvers(address)":"d794d2d9","bettingToken()":"43425e88","bettingTokenDecimals()":"19ab9bd8","calculatePotentialGains(uint256,address)":"1713ecbc","claimGains(uint256)":"3809ae17","claimRefund(uint256)":"5b7baf64","createDuel(string,string,bool,string[3],uint256)":"47b55766","duels(uint256)":"859a62d0","emergencyWithdraw(address,address,uint256)":"e63ea408","executeResolution(uint256,uint256)":"1f528480","fanToken()":"75daa3de","fanTokenBalanceSnapshot(uint256,address)":"74c94bb9","fanTokenDecimals()":"7e06a617","fanTokenThreshold()":"ba973e44","getBettingToken()":"29cf655b","getDuelInfo(uint256)":"af6f4bce","getFanToken()":"c8d5ba80","getOutcomePot(uint256,uint256)":"4692c962","getPlatformFeePercent()":"4c9c3f85","getUserBets(uint256,address)":"fa744dd3","isDuelBalanced(uint256)":"8931ecd0","nextDuelId()":"549ec614","owner()":"8da5cb5b","pause()":"8456cb59","paused()":"5c975abb","pendingResolutions(bytes32)":"a24a27bc","placeBet(uint256,uint256,uint256)":"e71c9697","platformFeePercent()":"8c639a85","pointsPerBetUnit()":"daf19f2b","proposeResolution(uint256,uint256)":"ed798fec","renounceOwnership()":"715018a6","setFanTokenThreshold(uint256)":"dadad0f3","setPlatformFeePercent(uint256)":"cab230d2","setPointsPerBetUnit(uint256)":"c50809d3","totalFeesAccumulated()":"4952ce76","transferOwnership(address)":"f2fde38b","unpause()":"3f4ba83a","validateAndCancelDuel(uint256)":"253e35fc","withdrawFees(address,uint256)":"ad3b1b47"}}}}}