{"contracts/SimpleDuel.sol":{"SimpleDuel":{"abi":[{"inputs":[{"internalType":"address","name":"_bettingTokenAddress","type":"address"},{"internalType":"address","name":"_fanTokenAddress","type":"address"},{"internalType":"uint8","name":"_fanTokenDecimals","type":"uint8"},{"internalType":"uint8","name":"_bettingTokenDecimals","type":"uint8"}],"stateMutability":"nonpayable","type":"constructor"},{"anonymous":false,"inputs":[{"indexed":true,"internalType":"uint256","name":"duelId","type":"uint256"},{"indexed":false,"internalType":"bool","name":"eligible","type":"bool"}],"name":"ArenaEligibilitySet","type":"event"},{"anonymous":false,"inputs":[{"indexed":true,"internalType":"address","name":"user","type":"address"},{"indexed":false,"internalType":"uint256","name":"duelId","type":"uint256"}],"name":"ArenaEligibleBet","type":"event"},{"anonymous":false,"inputs":[{"indexed":true,"internalType":"uint256","name":"duelId","type":"uint256"},{"indexed":true,"internalType":"address","name":"user","type":"address"},{"indexed":false,"internalType":"uint256","name":"outcomeId","type":"uint256"},{"indexed":false,"internalType":"uint256","name":"amount","type":"uint256"},{"indexed":false,"internalType":"uint256","name":"fanTokenBalance","type":"uint256"}],"name":"BetPlaced","type":"event"},{"anonymous":false,"inputs":[{"indexed":true,"internalType":"uint256","name":"duelId","type":"uint256"}],"name":"DuelCanceled","type":"event"},{"anonymous":false,"inputs":[{"indexed":true,"internalType":"uint256","name":"duelId","type":"uint256"},{"indexed":true,"internalType":"address","name":"creator","type":"address"},{"indexed":false,"internalType":"string","name":"title","type":"string"},{"indexed":false,"internalType":"string","name":"category","type":"string"},{"indexed":false,"internalType":"string[3]","name":"outcomes","type":"string[3]"},{"indexed":false,"internalType":"uint256","name":"deadline","type":"uint256"}],"name":"DuelCreated","type":"event"},{"anonymous":false,"inputs":[{"indexed":false,"internalType":"uint256","name":"newFee","type":"uint256"}],"name":"DuelCreationFeeUpdated","type":"event"},{"anonymous":false,"inputs":[{"indexed":true,"internalType":"uint256","name":"duelId","type":"uint256"},{"indexed":false,"internalType":"uint256","name":"winningOutcomeId","type":"uint256"}],"name":"DuelResolved","type":"event"},{"anonymous":false,"inputs":[{"indexed":true,"internalType":"address","name":"to","type":"address"},{"indexed":false,"internalType":"uint256","name":"amount","type":"uint256"}],"name":"FeesWithdrawn","type":"event"},{"anonymous":false,"inputs":[{"indexed":true,"internalType":"uint256","name":"duelId","type":"uint256"},{"indexed":true,"internalType":"address","name":"user","type":"address"},{"indexed":false,"internalType":"uint256","name":"amount","type":"uint256"},{"indexed":false,"internalType":"uint256","name":"bonus","type":"uint256"}],"name":"GainsClaimed","type":"event"},{"anonymous":false,"inputs":[{"indexed":true,"internalType":"address","name":"user","type":"address"},{"indexed":false,"internalType":"uint256","name":"amount","type":"uint256"}],"name":"GasAdvanced","type":"event"},{"anonymous":false,"inputs":[{"indexed":true,"internalType":"address","name":"user","type":"address"},{"indexed":false,"internalType":"uint256","name":"amount","type":"uint256"}],"name":"GasDebtRepaid","type":"event"},{"anonymous":false,"inputs":[{"indexed":true,"internalType":"address","name":"moderator","type":"address"},{"indexed":false,"internalType":"bool","name":"status","type":"bool"}],"name":"ModeratorSet","type":"event"},{"anonymous":false,"inputs":[{"indexed":true,"internalType":"address","name":"previousOwner","type":"address"},{"indexed":true,"internalType":"address","name":"newOwner","type":"address"}],"name":"OwnershipTransferred","type":"event"},{"anonymous":false,"inputs":[{"indexed":false,"internalType":"address","name":"account","type":"address"}],"name":"Paused","type":"event"},{"anonymous":false,"inputs":[{"indexed":true,"internalType":"address","name":"user","type":"address"},{"indexed":false,"internalType":"uint256","name":"points","type":"uint256"},{"indexed":false,"internalType":"string","name":"reason","type":"string"}],"name":"PointsAwarded","type":"event"},{"anonymous":false,"inputs":[{"indexed":true,"internalType":"address","name":"user","type":"address"},{"indexed":false,"internalType":"uint256","name":"points","type":"uint256"},{"indexed":false,"internalType":"string","name":"reason","type":"string"}],"name":"PointsDeducted","type":"event"},{"anonymous":false,"inputs":[{"indexed":true,"internalType":"address","name":"user","type":"address"},{"indexed":false,"internalType":"uint256","name":"duelId","type":"uint256"},{"indexed":false,"internalType":"uint256","name":"points","type":"uint256"}],"name":"PointsEarned","type":"event"},{"anonymous":false,"inputs":[{"indexed":true,"internalType":"uint256","name":"duelId","type":"uint256"},{"indexed":true,"internalType":"address","name":"user","type":"address"},{"indexed":false,"internalType":"uint256","name":"amount","type":"uint256"}],"name":"RefundIssued","type":"event"},{"anonymous":false,"inputs":[{"indexed":true,"internalType":"uint256","name":"duelId","type":"uint256"},{"indexed":false,"internalType":"uint256","name":"winningOutcomeId","type":"uint256"},{"indexed":false,"internalType":"uint256","name":"executeAt","type":"uint256"}],"name":"ResolutionProposed","type":"event"},{"anonymous":false,"inputs":[{"indexed":true,"internalType":"address","name":"resolver","type":"address"},{"indexed":false,"internalType":"bool","name":"authorized","type":"bool"}],"name":"ResolverAuthorized","type":"event"},{"anonymous":false,"inputs":[{"indexed":false,"internalType":"address","name":"account","type":"address"}],"name":"Unpaused","type":"event"},{"inputs":[],"name":"ARENA_ACTIVATION_POINTS","outputs":[{"internalType":"uint256","name":"","type":"uint256"}],"stateMutability":"view","type":"function"},{"inputs":[],"name":"MAX_FEE_PERCENT","outputs":[{"internalType":"uint256","name":"","type":"uint256"}],"stateMutability":"view","type":"function"},{"inputs":[],"name":"MAX_USER_DEADLINE","outputs":[{"internalType":"uint256","name":"","type":"uint256"}],"stateMutability":"view","type":"function"},{"inputs":[],"name":"POINTS_PER_DUEL","outputs":[{"internalType":"uint256","name":"","type":"uint256"}],"stateMutability":"view","type":"function"},{"inputs":[],"name":"RESOLUTION_TIMELOCK","outputs":[{"internalType":"uint256","name":"","type":"uint256"}],"stateMutability":"view","type":"function"},{"inputs":[{"internalType":"uint256","name":"_duelId","type":"uint256"}],"name":"activateArenaWithPoints","outputs":[],"stateMutability":"nonpayable","type":"function"},{"inputs":[{"internalType":"string","name":"_title","type":"string"},{"internalType":"string","name":"_category","type":"string"},{"internalType":"bool","name":"_arenaEligible","type":"bool"},{"internalType":"string[3]","name":"_outcomes","type":"string[3]"},{"internalType":"uint256","name":"_deadline","type":"uint256"}],"name":"adminCreateDuel","outputs":[],"stateMutability":"nonpayable","type":"function"},{"inputs":[{"internalType":"address","name":"_resolver","type":"address"},{"internalType":"bool","name":"_authorized","type":"bool"}],"name":"authorizeResolver","outputs":[],"stateMutability":"nonpayable","type":"function"},{"inputs":[{"internalType":"address","name":"","type":"address"}],"name":"authorizedResolvers","outputs":[{"internalType":"bool","name":"","type":"bool"}],"stateMutability":"view","type":"function"},{"inputs":[],"name":"bettingToken","outputs":[{"internalType":"contract IERC20","name":"","type":"address"}],"stateMutability":"view","type":"function"},{"inputs":[],"name":"bettingTokenDecimals","outputs":[{"internalType":"uint8","name":"","type":"uint8"}],"stateMutability":"view","type":"function"},{"inputs":[{"internalType":"uint256","name":"_duelId","type":"uint256"},{"internalType":"address","name":"_user","type":"address"}],"name":"calculatePotentialGains","outputs":[{"internalType":"uint256","name":"baseGains","type":"uint256"},{"internalType":"uint256","name":"bonusGains","type":"uint256"}],"stateMutability":"view","type":"function"},{"inputs":[{"internalType":"address","name":"_user","type":"address"}],"name":"canActivateArena","outputs":[{"internalType":"bool","name":"","type":"bool"}],"stateMutability":"view","type":"function"},{"inputs":[{"internalType":"uint256","name":"_duelId","type":"uint256"}],"name":"claimGains","outputs":[],"stateMutability":"nonpayable","type":"function"},{"inputs":[{"internalType":"uint256","name":"_duelId","type":"uint256"}],"name":"claimRefund","outputs":[],"stateMutability":"nonpayable","type":"function"},{"inputs":[{"internalType":"string","name":"_title","type":"string"},{"internalType":"string","name":"_category","type":"string"},{"internalType":"string[3]","name":"_outcomes","type":"string[3]"},{"internalType":"uint256","name":"_deadline","type":"uint256"}],"name":"createDuel","outputs":[],"stateMutability":"nonpayable","type":"function"},{"inputs":[{"internalType":"uint256","name":"","type":"uint256"}],"name":"duelArenaEligible","outputs":[{"internalType":"bool","name":"","type":"bool"}],"stateMutability":"view","type":"function"},{"inputs":[],"name":"duelCreationFee","outputs":[{"internalType":"uint256","name":"","type":"uint256"}],"stateMutability":"view","type":"function"},{"inputs":[{"internalType":"uint256","name":"","type":"uint256"}],"name":"duels","outputs":[{"internalType":"string","name":"title","type":"string"},{"internalType":"string","name":"category","type":"string"},{"internalType":"bool","name":"deprecated_arenaEligible","type":"bool"},{"internalType":"uint256","name":"deadline","type":"uint256"},{"internalType":"bool","name":"isResolved","type":"bool"},{"internalType":"bool","name":"isCanceled","type":"bool"},{"internalType":"uint256","name":"winningOutcomeId","type":"uint256"},{"internalType":"uint256","name":"potTotal","type":"uint256"},{"internalType":"uint256","name":"feesCollected","type":"uint256"},{"internalType":"address","name":"creator","type":"address"}],"stateMutability":"view","type":"function"},{"inputs":[{"internalType":"address","name":"_token","type":"address"},{"internalType":"address","name":"_to","type":"address"},{"internalType":"uint256","name":"_amount","type":"uint256"}],"name":"emergencyWithdraw","outputs":[],"stateMutability":"nonpayable","type":"function"},{"inputs":[{"internalType":"uint256","name":"_duelId","type":"uint256"},{"internalType":"uint256","name":"_winningOutcomeId","type":"uint256"}],"name":"executeResolution","outputs":[],"stateMutability":"nonpayable","type":"function"},{"inputs":[],"name":"fanToken","outputs":[{"internalType":"contract IERC20","name":"","type":"address"}],"stateMutability":"view","type":"function"},{"inputs":[{"internalType":"uint256","name":"","type":"uint256"},{"internalType":"address","name":"","type":"address"}],"name":"fanTokenBalanceSnapshot","outputs":[{"internalType":"uint256","name":"","type":"uint256"}],"stateMutability":"view","type":"function"},{"inputs":[],"name":"fanTokenDecimals","outputs":[{"internalType":"uint8","name":"","type":"uint8"}],"stateMutability":"view","type":"function"},{"inputs":[],"name":"fanTokenThreshold","outputs":[{"internalType":"uint256","name":"","type":"uint256"}],"stateMutability":"view","type":"function"},{"inputs":[],"name":"gasAdvanceFee","outputs":[{"internalType":"uint256","name":"","type":"uint256"}],"stateMutability":"view","type":"function"},{"inputs":[{"internalType":"address","name":"","type":"address"}],"name":"gasFeeDebt","outputs":[{"internalType":"uint256","name":"","type":"uint256"}],"stateMutability":"view","type":"function"},{"inputs":[],"name":"gasRelayer","outputs":[{"internalType":"address","name":"","type":"address"}],"stateMutability":"view","type":"function"},{"inputs":[],"name":"getBettingToken","outputs":[{"internalType":"address","name":"","type":"address"}],"stateMutability":"view","type":"function"},{"inputs":[{"internalType":"uint256","name":"_duelId","type":"uint256"}],"name":"getDuelInfo","outputs":[{"internalType":"string","name":"title","type":"string"},{"internalType":"string","name":"category","type":"string"},{"internalType":"bool","name":"arenaEligible","type":"bool"},{"internalType":"string[3]","name":"outcomes","type":"string[3]"},{"internalType":"uint256","name":"potTotal","type":"uint256"},{"internalType":"uint256","name":"deadline","type":"uint256"},{"internalType":"bool","name":"isResolved","type":"bool"},{"internalType":"bool","name":"isCanceled","type":"bool"},{"internalType":"uint256","name":"winningOutcomeId","type":"uint256"},{"internalType":"address","name":"creator","type":"address"}],"stateMutability":"view","type":"function"},{"inputs":[],"name":"getFanToken","outputs":[{"internalType":"address","name":"","type":"address"}],"stateMutability":"view","type":"function"},{"inputs":[{"internalType":"address","name":"_user","type":"address"}],"name":"getGasFeeDebt","outputs":[{"internalType":"uint256","name":"","type":"uint256"}],"stateMutability":"view","type":"function"},{"inputs":[{"internalType":"uint256","name":"_duelId","type":"uint256"},{"internalType":"uint256","name":"_outcomeId","type":"uint256"}],"name":"getOutcomePot","outputs":[{"internalType":"uint256","name":"","type":"uint256"}],"stateMutability":"view","type":"function"},{"inputs":[],"name":"getPlatformFeePercent","outputs":[{"internalType":"uint256","name":"","type":"uint256"}],"stateMutability":"view","type":"function"},{"inputs":[{"internalType":"uint256","name":"_duelId","type":"uint256"},{"internalType":"address","name":"_user","type":"address"}],"name":"getUserBets","outputs":[{"internalType":"uint256[3]","name":"","type":"uint256[3]"}],"stateMutability":"view","type":"function"},{"inputs":[{"internalType":"address","name":"_user","type":"address"}],"name":"getUserPoints","outputs":[{"internalType":"uint256","name":"","type":"uint256"}],"stateMutability":"view","type":"function"},{"inputs":[{"internalType":"uint256","name":"_duelId","type":"uint256"}],"name":"isDuelBalanced","outputs":[{"internalType":"bool","name":"","type":"bool"}],"stateMutability":"view","type":"function"},{"inputs":[{"internalType":"address","name":"_user","type":"address"},{"internalType":"uint256","name":"_amount","type":"uint256"}],"name":"manualGasRepayment","outputs":[],"stateMutability":"nonpayable","type":"function"},{"inputs":[{"internalType":"address","name":"","type":"address"}],"name":"moderators","outputs":[{"internalType":"bool","name":"","type":"bool"}],"stateMutability":"view","type":"function"},{"inputs":[],"name":"nextDuelId","outputs":[{"internalType":"uint256","name":"","type":"uint256"}],"stateMutability":"view","type":"function"},{"inputs":[],"name":"owner","outputs":[{"internalType":"address","name":"","type":"address"}],"stateMutability":"view","type":"function"},{"inputs":[],"name":"pause","outputs":[],"stateMutability":"nonpayable","type":"function"},{"inputs":[],"name":"paused","outputs":[{"internalType":"bool","name":"","type":"bool"}],"stateMutability":"view","type":"function"},{"inputs":[{"internalType":"bytes32","name":"","type":"bytes32"}],"name":"pendingResolutions","outputs":[{"internalType":"uint256","name":"","type":"uint256"}],"stateMutability":"view","type":"function"},{"inputs":[{"internalType":"uint256","name":"_duelId","type":"uint256"},{"internalType":"uint256","name":"_outcomeId","type":"uint256"},{"internalType":"uint256","name":"_amount","type":"uint256"}],"name":"placeBet","outputs":[],"stateMutability":"nonpayable","type":"function"},{"inputs":[],"name":"platformFeePercent","outputs":[{"internalType":"uint256","name":"","type":"uint256"}],"stateMutability":"view","type":"function"},{"inputs":[],"name":"pointsPerBetUnit","outputs":[{"internalType":"uint256","name":"","type":"uint256"}],"stateMutability":"view","type":"function"},{"inputs":[{"internalType":"uint256","name":"_duelId","type":"uint256"},{"internalType":"uint256","name":"_winningOutcomeId","type":"uint256"}],"name":"proposeResolution","outputs":[],"stateMutability":"nonpayable","type":"function"},{"inputs":[],"name":"renounceOwnership","outputs":[],"stateMutability":"nonpayable","type":"function"},{"inputs":[{"internalType":"uint256","name":"_duelId","type":"uint256"},{"internalType":"bool","name":"_eligible","type":"bool"}],"name":"setArenaEligible","outputs":[],"stateMutability":"nonpayable","type":"function"},{"inputs":[{"internalType":"uint256","name":"_newFee","type":"uint256"}],"name":"setDuelCreationFee","outputs":[],"stateMutability":"nonpayable","type":"function"},{"inputs":[{"internalType":"uint256","name":"_newThreshold","type":"uint256"}],"name":"setFanTokenThreshold","outputs":[],"stateMutability":"nonpayable","type":"function"},{"inputs":[{"internalType":"uint256","name":"_fee","type":"uint256"}],"name":"setGasAdvanceFee","outputs":[],"stateMutability":"nonpayable","type":"function"},{"inputs":[{"internalType":"address","name":"_relayer","type":"address"}],"name":"setGasRelayer","outputs":[],"stateMutability":"nonpayable","type":"function"},{"inputs":[{"internalType":"address","name":"_moderator","type":"address"},{"internalType":"bool","name":"_status","type":"bool"}],"name":"setModerator","outputs":[],"stateMutability":"nonpayable","type":"function"},{"inputs":[{"internalType":"uint256","name":"_newFee","type":"uint256"}],"name":"setPlatformFeePercent","outputs":[],"stateMutability":"nonpayable","type":"function"},{"inputs":[{"internalType":"uint256","name":"_newPoints","type":"uint256"}],"name":"setPointsPerBetUnit","outputs":[],"stateMutability":"nonpayable","type":"function"},{"inputs":[{"internalType":"bool","name":"_enabled","type":"bool"}],"name":"toggleUserCreation","outputs":[],"stateMutability":"nonpayable","type":"function"},{"inputs":[],"name":"totalFeesAccumulated","outputs":[{"internalType":"uint256","name":"","type":"uint256"}],"stateMutability":"view","type":"function"},{"inputs":[{"internalType":"address","name":"newOwner","type":"address"}],"name":"transferOwnership","outputs":[],"stateMutability":"nonpayable","type":"function"},{"inputs":[],"name":"unpause","outputs":[],"stateMutability":"nonpayable","type":"function"},{"inputs":[],"name":"userCreationEnabled","outputs":[{"internalType":"bool","name":"","type":"bool"}],"stateMutability":"view","type":"function"},{"inputs":[{"internalType":"address","name":"","type":"address"}],"name":"userPoints","outputs":[{"internalType":"uint256","name":"","type":"uint256"}],"stateMutability":"view","type":"function"},{"inputs":[{"internalType":"uint256","name":"_duelId","type":"uint256"}],"name":"validateAndCancelDuel","outputs":[],"stateMutability":"nonpayable","type":"function"},{"inputs":[{"internalType":"address","name":"_to","type":"address"},{"internalType":"uint256","name":"_amount","type":"uint256"}],"name":"withdrawFees","outputs":[],"stateMutability":"nonpayable","type":"function"}],"evm":{"bytecode":{"linkReferences":{},"object":"61010060405261012c6003556014600555678ac7230489e800006008556009805460ff1916600117905567016345785d8a0000600c553480156200004257600080fd5b5060405162004b2938038062004b29833981016040819052620000659162000232565b6200007033620001b3565b600180556002805460ff191690556001600160a01b038416620000da5760405162461bcd60e51b815260206004820152601560248201527f496e76616c69642062657474696e6720746f6b656e000000000000000000000060448201526064015b60405180910390fd5b6001600160a01b038316620001265760405162461bcd60e51b815260206004820152601160248201527024b73b30b634b2103330b7103a37b5b2b760791b6044820152606401620000d1565b6001600160a01b03808516608052831660a05260ff80831660c052811660e0526200015382600a620003a4565b62000160906064620003bc565b60065550503360008181526013602090815260408083208054600160ff199182168117909255600f909352922080549091169091179055600b80546001600160a01b031916909117905550620003d69050565b600080546001600160a01b038381166001600160a01b0319831681178455604051919092169283917f8be0079c531659141344cd1fd0a4f28419497f9722a3daafe3b4186f6b6457e09190a35050565b80516001600160a01b03811681146200021b57600080fd5b919050565b805160ff811681146200021b57600080fd5b600080600080608085870312156200024957600080fd5b620002548562000203565b9350620002646020860162000203565b9250620002746040860162000220565b9150620002846060860162000220565b905092959194509250565b634e487b7160e01b600052601160045260246000fd5b600181815b80851115620002e6578160001904821115620002ca57620002ca6200028f565b80851615620002d857918102915b93841c9390800290620002aa565b509250929050565b600082620002ff575060016200039e565b816200030e575060006200039e565b8160018114620003275760028114620003325762000352565b60019150506200039e565b60ff8411156200034657620003466200028f565b50506001821b6200039e565b5060208310610133831016604e8410600b841016171562000377575081810a6200039e565b620003838383620002a5565b80600019048211156200039a576200039a6200028f565b0290505b92915050565b6000620003b560ff841683620002ee565b9392505050565b80820281158282048414176200039e576200039e6200028f565b60805160a05160c05160e05161469b6200048e60003960008181610445015281816130ac015281816130e60152613391015260006106c201526000818161066d0152818161086001528181611daf0152818161327d01526133f10152600081816104b0015281816105410152818161149c0152818161154101528181611939015281816119e601528181611eba01528181611fab0152818161273a0152818161280801528181612c26015261318f015261469b6000f3fe608060405234801561001057600080fd5b50600436106103db5760003560e01c80638456cb591161020a578063c8d5ba8011610125578063e63ea408116100b8578063edc6872011610087578063edc6872014610954578063f2fde38b1461095d578063f436575214610970578063f50ddbc714610983578063fa744dd3146109a357600080fd5b8063e63ea40814610911578063e71c969714610924578063eac7403914610937578063ed798fec1461094157600080fd5b8063d860455b116100f4578063d860455b146108da578063dadad0f3146108e2578063daf19f2b146108f5578063de2f6a4f146108fe57600080fd5b8063c8d5ba801461085e578063cab230d214610884578063cf2da5f314610897578063d794d2d9146108b757600080fd5b8063a24aa6e01161019d578063af6f4bce1161016c578063af6f4bce14610806578063ba263a0a1461082f578063ba973e4414610842578063c50809d31461084b57600080fd5b8063a24aa6e01461079e578063ad3b1b47146107c1578063ae5fd784146107d4578063aeefe31f146107dd57600080fd5b80638da5cb5b116101d95780638da5cb5b146107315780639b0d103614610742578063a08e25b41461076b578063a24a27bc1461077e57600080fd5b80638456cb59146106e4578063859a62d0146106ec5780638931ecd0146107155780638c639a851461072857600080fd5b80634d6d50c5116102fa5780636fcb48a51161028d5780637689279c1161025c5780637689279c1461068f578063779db8aa146106a257806379e92d25146106aa5780637e06a617146106bd57600080fd5b80636fcb48a514610622578063715018a61461063557806374c94bb91461063d57806375daa3de1461066857600080fd5b80635c975abb116102c95780635c975abb146105f15780635fe6c08d146105fc57806367d817401461060f578063698a49571461061857600080fd5b80634d6d50c5146105955780634e15aa67146105a8578063549ec614146105d55780635b7baf64146105de57600080fd5b806336dc9ec61161037257806343425e881161034157806343425e881461053c5780634692c962146105635780634952ce76146105845780634c9c3f851461058d57600080fd5b806336dc9ec6146104fb5780633809ae171461050e5780633ee2b01d146105215780633f4ba83a1461053457600080fd5b806320d8cbd0116103ae57806320d8cbd01461048e578063253e35fc1461049b57806329cf655b146104ae5780632f0c45fd146104e857600080fd5b806314d0f1ba146103e05780631713ecbc1461041857806319ab9bd8146104405780631f52848014610479575b600080fd5b6104036103ee366004613ca5565b600f6020526000908152604090205460ff1681565b60405190151581526020015b60405180910390f35b61042b610426366004613cc7565b6109c3565b6040805192835260208301919091520161040f565b6104677f000000000000000000000000000000000000000000000000000000000000000081565b60405160ff909116815260200161040f565b61048c610487366004613cf3565b610afa565b005b6009546104039060ff1681565b61048c6104a9366004613d15565b610d39565b7f00000000000000000000000000000000000000000000000000000000000000005b6040516001600160a01b03909116815260200161040f565b600b546104d0906001600160a01b031681565b61048c610509366004613e6d565b610eb7565b61048c61051c366004613d15565b6111bc565b61048c61052f366004613f12565b611646565b61048c611704565b6104d07f000000000000000000000000000000000000000000000000000000000000000081565b610576610571366004613cf3565b611716565b60405190815260200161040f565b61057660075481565b600354610576565b61048c6105a3366004613d15565b61178a565b6104036105b6366004613ca5565b6001600160a01b03166000908152600d60205260409020546064111590565b61057660045481565b61048c6105ec366004613d15565b6117cd565b60025460ff16610403565b61048c61060a366004613ca5565b611ad9565b6105766103e881565b6105766201518081565b61048c610630366004613f49565b611b59565b61048c6121d4565b61057661064b366004613cc7565b601260209081526000928352604080842090915290825290205481565b6104d07f000000000000000000000000000000000000000000000000000000000000000081565b61048c61069d366004613d15565b6121e6565b610576603281565b61048c6106b8366004613fd9565b6121f3565b6104677f000000000000000000000000000000000000000000000000000000000000000081565b61048c61220e565b6106ff6106fa366004613d15565b61221e565b60405161040f9a9998979695949392919061403c565b610403610723366004613d15565b612391565b61057660035481565b6000546001600160a01b03166104d0565b610576610750366004613ca5565b6001600160a01b03166000908152600a602052604090205490565b61048c610779366004613d15565b612470565b61057661078c366004613d15565b60106020526000908152604090205481565b6104036107ac366004613d15565b600e6020526000908152604090205460ff1681565b61048c6107cf3660046140af565b612681565b61057660085481565b6105766107eb366004613ca5565b6001600160a01b03166000908152600d602052604090205490565b610819610814366004613d15565b6128f4565b60405161040f9a9998979695949392919061411e565b61048c61083d3660046140af565b612b67565b61057660065481565b61048c610859366004613d15565b612d0d565b7f00000000000000000000000000000000000000000000000000000000000000006104d0565b61048c610892366004613d15565b612d6f565b6105766108a5366004613ca5565b600a6020526000908152604090205481565b6104036108c5366004613ca5565b60136020526000908152604090205460ff1681565b610576606481565b61048c6108f0366004613d15565b612dbd565b61057660055481565b61048c61090c366004613f12565b612dca565b61048c61091f3660046141a2565b612e80565b61048c6109323660046141de565b612f43565b61057662278d0081565b61048c61094f366004613cf3565b61353f565b610576600c5481565b61048c61096b366004613ca5565b6137c9565b61048c61097e36600461420a565b613830565b610576610991366004613ca5565b600d6020526000908152604090205481565b6109b66109b1366004613cc7565b613915565b60405161040f919061422f565b6000828152601160205260408120600781015482919060ff1615806109f157506007810154610100900460ff165b15610a03576000809250925050610af3565b60088101546001600160a01b0385166000908152600f8301602052604081208260038110610a3357610a33614260565b0154905080600003610a4e5760008094509450505050610af3565b600083600b018360038110610a6557610a65614260565b01549050600084600a01548560090154610a7f919061428c565b905081610a8c828561429f565b610a9691906142b6565b965082871015610aa4578296505b60008981526012602090815260408083206001600160a01b038c1684529091529020546006548110610aec57612710610adf896101f461429f565b610ae991906142b6565b96505b5050505050505b9250929050565b3360009081526013602052604090205460ff1680610b2257506000546001600160a01b031633145b610b6f5760405162461bcd60e51b81526020600482015260196024820152784e6f7420617574686f72697a656420746f207265736f6c766560381b60448201526064015b60405180910390fd5b6040805160208082018590528183018490528251808303840181526060909201835281519181019190912060008181526010909252918120549003610bee5760405162461bcd60e51b81526020600482015260156024820152742737903832b73234b733903932b9b7b63aba34b7b760591b6044820152606401610b66565b600081815260106020526040902054421015610c435760405162461bcd60e51b8152602060048201526014602482015273151a5b595b1bd8dac81b9bdd08195e1c1a5c995960621b6044820152606401610b66565b6000838152601160205260409020600781015460ff16158015610c7057506007810154610100900460ff16155b610c8c5760405162461bcd60e51b8152600401610b66906142d8565b60006127106003548360090154610ca3919061429f565b610cad91906142b6565b90508082600a01819055508060076000828254610cca919061430f565b909155505060078201805460ff1916600117905560088201849055600083815260106020526040808220919091555185907f147951699da2828eef91ad406d09ddd88be2fbc13c15b98c3228c3d80e6999ff90610d2a9087815260200190565b60405180910390a25050505050565b610d41613973565b6000818152601160205260409020600781015460ff16158015610d6e57506007810154610100900460ff16155b610dc65760405162461bcd60e51b8152602060048201526024808201527f4475656c206973207265736f6c766564206f7220616c72656164792063616e63604482015263195b195960e21b6064820152608401610b66565b8060060154421015610e115760405162461bcd60e51b8152602060048201526014602482015273111958591b1a5b99481b9bdd081c995858da195960621b6044820152606401610b66565b610e1a82612391565b15610e775760405162461bcd60e51b815260206004820152602760248201527f4475656c2069732062616c616e63656420616e642063616e6e6f742062652063604482015266185b98d95b195960ca1b6064820152608401610b66565b60078101805461ff00191661010017905560405182907fbb08acbd04feafc2c9a5dbfba32cd5488e51d178ebb70f355c6e0b00cda5ef8790600090a25050565b610ebf613973565b610ec76139cd565b610ed342610e1061430f565b8111610f155760405162461bcd60e51b81526020600482015260116024820152702232b0b23634b732903a37b79039b7b7b760791b6044820152606401610b66565b610f23426301e1338061430f565b8110610f645760405162461bcd60e51b815260206004820152601060248201526f2232b0b23634b732903a37b7903330b960811b6044820152606401610b66565b60008551118015610f7757506064855111155b610fb35760405162461bcd60e51b815260206004820152600d60248201526c496e76616c6964207469746c6560981b6044820152606401610b66565b60008451118015610fc657506032845111155b6110055760405162461bcd60e51b815260206004820152601060248201526f496e76616c69642063617465676f727960801b6044820152606401610b66565b60005b60038110156110a057600083826003811061102557611025614260565b6020020151511180156110505750603283826003811061104757611047614260565b60200201515111155b61108e5760405162461bcd60e51b815260206004820152600f60248201526e496e76616c6964206f7574636f6d6560881b6044820152606401610b66565b8061109881614322565b915050611008565b506004546000818152601160205260409020806110bd88826143c3565b50600181016110cc87826143c3565b506110dd6003808301908690613b94565b5060068101839055600e810180546001600160a01b031916331790558415611119576000828152600e60205260409020805460ff191660011790555b336001600160a01b0316827f6e3a1184b10d42fd7cfa70094b21ecbd3bb215615fbb7ee4bfa7d1cd8b41c55a898988886040516111599493929190614483565b60405180910390a3841561119e576040516001815282907ff55821ceba42951b9aa03907b558e1375e504ced6c60bbdf3025384eb0d513189060200160405180910390a25b600480549060006111ae83614322565b919050555050505050505050565b6111c4613a13565b6000818152601160205260409020600781015460ff1661121d5760405162461bcd60e51b8152602060048201526014602482015273111d595b081a5cc81b9bdd081c995cdbdb1d995960621b6044820152606401610b66565b6007810154610100900460ff161561126a5760405162461bcd60e51b815260206004820152601060248201526f111d595b081a5cc818d85b98d95b195960821b6044820152606401610b66565b33600090815260108201602052604090205460ff16156112be5760405162461bcd60e51b815260206004820152600f60248201526e105b1c9958591e4818db185a5b5959608a1b6044820152606401610b66565b6008810154336000908152600f83016020526040812082600381106112e5576112e5614260565b015490506000811161132b5760405162461bcd60e51b815260206004820152600f60248201526e4e6f2077696e6e696e67206265747360881b6044820152606401610b66565b3360009081526010840160205260408120805460ff19166001179055600b8401836003811061135c5761135c614260565b01549050600084600a01548560090154611376919061428c565b9050600082611385838661429f565b61138f91906142b6565b90508381101561139c5750825b600087815260126020908152604080832033845290915281205460065481106113db576127106113ce846101f461429f565b6113d891906142b6565b91505b336000908152600a602052604081205490811561146e578482116113ff5781611401565b845b336000908152600a602052604081208054929350839290919061142590849061428c565b909155506114359050818661428c565b60405182815290955033907f8a073c194e1ccdf6688351ac0e3fa50683a2a88723662368bdb9c18064a0304e9060200160405180910390a25b600061147a858761430f565b6040516370a0823160e01b815230600482015290915081906001600160a01b037f000000000000000000000000000000000000000000000000000000000000000016906370a0823190602401602060405180830381865afa1580156114e3573d6000803e3d6000fd5b505050506040513d601f19601f8201168201806040525081019061150791906144ce565b10156115255760405162461bcd60e51b8152600401610b66906144e7565b60405163a9059cbb60e01b8152336004820152602481018290527f00000000000000000000000000000000000000000000000000000000000000006001600160a01b03169063a9059cbb906044016020604051808303816000875af1158015611592573d6000803e3d6000fd5b505050506040513d601f19601f820116820180604052508101906115b69190614528565b6115f25760405162461bcd60e51b815260206004820152600d60248201526c14185e5bdd5d0819985a5b1959609a1b6044820152606401610b66565b604080518781526020810187905233918e917f16eb6194ec5e287f7418c9784085dbbf1eedd440c05dbb3c961f4a141e857baf910160405180910390a3505050505050505050505061164360018055565b50565b61164e613973565b6001600160a01b0382166116a45760405162461bcd60e51b815260206004820152601960248201527f496e76616c6964206d6f64657261746f722061646472657373000000000000006044820152606401610b66565b6001600160a01b0382166000818152600f6020908152604091829020805460ff191685151590811790915591519182527f0e1c45aff1a1f4055c2bee5eb0020bf064559e9bd1435a6cc044461ae0c68a1a91015b60405180910390a25050565b61170c613973565b611714613a6c565b565b60006003821061175d5760405162461bcd60e51b8152602060048201526012602482015271125b9d985b1a59081bdd5d18dbdb5948125160721b6044820152606401610b66565b6000838152601160205260409020600b01826003811061177f5761177f614260565b015490505b92915050565b611792613973565b60088190556040518181527feca1ff7c6cce8e8f96d1079ce3963040ed0a17bdf364455ec36ee6836cc8448e9060200160405180910390a150565b6117d5613a13565b60008181526011602052604090206007810154610100900460ff166118335760405162461bcd60e51b8152602060048201526014602482015273111d595b081a5cc81b9bdd0818d85b98d95b195960621b6044820152606401610b66565b33600090815260118201602052604090205460ff161561188e5760405162461bcd60e51b8152602060048201526016602482015275105b1c9958591e4818db185a5b5959081c99599d5b9960521b6044820152606401610b66565b336000908152600f82016020526040812060028101546001820154915490916118b69161430f565b6118c0919061430f565b9050600081116119065760405162461bcd60e51b8152602060048201526011602482015270139bc818995d1cc81d1bc81c99599d5b99607a1b6044820152606401610b66565b33600090815260118301602052604090819020805460ff19166001179055516370a0823160e01b815230600482015281907f00000000000000000000000000000000000000000000000000000000000000006001600160a01b0316906370a0823190602401602060405180830381865afa158015611988573d6000803e3d6000fd5b505050506040513d601f19601f820116820180604052508101906119ac91906144ce565b10156119ca5760405162461bcd60e51b8152600401610b66906144e7565b60405163a9059cbb60e01b8152336004820152602481018290527f00000000000000000000000000000000000000000000000000000000000000006001600160a01b03169063a9059cbb906044016020604051808303816000875af1158015611a37573d6000803e3d6000fd5b505050506040513d601f19601f82011682018060405250810190611a5b9190614528565b611a975760405162461bcd60e51b815260206004820152600d60248201526c1499599d5b990819985a5b1959609a1b6044820152606401610b66565b604051818152339084907f7a482fdeb6bc9a1376f597068a214a7a39472bb2eff1b8cad21ba04f49ddca1b9060200160405180910390a3505061164360018055565b611ae1613973565b6001600160a01b038116611b375760405162461bcd60e51b815260206004820152601760248201527f496e76616c69642072656c6179657220616464726573730000000000000000006044820152606401610b66565b600b80546001600160a01b0319166001600160a01b0392909216919091179055565b611b61613a13565b611b696139cd565b60095460ff16611bbb5760405162461bcd60e51b815260206004820152601960248201527f55736572206372656174696f6e2069732064697361626c6564000000000000006044820152606401610b66565b611bc742610e1061430f565b8111611c095760405162461bcd60e51b81526020600482015260116024820152702232b0b23634b732903a37b79039b7b7b760791b6044820152606401610b66565b611c1662278d004261430f565b8110611c575760405162461bcd60e51b815260206004820152601060248201526f2232b0b23634b732903a37b7903330b960811b6044820152606401610b66565b60008451118015611c6a57506064845111155b611ca65760405162461bcd60e51b815260206004820152600d60248201526c496e76616c6964207469746c6560981b6044820152606401610b66565b60008351118015611cb957506032835111155b611cf85760405162461bcd60e51b815260206004820152601060248201526f496e76616c69642063617465676f727960801b6044820152606401610b66565b60005b6003811015611d93576000838260038110611d1857611d18614260565b602002015151118015611d4357506032838260038110611d3a57611d3a614260565b60200201515111155b611d815760405162461bcd60e51b815260206004820152600f60248201526e496e76616c6964206f7574636f6d6560881b6044820152606401610b66565b80611d8b81614322565b915050611cfb565b506008546006546040516370a0823160e01b81523360048201527f00000000000000000000000000000000000000000000000000000000000000006001600160a01b0316906370a0823190602401602060405180830381865afa158015611dfe573d6000803e3d6000fd5b505050506040513d601f19601f82011682018060405250810190611e2291906144ce565b10611e2b575060005b600b546001600160a01b03163314611e9d57600c54336000908152600a602052604081208054909190611e5f90849061430f565b9091555050600c5460405190815233907f532998721044f84020f751072ec6511ae7b0a6cf587f02a5cea3af0c3edf3c969060200160405180910390a25b8015612084576040516370a0823160e01b815233600482015281907f00000000000000000000000000000000000000000000000000000000000000006001600160a01b0316906370a0823190602401602060405180830381865afa158015611f09573d6000803e3d6000fd5b505050506040513d601f19601f82011682018060405250810190611f2d91906144ce565b1015611f895760405162461bcd60e51b815260206004820152602560248201527f496e73756666696369656e742062616c616e636520666f72206372656174696f6044820152646e2066656560d81b6064820152608401610b66565b6040516323b872dd60e01b8152336004820152306024820152604481018290527f00000000000000000000000000000000000000000000000000000000000000006001600160a01b0316906323b872dd906064016020604051808303816000875af1158015611ffc573d6000803e3d6000fd5b505050506040513d601f19601f820116820180604052508101906120209190614528565b61206c5760405162461bcd60e51b815260206004820152601b60248201527f4372656174696f6e20666565207061796d656e74206661696c656400000000006044820152606401610b66565b806007600082825461207e919061430f565b90915550505b6004546000818152601160205260409020806120a088826143c3565b50600181016120af87826143c3565b506120c06003808301908790613b94565b5060068101849055600e810180546001600160a01b031916339081179091556000908152600d602052604081208054603292906120fe90849061430f565b909155505060405133907f4c3089477cda1ac100291a040b3ac97ff5f55b6d8b2acfb56a59b9419d95ce049061215d9060328152604060208201819052600d908201526c223ab2b61031b932b0ba34b7b760991b606082015260800190565b60405180910390a2336001600160a01b0316827f6e3a1184b10d42fd7cfa70094b21ecbd3bb215615fbb7ee4bfa7d1cd8b41c55a898989896040516121a59493929190614483565b60405180910390a3600480549060006121bd83614322565b91905055505050506121ce60018055565b50505050565b6121dc613973565b6117146000613abe565b6121ee613973565b600c55565b6121fb613973565b6009805460ff1916911515919091179055565b612216613973565b611714613b0e565b6011602052600090815260409020805481906122399061433b565b80601f01602080910402602001604051908101604052809291908181526020018280546122659061433b565b80156122b25780601f10612287576101008083540402835291602001916122b2565b820191906000526020600020905b81548152906001019060200180831161229557829003601f168201915b5050505050908060010180546122c79061433b565b80601f01602080910402602001604051908101604052809291908181526020018280546122f39061433b565b80156123405780601f1061231557610100808354040283529160200191612340565b820191906000526020600020905b81548152906001019060200180831161232357829003601f168201915b5050505060028301546006840154600785015460088601546009870154600a880154600e90980154969760ff958616979496508584169561010090940490931693919290916001600160a01b03168a565b6000818152601160205260408120600981015482036123b35750600092915050565b60008060005b600381101561243857600084600b0182600381106123d9576123d9614260565b0154111561242657816123eb81614322565b9250508284600b01826003811061240457612404614260565b015411156124265783600b01816003811061242157612421614260565b015492505b8061243081614322565b9150506123b9565b506002811015801561246757506127108360090154611f4061245a919061429f565b61246491906142b6565b82105b95945050505050565b60045481106124915760405162461bcd60e51b8152600401610b6690614545565b6000818152601160205260409020600e01546001600160a01b031633146124ed5760405162461bcd60e51b815260206004820152601060248201526f2737ba10323ab2b61031b932b0ba37b960811b6044820152606401610b66565b336000908152600d6020526040902054606411156125435760405162461bcd60e51b8152602060048201526013602482015272496e73756666696369656e7420706f696e747360681b6044820152606401610b66565b6000818152600e602052604090205460ff161561259b5760405162461bcd60e51b8152602060048201526016602482015275416c7265616479206172656e6120656c696769626c6560501b6044820152606401610b66565b336000908152600d602052604081208054606492906125bb90849061428c565b90915550506000818152600e6020908152604091829020805460ff19166001908117909155915191825282917ff55821ceba42951b9aa03907b558e1375e504ced6c60bbdf3025384eb0d51318910160405180910390a2336001600160a01b03167ff9d84dc8dbc1ec63030d63fe51eb9e84f59905783078b2f3d84f3fcee1ae778f60646040516126769181526040602082018190526010908201526f20b932b7309030b1ba34bb30ba34b7b760811b606082015260800190565b60405180910390a250565b612689613973565b6001600160a01b0382166126d15760405162461bcd60e51b815260206004820152600f60248201526e496e76616c6964206164647265737360881b6044820152606401610b66565b6007548111156127235760405162461bcd60e51b815260206004820152601f60248201527f416d6f756e74206578636565647320616363756d756c617465642066656573006044820152606401610b66565b6040516370a0823160e01b815230600482015281907f00000000000000000000000000000000000000000000000000000000000000006001600160a01b0316906370a0823190602401602060405180830381865afa158015612789573d6000803e3d6000fd5b505050506040513d601f19601f820116820180604052508101906127ad91906144ce565b10156127cb5760405162461bcd60e51b8152600401610b66906144e7565b80600760008282546127dd919061428c565b909155505060405163a9059cbb60e01b81526001600160a01b038381166004830152602482018390527f0000000000000000000000000000000000000000000000000000000000000000169063a9059cbb906044016020604051808303816000875af1158015612851573d6000803e3d6000fd5b505050506040513d601f19601f820116820180604052508101906128759190614528565b6128b95760405162461bcd60e51b8152602060048201526015602482015274119959481dda5d1a191c985dd85b0819985a5b1959605a1b6044820152606401610b66565b816001600160a01b03167fc0819c13be868895eb93e40eaceb96de976442fa1d404e5c55f14bb65a8c489a826040516116f891815260200190565b6060806000612901613bdd565b6000858152601160209081526040808320600e928390529083205460098201546006830154600784015460088501549585015485548897889788978897889792968796600188019660ff9485169660038a01969495848116946101009004169290916001600160a01b03909116908a9061297a9061433b565b80601f01602080910402602001604051908101604052809291908181526020018280546129a69061433b565b80156129f35780601f106129c8576101008083540402835291602001916129f3565b820191906000526020600020905b8154815290600101906020018083116129d657829003601f168201915b50505050509950888054612a069061433b565b80601f0160208091040260200160405190810160405280929190818152602001828054612a329061433b565b8015612a7f5780601f10612a5457610100808354040283529160200191612a7f565b820191906000526020600020905b815481529060010190602001808311612a6257829003601f168201915b50506040805160608101909152939c508a92506003915060009050835b82821015612b3f578382018054612ab29061433b565b80601f0160208091040260200160405190810160405280929190818152602001828054612ade9061433b565b8015612b2b5780601f10612b0057610100808354040283529160200191612b2b565b820191906000526020600020905b815481529060010190602001808311612b0e57829003601f168201915b505050505081526020019060010190612a9c565b5050505096509a509a509a509a509a509a509a509a509a509a50509193959799509193959799565b612b6f613973565b6001600160a01b0382166000908152600a6020526040902054811115612bcd5760405162461bcd60e51b8152602060048201526013602482015272105b5bdd5b9d08195e18d959591cc81919589d606a1b6044820152606401610b66565b6001600160a01b0382166000908152600a602052604081208054839290612bf590849061428c565b90915550506040516323b872dd60e01b81526001600160a01b038381166004830152306024830152604482018390527f000000000000000000000000000000000000000000000000000000000000000016906323b872dd906064016020604051808303816000875af1158015612c6f573d6000803e3d6000fd5b505050506040513d601f19601f82011682018060405250810190612c939190614528565b612cd25760405162461bcd60e51b815260206004820152601060248201526f14995c185e5b595b9d0819985a5b195960821b6044820152606401610b66565b816001600160a01b03167f8a073c194e1ccdf6688351ac0e3fa50683a2a88723662368bdb9c18064a0304e826040516116f891815260200190565b612d15613973565b600081118015612d2757506103e88111155b612d6a5760405162461bcd60e51b8152602060048201526014602482015273496e76616c696420706f696e74732076616c756560601b6044820152606401610b66565b600555565b612d77613973565b6103e8811115612db85760405162461bcd60e51b815260206004820152600c60248201526b08ccaca40e8dede40d0d2ced60a31b6044820152606401610b66565b600355565b612dc5613973565b600655565b612dd2613973565b6001600160a01b038216612e285760405162461bcd60e51b815260206004820152601860248201527f496e76616c6964207265736f6c766572206164647265737300000000000000006044820152606401610b66565b6001600160a01b038216600081815260136020908152604091829020805460ff191685151590811790915591519182527f287574cf078fb59442fa4e01830412374e9c38ff02733f8d1e2afc3f2325eb4891016116f8565b612e88613973565b6001600160a01b038216612ed05760405162461bcd60e51b815260206004820152600f60248201526e496e76616c6964206164647265737360881b6044820152606401610b66565b60405163a9059cbb60e01b81526001600160a01b0383811660048301526024820183905284169063a9059cbb906044016020604051808303816000875af1158015612f1f573d6000803e3d6000fd5b505050506040513d601f19601f820116820180604052508101906121ce9190614528565b612f4b613a13565b612f536139cd565b60008381526011602052604090206004548410612f825760405162461bcd60e51b8152600401610b6690614545565b600781015460ff16158015612fa157506007810154610100900460ff16155b612fbd5760405162461bcd60e51b8152600401610b66906142d8565b806006015442106130105760405162461bcd60e51b815260206004820152601b60248201527f42657474696e6720646561646c696e65206861732070617373656400000000006044820152606401610b66565b600383106130555760405162461bcd60e51b8152602060048201526012602482015271125b9d985b1a59081bdd5d18dbdb5948125160721b6044820152606401610b66565b600082116130a55760405162461bcd60e51b815260206004820152601760248201527f416d6f756e74206d75737420626520706f7369746976650000000000000000006044820152606401610b66565b60006130d27f0000000000000000000000000000000000000000000000000000000000000000600a614656565b6130dd90600161429f565b9050600061310c7f0000000000000000000000000000000000000000000000000000000000000000600a614656565b6131189061271061429f565b905081841015801561312a5750808411155b61316d5760405162461bcd60e51b8152602060048201526014602482015273416d6f756e74206f7574206f6620626f756e647360601b6044820152606401610b66565b6040516323b872dd60e01b8152336004820152306024820152604481018590527f00000000000000000000000000000000000000000000000000000000000000006001600160a01b0316906323b872dd906064016020604051808303816000875af11580156131e0573d6000803e3d6000fd5b505050506040513d601f19601f820116820180604052508101906132049190614528565b6132485760405162461bcd60e51b8152602060048201526015602482015274151bdad95b881d1c985b9cd9995c8819985a5b1959605a1b6044820152606401610b66565b6000868152601260209081526040808320338452909152812054900361330b576040516370a0823160e01b81523360048201527f00000000000000000000000000000000000000000000000000000000000000006001600160a01b0316906370a0823190602401602060405180830381865afa1580156132cc573d6000803e3d6000fd5b505050506040513d601f19601f820116820180604052508101906132f091906144ce565b60008781526012602090815260408083203384529091529020555b8383600901600082825461331f919061430f565b90915550849050600b8401866003811061333b5761333b614260565b01600082825461334b919061430f565b9091555050336000908152600f8401602052604090208490866003811061337457613374614260565b016000828254613384919061430f565b90915550600090506133b77f0000000000000000000000000000000000000000000000000000000000000000600a614656565b6005546133c4908761429f565b6133ce91906142b6565b6040516370a0823160e01b81523360048201529091506000906001600160a01b037f000000000000000000000000000000000000000000000000000000000000000016906370a0823190602401602060405180830381865afa158015613438573d6000803e3d6000fd5b505050506040513d601f19601f8201168201806040525081019061345c91906144ce565b6040805189815260208101899052908101829052909150339089907fab2115bac1de808eb7fe2be0309085b11f1f42b1eb980de8352efefdbfc098e29060600160405180910390a3604080518981526020810184905233917f4b97a5e5e9b332836eea24e70b760c1ffce3041c0eb15309837d180f8bfff26a910160405180910390a26000888152600e602052604090205460ff161561352c5760405188815233907fc7cef681ee4e9b064e67dcb5d564e1378ae41c9e65da8e232b1f5cd8662253259060200160405180910390a25b505050505061353a60018055565b505050565b3360009081526013602052604090205460ff168061356757506000546001600160a01b031633145b6135af5760405162461bcd60e51b81526020600482015260196024820152784e6f7420617574686f72697a656420746f207265736f6c766560381b6044820152606401610b66565b6000828152601160205260409020600781015460ff161580156135dc57506007810154610100900460ff16155b6135f85760405162461bcd60e51b8152600401610b66906142d8565b600382106136485760405162461bcd60e51b815260206004820152601760248201527f496e76616c69642077696e6e696e67206f7574636f6d650000000000000000006044820152606401610b66565b80600601544210156136935760405162461bcd60e51b8152602060048201526014602482015273111958591b1a5b99481b9bdd081c995858da195960621b6044820152606401610b66565b600081600b0183600381106136aa576136aa614260565b0154116136f95760405162461bcd60e51b815260206004820152601a60248201527f4e6f2062657473206f6e2077696e6e696e67206f7574636f6d650000000000006044820152606401610b66565b61370283612391565b6137455760405162461bcd60e51b8152602060048201526014602482015273111d595b081a5cc81b9bdd0818985b185b98d95960621b6044820152606401610b66565b60408051602080820186905281830185905282518083038401815260609092019092528051910120600061377c620151804261430f565b600083815260106020908152604091829020839055815187815290810183905291925086917fcc684ba03c326954c633140f1fc4ead5adb1243a9675fef4bbe39f56e84631589101610d2a565b6137d1613973565b6001600160a01b0381166138275760405162461bcd60e51b815260206004820152601d60248201527f4e6577206f776e657220697320746865207a65726f20616464726573730000006044820152606401610b66565b61164381613abe565b336000908152600f602052604090205460ff168061385857506000546001600160a01b031633145b6138a45760405162461bcd60e51b815260206004820152601860248201527f4e6f7420617574686f72697a6564206d6f64657261746f7200000000000000006044820152606401610b66565b60045482106138c55760405162461bcd60e51b8152600401610b6690614545565b6000828152600e6020908152604091829020805460ff1916841515908117909155915191825283917ff55821ceba42951b9aa03907b558e1375e504ced6c60bbdf3025384eb0d5131891016116f8565b61391d613c04565b50604080516060810182526000938452601160209081528285206001600160a01b0394909416808652600f9094018082528386208054845260018101548385015294909552939093526002909101549082015290565b6000546001600160a01b031633146117145760405162461bcd60e51b815260206004820181905260248201527f4f776e61626c653a2063616c6c6572206973206e6f7420746865206f776e65726044820152606401610b66565b60025460ff16156117145760405162461bcd60e51b815260206004820152601060248201526f14185d5cd8589b194e881c185d5cd95960821b6044820152606401610b66565b600260015403613a655760405162461bcd60e51b815260206004820152601f60248201527f5265656e7472616e637947756172643a207265656e7472616e742063616c6c006044820152606401610b66565b6002600155565b613a74613b4b565b6002805460ff191690557f5db9ee0a495bf2e6ff9c91a7834c1ba4fdd244a5e8aa4e537bd38aeae4b073aa335b6040516001600160a01b03909116815260200160405180910390a1565b600080546001600160a01b038381166001600160a01b0319831681178455604051919092169283917f8be0079c531659141344cd1fd0a4f28419497f9722a3daafe3b4186f6b6457e09190a35050565b613b166139cd565b6002805460ff191660011790557f62e78cea01bee320cd4e420270b5ea74000d11b0c9f74754ebdbfc544b05a258613aa13390565b60025460ff166117145760405162461bcd60e51b815260206004820152601460248201527314185d5cd8589b194e881b9bdd081c185d5cd95960621b6044820152606401610b66565b8260038101928215613bcd579160200282015b82811115613bcd5782518290613bbd90826143c3565b5091602001919060010190613ba7565b50613bd9929150613c22565b5090565b60405180606001604052806003905b6060815260200190600190039081613bec5790505090565b60405180606001604052806003906020820280368337509192915050565b80821115613bd9576000613c368282613c3f565b50600101613c22565b508054613c4b9061433b565b6000825580601f10613c5b575050565b601f01602090049060005260206000209081019061164391905b80821115613bd95760008155600101613c75565b80356001600160a01b0381168114613ca057600080fd5b919050565b600060208284031215613cb757600080fd5b613cc082613c89565b9392505050565b60008060408385031215613cda57600080fd5b82359150613cea60208401613c89565b90509250929050565b60008060408385031215613d0657600080fd5b50508035926020909101359150565b600060208284031215613d2757600080fd5b5035919050565b634e487b7160e01b600052604160045260246000fd5b600082601f830112613d5557600080fd5b813567ffffffffffffffff80821115613d7057613d70613d2e565b604051601f8301601f19908116603f01168101908282118183101715613d9857613d98613d2e565b81604052838152866020858801011115613db157600080fd5b836020870160208301376000602085830101528094505050505092915050565b801515811461164357600080fd5b600082601f830112613df057600080fd5b6040516060810167ffffffffffffffff8282108183111715613e1457613e14613d2e565b816040528291506060850186811115613e2c57600080fd5b855b81811015613e6157803583811115613e465760008081fd5b613e5289828a01613d44565b85525060209384019301613e2e565b50929695505050505050565b600080600080600060a08688031215613e8557600080fd5b853567ffffffffffffffff80821115613e9d57600080fd5b613ea989838a01613d44565b96506020880135915080821115613ebf57600080fd5b613ecb89838a01613d44565b955060408801359150613edd82613dd1565b90935060608701359080821115613ef357600080fd5b50613f0088828901613ddf565b95989497509295608001359392505050565b60008060408385031215613f2557600080fd5b613f2e83613c89565b91506020830135613f3e81613dd1565b809150509250929050565b60008060008060808587031215613f5f57600080fd5b843567ffffffffffffffff80821115613f7757600080fd5b613f8388838901613d44565b95506020870135915080821115613f9957600080fd5b613fa588838901613d44565b94506040870135915080821115613fbb57600080fd5b50613fc887828801613ddf565b949793965093946060013593505050565b600060208284031215613feb57600080fd5b8135613cc081613dd1565b6000815180845260005b8181101561401c57602081850181015186830182015201614000565b506000602082860101526020601f19601f83011685010191505092915050565b60006101408083526140508184018e613ff6565b90508281036020840152614064818d613ff6565b9a1515604084015250506060810197909752941515608087015292151560a086015260c085019190915260e08401526101008301526001600160a01b03166101209091015292915050565b600080604083850312156140c257600080fd5b6140cb83613c89565b946020939093013593505050565b600082606081018360005b60038110156141135783830387526140fd838351613ff6565b60209788019790935091909101906001016140e4565b509095945050505050565b60006101408083526141328184018e613ff6565b90508281036020840152614146818d613ff6565b90508a151560408401528281036060840152614162818b6140d9565b6080840199909952505060a081019590955292151560c085015290151560e08401526101008301526001600160a01b031661012090910152949350505050565b6000806000606084860312156141b757600080fd5b6141c084613c89565b92506141ce60208501613c89565b9150604084013590509250925092565b6000806000606084860312156141f357600080fd5b505081359360208301359350604090920135919050565b6000806040838503121561421d57600080fd5b823591506020830135613f3e81613dd1565b60608101818360005b6003811015614257578151835260209283019290910190600101614238565b50505092915050565b634e487b7160e01b600052603260045260246000fd5b634e487b7160e01b600052601160045260246000fd5b8181038181111561178457611784614276565b808202811582820484141761178457611784614276565b6000826142d357634e487b7160e01b600052601260045260246000fd5b500490565b6020808252601c908201527f4475656c206973207265736f6c766564206f722063616e63656c656400000000604082015260600190565b8082018082111561178457611784614276565b60006001820161433457614334614276565b5060010190565b600181811c9082168061434f57607f821691505b60208210810361436f57634e487b7160e01b600052602260045260246000fd5b50919050565b601f82111561353a57600081815260208120601f850160051c8101602086101561439c5750805b601f850160051c820191505b818110156143bb578281556001016143a8565b505050505050565b815167ffffffffffffffff8111156143dd576143dd613d2e565b6143f1816143eb845461433b565b84614375565b602080601f831160018114614426576000841561440e5750858301515b600019600386901b1c1916600185901b1785556143bb565b600085815260208120601f198616915b8281101561445557888601518255948401946001909101908401614436565b50858210156144735787850151600019600388901b60f8161c191681555b5050505050600190811b01905550565b6080815260006144966080830187613ff6565b82810360208401526144a88187613ff6565b905082810360408401526144bc81866140d9565b91505082606083015295945050505050565b6000602082840312156144e057600080fd5b5051919050565b60208082526021908201527f436f6e74726163742068617320696e73756666696369656e742062616c616e636040820152606560f81b606082015260800190565b60006020828403121561453a57600080fd5b8151613cc081613dd1565b602080825260139082015272111d595b08191bd95cc81b9bdd08195e1a5cdd606a1b604082015260600190565b600181815b808511156145ad57816000190482111561459357614593614276565b808516156145a057918102915b93841c9390800290614577565b509250929050565b6000826145c457506001611784565b816145d157506000611784565b81600181146145e757600281146145f15761460d565b6001915050611784565b60ff84111561460257614602614276565b50506001821b611784565b5060208310610133831016604e8410600b8410161715614630575081810a611784565b61463a8383614572565b806000190482111561464e5761464e614276565b029392505050565b6000613cc060ff8416836145b556fea26469706673582212204e465c10f210f74f38624947af9fa41c78a3fc6f9362ffd2080e0050e7fd1e8064736f6c63430008140033","opcodes":"PUSH2 0x100 PUSH1 0x40 MSTORE PUSH2 0x12C PUSH1 0x3 SSTORE PUSH1 0x14 PUSH1 0x5 SSTORE PUSH8 0x8AC7230489E80000 PUSH1 0x8 SSTORE PUSH1 0x9 DUP1 SLOAD PUSH1 0xFF NOT AND PUSH1 0x1 OR SWAP1 SSTORE PUSH8 0x16345785D8A0000 PUSH1 0xC SSTORE CALLVALUE DUP1 ISZERO PUSH3 0x42 JUMPI PUSH1 0x0 DUP1 REVERT JUMPDEST POP PUSH1 0x40 MLOAD PUSH3 0x4B29 CODESIZE SUB DUP1 PUSH3 0x4B29 DUP4 CODECOPY DUP2 ADD PUSH1 0x40 DUP2 SWAP1 MSTORE PUSH3 0x65 SWAP2 PUSH3 0x232 JUMP JUMPDEST PUSH3 0x70 CALLER PUSH3 0x1B3 JUMP JUMPDEST PUSH1 0x1 DUP1 SSTORE PUSH1 0x2 DUP1 SLOAD PUSH1 0xFF NOT AND SWAP1 SSTORE PUSH1 0x1 PUSH1 0x1 PUSH1 0xA0 SHL SUB DUP5 AND PUSH3 0xDA JUMPI PUSH1 0x40 MLOAD PUSH3 0x461BCD PUSH1 0xE5 SHL DUP2 MSTORE PUSH1 0x20 PUSH1 0x4 DUP3 ADD MSTORE PUSH1 0x15 PUSH1 0x24 DUP3 ADD MSTORE PUSH32 0x496E76616C69642062657474696E6720746F6B656E0000000000000000000000 PUSH1 0x44 DUP3 ADD MSTORE PUSH1 0x64 ADD JUMPDEST PUSH1 0x40 MLOAD DUP1 SWAP2 SUB SWAP1 REVERT JUMPDEST PUSH1 0x1 PUSH1 0x1 PUSH1 0xA0 SHL SUB DUP4 AND PUSH3 0x126 JUMPI PUSH1 0x40 MLOAD PUSH3 0x461BCD PUSH1 0xE5 SHL DUP2 MSTORE PUSH1 0x20 PUSH1 0x4 DUP3 ADD MSTORE PUSH1 0x11 PUSH1 0x24 DUP3 ADD MSTORE PUSH17 0x24B73B30B634B2103330B7103A37B5B2B7 PUSH1 0x79 SHL PUSH1 0x44 DUP3 ADD MSTORE PUSH1 0x64 ADD PUSH3 0xD1 JUMP JUMPDEST PUSH1 0x1 PUSH1 0x1 PUSH1 0xA0 SHL SUB DUP1 DUP6 AND PUSH1 0x80 MSTORE DUP4 AND PUSH1 0xA0 MSTORE PUSH1 0xFF DUP1 DUP4 AND PUSH1 0xC0 MSTORE DUP2 AND PUSH1 0xE0 MSTORE PUSH3 0x153 DUP3 PUSH1 0xA PUSH3 0x3A4 JUMP JUMPDEST PUSH3 0x160 SWAP1 PUSH1 0x64 PUSH3 0x3BC JUMP JUMPDEST PUSH1 0x6 SSTORE POP POP CALLER PUSH1 0x0 DUP2 DUP2 MSTORE PUSH1 0x13 PUSH1 0x20 SWAP1 DUP2 MSTORE PUSH1 0x40 DUP1 DUP4 KECCAK256 DUP1 SLOAD PUSH1 0x1 PUSH1 0xFF NOT SWAP2 DUP3 AND DUP2 OR SWAP1 SWAP3 SSTORE PUSH1 0xF SWAP1 SWAP4 MSTORE SWAP3 KECCAK256 DUP1 SLOAD SWAP1 SWAP2 AND SWAP1 SWAP2 OR SWAP1 SSTORE PUSH1 0xB DUP1 SLOAD PUSH1 0x1 PUSH1 0x1 PUSH1 0xA0 SHL SUB NOT AND SWAP1 SWAP2 OR SWAP1 SSTORE POP PUSH3 0x3D6 SWAP1 POP JUMP JUMPDEST PUSH1 0x0 DUP1 SLOAD PUSH1 0x1 PUSH1 0x1 PUSH1 0xA0 SHL SUB DUP4 DUP2 AND PUSH1 0x1 PUSH1 0x1 PUSH1 0xA0 SHL SUB NOT DUP4 AND DUP2 OR DUP5 SSTORE PUSH1 0x40 MLOAD SWAP2 SWAP1 SWAP3 AND SWAP3 DUP4 SWAP2 PUSH32 0x8BE0079C531659141344CD1FD0A4F28419497F9722A3DAAFE3B4186F6B6457E0 SWAP2 SWAP1 LOG3 POP POP JUMP JUMPDEST DUP1 MLOAD PUSH1 0x1 PUSH1 0x1 PUSH1 0xA0 SHL SUB DUP2 AND DUP2 EQ PUSH3 0x21B JUMPI PUSH1 0x0 DUP1 REVERT JUMPDEST SWAP2 SWAP1 POP JUMP JUMPDEST DUP1 MLOAD PUSH1 0xFF DUP2 AND DUP2 EQ PUSH3 0x21B JUMPI PUSH1 0x0 DUP1 REVERT JUMPDEST PUSH1 0x0 DUP1 PUSH1 0x0 DUP1 PUSH1 0x80 DUP6 DUP8 SUB SLT ISZERO PUSH3 0x249 JUMPI PUSH1 0x0 DUP1 REVERT JUMPDEST PUSH3 0x254 DUP6 PUSH3 0x203 JUMP JUMPDEST SWAP4 POP PUSH3 0x264 PUSH1 0x20 DUP7 ADD PUSH3 0x203 JUMP JUMPDEST SWAP3 POP PUSH3 0x274 PUSH1 0x40 DUP7 ADD PUSH3 0x220 JUMP JUMPDEST SWAP2 POP PUSH3 0x284 PUSH1 0x60 DUP7 ADD PUSH3 0x220 JUMP JUMPDEST SWAP1 POP SWAP3 SWAP6 SWAP2 SWAP5 POP SWAP3 POP JUMP JUMPDEST PUSH4 0x4E487B71 PUSH1 0xE0 SHL PUSH1 0x0 MSTORE PUSH1 0x11 PUSH1 0x4 MSTORE PUSH1 0x24 PUSH1 0x0 REVERT JUMPDEST PUSH1 0x1 DUP2 DUP2 JUMPDEST DUP1 DUP6 GT ISZERO PUSH3 0x2E6 JUMPI DUP2 PUSH1 0x0 NOT DIV DUP3 GT ISZERO PUSH3 0x2CA JUMPI PUSH3 0x2CA PUSH3 0x28F JUMP JUMPDEST DUP1 DUP6 AND ISZERO PUSH3 0x2D8 JUMPI SWAP2 DUP2 MUL SWAP2 JUMPDEST SWAP4 DUP5 SHR SWAP4 SWAP1 DUP1 MUL SWAP1 PUSH3 0x2AA JUMP JUMPDEST POP SWAP3 POP SWAP3 SWAP1 POP JUMP JUMPDEST PUSH1 0x0 DUP3 PUSH3 0x2FF JUMPI POP PUSH1 0x1 PUSH3 0x39E JUMP JUMPDEST DUP2 PUSH3 0x30E JUMPI POP PUSH1 0x0 PUSH3 0x39E JUMP JUMPDEST DUP2 PUSH1 0x1 DUP2 EQ PUSH3 0x327 JUMPI PUSH1 0x2 DUP2 EQ PUSH3 0x332 JUMPI PUSH3 0x352 JUMP JUMPDEST PUSH1 0x1 SWAP2 POP POP PUSH3 0x39E JUMP JUMPDEST PUSH1 0xFF DUP5 GT ISZERO PUSH3 0x346 JUMPI PUSH3 0x346 PUSH3 0x28F JUMP JUMPDEST POP POP PUSH1 0x1 DUP3 SHL PUSH3 0x39E JUMP JUMPDEST POP PUSH1 0x20 DUP4 LT PUSH2 0x133 DUP4 LT AND PUSH1 0x4E DUP5 LT PUSH1 0xB DUP5 LT AND OR ISZERO PUSH3 0x377 JUMPI POP DUP2 DUP2 EXP PUSH3 0x39E JUMP JUMPDEST PUSH3 0x383 DUP4 DUP4 PUSH3 0x2A5 JUMP JUMPDEST DUP1 PUSH1 0x0 NOT DIV DUP3 GT ISZERO PUSH3 0x39A JUMPI PUSH3 0x39A PUSH3 0x28F JUMP JUMPDEST MUL SWAP1 POP JUMPDEST SWAP3 SWAP2 POP POP JUMP JUMPDEST PUSH1 0x0 PUSH3 0x3B5 PUSH1 0xFF DUP5 AND DUP4 PUSH3 0x2EE JUMP JUMPDEST SWAP4 SWAP3 POP POP POP JUMP JUMPDEST DUP1 DUP3 MUL DUP2 ISZERO DUP3 DUP3 DIV DUP5 EQ OR PUSH3 0x39E JUMPI PUSH3 0x39E PUSH3 0x28F JUMP JUMPDEST PUSH1 0x80 MLOAD PUSH1 0xA0 MLOAD PUSH1 0xC0 MLOAD PUSH1 0xE0 MLOAD PUSH2 0x469B PUSH3 0x48E PUSH1 0x0 CODECOPY PUSH1 0x0 DUP2 DUP2 PUSH2 0x445 ADD MSTORE DUP2 DUP2 PUSH2 0x30AC ADD MSTORE DUP2 DUP2 PUSH2 0x30E6 ADD MSTORE PUSH2 0x3391 ADD MSTORE PUSH1 0x0 PUSH2 0x6C2 ADD MSTORE PUSH1 0x0 DUP2 DUP2 PUSH2 0x66D ADD MSTORE DUP2 DUP2 PUSH2 0x860 ADD MSTORE DUP2 DUP2 PUSH2 0x1DAF ADD MSTORE DUP2 DUP2 PUSH2 0x327D ADD MSTORE PUSH2 0x33F1 ADD MSTORE PUSH1 0x0 DUP2 DUP2 PUSH2 0x4B0 ADD MSTORE DUP2 DUP2 PUSH2 0x541 ADD MSTORE DUP2 DUP2 PUSH2 0x149C ADD MSTORE DUP2 DUP2 PUSH2 0x1541 ADD MSTORE DUP2 DUP2 PUSH2 0x1939 ADD MSTORE DUP2 DUP2 PUSH2 0x19E6 ADD MSTORE DUP2 DUP2 PUSH2 0x1EBA ADD MSTORE DUP2 DUP2 PUSH2 0x1FAB ADD MSTORE DUP2 DUP2 PUSH2 0x273A ADD MSTORE DUP2 DUP2 PUSH2 0x2808 ADD MSTORE DUP2 DUP2 PUSH2 0x2C26 ADD MSTORE PUSH2 0x318F ADD MSTORE PUSH2 0x469B PUSH1 0x0 RETURN INVALID PUSH1 0x80 PUSH1 0x40 MSTORE CALLVALUE DUP1 ISZERO PUSH2 0x10 JUMPI PUSH1 0x0 DUP1 REVERT JUMPDEST POP PUSH1 0x4 CALLDATASIZE LT PUSH2 0x3DB JUMPI PUSH1 0x0 CALLDATALOAD PUSH1 0xE0 SHR DUP1 PUSH4 0x8456CB59 GT PUSH2 0x20A JUMPI DUP1 PUSH4 0xC8D5BA80 GT PUSH2 0x125 JUMPI DUP1 PUSH4 0xE63EA408 GT PUSH2 0xB8 JUMPI DUP1 PUSH4 0xEDC68720 GT PUSH2 0x87 JUMPI DUP1 PUSH4 0xEDC68720 EQ PUSH2 0x954 JUMPI DUP1 PUSH4 0xF2FDE38B EQ PUSH2 0x95D JUMPI DUP1 PUSH4 0xF4365752 EQ PUSH2 0x970 JUMPI DUP1 PUSH4 0xF50DDBC7 EQ PUSH2 0x983 JUMPI DUP1 PUSH4 0xFA744DD3 EQ PUSH2 0x9A3 JUMPI PUSH1 0x0 DUP1 REVERT JUMPDEST DUP1 PUSH4 0xE63EA408 EQ PUSH2 0x911 JUMPI DUP1 PUSH4 0xE71C9697 EQ PUSH2 0x924 JUMPI DUP1 PUSH4 0xEAC74039 EQ PUSH2 0x937 JUMPI DUP1 PUSH4 0xED798FEC EQ PUSH2 0x941 JUMPI PUSH1 0x0 DUP1 REVERT JUMPDEST DUP1 PUSH4 0xD860455B GT PUSH2 0xF4 JUMPI DUP1 PUSH4 0xD860455B EQ PUSH2 0x8DA JUMPI DUP1 PUSH4 0xDADAD0F3 EQ PUSH2 0x8E2 JUMPI DUP1 PUSH4 0xDAF19F2B EQ PUSH2 0x8F5 JUMPI DUP1 PUSH4 0xDE2F6A4F EQ PUSH2 0x8FE JUMPI PUSH1 0x0 DUP1 REVERT JUMPDEST DUP1 PUSH4 0xC8D5BA80 EQ PUSH2 0x85E JUMPI DUP1 PUSH4 0xCAB230D2 EQ PUSH2 0x884 JUMPI DUP1 PUSH4 0xCF2DA5F3 EQ PUSH2 0x897 JUMPI DUP1 PUSH4 0xD794D2D9 EQ PUSH2 0x8B7 JUMPI PUSH1 0x0 DUP1 REVERT JUMPDEST DUP1 PUSH4 0xA24AA6E0 GT PUSH2 0x19D JUMPI DUP1 PUSH4 0xAF6F4BCE GT PUSH2 0x16C JUMPI DUP1 PUSH4 0xAF6F4BCE EQ PUSH2 0x806 JUMPI DUP1 PUSH4 0xBA263A0A EQ PUSH2 0x82F JUMPI DUP1 PUSH4 0xBA973E44 EQ PUSH2 0x842 JUMPI DUP1 PUSH4 0xC50809D3 EQ PUSH2 0x84B JUMPI PUSH1 0x0 DUP1 REVERT JUMPDEST DUP1 PUSH4 0xA24AA6E0 EQ PUSH2 0x79E JUMPI DUP1 PUSH4 0xAD3B1B47 EQ PUSH2 0x7C1 JUMPI DUP1 PUSH4 0xAE5FD784 EQ PUSH2 0x7D4 JUMPI DUP1 PUSH4 0xAEEFE31F EQ PUSH2 0x7DD JUMPI PUSH1 0x0 DUP1 REVERT JUMPDEST DUP1 PUSH4 0x8DA5CB5B GT PUSH2 0x1D9 JUMPI DUP1 PUSH4 0x8DA5CB5B EQ PUSH2 0x731 JUMPI DUP1 PUSH4 0x9B0D1036 EQ PUSH2 0x742 JUMPI DUP1 PUSH4 0xA08E25B4 EQ PUSH2 0x76B JUMPI DUP1 PUSH4 0xA24A27BC EQ PUSH2 0x77E JUMPI PUSH1 0x0 DUP1 REVERT JUMPDEST DUP1 PUSH4 0x8456CB59 EQ PUSH2 0x6E4 JUMPI DUP1 PUSH4 0x859A62D0 EQ PUSH2 0x6EC JUMPI DUP1 PUSH4 0x8931ECD0 EQ PUSH2 0x715 JUMPI DUP1 PUSH4 0x8C639A85 EQ PUSH2 0x728 JUMPI PUSH1 0x0 DUP1 REVERT JUMPDEST DUP1 PUSH4 0x4D6D50C5 GT PUSH2 0x2FA JUMPI DUP1 PUSH4 0x6FCB48A5 GT PUSH2 0x28D JUMPI DUP1 PUSH4 0x7689279C GT PUSH2 0x25C JUMPI DUP1 PUSH4 0x7689279C EQ PUSH2 0x68F JUMPI DUP1 PUSH4 0x779DB8AA EQ PUSH2 0x6A2 JUMPI DUP1 PUSH4 0x79E92D25 EQ PUSH2 0x6AA JUMPI DUP1 PUSH4 0x7E06A617 EQ PUSH2 0x6BD JUMPI PUSH1 0x0 DUP1 REVERT JUMPDEST DUP1 PUSH4 0x6FCB48A5 EQ PUSH2 0x622 JUMPI DUP1 PUSH4 0x715018A6 EQ PUSH2 0x635 JUMPI DUP1 PUSH4 0x74C94BB9 EQ PUSH2 0x63D JUMPI DUP1 PUSH4 0x75DAA3DE EQ PUSH2 0x668 JUMPI PUSH1 0x0 DUP1 REVERT JUMPDEST DUP1 PUSH4 0x5C975ABB GT PUSH2 0x2C9 JUMPI DUP1 PUSH4 0x5C975ABB EQ PUSH2 0x5F1 JUMPI DUP1 PUSH4 0x5FE6C08D EQ PUSH2 0x5FC JUMPI DUP1 PUSH4 0x67D81740 EQ PUSH2 0x60F JUMPI DUP1 PUSH4 0x698A4957 EQ PUSH2 0x618 JUMPI PUSH1 0x0 DUP1 REVERT JUMPDEST DUP1 PUSH4 0x4D6D50C5 EQ PUSH2 0x595 JUMPI DUP1 PUSH4 0x4E15AA67 EQ PUSH2 0x5A8 JUMPI DUP1 PUSH4 0x549EC614 EQ PUSH2 0x5D5 JUMPI DUP1 PUSH4 0x5B7BAF64 EQ PUSH2 0x5DE JUMPI PUSH1 0x0 DUP1 REVERT JUMPDEST DUP1 PUSH4 0x36DC9EC6 GT PUSH2 0x372 JUMPI DUP1 PUSH4 0x43425E88 GT PUSH2 0x341 JUMPI DUP1 PUSH4 0x43425E88 EQ PUSH2 0x53C JUMPI DUP1 PUSH4 0x4692C962 EQ PUSH2 0x563 JUMPI DUP1 PUSH4 0x4952CE76 EQ PUSH2 0x584 JUMPI DUP1 PUSH4 0x4C9C3F85 EQ PUSH2 0x58D JUMPI PUSH1 0x0 DUP1 REVERT JUMPDEST DUP1 PUSH4 0x36DC9EC6 EQ PUSH2 0x4FB JUMPI DUP1 PUSH4 0x3809AE17 EQ PUSH2 0x50E JUMPI DUP1 PUSH4 0x3EE2B01D EQ PUSH2 0x521 JUMPI DUP1 PUSH4 0x3F4BA83A EQ PUSH2 0x534 JUMPI PUSH1 0x0 DUP1 REVERT JUMPDEST DUP1 PUSH4 0x20D8CBD0 GT PUSH2 0x3AE JUMPI DUP1 PUSH4 0x20D8CBD0 EQ PUSH2 0x48E JUMPI DUP1 PUSH4 0x253E35FC EQ PUSH2 0x49B JUMPI DUP1 PUSH4 0x29CF655B EQ PUSH2 0x4AE JUMPI DUP1 PUSH4 0x2F0C45FD EQ PUSH2 0x4E8 JUMPI PUSH1 0x0 DUP1 REVERT JUMPDEST DUP1 PUSH4 0x14D0F1BA EQ PUSH2 0x3E0 JUMPI DUP1 PUSH4 0x1713ECBC EQ PUSH2 0x418 JUMPI DUP1 PUSH4 0x19AB9BD8 EQ PUSH2 0x440 JUMPI DUP1 PUSH4 0x1F528480 EQ PUSH2 0x479 JUMPI JUMPDEST PUSH1 0x0 DUP1 REVERT JUMPDEST PUSH2 0x403 PUSH2 0x3EE CALLDATASIZE PUSH1 0x4 PUSH2 0x3CA5 JUMP JUMPDEST PUSH1 0xF PUSH1 0x20 MSTORE PUSH1 0x0 SWAP1 DUP2 MSTORE PUSH1 0x40 SWAP1 KECCAK256 SLOAD PUSH1 0xFF AND DUP2 JUMP JUMPDEST PUSH1 0x40 MLOAD SWAP1 ISZERO ISZERO DUP2 MSTORE PUSH1 0x20 ADD JUMPDEST PUSH1 0x40 MLOAD DUP1 SWAP2 SUB SWAP1 RETURN JUMPDEST PUSH2 0x42B PUSH2 0x426 CALLDATASIZE PUSH1 0x4 PUSH2 0x3CC7 JUMP JUMPDEST PUSH2 0x9C3 JUMP JUMPDEST PUSH1 0x40 DUP1 MLOAD SWAP3 DUP4 MSTORE PUSH1 0x20 DUP4 ADD SWAP2 SWAP1 SWAP2 MSTORE ADD PUSH2 0x40F JUMP JUMPDEST PUSH2 0x467 PUSH32 0x0 DUP2 JUMP JUMPDEST PUSH1 0x40 MLOAD PUSH1 0xFF SWAP1 SWAP2 AND DUP2 MSTORE PUSH1 0x20 ADD PUSH2 0x40F JUMP JUMPDEST PUSH2 0x48C PUSH2 0x487 CALLDATASIZE PUSH1 0x4 PUSH2 0x3CF3 JUMP JUMPDEST PUSH2 0xAFA JUMP JUMPDEST STOP JUMPDEST PUSH1 0x9 SLOAD PUSH2 0x403 SWAP1 PUSH1 0xFF AND DUP2 JUMP JUMPDEST PUSH2 0x48C PUSH2 0x4A9 CALLDATASIZE PUSH1 0x4 PUSH2 0x3D15 JUMP JUMPDEST PUSH2 0xD39 JUMP JUMPDEST PUSH32 0x0 JUMPDEST PUSH1 0x40 MLOAD PUSH1 0x1 PUSH1 0x1 PUSH1 0xA0 SHL SUB SWAP1 SWAP2 AND DUP2 MSTORE PUSH1 0x20 ADD PUSH2 0x40F JUMP JUMPDEST PUSH1 0xB SLOAD PUSH2 0x4D0 SWAP1 PUSH1 0x1 PUSH1 0x1 PUSH1 0xA0 SHL SUB AND DUP2 JUMP JUMPDEST PUSH2 0x48C PUSH2 0x509 CALLDATASIZE PUSH1 0x4 PUSH2 0x3E6D JUMP JUMPDEST PUSH2 0xEB7 JUMP JUMPDEST PUSH2 0x48C PUSH2 0x51C CALLDATASIZE PUSH1 0x4 PUSH2 0x3D15 JUMP JUMPDEST PUSH2 0x11BC JUMP JUMPDEST PUSH2 0x48C PUSH2 0x52F CALLDATASIZE PUSH1 0x4 PUSH2 0x3F12 JUMP JUMPDEST PUSH2 0x1646 JUMP JUMPDEST PUSH2 0x48C PUSH2 0x1704 JUMP JUMPDEST PUSH2 0x4D0 PUSH32 0x0 DUP2 JUMP JUMPDEST PUSH2 0x576 PUSH2 0x571 CALLDATASIZE PUSH1 0x4 PUSH2 0x3CF3 JUMP JUMPDEST PUSH2 0x1716 JUMP JUMPDEST PUSH1 0x40 MLOAD SWAP1 DUP2 MSTORE PUSH1 0x20 ADD PUSH2 0x40F JUMP JUMPDEST PUSH2 0x576 PUSH1 0x7 SLOAD DUP2 JUMP JUMPDEST PUSH1 0x3 SLOAD PUSH2 0x576 JUMP JUMPDEST PUSH2 0x48C PUSH2 0x5A3 CALLDATASIZE PUSH1 0x4 PUSH2 0x3D15 JUMP JUMPDEST PUSH2 0x178A JUMP JUMPDEST PUSH2 0x403 PUSH2 0x5B6 CALLDATASIZE PUSH1 0x4 PUSH2 0x3CA5 JUMP JUMPDEST PUSH1 0x1 PUSH1 0x1 PUSH1 0xA0 SHL SUB AND PUSH1 0x0 SWAP1 DUP2 MSTORE PUSH1 0xD PUSH1 0x20 MSTORE PUSH1 0x40 SWAP1 KECCAK256 SLOAD PUSH1 0x64 GT ISZERO SWAP1 JUMP JUMPDEST PUSH2 0x576 PUSH1 0x4 SLOAD DUP2 JUMP JUMPDEST PUSH2 0x48C PUSH2 0x5EC CALLDATASIZE PUSH1 0x4 PUSH2 0x3D15 JUMP JUMPDEST PUSH2 0x17CD JUMP JUMPDEST PUSH1 0x2 SLOAD PUSH1 0xFF AND PUSH2 0x403 JUMP JUMPDEST PUSH2 0x48C PUSH2 0x60A CALLDATASIZE PUSH1 0x4 PUSH2 0x3CA5 JUMP JUMPDEST PUSH2 0x1AD9 JUMP JUMPDEST PUSH2 0x576 PUSH2 0x3E8 DUP2 JUMP JUMPDEST PUSH2 0x576 PUSH3 0x15180 DUP2 JUMP JUMPDEST PUSH2 0x48C PUSH2 0x630 CALLDATASIZE PUSH1 0x4 PUSH2 0x3F49 JUMP JUMPDEST PUSH2 0x1B59 JUMP JUMPDEST PUSH2 0x48C PUSH2 0x21D4 JUMP JUMPDEST PUSH2 0x576 PUSH2 0x64B CALLDATASIZE PUSH1 0x4 PUSH2 0x3CC7 JUMP JUMPDEST PUSH1 0x12 PUSH1 0x20 SWAP1 DUP2 MSTORE PUSH1 0x0 SWAP3 DUP4 MSTORE PUSH1 0x40 DUP1 DUP5 KECCAK256 SWAP1 SWAP2 MSTORE SWAP1 DUP3 MSTORE SWAP1 KECCAK256 SLOAD DUP2 JUMP JUMPDEST PUSH2 0x4D0 PUSH32 0x0 DUP2 JUMP JUMPDEST PUSH2 0x48C PUSH2 0x69D CALLDATASIZE PUSH1 0x4 PUSH2 0x3D15 JUMP JUMPDEST PUSH2 0x21E6 JUMP JUMPDEST PUSH2 0x576 PUSH1 0x32 DUP2 JUMP JUMPDEST PUSH2 0x48C PUSH2 0x6B8 CALLDATASIZE PUSH1 0x4 PUSH2 0x3FD9 JUMP JUMPDEST PUSH2 0x21F3 JUMP JUMPDEST PUSH2 0x467 PUSH32 0x0 DUP2 JUMP JUMPDEST PUSH2 0x48C PUSH2 0x220E JUMP JUMPDEST PUSH2 0x6FF PUSH2 0x6FA CALLDATASIZE PUSH1 0x4 PUSH2 0x3D15 JUMP JUMPDEST PUSH2 0x221E JUMP JUMPDEST PUSH1 0x40 MLOAD PUSH2 0x40F SWAP11 SWAP10 SWAP9 SWAP8 SWAP7 SWAP6 SWAP5 SWAP4 SWAP3 SWAP2 SWAP1 PUSH2 0x403C JUMP JUMPDEST PUSH2 0x403 PUSH2 0x723 CALLDATASIZE PUSH1 0x4 PUSH2 0x3D15 JUMP JUMPDEST PUSH2 0x2391 JUMP JUMPDEST PUSH2 0x576 PUSH1 0x3 SLOAD DUP2 JUMP JUMPDEST PUSH1 0x0 SLOAD PUSH1 0x1 PUSH1 0x1 PUSH1 0xA0 SHL SUB AND PUSH2 0x4D0 JUMP JUMPDEST PUSH2 0x576 PUSH2 0x750 CALLDATASIZE PUSH1 0x4 PUSH2 0x3CA5 JUMP JUMPDEST PUSH1 0x1 PUSH1 0x1 PUSH1 0xA0 SHL SUB AND PUSH1 0x0 SWAP1 DUP2 MSTORE PUSH1 0xA PUSH1 0x20 MSTORE PUSH1 0x40 SWAP1 KECCAK256 SLOAD SWAP1 JUMP JUMPDEST PUSH2 0x48C PUSH2 0x779 CALLDATASIZE PUSH1 0x4 PUSH2 0x3D15 JUMP JUMPDEST PUSH2 0x2470 JUMP JUMPDEST PUSH2 0x576 PUSH2 0x78C CALLDATASIZE PUSH1 0x4 PUSH2 0x3D15 JUMP JUMPDEST PUSH1 0x10 PUSH1 0x20 MSTORE PUSH1 0x0 SWAP1 DUP2 MSTORE PUSH1 0x40 SWAP1 KECCAK256 SLOAD DUP2 JUMP JUMPDEST PUSH2 0x403 PUSH2 0x7AC CALLDATASIZE PUSH1 0x4 PUSH2 0x3D15 JUMP JUMPDEST PUSH1 0xE PUSH1 0x20 MSTORE PUSH1 0x0 SWAP1 DUP2 MSTORE PUSH1 0x40 SWAP1 KECCAK256 SLOAD PUSH1 0xFF AND DUP2 JUMP JUMPDEST PUSH2 0x48C PUSH2 0x7CF CALLDATASIZE PUSH1 0x4 PUSH2 0x40AF JUMP JUMPDEST PUSH2 0x2681 JUMP JUMPDEST PUSH2 0x576 PUSH1 0x8 SLOAD DUP2 JUMP JUMPDEST PUSH2 0x576 PUSH2 0x7EB CALLDATASIZE PUSH1 0x4 PUSH2 0x3CA5 JUMP JUMPDEST PUSH1 0x1 PUSH1 0x1 PUSH1 0xA0 SHL SUB AND PUSH1 0x0 SWAP1 DUP2 MSTORE PUSH1 0xD PUSH1 0x20 MSTORE PUSH1 0x40 SWAP1 KECCAK256 SLOAD SWAP1 JUMP JUMPDEST PUSH2 0x819 PUSH2 0x814 CALLDATASIZE PUSH1 0x4 PUSH2 0x3D15 JUMP JUMPDEST PUSH2 0x28F4 JUMP JUMPDEST PUSH1 0x40 MLOAD PUSH2 0x40F SWAP11 SWAP10 SWAP9 SWAP8 SWAP7 SWAP6 SWAP5 SWAP4 SWAP3 SWAP2 SWAP1 PUSH2 0x411E JUMP JUMPDEST PUSH2 0x48C PUSH2 0x83D CALLDATASIZE PUSH1 0x4 PUSH2 0x40AF JUMP JUMPDEST PUSH2 0x2B67 JUMP JUMPDEST PUSH2 0x576 PUSH1 0x6 SLOAD DUP2 JUMP JUMPDEST PUSH2 0x48C PUSH2 0x859 CALLDATASIZE PUSH1 0x4 PUSH2 0x3D15 JUMP JUMPDEST PUSH2 0x2D0D JUMP JUMPDEST PUSH32 0x0 PUSH2 0x4D0 JUMP JUMPDEST PUSH2 0x48C PUSH2 0x892 CALLDATASIZE PUSH1 0x4 PUSH2 0x3D15 JUMP JUMPDEST PUSH2 0x2D6F JUMP JUMPDEST PUSH2 0x576 PUSH2 0x8A5 CALLDATASIZE PUSH1 0x4 PUSH2 0x3CA5 JUMP JUMPDEST PUSH1 0xA PUSH1 0x20 MSTORE PUSH1 0x0 SWAP1 DUP2 MSTORE PUSH1 0x40 SWAP1 KECCAK256 SLOAD DUP2 JUMP JUMPDEST PUSH2 0x403 PUSH2 0x8C5 CALLDATASIZE PUSH1 0x4 PUSH2 0x3CA5 JUMP JUMPDEST PUSH1 0x13 PUSH1 0x20 MSTORE PUSH1 0x0 SWAP1 DUP2 MSTORE PUSH1 0x40 SWAP1 KECCAK256 SLOAD PUSH1 0xFF AND DUP2 JUMP JUMPDEST PUSH2 0x576 PUSH1 0x64 DUP2 JUMP JUMPDEST PUSH2 0x48C PUSH2 0x8F0 CALLDATASIZE PUSH1 0x4 PUSH2 0x3D15 JUMP JUMPDEST PUSH2 0x2DBD JUMP JUMPDEST PUSH2 0x576 PUSH1 0x5 SLOAD DUP2 JUMP JUMPDEST PUSH2 0x48C PUSH2 0x90C CALLDATASIZE PUSH1 0x4 PUSH2 0x3F12 JUMP JUMPDEST PUSH2 0x2DCA JUMP JUMPDEST PUSH2 0x48C PUSH2 0x91F CALLDATASIZE PUSH1 0x4 PUSH2 0x41A2 JUMP JUMPDEST PUSH2 0x2E80 JUMP JUMPDEST PUSH2 0x48C PUSH2 0x932 CALLDATASIZE PUSH1 0x4 PUSH2 0x41DE JUMP JUMPDEST PUSH2 0x2F43 JUMP JUMPDEST PUSH2 0x576 PUSH3 0x278D00 DUP2 JUMP JUMPDEST PUSH2 0x48C PUSH2 0x94F CALLDATASIZE PUSH1 0x4 PUSH2 0x3CF3 JUMP JUMPDEST PUSH2 0x353F JUMP JUMPDEST PUSH2 0x576 PUSH1 0xC SLOAD DUP2 JUMP JUMPDEST PUSH2 0x48C PUSH2 0x96B CALLDATASIZE PUSH1 0x4 PUSH2 0x3CA5 JUMP JUMPDEST PUSH2 0x37C9 JUMP JUMPDEST PUSH2 0x48C PUSH2 0x97E CALLDATASIZE PUSH1 0x4 PUSH2 0x420A JUMP JUMPDEST PUSH2 0x3830 JUMP JUMPDEST PUSH2 0x576 PUSH2 0x991 CALLDATASIZE PUSH1 0x4 PUSH2 0x3CA5 JUMP JUMPDEST PUSH1 0xD PUSH1 0x20 MSTORE PUSH1 0x0 SWAP1 DUP2 MSTORE PUSH1 0x40 SWAP1 KECCAK256 SLOAD DUP2 JUMP JUMPDEST PUSH2 0x9B6 PUSH2 0x9B1 CALLDATASIZE PUSH1 0x4 PUSH2 0x3CC7 JUMP JUMPDEST PUSH2 0x3915 JUMP JUMPDEST PUSH1 0x40 MLOAD PUSH2 0x40F SWAP2 SWAP1 PUSH2 0x422F JUMP JUMPDEST PUSH1 0x0 DUP3 DUP2 MSTORE PUSH1 0x11 PUSH1 0x20 MSTORE PUSH1 0x40 DUP2 KECCAK256 PUSH1 0x7 DUP2 ADD SLOAD DUP3 SWAP2 SWAP1 PUSH1 0xFF AND ISZERO DUP1 PUSH2 0x9F1 JUMPI POP PUSH1 0x7 DUP2 ADD SLOAD PUSH2 0x100 SWAP1 DIV PUSH1 0xFF AND JUMPDEST ISZERO PUSH2 0xA03 JUMPI PUSH1 0x0 DUP1 SWAP3 POP SWAP3 POP POP PUSH2 0xAF3 JUMP JUMPDEST PUSH1 0x8 DUP2 ADD SLOAD PUSH1 0x1 PUSH1 0x1 PUSH1 0xA0 SHL SUB DUP6 AND PUSH1 0x0 SWAP1 DUP2 MSTORE PUSH1 0xF DUP4 ADD PUSH1 0x20 MSTORE PUSH1 0x40 DUP2 KECCAK256 DUP3 PUSH1 0x3 DUP2 LT PUSH2 0xA33 JUMPI PUSH2 0xA33 PUSH2 0x4260 JUMP JUMPDEST ADD SLOAD SWAP1 POP DUP1 PUSH1 0x0 SUB PUSH2 0xA4E JUMPI PUSH1 0x0 DUP1 SWAP5 POP SWAP5 POP POP POP POP PUSH2 0xAF3 JUMP JUMPDEST PUSH1 0x0 DUP4 PUSH1 0xB ADD DUP4 PUSH1 0x3 DUP2 LT PUSH2 0xA65 JUMPI PUSH2 0xA65 PUSH2 0x4260 JUMP JUMPDEST ADD SLOAD SWAP1 POP PUSH1 0x0 DUP5 PUSH1 0xA ADD SLOAD DUP6 PUSH1 0x9 ADD SLOAD PUSH2 0xA7F SWAP2 SWAP1 PUSH2 0x428C JUMP JUMPDEST SWAP1 POP DUP2 PUSH2 0xA8C DUP3 DUP6 PUSH2 0x429F JUMP JUMPDEST PUSH2 0xA96 SWAP2 SWAP1 PUSH2 0x42B6 JUMP JUMPDEST SWAP7 POP DUP3 DUP8 LT ISZERO PUSH2 0xAA4 JUMPI DUP3 SWAP7 POP JUMPDEST PUSH1 0x0 DUP10 DUP2 MSTORE PUSH1 0x12 PUSH1 0x20 SWAP1 DUP2 MSTORE PUSH1 0x40 DUP1 DUP4 KECCAK256 PUSH1 0x1 PUSH1 0x1 PUSH1 0xA0 SHL SUB DUP13 AND DUP5 MSTORE SWAP1 SWAP2 MSTORE SWAP1 KECCAK256 SLOAD PUSH1 0x6 SLOAD DUP2 LT PUSH2 0xAEC JUMPI PUSH2 0x2710 PUSH2 0xADF DUP10 PUSH2 0x1F4 PUSH2 0x429F JUMP JUMPDEST PUSH2 0xAE9 SWAP2 SWAP1 PUSH2 0x42B6 JUMP JUMPDEST SWAP7 POP JUMPDEST POP POP POP POP POP POP JUMPDEST SWAP3 POP SWAP3 SWAP1 POP JUMP JUMPDEST CALLER PUSH1 0x0 SWAP1 DUP2 MSTORE PUSH1 0x13 PUSH1 0x20 MSTORE PUSH1 0x40 SWAP1 KECCAK256 SLOAD PUSH1 0xFF AND DUP1 PUSH2 0xB22 JUMPI POP PUSH1 0x0 SLOAD PUSH1 0x1 PUSH1 0x1 PUSH1 0xA0 SHL SUB AND CALLER EQ JUMPDEST PUSH2 0xB6F JUMPI PUSH1 0x40 MLOAD PUSH3 0x461BCD PUSH1 0xE5 SHL DUP2 MSTORE PUSH1 0x20 PUSH1 0x4 DUP3 ADD MSTORE PUSH1 0x19 PUSH1 0x24 DUP3 ADD MSTORE PUSH25 0x4E6F7420617574686F72697A656420746F207265736F6C7665 PUSH1 0x38 SHL PUSH1 0x44 DUP3 ADD MSTORE PUSH1 0x64 ADD JUMPDEST PUSH1 0x40 MLOAD DUP1 SWAP2 SUB SWAP1 REVERT JUMPDEST PUSH1 0x40 DUP1 MLOAD PUSH1 0x20 DUP1 DUP3 ADD DUP6 SWAP1 MSTORE DUP2 DUP4 ADD DUP5 SWAP1 MSTORE DUP3 MLOAD DUP1 DUP4 SUB DUP5 ADD DUP2 MSTORE PUSH1 0x60 SWAP1 SWAP3 ADD DUP4 MSTORE DUP2 MLOAD SWAP2 DUP2 ADD SWAP2 SWAP1 SWAP2 KECCAK256 PUSH1 0x0 DUP2 DUP2 MSTORE PUSH1 0x10 SWAP1 SWAP3 MSTORE SWAP2 DUP2 KECCAK256 SLOAD SWAP1 SUB PUSH2 0xBEE JUMPI PUSH1 0x40 MLOAD PUSH3 0x461BCD PUSH1 0xE5 SHL DUP2 MSTORE PUSH1 0x20 PUSH1 0x4 DUP3 ADD MSTORE PUSH1 0x15 PUSH1 0x24 DUP3 ADD MSTORE PUSH21 0x2737903832B73234B733903932B9B7B63ABA34B7B7 PUSH1 0x59 SHL PUSH1 0x44 DUP3 ADD MSTORE PUSH1 0x64 ADD PUSH2 0xB66 JUMP JUMPDEST PUSH1 0x0 DUP2 DUP2 MSTORE PUSH1 0x10 PUSH1 0x20 MSTORE PUSH1 0x40 SWAP1 KECCAK256 SLOAD TIMESTAMP LT ISZERO PUSH2 0xC43 JUMPI PUSH1 0x40 MLOAD PUSH3 0x461BCD PUSH1 0xE5 SHL DUP2 MSTORE PUSH1 0x20 PUSH1 0x4 DUP3 ADD MSTORE PUSH1 0x14 PUSH1 0x24 DUP3 ADD MSTORE PUSH20 0x151A5B595B1BD8DAC81B9BDD08195E1C1A5C9959 PUSH1 0x62 SHL PUSH1 0x44 DUP3 ADD MSTORE PUSH1 0x64 ADD PUSH2 0xB66 JUMP JUMPDEST PUSH1 0x0 DUP4 DUP2 MSTORE PUSH1 0x11 PUSH1 0x20 MSTORE PUSH1 0x40 SWAP1 KECCAK256 PUSH1 0x7 DUP2 ADD SLOAD PUSH1 0xFF AND ISZERO DUP1 ISZERO PUSH2 0xC70 JUMPI POP PUSH1 0x7 DUP2 ADD SLOAD PUSH2 0x100 SWAP1 DIV PUSH1 0xFF AND ISZERO JUMPDEST PUSH2 0xC8C JUMPI PUSH1 0x40 MLOAD PUSH3 0x461BCD PUSH1 0xE5 SHL DUP2 MSTORE PUSH1 0x4 ADD PUSH2 0xB66 SWAP1 PUSH2 0x42D8 JUMP JUMPDEST PUSH1 0x0 PUSH2 0x2710 PUSH1 0x3 SLOAD DUP4 PUSH1 0x9 ADD SLOAD PUSH2 0xCA3 SWAP2 SWAP1 PUSH2 0x429F JUMP JUMPDEST PUSH2 0xCAD SWAP2 SWAP1 PUSH2 0x42B6 JUMP JUMPDEST SWAP1 POP DUP1 DUP3 PUSH1 0xA ADD DUP2 SWAP1 SSTORE POP DUP1 PUSH1 0x7 PUSH1 0x0 DUP3 DUP3 SLOAD PUSH2 0xCCA SWAP2 SWAP1 PUSH2 0x430F JUMP JUMPDEST SWAP1 SWAP2 SSTORE POP POP PUSH1 0x7 DUP3 ADD DUP1 SLOAD PUSH1 0xFF NOT AND PUSH1 0x1 OR SWAP1 SSTORE PUSH1 0x8 DUP3 ADD DUP5 SWAP1 SSTORE PUSH1 0x0 DUP4 DUP2 MSTORE PUSH1 0x10 PUSH1 0x20 MSTORE PUSH1 0x40 DUP1 DUP3 KECCAK256 SWAP2 SWAP1 SWAP2 SSTORE MLOAD DUP6 SWAP1 PUSH32 0x147951699DA2828EEF91AD406D09DDD88BE2FBC13C15B98C3228C3D80E6999FF SWAP1 PUSH2 0xD2A SWAP1 DUP8 DUP2 MSTORE PUSH1 0x20 ADD SWAP1 JUMP JUMPDEST PUSH1 0x40 MLOAD DUP1 SWAP2 SUB SWAP1 LOG2 POP POP POP POP POP JUMP JUMPDEST PUSH2 0xD41 PUSH2 0x3973 JUMP JUMPDEST PUSH1 0x0 DUP2 DUP2 MSTORE PUSH1 0x11 PUSH1 0x20 MSTORE PUSH1 0x40 SWAP1 KECCAK256 PUSH1 0x7 DUP2 ADD SLOAD PUSH1 0xFF AND ISZERO DUP1 ISZERO PUSH2 0xD6E JUMPI POP PUSH1 0x7 DUP2 ADD SLOAD PUSH2 0x100 SWAP1 DIV PUSH1 0xFF AND ISZERO JUMPDEST PUSH2 0xDC6 JUMPI PUSH1 0x40 MLOAD PUSH3 0x461BCD PUSH1 0xE5 SHL DUP2 MSTORE PUSH1 0x20 PUSH1 0x4 DUP3 ADD MSTORE PUSH1 0x24 DUP1 DUP3 ADD MSTORE PUSH32 0x4475656C206973207265736F6C766564206F7220616C72656164792063616E63 PUSH1 0x44 DUP3 ADD MSTORE PUSH4 0x195B1959 PUSH1 0xE2 SHL PUSH1 0x64 DUP3 ADD MSTORE PUSH1 0x84 ADD PUSH2 0xB66 JUMP JUMPDEST DUP1 PUSH1 0x6 ADD SLOAD TIMESTAMP LT ISZERO PUSH2 0xE11 JUMPI PUSH1 0x40 MLOAD PUSH3 0x461BCD PUSH1 0xE5 SHL DUP2 MSTORE PUSH1 0x20 PUSH1 0x4 DUP3 ADD MSTORE PUSH1 0x14 PUSH1 0x24 DUP3 ADD MSTORE PUSH20 0x111958591B1A5B99481B9BDD081C995858DA1959 PUSH1 0x62 SHL PUSH1 0x44 DUP3 ADD MSTORE PUSH1 0x64 ADD PUSH2 0xB66 JUMP JUMPDEST PUSH2 0xE1A DUP3 PUSH2 0x2391 JUMP JUMPDEST ISZERO PUSH2 0xE77 JUMPI PUSH1 0x40 MLOAD PUSH3 0x461BCD PUSH1 0xE5 SHL DUP2 MSTORE PUSH1 0x20 PUSH1 0x4 DUP3 ADD MSTORE PUSH1 0x27 PUSH1 0x24 DUP3 ADD MSTORE PUSH32 0x4475656C2069732062616C616E63656420616E642063616E6E6F742062652063 PUSH1 0x44 DUP3 ADD MSTORE PUSH7 0x185B98D95B1959 PUSH1 0xCA SHL PUSH1 0x64 DUP3 ADD MSTORE PUSH1 0x84 ADD PUSH2 0xB66 JUMP JUMPDEST PUSH1 0x7 DUP2 ADD DUP1 SLOAD PUSH2 0xFF00 NOT AND PUSH2 0x100 OR SWAP1 SSTORE PUSH1 0x40 MLOAD DUP3 SWAP1 PUSH32 0xBB08ACBD04FEAFC2C9A5DBFBA32CD5488E51D178EBB70F355C6E0B00CDA5EF87 SWAP1 PUSH1 0x0 SWAP1 LOG2 POP POP JUMP JUMPDEST PUSH2 0xEBF PUSH2 0x3973 JUMP JUMPDEST PUSH2 0xEC7 PUSH2 0x39CD JUMP JUMPDEST PUSH2 0xED3 TIMESTAMP PUSH2 0xE10 PUSH2 0x430F JUMP JUMPDEST DUP2 GT PUSH2 0xF15 JUMPI PUSH1 0x40 MLOAD PUSH3 0x461BCD PUSH1 0xE5 SHL DUP2 MSTORE PUSH1 0x20 PUSH1 0x4 DUP3 ADD MSTORE PUSH1 0x11 PUSH1 0x24 DUP3 ADD MSTORE PUSH17 0x2232B0B23634B732903A37B79039B7B7B7 PUSH1 0x79 SHL PUSH1 0x44 DUP3 ADD MSTORE PUSH1 0x64 ADD PUSH2 0xB66 JUMP JUMPDEST PUSH2 0xF23 TIMESTAMP PUSH4 0x1E13380 PUSH2 0x430F JUMP JUMPDEST DUP2 LT PUSH2 0xF64 JUMPI PUSH1 0x40 MLOAD PUSH3 0x461BCD PUSH1 0xE5 SHL DUP2 MSTORE PUSH1 0x20 PUSH1 0x4 DUP3 ADD MSTORE PUSH1 0x10 PUSH1 0x24 DUP3 ADD MSTORE PUSH16 0x2232B0B23634B732903A37B7903330B9 PUSH1 0x81 SHL PUSH1 0x44 DUP3 ADD MSTORE PUSH1 0x64 ADD PUSH2 0xB66 JUMP JUMPDEST PUSH1 0x0 DUP6 MLOAD GT DUP1 ISZERO PUSH2 0xF77 JUMPI POP PUSH1 0x64 DUP6 MLOAD GT ISZERO JUMPDEST PUSH2 0xFB3 JUMPI PUSH1 0x40 MLOAD PUSH3 0x461BCD PUSH1 0xE5 SHL DUP2 MSTORE PUSH1 0x20 PUSH1 0x4 DUP3 ADD MSTORE PUSH1 0xD PUSH1 0x24 DUP3 ADD MSTORE PUSH13 0x496E76616C6964207469746C65 PUSH1 0x98 SHL PUSH1 0x44 DUP3 ADD MSTORE PUSH1 0x64 ADD PUSH2 0xB66 JUMP JUMPDEST PUSH1 0x0 DUP5 MLOAD GT DUP1 ISZERO PUSH2 0xFC6 JUMPI POP PUSH1 0x32 DUP5 MLOAD GT ISZERO JUMPDEST PUSH2 0x1005 JUMPI PUSH1 0x40 MLOAD PUSH3 0x461BCD PUSH1 0xE5 SHL DUP2 MSTORE PUSH1 0x20 PUSH1 0x4 DUP3 ADD MSTORE PUSH1 0x10 PUSH1 0x24 DUP3 ADD MSTORE PUSH16 0x496E76616C69642063617465676F7279 PUSH1 0x80 SHL PUSH1 0x44 DUP3 ADD MSTORE PUSH1 0x64 ADD PUSH2 0xB66 JUMP JUMPDEST PUSH1 0x0 JUMPDEST PUSH1 0x3 DUP2 LT ISZERO PUSH2 0x10A0 JUMPI PUSH1 0x0 DUP4 DUP3 PUSH1 0x3 DUP2 LT PUSH2 0x1025 JUMPI PUSH2 0x1025 PUSH2 0x4260 JUMP JUMPDEST PUSH1 0x20 MUL ADD MLOAD MLOAD GT DUP1 ISZERO PUSH2 0x1050 JUMPI POP PUSH1 0x32 DUP4 DUP3 PUSH1 0x3 DUP2 LT PUSH2 0x1047 JUMPI PUSH2 0x1047 PUSH2 0x4260 JUMP JUMPDEST PUSH1 0x20 MUL ADD MLOAD MLOAD GT ISZERO JUMPDEST PUSH2 0x108E JUMPI PUSH1 0x40 MLOAD PUSH3 0x461BCD PUSH1 0xE5 SHL DUP2 MSTORE PUSH1 0x20 PUSH1 0x4 DUP3 ADD MSTORE PUSH1 0xF PUSH1 0x24 DUP3 ADD MSTORE PUSH15 0x496E76616C6964206F7574636F6D65 PUSH1 0x88 SHL PUSH1 0x44 DUP3 ADD MSTORE PUSH1 0x64 ADD PUSH2 0xB66 JUMP JUMPDEST DUP1 PUSH2 0x1098 DUP2 PUSH2 0x4322 JUMP JUMPDEST SWAP2 POP POP PUSH2 0x1008 JUMP JUMPDEST POP PUSH1 0x4 SLOAD PUSH1 0x0 DUP2 DUP2 MSTORE PUSH1 0x11 PUSH1 0x20 MSTORE PUSH1 0x40 SWAP1 KECCAK256 DUP1 PUSH2 0x10BD DUP9 DUP3 PUSH2 0x43C3 JUMP JUMPDEST POP PUSH1 0x1 DUP2 ADD PUSH2 0x10CC DUP8 DUP3 PUSH2 0x43C3 JUMP JUMPDEST POP PUSH2 0x10DD PUSH1 0x3 DUP1 DUP4 ADD SWAP1 DUP7 SWAP1 PUSH2 0x3B94 JUMP JUMPDEST POP PUSH1 0x6 DUP2 ADD DUP4 SWAP1 SSTORE PUSH1 0xE DUP2 ADD DUP1 SLOAD PUSH1 0x1 PUSH1 0x1 PUSH1 0xA0 SHL SUB NOT AND CALLER OR SWAP1 SSTORE DUP5 ISZERO PUSH2 0x1119 JUMPI PUSH1 0x0 DUP3 DUP2 MSTORE PUSH1 0xE PUSH1 0x20 MSTORE PUSH1 0x40 SWAP1 KECCAK256 DUP1 SLOAD PUSH1 0xFF NOT AND PUSH1 0x1 OR SWAP1 SSTORE JUMPDEST CALLER PUSH1 0x1 PUSH1 0x1 PUSH1 0xA0 SHL SUB AND DUP3 PUSH32 0x6E3A1184B10D42FD7CFA70094B21ECBD3BB215615FBB7EE4BFA7D1CD8B41C55A DUP10 DUP10 DUP9 DUP9 PUSH1 0x40 MLOAD PUSH2 0x1159 SWAP5 SWAP4 SWAP3 SWAP2 SWAP1 PUSH2 0x4483 JUMP JUMPDEST PUSH1 0x40 MLOAD DUP1 SWAP2 SUB SWAP1 LOG3 DUP5 ISZERO PUSH2 0x119E JUMPI PUSH1 0x40 MLOAD PUSH1 0x1 DUP2 MSTORE DUP3 SWAP1 PUSH32 0xF55821CEBA42951B9AA03907B558E1375E504CED6C60BBDF3025384EB0D51318 SWAP1 PUSH1 0x20 ADD PUSH1 0x40 MLOAD DUP1 SWAP2 SUB SWAP1 LOG2 JUMPDEST PUSH1 0x4 DUP1 SLOAD SWAP1 PUSH1 0x0 PUSH2 0x11AE DUP4 PUSH2 0x4322 JUMP JUMPDEST SWAP2 SWAP1 POP SSTORE POP POP POP POP POP POP POP POP JUMP JUMPDEST PUSH2 0x11C4 PUSH2 0x3A13 JUMP JUMPDEST PUSH1 0x0 DUP2 DUP2 MSTORE PUSH1 0x11 PUSH1 0x20 MSTORE PUSH1 0x40 SWAP1 KECCAK256 PUSH1 0x7 DUP2 ADD SLOAD PUSH1 0xFF AND PUSH2 0x121D JUMPI PUSH1 0x40 MLOAD PUSH3 0x461BCD PUSH1 0xE5 SHL DUP2 MSTORE PUSH1 0x20 PUSH1 0x4 DUP3 ADD MSTORE PUSH1 0x14 PUSH1 0x24 DUP3 ADD MSTORE PUSH20 0x111D595B081A5CC81B9BDD081C995CDBDB1D9959 PUSH1 0x62 SHL PUSH1 0x44 DUP3 ADD MSTORE PUSH1 0x64 ADD PUSH2 0xB66 JUMP JUMPDEST PUSH1 0x7 DUP2 ADD SLOAD PUSH2 0x100 SWAP1 DIV PUSH1 0xFF AND ISZERO PUSH2 0x126A JUMPI PUSH1 0x40 MLOAD PUSH3 0x461BCD PUSH1 0xE5 SHL DUP2 MSTORE PUSH1 0x20 PUSH1 0x4 DUP3 ADD MSTORE PUSH1 0x10 PUSH1 0x24 DUP3 ADD MSTORE PUSH16 0x111D595B081A5CC818D85B98D95B1959 PUSH1 0x82 SHL PUSH1 0x44 DUP3 ADD MSTORE PUSH1 0x64 ADD PUSH2 0xB66 JUMP JUMPDEST CALLER PUSH1 0x0 SWAP1 DUP2 MSTORE PUSH1 0x10 DUP3 ADD PUSH1 0x20 MSTORE PUSH1 0x40 SWAP1 KECCAK256 SLOAD PUSH1 0xFF AND ISZERO PUSH2 0x12BE JUMPI PUSH1 0x40 MLOAD PUSH3 0x461BCD PUSH1 0xE5 SHL DUP2 MSTORE PUSH1 0x20 PUSH1 0x4 DUP3 ADD MSTORE PUSH1 0xF PUSH1 0x24 DUP3 ADD MSTORE PUSH15 0x105B1C9958591E4818DB185A5B5959 PUSH1 0x8A SHL PUSH1 0x44 DUP3 ADD MSTORE PUSH1 0x64 ADD PUSH2 0xB66 JUMP JUMPDEST PUSH1 0x8 DUP2 ADD SLOAD CALLER PUSH1 0x0 SWAP1 DUP2 MSTORE PUSH1 0xF DUP4 ADD PUSH1 0x20 MSTORE PUSH1 0x40 DUP2 KECCAK256 DUP3 PUSH1 0x3 DUP2 LT PUSH2 0x12E5 JUMPI PUSH2 0x12E5 PUSH2 0x4260 JUMP JUMPDEST ADD SLOAD SWAP1 POP PUSH1 0x0 DUP2 GT PUSH2 0x132B JUMPI PUSH1 0x40 MLOAD PUSH3 0x461BCD PUSH1 0xE5 SHL DUP2 MSTORE PUSH1 0x20 PUSH1 0x4 DUP3 ADD MSTORE PUSH1 0xF PUSH1 0x24 DUP3 ADD MSTORE PUSH15 0x4E6F2077696E6E696E672062657473 PUSH1 0x88 SHL PUSH1 0x44 DUP3 ADD MSTORE PUSH1 0x64 ADD PUSH2 0xB66 JUMP JUMPDEST CALLER PUSH1 0x0 SWAP1 DUP2 MSTORE PUSH1 0x10 DUP5 ADD PUSH1 0x20 MSTORE PUSH1 0x40 DUP2 KECCAK256 DUP1 SLOAD PUSH1 0xFF NOT AND PUSH1 0x1 OR SWAP1 SSTORE PUSH1 0xB DUP5 ADD DUP4 PUSH1 0x3 DUP2 LT PUSH2 0x135C JUMPI PUSH2 0x135C PUSH2 0x4260 JUMP JUMPDEST ADD SLOAD SWAP1 POP PUSH1 0x0 DUP5 PUSH1 0xA ADD SLOAD DUP6 PUSH1 0x9 ADD SLOAD PUSH2 0x1376 SWAP2 SWAP1 PUSH2 0x428C JUMP JUMPDEST SWAP1 POP PUSH1 0x0 DUP3 PUSH2 0x1385 DUP4 DUP7 PUSH2 0x429F JUMP JUMPDEST PUSH2 0x138F SWAP2 SWAP1 PUSH2 0x42B6 JUMP JUMPDEST SWAP1 POP DUP4 DUP2 LT ISZERO PUSH2 0x139C JUMPI POP DUP3 JUMPDEST PUSH1 0x0 DUP8 DUP2 MSTORE PUSH1 0x12 PUSH1 0x20 SWAP1 DUP2 MSTORE PUSH1 0x40 DUP1 DUP4 KECCAK256 CALLER DUP5 MSTORE SWAP1 SWAP2 MSTORE DUP2 KECCAK256 SLOAD PUSH1 0x6 SLOAD DUP2 LT PUSH2 0x13DB JUMPI PUSH2 0x2710 PUSH2 0x13CE DUP5 PUSH2 0x1F4 PUSH2 0x429F JUMP JUMPDEST PUSH2 0x13D8 SWAP2 SWAP1 PUSH2 0x42B6 JUMP JUMPDEST SWAP2 POP JUMPDEST CALLER PUSH1 0x0 SWAP1 DUP2 MSTORE PUSH1 0xA PUSH1 0x20 MSTORE PUSH1 0x40 DUP2 KECCAK256 SLOAD SWAP1 DUP2 ISZERO PUSH2 0x146E JUMPI DUP5 DUP3 GT PUSH2 0x13FF JUMPI DUP2 PUSH2 0x1401 JUMP JUMPDEST DUP5 JUMPDEST CALLER PUSH1 0x0 SWAP1 DUP2 MSTORE PUSH1 0xA PUSH1 0x20 MSTORE PUSH1 0x40 DUP2 KECCAK256 DUP1 SLOAD SWAP3 SWAP4 POP DUP4 SWAP3 SWAP1 SWAP2 SWAP1 PUSH2 0x1425 SWAP1 DUP5 SWAP1 PUSH2 0x428C JUMP JUMPDEST SWAP1 SWAP2 SSTORE POP PUSH2 0x1435 SWAP1 POP DUP2 DUP7 PUSH2 0x428C JUMP JUMPDEST PUSH1 0x40 MLOAD DUP3 DUP2 MSTORE SWAP1 SWAP6 POP CALLER SWAP1 PUSH32 0x8A073C194E1CCDF6688351AC0E3FA50683A2A88723662368BDB9C18064A0304E SWAP1 PUSH1 0x20 ADD PUSH1 0x40 MLOAD DUP1 SWAP2 SUB SWAP1 LOG2 JUMPDEST PUSH1 0x0 PUSH2 0x147A DUP6 DUP8 PUSH2 0x430F JUMP JUMPDEST PUSH1 0x40 MLOAD PUSH4 0x70A08231 PUSH1 0xE0 SHL DUP2 MSTORE ADDRESS PUSH1 0x4 DUP3 ADD MSTORE SWAP1 SWAP2 POP DUP2 SWAP1 PUSH1 0x1 PUSH1 0x1 PUSH1 0xA0 SHL SUB PUSH32 0x0 AND SWAP1 PUSH4 0x70A08231 SWAP1 PUSH1 0x24 ADD PUSH1 0x20 PUSH1 0x40 MLOAD DUP1 DUP4 SUB DUP2 DUP7 GAS STATICCALL ISZERO DUP1 ISZERO PUSH2 0x14E3 JUMPI RETURNDATASIZE PUSH1 0x0 DUP1 RETURNDATACOPY RETURNDATASIZE PUSH1 0x0 REVERT JUMPDEST POP POP POP POP PUSH1 0x40 MLOAD RETURNDATASIZE PUSH1 0x1F NOT PUSH1 0x1F DUP3 ADD AND DUP3 ADD DUP1 PUSH1 0x40 MSTORE POP DUP2 ADD SWAP1 PUSH2 0x1507 SWAP2 SWAP1 PUSH2 0x44CE JUMP JUMPDEST LT ISZERO PUSH2 0x1525 JUMPI PUSH1 0x40 MLOAD PUSH3 0x461BCD PUSH1 0xE5 SHL DUP2 MSTORE PUSH1 0x4 ADD PUSH2 0xB66 SWAP1 PUSH2 0x44E7 JUMP JUMPDEST PUSH1 0x40 MLOAD PUSH4 0xA9059CBB PUSH1 0xE0 SHL DUP2 MSTORE CALLER PUSH1 0x4 DUP3 ADD MSTORE PUSH1 0x24 DUP2 ADD DUP3 SWAP1 MSTORE PUSH32 0x0 PUSH1 0x1 PUSH1 0x1 PUSH1 0xA0 SHL SUB AND SWAP1 PUSH4 0xA9059CBB SWAP1 PUSH1 0x44 ADD PUSH1 0x20 PUSH1 0x40 MLOAD DUP1 DUP4 SUB DUP2 PUSH1 0x0 DUP8 GAS CALL ISZERO DUP1 ISZERO PUSH2 0x1592 JUMPI RETURNDATASIZE PUSH1 0x0 DUP1 RETURNDATACOPY RETURNDATASIZE PUSH1 0x0 REVERT JUMPDEST POP POP POP POP PUSH1 0x40 MLOAD RETURNDATASIZE PUSH1 0x1F NOT PUSH1 0x1F DUP3 ADD AND DUP3 ADD DUP1 PUSH1 0x40 MSTORE POP DUP2 ADD SWAP1 PUSH2 0x15B6 SWAP2 SWAP1 PUSH2 0x4528 JUMP JUMPDEST PUSH2 0x15F2 JUMPI PUSH1 0x40 MLOAD PUSH3 0x461BCD PUSH1 0xE5 SHL DUP2 MSTORE PUSH1 0x20 PUSH1 0x4 DUP3 ADD MSTORE PUSH1 0xD PUSH1 0x24 DUP3 ADD MSTORE PUSH13 0x14185E5BDD5D0819985A5B1959 PUSH1 0x9A SHL PUSH1 0x44 DUP3 ADD MSTORE PUSH1 0x64 ADD PUSH2 0xB66 JUMP JUMPDEST PUSH1 0x40 DUP1 MLOAD DUP8 DUP2 MSTORE PUSH1 0x20 DUP2 ADD DUP8 SWAP1 MSTORE CALLER SWAP2 DUP15 SWAP2 PUSH32 0x16EB6194EC5E287F7418C9784085DBBF1EEDD440C05DBB3C961F4A141E857BAF SWAP2 ADD PUSH1 0x40 MLOAD DUP1 SWAP2 SUB SWAP1 LOG3 POP POP POP POP POP POP POP POP POP POP POP PUSH2 0x1643 PUSH1 0x1 DUP1 SSTORE JUMP JUMPDEST POP JUMP JUMPDEST PUSH2 0x164E PUSH2 0x3973 JUMP JUMPDEST PUSH1 0x1 PUSH1 0x1 PUSH1 0xA0 SHL SUB DUP3 AND PUSH2 0x16A4 JUMPI PUSH1 0x40 MLOAD PUSH3 0x461BCD PUSH1 0xE5 SHL DUP2 MSTORE PUSH1 0x20 PUSH1 0x4 DUP3 ADD MSTORE PUSH1 0x19 PUSH1 0x24 DUP3 ADD MSTORE PUSH32 0x496E76616C6964206D6F64657261746F72206164647265737300000000000000 PUSH1 0x44 DUP3 ADD MSTORE PUSH1 0x64 ADD PUSH2 0xB66 JUMP JUMPDEST PUSH1 0x1 PUSH1 0x1 PUSH1 0xA0 SHL SUB DUP3 AND PUSH1 0x0 DUP2 DUP2 MSTORE PUSH1 0xF PUSH1 0x20 SWAP1 DUP2 MSTORE PUSH1 0x40 SWAP2 DUP3 SWAP1 KECCAK256 DUP1 SLOAD PUSH1 0xFF NOT AND DUP6 ISZERO ISZERO SWAP1 DUP2 OR SWAP1 SWAP2 SSTORE SWAP2 MLOAD SWAP2 DUP3 MSTORE PUSH32 0xE1C45AFF1A1F4055C2BEE5EB0020BF064559E9BD1435A6CC044461AE0C68A1A SWAP2 ADD JUMPDEST PUSH1 0x40 MLOAD DUP1 SWAP2 SUB SWAP1 LOG2 POP POP JUMP JUMPDEST PUSH2 0x170C PUSH2 0x3973 JUMP JUMPDEST PUSH2 0x1714 PUSH2 0x3A6C JUMP JUMPDEST JUMP JUMPDEST PUSH1 0x0 PUSH1 0x3 DUP3 LT PUSH2 0x175D JUMPI PUSH1 0x40 MLOAD PUSH3 0x461BCD PUSH1 0xE5 SHL DUP2 MSTORE PUSH1 0x20 PUSH1 0x4 DUP3 ADD MSTORE PUSH1 0x12 PUSH1 0x24 DUP3 ADD MSTORE PUSH18 0x125B9D985B1A59081BDD5D18DBDB59481251 PUSH1 0x72 SHL PUSH1 0x44 DUP3 ADD MSTORE PUSH1 0x64 ADD PUSH2 0xB66 JUMP JUMPDEST PUSH1 0x0 DUP4 DUP2 MSTORE PUSH1 0x11 PUSH1 0x20 MSTORE PUSH1 0x40 SWAP1 KECCAK256 PUSH1 0xB ADD DUP3 PUSH1 0x3 DUP2 LT PUSH2 0x177F JUMPI PUSH2 0x177F PUSH2 0x4260 JUMP JUMPDEST ADD SLOAD SWAP1 POP JUMPDEST SWAP3 SWAP2 POP POP JUMP JUMPDEST PUSH2 0x1792 PUSH2 0x3973 JUMP JUMPDEST PUSH1 0x8 DUP2 SWAP1 SSTORE PUSH1 0x40 MLOAD DUP2 DUP2 MSTORE PUSH32 0xECA1FF7C6CCE8E8F96D1079CE3963040ED0A17BDF364455EC36EE6836CC8448E SWAP1 PUSH1 0x20 ADD PUSH1 0x40 MLOAD DUP1 SWAP2 SUB SWAP1 LOG1 POP JUMP JUMPDEST PUSH2 0x17D5 PUSH2 0x3A13 JUMP JUMPDEST PUSH1 0x0 DUP2 DUP2 MSTORE PUSH1 0x11 PUSH1 0x20 MSTORE PUSH1 0x40 SWAP1 KECCAK256 PUSH1 0x7 DUP2 ADD SLOAD PUSH2 0x100 SWAP1 DIV PUSH1 0xFF AND PUSH2 0x1833 JUMPI PUSH1 0x40 MLOAD PUSH3 0x461BCD PUSH1 0xE5 SHL DUP2 MSTORE PUSH1 0x20 PUSH1 0x4 DUP3 ADD MSTORE PUSH1 0x14 PUSH1 0x24 DUP3 ADD MSTORE PUSH20 0x111D595B081A5CC81B9BDD0818D85B98D95B1959 PUSH1 0x62 SHL PUSH1 0x44 DUP3 ADD MSTORE PUSH1 0x64 ADD PUSH2 0xB66 JUMP JUMPDEST CALLER PUSH1 0x0 SWAP1 DUP2 MSTORE PUSH1 0x11 DUP3 ADD PUSH1 0x20 MSTORE PUSH1 0x40 SWAP1 KECCAK256 SLOAD PUSH1 0xFF AND ISZERO PUSH2 0x188E JUMPI PUSH1 0x40 MLOAD PUSH3 0x461BCD PUSH1 0xE5 SHL DUP2 MSTORE PUSH1 0x20 PUSH1 0x4 DUP3 ADD MSTORE PUSH1 0x16 PUSH1 0x24 DUP3 ADD MSTORE PUSH22 0x105B1C9958591E4818DB185A5B5959081C99599D5B99 PUSH1 0x52 SHL PUSH1 0x44 DUP3 ADD MSTORE PUSH1 0x64 ADD PUSH2 0xB66 JUMP JUMPDEST CALLER PUSH1 0x0 SWAP1 DUP2 MSTORE PUSH1 0xF DUP3 ADD PUSH1 0x20 MSTORE PUSH1 0x40 DUP2 KECCAK256 PUSH1 0x2 DUP2 ADD SLOAD PUSH1 0x1 DUP3 ADD SLOAD SWAP2 SLOAD SWAP1 SWAP2 PUSH2 0x18B6 SWAP2 PUSH2 0x430F JUMP JUMPDEST PUSH2 0x18C0 SWAP2 SWAP1 PUSH2 0x430F JUMP JUMPDEST SWAP1 POP PUSH1 0x0 DUP2 GT PUSH2 0x1906 JUMPI PUSH1 0x40 MLOAD PUSH3 0x461BCD PUSH1 0xE5 SHL DUP2 MSTORE PUSH1 0x20 PUSH1 0x4 DUP3 ADD MSTORE PUSH1 0x11 PUSH1 0x24 DUP3 ADD MSTORE PUSH17 0x139BC818995D1CC81D1BC81C99599D5B99 PUSH1 0x7A SHL PUSH1 0x44 DUP3 ADD MSTORE PUSH1 0x64 ADD PUSH2 0xB66 JUMP JUMPDEST CALLER PUSH1 0x0 SWAP1 DUP2 MSTORE PUSH1 0x11 DUP4 ADD PUSH1 0x20 MSTORE PUSH1 0x40 SWAP1 DUP2 SWAP1 KECCAK256 DUP1 SLOAD PUSH1 0xFF NOT AND PUSH1 0x1 OR SWAP1 SSTORE MLOAD PUSH4 0x70A08231 PUSH1 0xE0 SHL DUP2 MSTORE ADDRESS PUSH1 0x4 DUP3 ADD MSTORE DUP2 SWAP1 PUSH32 0x0 PUSH1 0x1 PUSH1 0x1 PUSH1 0xA0 SHL SUB AND SWAP1 PUSH4 0x70A08231 SWAP1 PUSH1 0x24 ADD PUSH1 0x20 PUSH1 0x40 MLOAD DUP1 DUP4 SUB DUP2 DUP7 GAS STATICCALL ISZERO DUP1 ISZERO PUSH2 0x1988 JUMPI RETURNDATASIZE PUSH1 0x0 DUP1 RETURNDATACOPY RETURNDATASIZE PUSH1 0x0 REVERT JUMPDEST POP POP POP POP PUSH1 0x40 MLOAD RETURNDATASIZE PUSH1 0x1F NOT PUSH1 0x1F DUP3 ADD AND DUP3 ADD DUP1 PUSH1 0x40 MSTORE POP DUP2 ADD SWAP1 PUSH2 0x19AC SWAP2 SWAP1 PUSH2 0x44CE JUMP JUMPDEST LT ISZERO PUSH2 0x19CA JUMPI PUSH1 0x40 MLOAD PUSH3 0x461BCD PUSH1 0xE5 SHL DUP2 MSTORE PUSH1 0x4 ADD PUSH2 0xB66 SWAP1 PUSH2 0x44E7 JUMP JUMPDEST PUSH1 0x40 MLOAD PUSH4 0xA9059CBB PUSH1 0xE0 SHL DUP2 MSTORE CALLER PUSH1 0x4 DUP3 ADD MSTORE PUSH1 0x24 DUP2 ADD DUP3 SWAP1 MSTORE PUSH32 0x0 PUSH1 0x1 PUSH1 0x1 PUSH1 0xA0 SHL SUB AND SWAP1 PUSH4 0xA9059CBB SWAP1 PUSH1 0x44 ADD PUSH1 0x20 PUSH1 0x40 MLOAD DUP1 DUP4 SUB DUP2 PUSH1 0x0 DUP8 GAS CALL ISZERO DUP1 ISZERO PUSH2 0x1A37 JUMPI RETURNDATASIZE PUSH1 0x0 DUP1 RETURNDATACOPY RETURNDATASIZE PUSH1 0x0 REVERT JUMPDEST POP POP POP POP PUSH1 0x40 MLOAD RETURNDATASIZE PUSH1 0x1F NOT PUSH1 0x1F DUP3 ADD AND DUP3 ADD DUP1 PUSH1 0x40 MSTORE POP DUP2 ADD SWAP1 PUSH2 0x1A5B SWAP2 SWAP1 PUSH2 0x4528 JUMP JUMPDEST PUSH2 0x1A97 JUMPI PUSH1 0x40 MLOAD PUSH3 0x461BCD PUSH1 0xE5 SHL DUP2 MSTORE PUSH1 0x20 PUSH1 0x4 DUP3 ADD MSTORE PUSH1 0xD PUSH1 0x24 DUP3 ADD MSTORE PUSH13 0x1499599D5B990819985A5B1959 PUSH1 0x9A SHL PUSH1 0x44 DUP3 ADD MSTORE PUSH1 0x64 ADD PUSH2 0xB66 JUMP JUMPDEST PUSH1 0x40 MLOAD DUP2 DUP2 MSTORE CALLER SWAP1 DUP5 SWAP1 PUSH32 0x7A482FDEB6BC9A1376F597068A214A7A39472BB2EFF1B8CAD21BA04F49DDCA1B SWAP1 PUSH1 0x20 ADD PUSH1 0x40 MLOAD DUP1 SWAP2 SUB SWAP1 LOG3 POP POP PUSH2 0x1643 PUSH1 0x1 DUP1 SSTORE JUMP JUMPDEST PUSH2 0x1AE1 PUSH2 0x3973 JUMP JUMPDEST PUSH1 0x1 PUSH1 0x1 PUSH1 0xA0 SHL SUB DUP2 AND PUSH2 0x1B37 JUMPI PUSH1 0x40 MLOAD PUSH3 0x461BCD PUSH1 0xE5 SHL DUP2 MSTORE PUSH1 0x20 PUSH1 0x4 DUP3 ADD MSTORE PUSH1 0x17 PUSH1 0x24 DUP3 ADD MSTORE PUSH32 0x496E76616C69642072656C617965722061646472657373000000000000000000 PUSH1 0x44 DUP3 ADD MSTORE PUSH1 0x64 ADD PUSH2 0xB66 JUMP JUMPDEST PUSH1 0xB DUP1 SLOAD PUSH1 0x1 PUSH1 0x1 PUSH1 0xA0 SHL SUB NOT AND PUSH1 0x1 PUSH1 0x1 PUSH1 0xA0 SHL SUB SWAP3 SWAP1 SWAP3 AND SWAP2 SWAP1 SWAP2 OR SWAP1 SSTORE JUMP JUMPDEST PUSH2 0x1B61 PUSH2 0x3A13 JUMP JUMPDEST PUSH2 0x1B69 PUSH2 0x39CD JUMP JUMPDEST PUSH1 0x9 SLOAD PUSH1 0xFF AND PUSH2 0x1BBB JUMPI PUSH1 0x40 MLOAD PUSH3 0x461BCD PUSH1 0xE5 SHL DUP2 MSTORE PUSH1 0x20 PUSH1 0x4 DUP3 ADD MSTORE PUSH1 0x19 PUSH1 0x24 DUP3 ADD MSTORE PUSH32 0x55736572206372656174696F6E2069732064697361626C656400000000000000 PUSH1 0x44 DUP3 ADD MSTORE PUSH1 0x64 ADD PUSH2 0xB66 JUMP JUMPDEST PUSH2 0x1BC7 TIMESTAMP PUSH2 0xE10 PUSH2 0x430F JUMP JUMPDEST DUP2 GT PUSH2 0x1C09 JUMPI PUSH1 0x40 MLOAD PUSH3 0x461BCD PUSH1 0xE5 SHL DUP2 MSTORE PUSH1 0x20 PUSH1 0x4 DUP3 ADD MSTORE PUSH1 0x11 PUSH1 0x24 DUP3 ADD MSTORE PUSH17 0x2232B0B23634B732903A37B79039B7B7B7 PUSH1 0x79 SHL PUSH1 0x44 DUP3 ADD MSTORE PUSH1 0x64 ADD PUSH2 0xB66 JUMP JUMPDEST PUSH2 0x1C16 PUSH3 0x278D00 TIMESTAMP PUSH2 0x430F JUMP JUMPDEST DUP2 LT PUSH2 0x1C57 JUMPI PUSH1 0x40 MLOAD PUSH3 0x461BCD PUSH1 0xE5 SHL DUP2 MSTORE PUSH1 0x20 PUSH1 0x4 DUP3 ADD MSTORE PUSH1 0x10 PUSH1 0x24 DUP3 ADD MSTORE PUSH16 0x2232B0B23634B732903A37B7903330B9 PUSH1 0x81 SHL PUSH1 0x44 DUP3 ADD MSTORE PUSH1 0x64 ADD PUSH2 0xB66 JUMP JUMPDEST PUSH1 0x0 DUP5 MLOAD GT DUP1 ISZERO PUSH2 0x1C6A JUMPI POP PUSH1 0x64 DUP5 MLOAD GT ISZERO JUMPDEST PUSH2 0x1CA6 JUMPI PUSH1 0x40 MLOAD PUSH3 0x461BCD PUSH1 0xE5 SHL DUP2 MSTORE PUSH1 0x20 PUSH1 0x4 DUP3 ADD MSTORE PUSH1 0xD PUSH1 0x24 DUP3 ADD MSTORE PUSH13 0x496E76616C6964207469746C65 PUSH1 0x98 SHL PUSH1 0x44 DUP3 ADD MSTORE PUSH1 0x64 ADD PUSH2 0xB66 JUMP JUMPDEST PUSH1 0x0 DUP4 MLOAD GT DUP1 ISZERO PUSH2 0x1CB9 JUMPI POP PUSH1 0x32 DUP4 MLOAD GT ISZERO JUMPDEST PUSH2 0x1CF8 JUMPI PUSH1 0x40 MLOAD PUSH3 0x461BCD PUSH1 0xE5 SHL DUP2 MSTORE PUSH1 0x20 PUSH1 0x4 DUP3 ADD MSTORE PUSH1 0x10 PUSH1 0x24 DUP3 ADD MSTORE PUSH16 0x496E76616C69642063617465676F7279 PUSH1 0x80 SHL PUSH1 0x44 DUP3 ADD MSTORE PUSH1 0x64 ADD PUSH2 0xB66 JUMP JUMPDEST PUSH1 0x0 JUMPDEST PUSH1 0x3 DUP2 LT ISZERO PUSH2 0x1D93 JUMPI PUSH1 0x0 DUP4 DUP3 PUSH1 0x3 DUP2 LT PUSH2 0x1D18 JUMPI PUSH2 0x1D18 PUSH2 0x4260 JUMP JUMPDEST PUSH1 0x20 MUL ADD MLOAD MLOAD GT DUP1 ISZERO PUSH2 0x1D43 JUMPI POP PUSH1 0x32 DUP4 DUP3 PUSH1 0x3 DUP2 LT PUSH2 0x1D3A JUMPI PUSH2 0x1D3A PUSH2 0x4260 JUMP JUMPDEST PUSH1 0x20 MUL ADD MLOAD MLOAD GT ISZERO JUMPDEST PUSH2 0x1D81 JUMPI PUSH1 0x40 MLOAD PUSH3 0x461BCD PUSH1 0xE5 SHL DUP2 MSTORE PUSH1 0x20 PUSH1 0x4 DUP3 ADD MSTORE PUSH1 0xF PUSH1 0x24 DUP3 ADD MSTORE PUSH15 0x496E76616C6964206F7574636F6D65 PUSH1 0x88 SHL PUSH1 0x44 DUP3 ADD MSTORE PUSH1 0x64 ADD PUSH2 0xB66 JUMP JUMPDEST DUP1 PUSH2 0x1D8B DUP2 PUSH2 0x4322 JUMP JUMPDEST SWAP2 POP POP PUSH2 0x1CFB JUMP JUMPDEST POP PUSH1 0x8 SLOAD PUSH1 0x6 SLOAD PUSH1 0x40 MLOAD PUSH4 0x70A08231 PUSH1 0xE0 SHL DUP2 MSTORE CALLER PUSH1 0x4 DUP3 ADD MSTORE PUSH32 0x0 PUSH1 0x1 PUSH1 0x1 PUSH1 0xA0 SHL SUB AND SWAP1 PUSH4 0x70A08231 SWAP1 PUSH1 0x24 ADD PUSH1 0x20 PUSH1 0x40 MLOAD DUP1 DUP4 SUB DUP2 DUP7 GAS STATICCALL ISZERO DUP1 ISZERO PUSH2 0x1DFE JUMPI RETURNDATASIZE PUSH1 0x0 DUP1 RETURNDATACOPY RETURNDATASIZE PUSH1 0x0 REVERT JUMPDEST POP POP POP POP PUSH1 0x40 MLOAD RETURNDATASIZE PUSH1 0x1F NOT PUSH1 0x1F DUP3 ADD AND DUP3 ADD DUP1 PUSH1 0x40 MSTORE POP DUP2 ADD SWAP1 PUSH2 0x1E22 SWAP2 SWAP1 PUSH2 0x44CE JUMP JUMPDEST LT PUSH2 0x1E2B JUMPI POP PUSH1 0x0 JUMPDEST PUSH1 0xB SLOAD PUSH1 0x1 PUSH1 0x1 PUSH1 0xA0 SHL SUB AND CALLER EQ PUSH2 0x1E9D JUMPI PUSH1 0xC SLOAD CALLER PUSH1 0x0 SWAP1 DUP2 MSTORE PUSH1 0xA PUSH1 0x20 MSTORE PUSH1 0x40 DUP2 KECCAK256 DUP1 SLOAD SWAP1 SWAP2 SWAP1 PUSH2 0x1E5F SWAP1 DUP5 SWAP1 PUSH2 0x430F JUMP JUMPDEST SWAP1 SWAP2 SSTORE POP POP PUSH1 0xC SLOAD PUSH1 0x40 MLOAD SWAP1 DUP2 MSTORE CALLER SWAP1 PUSH32 0x532998721044F84020F751072EC6511AE7B0A6CF587F02A5CEA3AF0C3EDF3C96 SWAP1 PUSH1 0x20 ADD PUSH1 0x40 MLOAD DUP1 SWAP2 SUB SWAP1 LOG2 JUMPDEST DUP1 ISZERO PUSH2 0x2084 JUMPI PUSH1 0x40 MLOAD PUSH4 0x70A08231 PUSH1 0xE0 SHL DUP2 MSTORE CALLER PUSH1 0x4 DUP3 ADD MSTORE DUP2 SWAP1 PUSH32 0x0 PUSH1 0x1 PUSH1 0x1 PUSH1 0xA0 SHL SUB AND SWAP1 PUSH4 0x70A08231 SWAP1 PUSH1 0x24 ADD PUSH1 0x20 PUSH1 0x40 MLOAD DUP1 DUP4 SUB DUP2 DUP7 GAS STATICCALL ISZERO DUP1 ISZERO PUSH2 0x1F09 JUMPI RETURNDATASIZE PUSH1 0x0 DUP1 RETURNDATACOPY RETURNDATASIZE PUSH1 0x0 REVERT JUMPDEST POP POP POP POP PUSH1 0x40 MLOAD RETURNDATASIZE PUSH1 0x1F NOT PUSH1 0x1F DUP3 ADD AND DUP3 ADD DUP1 PUSH1 0x40 MSTORE POP DUP2 ADD SWAP1 PUSH2 0x1F2D SWAP2 SWAP1 PUSH2 0x44CE JUMP JUMPDEST LT ISZERO PUSH2 0x1F89 JUMPI PUSH1 0x40 MLOAD PUSH3 0x461BCD PUSH1 0xE5 SHL DUP2 MSTORE PUSH1 0x20 PUSH1 0x4 DUP3 ADD MSTORE PUSH1 0x25 PUSH1 0x24 DUP3 ADD MSTORE PUSH32 0x496E73756666696369656E742062616C616E636520666F72206372656174696F PUSH1 0x44 DUP3 ADD MSTORE PUSH5 0x6E20666565 PUSH1 0xD8 SHL PUSH1 0x64 DUP3 ADD MSTORE PUSH1 0x84 ADD PUSH2 0xB66 JUMP JUMPDEST PUSH1 0x40 MLOAD PUSH4 0x23B872DD PUSH1 0xE0 SHL DUP2 MSTORE CALLER PUSH1 0x4 DUP3 ADD MSTORE ADDRESS PUSH1 0x24 DUP3 ADD MSTORE PUSH1 0x44 DUP2 ADD DUP3 SWAP1 MSTORE PUSH32 0x0 PUSH1 0x1 PUSH1 0x1 PUSH1 0xA0 SHL SUB AND SWAP1 PUSH4 0x23B872DD SWAP1 PUSH1 0x64 ADD PUSH1 0x20 PUSH1 0x40 MLOAD DUP1 DUP4 SUB DUP2 PUSH1 0x0 DUP8 GAS CALL ISZERO DUP1 ISZERO PUSH2 0x1FFC JUMPI RETURNDATASIZE PUSH1 0x0 DUP1 RETURNDATACOPY RETURNDATASIZE PUSH1 0x0 REVERT JUMPDEST POP POP POP POP PUSH1 0x40 MLOAD RETURNDATASIZE PUSH1 0x1F NOT PUSH1 0x1F DUP3 ADD AND DUP3 ADD DUP1 PUSH1 0x40 MSTORE POP DUP2 ADD SWAP1 PUSH2 0x2020 SWAP2 SWAP1 PUSH2 0x4528 JUMP JUMPDEST PUSH2 0x206C JUMPI PUSH1 0x40 MLOAD PUSH3 0x461BCD PUSH1 0xE5 SHL DUP2 MSTORE PUSH1 0x20 PUSH1 0x4 DUP3 ADD MSTORE PUSH1 0x1B PUSH1 0x24 DUP3 ADD MSTORE PUSH32 0x4372656174696F6E20666565207061796D656E74206661696C65640000000000 PUSH1 0x44 DUP3 ADD MSTORE PUSH1 0x64 ADD PUSH2 0xB66 JUMP JUMPDEST DUP1 PUSH1 0x7 PUSH1 0x0 DUP3 DUP3 SLOAD PUSH2 0x207E SWAP2 SWAP1 PUSH2 0x430F JUMP JUMPDEST SWAP1 SWAP2 SSTORE POP POP JUMPDEST PUSH1 0x4 SLOAD PUSH1 0x0 DUP2 DUP2 MSTORE PUSH1 0x11 PUSH1 0x20 MSTORE PUSH1 0x40 SWAP1 KECCAK256 DUP1 PUSH2 0x20A0 DUP9 DUP3 PUSH2 0x43C3 JUMP JUMPDEST POP PUSH1 0x1 DUP2 ADD PUSH2 0x20AF DUP8 DUP3 PUSH2 0x43C3 JUMP JUMPDEST POP PUSH2 0x20C0 PUSH1 0x3 DUP1 DUP4 ADD SWAP1 DUP8 SWAP1 PUSH2 0x3B94 JUMP JUMPDEST POP PUSH1 0x6 DUP2 ADD DUP5 SWAP1 SSTORE PUSH1 0xE DUP2 ADD DUP1 SLOAD PUSH1 0x1 PUSH1 0x1 PUSH1 0xA0 SHL SUB NOT AND CALLER SWAP1 DUP2 OR SWAP1 SWAP2 SSTORE PUSH1 0x0 SWAP1 DUP2 MSTORE PUSH1 0xD PUSH1 0x20 MSTORE PUSH1 0x40 DUP2 KECCAK256 DUP1 SLOAD PUSH1 0x32 SWAP3 SWAP1 PUSH2 0x20FE SWAP1 DUP5 SWAP1 PUSH2 0x430F JUMP JUMPDEST SWAP1 SWAP2 SSTORE POP POP PUSH1 0x40 MLOAD CALLER SWAP1 PUSH32 0x4C3089477CDA1AC100291A040B3AC97FF5F55B6D8B2ACFB56A59B9419D95CE04 SWAP1 PUSH2 0x215D SWAP1 PUSH1 0x32 DUP2 MSTORE PUSH1 0x40 PUSH1 0x20 DUP3 ADD DUP2 SWAP1 MSTORE PUSH1 0xD SWAP1 DUP3 ADD MSTORE PUSH13 0x223AB2B61031B932B0BA34B7B7 PUSH1 0x99 SHL PUSH1 0x60 DUP3 ADD MSTORE PUSH1 0x80 ADD SWAP1 JUMP JUMPDEST PUSH1 0x40 MLOAD DUP1 SWAP2 SUB SWAP1 LOG2 CALLER PUSH1 0x1 PUSH1 0x1 PUSH1 0xA0 SHL SUB AND DUP3 PUSH32 0x6E3A1184B10D42FD7CFA70094B21ECBD3BB215615FBB7EE4BFA7D1CD8B41C55A DUP10 DUP10 DUP10 DUP10 PUSH1 0x40 MLOAD PUSH2 0x21A5 SWAP5 SWAP4 SWAP3 SWAP2 SWAP1 PUSH2 0x4483 JUMP JUMPDEST PUSH1 0x40 MLOAD DUP1 SWAP2 SUB SWAP1 LOG3 PUSH1 0x4 DUP1 SLOAD SWAP1 PUSH1 0x0 PUSH2 0x21BD DUP4 PUSH2 0x4322 JUMP JUMPDEST SWAP2 SWAP1 POP SSTORE POP POP POP POP PUSH2 0x21CE PUSH1 0x1 DUP1 SSTORE JUMP JUMPDEST POP POP POP POP JUMP JUMPDEST PUSH2 0x21DC PUSH2 0x3973 JUMP JUMPDEST PUSH2 0x1714 PUSH1 0x0 PUSH2 0x3ABE JUMP JUMPDEST PUSH2 0x21EE PUSH2 0x3973 JUMP JUMPDEST PUSH1 0xC SSTORE JUMP JUMPDEST PUSH2 0x21FB PUSH2 0x3973 JUMP JUMPDEST PUSH1 0x9 DUP1 SLOAD PUSH1 0xFF NOT AND SWAP2 ISZERO ISZERO SWAP2 SWAP1 SWAP2 OR SWAP1 SSTORE JUMP JUMPDEST PUSH2 0x2216 PUSH2 0x3973 JUMP JUMPDEST PUSH2 0x1714 PUSH2 0x3B0E JUMP JUMPDEST PUSH1 0x11 PUSH1 0x20 MSTORE PUSH1 0x0 SWAP1 DUP2 MSTORE PUSH1 0x40 SWAP1 KECCAK256 DUP1 SLOAD DUP2 SWAP1 PUSH2 0x2239 SWAP1 PUSH2 0x433B JUMP JUMPDEST DUP1 PUSH1 0x1F ADD PUSH1 0x20 DUP1 SWAP2 DIV MUL PUSH1 0x20 ADD PUSH1 0x40 MLOAD SWAP1 DUP2 ADD PUSH1 0x40 MSTORE DUP1 SWAP3 SWAP2 SWAP1 DUP2 DUP2 MSTORE PUSH1 0x20 ADD DUP3 DUP1 SLOAD PUSH2 0x2265 SWAP1 PUSH2 0x433B JUMP JUMPDEST DUP1 ISZERO PUSH2 0x22B2 JUMPI DUP1 PUSH1 0x1F LT PUSH2 0x2287 JUMPI PUSH2 0x100 DUP1 DUP4 SLOAD DIV MUL DUP4 MSTORE SWAP2 PUSH1 0x20 ADD SWAP2 PUSH2 0x22B2 JUMP JUMPDEST DUP3 ADD SWAP2 SWAP1 PUSH1 0x0 MSTORE PUSH1 0x20 PUSH1 0x0 KECCAK256 SWAP1 JUMPDEST DUP2 SLOAD DUP2 MSTORE SWAP1 PUSH1 0x1 ADD SWAP1 PUSH1 0x20 ADD DUP1 DUP4 GT PUSH2 0x2295 JUMPI DUP3 SWAP1 SUB PUSH1 0x1F AND DUP3 ADD SWAP2 JUMPDEST POP POP POP POP POP SWAP1 DUP1 PUSH1 0x1 ADD DUP1 SLOAD PUSH2 0x22C7 SWAP1 PUSH2 0x433B JUMP JUMPDEST DUP1 PUSH1 0x1F ADD PUSH1 0x20 DUP1 SWAP2 DIV MUL PUSH1 0x20 ADD PUSH1 0x40 MLOAD SWAP1 DUP2 ADD PUSH1 0x40 MSTORE DUP1 SWAP3 SWAP2 SWAP1 DUP2 DUP2 MSTORE PUSH1 0x20 ADD DUP3 DUP1 SLOAD PUSH2 0x22F3 SWAP1 PUSH2 0x433B JUMP JUMPDEST DUP1 ISZERO PUSH2 0x2340 JUMPI DUP1 PUSH1 0x1F LT PUSH2 0x2315 JUMPI PUSH2 0x100 DUP1 DUP4 SLOAD DIV MUL DUP4 MSTORE SWAP2 PUSH1 0x20 ADD SWAP2 PUSH2 0x2340 JUMP JUMPDEST DUP3 ADD SWAP2 SWAP1 PUSH1 0x0 MSTORE PUSH1 0x20 PUSH1 0x0 KECCAK256 SWAP1 JUMPDEST DUP2 SLOAD DUP2 MSTORE SWAP1 PUSH1 0x1 ADD SWAP1 PUSH1 0x20 ADD DUP1 DUP4 GT PUSH2 0x2323 JUMPI DUP3 SWAP1 SUB PUSH1 0x1F AND DUP3 ADD SWAP2 JUMPDEST POP POP POP POP PUSH1 0x2 DUP4 ADD SLOAD PUSH1 0x6 DUP5 ADD SLOAD PUSH1 0x7 DUP6 ADD SLOAD PUSH1 0x8 DUP7 ADD SLOAD PUSH1 0x9 DUP8 ADD SLOAD PUSH1 0xA DUP9 ADD SLOAD PUSH1 0xE SWAP1 SWAP9 ADD SLOAD SWAP7 SWAP8 PUSH1 0xFF SWAP6 DUP7 AND SWAP8 SWAP5 SWAP7 POP DUP6 DUP5 AND SWAP6 PUSH2 0x100 SWAP1 SWAP5 DIV SWAP1 SWAP4 AND SWAP4 SWAP2 SWAP3 SWAP1 SWAP2 PUSH1 0x1 PUSH1 0x1 PUSH1 0xA0 SHL SUB AND DUP11 JUMP JUMPDEST PUSH1 0x0 DUP2 DUP2 MSTORE PUSH1 0x11 PUSH1 0x20 MSTORE PUSH1 0x40 DUP2 KECCAK256 PUSH1 0x9 DUP2 ADD SLOAD DUP3 SUB PUSH2 0x23B3 JUMPI POP PUSH1 0x0 SWAP3 SWAP2 POP POP JUMP JUMPDEST PUSH1 0x0 DUP1 PUSH1 0x0 JUMPDEST PUSH1 0x3 DUP2 LT ISZERO PUSH2 0x2438 JUMPI PUSH1 0x0 DUP5 PUSH1 0xB ADD DUP3 PUSH1 0x3 DUP2 LT PUSH2 0x23D9 JUMPI PUSH2 0x23D9 PUSH2 0x4260 JUMP JUMPDEST ADD SLOAD GT ISZERO PUSH2 0x2426 JUMPI DUP2 PUSH2 0x23EB DUP2 PUSH2 0x4322 JUMP JUMPDEST SWAP3 POP POP DUP3 DUP5 PUSH1 0xB ADD DUP3 PUSH1 0x3 DUP2 LT PUSH2 0x2404 JUMPI PUSH2 0x2404 PUSH2 0x4260 JUMP JUMPDEST ADD SLOAD GT ISZERO PUSH2 0x2426 JUMPI DUP4 PUSH1 0xB ADD DUP2 PUSH1 0x3 DUP2 LT PUSH2 0x2421 JUMPI PUSH2 0x2421 PUSH2 0x4260 JUMP JUMPDEST ADD SLOAD SWAP3 POP JUMPDEST DUP1 PUSH2 0x2430 DUP2 PUSH2 0x4322 JUMP JUMPDEST SWAP2 POP POP PUSH2 0x23B9 JUMP JUMPDEST POP PUSH1 0x2 DUP2 LT ISZERO DUP1 ISZERO PUSH2 0x2467 JUMPI POP PUSH2 0x2710 DUP4 PUSH1 0x9 ADD SLOAD PUSH2 0x1F40 PUSH2 0x245A SWAP2 SWAP1 PUSH2 0x429F JUMP JUMPDEST PUSH2 0x2464 SWAP2 SWAP1 PUSH2 0x42B6 JUMP JUMPDEST DUP3 LT JUMPDEST SWAP6 SWAP5 POP POP POP POP POP JUMP JUMPDEST PUSH1 0x4 SLOAD DUP2 LT PUSH2 0x2491 JUMPI PUSH1 0x40 MLOAD PUSH3 0x461BCD PUSH1 0xE5 SHL DUP2 MSTORE PUSH1 0x4 ADD PUSH2 0xB66 SWAP1 PUSH2 0x4545 JUMP JUMPDEST PUSH1 0x0 DUP2 DUP2 MSTORE PUSH1 0x11 PUSH1 0x20 MSTORE PUSH1 0x40 SWAP1 KECCAK256 PUSH1 0xE ADD SLOAD PUSH1 0x1 PUSH1 0x1 PUSH1 0xA0 SHL SUB AND CALLER EQ PUSH2 0x24ED JUMPI PUSH1 0x40 MLOAD PUSH3 0x461BCD PUSH1 0xE5 SHL DUP2 MSTORE PUSH1 0x20 PUSH1 0x4 DUP3 ADD MSTORE PUSH1 0x10 PUSH1 0x24 DUP3 ADD MSTORE PUSH16 0x2737BA10323AB2B61031B932B0BA37B9 PUSH1 0x81 SHL PUSH1 0x44 DUP3 ADD MSTORE PUSH1 0x64 ADD PUSH2 0xB66 JUMP JUMPDEST CALLER PUSH1 0x0 SWAP1 DUP2 MSTORE PUSH1 0xD PUSH1 0x20 MSTORE PUSH1 0x40 SWAP1 KECCAK256 SLOAD PUSH1 0x64 GT ISZERO PUSH2 0x2543 JUMPI PUSH1 0x40 MLOAD PUSH3 0x461BCD PUSH1 0xE5 SHL DUP2 MSTORE PUSH1 0x20 PUSH1 0x4 DUP3 ADD MSTORE PUSH1 0x13 PUSH1 0x24 DUP3 ADD MSTORE PUSH19 0x496E73756666696369656E7420706F696E7473 PUSH1 0x68 SHL PUSH1 0x44 DUP3 ADD MSTORE PUSH1 0x64 ADD PUSH2 0xB66 JUMP JUMPDEST PUSH1 0x0 DUP2 DUP2 MSTORE PUSH1 0xE PUSH1 0x20 MSTORE PUSH1 0x40 SWAP1 KECCAK256 SLOAD PUSH1 0xFF AND ISZERO PUSH2 0x259B JUMPI PUSH1 0x40 MLOAD PUSH3 0x461BCD PUSH1 0xE5 SHL DUP2 MSTORE PUSH1 0x20 PUSH1 0x4 DUP3 ADD MSTORE PUSH1 0x16 PUSH1 0x24 DUP3 ADD MSTORE PUSH22 0x416C7265616479206172656E6120656C696769626C65 PUSH1 0x50 SHL PUSH1 0x44 DUP3 ADD MSTORE PUSH1 0x64 ADD PUSH2 0xB66 JUMP JUMPDEST CALLER PUSH1 0x0 SWAP1 DUP2 MSTORE PUSH1 0xD PUSH1 0x20 MSTORE PUSH1 0x40 DUP2 KECCAK256 DUP1 SLOAD PUSH1 0x64 SWAP3 SWAP1 PUSH2 0x25BB SWAP1 DUP5 SWAP1 PUSH2 0x428C JUMP JUMPDEST SWAP1 SWAP2 SSTORE POP POP PUSH1 0x0 DUP2 DUP2 MSTORE PUSH1 0xE PUSH1 0x20 SWAP1 DUP2 MSTORE PUSH1 0x40 SWAP2 DUP3 SWAP1 KECCAK256 DUP1 SLOAD PUSH1 0xFF NOT AND PUSH1 0x1 SWAP1 DUP2 OR SWAP1 SWAP2 SSTORE SWAP2 MLOAD SWAP2 DUP3 MSTORE DUP3 SWAP2 PUSH32 0xF55821CEBA42951B9AA03907B558E1375E504CED6C60BBDF3025384EB0D51318 SWAP2 ADD PUSH1 0x40 MLOAD DUP1 SWAP2 SUB SWAP1 LOG2 CALLER PUSH1 0x1 PUSH1 0x1 PUSH1 0xA0 SHL SUB AND PUSH32 0xF9D84DC8DBC1EC63030D63FE51EB9E84F59905783078B2F3D84F3FCEE1AE778F PUSH1 0x64 PUSH1 0x40 MLOAD PUSH2 0x2676 SWAP2 DUP2 MSTORE PUSH1 0x40 PUSH1 0x20 DUP3 ADD DUP2 SWAP1 MSTORE PUSH1 0x10 SWAP1 DUP3 ADD MSTORE PUSH16 0x20B932B7309030B1BA34BB30BA34B7B7 PUSH1 0x81 SHL PUSH1 0x60 DUP3 ADD MSTORE PUSH1 0x80 ADD SWAP1 JUMP JUMPDEST PUSH1 0x40 MLOAD DUP1 SWAP2 SUB SWAP1 LOG2 POP JUMP JUMPDEST PUSH2 0x2689 PUSH2 0x3973 JUMP JUMPDEST PUSH1 0x1 PUSH1 0x1 PUSH1 0xA0 SHL SUB DUP3 AND PUSH2 0x26D1 JUMPI PUSH1 0x40 MLOAD PUSH3 0x461BCD PUSH1 0xE5 SHL DUP2 MSTORE PUSH1 0x20 PUSH1 0x4 DUP3 ADD MSTORE PUSH1 0xF PUSH1 0x24 DUP3 ADD MSTORE PUSH15 0x496E76616C69642061646472657373 PUSH1 0x88 SHL PUSH1 0x44 DUP3 ADD MSTORE PUSH1 0x64 ADD PUSH2 0xB66 JUMP JUMPDEST PUSH1 0x7 SLOAD DUP2 GT ISZERO PUSH2 0x2723 JUMPI PUSH1 0x40 MLOAD PUSH3 0x461BCD PUSH1 0xE5 SHL DUP2 MSTORE PUSH1 0x20 PUSH1 0x4 DUP3 ADD MSTORE PUSH1 0x1F PUSH1 0x24 DUP3 ADD MSTORE PUSH32 0x416D6F756E74206578636565647320616363756D756C61746564206665657300 PUSH1 0x44 DUP3 ADD MSTORE PUSH1 0x64 ADD PUSH2 0xB66 JUMP JUMPDEST PUSH1 0x40 MLOAD PUSH4 0x70A08231 PUSH1 0xE0 SHL DUP2 MSTORE ADDRESS PUSH1 0x4 DUP3 ADD MSTORE DUP2 SWAP1 PUSH32 0x0 PUSH1 0x1 PUSH1 0x1 PUSH1 0xA0 SHL SUB AND SWAP1 PUSH4 0x70A08231 SWAP1 PUSH1 0x24 ADD PUSH1 0x20 PUSH1 0x40 MLOAD DUP1 DUP4 SUB DUP2 DUP7 GAS STATICCALL ISZERO DUP1 ISZERO PUSH2 0x2789 JUMPI RETURNDATASIZE PUSH1 0x0 DUP1 RETURNDATACOPY RETURNDATASIZE PUSH1 0x0 REVERT JUMPDEST POP POP POP POP PUSH1 0x40 MLOAD RETURNDATASIZE PUSH1 0x1F NOT PUSH1 0x1F DUP3 ADD AND DUP3 ADD DUP1 PUSH1 0x40 MSTORE POP DUP2 ADD SWAP1 PUSH2 0x27AD SWAP2 SWAP1 PUSH2 0x44CE JUMP JUMPDEST LT ISZERO PUSH2 0x27CB JUMPI PUSH1 0x40 MLOAD PUSH3 0x461BCD PUSH1 0xE5 SHL DUP2 MSTORE PUSH1 0x4 ADD PUSH2 0xB66 SWAP1 PUSH2 0x44E7 JUMP JUMPDEST DUP1 PUSH1 0x7 PUSH1 0x0 DUP3 DUP3 SLOAD PUSH2 0x27DD SWAP2 SWAP1 PUSH2 0x428C JUMP JUMPDEST SWAP1 SWAP2 SSTORE POP POP PUSH1 0x40 MLOAD PUSH4 0xA9059CBB PUSH1 0xE0 SHL DUP2 MSTORE PUSH1 0x1 PUSH1 0x1 PUSH1 0xA0 SHL SUB DUP4 DUP2 AND PUSH1 0x4 DUP4 ADD MSTORE PUSH1 0x24 DUP3 ADD DUP4 SWAP1 MSTORE PUSH32 0x0 AND SWAP1 PUSH4 0xA9059CBB SWAP1 PUSH1 0x44 ADD PUSH1 0x20 PUSH1 0x40 MLOAD DUP1 DUP4 SUB DUP2 PUSH1 0x0 DUP8 GAS CALL ISZERO DUP1 ISZERO PUSH2 0x2851 JUMPI RETURNDATASIZE PUSH1 0x0 DUP1 RETURNDATACOPY RETURNDATASIZE PUSH1 0x0 REVERT JUMPDEST POP POP POP POP PUSH1 0x40 MLOAD RETURNDATASIZE PUSH1 0x1F NOT PUSH1 0x1F DUP3 ADD AND DUP3 ADD DUP1 PUSH1 0x40 MSTORE POP DUP2 ADD SWAP1 PUSH2 0x2875 SWAP2 SWAP1 PUSH2 0x4528 JUMP JUMPDEST PUSH2 0x28B9 JUMPI PUSH1 0x40 MLOAD PUSH3 0x461BCD PUSH1 0xE5 SHL DUP2 MSTORE PUSH1 0x20 PUSH1 0x4 DUP3 ADD MSTORE PUSH1 0x15 PUSH1 0x24 DUP3 ADD MSTORE PUSH21 0x119959481DDA5D1A191C985DD85B0819985A5B1959 PUSH1 0x5A SHL PUSH1 0x44 DUP3 ADD MSTORE PUSH1 0x64 ADD PUSH2 0xB66 JUMP JUMPDEST DUP2 PUSH1 0x1 PUSH1 0x1 PUSH1 0xA0 SHL SUB AND PUSH32 0xC0819C13BE868895EB93E40EACEB96DE976442FA1D404E5C55F14BB65A8C489A DUP3 PUSH1 0x40 MLOAD PUSH2 0x16F8 SWAP2 DUP2 MSTORE PUSH1 0x20 ADD SWAP1 JUMP JUMPDEST PUSH1 0x60 DUP1 PUSH1 0x0 PUSH2 0x2901 PUSH2 0x3BDD JUMP JUMPDEST PUSH1 0x0 DUP6 DUP2 MSTORE PUSH1 0x11 PUSH1 0x20 SWAP1 DUP2 MSTORE PUSH1 0x40 DUP1 DUP4 KECCAK256 PUSH1 0xE SWAP3 DUP4 SWAP1 MSTORE SWAP1 DUP4 KECCAK256 SLOAD PUSH1 0x9 DUP3 ADD SLOAD PUSH1 0x6 DUP4 ADD SLOAD PUSH1 0x7 DUP5 ADD SLOAD PUSH1 0x8 DUP6 ADD SLOAD SWAP6 DUP6 ADD SLOAD DUP6 SLOAD DUP9 SWAP8 DUP9 SWAP8 DUP9 SWAP8 DUP9 SWAP8 DUP9 SWAP8 SWAP3 SWAP7 DUP8 SWAP7 PUSH1 0x1 DUP9 ADD SWAP7 PUSH1 0xFF SWAP5 DUP6 AND SWAP7 PUSH1 0x3 DUP11 ADD SWAP7 SWAP5 SWAP6 DUP5 DUP2 AND SWAP5 PUSH2 0x100 SWAP1 DIV AND SWAP3 SWAP1 SWAP2 PUSH1 0x1 PUSH1 0x1 PUSH1 0xA0 SHL SUB SWAP1 SWAP2 AND SWAP1 DUP11 SWAP1 PUSH2 0x297A SWAP1 PUSH2 0x433B JUMP JUMPDEST DUP1 PUSH1 0x1F ADD PUSH1 0x20 DUP1 SWAP2 DIV MUL PUSH1 0x20 ADD PUSH1 0x40 MLOAD SWAP1 DUP2 ADD PUSH1 0x40 MSTORE DUP1 SWAP3 SWAP2 SWAP1 DUP2 DUP2 MSTORE PUSH1 0x20 ADD DUP3 DUP1 SLOAD PUSH2 0x29A6 SWAP1 PUSH2 0x433B JUMP JUMPDEST DUP1 ISZERO PUSH2 0x29F3 JUMPI DUP1 PUSH1 0x1F LT PUSH2 0x29C8 JUMPI PUSH2 0x100 DUP1 DUP4 SLOAD DIV MUL DUP4 MSTORE SWAP2 PUSH1 0x20 ADD SWAP2 PUSH2 0x29F3 JUMP JUMPDEST DUP3 ADD SWAP2 SWAP1 PUSH1 0x0 MSTORE PUSH1 0x20 PUSH1 0x0 KECCAK256 SWAP1 JUMPDEST DUP2 SLOAD DUP2 MSTORE SWAP1 PUSH1 0x1 ADD SWAP1 PUSH1 0x20 ADD DUP1 DUP4 GT PUSH2 0x29D6 JUMPI DUP3 SWAP1 SUB PUSH1 0x1F AND DUP3 ADD SWAP2 JUMPDEST POP POP POP POP POP SWAP10 POP DUP9 DUP1 SLOAD PUSH2 0x2A06 SWAP1 PUSH2 0x433B JUMP JUMPDEST DUP1 PUSH1 0x1F ADD PUSH1 0x20 DUP1 SWAP2 DIV MUL PUSH1 0x20 ADD PUSH1 0x40 MLOAD SWAP1 DUP2 ADD PUSH1 0x40 MSTORE DUP1 SWAP3 SWAP2 SWAP1 DUP2 DUP2 MSTORE PUSH1 0x20 ADD DUP3 DUP1 SLOAD PUSH2 0x2A32 SWAP1 PUSH2 0x433B JUMP JUMPDEST DUP1 ISZERO PUSH2 0x2A7F JUMPI DUP1 PUSH1 0x1F LT PUSH2 0x2A54 JUMPI PUSH2 0x100 DUP1 DUP4 SLOAD DIV MUL DUP4 MSTORE SWAP2 PUSH1 0x20 ADD SWAP2 PUSH2 0x2A7F JUMP JUMPDEST DUP3 ADD SWAP2 SWAP1 PUSH1 0x0 MSTORE PUSH1 0x20 PUSH1 0x0 KECCAK256 SWAP1 JUMPDEST DUP2 SLOAD DUP2 MSTORE SWAP1 PUSH1 0x1 ADD SWAP1 PUSH1 0x20 ADD DUP1 DUP4 GT PUSH2 0x2A62 JUMPI DUP3 SWAP1 SUB PUSH1 0x1F AND DUP3 ADD SWAP2 JUMPDEST POP POP PUSH1 0x40 DUP1 MLOAD PUSH1 0x60 DUP2 ADD SWAP1 SWAP2 MSTORE SWAP4 SWAP13 POP DUP11 SWAP3 POP PUSH1 0x3 SWAP2 POP PUSH1 0x0 SWAP1 POP DUP4 JUMPDEST DUP3 DUP3 LT ISZERO PUSH2 0x2B3F JUMPI DUP4 DUP3 ADD DUP1 SLOAD PUSH2 0x2AB2 SWAP1 PUSH2 0x433B JUMP JUMPDEST DUP1 PUSH1 0x1F ADD PUSH1 0x20 DUP1 SWAP2 DIV MUL PUSH1 0x20 ADD PUSH1 0x40 MLOAD SWAP1 DUP2 ADD PUSH1 0x40 MSTORE DUP1 SWAP3 SWAP2 SWAP1 DUP2 DUP2 MSTORE PUSH1 0x20 ADD DUP3 DUP1 SLOAD PUSH2 0x2ADE SWAP1 PUSH2 0x433B JUMP JUMPDEST DUP1 ISZERO PUSH2 0x2B2B JUMPI DUP1 PUSH1 0x1F LT PUSH2 0x2B00 JUMPI PUSH2 0x100 DUP1 DUP4 SLOAD DIV MUL DUP4 MSTORE SWAP2 PUSH1 0x20 ADD SWAP2 PUSH2 0x2B2B JUMP JUMPDEST DUP3 ADD SWAP2 SWAP1 PUSH1 0x0 MSTORE PUSH1 0x20 PUSH1 0x0 KECCAK256 SWAP1 JUMPDEST DUP2 SLOAD DUP2 MSTORE SWAP1 PUSH1 0x1 ADD SWAP1 PUSH1 0x20 ADD DUP1 DUP4 GT PUSH2 0x2B0E JUMPI DUP3 SWAP1 SUB PUSH1 0x1F AND DUP3 ADD SWAP2 JUMPDEST POP POP POP POP POP DUP2 MSTORE PUSH1 0x20 ADD SWAP1 PUSH1 0x1 ADD SWAP1 PUSH2 0x2A9C JUMP JUMPDEST POP POP POP POP SWAP7 POP SWAP11 POP SWAP11 POP SWAP11 POP SWAP11 POP SWAP11 POP SWAP11 POP SWAP11 POP SWAP11 POP SWAP11 POP SWAP11 POP POP SWAP2 SWAP4 SWAP6 SWAP8 SWAP10 POP SWAP2 SWAP4 SWAP6 SWAP8 SWAP10 JUMP JUMPDEST PUSH2 0x2B6F PUSH2 0x3973 JUMP JUMPDEST PUSH1 0x1 PUSH1 0x1 PUSH1 0xA0 SHL SUB DUP3 AND PUSH1 0x0 SWAP1 DUP2 MSTORE PUSH1 0xA PUSH1 0x20 MSTORE PUSH1 0x40 SWAP1 KECCAK256 SLOAD DUP2 GT ISZERO PUSH2 0x2BCD JUMPI PUSH1 0x40 MLOAD PUSH3 0x461BCD PUSH1 0xE5 SHL DUP2 MSTORE PUSH1 0x20 PUSH1 0x4 DUP3 ADD MSTORE PUSH1 0x13 PUSH1 0x24 DUP3 ADD MSTORE PUSH19 0x105B5BDD5B9D08195E18D959591CC81919589D PUSH1 0x6A SHL PUSH1 0x44 DUP3 ADD MSTORE PUSH1 0x64 ADD PUSH2 0xB66 JUMP JUMPDEST PUSH1 0x1 PUSH1 0x1 PUSH1 0xA0 SHL SUB DUP3 AND PUSH1 0x0 SWAP1 DUP2 MSTORE PUSH1 0xA PUSH1 0x20 MSTORE PUSH1 0x40 DUP2 KECCAK256 DUP1 SLOAD DUP4 SWAP3 SWAP1 PUSH2 0x2BF5 SWAP1 DUP5 SWAP1 PUSH2 0x428C JUMP JUMPDEST SWAP1 SWAP2 SSTORE POP POP PUSH1 0x40 MLOAD PUSH4 0x23B872DD PUSH1 0xE0 SHL DUP2 MSTORE PUSH1 0x1 PUSH1 0x1 PUSH1 0xA0 SHL SUB DUP4 DUP2 AND PUSH1 0x4 DUP4 ADD MSTORE ADDRESS PUSH1 0x24 DUP4 ADD MSTORE PUSH1 0x44 DUP3 ADD DUP4 SWAP1 MSTORE PUSH32 0x0 AND SWAP1 PUSH4 0x23B872DD SWAP1 PUSH1 0x64 ADD PUSH1 0x20 PUSH1 0x40 MLOAD DUP1 DUP4 SUB DUP2 PUSH1 0x0 DUP8 GAS CALL ISZERO DUP1 ISZERO PUSH2 0x2C6F JUMPI RETURNDATASIZE PUSH1 0x0 DUP1 RETURNDATACOPY RETURNDATASIZE PUSH1 0x0 REVERT JUMPDEST POP POP POP POP PUSH1 0x40 MLOAD RETURNDATASIZE PUSH1 0x1F NOT PUSH1 0x1F DUP3 ADD AND DUP3 ADD DUP1 PUSH1 0x40 MSTORE POP DUP2 ADD SWAP1 PUSH2 0x2C93 SWAP2 SWAP1 PUSH2 0x4528 JUMP JUMPDEST PUSH2 0x2CD2 JUMPI PUSH1 0x40 MLOAD PUSH3 0x461BCD PUSH1 0xE5 SHL DUP2 MSTORE PUSH1 0x20 PUSH1 0x4 DUP3 ADD MSTORE PUSH1 0x10 PUSH1 0x24 DUP3 ADD MSTORE PUSH16 0x14995C185E5B595B9D0819985A5B1959 PUSH1 0x82 SHL PUSH1 0x44 DUP3 ADD MSTORE PUSH1 0x64 ADD PUSH2 0xB66 JUMP JUMPDEST DUP2 PUSH1 0x1 PUSH1 0x1 PUSH1 0xA0 SHL SUB AND PUSH32 0x8A073C194E1CCDF6688351AC0E3FA50683A2A88723662368BDB9C18064A0304E DUP3 PUSH1 0x40 MLOAD PUSH2 0x16F8 SWAP2 DUP2 MSTORE PUSH1 0x20 ADD SWAP1 JUMP JUMPDEST PUSH2 0x2D15 PUSH2 0x3973 JUMP JUMPDEST PUSH1 0x0 DUP2 GT DUP1 ISZERO PUSH2 0x2D27 JUMPI POP PUSH2 0x3E8 DUP2 GT ISZERO JUMPDEST PUSH2 0x2D6A JUMPI PUSH1 0x40 MLOAD PUSH3 0x461BCD PUSH1 0xE5 SHL DUP2 MSTORE PUSH1 0x20 PUSH1 0x4 DUP3 ADD MSTORE PUSH1 0x14 PUSH1 0x24 DUP3 ADD MSTORE PUSH20 0x496E76616C696420706F696E74732076616C7565 PUSH1 0x60 SHL PUSH1 0x44 DUP3 ADD MSTORE PUSH1 0x64 ADD PUSH2 0xB66 JUMP JUMPDEST PUSH1 0x5 SSTORE JUMP JUMPDEST PUSH2 0x2D77 PUSH2 0x3973 JUMP JUMPDEST PUSH2 0x3E8 DUP2 GT ISZERO PUSH2 0x2DB8 JUMPI PUSH1 0x40 MLOAD PUSH3 0x461BCD PUSH1 0xE5 SHL DUP2 MSTORE PUSH1 0x20 PUSH1 0x4 DUP3 ADD MSTORE PUSH1 0xC PUSH1 0x24 DUP3 ADD MSTORE PUSH12 0x8CCACA40E8DEDE40D0D2CED PUSH1 0xA3 SHL PUSH1 0x44 DUP3 ADD MSTORE PUSH1 0x64 ADD PUSH2 0xB66 JUMP JUMPDEST PUSH1 0x3 SSTORE JUMP JUMPDEST PUSH2 0x2DC5 PUSH2 0x3973 JUMP JUMPDEST PUSH1 0x6 SSTORE JUMP JUMPDEST PUSH2 0x2DD2 PUSH2 0x3973 JUMP JUMPDEST PUSH1 0x1 PUSH1 0x1 PUSH1 0xA0 SHL SUB DUP3 AND PUSH2 0x2E28 JUMPI PUSH1 0x40 MLOAD PUSH3 0x461BCD PUSH1 0xE5 SHL DUP2 MSTORE PUSH1 0x20 PUSH1 0x4 DUP3 ADD MSTORE PUSH1 0x18 PUSH1 0x24 DUP3 ADD MSTORE PUSH32 0x496E76616C6964207265736F6C76657220616464726573730000000000000000 PUSH1 0x44 DUP3 ADD MSTORE PUSH1 0x64 ADD PUSH2 0xB66 JUMP JUMPDEST PUSH1 0x1 PUSH1 0x1 PUSH1 0xA0 SHL SUB DUP3 AND PUSH1 0x0 DUP2 DUP2 MSTORE PUSH1 0x13 PUSH1 0x20 SWAP1 DUP2 MSTORE PUSH1 0x40 SWAP2 DUP3 SWAP1 KECCAK256 DUP1 SLOAD PUSH1 0xFF NOT AND DUP6 ISZERO ISZERO SWAP1 DUP2 OR SWAP1 SWAP2 SSTORE SWAP2 MLOAD SWAP2 DUP3 MSTORE PUSH32 0x287574CF078FB59442FA4E01830412374E9C38FF02733F8D1E2AFC3F2325EB48 SWAP2 ADD PUSH2 0x16F8 JUMP JUMPDEST PUSH2 0x2E88 PUSH2 0x3973 JUMP JUMPDEST PUSH1 0x1 PUSH1 0x1 PUSH1 0xA0 SHL SUB DUP3 AND PUSH2 0x2ED0 JUMPI PUSH1 0x40 MLOAD PUSH3 0x461BCD PUSH1 0xE5 SHL DUP2 MSTORE PUSH1 0x20 PUSH1 0x4 DUP3 ADD MSTORE PUSH1 0xF PUSH1 0x24 DUP3 ADD MSTORE PUSH15 0x496E76616C69642061646472657373 PUSH1 0x88 SHL PUSH1 0x44 DUP3 ADD MSTORE PUSH1 0x64 ADD PUSH2 0xB66 JUMP JUMPDEST PUSH1 0x40 MLOAD PUSH4 0xA9059CBB PUSH1 0xE0 SHL DUP2 MSTORE PUSH1 0x1 PUSH1 0x1 PUSH1 0xA0 SHL SUB DUP4 DUP2 AND PUSH1 0x4 DUP4 ADD MSTORE PUSH1 0x24 DUP3 ADD DUP4 SWAP1 MSTORE DUP5 AND SWAP1 PUSH4 0xA9059CBB SWAP1 PUSH1 0x44 ADD PUSH1 0x20 PUSH1 0x40 MLOAD DUP1 DUP4 SUB DUP2 PUSH1 0x0 DUP8 GAS CALL ISZERO DUP1 ISZERO PUSH2 0x2F1F JUMPI RETURNDATASIZE PUSH1 0x0 DUP1 RETURNDATACOPY RETURNDATASIZE PUSH1 0x0 REVERT JUMPDEST POP POP POP POP PUSH1 0x40 MLOAD RETURNDATASIZE PUSH1 0x1F NOT PUSH1 0x1F DUP3 ADD AND DUP3 ADD DUP1 PUSH1 0x40 MSTORE POP DUP2 ADD SWAP1 PUSH2 0x21CE SWAP2 SWAP1 PUSH2 0x4528 JUMP JUMPDEST PUSH2 0x2F4B PUSH2 0x3A13 JUMP JUMPDEST PUSH2 0x2F53 PUSH2 0x39CD JUMP JUMPDEST PUSH1 0x0 DUP4 DUP2 MSTORE PUSH1 0x11 PUSH1 0x20 MSTORE PUSH1 0x40 SWAP1 KECCAK256 PUSH1 0x4 SLOAD DUP5 LT PUSH2 0x2F82 JUMPI PUSH1 0x40 MLOAD PUSH3 0x461BCD PUSH1 0xE5 SHL DUP2 MSTORE PUSH1 0x4 ADD PUSH2 0xB66 SWAP1 PUSH2 0x4545 JUMP JUMPDEST PUSH1 0x7 DUP2 ADD SLOAD PUSH1 0xFF AND ISZERO DUP1 ISZERO PUSH2 0x2FA1 JUMPI POP PUSH1 0x7 DUP2 ADD SLOAD PUSH2 0x100 SWAP1 DIV PUSH1 0xFF AND ISZERO JUMPDEST PUSH2 0x2FBD JUMPI PUSH1 0x40 MLOAD PUSH3 0x461BCD PUSH1 0xE5 SHL DUP2 MSTORE PUSH1 0x4 ADD PUSH2 0xB66 SWAP1 PUSH2 0x42D8 JUMP JUMPDEST DUP1 PUSH1 0x6 ADD SLOAD TIMESTAMP LT PUSH2 0x3010 JUMPI PUSH1 0x40 MLOAD PUSH3 0x461BCD PUSH1 0xE5 SHL DUP2 MSTORE PUSH1 0x20 PUSH1 0x4 DUP3 ADD MSTORE PUSH1 0x1B PUSH1 0x24 DUP3 ADD MSTORE PUSH32 0x42657474696E6720646561646C696E6520686173207061737365640000000000 PUSH1 0x44 DUP3 ADD MSTORE PUSH1 0x64 ADD PUSH2 0xB66 JUMP JUMPDEST PUSH1 0x3 DUP4 LT PUSH2 0x3055 JUMPI PUSH1 0x40 MLOAD PUSH3 0x461BCD PUSH1 0xE5 SHL DUP2 MSTORE PUSH1 0x20 PUSH1 0x4 DUP3 ADD MSTORE PUSH1 0x12 PUSH1 0x24 DUP3 ADD MSTORE PUSH18 0x125B9D985B1A59081BDD5D18DBDB59481251 PUSH1 0x72 SHL PUSH1 0x44 DUP3 ADD MSTORE PUSH1 0x64 ADD PUSH2 0xB66 JUMP JUMPDEST PUSH1 0x0 DUP3 GT PUSH2 0x30A5 JUMPI PUSH1 0x40 MLOAD PUSH3 0x461BCD PUSH1 0xE5 SHL DUP2 MSTORE PUSH1 0x20 PUSH1 0x4 DUP3 ADD MSTORE PUSH1 0x17 PUSH1 0x24 DUP3 ADD MSTORE PUSH32 0x416D6F756E74206D75737420626520706F736974697665000000000000000000 PUSH1 0x44 DUP3 ADD MSTORE PUSH1 0x64 ADD PUSH2 0xB66 JUMP JUMPDEST PUSH1 0x0 PUSH2 0x30D2 PUSH32 0x0 PUSH1 0xA PUSH2 0x4656 JUMP JUMPDEST PUSH2 0x30DD SWAP1 PUSH1 0x1 PUSH2 0x429F JUMP JUMPDEST SWAP1 POP PUSH1 0x0 PUSH2 0x310C PUSH32 0x0 PUSH1 0xA PUSH2 0x4656 JUMP JUMPDEST PUSH2 0x3118 SWAP1 PUSH2 0x2710 PUSH2 0x429F JUMP JUMPDEST SWAP1 POP DUP2 DUP5 LT ISZERO DUP1 ISZERO PUSH2 0x312A JUMPI POP DUP1 DUP5 GT ISZERO JUMPDEST PUSH2 0x316D JUMPI PUSH1 0x40 MLOAD PUSH3 0x461BCD PUSH1 0xE5 SHL DUP2 MSTORE PUSH1 0x20 PUSH1 0x4 DUP3 ADD MSTORE PUSH1 0x14 PUSH1 0x24 DUP3 ADD MSTORE PUSH20 0x416D6F756E74206F7574206F6620626F756E6473 PUSH1 0x60 SHL PUSH1 0x44 DUP3 ADD MSTORE PUSH1 0x64 ADD PUSH2 0xB66 JUMP JUMPDEST PUSH1 0x40 MLOAD PUSH4 0x23B872DD PUSH1 0xE0 SHL DUP2 MSTORE CALLER PUSH1 0x4 DUP3 ADD MSTORE ADDRESS PUSH1 0x24 DUP3 ADD MSTORE PUSH1 0x44 DUP2 ADD DUP6 SWAP1 MSTORE PUSH32 0x0 PUSH1 0x1 PUSH1 0x1 PUSH1 0xA0 SHL SUB AND SWAP1 PUSH4 0x23B872DD SWAP1 PUSH1 0x64 ADD PUSH1 0x20 PUSH1 0x40 MLOAD DUP1 DUP4 SUB DUP2 PUSH1 0x0 DUP8 GAS CALL ISZERO DUP1 ISZERO PUSH2 0x31E0 JUMPI RETURNDATASIZE PUSH1 0x0 DUP1 RETURNDATACOPY RETURNDATASIZE PUSH1 0x0 REVERT JUMPDEST POP POP POP POP PUSH1 0x40 MLOAD RETURNDATASIZE PUSH1 0x1F NOT PUSH1 0x1F DUP3 ADD AND DUP3 ADD DUP1 PUSH1 0x40 MSTORE POP DUP2 ADD SWAP1 PUSH2 0x3204 SWAP2 SWAP1 PUSH2 0x4528 JUMP JUMPDEST PUSH2 0x3248 JUMPI PUSH1 0x40 MLOAD PUSH3 0x461BCD PUSH1 0xE5 SHL DUP2 MSTORE PUSH1 0x20 PUSH1 0x4 DUP3 ADD MSTORE PUSH1 0x15 PUSH1 0x24 DUP3 ADD MSTORE PUSH21 0x151BDAD95B881D1C985B9CD9995C8819985A5B1959 PUSH1 0x5A SHL PUSH1 0x44 DUP3 ADD MSTORE PUSH1 0x64 ADD PUSH2 0xB66 JUMP JUMPDEST PUSH1 0x0 DUP7 DUP2 MSTORE PUSH1 0x12 PUSH1 0x20 SWAP1 DUP2 MSTORE PUSH1 0x40 DUP1 DUP4 KECCAK256 CALLER DUP5 MSTORE SWAP1 SWAP2 MSTORE DUP2 KECCAK256 SLOAD SWAP1 SUB PUSH2 0x330B JUMPI PUSH1 0x40 MLOAD PUSH4 0x70A08231 PUSH1 0xE0 SHL DUP2 MSTORE CALLER PUSH1 0x4 DUP3 ADD MSTORE PUSH32 0x0 PUSH1 0x1 PUSH1 0x1 PUSH1 0xA0 SHL SUB AND SWAP1 PUSH4 0x70A08231 SWAP1 PUSH1 0x24 ADD PUSH1 0x20 PUSH1 0x40 MLOAD DUP1 DUP4 SUB DUP2 DUP7 GAS STATICCALL ISZERO DUP1 ISZERO PUSH2 0x32CC JUMPI RETURNDATASIZE PUSH1 0x0 DUP1 RETURNDATACOPY RETURNDATASIZE PUSH1 0x0 REVERT JUMPDEST POP POP POP POP PUSH1 0x40 MLOAD RETURNDATASIZE PUSH1 0x1F NOT PUSH1 0x1F DUP3 ADD AND DUP3 ADD DUP1 PUSH1 0x40 MSTORE POP DUP2 ADD SWAP1 PUSH2 0x32F0 SWAP2 SWAP1 PUSH2 0x44CE JUMP JUMPDEST PUSH1 0x0 DUP8 DUP2 MSTORE PUSH1 0x12 PUSH1 0x20 SWAP1 DUP2 MSTORE PUSH1 0x40 DUP1 DUP4 KECCAK256 CALLER DUP5 MSTORE SWAP1 SWAP2 MSTORE SWAP1 KECCAK256 SSTORE JUMPDEST DUP4 DUP4 PUSH1 0x9 ADD PUSH1 0x0 DUP3 DUP3 SLOAD PUSH2 0x331F SWAP2 SWAP1 PUSH2 0x430F JUMP JUMPDEST SWAP1 SWAP2 SSTORE POP DUP5 SWAP1 POP PUSH1 0xB DUP5 ADD DUP7 PUSH1 0x3 DUP2 LT PUSH2 0x333B JUMPI PUSH2 0x333B PUSH2 0x4260 JUMP JUMPDEST ADD PUSH1 0x0 DUP3 DUP3 SLOAD PUSH2 0x334B SWAP2 SWAP1 PUSH2 0x430F JUMP JUMPDEST SWAP1 SWAP2 SSTORE POP POP CALLER PUSH1 0x0 SWAP1 DUP2 MSTORE PUSH1 0xF DUP5 ADD PUSH1 0x20 MSTORE PUSH1 0x40 SWAP1 KECCAK256 DUP5 SWAP1 DUP7 PUSH1 0x3 DUP2 LT PUSH2 0x3374 JUMPI PUSH2 0x3374 PUSH2 0x4260 JUMP JUMPDEST ADD PUSH1 0x0 DUP3 DUP3 SLOAD PUSH2 0x3384 SWAP2 SWAP1 PUSH2 0x430F JUMP JUMPDEST SWAP1 SWAP2 SSTORE POP PUSH1 0x0 SWAP1 POP PUSH2 0x33B7 PUSH32 0x0 PUSH1 0xA PUSH2 0x4656 JUMP JUMPDEST PUSH1 0x5 SLOAD PUSH2 0x33C4 SWAP1 DUP8 PUSH2 0x429F JUMP JUMPDEST PUSH2 0x33CE SWAP2 SWAP1 PUSH2 0x42B6 JUMP JUMPDEST PUSH1 0x40 MLOAD PUSH4 0x70A08231 PUSH1 0xE0 SHL DUP2 MSTORE CALLER PUSH1 0x4 DUP3 ADD MSTORE SWAP1 SWAP2 POP PUSH1 0x0 SWAP1 PUSH1 0x1 PUSH1 0x1 PUSH1 0xA0 SHL SUB PUSH32 0x0 AND SWAP1 PUSH4 0x70A08231 SWAP1 PUSH1 0x24 ADD PUSH1 0x20 PUSH1 0x40 MLOAD DUP1 DUP4 SUB DUP2 DUP7 GAS STATICCALL ISZERO DUP1 ISZERO PUSH2 0x3438 JUMPI RETURNDATASIZE PUSH1 0x0 DUP1 RETURNDATACOPY RETURNDATASIZE PUSH1 0x0 REVERT JUMPDEST POP POP POP POP PUSH1 0x40 MLOAD RETURNDATASIZE PUSH1 0x1F NOT PUSH1 0x1F DUP3 ADD AND DUP3 ADD DUP1 PUSH1 0x40 MSTORE POP DUP2 ADD SWAP1 PUSH2 0x345C SWAP2 SWAP1 PUSH2 0x44CE JUMP JUMPDEST PUSH1 0x40 DUP1 MLOAD DUP10 DUP2 MSTORE PUSH1 0x20 DUP2 ADD DUP10 SWAP1 MSTORE SWAP1 DUP2 ADD DUP3 SWAP1 MSTORE SWAP1 SWAP2 POP CALLER SWAP1 DUP10 SWAP1 PUSH32 0xAB2115BAC1DE808EB7FE2BE0309085B11F1F42B1EB980DE8352EFEFDBFC098E2 SWAP1 PUSH1 0x60 ADD PUSH1 0x40 MLOAD DUP1 SWAP2 SUB SWAP1 LOG3 PUSH1 0x40 DUP1 MLOAD DUP10 DUP2 MSTORE PUSH1 0x20 DUP2 ADD DUP5 SWAP1 MSTORE CALLER SWAP2 PUSH32 0x4B97A5E5E9B332836EEA24E70B760C1FFCE3041C0EB15309837D180F8BFFF26A SWAP2 ADD PUSH1 0x40 MLOAD DUP1 SWAP2 SUB SWAP1 LOG2 PUSH1 0x0 DUP9 DUP2 MSTORE PUSH1 0xE PUSH1 0x20 MSTORE PUSH1 0x40 SWAP1 KECCAK256 SLOAD PUSH1 0xFF AND ISZERO PUSH2 0x352C JUMPI PUSH1 0x40 MLOAD DUP9 DUP2 MSTORE CALLER SWAP1 PUSH32 0xC7CEF681EE4E9B064E67DCB5D564E1378AE41C9E65DA8E232B1F5CD866225325 SWAP1 PUSH1 0x20 ADD PUSH1 0x40 MLOAD DUP1 SWAP2 SUB SWAP1 LOG2 JUMPDEST POP POP POP POP POP PUSH2 0x353A PUSH1 0x1 DUP1 SSTORE JUMP JUMPDEST POP POP POP JUMP JUMPDEST CALLER PUSH1 0x0 SWAP1 DUP2 MSTORE PUSH1 0x13 PUSH1 0x20 MSTORE PUSH1 0x40 SWAP1 KECCAK256 SLOAD PUSH1 0xFF AND DUP1 PUSH2 0x3567 JUMPI POP PUSH1 0x0 SLOAD PUSH1 0x1 PUSH1 0x1 PUSH1 0xA0 SHL SUB AND CALLER EQ JUMPDEST PUSH2 0x35AF JUMPI PUSH1 0x40 MLOAD PUSH3 0x461BCD PUSH1 0xE5 SHL DUP2 MSTORE PUSH1 0x20 PUSH1 0x4 DUP3 ADD MSTORE PUSH1 0x19 PUSH1 0x24 DUP3 ADD MSTORE PUSH25 0x4E6F7420617574686F72697A656420746F207265736F6C7665 PUSH1 0x38 SHL PUSH1 0x44 DUP3 ADD MSTORE PUSH1 0x64 ADD PUSH2 0xB66 JUMP JUMPDEST PUSH1 0x0 DUP3 DUP2 MSTORE PUSH1 0x11 PUSH1 0x20 MSTORE PUSH1 0x40 SWAP1 KECCAK256 PUSH1 0x7 DUP2 ADD SLOAD PUSH1 0xFF AND ISZERO DUP1 ISZERO PUSH2 0x35DC JUMPI POP PUSH1 0x7 DUP2 ADD SLOAD PUSH2 0x100 SWAP1 DIV PUSH1 0xFF AND ISZERO JUMPDEST PUSH2 0x35F8 JUMPI PUSH1 0x40 MLOAD PUSH3 0x461BCD PUSH1 0xE5 SHL DUP2 MSTORE PUSH1 0x4 ADD PUSH2 0xB66 SWAP1 PUSH2 0x42D8 JUMP JUMPDEST PUSH1 0x3 DUP3 LT PUSH2 0x3648 JUMPI PUSH1 0x40 MLOAD PUSH3 0x461BCD PUSH1 0xE5 SHL DUP2 MSTORE PUSH1 0x20 PUSH1 0x4 DUP3 ADD MSTORE PUSH1 0x17 PUSH1 0x24 DUP3 ADD MSTORE PUSH32 0x496E76616C69642077696E6E696E67206F7574636F6D65000000000000000000 PUSH1 0x44 DUP3 ADD MSTORE PUSH1 0x64 ADD PUSH2 0xB66 JUMP JUMPDEST DUP1 PUSH1 0x6 ADD SLOAD TIMESTAMP LT ISZERO PUSH2 0x3693 JUMPI PUSH1 0x40 MLOAD PUSH3 0x461BCD PUSH1 0xE5 SHL DUP2 MSTORE PUSH1 0x20 PUSH1 0x4 DUP3 ADD MSTORE PUSH1 0x14 PUSH1 0x24 DUP3 ADD MSTORE PUSH20 0x111958591B1A5B99481B9BDD081C995858DA1959 PUSH1 0x62 SHL PUSH1 0x44 DUP3 ADD MSTORE PUSH1 0x64 ADD PUSH2 0xB66 JUMP JUMPDEST PUSH1 0x0 DUP2 PUSH1 0xB ADD DUP4 PUSH1 0x3 DUP2 LT PUSH2 0x36AA JUMPI PUSH2 0x36AA PUSH2 0x4260 JUMP JUMPDEST ADD SLOAD GT PUSH2 0x36F9 JUMPI PUSH1 0x40 MLOAD PUSH3 0x461BCD PUSH1 0xE5 SHL DUP2 MSTORE PUSH1 0x20 PUSH1 0x4 DUP3 ADD MSTORE PUSH1 0x1A PUSH1 0x24 DUP3 ADD MSTORE PUSH32 0x4E6F2062657473206F6E2077696E6E696E67206F7574636F6D65000000000000 PUSH1 0x44 DUP3 ADD MSTORE PUSH1 0x64 ADD PUSH2 0xB66 JUMP JUMPDEST PUSH2 0x3702 DUP4 PUSH2 0x2391 JUMP JUMPDEST PUSH2 0x3745 JUMPI PUSH1 0x40 MLOAD PUSH3 0x461BCD PUSH1 0xE5 SHL DUP2 MSTORE PUSH1 0x20 PUSH1 0x4 DUP3 ADD MSTORE PUSH1 0x14 PUSH1 0x24 DUP3 ADD MSTORE PUSH20 0x111D595B081A5CC81B9BDD0818985B185B98D959 PUSH1 0x62 SHL PUSH1 0x44 DUP3 ADD MSTORE PUSH1 0x64 ADD PUSH2 0xB66 JUMP JUMPDEST PUSH1 0x40 DUP1 MLOAD PUSH1 0x20 DUP1 DUP3 ADD DUP7 SWAP1 MSTORE DUP2 DUP4 ADD DUP6 SWAP1 MSTORE DUP3 MLOAD DUP1 DUP4 SUB DUP5 ADD DUP2 MSTORE PUSH1 0x60 SWAP1 SWAP3 ADD SWAP1 SWAP3 MSTORE DUP1 MLOAD SWAP2 ADD KECCAK256 PUSH1 0x0 PUSH2 0x377C PUSH3 0x15180 TIMESTAMP PUSH2 0x430F JUMP JUMPDEST PUSH1 0x0 DUP4 DUP2 MSTORE PUSH1 0x10 PUSH1 0x20 SWAP1 DUP2 MSTORE PUSH1 0x40 SWAP2 DUP3 SWAP1 KECCAK256 DUP4 SWAP1 SSTORE DUP2 MLOAD DUP8 DUP2 MSTORE SWAP1 DUP2 ADD DUP4 SWAP1 MSTORE SWAP2 SWAP3 POP DUP7 SWAP2 PUSH32 0xCC684BA03C326954C633140F1FC4EAD5ADB1243A9675FEF4BBE39F56E8463158 SWAP2 ADD PUSH2 0xD2A JUMP JUMPDEST PUSH2 0x37D1 PUSH2 0x3973 JUMP JUMPDEST PUSH1 0x1 PUSH1 0x1 PUSH1 0xA0 SHL SUB DUP2 AND PUSH2 0x3827 JUMPI PUSH1 0x40 MLOAD PUSH3 0x461BCD PUSH1 0xE5 SHL DUP2 MSTORE PUSH1 0x20 PUSH1 0x4 DUP3 ADD MSTORE PUSH1 0x1D PUSH1 0x24 DUP3 ADD MSTORE PUSH32 0x4E6577206F776E657220697320746865207A65726F2061646472657373000000 PUSH1 0x44 DUP3 ADD MSTORE PUSH1 0x64 ADD PUSH2 0xB66 JUMP JUMPDEST PUSH2 0x1643 DUP2 PUSH2 0x3ABE JUMP JUMPDEST CALLER PUSH1 0x0 SWAP1 DUP2 MSTORE PUSH1 0xF PUSH1 0x20 MSTORE PUSH1 0x40 SWAP1 KECCAK256 SLOAD PUSH1 0xFF AND DUP1 PUSH2 0x3858 JUMPI POP PUSH1 0x0 SLOAD PUSH1 0x1 PUSH1 0x1 PUSH1 0xA0 SHL SUB AND CALLER EQ JUMPDEST PUSH2 0x38A4 JUMPI PUSH1 0x40 MLOAD PUSH3 0x461BCD PUSH1 0xE5 SHL DUP2 MSTORE PUSH1 0x20 PUSH1 0x4 DUP3 ADD MSTORE PUSH1 0x18 PUSH1 0x24 DUP3 ADD MSTORE PUSH32 0x4E6F7420617574686F72697A6564206D6F64657261746F720000000000000000 PUSH1 0x44 DUP3 ADD MSTORE PUSH1 0x64 ADD PUSH2 0xB66 JUMP JUMPDEST PUSH1 0x4 SLOAD DUP3 LT PUSH2 0x38C5 JUMPI PUSH1 0x40 MLOAD PUSH3 0x461BCD PUSH1 0xE5 SHL DUP2 MSTORE PUSH1 0x4 ADD PUSH2 0xB66 SWAP1 PUSH2 0x4545 JUMP JUMPDEST PUSH1 0x0 DUP3 DUP2 MSTORE PUSH1 0xE PUSH1 0x20 SWAP1 DUP2 MSTORE PUSH1 0x40 SWAP2 DUP3 SWAP1 KECCAK256 DUP1 SLOAD PUSH1 0xFF NOT AND DUP5 ISZERO ISZERO SWAP1 DUP2 OR SWAP1 SWAP2 SSTORE SWAP2 MLOAD SWAP2 DUP3 MSTORE DUP4 SWAP2 PUSH32 0xF55821CEBA42951B9AA03907B558E1375E504CED6C60BBDF3025384EB0D51318 SWAP2 ADD PUSH2 0x16F8 JUMP JUMPDEST PUSH2 0x391D PUSH2 0x3C04 JUMP JUMPDEST POP PUSH1 0x40 DUP1 MLOAD PUSH1 0x60 DUP2 ADD DUP3 MSTORE PUSH1 0x0 SWAP4 DUP5 MSTORE PUSH1 0x11 PUSH1 0x20 SWAP1 DUP2 MSTORE DUP3 DUP6 KECCAK256 PUSH1 0x1 PUSH1 0x1 PUSH1 0xA0 SHL SUB SWAP5 SWAP1 SWAP5 AND DUP1 DUP7 MSTORE PUSH1 0xF SWAP1 SWAP5 ADD DUP1 DUP3 MSTORE DUP4 DUP7 KECCAK256 DUP1 SLOAD DUP5 MSTORE PUSH1 0x1 DUP2 ADD SLOAD DUP4 DUP6 ADD MSTORE SWAP5 SWAP1 SWAP6 MSTORE SWAP4 SWAP1 SWAP4 MSTORE PUSH1 0x2 SWAP1 SWAP2 ADD SLOAD SWAP1 DUP3 ADD MSTORE SWAP1 JUMP JUMPDEST PUSH1 0x0 SLOAD PUSH1 0x1 PUSH1 0x1 PUSH1 0xA0 SHL SUB AND CALLER EQ PUSH2 0x1714 JUMPI PUSH1 0x40 MLOAD PUSH3 0x461BCD PUSH1 0xE5 SHL DUP2 MSTORE PUSH1 0x20 PUSH1 0x4 DUP3 ADD DUP2 SWAP1 MSTORE PUSH1 0x24 DUP3 ADD MSTORE PUSH32 0x4F776E61626C653A2063616C6C6572206973206E6F7420746865206F776E6572 PUSH1 0x44 DUP3 ADD MSTORE PUSH1 0x64 ADD PUSH2 0xB66 JUMP JUMPDEST PUSH1 0x2 SLOAD PUSH1 0xFF AND ISZERO PUSH2 0x1714 JUMPI PUSH1 0x40 MLOAD PUSH3 0x461BCD PUSH1 0xE5 SHL DUP2 MSTORE PUSH1 0x20 PUSH1 0x4 DUP3 ADD MSTORE PUSH1 0x10 PUSH1 0x24 DUP3 ADD MSTORE PUSH16 0x14185D5CD8589B194E881C185D5CD959 PUSH1 0x82 SHL PUSH1 0x44 DUP3 ADD MSTORE PUSH1 0x64 ADD PUSH2 0xB66 JUMP JUMPDEST PUSH1 0x2 PUSH1 0x1 SLOAD SUB PUSH2 0x3A65 JUMPI PUSH1 0x40 MLOAD PUSH3 0x461BCD PUSH1 0xE5 SHL DUP2 MSTORE PUSH1 0x20 PUSH1 0x4 DUP3 ADD MSTORE PUSH1 0x1F PUSH1 0x24 DUP3 ADD MSTORE PUSH32 0x5265656E7472616E637947756172643A207265656E7472616E742063616C6C00 PUSH1 0x44 DUP3 ADD MSTORE PUSH1 0x64 ADD PUSH2 0xB66 JUMP JUMPDEST PUSH1 0x2 PUSH1 0x1 SSTORE JUMP JUMPDEST PUSH2 0x3A74 PUSH2 0x3B4B JUMP JUMPDEST PUSH1 0x2 DUP1 SLOAD PUSH1 0xFF NOT AND SWAP1 SSTORE PUSH32 0x5DB9EE0A495BF2E6FF9C91A7834C1BA4FDD244A5E8AA4E537BD38AEAE4B073AA CALLER JUMPDEST PUSH1 0x40 MLOAD PUSH1 0x1 PUSH1 0x1 PUSH1 0xA0 SHL SUB SWAP1 SWAP2 AND DUP2 MSTORE PUSH1 0x20 ADD PUSH1 0x40 MLOAD DUP1 SWAP2 SUB SWAP1 LOG1 JUMP JUMPDEST PUSH1 0x0 DUP1 SLOAD PUSH1 0x1 PUSH1 0x1 PUSH1 0xA0 SHL SUB DUP4 DUP2 AND PUSH1 0x1 PUSH1 0x1 PUSH1 0xA0 SHL SUB NOT DUP4 AND DUP2 OR DUP5 SSTORE PUSH1 0x40 MLOAD SWAP2 SWAP1 SWAP3 AND SWAP3 DUP4 SWAP2 PUSH32 0x8BE0079C531659141344CD1FD0A4F28419497F9722A3DAAFE3B4186F6B6457E0 SWAP2 SWAP1 LOG3 POP POP JUMP JUMPDEST PUSH2 0x3B16 PUSH2 0x39CD JUMP JUMPDEST PUSH1 0x2 DUP1 SLOAD PUSH1 0xFF NOT AND PUSH1 0x1 OR SWAP1 SSTORE PUSH32 0x62E78CEA01BEE320CD4E420270B5EA74000D11B0C9F74754EBDBFC544B05A258 PUSH2 0x3AA1 CALLER SWAP1 JUMP JUMPDEST PUSH1 0x2 SLOAD PUSH1 0xFF AND PUSH2 0x1714 JUMPI PUSH1 0x40 MLOAD PUSH3 0x461BCD PUSH1 0xE5 SHL DUP2 MSTORE PUSH1 0x20 PUSH1 0x4 DUP3 ADD MSTORE PUSH1 0x14 PUSH1 0x24 DUP3 ADD MSTORE PUSH20 0x14185D5CD8589B194E881B9BDD081C185D5CD959 PUSH1 0x62 SHL PUSH1 0x44 DUP3 ADD MSTORE PUSH1 0x64 ADD PUSH2 0xB66 JUMP JUMPDEST DUP3 PUSH1 0x3 DUP2 ADD SWAP3 DUP3 ISZERO PUSH2 0x3BCD JUMPI SWAP2 PUSH1 0x20 MUL DUP3 ADD JUMPDEST DUP3 DUP2 GT ISZERO PUSH2 0x3BCD JUMPI DUP3 MLOAD DUP3 SWAP1 PUSH2 0x3BBD SWAP1 DUP3 PUSH2 0x43C3 JUMP JUMPDEST POP SWAP2 PUSH1 0x20 ADD SWAP2 SWAP1 PUSH1 0x1 ADD SWAP1 PUSH2 0x3BA7 JUMP JUMPDEST POP PUSH2 0x3BD9 SWAP3 SWAP2 POP PUSH2 0x3C22 JUMP JUMPDEST POP SWAP1 JUMP JUMPDEST PUSH1 0x40 MLOAD DUP1 PUSH1 0x60 ADD PUSH1 0x40 MSTORE DUP1 PUSH1 0x3 SWAP1 JUMPDEST PUSH1 0x60 DUP2 MSTORE PUSH1 0x20 ADD SWAP1 PUSH1 0x1 SWAP1 SUB SWAP1 DUP2 PUSH2 0x3BEC JUMPI SWAP1 POP POP SWAP1 JUMP JUMPDEST PUSH1 0x40 MLOAD DUP1 PUSH1 0x60 ADD PUSH1 0x40 MSTORE DUP1 PUSH1 0x3 SWAP1 PUSH1 0x20 DUP3 MUL DUP1 CALLDATASIZE DUP4 CALLDATACOPY POP SWAP2 SWAP3 SWAP2 POP POP JUMP JUMPDEST DUP1 DUP3 GT ISZERO PUSH2 0x3BD9 JUMPI PUSH1 0x0 PUSH2 0x3C36 DUP3 DUP3 PUSH2 0x3C3F JUMP JUMPDEST POP PUSH1 0x1 ADD PUSH2 0x3C22 JUMP JUMPDEST POP DUP1 SLOAD PUSH2 0x3C4B SWAP1 PUSH2 0x433B JUMP JUMPDEST PUSH1 0x0 DUP3 SSTORE DUP1 PUSH1 0x1F LT PUSH2 0x3C5B JUMPI POP POP JUMP JUMPDEST PUSH1 0x1F ADD PUSH1 0x20 SWAP1 DIV SWAP1 PUSH1 0x0 MSTORE PUSH1 0x20 PUSH1 0x0 KECCAK256 SWAP1 DUP2 ADD SWAP1 PUSH2 0x1643 SWAP2 SWAP1 JUMPDEST DUP1 DUP3 GT ISZERO PUSH2 0x3BD9 JUMPI PUSH1 0x0 DUP2 SSTORE PUSH1 0x1 ADD PUSH2 0x3C75 JUMP JUMPDEST DUP1 CALLDATALOAD PUSH1 0x1 PUSH1 0x1 PUSH1 0xA0 SHL SUB DUP2 AND DUP2 EQ PUSH2 0x3CA0 JUMPI PUSH1 0x0 DUP1 REVERT JUMPDEST SWAP2 SWAP1 POP JUMP JUMPDEST PUSH1 0x0 PUSH1 0x20 DUP3 DUP5 SUB SLT ISZERO PUSH2 0x3CB7 JUMPI PUSH1 0x0 DUP1 REVERT JUMPDEST PUSH2 0x3CC0 DUP3 PUSH2 0x3C89 JUMP JUMPDEST SWAP4 SWAP3 POP POP POP JUMP JUMPDEST PUSH1 0x0 DUP1 PUSH1 0x40 DUP4 DUP6 SUB SLT ISZERO PUSH2 0x3CDA JUMPI PUSH1 0x0 DUP1 REVERT JUMPDEST DUP3 CALLDATALOAD SWAP2 POP PUSH2 0x3CEA PUSH1 0x20 DUP5 ADD PUSH2 0x3C89 JUMP JUMPDEST SWAP1 POP SWAP3 POP SWAP3 SWAP1 POP JUMP JUMPDEST PUSH1 0x0 DUP1 PUSH1 0x40 DUP4 DUP6 SUB SLT ISZERO PUSH2 0x3D06 JUMPI PUSH1 0x0 DUP1 REVERT JUMPDEST POP POP DUP1 CALLDATALOAD SWAP3 PUSH1 0x20 SWAP1 SWAP2 ADD CALLDATALOAD SWAP2 POP JUMP JUMPDEST PUSH1 0x0 PUSH1 0x20 DUP3 DUP5 SUB SLT ISZERO PUSH2 0x3D27 JUMPI PUSH1 0x0 DUP1 REVERT JUMPDEST POP CALLDATALOAD SWAP2 SWAP1 POP JUMP JUMPDEST PUSH4 0x4E487B71 PUSH1 0xE0 SHL PUSH1 0x0 MSTORE PUSH1 0x41 PUSH1 0x4 MSTORE PUSH1 0x24 PUSH1 0x0 REVERT JUMPDEST PUSH1 0x0 DUP3 PUSH1 0x1F DUP4 ADD SLT PUSH2 0x3D55 JUMPI PUSH1 0x0 DUP1 REVERT JUMPDEST DUP2 CALLDATALOAD PUSH8 0xFFFFFFFFFFFFFFFF DUP1 DUP3 GT ISZERO PUSH2 0x3D70 JUMPI PUSH2 0x3D70 PUSH2 0x3D2E JUMP JUMPDEST PUSH1 0x40 MLOAD PUSH1 0x1F DUP4 ADD PUSH1 0x1F NOT SWAP1 DUP2 AND PUSH1 0x3F ADD AND DUP2 ADD SWAP1 DUP3 DUP3 GT DUP2 DUP4 LT OR ISZERO PUSH2 0x3D98 JUMPI PUSH2 0x3D98 PUSH2 0x3D2E JUMP JUMPDEST DUP2 PUSH1 0x40 MSTORE DUP4 DUP2 MSTORE DUP7 PUSH1 0x20 DUP6 DUP9 ADD ADD GT ISZERO PUSH2 0x3DB1 JUMPI PUSH1 0x0 DUP1 REVERT JUMPDEST DUP4 PUSH1 0x20 DUP8 ADD PUSH1 0x20 DUP4 ADD CALLDATACOPY PUSH1 0x0 PUSH1 0x20 DUP6 DUP4 ADD ADD MSTORE DUP1 SWAP5 POP POP POP POP POP SWAP3 SWAP2 POP POP JUMP JUMPDEST DUP1 ISZERO ISZERO DUP2 EQ PUSH2 0x1643 JUMPI PUSH1 0x0 DUP1 REVERT JUMPDEST PUSH1 0x0 DUP3 PUSH1 0x1F DUP4 ADD SLT PUSH2 0x3DF0 JUMPI PUSH1 0x0 DUP1 REVERT JUMPDEST PUSH1 0x40 MLOAD PUSH1 0x60 DUP2 ADD PUSH8 0xFFFFFFFFFFFFFFFF DUP3 DUP3 LT DUP2 DUP4 GT OR ISZERO PUSH2 0x3E14 JUMPI PUSH2 0x3E14 PUSH2 0x3D2E JUMP JUMPDEST DUP2 PUSH1 0x40 MSTORE DUP3 SWAP2 POP PUSH1 0x60 DUP6 ADD DUP7 DUP2 GT ISZERO PUSH2 0x3E2C JUMPI PUSH1 0x0 DUP1 REVERT JUMPDEST DUP6 JUMPDEST DUP2 DUP2 LT ISZERO PUSH2 0x3E61 JUMPI DUP1 CALLDATALOAD DUP4 DUP2 GT ISZERO PUSH2 0x3E46 JUMPI PUSH1 0x0 DUP1 DUP2 REVERT JUMPDEST PUSH2 0x3E52 DUP10 DUP3 DUP11 ADD PUSH2 0x3D44 JUMP JUMPDEST DUP6 MSTORE POP PUSH1 0x20 SWAP4 DUP5 ADD SWAP4 ADD PUSH2 0x3E2E JUMP JUMPDEST POP SWAP3 SWAP7 SWAP6 POP POP POP POP POP POP JUMP JUMPDEST PUSH1 0x0 DUP1 PUSH1 0x0 DUP1 PUSH1 0x0 PUSH1 0xA0 DUP7 DUP9 SUB SLT ISZERO PUSH2 0x3E85 JUMPI PUSH1 0x0 DUP1 REVERT JUMPDEST DUP6 CALLDATALOAD PUSH8 0xFFFFFFFFFFFFFFFF DUP1 DUP3 GT ISZERO PUSH2 0x3E9D JUMPI PUSH1 0x0 DUP1 REVERT JUMPDEST PUSH2 0x3EA9 DUP10 DUP4 DUP11 ADD PUSH2 0x3D44 JUMP JUMPDEST SWAP7 POP PUSH1 0x20 DUP9 ADD CALLDATALOAD SWAP2 POP DUP1 DUP3 GT ISZERO PUSH2 0x3EBF JUMPI PUSH1 0x0 DUP1 REVERT JUMPDEST PUSH2 0x3ECB DUP10 DUP4 DUP11 ADD PUSH2 0x3D44 JUMP JUMPDEST SWAP6 POP PUSH1 0x40 DUP9 ADD CALLDATALOAD SWAP2 POP PUSH2 0x3EDD DUP3 PUSH2 0x3DD1 JUMP JUMPDEST SWAP1 SWAP4 POP PUSH1 0x60 DUP8 ADD CALLDATALOAD SWAP1 DUP1 DUP3 GT ISZERO PUSH2 0x3EF3 JUMPI PUSH1 0x0 DUP1 REVERT JUMPDEST POP PUSH2 0x3F00 DUP9 DUP3 DUP10 ADD PUSH2 0x3DDF JUMP JUMPDEST SWAP6 SWAP9 SWAP5 SWAP8 POP SWAP3 SWAP6 PUSH1 0x80 ADD CALLDATALOAD SWAP4 SWAP3 POP POP POP JUMP JUMPDEST PUSH1 0x0 DUP1 PUSH1 0x40 DUP4 DUP6 SUB SLT ISZERO PUSH2 0x3F25 JUMPI PUSH1 0x0 DUP1 REVERT JUMPDEST PUSH2 0x3F2E DUP4 PUSH2 0x3C89 JUMP JUMPDEST SWAP2 POP PUSH1 0x20 DUP4 ADD CALLDATALOAD PUSH2 0x3F3E DUP2 PUSH2 0x3DD1 JUMP JUMPDEST DUP1 SWAP2 POP POP SWAP3 POP SWAP3 SWAP1 POP JUMP JUMPDEST PUSH1 0x0 DUP1 PUSH1 0x0 DUP1 PUSH1 0x80 DUP6 DUP8 SUB SLT ISZERO PUSH2 0x3F5F JUMPI PUSH1 0x0 DUP1 REVERT JUMPDEST DUP5 CALLDATALOAD PUSH8 0xFFFFFFFFFFFFFFFF DUP1 DUP3 GT ISZERO PUSH2 0x3F77 JUMPI PUSH1 0x0 DUP1 REVERT JUMPDEST PUSH2 0x3F83 DUP9 DUP4 DUP10 ADD PUSH2 0x3D44 JUMP JUMPDEST SWAP6 POP PUSH1 0x20 DUP8 ADD CALLDATALOAD SWAP2 POP DUP1 DUP3 GT ISZERO PUSH2 0x3F99 JUMPI PUSH1 0x0 DUP1 REVERT JUMPDEST PUSH2 0x3FA5 DUP9 DUP4 DUP10 ADD PUSH2 0x3D44 JUMP JUMPDEST SWAP5 POP PUSH1 0x40 DUP8 ADD CALLDATALOAD SWAP2 POP DUP1 DUP3 GT ISZERO PUSH2 0x3FBB JUMPI PUSH1 0x0 DUP1 REVERT JUMPDEST POP PUSH2 0x3FC8 DUP8 DUP3 DUP9 ADD PUSH2 0x3DDF JUMP JUMPDEST SWAP5 SWAP8 SWAP4 SWAP7 POP SWAP4 SWAP5 PUSH1 0x60 ADD CALLDATALOAD SWAP4 POP POP POP JUMP JUMPDEST PUSH1 0x0 PUSH1 0x20 DUP3 DUP5 SUB SLT ISZERO PUSH2 0x3FEB JUMPI PUSH1 0x0 DUP1 REVERT JUMPDEST DUP2 CALLDATALOAD PUSH2 0x3CC0 DUP2 PUSH2 0x3DD1 JUMP JUMPDEST PUSH1 0x0 DUP2 MLOAD DUP1 DUP5 MSTORE PUSH1 0x0 JUMPDEST DUP2 DUP2 LT ISZERO PUSH2 0x401C JUMPI PUSH1 0x20 DUP2 DUP6 ADD DUP2 ADD MLOAD DUP7 DUP4 ADD DUP3 ADD MSTORE ADD PUSH2 0x4000 JUMP JUMPDEST POP PUSH1 0x0 PUSH1 0x20 DUP3 DUP7 ADD ADD MSTORE PUSH1 0x20 PUSH1 0x1F NOT PUSH1 0x1F DUP4 ADD AND DUP6 ADD ADD SWAP2 POP POP SWAP3 SWAP2 POP POP JUMP JUMPDEST PUSH1 0x0 PUSH2 0x140 DUP1 DUP4 MSTORE PUSH2 0x4050 DUP2 DUP5 ADD DUP15 PUSH2 0x3FF6 JUMP JUMPDEST SWAP1 POP DUP3 DUP2 SUB PUSH1 0x20 DUP5 ADD MSTORE PUSH2 0x4064 DUP2 DUP14 PUSH2 0x3FF6 JUMP JUMPDEST SWAP11 ISZERO ISZERO PUSH1 0x40 DUP5 ADD MSTORE POP POP PUSH1 0x60 DUP2 ADD SWAP8 SWAP1 SWAP8 MSTORE SWAP5 ISZERO ISZERO PUSH1 0x80 DUP8 ADD MSTORE SWAP3 ISZERO ISZERO PUSH1 0xA0 DUP7 ADD MSTORE PUSH1 0xC0 DUP6 ADD SWAP2 SWAP1 SWAP2 MSTORE PUSH1 0xE0 DUP5 ADD MSTORE PUSH2 0x100 DUP4 ADD MSTORE PUSH1 0x1 PUSH1 0x1 PUSH1 0xA0 SHL SUB AND PUSH2 0x120 SWAP1 SWAP2 ADD MSTORE SWAP3 SWAP2 POP POP JUMP JUMPDEST PUSH1 0x0 DUP1 PUSH1 0x40 DUP4 DUP6 SUB SLT ISZERO PUSH2 0x40C2 JUMPI PUSH1 0x0 DUP1 REVERT JUMPDEST PUSH2 0x40CB DUP4 PUSH2 0x3C89 JUMP JUMPDEST SWAP5 PUSH1 0x20 SWAP4 SWAP1 SWAP4 ADD CALLDATALOAD SWAP4 POP POP POP JUMP JUMPDEST PUSH1 0x0 DUP3 PUSH1 0x60 DUP2 ADD DUP4 PUSH1 0x0 JUMPDEST PUSH1 0x3 DUP2 LT ISZERO PUSH2 0x4113 JUMPI DUP4 DUP4 SUB DUP8 MSTORE PUSH2 0x40FD DUP4 DUP4 MLOAD PUSH2 0x3FF6 JUMP JUMPDEST PUSH1 0x20 SWAP8 DUP9 ADD SWAP8 SWAP1 SWAP4 POP SWAP2 SWAP1 SWAP2 ADD SWAP1 PUSH1 0x1 ADD PUSH2 0x40E4 JUMP JUMPDEST POP SWAP1 SWAP6 SWAP5 POP POP POP POP POP JUMP JUMPDEST PUSH1 0x0 PUSH2 0x140 DUP1 DUP4 MSTORE PUSH2 0x4132 DUP2 DUP5 ADD DUP15 PUSH2 0x3FF6 JUMP JUMPDEST SWAP1 POP DUP3 DUP2 SUB PUSH1 0x20 DUP5 ADD MSTORE PUSH2 0x4146 DUP2 DUP14 PUSH2 0x3FF6 JUMP JUMPDEST SWAP1 POP DUP11 ISZERO ISZERO PUSH1 0x40 DUP5 ADD MSTORE DUP3 DUP2 SUB PUSH1 0x60 DUP5 ADD MSTORE PUSH2 0x4162 DUP2 DUP12 PUSH2 0x40D9 JUMP JUMPDEST PUSH1 0x80 DUP5 ADD SWAP10 SWAP1 SWAP10 MSTORE POP POP PUSH1 0xA0 DUP2 ADD SWAP6 SWAP1 SWAP6 MSTORE SWAP3 ISZERO ISZERO PUSH1 0xC0 DUP6 ADD MSTORE SWAP1 ISZERO ISZERO PUSH1 0xE0 DUP5 ADD MSTORE PUSH2 0x100 DUP4 ADD MSTORE PUSH1 0x1 PUSH1 0x1 PUSH1 0xA0 SHL SUB AND PUSH2 0x120 SWAP1 SWAP2 ADD MSTORE SWAP5 SWAP4 POP POP POP POP JUMP JUMPDEST PUSH1 0x0 DUP1 PUSH1 0x0 PUSH1 0x60 DUP5 DUP7 SUB SLT ISZERO PUSH2 0x41B7 JUMPI PUSH1 0x0 DUP1 REVERT JUMPDEST PUSH2 0x41C0 DUP5 PUSH2 0x3C89 JUMP JUMPDEST SWAP3 POP PUSH2 0x41CE PUSH1 0x20 DUP6 ADD PUSH2 0x3C89 JUMP JUMPDEST SWAP2 POP PUSH1 0x40 DUP5 ADD CALLDATALOAD SWAP1 POP SWAP3 POP SWAP3 POP SWAP3 JUMP JUMPDEST PUSH1 0x0 DUP1 PUSH1 0x0 PUSH1 0x60 DUP5 DUP7 SUB SLT ISZERO PUSH2 0x41F3 JUMPI PUSH1 0x0 DUP1 REVERT JUMPDEST POP POP DUP2 CALLDATALOAD SWAP4 PUSH1 0x20 DUP4 ADD CALLDATALOAD SWAP4 POP PUSH1 0x40 SWAP1 SWAP3 ADD CALLDATALOAD SWAP2 SWAP1 POP JUMP JUMPDEST PUSH1 0x0 DUP1 PUSH1 0x40 DUP4 DUP6 SUB SLT ISZERO PUSH2 0x421D JUMPI PUSH1 0x0 DUP1 REVERT JUMPDEST DUP3 CALLDATALOAD SWAP2 POP PUSH1 0x20 DUP4 ADD CALLDATALOAD PUSH2 0x3F3E DUP2 PUSH2 0x3DD1 JUMP JUMPDEST PUSH1 0x60 DUP2 ADD DUP2 DUP4 PUSH1 0x0 JUMPDEST PUSH1 0x3 DUP2 LT ISZERO PUSH2 0x4257 JUMPI DUP2 MLOAD DUP4 MSTORE PUSH1 0x20 SWAP3 DUP4 ADD SWAP3 SWAP1 SWAP2 ADD SWAP1 PUSH1 0x1 ADD PUSH2 0x4238 JUMP JUMPDEST POP POP POP SWAP3 SWAP2 POP POP JUMP JUMPDEST PUSH4 0x4E487B71 PUSH1 0xE0 SHL PUSH1 0x0 MSTORE PUSH1 0x32 PUSH1 0x4 MSTORE PUSH1 0x24 PUSH1 0x0 REVERT JUMPDEST PUSH4 0x4E487B71 PUSH1 0xE0 SHL PUSH1 0x0 MSTORE PUSH1 0x11 PUSH1 0x4 MSTORE PUSH1 0x24 PUSH1 0x0 REVERT JUMPDEST DUP2 DUP2 SUB DUP2 DUP2 GT ISZERO PUSH2 0x1784 JUMPI PUSH2 0x1784 PUSH2 0x4276 JUMP JUMPDEST DUP1 DUP3 MUL DUP2 ISZERO DUP3 DUP3 DIV DUP5 EQ OR PUSH2 0x1784 JUMPI PUSH2 0x1784 PUSH2 0x4276 JUMP JUMPDEST PUSH1 0x0 DUP3 PUSH2 0x42D3 JUMPI PUSH4 0x4E487B71 PUSH1 0xE0 SHL PUSH1 0x0 MSTORE PUSH1 0x12 PUSH1 0x4 MSTORE PUSH1 0x24 PUSH1 0x0 REVERT JUMPDEST POP DIV SWAP1 JUMP JUMPDEST PUSH1 0x20 DUP1 DUP3 MSTORE PUSH1 0x1C SWAP1 DUP3 ADD MSTORE PUSH32 0x4475656C206973207265736F6C766564206F722063616E63656C656400000000 PUSH1 0x40 DUP3 ADD MSTORE PUSH1 0x60 ADD SWAP1 JUMP JUMPDEST DUP1 DUP3 ADD DUP1 DUP3 GT ISZERO PUSH2 0x1784 JUMPI PUSH2 0x1784 PUSH2 0x4276 JUMP JUMPDEST PUSH1 0x0 PUSH1 0x1 DUP3 ADD PUSH2 0x4334 JUMPI PUSH2 0x4334 PUSH2 0x4276 JUMP JUMPDEST POP PUSH1 0x1 ADD SWAP1 JUMP JUMPDEST PUSH1 0x1 DUP2 DUP2 SHR SWAP1 DUP3 AND DUP1 PUSH2 0x434F JUMPI PUSH1 0x7F DUP3 AND SWAP2 POP JUMPDEST PUSH1 0x20 DUP3 LT DUP2 SUB PUSH2 0x436F JUMPI PUSH4 0x4E487B71 PUSH1 0xE0 SHL PUSH1 0x0 MSTORE PUSH1 0x22 PUSH1 0x4 MSTORE PUSH1 0x24 PUSH1 0x0 REVERT JUMPDEST POP SWAP2 SWAP1 POP JUMP JUMPDEST PUSH1 0x1F DUP3 GT ISZERO PUSH2 0x353A JUMPI PUSH1 0x0 DUP2 DUP2 MSTORE PUSH1 0x20 DUP2 KECCAK256 PUSH1 0x1F DUP6 ADD PUSH1 0x5 SHR DUP2 ADD PUSH1 0x20 DUP7 LT ISZERO PUSH2 0x439C JUMPI POP DUP1 JUMPDEST PUSH1 0x1F DUP6 ADD PUSH1 0x5 SHR DUP3 ADD SWAP2 POP JUMPDEST DUP2 DUP2 LT ISZERO PUSH2 0x43BB JUMPI DUP3 DUP2 SSTORE PUSH1 0x1 ADD PUSH2 0x43A8 JUMP JUMPDEST POP POP POP POP POP POP JUMP JUMPDEST DUP2 MLOAD PUSH8 0xFFFFFFFFFFFFFFFF DUP2 GT ISZERO PUSH2 0x43DD JUMPI PUSH2 0x43DD PUSH2 0x3D2E JUMP JUMPDEST PUSH2 0x43F1 DUP2 PUSH2 0x43EB DUP5 SLOAD PUSH2 0x433B JUMP JUMPDEST DUP5 PUSH2 0x4375 JUMP JUMPDEST PUSH1 0x20 DUP1 PUSH1 0x1F DUP4 GT PUSH1 0x1 DUP2 EQ PUSH2 0x4426 JUMPI PUSH1 0x0 DUP5 ISZERO PUSH2 0x440E JUMPI POP DUP6 DUP4 ADD MLOAD JUMPDEST PUSH1 0x0 NOT PUSH1 0x3 DUP7 SWAP1 SHL SHR NOT AND PUSH1 0x1 DUP6 SWAP1 SHL OR DUP6 SSTORE PUSH2 0x43BB JUMP JUMPDEST PUSH1 0x0 DUP6 DUP2 MSTORE PUSH1 0x20 DUP2 KECCAK256 PUSH1 0x1F NOT DUP7 AND SWAP2 JUMPDEST DUP3 DUP2 LT ISZERO PUSH2 0x4455 JUMPI DUP9 DUP7 ADD MLOAD DUP3 SSTORE SWAP5 DUP5 ADD SWAP5 PUSH1 0x1 SWAP1 SWAP2 ADD SWAP1 DUP5 ADD PUSH2 0x4436 JUMP JUMPDEST POP DUP6 DUP3 LT ISZERO PUSH2 0x4473 JUMPI DUP8 DUP6 ADD MLOAD PUSH1 0x0 NOT PUSH1 0x3 DUP9 SWAP1 SHL PUSH1 0xF8 AND SHR NOT AND DUP2 SSTORE JUMPDEST POP POP POP POP POP PUSH1 0x1 SWAP1 DUP2 SHL ADD SWAP1 SSTORE POP JUMP JUMPDEST PUSH1 0x80 DUP2 MSTORE PUSH1 0x0 PUSH2 0x4496 PUSH1 0x80 DUP4 ADD DUP8 PUSH2 0x3FF6 JUMP JUMPDEST DUP3 DUP2 SUB PUSH1 0x20 DUP5 ADD MSTORE PUSH2 0x44A8 DUP2 DUP8 PUSH2 0x3FF6 JUMP JUMPDEST SWAP1 POP DUP3 DUP2 SUB PUSH1 0x40 DUP5 ADD MSTORE PUSH2 0x44BC DUP2 DUP7 PUSH2 0x40D9 JUMP JUMPDEST SWAP2 POP POP DUP3 PUSH1 0x60 DUP4 ADD MSTORE SWAP6 SWAP5 POP POP POP POP POP JUMP JUMPDEST PUSH1 0x0 PUSH1 0x20 DUP3 DUP5 SUB SLT ISZERO PUSH2 0x44E0 JUMPI PUSH1 0x0 DUP1 REVERT JUMPDEST POP MLOAD SWAP2 SWAP1 POP JUMP JUMPDEST PUSH1 0x20 DUP1 DUP3 MSTORE PUSH1 0x21 SWAP1 DUP3 ADD MSTORE PUSH32 0x436F6E74726163742068617320696E73756666696369656E742062616C616E63 PUSH1 0x40 DUP3 ADD MSTORE PUSH1 0x65 PUSH1 0xF8 SHL PUSH1 0x60 DUP3 ADD MSTORE PUSH1 0x80 ADD SWAP1 JUMP JUMPDEST PUSH1 0x0 PUSH1 0x20 DUP3 DUP5 SUB SLT ISZERO PUSH2 0x453A JUMPI PUSH1 0x0 DUP1 REVERT JUMPDEST DUP2 MLOAD PUSH2 0x3CC0 DUP2 PUSH2 0x3DD1 JUMP JUMPDEST PUSH1 0x20 DUP1 DUP3 MSTORE PUSH1 0x13 SWAP1 DUP3 ADD MSTORE PUSH19 0x111D595B08191BD95CC81B9BDD08195E1A5CDD PUSH1 0x6A SHL PUSH1 0x40 DUP3 ADD MSTORE PUSH1 0x60 ADD SWAP1 JUMP JUMPDEST PUSH1 0x1 DUP2 DUP2 JUMPDEST DUP1 DUP6 GT ISZERO PUSH2 0x45AD JUMPI DUP2 PUSH1 0x0 NOT DIV DUP3 GT ISZERO PUSH2 0x4593 JUMPI PUSH2 0x4593 PUSH2 0x4276 JUMP JUMPDEST DUP1 DUP6 AND ISZERO PUSH2 0x45A0 JUMPI SWAP2 DUP2 MUL SWAP2 JUMPDEST SWAP4 DUP5 SHR SWAP4 SWAP1 DUP1 MUL SWAP1 PUSH2 0x4577 JUMP JUMPDEST POP SWAP3 POP SWAP3 SWAP1 POP JUMP JUMPDEST PUSH1 0x0 DUP3 PUSH2 0x45C4 JUMPI POP PUSH1 0x1 PUSH2 0x1784 JUMP JUMPDEST DUP2 PUSH2 0x45D1 JUMPI POP PUSH1 0x0 PUSH2 0x1784 JUMP JUMPDEST DUP2 PUSH1 0x1 DUP2 EQ PUSH2 0x45E7 JUMPI PUSH1 0x2 DUP2 EQ PUSH2 0x45F1 JUMPI PUSH2 0x460D JUMP JUMPDEST PUSH1 0x1 SWAP2 POP POP PUSH2 0x1784 JUMP JUMPDEST PUSH1 0xFF DUP5 GT ISZERO PUSH2 0x4602 JUMPI PUSH2 0x4602 PUSH2 0x4276 JUMP JUMPDEST POP POP PUSH1 0x1 DUP3 SHL PUSH2 0x1784 JUMP JUMPDEST POP PUSH1 0x20 DUP4 LT PUSH2 0x133 DUP4 LT AND PUSH1 0x4E DUP5 LT PUSH1 0xB DUP5 LT AND OR ISZERO PUSH2 0x4630 JUMPI POP DUP2 DUP2 EXP PUSH2 0x1784 JUMP JUMPDEST PUSH2 0x463A DUP4 DUP4 PUSH2 0x4572 JUMP JUMPDEST DUP1 PUSH1 0x0 NOT DIV DUP3 GT ISZERO PUSH2 0x464E JUMPI PUSH2 0x464E PUSH2 0x4276 JUMP JUMPDEST MUL SWAP4 SWAP3 POP POP POP JUMP JUMPDEST PUSH1 0x0 PUSH2 0x3CC0 PUSH1 0xFF DUP5 AND DUP4 PUSH2 0x45B5 JUMP INVALID LOG2 PUSH5 0x6970667358 0x22 SLT KECCAK256 0x4E CHAINID 0x5C LT CALLCODE LT 0xF7 0x4F CODESIZE PUSH3 0x4947AF SWAP16 LOG4 SHR PUSH25 0xA3FC6F9362FFD2080E0050E7FD1E8064736F6C634300081400 CALLER "},"methodIdentifiers":{"ARENA_ACTIVATION_POINTS()":"d860455b","MAX_FEE_PERCENT()":"67d81740","MAX_USER_DEADLINE()":"eac74039","POINTS_PER_DUEL()":"779db8aa","RESOLUTION_TIMELOCK()":"698a4957","activateArenaWithPoints(uint256)":"a08e25b4","adminCreateDuel(string,string,bool,string[3],uint256)":"36dc9ec6","authorizeResolver(address,bool)":"de2f6a4f","authorizedResolvers(address)":"d794d2d9","bettingToken()":"43425e88","bettingTokenDecimals()":"19ab9bd8","calculatePotentialGains(uint256,address)":"1713ecbc","canActivateArena(address)":"4e15aa67","claimGains(uint256)":"3809ae17","claimRefund(uint256)":"5b7baf64","createDuel(string,string,string[3],uint256)":"6fcb48a5","duelArenaEligible(uint256)":"a24aa6e0","duelCreationFee()":"ae5fd784","duels(uint256)":"859a62d0","emergencyWithdraw(address,address,uint256)":"e63ea408","executeResolution(uint256,uint256)":"1f528480","fanToken()":"75daa3de","fanTokenBalanceSnapshot(uint256,address)":"74c94bb9","fanTokenDecimals()":"7e06a617","fanTokenThreshold()":"ba973e44","gasAdvanceFee()":"edc68720","gasFeeDebt(address)":"cf2da5f3","gasRelayer()":"2f0c45fd","getBettingToken()":"29cf655b","getDuelInfo(uint256)":"af6f4bce","getFanToken()":"c8d5ba80","getGasFeeDebt(address)":"9b0d1036","getOutcomePot(uint256,uint256)":"4692c962","getPlatformFeePercent()":"4c9c3f85","getUserBets(uint256,address)":"fa744dd3","getUserPoints(address)":"aeefe31f","isDuelBalanced(uint256)":"8931ecd0","manualGasRepayment(address,uint256)":"ba263a0a","moderators(address)":"14d0f1ba","nextDuelId()":"549ec614","owner()":"8da5cb5b","pause()":"8456cb59","paused()":"5c975abb","pendingResolutions(bytes32)":"a24a27bc","placeBet(uint256,uint256,uint256)":"e71c9697","platformFeePercent()":"8c639a85","pointsPerBetUnit()":"daf19f2b","proposeResolution(uint256,uint256)":"ed798fec","renounceOwnership()":"715018a6","setArenaEligible(uint256,bool)":"f4365752","setDuelCreationFee(uint256)":"4d6d50c5","setFanTokenThreshold(uint256)":"dadad0f3","setGasAdvanceFee(uint256)":"7689279c","setGasRelayer(address)":"5fe6c08d","setModerator(address,bool)":"3ee2b01d","setPlatformFeePercent(uint256)":"cab230d2","setPointsPerBetUnit(uint256)":"c50809d3","toggleUserCreation(bool)":"79e92d25","totalFeesAccumulated()":"4952ce76","transferOwnership(address)":"f2fde38b","unpause()":"3f4ba83a","userCreationEnabled()":"20d8cbd0","userPoints(address)":"f50ddbc7","validateAndCancelDuel(uint256)":"253e35fc","withdrawFees(address,uint256)":"ad3b1b47"}}}}}