{
  "_format": "hh-sol-artifact-1",
  "contractName": "ERC20Mock",
  "sourceName": "contracts/mocks/ERC20Mock.sol",
  "abi": [
    {
      "inputs": [
        {
          "internalType": "string",
          "name": "name",
          "type": "string"
        },
        {
          "internalType": "string",
          "name": "symbol",
          "type": "string"
        }
      ],
      "stateMutability": "nonpayable",
      "type": "constructor"
    },
    {
      "anonymous": false,
      "inputs": [
        {
          "indexed": true,
          "internalType": "address",
          "name": "owner",
          "type": "address"
        },
        {
          "indexed": true,
          "internalType": "address",
          "name": "spender",
          "type": "address"
        },
        {
          "indexed": false,
          "internalType": "uint256",
          "name": "value",
          "type": "uint256"
        }
      ],
      "name": "Approval",
      "type": "event"
    },
    {
      "anonymous": false,
      "inputs": [
        {
          "indexed": true,
          "internalType": "address",
          "name": "from",
          "type": "address"
        },
        {
          "indexed": true,
          "internalType": "address",
          "name": "to",
          "type": "address"
        },
        {
          "indexed": false,
          "internalType": "uint256",
          "name": "value",
          "type": "uint256"
        }
      ],
      "name": "Transfer",
      "type": "event"
    },
    {
      "inputs": [
        {
          "internalType": "address",
          "name": "owner",
          "type": "address"
        },
        {
          "internalType": "address",
          "name": "spender",
          "type": "address"
        }
      ],
      "name": "allowance",
      "outputs": [
        {
          "internalType": "uint256",
          "name": "",
          "type": "uint256"
        }
      ],
      "stateMutability": "view",
      "type": "function"
    },
    {
      "inputs": [
        {
          "internalType": "address",
          "name": "spender",
          "type": "address"
        },
        {
          "internalType": "uint256",
          "name": "amount",
          "type": "uint256"
        }
      ],
      "name": "approve",
      "outputs": [
        {
          "internalType": "bool",
          "name": "",
          "type": "bool"
        }
      ],
      "stateMutability": "nonpayable",
      "type": "function"
    },
    {
      "inputs": [
        {
          "internalType": "address",
          "name": "account",
          "type": "address"
        }
      ],
      "name": "balanceOf",
      "outputs": [
        {
          "internalType": "uint256",
          "name": "",
          "type": "uint256"
        }
      ],
      "stateMutability": "view",
      "type": "function"
    },
    {
      "inputs": [
        {
          "internalType": "address",
          "name": "from",
          "type": "address"
        },
        {
          "internalType": "uint256",
          "name": "amount",
          "type": "uint256"
        }
      ],
      "name": "burn",
      "outputs": [],
      "stateMutability": "nonpayable",
      "type": "function"
    },
    {
      "inputs": [],
      "name": "decimals",
      "outputs": [
        {
          "internalType": "uint8",
          "name": "",
          "type": "uint8"
        }
      ],
      "stateMutability": "view",
      "type": "function"
    },
    {
      "inputs": [
        {
          "internalType": "address",
          "name": "spender",
          "type": "address"
        },
        {
          "internalType": "uint256",
          "name": "subtractedValue",
          "type": "uint256"
        }
      ],
      "name": "decreaseAllowance",
      "outputs": [
        {
          "internalType": "bool",
          "name": "",
          "type": "bool"
        }
      ],
      "stateMutability": "nonpayable",
      "type": "function"
    },
    {
      "inputs": [
        {
          "internalType": "address",
          "name": "spender",
          "type": "address"
        },
        {
          "internalType": "uint256",
          "name": "addedValue",
          "type": "uint256"
        }
      ],
      "name": "increaseAllowance",
      "outputs": [
        {
          "internalType": "bool",
          "name": "",
          "type": "bool"
        }
      ],
      "stateMutability": "nonpayable",
      "type": "function"
    },
    {
      "inputs": [
        {
          "internalType": "address",
          "name": "to",
          "type": "address"
        },
        {
          "internalType": "uint256",
          "name": "amount",
          "type": "uint256"
        }
      ],
      "name": "mint",
      "outputs": [],
      "stateMutability": "nonpayable",
      "type": "function"
    },
    {
      "inputs": [
        {
          "internalType": "address",
          "name": "to",
          "type": "address"
        },
        {
          "internalType": "uint256",
          "name": "amount",
          "type": "uint256"
        },
        {
          "internalType": "address",
          "name": "spender",
          "type": "address"
        }
      ],
      "name": "mintAndApprove",
      "outputs": [],
      "stateMutability": "nonpayable",
      "type": "function"
    },
    {
      "inputs": [],
      "name": "name",
      "outputs": [
        {
          "internalType": "string",
          "name": "",
          "type": "string"
        }
      ],
      "stateMutability": "view",
      "type": "function"
    },
    {
      "inputs": [
        {
          "internalType": "address",
          "name": "account",
          "type": "address"
        }
      ],
      "name": "resetBalance",
      "outputs": [],
      "stateMutability": "nonpayable",
      "type": "function"
    },
    {
      "inputs": [
        {
          "internalType": "address",
          "name": "account",
          "type": "address"
        },
        {
          "internalType": "uint256",
          "name": "amount",
          "type": "uint256"
        }
      ],
      "name": "setBalance",
      "outputs": [],
      "stateMutability": "nonpayable",
      "type": "function"
    },
    {
      "inputs": [
        {
          "internalType": "uint8",
          "name": "newDecimals",
          "type": "uint8"
        }
      ],
      "name": "setDecimals",
      "outputs": [],
      "stateMutability": "nonpayable",
      "type": "function"
    },
    {
      "inputs": [
        {
          "internalType": "bool",
          "name": "shouldFail",
          "type": "bool"
        }
      ],
      "name": "setTransferShouldFail",
      "outputs": [],
      "stateMutability": "nonpayable",
      "type": "function"
    },
    {
      "inputs": [],
      "name": "symbol",
      "outputs": [
        {
          "internalType": "string",
          "name": "",
          "type": "string"
        }
      ],
      "stateMutability": "view",
      "type": "function"
    },
    {
      "inputs": [],
      "name": "totalSupply",
      "outputs": [
        {
          "internalType": "uint256",
          "name": "",
          "type": "uint256"
        }
      ],
      "stateMutability": "view",
      "type": "function"
    },
    {
      "inputs": [
        {
          "internalType": "address",
          "name": "to",
          "type": "address"
        },
        {
          "internalType": "uint256",
          "name": "amount",
          "type": "uint256"
        }
      ],
      "name": "transfer",
      "outputs": [
        {
          "internalType": "bool",
          "name": "",
          "type": "bool"
        }
      ],
      "stateMutability": "nonpayable",
      "type": "function"
    },
    {
      "inputs": [
        {
          "internalType": "address",
          "name": "from",
          "type": "address"
        },
        {
          "internalType": "address",
          "name": "to",
          "type": "address"
        },
        {
          "internalType": "uint256",
          "name": "amount",
          "type": "uint256"
        }
      ],
      "name": "transferFrom",
      "outputs": [
        {
          "internalType": "bool",
          "name": "",
          "type": "bool"
        }
      ],
      "stateMutability": "nonpayable",
      "type": "function"
    }
  ],
  "bytecode": "0x6080604052346200032a5762001096803803806200001d816200032f565b9283398101906040818303126200032a5780516001600160401b03908181116200032a57836200004f91840162000355565b91602093848201518381116200032a576200006b920162000355565b82518281116200022a576003918254916001958684811c941680156200031f575b8885101462000309578190601f94858111620002b3575b5088908583116001146200024c5760009262000240575b505060001982861b1c191690861b1783555b80519384116200022a5760049586548681811c911680156200021f575b828210146200020a57838111620001bf575b508092851160011462000151575093839491849260009562000145575b50501b92600019911b1c19161790555b601260ff196005541617600555604051610cce9081620003c88239f35b01519350388062000118565b92919084601f1981168860005285600020956000905b89838310620001a4575050501062000189575b50505050811b01905562000128565b01519060f884600019921b161c19169055388080806200017a565b85870151895590970196948501948893509081019062000167565b87600052816000208480880160051c82019284891062000200575b0160051c019087905b828110620001f3575050620000fb565b60008155018790620001e3565b92508192620001da565b602288634e487b7160e01b6000525260246000fd5b90607f1690620000e9565b634e487b7160e01b600052604160045260246000fd5b015190503880620000ba565b90889350601f19831691876000528a6000209260005b8c8282106200029c575050841162000283575b505050811b018355620000cc565b015160001983881b60f8161c1916905538808062000275565b8385015186558c9790950194938401930162000262565b90915085600052886000208580850160051c8201928b8610620002ff575b918a91869594930160051c01915b828110620002ef575050620000a3565b600081558594508a9101620002df565b92508192620002d1565b634e487b7160e01b600052602260045260246000fd5b93607f16936200008c565b600080fd5b6040519190601f01601f191682016001600160401b038111838210176200022a57604052565b919080601f840112156200032a5782516001600160401b0381116200022a576020906200038b601f8201601f191683016200032f565b928184528282870101116200032a5760005b818110620003b357508260009394955001015290565b85810183015184820184015282016200039d56fe608060408181526004918236101561001657600080fd5b600092833560e01c91826306fdde031461060e57508163095ea7b3146105e45781630cf96c3b146105ae57816318160ddd1461058f57816323b872dd1461055d578163313ce5671461053b57816339509351146104eb57816340c10f19146104c657816369b48d5e1461047f57816370a08231146104485781637a1395aa1461041b57816395d89b41146102fc5781639dc29fac146102d7578163a457c2d71461022857508063a9059cbb146101f7578063bd051844146101b0578063dd62ed3e146101685763e30443bc146100eb57600080fd5b34610164578060031936011261016457610103610733565b6001600160a01b038116835260208390529082205460243591908281101561013b576101329061013893610c8b565b90610889565b80f35b828111610149575b50505080f35b61015c9261015691610c8b565b9061092c565b388080610143565b5080fd5b503461016457806003193601126101645780602092610185610733565b61018d61074e565b6001600160a01b0391821683526001865283832091168252845220549051908152f35b5034610164576020366003190112610164576101ca610733565b6001600160a01b0381168352602083905290822054806101e8578280f35b6101f19161092c565b38808280f35b503461016457806003193601126101645760209061021f610216610733565b60243590610a33565b90519015158152f35b905082346102d457826003193601126102d457610243610733565b918360243592338152600160205281812060018060a01b03861682526020522054908282106102835760208561027c8585038733610787565b5160018152f35b608490602086519162461bcd60e51b8352820152602560248201527f45524332303a2064656372656173656420616c6c6f77616e63652062656c6f77604482015264207a65726f60d81b6064820152fd5b80fd5b505034610164573660031901126102d4576101386102f3610733565b6024359061092c565b838334610164578160031936011261016457805190828454600181811c90808316928315610411575b60209384841081146103fe578388529081156103e2575060011461038d575b505050829003601f01601f191682019267ffffffffffffffff84118385101761037a57508291826103769252826106ea565b0390f35b634e487b7160e01b815260418552602490fd5b8787529192508591837f8a35acfbc15ff81a39ae7d344fd709f28e8600b4aa8c65c6b64bfe7fe36bd19b5b8385106103ce5750505050830101858080610344565b8054888601830152930192849082016103b8565b60ff1916878501525050151560051b8401019050858080610344565b634e487b7160e01b895260228a52602489fd5b91607f1691610325565b839034610164576020366003190112610164573560ff81168091036101645760ff19600554161760055580f35b5050346101645760203660031901126101645760209181906001600160a01b03610470610733565b16815280845220549051908152f35b83346102d45760603660031901126102d457610499610733565b6024356044356001600160a01b03811681036104c257826104bd8361013895610889565b610787565b8380fd5b505034610164573660031901126102d4576101386104e2610733565b60243590610889565b50503461016457806003193601126101645761027c60209261053461050e610733565b338352600186528483206001600160a01b03821684528652918490205460243590610764565b9033610787565b50503461016457816003193601126101645760209060ff600554169051908152f35b5050346101645760603660031901126101645760209061021f61057e610733565b61058661074e565b60443591610bd0565b5050346101645781600319360112610164576020906002549051908152f35b83903461016457602036600319011261016457358015158091036101645761ff006005549160081b169061ff0019161760055580f35b50503461016457806003193601126101645760209061027c610604610733565b6024359033610787565b849084346106e657826003193601126106e65782600354600181811c908083169283156106dc575b60209384841081146103fe578388529081156103e2575060011461068657505050829003601f01601f191682019267ffffffffffffffff84118385101761037a57508291826103769252826106ea565b600387529192508591837fc2575a0e9e593c00f959f8c92f12db2869c3395a3b0502d05e2516446f71f85b5b8385106106c85750505050830101858080610344565b8054888601830152930192849082016106b2565b91607f1691610636565b8280fd5b6020808252825181830181905290939260005b82811061071f57505060409293506000838284010152601f8019910116010190565b8181018601518482016040015285016106fd565b600435906001600160a01b038216820361074957565b600080fd5b602435906001600160a01b038216820361074957565b9190820180921161077157565b634e487b7160e01b600052601160045260246000fd5b6001600160a01b0390811691821561083857169182156107e85760207f8c5be1e5ebec7d5bd14f71427d1e84f3dd0314c0f7b2291e5b200ac8c7c3b925918360005260018252604060002085600052825280604060002055604051908152a3565b60405162461bcd60e51b815260206004820152602260248201527f45524332303a20617070726f766520746f20746865207a65726f206164647265604482015261737360f01b6064820152608490fd5b60405162461bcd60e51b8152602060048201526024808201527f45524332303a20617070726f76652066726f6d20746865207a65726f206164646044820152637265737360e01b6064820152608490fd5b6001600160a01b03169081156108e7577fddf252ad1be2c89b69c2b068fc378daa952ba7f163c4a11628f55a4df523b3ef6020826108cb600094600254610764565b60025584845283825260408420818154019055604051908152a3565b60405162461bcd60e51b815260206004820152601f60248201527f45524332303a206d696e7420746f20746865207a65726f2061646472657373006044820152606490fd5b6001600160a01b031680156109e45760009181835282602052604083205481811061099457817fddf252ad1be2c89b69c2b068fc378daa952ba7f163c4a11628f55a4df523b3ef926020928587528684520360408620558060025403600255604051908152a3565b60405162461bcd60e51b815260206004820152602260248201527f45524332303a206275726e20616d6f756e7420657863656564732062616c616e604482015261636560f01b6064820152608490fd5b60405162461bcd60e51b815260206004820152602160248201527f45524332303a206275726e2066726f6d20746865207a65726f206164647265736044820152607360f81b6064820152608490fd5b906005549160ff8360081c16610a5357610a4e925033610a62565b600190565b505061ff001916600555600090565b6001600160a01b03908116918215610b7d5716918215610b2c57600082815280602052604081205491808310610ad857604082827fddf252ad1be2c89b69c2b068fc378daa952ba7f163c4a11628f55a4df523b3ef958760209652828652038282205586815220818154019055604051908152a3565b60405162461bcd60e51b815260206004820152602660248201527f45524332303a207472616e7366657220616d6f756e7420657863656564732062604482015265616c616e636560d01b6064820152608490fd5b60405162461bcd60e51b815260206004820152602360248201527f45524332303a207472616e7366657220746f20746865207a65726f206164647260448201526265737360e81b6064820152608490fd5b60405162461bcd60e51b815260206004820152602560248201527f45524332303a207472616e736665722066726f6d20746865207a65726f206164604482015264647265737360d81b6064820152608490fd5b919060055460ff8160081c16610c7a575060018060a01b0383166000526001602052604060002033600052602052604060002054926000198403610c19575b610a4e9350610a62565b828410610c3557610c3083610a4e95033383610787565b610c0f565b60405162461bcd60e51b815260206004820152601d60248201527f45524332303a20696e73756666696369656e7420616c6c6f77616e63650000006044820152606490fd5b61ff00191660055550600092915050565b919082039182116107715756fea26469706673582212205bac2db89ab56f76ef0773cc73ed5a13aa5288386e1c5b0b8e0b3e96af58f31264736f6c63430008140033",
  "linkReferences": {},
  "deployedLinkReferences": {}
}