{"contracts/mocks/MockVolatilityOracle.sol":{"MockVolatilityOracle":{"abi":[{"inputs":[],"stateMutability":"nonpayable","type":"constructor"},{"anonymous":false,"inputs":[{"indexed":true,"internalType":"uint256","name":"crashPercent","type":"uint256"}],"name":"EmergencyModeTriggered","type":"event"},{"anonymous":false,"inputs":[{"indexed":true,"internalType":"uint256","name":"price","type":"uint256"},{"indexed":true,"internalType":"uint256","name":"volatility","type":"uint256"}],"name":"PriceUpdated","type":"event"},{"anonymous":false,"inputs":[{"indexed":true,"internalType":"uint256","name":"volatility","type":"uint256"},{"indexed":true,"internalType":"uint256","name":"threshold","type":"uint256"}],"name":"VolatilityThresholdReached","type":"event"},{"inputs":[],"name":"getCurrentCHZPrice","outputs":[{"internalType":"uint256","name":"","type":"uint256"}],"stateMutability":"view","type":"function"},{"inputs":[],"name":"getVolatilityData","outputs":[{"components":[{"internalType":"uint256","name":"currentPrice","type":"uint256"},{"internalType":"uint256","name":"volatilityPercent","type":"uint256"},{"internalType":"uint256","name":"lastUpdateTime","type":"uint256"},{"internalType":"bool","name":"emergencyMode","type":"bool"}],"internalType":"struct IVolatilityOracle.VolatilityData","name":"","type":"tuple"}],"stateMutability":"view","type":"function"},{"inputs":[],"name":"getVolatilityPercent","outputs":[{"internalType":"uint256","name":"","type":"uint256"}],"stateMutability":"view","type":"function"},{"inputs":[],"name":"owner","outputs":[{"internalType":"address","name":"","type":"address"}],"stateMutability":"view","type":"function"},{"inputs":[{"internalType":"bool","name":"_emergencyMode","type":"bool"}],"name":"setEmergencyMode","outputs":[],"stateMutability":"nonpayable","type":"function"},{"inputs":[{"internalType":"uint256","name":"_price","type":"uint256"}],"name":"setPrice","outputs":[],"stateMutability":"nonpayable","type":"function"},{"inputs":[{"internalType":"uint256","name":"_price","type":"uint256"},{"internalType":"uint256","name":"_volatilityPercent","type":"uint256"},{"internalType":"bool","name":"_emergencyMode","type":"bool"}],"name":"setVolatilityData","outputs":[],"stateMutability":"nonpayable","type":"function"},{"inputs":[{"internalType":"uint256","name":"_volatilityPercent","type":"uint256"}],"name":"setVolatilityPercent","outputs":[],"stateMutability":"nonpayable","type":"function"},{"inputs":[{"internalType":"uint256","name":"crashThreshold","type":"uint256"}],"name":"shouldTriggerEmergency","outputs":[{"internalType":"bool","name":"","type":"bool"}],"stateMutability":"view","type":"function"},{"inputs":[{"internalType":"uint256","name":"threshold","type":"uint256"}],"name":"shouldTriggerProtection","outputs":[{"internalType":"bool","name":"","type":"bool"}],"stateMutability":"view","type":"function"},{"inputs":[],"name":"updatePriceData","outputs":[],"stateMutability":"nonpayable","type":"function"}],"evm":{"bytecode":{"linkReferences":{},"object":"60803461008757600480546001600160a01b03191633179055608081016001600160401b038111828210176100715760405262b71b00808252600060606107d09384602082015242604082015201526000556001554260025560ff19600354166003556040516104ac908161008d8239f35b634e487b7160e01b600052604160045260246000fd5b600080fdfe60806040908082526004908136101561001757600080fd5b600092833560e01c918263222da81c146103ee575081634beae4811461039057816375cb65a6146103155781637631f193146102f05781638da5cb5b146102c757816391b7f5ed1461026b578163995e57791461022a578163a1f6c5f21461020b57508063a43de31a146101c6578063be32b3f81461014e5763cd2435f41461009f57600080fd5b3461014a57606036600319011261014a5780356024359160443591821515808403610146576100da859360018060a01b03905416331461043e565b8186558260015560ff801960035416911617600355426002557f945c1c4e99aa89f648fbfe3df471b916f719e16d960fcec0737d4d56bd6968388580a361011f575080f35b7f7c83c94a71d62b1ce80ed65a1d4ede8bc39c193a65cff39fc4ff9c6625aeb1f18280a280f35b8580fd5b5080fd5b503461014a57602036600319011261014a57803590811515908183036101c25754610183906001600160a01b0316331461043e565b60ff8019600354169116176003556101985780f35b6001547f7c83c94a71d62b1ce80ed65a1d4ede8bc39c193a65cff39fc4ff9c6625aeb1f18280a280f35b8380fd5b8234610208578060031936011261020857426002558054600154907f945c1c4e99aa89f648fbfe3df471b916f719e16d960fcec0737d4d56bd6968388380a380f35b80fd5b83903461014a578160031936011261014a576020906001549051908152f35b905034610267576020366003190112610267576020925060ff600354169182610257575b50519015158152f35b909150356001541015903861024e565b8280fd5b50503461014a57602036600319011261014a5761029581359160018060a01b03905416331461043e565b80825542600255600154907f945c1c4e99aa89f648fbfe3df471b916f719e16d960fcec0737d4d56bd6968388380a380f35b919050346102675782600319360112610267575490516001600160a01b03909116815260209150f35b9190503461026757602036600319011261026757602092503560015410159051908152f35b83903461014a578160031936011261014a57816080926060610335610408565b8281528260208201528285820152015261034d610408565b9054918282526001546020830190815260025490828401918252606060ff6003541694019315158452825194855251602085015251908301525115156060820152f35b50503461014a57602036600319011261014a578054610bb89135906103bf906001600160a01b0316331461043e565b80600155426002557f06076f9043294b8c46337ef24998f35871df49215df3eb8f8a1fd91389a465e28380a380f35b84903461014a578160031936011261014a57602091548152f35b604051906080820182811067ffffffffffffffff82111761042857604052565b634e487b7160e01b600052604160045260246000fd5b1561044557565b60405162461bcd60e51b81526020600482015260096024820152682737ba1037bbb732b960b91b6044820152606490fdfea2646970667358221220b5202116cd705225b620fdaf6088ecd72ea0b582323d8d1130ed0a29472af6a264736f6c63430008140033","opcodes":"PUSH1 0x80 CALLVALUE PUSH2 0x87 JUMPI PUSH1 0x4 DUP1 SLOAD PUSH1 0x1 PUSH1 0x1 PUSH1 0xA0 SHL SUB NOT AND CALLER OR SWAP1 SSTORE PUSH1 0x80 DUP2 ADD PUSH1 0x1 PUSH1 0x1 PUSH1 0x40 SHL SUB DUP2 GT DUP3 DUP3 LT OR PUSH2 0x71 JUMPI PUSH1 0x40 MSTORE PUSH3 0xB71B00 DUP1 DUP3 MSTORE PUSH1 0x0 PUSH1 0x60 PUSH2 0x7D0 SWAP4 DUP5 PUSH1 0x20 DUP3 ADD MSTORE TIMESTAMP PUSH1 0x40 DUP3 ADD MSTORE ADD MSTORE PUSH1 0x0 SSTORE PUSH1 0x1 SSTORE TIMESTAMP PUSH1 0x2 SSTORE PUSH1 0xFF NOT PUSH1 0x3 SLOAD AND PUSH1 0x3 SSTORE PUSH1 0x40 MLOAD PUSH2 0x4AC SWAP1 DUP2 PUSH2 0x8D DUP3 CODECOPY RETURN JUMPDEST PUSH4 0x4E487B71 PUSH1 0xE0 SHL PUSH1 0x0 MSTORE PUSH1 0x41 PUSH1 0x4 MSTORE PUSH1 0x24 PUSH1 0x0 REVERT JUMPDEST PUSH1 0x0 DUP1 REVERT INVALID PUSH1 0x80 PUSH1 0x40 SWAP1 DUP1 DUP3 MSTORE PUSH1 0x4 SWAP1 DUP2 CALLDATASIZE LT ISZERO PUSH2 0x17 JUMPI PUSH1 0x0 DUP1 REVERT JUMPDEST PUSH1 0x0 SWAP3 DUP4 CALLDATALOAD PUSH1 0xE0 SHR SWAP2 DUP3 PUSH4 0x222DA81C EQ PUSH2 0x3EE JUMPI POP DUP2 PUSH4 0x4BEAE481 EQ PUSH2 0x390 JUMPI DUP2 PUSH4 0x75CB65A6 EQ PUSH2 0x315 JUMPI DUP2 PUSH4 0x7631F193 EQ PUSH2 0x2F0 JUMPI DUP2 PUSH4 0x8DA5CB5B EQ PUSH2 0x2C7 JUMPI DUP2 PUSH4 0x91B7F5ED EQ PUSH2 0x26B JUMPI DUP2 PUSH4 0x995E5779 EQ PUSH2 0x22A JUMPI DUP2 PUSH4 0xA1F6C5F2 EQ PUSH2 0x20B JUMPI POP DUP1 PUSH4 0xA43DE31A EQ PUSH2 0x1C6 JUMPI DUP1 PUSH4 0xBE32B3F8 EQ PUSH2 0x14E JUMPI PUSH4 0xCD2435F4 EQ PUSH2 0x9F JUMPI PUSH1 0x0 DUP1 REVERT JUMPDEST CALLVALUE PUSH2 0x14A JUMPI PUSH1 0x60 CALLDATASIZE PUSH1 0x3 NOT ADD SLT PUSH2 0x14A JUMPI DUP1 CALLDATALOAD PUSH1 0x24 CALLDATALOAD SWAP2 PUSH1 0x44 CALLDATALOAD SWAP2 DUP3 ISZERO ISZERO DUP1 DUP5 SUB PUSH2 0x146 JUMPI PUSH2 0xDA DUP6 SWAP4 PUSH1 0x1 DUP1 PUSH1 0xA0 SHL SUB SWAP1 SLOAD AND CALLER EQ PUSH2 0x43E JUMP JUMPDEST DUP2 DUP7 SSTORE DUP3 PUSH1 0x1 SSTORE PUSH1 0xFF DUP1 NOT PUSH1 0x3 SLOAD AND SWAP2 AND OR PUSH1 0x3 SSTORE TIMESTAMP PUSH1 0x2 SSTORE PUSH32 0x945C1C4E99AA89F648FBFE3DF471B916F719E16D960FCEC0737D4D56BD696838 DUP6 DUP1 LOG3 PUSH2 0x11F JUMPI POP DUP1 RETURN JUMPDEST PUSH32 0x7C83C94A71D62B1CE80ED65A1D4EDE8BC39C193A65CFF39FC4FF9C6625AEB1F1 DUP3 DUP1 LOG2 DUP1 RETURN JUMPDEST DUP6 DUP1 REVERT JUMPDEST POP DUP1 REVERT JUMPDEST POP CALLVALUE PUSH2 0x14A JUMPI PUSH1 0x20 CALLDATASIZE PUSH1 0x3 NOT ADD SLT PUSH2 0x14A JUMPI DUP1 CALLDATALOAD SWAP1 DUP2 ISZERO ISZERO SWAP1 DUP2 DUP4 SUB PUSH2 0x1C2 JUMPI SLOAD PUSH2 0x183 SWAP1 PUSH1 0x1 PUSH1 0x1 PUSH1 0xA0 SHL SUB AND CALLER EQ PUSH2 0x43E JUMP JUMPDEST PUSH1 0xFF DUP1 NOT PUSH1 0x3 SLOAD AND SWAP2 AND OR PUSH1 0x3 SSTORE PUSH2 0x198 JUMPI DUP1 RETURN JUMPDEST PUSH1 0x1 SLOAD PUSH32 0x7C83C94A71D62B1CE80ED65A1D4EDE8BC39C193A65CFF39FC4FF9C6625AEB1F1 DUP3 DUP1 LOG2 DUP1 RETURN JUMPDEST DUP4 DUP1 REVERT JUMPDEST DUP3 CALLVALUE PUSH2 0x208 JUMPI DUP1 PUSH1 0x3 NOT CALLDATASIZE ADD SLT PUSH2 0x208 JUMPI TIMESTAMP PUSH1 0x2 SSTORE DUP1 SLOAD PUSH1 0x1 SLOAD SWAP1 PUSH32 0x945C1C4E99AA89F648FBFE3DF471B916F719E16D960FCEC0737D4D56BD696838 DUP4 DUP1 LOG3 DUP1 RETURN JUMPDEST DUP1 REVERT JUMPDEST DUP4 SWAP1 CALLVALUE PUSH2 0x14A JUMPI DUP2 PUSH1 0x3 NOT CALLDATASIZE ADD SLT PUSH2 0x14A JUMPI PUSH1 0x20 SWAP1 PUSH1 0x1 SLOAD SWAP1 MLOAD SWAP1 DUP2 MSTORE RETURN JUMPDEST SWAP1 POP CALLVALUE PUSH2 0x267 JUMPI PUSH1 0x20 CALLDATASIZE PUSH1 0x3 NOT ADD SLT PUSH2 0x267 JUMPI PUSH1 0x20 SWAP3 POP PUSH1 0xFF PUSH1 0x3 SLOAD AND SWAP2 DUP3 PUSH2 0x257 JUMPI JUMPDEST POP MLOAD SWAP1 ISZERO ISZERO DUP2 MSTORE RETURN JUMPDEST SWAP1 SWAP2 POP CALLDATALOAD PUSH1 0x1 SLOAD LT ISZERO SWAP1 CODESIZE PUSH2 0x24E JUMP JUMPDEST DUP3 DUP1 REVERT JUMPDEST POP POP CALLVALUE PUSH2 0x14A JUMPI PUSH1 0x20 CALLDATASIZE PUSH1 0x3 NOT ADD SLT PUSH2 0x14A JUMPI PUSH2 0x295 DUP2 CALLDATALOAD SWAP2 PUSH1 0x1 DUP1 PUSH1 0xA0 SHL SUB SWAP1 SLOAD AND CALLER EQ PUSH2 0x43E JUMP JUMPDEST DUP1 DUP3 SSTORE TIMESTAMP PUSH1 0x2 SSTORE PUSH1 0x1 SLOAD SWAP1 PUSH32 0x945C1C4E99AA89F648FBFE3DF471B916F719E16D960FCEC0737D4D56BD696838 DUP4 DUP1 LOG3 DUP1 RETURN JUMPDEST SWAP2 SWAP1 POP CALLVALUE PUSH2 0x267 JUMPI DUP3 PUSH1 0x3 NOT CALLDATASIZE ADD SLT PUSH2 0x267 JUMPI SLOAD SWAP1 MLOAD PUSH1 0x1 PUSH1 0x1 PUSH1 0xA0 SHL SUB SWAP1 SWAP2 AND DUP2 MSTORE PUSH1 0x20 SWAP2 POP RETURN JUMPDEST SWAP2 SWAP1 POP CALLVALUE PUSH2 0x267 JUMPI PUSH1 0x20 CALLDATASIZE PUSH1 0x3 NOT ADD SLT PUSH2 0x267 JUMPI PUSH1 0x20 SWAP3 POP CALLDATALOAD PUSH1 0x1 SLOAD LT ISZERO SWAP1 MLOAD SWAP1 DUP2 MSTORE RETURN JUMPDEST DUP4 SWAP1 CALLVALUE PUSH2 0x14A JUMPI DUP2 PUSH1 0x3 NOT CALLDATASIZE ADD SLT PUSH2 0x14A JUMPI DUP2 PUSH1 0x80 SWAP3 PUSH1 0x60 PUSH2 0x335 PUSH2 0x408 JUMP JUMPDEST DUP3 DUP2 MSTORE DUP3 PUSH1 0x20 DUP3 ADD MSTORE DUP3 DUP6 DUP3 ADD MSTORE ADD MSTORE PUSH2 0x34D PUSH2 0x408 JUMP JUMPDEST SWAP1 SLOAD SWAP2 DUP3 DUP3 MSTORE PUSH1 0x1 SLOAD PUSH1 0x20 DUP4 ADD SWAP1 DUP2 MSTORE PUSH1 0x2 SLOAD SWAP1 DUP3 DUP5 ADD SWAP2 DUP3 MSTORE PUSH1 0x60 PUSH1 0xFF PUSH1 0x3 SLOAD AND SWAP5 ADD SWAP4 ISZERO ISZERO DUP5 MSTORE DUP3 MLOAD SWAP5 DUP6 MSTORE MLOAD PUSH1 0x20 DUP6 ADD MSTORE MLOAD SWAP1 DUP4 ADD MSTORE MLOAD ISZERO ISZERO PUSH1 0x60 DUP3 ADD MSTORE RETURN JUMPDEST POP POP CALLVALUE PUSH2 0x14A JUMPI PUSH1 0x20 CALLDATASIZE PUSH1 0x3 NOT ADD SLT PUSH2 0x14A JUMPI DUP1 SLOAD PUSH2 0xBB8 SWAP2 CALLDATALOAD SWAP1 PUSH2 0x3BF SWAP1 PUSH1 0x1 PUSH1 0x1 PUSH1 0xA0 SHL SUB AND CALLER EQ PUSH2 0x43E JUMP JUMPDEST DUP1 PUSH1 0x1 SSTORE TIMESTAMP PUSH1 0x2 SSTORE PUSH32 0x6076F9043294B8C46337EF24998F35871DF49215DF3EB8F8A1FD91389A465E2 DUP4 DUP1 LOG3 DUP1 RETURN JUMPDEST DUP5 SWAP1 CALLVALUE PUSH2 0x14A JUMPI DUP2 PUSH1 0x3 NOT CALLDATASIZE ADD SLT PUSH2 0x14A JUMPI PUSH1 0x20 SWAP2 SLOAD DUP2 MSTORE RETURN JUMPDEST PUSH1 0x40 MLOAD SWAP1 PUSH1 0x80 DUP3 ADD DUP3 DUP2 LT PUSH8 0xFFFFFFFFFFFFFFFF DUP3 GT OR PUSH2 0x428 JUMPI PUSH1 0x40 MSTORE JUMP JUMPDEST PUSH4 0x4E487B71 PUSH1 0xE0 SHL PUSH1 0x0 MSTORE PUSH1 0x41 PUSH1 0x4 MSTORE PUSH1 0x24 PUSH1 0x0 REVERT JUMPDEST ISZERO PUSH2 0x445 JUMPI JUMP JUMPDEST PUSH1 0x40 MLOAD PUSH3 0x461BCD PUSH1 0xE5 SHL DUP2 MSTORE PUSH1 0x20 PUSH1 0x4 DUP3 ADD MSTORE PUSH1 0x9 PUSH1 0x24 DUP3 ADD MSTORE PUSH9 0x2737BA1037BBB732B9 PUSH1 0xB9 SHL PUSH1 0x44 DUP3 ADD MSTORE PUSH1 0x64 SWAP1 REVERT INVALID LOG2 PUSH5 0x6970667358 0x22 SLT KECCAK256 0xB5 KECCAK256 0x21 AND 0xCD PUSH17 0x5225B620FDAF6088ECD72EA0B582323D8D GT ADDRESS 0xED EXP 0x29 SELFBALANCE 0x2A 0xF6 LOG2 PUSH5 0x736F6C6343 STOP ADDMOD EQ STOP CALLER "},"methodIdentifiers":{"getCurrentCHZPrice()":"222da81c","getVolatilityData()":"75cb65a6","getVolatilityPercent()":"a1f6c5f2","owner()":"8da5cb5b","setEmergencyMode(bool)":"be32b3f8","setPrice(uint256)":"91b7f5ed","setVolatilityData(uint256,uint256,bool)":"cd2435f4","setVolatilityPercent(uint256)":"4beae481","shouldTriggerEmergency(uint256)":"995e5779","shouldTriggerProtection(uint256)":"7631f193","updatePriceData()":"a43de31a"}}}}}