{"contracts/SimpleDuel.sol":{"SimpleDuel":{"abi":[{"inputs":[{"internalType":"address","name":"_bettingTokenAddress","type":"address"},{"internalType":"address","name":"_fanTokenAddress","type":"address"},{"internalType":"uint8","name":"_fanTokenDecimals","type":"uint8"},{"internalType":"uint8","name":"_bettingTokenDecimals","type":"uint8"}],"stateMutability":"nonpayable","type":"constructor"},{"anonymous":false,"inputs":[{"indexed":true,"internalType":"uint256","name":"duelId","type":"uint256"},{"indexed":false,"internalType":"bool","name":"eligible","type":"bool"}],"name":"ArenaEligibilitySet","type":"event"},{"anonymous":false,"inputs":[{"indexed":true,"internalType":"address","name":"user","type":"address"},{"indexed":false,"internalType":"uint256","name":"duelId","type":"uint256"}],"name":"ArenaEligibleBet","type":"event"},{"anonymous":false,"inputs":[{"indexed":true,"internalType":"uint256","name":"duelId","type":"uint256"},{"indexed":true,"internalType":"address","name":"user","type":"address"},{"indexed":false,"internalType":"uint256","name":"outcomeId","type":"uint256"},{"indexed":false,"internalType":"uint256","name":"amount","type":"uint256"},{"indexed":false,"internalType":"uint256","name":"fanTokenBalance","type":"uint256"}],"name":"BetPlaced","type":"event"},{"anonymous":false,"inputs":[{"indexed":true,"internalType":"uint256","name":"duelId","type":"uint256"}],"name":"DuelCanceled","type":"event"},{"anonymous":false,"inputs":[{"indexed":true,"internalType":"uint256","name":"duelId","type":"uint256"},{"indexed":true,"internalType":"address","name":"creator","type":"address"},{"indexed":false,"internalType":"string","name":"title","type":"string"},{"indexed":false,"internalType":"string","name":"category","type":"string"},{"indexed":false,"internalType":"string[3]","name":"outcomes","type":"string[3]"},{"indexed":false,"internalType":"uint256","name":"deadline","type":"uint256"}],"name":"DuelCreated","type":"event"},{"anonymous":false,"inputs":[{"indexed":false,"internalType":"uint256","name":"newFee","type":"uint256"}],"name":"DuelCreationFeeUpdated","type":"event"},{"anonymous":false,"inputs":[{"indexed":true,"internalType":"uint256","name":"duelId","type":"uint256"},{"indexed":false,"internalType":"uint256","name":"winningOutcomeId","type":"uint256"}],"name":"DuelResolved","type":"event"},{"anonymous":false,"inputs":[{"indexed":true,"internalType":"address","name":"to","type":"address"},{"indexed":false,"internalType":"uint256","name":"amount","type":"uint256"}],"name":"FeesWithdrawn","type":"event"},{"anonymous":false,"inputs":[{"indexed":true,"internalType":"uint256","name":"duelId","type":"uint256"},{"indexed":true,"internalType":"address","name":"user","type":"address"},{"indexed":false,"internalType":"uint256","name":"amount","type":"uint256"},{"indexed":false,"internalType":"uint256","name":"bonus","type":"uint256"}],"name":"GainsClaimed","type":"event"},{"anonymous":false,"inputs":[{"indexed":true,"internalType":"address","name":"user","type":"address"},{"indexed":false,"internalType":"uint256","name":"amount","type":"uint256"}],"name":"GasAdvanced","type":"event"},{"anonymous":false,"inputs":[{"indexed":true,"internalType":"address","name":"user","type":"address"},{"indexed":false,"internalType":"uint256","name":"amount","type":"uint256"}],"name":"GasDebtRepaid","type":"event"},{"anonymous":false,"inputs":[{"indexed":true,"internalType":"address","name":"moderator","type":"address"},{"indexed":false,"internalType":"bool","name":"status","type":"bool"}],"name":"ModeratorSet","type":"event"},{"anonymous":false,"inputs":[{"indexed":true,"internalType":"address","name":"previousOwner","type":"address"},{"indexed":true,"internalType":"address","name":"newOwner","type":"address"}],"name":"OwnershipTransferred","type":"event"},{"anonymous":false,"inputs":[{"indexed":false,"internalType":"address","name":"account","type":"address"}],"name":"Paused","type":"event"},{"anonymous":false,"inputs":[{"indexed":true,"internalType":"address","name":"user","type":"address"},{"indexed":false,"internalType":"uint256","name":"points","type":"uint256"},{"indexed":false,"internalType":"string","name":"reason","type":"string"}],"name":"PointsAwarded","type":"event"},{"anonymous":false,"inputs":[{"indexed":true,"internalType":"address","name":"user","type":"address"},{"indexed":false,"internalType":"uint256","name":"points","type":"uint256"},{"indexed":false,"internalType":"string","name":"reason","type":"string"}],"name":"PointsDeducted","type":"event"},{"anonymous":false,"inputs":[{"indexed":true,"internalType":"address","name":"user","type":"address"},{"indexed":false,"internalType":"uint256","name":"duelId","type":"uint256"},{"indexed":false,"internalType":"uint256","name":"points","type":"uint256"}],"name":"PointsEarned","type":"event"},{"anonymous":false,"inputs":[{"indexed":true,"internalType":"uint256","name":"duelId","type":"uint256"},{"indexed":true,"internalType":"address","name":"user","type":"address"},{"indexed":false,"internalType":"uint256","name":"amount","type":"uint256"}],"name":"RefundIssued","type":"event"},{"anonymous":false,"inputs":[{"indexed":true,"internalType":"uint256","name":"duelId","type":"uint256"},{"indexed":false,"internalType":"uint256","name":"winningOutcomeId","type":"uint256"},{"indexed":false,"internalType":"uint256","name":"executeAt","type":"uint256"}],"name":"ResolutionProposed","type":"event"},{"anonymous":false,"inputs":[{"indexed":true,"internalType":"address","name":"resolver","type":"address"},{"indexed":false,"internalType":"bool","name":"authorized","type":"bool"}],"name":"ResolverAuthorized","type":"event"},{"anonymous":false,"inputs":[{"indexed":false,"internalType":"address","name":"account","type":"address"}],"name":"Unpaused","type":"event"},{"inputs":[],"name":"ARENA_ACTIVATION_POINTS","outputs":[{"internalType":"uint256","name":"","type":"uint256"}],"stateMutability":"view","type":"function"},{"inputs":[],"name":"MAX_FEE_PERCENT","outputs":[{"internalType":"uint256","name":"","type":"uint256"}],"stateMutability":"view","type":"function"},{"inputs":[],"name":"MAX_USER_DEADLINE","outputs":[{"internalType":"uint256","name":"","type":"uint256"}],"stateMutability":"view","type":"function"},{"inputs":[],"name":"POINTS_PER_DUEL","outputs":[{"internalType":"uint256","name":"","type":"uint256"}],"stateMutability":"view","type":"function"},{"inputs":[],"name":"RESOLUTION_TIMELOCK","outputs":[{"internalType":"uint256","name":"","type":"uint256"}],"stateMutability":"view","type":"function"},{"inputs":[{"internalType":"uint256","name":"_duelId","type":"uint256"}],"name":"activateArenaWithPoints","outputs":[],"stateMutability":"nonpayable","type":"function"},{"inputs":[{"internalType":"string","name":"_title","type":"string"},{"internalType":"string","name":"_category","type":"string"},{"internalType":"bool","name":"_arenaEligible","type":"bool"},{"internalType":"string[3]","name":"_outcomes","type":"string[3]"},{"internalType":"uint256","name":"_deadline","type":"uint256"}],"name":"adminCreateDuel","outputs":[],"stateMutability":"nonpayable","type":"function"},{"inputs":[{"internalType":"address","name":"_resolver","type":"address"},{"internalType":"bool","name":"_authorized","type":"bool"}],"name":"authorizeResolver","outputs":[],"stateMutability":"nonpayable","type":"function"},{"inputs":[{"internalType":"address","name":"","type":"address"}],"name":"authorizedResolvers","outputs":[{"internalType":"bool","name":"","type":"bool"}],"stateMutability":"view","type":"function"},{"inputs":[],"name":"bettingToken","outputs":[{"internalType":"contract IERC20","name":"","type":"address"}],"stateMutability":"view","type":"function"},{"inputs":[],"name":"bettingTokenDecimals","outputs":[{"internalType":"uint8","name":"","type":"uint8"}],"stateMutability":"view","type":"function"},{"inputs":[{"internalType":"uint256","name":"_duelId","type":"uint256"},{"internalType":"address","name":"_user","type":"address"}],"name":"calculatePotentialGains","outputs":[{"internalType":"uint256","name":"baseGains","type":"uint256"},{"internalType":"uint256","name":"bonusGains","type":"uint256"}],"stateMutability":"view","type":"function"},{"inputs":[{"internalType":"address","name":"_user","type":"address"}],"name":"canActivateArena","outputs":[{"internalType":"bool","name":"","type":"bool"}],"stateMutability":"view","type":"function"},{"inputs":[{"internalType":"uint256","name":"_duelId","type":"uint256"}],"name":"claimGains","outputs":[],"stateMutability":"nonpayable","type":"function"},{"inputs":[{"internalType":"uint256","name":"_duelId","type":"uint256"}],"name":"claimRefund","outputs":[],"stateMutability":"nonpayable","type":"function"},{"inputs":[{"internalType":"string","name":"_title","type":"string"},{"internalType":"string","name":"_category","type":"string"},{"internalType":"string[3]","name":"_outcomes","type":"string[3]"},{"internalType":"uint256","name":"_deadline","type":"uint256"}],"name":"createDuel","outputs":[],"stateMutability":"nonpayable","type":"function"},{"inputs":[{"internalType":"uint256","name":"","type":"uint256"}],"name":"duelArenaEligible","outputs":[{"internalType":"bool","name":"","type":"bool"}],"stateMutability":"view","type":"function"},{"inputs":[],"name":"duelCreationFee","outputs":[{"internalType":"uint256","name":"","type":"uint256"}],"stateMutability":"view","type":"function"},{"inputs":[{"internalType":"uint256","name":"","type":"uint256"}],"name":"duels","outputs":[{"internalType":"string","name":"title","type":"string"},{"internalType":"string","name":"category","type":"string"},{"internalType":"bool","name":"deprecated_arenaEligible","type":"bool"},{"internalType":"uint256","name":"deadline","type":"uint256"},{"internalType":"bool","name":"isResolved","type":"bool"},{"internalType":"bool","name":"isCanceled","type":"bool"},{"internalType":"uint256","name":"winningOutcomeId","type":"uint256"},{"internalType":"uint256","name":"potTotal","type":"uint256"},{"internalType":"uint256","name":"feesCollected","type":"uint256"},{"internalType":"address","name":"creator","type":"address"}],"stateMutability":"view","type":"function"},{"inputs":[{"internalType":"address","name":"_token","type":"address"},{"internalType":"address","name":"_to","type":"address"},{"internalType":"uint256","name":"_amount","type":"uint256"}],"name":"emergencyWithdraw","outputs":[],"stateMutability":"nonpayable","type":"function"},{"inputs":[{"internalType":"uint256","name":"_duelId","type":"uint256"},{"internalType":"uint256","name":"_winningOutcomeId","type":"uint256"}],"name":"executeResolution","outputs":[],"stateMutability":"nonpayable","type":"function"},{"inputs":[],"name":"fanToken","outputs":[{"internalType":"contract IERC20","name":"","type":"address"}],"stateMutability":"view","type":"function"},{"inputs":[{"internalType":"uint256","name":"","type":"uint256"},{"internalType":"address","name":"","type":"address"}],"name":"fanTokenBalanceSnapshot","outputs":[{"internalType":"uint256","name":"","type":"uint256"}],"stateMutability":"view","type":"function"},{"inputs":[],"name":"fanTokenDecimals","outputs":[{"internalType":"uint8","name":"","type":"uint8"}],"stateMutability":"view","type":"function"},{"inputs":[],"name":"fanTokenThreshold","outputs":[{"internalType":"uint256","name":"","type":"uint256"}],"stateMutability":"view","type":"function"},{"inputs":[],"name":"gasAdvanceFee","outputs":[{"internalType":"uint256","name":"","type":"uint256"}],"stateMutability":"view","type":"function"},{"inputs":[{"internalType":"address","name":"","type":"address"}],"name":"gasFeeDebt","outputs":[{"internalType":"uint256","name":"","type":"uint256"}],"stateMutability":"view","type":"function"},{"inputs":[],"name":"gasRelayer","outputs":[{"internalType":"address","name":"","type":"address"}],"stateMutability":"view","type":"function"},{"inputs":[],"name":"getBettingToken","outputs":[{"internalType":"address","name":"","type":"address"}],"stateMutability":"view","type":"function"},{"inputs":[{"internalType":"uint256","name":"_duelId","type":"uint256"}],"name":"getDuelInfo","outputs":[{"internalType":"string","name":"title","type":"string"},{"internalType":"string","name":"category","type":"string"},{"internalType":"bool","name":"arenaEligible","type":"bool"},{"internalType":"string[3]","name":"outcomes","type":"string[3]"},{"internalType":"uint256","name":"potTotal","type":"uint256"},{"internalType":"uint256","name":"deadline","type":"uint256"},{"internalType":"bool","name":"isResolved","type":"bool"},{"internalType":"bool","name":"isCanceled","type":"bool"},{"internalType":"uint256","name":"winningOutcomeId","type":"uint256"},{"internalType":"address","name":"creator","type":"address"}],"stateMutability":"view","type":"function"},{"inputs":[],"name":"getFanToken","outputs":[{"internalType":"address","name":"","type":"address"}],"stateMutability":"view","type":"function"},{"inputs":[{"internalType":"address","name":"_user","type":"address"}],"name":"getGasFeeDebt","outputs":[{"internalType":"uint256","name":"","type":"uint256"}],"stateMutability":"view","type":"function"},{"inputs":[{"internalType":"uint256","name":"_duelId","type":"uint256"},{"internalType":"uint256","name":"_outcomeId","type":"uint256"}],"name":"getOutcomePot","outputs":[{"internalType":"uint256","name":"","type":"uint256"}],"stateMutability":"view","type":"function"},{"inputs":[],"name":"getPlatformFeePercent","outputs":[{"internalType":"uint256","name":"","type":"uint256"}],"stateMutability":"view","type":"function"},{"inputs":[{"internalType":"uint256","name":"_duelId","type":"uint256"},{"internalType":"address","name":"_user","type":"address"}],"name":"getUserBets","outputs":[{"internalType":"uint256[3]","name":"","type":"uint256[3]"}],"stateMutability":"view","type":"function"},{"inputs":[{"internalType":"address","name":"_user","type":"address"}],"name":"getUserPoints","outputs":[{"internalType":"uint256","name":"","type":"uint256"}],"stateMutability":"view","type":"function"},{"inputs":[{"internalType":"uint256","name":"_duelId","type":"uint256"}],"name":"isDuelBalanced","outputs":[{"internalType":"bool","name":"","type":"bool"}],"stateMutability":"view","type":"function"},{"inputs":[{"internalType":"address","name":"_user","type":"address"},{"internalType":"uint256","name":"_amount","type":"uint256"}],"name":"manualGasRepayment","outputs":[],"stateMutability":"nonpayable","type":"function"},{"inputs":[{"internalType":"address","name":"","type":"address"}],"name":"moderators","outputs":[{"internalType":"bool","name":"","type":"bool"}],"stateMutability":"view","type":"function"},{"inputs":[],"name":"nextDuelId","outputs":[{"internalType":"uint256","name":"","type":"uint256"}],"stateMutability":"view","type":"function"},{"inputs":[],"name":"owner","outputs":[{"internalType":"address","name":"","type":"address"}],"stateMutability":"view","type":"function"},{"inputs":[],"name":"pause","outputs":[],"stateMutability":"nonpayable","type":"function"},{"inputs":[],"name":"paused","outputs":[{"internalType":"bool","name":"","type":"bool"}],"stateMutability":"view","type":"function"},{"inputs":[{"internalType":"bytes32","name":"","type":"bytes32"}],"name":"pendingResolutions","outputs":[{"internalType":"uint256","name":"","type":"uint256"}],"stateMutability":"view","type":"function"},{"inputs":[{"internalType":"uint256","name":"_duelId","type":"uint256"},{"internalType":"uint256","name":"_outcomeId","type":"uint256"},{"internalType":"uint256","name":"_amount","type":"uint256"}],"name":"placeBet","outputs":[],"stateMutability":"nonpayable","type":"function"},{"inputs":[],"name":"platformFeePercent","outputs":[{"internalType":"uint256","name":"","type":"uint256"}],"stateMutability":"view","type":"function"},{"inputs":[],"name":"pointsPerBetUnit","outputs":[{"internalType":"uint256","name":"","type":"uint256"}],"stateMutability":"view","type":"function"},{"inputs":[{"internalType":"uint256","name":"_duelId","type":"uint256"},{"internalType":"uint256","name":"_winningOutcomeId","type":"uint256"}],"name":"proposeResolution","outputs":[],"stateMutability":"nonpayable","type":"function"},{"inputs":[],"name":"renounceOwnership","outputs":[],"stateMutability":"nonpayable","type":"function"},{"inputs":[{"internalType":"uint256","name":"_duelId","type":"uint256"},{"internalType":"bool","name":"_eligible","type":"bool"}],"name":"setArenaEligible","outputs":[],"stateMutability":"nonpayable","type":"function"},{"inputs":[{"internalType":"uint256","name":"_newFee","type":"uint256"}],"name":"setDuelCreationFee","outputs":[],"stateMutability":"nonpayable","type":"function"},{"inputs":[{"internalType":"uint256","name":"_newThreshold","type":"uint256"}],"name":"setFanTokenThreshold","outputs":[],"stateMutability":"nonpayable","type":"function"},{"inputs":[{"internalType":"uint256","name":"_fee","type":"uint256"}],"name":"setGasAdvanceFee","outputs":[],"stateMutability":"nonpayable","type":"function"},{"inputs":[{"internalType":"address","name":"_relayer","type":"address"}],"name":"setGasRelayer","outputs":[],"stateMutability":"nonpayable","type":"function"},{"inputs":[{"internalType":"address","name":"_moderator","type":"address"},{"internalType":"bool","name":"_status","type":"bool"}],"name":"setModerator","outputs":[],"stateMutability":"nonpayable","type":"function"},{"inputs":[{"internalType":"uint256","name":"_newFee","type":"uint256"}],"name":"setPlatformFeePercent","outputs":[],"stateMutability":"nonpayable","type":"function"},{"inputs":[{"internalType":"uint256","name":"_newPoints","type":"uint256"}],"name":"setPointsPerBetUnit","outputs":[],"stateMutability":"nonpayable","type":"function"},{"inputs":[{"internalType":"bool","name":"_enabled","type":"bool"}],"name":"toggleUserCreation","outputs":[],"stateMutability":"nonpayable","type":"function"},{"inputs":[],"name":"totalFeesAccumulated","outputs":[{"internalType":"uint256","name":"","type":"uint256"}],"stateMutability":"view","type":"function"},{"inputs":[{"internalType":"address","name":"newOwner","type":"address"}],"name":"transferOwnership","outputs":[],"stateMutability":"nonpayable","type":"function"},{"inputs":[],"name":"unpause","outputs":[],"stateMutability":"nonpayable","type":"function"},{"inputs":[],"name":"userCreationEnabled","outputs":[{"internalType":"bool","name":"","type":"bool"}],"stateMutability":"view","type":"function"},{"inputs":[{"internalType":"address","name":"","type":"address"}],"name":"userPoints","outputs":[{"internalType":"uint256","name":"","type":"uint256"}],"stateMutability":"view","type":"function"},{"inputs":[{"internalType":"uint256","name":"_duelId","type":"uint256"}],"name":"validateAndCancelDuel","outputs":[],"stateMutability":"nonpayable","type":"function"},{"inputs":[{"internalType":"address","name":"_to","type":"address"},{"internalType":"uint256","name":"_amount","type":"uint256"}],"name":"withdrawFees","outputs":[],"stateMutability":"nonpayable","type":"function"}],"evm":{"bytecode":{"linkReferences":{},"object":"610100346200028157601f620042da38819003918201601f191683019291906001600160401b0384118385101762000286578160809284926040968752833981010312620002815762000052816200029c565b62000060602083016200029c565b916200007c606062000074868401620002b1565b9201620002b1565b60008054336001600160a01b031980831682178455885190979395949390926001600160a01b03929083167f8be0079c531659141344cd1fd0a4f28419497f9722a3daafe3b4186f6b6457e08880a3600180558160ff1997886002541660025561012c6003556014600555678ac7230489e80000600855600189600954161760095567016345785d8a0000600c55169283156200023f575016908115620002075760805260a05260c082905260e05260ff16604d8111620001f357600a0a80606402906064820403620001f357600191859160065533815260136020528181208385825416179055600f60205220918254161790553390600b541617600b55516140199081620002c182396080518181816108be01528181611104015281816113c10152818161202601528181612496015281816127a50152612a6c015260a0518181816109c401528181610b0101528181610f950152611ba2015260c0518161194b015260e05181818161083a01526135a70152f35b634e487b7160e01b82526011600452602482fd5b875162461bcd60e51b815260206004820152601160248201527024b73b30b634b2103330b7103a37b5b2b760791b6044820152606490fd5b62461bcd60e51b815260206004820152601560248201527f496e76616c69642062657474696e6720746f6b656e00000000000000000000006044820152606490fd5b600080fd5b634e487b7160e01b600052604160045260246000fd5b51906001600160a01b03821682036200028157565b519060ff82168203620002815756fe608080604052600436101561001357600080fd5b60003560e01c90816314d0f1ba146135fd575080631713ecbc146135cb57806319ab9bd81461358d5780631f528480146133de57806320d8cbd0146133bb578063253e35fc1461327657806329cf655b1461278f5780632f0c45fd1461324d57806336dc9ec614612d235780633809ae171461292d5780633ee2b01d146128685780633f4ba83a146127d457806343425e881461278f5780634692c9621461274c5780634952ce761461272e5780634c9c3f85146117c05780634d6d50c5146126e25780634e15aa67146126a4578063549ec614146126865780635b7baf64146123d55780635c975abb146123b25780635fe6c08d1461232557806367d8174014612308578063698a4957146122ea5780636fcb48a514611a86578063715018a614611a2d57806374c94bb9146119e557806375daa3de14610f7f5780637689279c146119c4578063779db8aa146119a857806379e92d251461196f5780637e06a617146119315780638456cb59146118d7578063859a62d0146118065780638931ecd0146117de5780638c639a85146117c05780638da5cb5b146117975780639b0d103614610ee7578063a08e25b4146115c7578063a24a27bc1461159b578063a24aa6e01461156a578063ad3b1b471461135f578063ae5fd78414611341578063aeefe31f14610399578063af6f4bce146111f7578063ba263a0a14611059578063ba973e441461103b578063c50809d314610fc4578063c8d5ba8014610f7f578063cab230d214610f21578063cf2da5f314610ee7578063d794d2d914610ea8578063d860455b14610e8c578063dadad0f314610e6b578063daf19f2b14610e4d578063de2f6a4f14610d88578063e63ea40814610ce2578063e71c9697146107b8578063eac740391461079a578063ed798fec14610597578063edc6872014610579578063f2fde38b146104c4578063f4365752146103d3578063f50ddbc7146103995763fa744dd3146102ea57600080fd5b346103945760403660031901126103945760043561030661364e565b60606040516103148161367a565b369037604051916103248361367a565b60009081526011602090815260408083206001600160a01b03909416808452600f949094018083528184208054875260018181015488860152958552908352600201548582015251919391929190835b6003861061038157606085f35b8251815294830194918101918101610374565b600080fd5b34610394576020366003190112610394576001600160a01b036103ba613638565b16600052600d6020526020604060002054604051908152f35b34610394576040366003190112610394576004356103ef61370c565b33600052600f60205260ff6040600020541680156104b0575b1561046b5760207ff55821ceba42951b9aa03907b558e1375e504ced6c60bbdf3025384eb0d513189161043e6004548510613e21565b83600052600e82526104608160406000209060ff801983541691151516179055565b6040519015158152a2005b60405162461bcd60e51b815260206004820152601860248201527f4e6f7420617574686f72697a6564206d6f64657261746f7200000000000000006044820152606490fd5b506000546001600160a01b03163314610408565b34610394576020366003190112610394576104dd613638565b6104e56138dc565b6001600160a01b0390811690811561053457600054826001600160601b0360a01b821617600055167f8be0079c531659141344cd1fd0a4f28419497f9722a3daafe3b4186f6b6457e0600080a3005b60405162461bcd60e51b815260206004820152601d60248201527f4e6577206f776e657220697320746865207a65726f20616464726573730000006044820152606490fd5b34610394576000366003190112610394576020600c54604051908152f35b34610394576105a536613664565b336000526020906013825260ff604060002054168015610786575b6105c990613ec0565b826000526011825260406000206105f0600782015460ff8116159081610777575b50613e63565b60038210156107325781600b826106106006610616950154421015613f0c565b01613975565b90549060031b1c156106ed5761062b83613af3565b156106b157604051828101908482528260408201526040815261064d8161367a565b5190209062015180420180421161069b577fcc684ba03c326954c633140f1fc4ead5adb1243a9675fef4bbe39f56e846315893604093600052601081528184600020558351928352820152a2005b634e487b7160e01b600052601160045260246000fd5b60405162461bcd60e51b8152600481018390526014602482015273111d595b081a5cc81b9bdd0818985b185b98d95960621b6044820152606490fd5b60405162461bcd60e51b815260048101839052601a60248201527f4e6f2062657473206f6e2077696e6e696e67206f7574636f6d650000000000006044820152606490fd5b60405162461bcd60e51b815260048101849052601760248201527f496e76616c69642077696e6e696e67206f7574636f6d650000000000000000006044820152606490fd5b60ff915060081c1615866105ea565b506000546001600160a01b031633146105c0565b3461039457600036600319011261039457602060405162278d008152f35b3461039457606036600319011261039457600435602460443581356107db613dcb565b6107e3613d87565b83600052602092601184526040600020926108016004548710613e21565b61081a600785015460ff8116159081610cd35750613e63565b6006840154421015610c8f5761083260038410613934565b8015610c4b577f000000000000000000000000000000000000000000000000000000000000000061086281613eaf565b61086b82613eaf565b906127109180830292830403610c36578310159081610c2b575b5015610bf0576040516323b872dd60e01b8152336004820152306024820152604481018390526001600160a01b039590878160648160007f00000000000000000000000000000000000000000000000000000000000000008c165af1908115610ada57600091610bc3575b5015610b87579086918860005260128352604060002033600052835260406000205415610ae6575b90600f8260096109aa940161092e878254613bc3565b905561096761094089600b8401613975565b6109508983548360031b1c613bc3565b825460001960039390931b92831b1916911b179055565b3360005201835261098f61097f876040600020613975565b6109508783548360031b1c613bc3565b6109a461099e600554866139a8565b91613eaf565b906139bb565b94604051938480926370a0823160e01b82523360048301527f0000000000000000000000000000000000000000000000000000000000000000165afa918215610ada57600092610aab575b50604051928352848301526040820152837fab2115bac1de808eb7fe2be0309085b11f1f42b1eb980de8352efefdbfc098e260603393a360405190838252828201527f4b97a5e5e9b332836eea24e70b760c1ffce3041c0eb15309837d180f8bfff26a60403392a281600052600e815260ff60406000205416610a79575b60018055005b7fc7cef681ee4e9b064e67dcb5d564e1378ae41c9e65da8e232b1f5cd866225325906040519283523392a28080610a73565b9091508481813d8311610ad3575b610ac38183613695565b81010312610394575190866109f5565b503d610ab9565b6040513d6000823e3d90fd5b6040516370a0823160e01b81523360048201529250878386817f00000000000000000000000000000000000000000000000000000000000000008b165afa8015610ada578893600091610b50575b5060008a81526012855260408082203383528652902055610918565b84819592509392933d8311610b80575b610b6a8183613695565b81010312610394579151879291906109aa610b34565b503d610b60565b60405162461bcd60e51b81526004810188905260158186015274151bdad95b881d1c985b9cd9995c8819985a5b1959605a1b6044820152606490fd5b610be39150883d8a11610be9575b610bdb8183613695565b810190613d19565b896108f0565b503d610bd1565b60405162461bcd60e51b81526004810187905260148185015273416d6f756e74206f7574206f6620626f756e647360601b6044820152606490fd5b905082111588610885565b84634e487b7160e01b60005260116004526000fd5b60405162461bcd60e51b8152600481018690526017818401527f416d6f756e74206d75737420626520706f7369746976650000000000000000006044820152606490fd5b60405162461bcd60e51b815260048101869052601b818401527f42657474696e6720646561646c696e65206861732070617373656400000000006044820152606490fd5b60ff915060081c1615886105ea565b3461039457606036600319011261039457610cfb613638565b6020610d5e610d0861364e565b92610d116138dc565b6001600160a01b0393610d278186161515613fa5565b60405163a9059cbb60e01b81526001600160a01b039091166004820152604480356024830152909485938492600092918491820190565b0393165af18015610ada57610d6f57005b610d869060203d8111610be957610bdb8183613695565b005b3461039457604036600319011261039457610da1613638565b610da961370c565b90610db26138dc565b6001600160a01b0316908115610e085760207f287574cf078fb59442fa4e01830412374e9c38ff02733f8d1e2afc3f2325eb489183600052601382526104608160406000209060ff801983541691151516179055565b60405162461bcd60e51b815260206004820152601860248201527f496e76616c6964207265736f6c766572206164647265737300000000000000006044820152606490fd5b34610394576000366003190112610394576020600554604051908152f35b3461039457602036600319011261039457610e846138dc565b600435600655005b3461039457600036600319011261039457602060405160648152f35b34610394576020366003190112610394576001600160a01b03610ec9613638565b166000526013602052602060ff604060002054166040519015158152f35b34610394576020366003190112610394576001600160a01b03610f08613638565b16600052600a6020526020604060002054604051908152f35b3461039457602036600319011261039457600435610f3d6138dc565b6103e88111610f4b57600355005b60405162461bcd60e51b815260206004820152600c60248201526b08ccaca40e8dede40d0d2ced60a31b6044820152606490fd5b34610394576000366003190112610394576040517f00000000000000000000000000000000000000000000000000000000000000006001600160a01b03168152602090f35b3461039457602036600319011261039457600435610fe06138dc565b8015158061102f575b15610ff357600555005b60405162461bcd60e51b8152602060048201526014602482015273496e76616c696420706f696e74732076616c756560601b6044820152606490fd5b506103e8811115610fe9565b34610394576000366003190112610394576020600654604051908152f35b3461039457604036600319011261039457611072613638565b6024359061107e6138dc565b60018060a01b03918282169283600052602092600a845282604060002054106111bc578261110092859287600052600a845260406000206110c084825461399b565b90556040516323b872dd60e01b81526001600160a01b03909116600482015230602482015260448101929092529092839190829060009082906064820190565b03927f0000000000000000000000000000000000000000000000000000000000000000165af1908115610ada5760009161119f575b501561116757907f8a073c194e1ccdf6688351ac0e3fa50683a2a88723662368bdb9c18064a0304e91604051908152a2005b60405162461bcd60e51b815260048101839052601060248201526f14995c185e5b595b9d0819985a5b195960821b6044820152606490fd5b6111b69150833d8511610be957610bdb8183613695565b84611135565b60405162461bcd60e51b8152600481018590526013602482015272105b5bdd5b9d08195e18d959591cc81919589d606a1b6044820152606490fd5b3461039457602080600319360112610394576040516112158161367a565b8160005b60608082101561122f5781840152018290611219565b8260043560005260118152604060002090600e815260ff604060002054169160098101549060068101549360078201549460088301549160018060a01b03600e850154169361127d816137b8565b96600161128b8184016137b8565b90604051936112998561367a565b8460038092016000915b8383106113265750505050509260ff94926112e16112f6936112d59c96604051809e819e61014080845283019061385e565b9281840391015261385e565b91151560408b015289820360608b015261389e565b95608088015260a0870152818116151560c087015260081c16151560e08501526101008401526101208301520390f35b84878192611333856137b8565b8152019201920191906112a3565b34610394576000366003190112610394576020600854604051908152f35b3461039457604036600319011261039457611378613638565b6024356113836138dc565b6001600160a01b038281169290919061139d841515613fa5565b60075492838311611525576040516370a0823160e01b8152306004820152602094917f0000000000000000000000000000000000000000000000000000000000000000168582602481845afa928315610ada57869386936000916114f1575b5083611452969261141282611417941015613f4f565b61399b565b60075560405163a9059cbb60e01b81526001600160a01b03909116600482015260248101929092529092839190829060009082906044820190565b03925af1908115610ada576000916114d4575b501561149757907fc0819c13be868895eb93e40eaceb96de976442fa1d404e5c55f14bb65a8c489a91604051908152a2005b60405162461bcd60e51b8152600481018390526015602482015274119959481dda5d1a191c985dd85b0819985a5b1959605a1b6044820152606490fd5b6114eb9150833d8511610be957610bdb8183613695565b84611465565b9350509282813d831161151e575b6115098183613695565b810103126103945790518592859291836113fc565b503d6114ff565b60405162461bcd60e51b815260206004820152601f60248201527f416d6f756e74206578636565647320616363756d756c617465642066656573006044820152606490fd5b3461039457602036600319011261039457600435600052600e602052602060ff604060002054166040519015158152f35b346103945760203660031901126103945760043560005260106020526020604060002054604051908152f35b3461039457602080600319360112610394576004356115e96004548210613e21565b60008181526011835260409020600e01546001600160a01b0316330361175f5733600052600d82526064604060002054106117245780600052600e825260ff604060002054166116e65733600052600d82526040600020805490606319820191821161069b575580600052600e82526040600020600160ff198254161790557ff55821ceba42951b9aa03907b558e1375e504ced6c60bbdf3025384eb0d513188260405160018152a2604080519160648352820152601060408201526f20b932b7309030b1ba34bb30ba34b7b760811b60608201527ff9d84dc8dbc1ec63030d63fe51eb9e84f59905783078b2f3d84f3fcee1ae778f60803392a2005b60405162461bcd60e51b8152600481018390526016602482015275416c7265616479206172656e6120656c696769626c6560501b6044820152606490fd5b60405162461bcd60e51b8152600481018390526013602482015272496e73756666696369656e7420706f696e747360681b6044820152606490fd5b60405162461bcd60e51b815260048101839052601060248201526f2737ba10323ab2b61031b932b0ba37b960811b6044820152606490fd5b34610394576000366003190112610394576000546040516001600160a01b039091168152602090f35b34610394576000366003190112610394576020600354604051908152f35b346103945760203660031901126103945760206117fc600435613af3565b6040519015158152f35b3461039457602036600319011261039457600435600052601160205261188d6040600020611833816137b8565b90611840600182016137b8565b60ff600283015416916006810154600782015460ff60088401549160098501549361189b600a87015496600e60018060a01b0391015416976040519b8c9b8c6101408091528d019061385e565b908b820360208d015261385e565b97151560408a015260608901528181161515608089015260081c16151560a087015260c086015260e08501526101008401526101208301520390f35b34610394576000366003190112610394576118f06138dc565b6118f8613d87565b600160ff1960025416176002557f62e78cea01bee320cd4e420270b5ea74000d11b0c9f74754ebdbfc544b05a2586020604051338152a1005b3461039457600036600319011261039457602060405160ff7f0000000000000000000000000000000000000000000000000000000000000000168152f35b3461039457602036600319011261039457600435801515809103610394576119956138dc565b60ff801960095416911617600955600080f35b3461039457600036600319011261039457602060405160328152f35b34610394576020366003190112610394576119dd6138dc565b600435600c55005b34610394576040366003190112610394576119fe61364e565b600435600052601260205260406000209060018060a01b03166000526020526020604060002054604051908152f35b3461039457600036600319011261039457611a466138dc565b600080546001600160a01b0319811682556001600160a01b03167f8be0079c531659141344cd1fd0a4f28419497f9722a3daafe3b4186f6b6457e08280a3005b34610394576080366003190112610394576004356001600160401b03811161039457611ab69036906004016136b6565b6024356001600160401b03811161039457611ad59036906004016136b6565b906044356001600160401b03811161039457611af590369060040161371b565b611afd613dcb565b611b05613d87565b60ff60095416156122a557610e10420180421161069b57611b299060643511613bd0565b62278d00420180421161069b57611b439060643510613c10565b611b5882518015159081612299575b50613c4f565b611b6d8351801515908161228d575b50613c8b565b60005b6003811061224757506008546040516370a0823160e01b808252336004830152906001600160a01b03906020816024817f000000000000000000000000000000000000000000000000000000000000000086165afa908115610ada57600091612215575b50600654111561220c575b80600b541633036121ba575b82612024575b50505060045491826000526011602052604060002081516001600160401b038111611eb557611c20825461377e565b601f8111611ff2575b50806020601f8211600114611f8e57600091611f83575b508160011b916000199060031b1c19161781555b84516001600160401b038111611eb557611c71600183015461377e565b601f8111611f43575b50806020601f8211600114611ed657600091611ecb575b508160011b916000199060031b1c19161760018201555b600381016000845b60038210611d9557505050600e90606435600682015501336001600160601b0360a01b82541617905533600052600d60205260406000209182546032810180911161069b577f6e3a1184b10d42fd7cfa70094b21ecbd3bb215615fbb7ee4bfa7d1cd8b41c55a93556040516032815260406020820152600d60408201526c223ab2b61031b932b0ba34b7b760991b60608201527f4c3089477cda1ac100291a040b3ac97ff5f55b6d8b2acfb56a59b9419d95ce0460803392a2611d7e60405192839233976064359285613d48565b0390a3611d8c600454613ae4565b60045560018055005b80518051906001600160401b038211611eb557611db2855461377e565b601f8111611e78575b50602090601f8311600114611e08579282600194936020938695600092611dfd575b5050600019600383901b1c191690841b1786555b01930191019091611cb0565b015190508d80611ddd565b908560005260206000209160005b601f1985168110611e60575083602093600196938796938794601f19811610611e47575b505050811b018655611df1565b015160001960f88460031b161c191690558d8080611e3a565b91926020600181928685015181550194019201611e16565b611ea5908660005260206000206005601f8601811c82019260208710611eab575b601f01901c0190613d31565b8a611dbb565b9192508291611e99565b634e487b7160e01b600052604160045260246000fd5b905086015187611c91565b91506001830160005260206000206000925b601f1983168410611f2b576001935082601f19811610611f12575b5050811b016001820155611ca8565b88015160001960f88460031b161c191690558780611f03565b88810151825560209384019360019092019101611ee8565b611f7390600184016000526020600020601f840160051c81019160208510611f79575b601f0160051c0190613d31565b86611c7a565b9091508190611f66565b905083015187611c40565b6000848152602081209250601f198416905b818110611fda57509083600194939210611fc1575b5050811b018155611c54565b85015160001960f88460031b161c191690558780611fb5565b9192602060018192868a015181550194019201611fa0565b61201e90836000526020600020601f840160051c81019160208510611f7957601f0160051c0190613d31565b86611c29565b7f00000000000000000000000000000000000000000000000000000000000000001690604051908152336004820152602081602481855afa8015610ada578391600091612185575b5010612132576040516323b872dd60e01b81523360048201523060248201526044810183905290602090829060649082906000905af1908115610ada57600091612113575b50156120ce576120c390600754613bc3565b600755838080611bf1565b60405162461bcd60e51b815260206004820152601b60248201527f4372656174696f6e20666565207061796d656e74206661696c656400000000006044820152606490fd5b61212c915060203d602011610be957610bdb8183613695565b856120b1565b60405162461bcd60e51b815260206004820152602560248201527f496e73756666696369656e742062616c616e636520666f72206372656174696f6044820152646e2066656560d81b6064820152608490fd5b9150506020813d6020116121b2575b816121a160209383613695565b81010312610394578290518761206c565b3d9150612194565b600c5433600052600a6020526121d66040600020918254613bc3565b9055600c546040519081527f532998721044f84020f751072ec6511ae7b0a6cf587f02a5cea3af0c3edf3c9660203392a2611beb565b60009250611bdf565b90506020813d60201161223f575b8161223060209383613695565b81010312610394575187611bd4565b3d9150612223565b8061225561226d9284613cca565b5151151580612272575b61226890613cdb565b613ae4565b611b70565b5061226860326122828386613cca565b51511115905061225f565b60329150111585611b67565b60649150111585611b52565b60405162461bcd60e51b815260206004820152601960248201527f55736572206372656174696f6e2069732064697361626c6564000000000000006044820152606490fd5b34610394576000366003190112610394576020604051620151808152f35b346103945760003660031901126103945760206040516103e88152f35b346103945760203660031901126103945761233e613638565b6123466138dc565b6001600160a01b0316801561236d576001600160601b0360a01b600b541617600b55600080f35b60405162461bcd60e51b815260206004820152601760248201527f496e76616c69642072656c6179657220616464726573730000000000000000006044820152606490fd5b3461039457600036600319011261039457602060ff600254166040519015158152f35b3461039457602080600319360112610394576004356123f2613dcb565b806000526011825260406000209160ff600784015460081c161561264b5760118301923360005283825260ff6040600020541661260d57600f61246291013360005280835261244c60406000206001815491015490613bc3565b9033600052835260026040600020015490613bc3565b9283156125d457336000908152908252604090819020805460ff19166001179055516370a0823160e01b81523060048201527f00000000000000000000000000000000000000000000000000000000000000006001600160a01b0316908281602481855afa8015610ada5785906000906125a3575b6124e392501015613f4f565b60405163a9059cbb60e01b815233600482015260248101859052908290829060449082906000905af1908115610ada57600091612586575b5015612552577f7a482fdeb6bc9a1376f597068a214a7a39472bb2eff1b8cad21ba04f49ddca1b906040519384523393a360018055005b6064906040519062461bcd60e51b82526004820152600d60248201526c1499599d5b990819985a5b1959609a1b6044820152fd5b61259d9150823d8411610be957610bdb8183613695565b8461251b565b50508281813d83116125cd575b6125ba8183613695565b8101031261039457846124e391516124d7565b503d6125b0565b60405162461bcd60e51b8152600481018390526011602482015270139bc818995d1cc81d1bc81c99599d5b99607a1b6044820152606490fd5b60405162461bcd60e51b8152600481018390526016602482015275105b1c9958591e4818db185a5b5959081c99599d5b9960521b6044820152606490fd5b6064906040519062461bcd60e51b825260048201526014602482015273111d595b081a5cc81b9bdd0818d85b98d95b195960621b6044820152fd5b34610394576000366003190112610394576020600454604051908152f35b34610394576020366003190112610394576001600160a01b036126c5613638565b16600052600d602052602060646040600020541015604051908152f35b34610394576020366003190112610394577feca1ff7c6cce8e8f96d1079ce3963040ed0a17bdf364455ec36ee6836cc8448e60206004356127216138dc565b80600855604051908152a1005b34610394576000366003190112610394576020600754604051908152f35b3461039457602061278061275f36613664565b9061276c60038310613934565b60005260118352600b604060002001613975565b90549060031b1c604051908152f35b34610394576000366003190112610394576040517f00000000000000000000000000000000000000000000000000000000000000006001600160a01b03168152602090f35b34610394576000366003190112610394576127ed6138dc565b60025460ff81161561282c5760ff19166002557f5db9ee0a495bf2e6ff9c91a7834c1ba4fdd244a5e8aa4e537bd38aeae4b073aa6020604051338152a1005b60405162461bcd60e51b815260206004820152601460248201527314185d5cd8589b194e881b9bdd081c185d5cd95960621b6044820152606490fd5b3461039457604036600319011261039457612881613638565b61288961370c565b906128926138dc565b6001600160a01b03169081156128e85760207f0e1c45aff1a1f4055c2bee5eb0020bf064559e9bd1435a6cc044461ae0c68a1a9183600052600f82526104608160406000209060ff801983541691151516179055565b60405162461bcd60e51b815260206004820152601960248201527f496e76616c6964206d6f64657261746f722061646472657373000000000000006044820152606490fd5b34610394576020806003193601126103945760043561294a613dcb565b8060005260118252604060002091600783015460ff811615612ce75760081c60ff16612cb05760108301923360005283825260ff60406000205416612c7957600881015433600052600f820183526129a6816040600020613975565b90549060031b1c948515612c42576129fa6129e2612a059493612a00933360005287526040600020600160ff19825416179055600b8501613975565b90549060031b1c92600a60098201549101549061399b565b866139a8565b6139bb565b92808410612c3a575b50600090826000526012815260406000203360005281526040600020546006541115612c1a575b33600052600a8152604060002080549081612bbb575b5050612a578285613bc3565b6040516370a0823160e01b81523060048201527f00000000000000000000000000000000000000000000000000000000000000006001600160a01b0316918382602481865afa8015610ada578492600091612b8a575b509281612ac1612aeb936000961015613f4f565b60405163a9059cbb60e01b8152336004820152602481019190915293849283919082906044820190565b03925af1908115610ada57600091612b6d575b5015612b39576040519384528301527f16eb6194ec5e287f7418c9784085dbbf1eedd440c05dbb3c961f4a141e857baf60403393a360018055005b6064906040519062461bcd60e51b82526004820152600d60248201526c14185e5bdd5d0819985a5b1959609a1b6044820152fd5b612b849150823d8411610be957610bdb8183613695565b85612afe565b8381939492503d8311612bb4575b612ba28183613695565b81010312610394575183919081612aad565b503d612b98565b612bd695612bdd929181831115612c1057819788809461399b565b905561399b565b936040519081527f8a073c194e1ccdf6688351ac0e3fa50683a2a88723662368bdb9c18064a0304e823392a28480612a4b565b829788809461399b565b90506101f480840290848204148415171561069b57612710900490612a35565b925083612a0e565b60405162461bcd60e51b815260048101859052600f60248201526e4e6f2077696e6e696e67206265747360881b6044820152606490fd5b60405162461bcd60e51b815260048101839052600f60248201526e105b1c9958591e4818db185a5b5959608a1b6044820152606490fd5b6064906040519062461bcd60e51b82526004820152601060248201526f111d595b081a5cc818d85b98d95b195960821b6044820152fd5b60405162461bcd60e51b8152600481018390526014602482015273111d595b081a5cc81b9bdd081c995cdbdb1d995960621b6044820152606490fd5b346103945760a0366003190112610394576004356001600160401b03811161039457612d539036906004016136b6565b6024356001600160401b03811161039457612d729036906004016136b6565b604435151560443503610394576064356001600160401b03811161039457612d9e90369060040161371b565b91612da76138dc565b612daf613d87565b610e10420180421161069b57612dc89060843511613bd0565b6301e13380420180421161069b57612de39060843510613c10565b612df7815180151590816122995750613c4f565b612e0b8251801515908161228d5750613c8b565b60005b60038110613218575060045492836000526011602052604060002082516001600160401b038111611eb557612e43825461377e565b601f81116131e6575b50806020601f821160011461318257600091613177575b508160011b916000199060031b1c19161781555b83516001600160401b038111611eb557612e94600183015461377e565b601f8111613142575b50806020601f82116001146130d1576000916130c6575b508160011b916000199060031b1c1916176001820155908492915b600381016000835b60038210612fa7575050506084356006820155600e0180546001600160a01b031916331790557f6e3a1184b10d42fd7cfa70094b21ecbd3bb215615fbb7ee4bfa7d1cd8b41c55a9190604435612f89575b612f3d60405192839233976084359285613d48565b0390a3604435612f58575b612f53600454613ae4565b600455005b7ff55821ceba42951b9aa03907b558e1375e504ced6c60bbdf3025384eb0d51318602060405160018152a280612f48565b83600052600e6020526040600020600160ff19825416179055612f28565b8091929394959650518051906001600160401b038211611eb557612fcb855461377e565b601f8111613094575b50602090601f8311600114613024579282600194936020938695600092613019575b5050600019600383901b1c191690841b1786555b01930191018795949392612ed7565b015190508d80612ff6565b908560005260206000209160005b601f198516811061307c575083602093600196938796938794601f19811610613063575b505050811b01865561300a565b015160001960f88460031b161c191690558d8080613056565b91926020600181928685015181550194019201613032565b6130c0908660005260206000206005601f8601811c82019260208710611eab57601f01901c0190613d31565b8a612fd4565b905085015187612eb4565b91506001830160005260206000206000925b601f198316841061312a576001935082601f19811610613111575b5050811b01600182015590849291612ecf565b87015160001960f88460031b161c1916905587806130fe565b878101518255602093840193600190920191016130e3565b61317190600184016000526020600020601f840160051c81019160208510611f7957601f0160051c0190613d31565b86612e9d565b905084015187612e63565b6000848152602081209250601f198416905b8181106131ce575090836001949392106131b5575b5050811b018155612e77565b86015160001960f88460031b161c1916905587806131a9565b9192602060018192868b015181550194019201613194565b61321290836000526020600020601f840160051c81019160208510611f7957601f0160051c0190613d31565b86612e4c565b806132266132389286613cca565b515115158061323d5761226890613cdb565b612e0e565b5061226860326122828388613cca565b3461039457600036600319011261039457600b546040516001600160a01b039091168152602090f35b34610394576020366003190112610394576004356132926138dc565b8060005260116020526040600020600781019081549060ff821615806133ad575b1561335c5760066132c8910154421015613f0c565b6132d183613af3565b6133075761ff0019166101001790557fbb08acbd04feafc2c9a5dbfba32cd5488e51d178ebb70f355c6e0b00cda5ef87600080a2005b60405162461bcd60e51b815260206004820152602760248201527f4475656c2069732062616c616e63656420616e642063616e6e6f742062652063604482015266185b98d95b195960ca1b6064820152608490fd5b60405162461bcd60e51b8152602060048201526024808201527f4475656c206973207265736f6c766564206f7220616c72656164792063616e63604482015263195b195960e21b6064820152608490fd5b5060ff8260081c16156132b3565b3461039457600036600319011261039457602060ff600954166040519015158152f35b34610394576133ec36613664565b336000526020906013825260ff604060002054168015613579575b61341090613ec0565b604051828101908482528260408201526040815261342d8161367a565b51902080600052601083526040600020541561353c578060005260108352604060002054421061350057907f147951699da2828eef91ad406d09ddd88be2fbc13c15b98c3228c3d80e6999ff929184600052601183528160086040600020600781016134a5815460ff81161590816134f25750613e63565b6134cb6127106134bc6009850154600354906139a8565b0480600a850155600754613bc3565b600755600160ff1982541617905501556000526010825260006040812055604051908152a2005b60ff9150851c16158b6105ea565b60405162461bcd60e51b8152600481018490526014602482015273151a5b595b1bd8dac81b9bdd08195e1c1a5c995960621b6044820152606490fd5b60405162461bcd60e51b81526004810184905260156024820152742737903832b73234b733903932b9b7b63aba34b7b760591b6044820152606490fd5b506000546001600160a01b03163314613407565b3461039457600036600319011261039457602060405160ff7f0000000000000000000000000000000000000000000000000000000000000000168152f35b346103945760403660031901126103945760406135f16135e961364e565b6004356139db565b82519182526020820152f35b34610394576020366003190112610394576020906001600160a01b03613621613638565b16600052600f825260ff6040600020541615158152f35b600435906001600160a01b038216820361039457565b602435906001600160a01b038216820361039457565b6040906003190112610394576004359060243590565b606081019081106001600160401b03821117611eb557604052565b90601f801991011681019081106001600160401b03821117611eb557604052565b81601f82011215610394578035906001600160401b038211611eb557604051926136ea601f8401601f191660200185613695565b8284526020838301011161039457816000926020809301838601378301015290565b60243590811515820361039457565b9080601f8301121561039457604051916137348361367a565b6060810190838383116103945781905b83821061375357505050505090565b81356001600160401b0381116103945760209161377387849387016136b6565b815201910190613744565b90600182811c921680156137ae575b602083101461379857565b634e487b7160e01b600052602260045260246000fd5b91607f169161378d565b90604051918260008254926137cc8461377e565b90818452600194858116908160001461383b57506001146137f8575b50506137f692500383613695565b565b9093915060005260209081600020936000915b8183106138235750506137f6935082010138806137e8565b8554888401850152948501948794509183019161380b565b9150506137f694506020925060ff191682840152151560051b82010138806137e8565b919082519283825260005b84811061388a575050826000602080949584010152601f8019910116010190565b602081830181015184830182015201613869565b60608201918060005b600381106138b6575050505090565b909192936138cc8185600193038552865161385e565b94602090810194930191016138a7565b6000546001600160a01b031633036138f057565b606460405162461bcd60e51b815260206004820152602060248201527f4f776e61626c653a2063616c6c6572206973206e6f7420746865206f776e65726044820152fd5b1561393b57565b60405162461bcd60e51b8152602060048201526012602482015271125b9d985b1a59081bdd5d18dbdb5948125160721b6044820152606490fd5b6003821015613985570190600090565b634e487b7160e01b600052603260045260246000fd5b9190820391821161069b57565b8181029291811591840414171561069b57565b81156139c5570490565b634e487b7160e01b600052601260045260246000fd5b909160009160009080825260116020526040822090600782015460ff811615908115613ad6575b50613acc5760088201549560018060a01b031691828452600f8101602052613a2d8760408620613975565b90549060031b1c968715613ac05790612a00613a526129e2613a5894600b8501613975565b896139a8565b95808710613ab8575b50825260126020526040822090825260205260408120546006541115613a845750565b9091506101f490818402918483041484151715613aa45750612710900490565b634e487b7160e01b81526011600452602490fd5b955038613a61565b50505050925090508190565b5050925090508190565b60ff915060081c1638613a02565b600019811461069b5760010190565b6000908152601160205260408120906009820154908115613bbd57928392600b01908390815b600380821015613b8557613b2d8286613975565b905490821b1c613b47575b50613b4290613ae4565b613b19565b92613b5190613ae4565b9287613b5d8387613975565b905490831b1c1115613b3857819750613b79613b429286613975565b9054911b1c9690613b38565b505094929150600211159283613b9c575b50505090565b90919250611f4080830292830403613aa45750612710900411388080613b96565b91505090565b9190820180921161069b57565b15613bd757565b60405162461bcd60e51b81526020600482015260116024820152702232b0b23634b732903a37b79039b7b7b760791b6044820152606490fd5b15613c1757565b60405162461bcd60e51b815260206004820152601060248201526f2232b0b23634b732903a37b7903330b960811b6044820152606490fd5b15613c5657565b60405162461bcd60e51b815260206004820152600d60248201526c496e76616c6964207469746c6560981b6044820152606490fd5b15613c9257565b60405162461bcd60e51b815260206004820152601060248201526f496e76616c69642063617465676f727960801b6044820152606490fd5b9060038110156139855760051b0190565b15613ce257565b60405162461bcd60e51b815260206004820152600f60248201526e496e76616c6964206f7574636f6d6560881b6044820152606490fd5b90816020910312610394575180151581036103945790565b818110613d3c575050565b60008155600101613d31565b949392613d74606093613d66613d829460808a5260808a019061385e565b9088820360208a015261385e565b90868203604088015261389e565b930152565b60ff60025416613d9357565b60405162461bcd60e51b815260206004820152601060248201526f14185d5cd8589b194e881c185d5cd95960821b6044820152606490fd5b600260015414613ddc576002600155565b60405162461bcd60e51b815260206004820152601f60248201527f5265656e7472616e637947756172643a207265656e7472616e742063616c6c006044820152606490fd5b15613e2857565b60405162461bcd60e51b8152602060048201526013602482015272111d595b08191bd95cc81b9bdd08195e1a5cdd606a1b6044820152606490fd5b15613e6a57565b60405162461bcd60e51b815260206004820152601c60248201527f4475656c206973207265736f6c766564206f722063616e63656c6564000000006044820152606490fd5b60ff16604d811161069b57600a0a90565b15613ec757565b60405162461bcd60e51b815260206004820152601960248201527f4e6f7420617574686f72697a656420746f207265736f6c7665000000000000006044820152606490fd5b15613f1357565b60405162461bcd60e51b8152602060048201526014602482015273111958591b1a5b99481b9bdd081c995858da195960621b6044820152606490fd5b15613f5657565b60405162461bcd60e51b815260206004820152602160248201527f436f6e74726163742068617320696e73756666696369656e742062616c616e636044820152606560f81b6064820152608490fd5b15613fac57565b60405162461bcd60e51b815260206004820152600f60248201526e496e76616c6964206164647265737360881b6044820152606490fdfea26469706673582212204e7dbf1aee6b30693e56b294fd4b4e1775edd1b8433376708331adb7800ac4ab64736f6c63430008140033","opcodes":"PUSH2 0x100 CALLVALUE PUSH3 0x281 JUMPI PUSH1 0x1F PUSH3 0x42DA CODESIZE DUP2 SWAP1 SUB SWAP2 DUP3 ADD PUSH1 0x1F NOT AND DUP4 ADD SWAP3 SWAP2 SWAP1 PUSH1 0x1 PUSH1 0x1 PUSH1 0x40 SHL SUB DUP5 GT DUP4 DUP6 LT OR PUSH3 0x286 JUMPI DUP2 PUSH1 0x80 SWAP3 DUP5 SWAP3 PUSH1 0x40 SWAP7 DUP8 MSTORE DUP4 CODECOPY DUP2 ADD SUB SLT PUSH3 0x281 JUMPI PUSH3 0x52 DUP2 PUSH3 0x29C JUMP JUMPDEST PUSH3 0x60 PUSH1 0x20 DUP4 ADD PUSH3 0x29C JUMP JUMPDEST SWAP2 PUSH3 0x7C PUSH1 0x60 PUSH3 0x74 DUP7 DUP5 ADD PUSH3 0x2B1 JUMP JUMPDEST SWAP3 ADD PUSH3 0x2B1 JUMP JUMPDEST PUSH1 0x0 DUP1 SLOAD CALLER PUSH1 0x1 PUSH1 0x1 PUSH1 0xA0 SHL SUB NOT DUP1 DUP4 AND DUP3 OR DUP5 SSTORE DUP9 MLOAD SWAP1 SWAP8 SWAP4 SWAP6 SWAP5 SWAP4 SWAP1 SWAP3 PUSH1 0x1 PUSH1 0x1 PUSH1 0xA0 SHL SUB SWAP3 SWAP1 DUP4 AND PUSH32 0x8BE0079C531659141344CD1FD0A4F28419497F9722A3DAAFE3B4186F6B6457E0 DUP9 DUP1 LOG3 PUSH1 0x1 DUP1 SSTORE DUP2 PUSH1 0xFF NOT SWAP8 DUP9 PUSH1 0x2 SLOAD AND PUSH1 0x2 SSTORE PUSH2 0x12C PUSH1 0x3 SSTORE PUSH1 0x14 PUSH1 0x5 SSTORE PUSH8 0x8AC7230489E80000 PUSH1 0x8 SSTORE PUSH1 0x1 DUP10 PUSH1 0x9 SLOAD AND OR PUSH1 0x9 SSTORE PUSH8 0x16345785D8A0000 PUSH1 0xC SSTORE AND SWAP3 DUP4 ISZERO PUSH3 0x23F JUMPI POP AND SWAP1 DUP2 ISZERO PUSH3 0x207 JUMPI PUSH1 0x80 MSTORE PUSH1 0xA0 MSTORE PUSH1 0xC0 DUP3 SWAP1 MSTORE PUSH1 0xE0 MSTORE PUSH1 0xFF AND PUSH1 0x4D DUP2 GT PUSH3 0x1F3 JUMPI PUSH1 0xA EXP DUP1 PUSH1 0x64 MUL SWAP1 PUSH1 0x64 DUP3 DIV SUB PUSH3 0x1F3 JUMPI PUSH1 0x1 SWAP2 DUP6 SWAP2 PUSH1 0x6 SSTORE CALLER DUP2 MSTORE PUSH1 0x13 PUSH1 0x20 MSTORE DUP2 DUP2 KECCAK256 DUP4 DUP6 DUP3 SLOAD AND OR SWAP1 SSTORE PUSH1 0xF PUSH1 0x20 MSTORE KECCAK256 SWAP2 DUP3 SLOAD AND OR SWAP1 SSTORE CALLER SWAP1 PUSH1 0xB SLOAD AND OR PUSH1 0xB SSTORE MLOAD PUSH2 0x4019 SWAP1 DUP2 PUSH3 0x2C1 DUP3 CODECOPY PUSH1 0x80 MLOAD DUP2 DUP2 DUP2 PUSH2 0x8BE ADD MSTORE DUP2 DUP2 PUSH2 0x1104 ADD MSTORE DUP2 DUP2 PUSH2 0x13C1 ADD MSTORE DUP2 DUP2 PUSH2 0x2026 ADD MSTORE DUP2 DUP2 PUSH2 0x2496 ADD MSTORE DUP2 DUP2 PUSH2 0x27A5 ADD MSTORE PUSH2 0x2A6C ADD MSTORE PUSH1 0xA0 MLOAD DUP2 DUP2 DUP2 PUSH2 0x9C4 ADD MSTORE DUP2 DUP2 PUSH2 0xB01 ADD MSTORE DUP2 DUP2 PUSH2 0xF95 ADD MSTORE PUSH2 0x1BA2 ADD MSTORE PUSH1 0xC0 MLOAD DUP2 PUSH2 0x194B ADD MSTORE PUSH1 0xE0 MLOAD DUP2 DUP2 DUP2 PUSH2 0x83A ADD MSTORE PUSH2 0x35A7 ADD MSTORE RETURN JUMPDEST PUSH4 0x4E487B71 PUSH1 0xE0 SHL DUP3 MSTORE PUSH1 0x11 PUSH1 0x4 MSTORE PUSH1 0x24 DUP3 REVERT JUMPDEST DUP8 MLOAD PUSH3 0x461BCD PUSH1 0xE5 SHL DUP2 MSTORE PUSH1 0x20 PUSH1 0x4 DUP3 ADD MSTORE PUSH1 0x11 PUSH1 0x24 DUP3 ADD MSTORE PUSH17 0x24B73B30B634B2103330B7103A37B5B2B7 PUSH1 0x79 SHL PUSH1 0x44 DUP3 ADD MSTORE PUSH1 0x64 SWAP1 REVERT JUMPDEST PUSH3 0x461BCD PUSH1 0xE5 SHL DUP2 MSTORE PUSH1 0x20 PUSH1 0x4 DUP3 ADD MSTORE PUSH1 0x15 PUSH1 0x24 DUP3 ADD MSTORE PUSH32 0x496E76616C69642062657474696E6720746F6B656E0000000000000000000000 PUSH1 0x44 DUP3 ADD MSTORE PUSH1 0x64 SWAP1 REVERT JUMPDEST PUSH1 0x0 DUP1 REVERT JUMPDEST PUSH4 0x4E487B71 PUSH1 0xE0 SHL PUSH1 0x0 MSTORE PUSH1 0x41 PUSH1 0x4 MSTORE PUSH1 0x24 PUSH1 0x0 REVERT JUMPDEST MLOAD SWAP1 PUSH1 0x1 PUSH1 0x1 PUSH1 0xA0 SHL SUB DUP3 AND DUP3 SUB PUSH3 0x281 JUMPI JUMP JUMPDEST MLOAD SWAP1 PUSH1 0xFF DUP3 AND DUP3 SUB PUSH3 0x281 JUMPI JUMP INVALID PUSH1 0x80 DUP1 PUSH1 0x40 MSTORE PUSH1 0x4 CALLDATASIZE LT ISZERO PUSH2 0x13 JUMPI PUSH1 0x0 DUP1 REVERT JUMPDEST PUSH1 0x0 CALLDATALOAD PUSH1 0xE0 SHR SWAP1 DUP2 PUSH4 0x14D0F1BA EQ PUSH2 0x35FD JUMPI POP DUP1 PUSH4 0x1713ECBC EQ PUSH2 0x35CB JUMPI DUP1 PUSH4 0x19AB9BD8 EQ PUSH2 0x358D JUMPI DUP1 PUSH4 0x1F528480 EQ PUSH2 0x33DE JUMPI DUP1 PUSH4 0x20D8CBD0 EQ PUSH2 0x33BB JUMPI DUP1 PUSH4 0x253E35FC EQ PUSH2 0x3276 JUMPI DUP1 PUSH4 0x29CF655B EQ PUSH2 0x278F JUMPI DUP1 PUSH4 0x2F0C45FD EQ PUSH2 0x324D JUMPI DUP1 PUSH4 0x36DC9EC6 EQ PUSH2 0x2D23 JUMPI DUP1 PUSH4 0x3809AE17 EQ PUSH2 0x292D JUMPI DUP1 PUSH4 0x3EE2B01D EQ PUSH2 0x2868 JUMPI DUP1 PUSH4 0x3F4BA83A EQ PUSH2 0x27D4 JUMPI DUP1 PUSH4 0x43425E88 EQ PUSH2 0x278F JUMPI DUP1 PUSH4 0x4692C962 EQ PUSH2 0x274C JUMPI DUP1 PUSH4 0x4952CE76 EQ PUSH2 0x272E JUMPI DUP1 PUSH4 0x4C9C3F85 EQ PUSH2 0x17C0 JUMPI DUP1 PUSH4 0x4D6D50C5 EQ PUSH2 0x26E2 JUMPI DUP1 PUSH4 0x4E15AA67 EQ PUSH2 0x26A4 JUMPI DUP1 PUSH4 0x549EC614 EQ PUSH2 0x2686 JUMPI DUP1 PUSH4 0x5B7BAF64 EQ PUSH2 0x23D5 JUMPI DUP1 PUSH4 0x5C975ABB EQ PUSH2 0x23B2 JUMPI DUP1 PUSH4 0x5FE6C08D EQ PUSH2 0x2325 JUMPI DUP1 PUSH4 0x67D81740 EQ PUSH2 0x2308 JUMPI DUP1 PUSH4 0x698A4957 EQ PUSH2 0x22EA JUMPI DUP1 PUSH4 0x6FCB48A5 EQ PUSH2 0x1A86 JUMPI DUP1 PUSH4 0x715018A6 EQ PUSH2 0x1A2D JUMPI DUP1 PUSH4 0x74C94BB9 EQ PUSH2 0x19E5 JUMPI DUP1 PUSH4 0x75DAA3DE EQ PUSH2 0xF7F JUMPI DUP1 PUSH4 0x7689279C EQ PUSH2 0x19C4 JUMPI DUP1 PUSH4 0x779DB8AA EQ PUSH2 0x19A8 JUMPI DUP1 PUSH4 0x79E92D25 EQ PUSH2 0x196F JUMPI DUP1 PUSH4 0x7E06A617 EQ PUSH2 0x1931 JUMPI DUP1 PUSH4 0x8456CB59 EQ PUSH2 0x18D7 JUMPI DUP1 PUSH4 0x859A62D0 EQ PUSH2 0x1806 JUMPI DUP1 PUSH4 0x8931ECD0 EQ PUSH2 0x17DE JUMPI DUP1 PUSH4 0x8C639A85 EQ PUSH2 0x17C0 JUMPI DUP1 PUSH4 0x8DA5CB5B EQ PUSH2 0x1797 JUMPI DUP1 PUSH4 0x9B0D1036 EQ PUSH2 0xEE7 JUMPI DUP1 PUSH4 0xA08E25B4 EQ PUSH2 0x15C7 JUMPI DUP1 PUSH4 0xA24A27BC EQ PUSH2 0x159B JUMPI DUP1 PUSH4 0xA24AA6E0 EQ PUSH2 0x156A JUMPI DUP1 PUSH4 0xAD3B1B47 EQ PUSH2 0x135F JUMPI DUP1 PUSH4 0xAE5FD784 EQ PUSH2 0x1341 JUMPI DUP1 PUSH4 0xAEEFE31F EQ PUSH2 0x399 JUMPI DUP1 PUSH4 0xAF6F4BCE EQ PUSH2 0x11F7 JUMPI DUP1 PUSH4 0xBA263A0A EQ PUSH2 0x1059 JUMPI DUP1 PUSH4 0xBA973E44 EQ PUSH2 0x103B JUMPI DUP1 PUSH4 0xC50809D3 EQ PUSH2 0xFC4 JUMPI DUP1 PUSH4 0xC8D5BA80 EQ PUSH2 0xF7F JUMPI DUP1 PUSH4 0xCAB230D2 EQ PUSH2 0xF21 JUMPI DUP1 PUSH4 0xCF2DA5F3 EQ PUSH2 0xEE7 JUMPI DUP1 PUSH4 0xD794D2D9 EQ PUSH2 0xEA8 JUMPI DUP1 PUSH4 0xD860455B EQ PUSH2 0xE8C JUMPI DUP1 PUSH4 0xDADAD0F3 EQ PUSH2 0xE6B JUMPI DUP1 PUSH4 0xDAF19F2B EQ PUSH2 0xE4D JUMPI DUP1 PUSH4 0xDE2F6A4F EQ PUSH2 0xD88 JUMPI DUP1 PUSH4 0xE63EA408 EQ PUSH2 0xCE2 JUMPI DUP1 PUSH4 0xE71C9697 EQ PUSH2 0x7B8 JUMPI DUP1 PUSH4 0xEAC74039 EQ PUSH2 0x79A JUMPI DUP1 PUSH4 0xED798FEC EQ PUSH2 0x597 JUMPI DUP1 PUSH4 0xEDC68720 EQ PUSH2 0x579 JUMPI DUP1 PUSH4 0xF2FDE38B EQ PUSH2 0x4C4 JUMPI DUP1 PUSH4 0xF4365752 EQ PUSH2 0x3D3 JUMPI DUP1 PUSH4 0xF50DDBC7 EQ PUSH2 0x399 JUMPI PUSH4 0xFA744DD3 EQ PUSH2 0x2EA JUMPI PUSH1 0x0 DUP1 REVERT JUMPDEST CALLVALUE PUSH2 0x394 JUMPI PUSH1 0x40 CALLDATASIZE PUSH1 0x3 NOT ADD SLT PUSH2 0x394 JUMPI PUSH1 0x4 CALLDATALOAD PUSH2 0x306 PUSH2 0x364E JUMP JUMPDEST PUSH1 0x60 PUSH1 0x40 MLOAD PUSH2 0x314 DUP2 PUSH2 0x367A JUMP JUMPDEST CALLDATASIZE SWAP1 CALLDATACOPY PUSH1 0x40 MLOAD SWAP2 PUSH2 0x324 DUP4 PUSH2 0x367A JUMP JUMPDEST PUSH1 0x0 SWAP1 DUP2 MSTORE PUSH1 0x11 PUSH1 0x20 SWAP1 DUP2 MSTORE PUSH1 0x40 DUP1 DUP4 KECCAK256 PUSH1 0x1 PUSH1 0x1 PUSH1 0xA0 SHL SUB SWAP1 SWAP5 AND DUP1 DUP5 MSTORE PUSH1 0xF SWAP5 SWAP1 SWAP5 ADD DUP1 DUP4 MSTORE DUP2 DUP5 KECCAK256 DUP1 SLOAD DUP8 MSTORE PUSH1 0x1 DUP2 DUP2 ADD SLOAD DUP9 DUP7 ADD MSTORE SWAP6 DUP6 MSTORE SWAP1 DUP4 MSTORE PUSH1 0x2 ADD SLOAD DUP6 DUP3 ADD MSTORE MLOAD SWAP2 SWAP4 SWAP2 SWAP3 SWAP2 SWAP1 DUP4 JUMPDEST PUSH1 0x3 DUP7 LT PUSH2 0x381 JUMPI PUSH1 0x60 DUP6 RETURN JUMPDEST DUP3 MLOAD DUP2 MSTORE SWAP5 DUP4 ADD SWAP5 SWAP2 DUP2 ADD SWAP2 DUP2 ADD PUSH2 0x374 JUMP JUMPDEST PUSH1 0x0 DUP1 REVERT JUMPDEST CALLVALUE PUSH2 0x394 JUMPI PUSH1 0x20 CALLDATASIZE PUSH1 0x3 NOT ADD SLT PUSH2 0x394 JUMPI PUSH1 0x1 PUSH1 0x1 PUSH1 0xA0 SHL SUB PUSH2 0x3BA PUSH2 0x3638 JUMP JUMPDEST AND PUSH1 0x0 MSTORE PUSH1 0xD PUSH1 0x20 MSTORE PUSH1 0x20 PUSH1 0x40 PUSH1 0x0 KECCAK256 SLOAD PUSH1 0x40 MLOAD SWAP1 DUP2 MSTORE RETURN JUMPDEST CALLVALUE PUSH2 0x394 JUMPI PUSH1 0x40 CALLDATASIZE PUSH1 0x3 NOT ADD SLT PUSH2 0x394 JUMPI PUSH1 0x4 CALLDATALOAD PUSH2 0x3EF PUSH2 0x370C JUMP JUMPDEST CALLER PUSH1 0x0 MSTORE PUSH1 0xF PUSH1 0x20 MSTORE PUSH1 0xFF PUSH1 0x40 PUSH1 0x0 KECCAK256 SLOAD AND DUP1 ISZERO PUSH2 0x4B0 JUMPI JUMPDEST ISZERO PUSH2 0x46B JUMPI PUSH1 0x20 PUSH32 0xF55821CEBA42951B9AA03907B558E1375E504CED6C60BBDF3025384EB0D51318 SWAP2 PUSH2 0x43E PUSH1 0x4 SLOAD DUP6 LT PUSH2 0x3E21 JUMP JUMPDEST DUP4 PUSH1 0x0 MSTORE PUSH1 0xE DUP3 MSTORE PUSH2 0x460 DUP2 PUSH1 0x40 PUSH1 0x0 KECCAK256 SWAP1 PUSH1 0xFF DUP1 NOT DUP4 SLOAD AND SWAP2 ISZERO ISZERO AND OR SWAP1 SSTORE JUMP JUMPDEST PUSH1 0x40 MLOAD SWAP1 ISZERO ISZERO DUP2 MSTORE LOG2 STOP JUMPDEST PUSH1 0x40 MLOAD PUSH3 0x461BCD PUSH1 0xE5 SHL DUP2 MSTORE PUSH1 0x20 PUSH1 0x4 DUP3 ADD MSTORE PUSH1 0x18 PUSH1 0x24 DUP3 ADD MSTORE PUSH32 0x4E6F7420617574686F72697A6564206D6F64657261746F720000000000000000 PUSH1 0x44 DUP3 ADD MSTORE PUSH1 0x64 SWAP1 REVERT JUMPDEST POP PUSH1 0x0 SLOAD PUSH1 0x1 PUSH1 0x1 PUSH1 0xA0 SHL SUB AND CALLER EQ PUSH2 0x408 JUMP JUMPDEST CALLVALUE PUSH2 0x394 JUMPI PUSH1 0x20 CALLDATASIZE PUSH1 0x3 NOT ADD SLT PUSH2 0x394 JUMPI PUSH2 0x4DD PUSH2 0x3638 JUMP JUMPDEST PUSH2 0x4E5 PUSH2 0x38DC JUMP JUMPDEST PUSH1 0x1 PUSH1 0x1 PUSH1 0xA0 SHL SUB SWAP1 DUP2 AND SWAP1 DUP2 ISZERO PUSH2 0x534 JUMPI PUSH1 0x0 SLOAD DUP3 PUSH1 0x1 PUSH1 0x1 PUSH1 0x60 SHL SUB PUSH1 0xA0 SHL DUP3 AND OR PUSH1 0x0 SSTORE AND PUSH32 0x8BE0079C531659141344CD1FD0A4F28419497F9722A3DAAFE3B4186F6B6457E0 PUSH1 0x0 DUP1 LOG3 STOP JUMPDEST PUSH1 0x40 MLOAD PUSH3 0x461BCD PUSH1 0xE5 SHL DUP2 MSTORE PUSH1 0x20 PUSH1 0x4 DUP3 ADD MSTORE PUSH1 0x1D PUSH1 0x24 DUP3 ADD MSTORE PUSH32 0x4E6577206F776E657220697320746865207A65726F2061646472657373000000 PUSH1 0x44 DUP3 ADD MSTORE PUSH1 0x64 SWAP1 REVERT JUMPDEST CALLVALUE PUSH2 0x394 JUMPI PUSH1 0x0 CALLDATASIZE PUSH1 0x3 NOT ADD SLT PUSH2 0x394 JUMPI PUSH1 0x20 PUSH1 0xC SLOAD PUSH1 0x40 MLOAD SWAP1 DUP2 MSTORE RETURN JUMPDEST CALLVALUE PUSH2 0x394 JUMPI PUSH2 0x5A5 CALLDATASIZE PUSH2 0x3664 JUMP JUMPDEST CALLER PUSH1 0x0 MSTORE PUSH1 0x20 SWAP1 PUSH1 0x13 DUP3 MSTORE PUSH1 0xFF PUSH1 0x40 PUSH1 0x0 KECCAK256 SLOAD AND DUP1 ISZERO PUSH2 0x786 JUMPI JUMPDEST PUSH2 0x5C9 SWAP1 PUSH2 0x3EC0 JUMP JUMPDEST DUP3 PUSH1 0x0 MSTORE PUSH1 0x11 DUP3 MSTORE PUSH1 0x40 PUSH1 0x0 KECCAK256 PUSH2 0x5F0 PUSH1 0x7 DUP3 ADD SLOAD PUSH1 0xFF DUP2 AND ISZERO SWAP1 DUP2 PUSH2 0x777 JUMPI JUMPDEST POP PUSH2 0x3E63 JUMP JUMPDEST PUSH1 0x3 DUP3 LT ISZERO PUSH2 0x732 JUMPI DUP2 PUSH1 0xB DUP3 PUSH2 0x610 PUSH1 0x6 PUSH2 0x616 SWAP6 ADD SLOAD TIMESTAMP LT ISZERO PUSH2 0x3F0C JUMP JUMPDEST ADD PUSH2 0x3975 JUMP JUMPDEST SWAP1 SLOAD SWAP1 PUSH1 0x3 SHL SHR ISZERO PUSH2 0x6ED JUMPI PUSH2 0x62B DUP4 PUSH2 0x3AF3 JUMP JUMPDEST ISZERO PUSH2 0x6B1 JUMPI PUSH1 0x40 MLOAD DUP3 DUP2 ADD SWAP1 DUP5 DUP3 MSTORE DUP3 PUSH1 0x40 DUP3 ADD MSTORE PUSH1 0x40 DUP2 MSTORE PUSH2 0x64D DUP2 PUSH2 0x367A JUMP JUMPDEST MLOAD SWAP1 KECCAK256 SWAP1 PUSH3 0x15180 TIMESTAMP ADD DUP1 TIMESTAMP GT PUSH2 0x69B JUMPI PUSH32 0xCC684BA03C326954C633140F1FC4EAD5ADB1243A9675FEF4BBE39F56E8463158 SWAP4 PUSH1 0x40 SWAP4 PUSH1 0x0 MSTORE PUSH1 0x10 DUP2 MSTORE DUP2 DUP5 PUSH1 0x0 KECCAK256 SSTORE DUP4 MLOAD SWAP3 DUP4 MSTORE DUP3 ADD MSTORE LOG2 STOP JUMPDEST PUSH4 0x4E487B71 PUSH1 0xE0 SHL PUSH1 0x0 MSTORE PUSH1 0x11 PUSH1 0x4 MSTORE PUSH1 0x24 PUSH1 0x0 REVERT JUMPDEST PUSH1 0x40 MLOAD PUSH3 0x461BCD PUSH1 0xE5 SHL DUP2 MSTORE PUSH1 0x4 DUP2 ADD DUP4 SWAP1 MSTORE PUSH1 0x14 PUSH1 0x24 DUP3 ADD MSTORE PUSH20 0x111D595B081A5CC81B9BDD0818985B185B98D959 PUSH1 0x62 SHL PUSH1 0x44 DUP3 ADD MSTORE PUSH1 0x64 SWAP1 REVERT JUMPDEST PUSH1 0x40 MLOAD PUSH3 0x461BCD PUSH1 0xE5 SHL DUP2 MSTORE PUSH1 0x4 DUP2 ADD DUP4 SWAP1 MSTORE PUSH1 0x1A PUSH1 0x24 DUP3 ADD MSTORE PUSH32 0x4E6F2062657473206F6E2077696E6E696E67206F7574636F6D65000000000000 PUSH1 0x44 DUP3 ADD MSTORE PUSH1 0x64 SWAP1 REVERT JUMPDEST PUSH1 0x40 MLOAD PUSH3 0x461BCD PUSH1 0xE5 SHL DUP2 MSTORE PUSH1 0x4 DUP2 ADD DUP5 SWAP1 MSTORE PUSH1 0x17 PUSH1 0x24 DUP3 ADD MSTORE PUSH32 0x496E76616C69642077696E6E696E67206F7574636F6D65000000000000000000 PUSH1 0x44 DUP3 ADD MSTORE PUSH1 0x64 SWAP1 REVERT JUMPDEST PUSH1 0xFF SWAP2 POP PUSH1 0x8 SHR AND ISZERO DUP7 PUSH2 0x5EA JUMP JUMPDEST POP PUSH1 0x0 SLOAD PUSH1 0x1 PUSH1 0x1 PUSH1 0xA0 SHL SUB AND CALLER EQ PUSH2 0x5C0 JUMP JUMPDEST CALLVALUE PUSH2 0x394 JUMPI PUSH1 0x0 CALLDATASIZE PUSH1 0x3 NOT ADD SLT PUSH2 0x394 JUMPI PUSH1 0x20 PUSH1 0x40 MLOAD PUSH3 0x278D00 DUP2 MSTORE RETURN JUMPDEST CALLVALUE PUSH2 0x394 JUMPI PUSH1 0x60 CALLDATASIZE PUSH1 0x3 NOT ADD SLT PUSH2 0x394 JUMPI PUSH1 0x4 CALLDATALOAD PUSH1 0x24 PUSH1 0x44 CALLDATALOAD DUP2 CALLDATALOAD PUSH2 0x7DB PUSH2 0x3DCB JUMP JUMPDEST PUSH2 0x7E3 PUSH2 0x3D87 JUMP JUMPDEST DUP4 PUSH1 0x0 MSTORE PUSH1 0x20 SWAP3 PUSH1 0x11 DUP5 MSTORE PUSH1 0x40 PUSH1 0x0 KECCAK256 SWAP3 PUSH2 0x801 PUSH1 0x4 SLOAD DUP8 LT PUSH2 0x3E21 JUMP JUMPDEST PUSH2 0x81A PUSH1 0x7 DUP6 ADD SLOAD PUSH1 0xFF DUP2 AND ISZERO SWAP1 DUP2 PUSH2 0xCD3 JUMPI POP PUSH2 0x3E63 JUMP JUMPDEST PUSH1 0x6 DUP5 ADD SLOAD TIMESTAMP LT ISZERO PUSH2 0xC8F JUMPI PUSH2 0x832 PUSH1 0x3 DUP5 LT PUSH2 0x3934 JUMP JUMPDEST DUP1 ISZERO PUSH2 0xC4B JUMPI PUSH32 0x0 PUSH2 0x862 DUP2 PUSH2 0x3EAF JUMP JUMPDEST PUSH2 0x86B DUP3 PUSH2 0x3EAF JUMP JUMPDEST SWAP1 PUSH2 0x2710 SWAP2 DUP1 DUP4 MUL SWAP3 DUP4 DIV SUB PUSH2 0xC36 JUMPI DUP4 LT ISZERO SWAP1 DUP2 PUSH2 0xC2B JUMPI JUMPDEST POP ISZERO PUSH2 0xBF0 JUMPI PUSH1 0x40 MLOAD PUSH4 0x23B872DD PUSH1 0xE0 SHL DUP2 MSTORE CALLER PUSH1 0x4 DUP3 ADD MSTORE ADDRESS PUSH1 0x24 DUP3 ADD MSTORE PUSH1 0x44 DUP2 ADD DUP4 SWAP1 MSTORE PUSH1 0x1 PUSH1 0x1 PUSH1 0xA0 SHL SUB SWAP6 SWAP1 DUP8 DUP2 PUSH1 0x64 DUP2 PUSH1 0x0 PUSH32 0x0 DUP13 AND GAS CALL SWAP1 DUP2 ISZERO PUSH2 0xADA JUMPI PUSH1 0x0 SWAP2 PUSH2 0xBC3 JUMPI JUMPDEST POP ISZERO PUSH2 0xB87 JUMPI SWAP1 DUP7 SWAP2 DUP9 PUSH1 0x0 MSTORE PUSH1 0x12 DUP4 MSTORE PUSH1 0x40 PUSH1 0x0 KECCAK256 CALLER PUSH1 0x0 MSTORE DUP4 MSTORE PUSH1 0x40 PUSH1 0x0 KECCAK256 SLOAD ISZERO PUSH2 0xAE6 JUMPI JUMPDEST SWAP1 PUSH1 0xF DUP3 PUSH1 0x9 PUSH2 0x9AA SWAP5 ADD PUSH2 0x92E DUP8 DUP3 SLOAD PUSH2 0x3BC3 JUMP JUMPDEST SWAP1 SSTORE PUSH2 0x967 PUSH2 0x940 DUP10 PUSH1 0xB DUP5 ADD PUSH2 0x3975 JUMP JUMPDEST PUSH2 0x950 DUP10 DUP4 SLOAD DUP4 PUSH1 0x3 SHL SHR PUSH2 0x3BC3 JUMP JUMPDEST DUP3 SLOAD PUSH1 0x0 NOT PUSH1 0x3 SWAP4 SWAP1 SWAP4 SHL SWAP3 DUP4 SHL NOT AND SWAP2 SHL OR SWAP1 SSTORE JUMP JUMPDEST CALLER PUSH1 0x0 MSTORE ADD DUP4 MSTORE PUSH2 0x98F PUSH2 0x97F DUP8 PUSH1 0x40 PUSH1 0x0 KECCAK256 PUSH2 0x3975 JUMP JUMPDEST PUSH2 0x950 DUP8 DUP4 SLOAD DUP4 PUSH1 0x3 SHL SHR PUSH2 0x3BC3 JUMP JUMPDEST PUSH2 0x9A4 PUSH2 0x99E PUSH1 0x5 SLOAD DUP7 PUSH2 0x39A8 JUMP JUMPDEST SWAP2 PUSH2 0x3EAF JUMP JUMPDEST SWAP1 PUSH2 0x39BB JUMP JUMPDEST SWAP5 PUSH1 0x40 MLOAD SWAP4 DUP5 DUP1 SWAP3 PUSH4 0x70A08231 PUSH1 0xE0 SHL DUP3 MSTORE CALLER PUSH1 0x4 DUP4 ADD MSTORE PUSH32 0x0 AND GAS STATICCALL SWAP2 DUP3 ISZERO PUSH2 0xADA JUMPI PUSH1 0x0 SWAP3 PUSH2 0xAAB JUMPI JUMPDEST POP PUSH1 0x40 MLOAD SWAP3 DUP4 MSTORE DUP5 DUP4 ADD MSTORE PUSH1 0x40 DUP3 ADD MSTORE DUP4 PUSH32 0xAB2115BAC1DE808EB7FE2BE0309085B11F1F42B1EB980DE8352EFEFDBFC098E2 PUSH1 0x60 CALLER SWAP4 LOG3 PUSH1 0x40 MLOAD SWAP1 DUP4 DUP3 MSTORE DUP3 DUP3 ADD MSTORE PUSH32 0x4B97A5E5E9B332836EEA24E70B760C1FFCE3041C0EB15309837D180F8BFFF26A PUSH1 0x40 CALLER SWAP3 LOG2 DUP2 PUSH1 0x0 MSTORE PUSH1 0xE DUP2 MSTORE PUSH1 0xFF PUSH1 0x40 PUSH1 0x0 KECCAK256 SLOAD AND PUSH2 0xA79 JUMPI JUMPDEST PUSH1 0x1 DUP1 SSTORE STOP JUMPDEST PUSH32 0xC7CEF681EE4E9B064E67DCB5D564E1378AE41C9E65DA8E232B1F5CD866225325 SWAP1 PUSH1 0x40 MLOAD SWAP3 DUP4 MSTORE CALLER SWAP3 LOG2 DUP1 DUP1 PUSH2 0xA73 JUMP JUMPDEST SWAP1 SWAP2 POP DUP5 DUP2 DUP2 RETURNDATASIZE DUP4 GT PUSH2 0xAD3 JUMPI JUMPDEST PUSH2 0xAC3 DUP2 DUP4 PUSH2 0x3695 JUMP JUMPDEST DUP2 ADD SUB SLT PUSH2 0x394 JUMPI MLOAD SWAP1 DUP7 PUSH2 0x9F5 JUMP JUMPDEST POP RETURNDATASIZE PUSH2 0xAB9 JUMP JUMPDEST PUSH1 0x40 MLOAD RETURNDATASIZE PUSH1 0x0 DUP3 RETURNDATACOPY RETURNDATASIZE SWAP1 REVERT JUMPDEST PUSH1 0x40 MLOAD PUSH4 0x70A08231 PUSH1 0xE0 SHL DUP2 MSTORE CALLER PUSH1 0x4 DUP3 ADD MSTORE SWAP3 POP DUP8 DUP4 DUP7 DUP2 PUSH32 0x0 DUP12 AND GAS STATICCALL DUP1 ISZERO PUSH2 0xADA JUMPI DUP9 SWAP4 PUSH1 0x0 SWAP2 PUSH2 0xB50 JUMPI JUMPDEST POP PUSH1 0x0 DUP11 DUP2 MSTORE PUSH1 0x12 DUP6 MSTORE PUSH1 0x40 DUP1 DUP3 KECCAK256 CALLER DUP4 MSTORE DUP7 MSTORE SWAP1 KECCAK256 SSTORE PUSH2 0x918 JUMP JUMPDEST DUP5 DUP2 SWAP6 SWAP3 POP SWAP4 SWAP3 SWAP4 RETURNDATASIZE DUP4 GT PUSH2 0xB80 JUMPI JUMPDEST PUSH2 0xB6A DUP2 DUP4 PUSH2 0x3695 JUMP JUMPDEST DUP2 ADD SUB SLT PUSH2 0x394 JUMPI SWAP2 MLOAD DUP8 SWAP3 SWAP2 SWAP1 PUSH2 0x9AA PUSH2 0xB34 JUMP JUMPDEST POP RETURNDATASIZE PUSH2 0xB60 JUMP JUMPDEST PUSH1 0x40 MLOAD PUSH3 0x461BCD PUSH1 0xE5 SHL DUP2 MSTORE PUSH1 0x4 DUP2 ADD DUP9 SWAP1 MSTORE PUSH1 0x15 DUP2 DUP7 ADD MSTORE PUSH21 0x151BDAD95B881D1C985B9CD9995C8819985A5B1959 PUSH1 0x5A SHL PUSH1 0x44 DUP3 ADD MSTORE PUSH1 0x64 SWAP1 REVERT JUMPDEST PUSH2 0xBE3 SWAP2 POP DUP9 RETURNDATASIZE DUP11 GT PUSH2 0xBE9 JUMPI JUMPDEST PUSH2 0xBDB DUP2 DUP4 PUSH2 0x3695 JUMP JUMPDEST DUP2 ADD SWAP1 PUSH2 0x3D19 JUMP JUMPDEST DUP10 PUSH2 0x8F0 JUMP JUMPDEST POP RETURNDATASIZE PUSH2 0xBD1 JUMP JUMPDEST PUSH1 0x40 MLOAD PUSH3 0x461BCD PUSH1 0xE5 SHL DUP2 MSTORE PUSH1 0x4 DUP2 ADD DUP8 SWAP1 MSTORE PUSH1 0x14 DUP2 DUP6 ADD MSTORE PUSH20 0x416D6F756E74206F7574206F6620626F756E6473 PUSH1 0x60 SHL PUSH1 0x44 DUP3 ADD MSTORE PUSH1 0x64 SWAP1 REVERT JUMPDEST SWAP1 POP DUP3 GT ISZERO DUP9 PUSH2 0x885 JUMP JUMPDEST DUP5 PUSH4 0x4E487B71 PUSH1 0xE0 SHL PUSH1 0x0 MSTORE PUSH1 0x11 PUSH1 0x4 MSTORE PUSH1 0x0 REVERT JUMPDEST PUSH1 0x40 MLOAD PUSH3 0x461BCD PUSH1 0xE5 SHL DUP2 MSTORE PUSH1 0x4 DUP2 ADD DUP7 SWAP1 MSTORE PUSH1 0x17 DUP2 DUP5 ADD MSTORE PUSH32 0x416D6F756E74206D75737420626520706F736974697665000000000000000000 PUSH1 0x44 DUP3 ADD MSTORE PUSH1 0x64 SWAP1 REVERT JUMPDEST PUSH1 0x40 MLOAD PUSH3 0x461BCD PUSH1 0xE5 SHL DUP2 MSTORE PUSH1 0x4 DUP2 ADD DUP7 SWAP1 MSTORE PUSH1 0x1B DUP2 DUP5 ADD MSTORE PUSH32 0x42657474696E6720646561646C696E6520686173207061737365640000000000 PUSH1 0x44 DUP3 ADD MSTORE PUSH1 0x64 SWAP1 REVERT JUMPDEST PUSH1 0xFF SWAP2 POP PUSH1 0x8 SHR AND ISZERO DUP9 PUSH2 0x5EA JUMP JUMPDEST CALLVALUE PUSH2 0x394 JUMPI PUSH1 0x60 CALLDATASIZE PUSH1 0x3 NOT ADD SLT PUSH2 0x394 JUMPI PUSH2 0xCFB PUSH2 0x3638 JUMP JUMPDEST PUSH1 0x20 PUSH2 0xD5E PUSH2 0xD08 PUSH2 0x364E JUMP JUMPDEST SWAP3 PUSH2 0xD11 PUSH2 0x38DC JUMP JUMPDEST PUSH1 0x1 PUSH1 0x1 PUSH1 0xA0 SHL SUB SWAP4 PUSH2 0xD27 DUP2 DUP7 AND ISZERO ISZERO PUSH2 0x3FA5 JUMP JUMPDEST PUSH1 0x40 MLOAD PUSH4 0xA9059CBB PUSH1 0xE0 SHL DUP2 MSTORE PUSH1 0x1 PUSH1 0x1 PUSH1 0xA0 SHL SUB SWAP1 SWAP2 AND PUSH1 0x4 DUP3 ADD MSTORE PUSH1 0x44 DUP1 CALLDATALOAD PUSH1 0x24 DUP4 ADD MSTORE SWAP1 SWAP5 DUP6 SWAP4 DUP5 SWAP3 PUSH1 0x0 SWAP3 SWAP2 DUP5 SWAP2 DUP3 ADD SWAP1 JUMP JUMPDEST SUB SWAP4 AND GAS CALL DUP1 ISZERO PUSH2 0xADA JUMPI PUSH2 0xD6F JUMPI STOP JUMPDEST PUSH2 0xD86 SWAP1 PUSH1 0x20 RETURNDATASIZE DUP2 GT PUSH2 0xBE9 JUMPI PUSH2 0xBDB DUP2 DUP4 PUSH2 0x3695 JUMP JUMPDEST STOP JUMPDEST CALLVALUE PUSH2 0x394 JUMPI PUSH1 0x40 CALLDATASIZE PUSH1 0x3 NOT ADD SLT PUSH2 0x394 JUMPI PUSH2 0xDA1 PUSH2 0x3638 JUMP JUMPDEST PUSH2 0xDA9 PUSH2 0x370C JUMP JUMPDEST SWAP1 PUSH2 0xDB2 PUSH2 0x38DC JUMP JUMPDEST PUSH1 0x1 PUSH1 0x1 PUSH1 0xA0 SHL SUB AND SWAP1 DUP2 ISZERO PUSH2 0xE08 JUMPI PUSH1 0x20 PUSH32 0x287574CF078FB59442FA4E01830412374E9C38FF02733F8D1E2AFC3F2325EB48 SWAP2 DUP4 PUSH1 0x0 MSTORE PUSH1 0x13 DUP3 MSTORE PUSH2 0x460 DUP2 PUSH1 0x40 PUSH1 0x0 KECCAK256 SWAP1 PUSH1 0xFF DUP1 NOT DUP4 SLOAD AND SWAP2 ISZERO ISZERO AND OR SWAP1 SSTORE JUMP JUMPDEST PUSH1 0x40 MLOAD PUSH3 0x461BCD PUSH1 0xE5 SHL DUP2 MSTORE PUSH1 0x20 PUSH1 0x4 DUP3 ADD MSTORE PUSH1 0x18 PUSH1 0x24 DUP3 ADD MSTORE PUSH32 0x496E76616C6964207265736F6C76657220616464726573730000000000000000 PUSH1 0x44 DUP3 ADD MSTORE PUSH1 0x64 SWAP1 REVERT JUMPDEST CALLVALUE PUSH2 0x394 JUMPI PUSH1 0x0 CALLDATASIZE PUSH1 0x3 NOT ADD SLT PUSH2 0x394 JUMPI PUSH1 0x20 PUSH1 0x5 SLOAD PUSH1 0x40 MLOAD SWAP1 DUP2 MSTORE RETURN JUMPDEST CALLVALUE PUSH2 0x394 JUMPI PUSH1 0x20 CALLDATASIZE PUSH1 0x3 NOT ADD SLT PUSH2 0x394 JUMPI PUSH2 0xE84 PUSH2 0x38DC JUMP JUMPDEST PUSH1 0x4 CALLDATALOAD PUSH1 0x6 SSTORE STOP JUMPDEST CALLVALUE PUSH2 0x394 JUMPI PUSH1 0x0 CALLDATASIZE PUSH1 0x3 NOT ADD SLT PUSH2 0x394 JUMPI PUSH1 0x20 PUSH1 0x40 MLOAD PUSH1 0x64 DUP2 MSTORE RETURN JUMPDEST CALLVALUE PUSH2 0x394 JUMPI PUSH1 0x20 CALLDATASIZE PUSH1 0x3 NOT ADD SLT PUSH2 0x394 JUMPI PUSH1 0x1 PUSH1 0x1 PUSH1 0xA0 SHL SUB PUSH2 0xEC9 PUSH2 0x3638 JUMP JUMPDEST AND PUSH1 0x0 MSTORE PUSH1 0x13 PUSH1 0x20 MSTORE PUSH1 0x20 PUSH1 0xFF PUSH1 0x40 PUSH1 0x0 KECCAK256 SLOAD AND PUSH1 0x40 MLOAD SWAP1 ISZERO ISZERO DUP2 MSTORE RETURN JUMPDEST CALLVALUE PUSH2 0x394 JUMPI PUSH1 0x20 CALLDATASIZE PUSH1 0x3 NOT ADD SLT PUSH2 0x394 JUMPI PUSH1 0x1 PUSH1 0x1 PUSH1 0xA0 SHL SUB PUSH2 0xF08 PUSH2 0x3638 JUMP JUMPDEST AND PUSH1 0x0 MSTORE PUSH1 0xA PUSH1 0x20 MSTORE PUSH1 0x20 PUSH1 0x40 PUSH1 0x0 KECCAK256 SLOAD PUSH1 0x40 MLOAD SWAP1 DUP2 MSTORE RETURN JUMPDEST CALLVALUE PUSH2 0x394 JUMPI PUSH1 0x20 CALLDATASIZE PUSH1 0x3 NOT ADD SLT PUSH2 0x394 JUMPI PUSH1 0x4 CALLDATALOAD PUSH2 0xF3D PUSH2 0x38DC JUMP JUMPDEST PUSH2 0x3E8 DUP2 GT PUSH2 0xF4B JUMPI PUSH1 0x3 SSTORE STOP JUMPDEST PUSH1 0x40 MLOAD PUSH3 0x461BCD PUSH1 0xE5 SHL DUP2 MSTORE PUSH1 0x20 PUSH1 0x4 DUP3 ADD MSTORE PUSH1 0xC PUSH1 0x24 DUP3 ADD MSTORE PUSH12 0x8CCACA40E8DEDE40D0D2CED PUSH1 0xA3 SHL PUSH1 0x44 DUP3 ADD MSTORE PUSH1 0x64 SWAP1 REVERT JUMPDEST CALLVALUE PUSH2 0x394 JUMPI PUSH1 0x0 CALLDATASIZE PUSH1 0x3 NOT ADD SLT PUSH2 0x394 JUMPI PUSH1 0x40 MLOAD PUSH32 0x0 PUSH1 0x1 PUSH1 0x1 PUSH1 0xA0 SHL SUB AND DUP2 MSTORE PUSH1 0x20 SWAP1 RETURN JUMPDEST CALLVALUE PUSH2 0x394 JUMPI PUSH1 0x20 CALLDATASIZE PUSH1 0x3 NOT ADD SLT PUSH2 0x394 JUMPI PUSH1 0x4 CALLDATALOAD PUSH2 0xFE0 PUSH2 0x38DC JUMP JUMPDEST DUP1 ISZERO ISZERO DUP1 PUSH2 0x102F JUMPI JUMPDEST ISZERO PUSH2 0xFF3 JUMPI PUSH1 0x5 SSTORE STOP JUMPDEST PUSH1 0x40 MLOAD PUSH3 0x461BCD PUSH1 0xE5 SHL DUP2 MSTORE PUSH1 0x20 PUSH1 0x4 DUP3 ADD MSTORE PUSH1 0x14 PUSH1 0x24 DUP3 ADD MSTORE PUSH20 0x496E76616C696420706F696E74732076616C7565 PUSH1 0x60 SHL PUSH1 0x44 DUP3 ADD MSTORE PUSH1 0x64 SWAP1 REVERT JUMPDEST POP PUSH2 0x3E8 DUP2 GT ISZERO PUSH2 0xFE9 JUMP JUMPDEST CALLVALUE PUSH2 0x394 JUMPI PUSH1 0x0 CALLDATASIZE PUSH1 0x3 NOT ADD SLT PUSH2 0x394 JUMPI PUSH1 0x20 PUSH1 0x6 SLOAD PUSH1 0x40 MLOAD SWAP1 DUP2 MSTORE RETURN JUMPDEST CALLVALUE PUSH2 0x394 JUMPI PUSH1 0x40 CALLDATASIZE PUSH1 0x3 NOT ADD SLT PUSH2 0x394 JUMPI PUSH2 0x1072 PUSH2 0x3638 JUMP JUMPDEST PUSH1 0x24 CALLDATALOAD SWAP1 PUSH2 0x107E PUSH2 0x38DC JUMP JUMPDEST PUSH1 0x1 DUP1 PUSH1 0xA0 SHL SUB SWAP2 DUP3 DUP3 AND SWAP3 DUP4 PUSH1 0x0 MSTORE PUSH1 0x20 SWAP3 PUSH1 0xA DUP5 MSTORE DUP3 PUSH1 0x40 PUSH1 0x0 KECCAK256 SLOAD LT PUSH2 0x11BC JUMPI DUP3 PUSH2 0x1100 SWAP3 DUP6 SWAP3 DUP8 PUSH1 0x0 MSTORE PUSH1 0xA DUP5 MSTORE PUSH1 0x40 PUSH1 0x0 KECCAK256 PUSH2 0x10C0 DUP5 DUP3 SLOAD PUSH2 0x399B JUMP JUMPDEST SWAP1 SSTORE PUSH1 0x40 MLOAD PUSH4 0x23B872DD PUSH1 0xE0 SHL DUP2 MSTORE PUSH1 0x1 PUSH1 0x1 PUSH1 0xA0 SHL SUB SWAP1 SWAP2 AND PUSH1 0x4 DUP3 ADD MSTORE ADDRESS PUSH1 0x24 DUP3 ADD MSTORE PUSH1 0x44 DUP2 ADD SWAP3 SWAP1 SWAP3 MSTORE SWAP1 SWAP3 DUP4 SWAP2 SWAP1 DUP3 SWAP1 PUSH1 0x0 SWAP1 DUP3 SWAP1 PUSH1 0x64 DUP3 ADD SWAP1 JUMP JUMPDEST SUB SWAP3 PUSH32 0x0 AND GAS CALL SWAP1 DUP2 ISZERO PUSH2 0xADA JUMPI PUSH1 0x0 SWAP2 PUSH2 0x119F JUMPI JUMPDEST POP ISZERO PUSH2 0x1167 JUMPI SWAP1 PUSH32 0x8A073C194E1CCDF6688351AC0E3FA50683A2A88723662368BDB9C18064A0304E SWAP2 PUSH1 0x40 MLOAD SWAP1 DUP2 MSTORE LOG2 STOP JUMPDEST PUSH1 0x40 MLOAD PUSH3 0x461BCD PUSH1 0xE5 SHL DUP2 MSTORE PUSH1 0x4 DUP2 ADD DUP4 SWAP1 MSTORE PUSH1 0x10 PUSH1 0x24 DUP3 ADD MSTORE PUSH16 0x14995C185E5B595B9D0819985A5B1959 PUSH1 0x82 SHL PUSH1 0x44 DUP3 ADD MSTORE PUSH1 0x64 SWAP1 REVERT JUMPDEST PUSH2 0x11B6 SWAP2 POP DUP4 RETURNDATASIZE DUP6 GT PUSH2 0xBE9 JUMPI PUSH2 0xBDB DUP2 DUP4 PUSH2 0x3695 JUMP JUMPDEST DUP5 PUSH2 0x1135 JUMP JUMPDEST PUSH1 0x40 MLOAD PUSH3 0x461BCD PUSH1 0xE5 SHL DUP2 MSTORE PUSH1 0x4 DUP2 ADD DUP6 SWAP1 MSTORE PUSH1 0x13 PUSH1 0x24 DUP3 ADD MSTORE PUSH19 0x105B5BDD5B9D08195E18D959591CC81919589D PUSH1 0x6A SHL PUSH1 0x44 DUP3 ADD MSTORE PUSH1 0x64 SWAP1 REVERT JUMPDEST CALLVALUE PUSH2 0x394 JUMPI PUSH1 0x20 DUP1 PUSH1 0x3 NOT CALLDATASIZE ADD SLT PUSH2 0x394 JUMPI PUSH1 0x40 MLOAD PUSH2 0x1215 DUP2 PUSH2 0x367A JUMP JUMPDEST DUP2 PUSH1 0x0 JUMPDEST PUSH1 0x60 DUP1 DUP3 LT ISZERO PUSH2 0x122F JUMPI DUP2 DUP5 ADD MSTORE ADD DUP3 SWAP1 PUSH2 0x1219 JUMP JUMPDEST DUP3 PUSH1 0x4 CALLDATALOAD PUSH1 0x0 MSTORE PUSH1 0x11 DUP2 MSTORE PUSH1 0x40 PUSH1 0x0 KECCAK256 SWAP1 PUSH1 0xE DUP2 MSTORE PUSH1 0xFF PUSH1 0x40 PUSH1 0x0 KECCAK256 SLOAD AND SWAP2 PUSH1 0x9 DUP2 ADD SLOAD SWAP1 PUSH1 0x6 DUP2 ADD SLOAD SWAP4 PUSH1 0x7 DUP3 ADD SLOAD SWAP5 PUSH1 0x8 DUP4 ADD SLOAD SWAP2 PUSH1 0x1 DUP1 PUSH1 0xA0 SHL SUB PUSH1 0xE DUP6 ADD SLOAD AND SWAP4 PUSH2 0x127D DUP2 PUSH2 0x37B8 JUMP JUMPDEST SWAP7 PUSH1 0x1 PUSH2 0x128B DUP2 DUP5 ADD PUSH2 0x37B8 JUMP JUMPDEST SWAP1 PUSH1 0x40 MLOAD SWAP4 PUSH2 0x1299 DUP6 PUSH2 0x367A JUMP JUMPDEST DUP5 PUSH1 0x3 DUP1 SWAP3 ADD PUSH1 0x0 SWAP2 JUMPDEST DUP4 DUP4 LT PUSH2 0x1326 JUMPI POP POP POP POP POP SWAP3 PUSH1 0xFF SWAP5 SWAP3 PUSH2 0x12E1 PUSH2 0x12F6 SWAP4 PUSH2 0x12D5 SWAP13 SWAP7 PUSH1 0x40 MLOAD DUP1 SWAP15 DUP2 SWAP15 PUSH2 0x140 DUP1 DUP5 MSTORE DUP4 ADD SWAP1 PUSH2 0x385E JUMP JUMPDEST SWAP3 DUP2 DUP5 SUB SWAP2 ADD MSTORE PUSH2 0x385E JUMP JUMPDEST SWAP2 ISZERO ISZERO PUSH1 0x40 DUP12 ADD MSTORE DUP10 DUP3 SUB PUSH1 0x60 DUP12 ADD MSTORE PUSH2 0x389E JUMP JUMPDEST SWAP6 PUSH1 0x80 DUP9 ADD MSTORE PUSH1 0xA0 DUP8 ADD MSTORE DUP2 DUP2 AND ISZERO ISZERO PUSH1 0xC0 DUP8 ADD MSTORE PUSH1 0x8 SHR AND ISZERO ISZERO PUSH1 0xE0 DUP6 ADD MSTORE PUSH2 0x100 DUP5 ADD MSTORE PUSH2 0x120 DUP4 ADD MSTORE SUB SWAP1 RETURN JUMPDEST DUP5 DUP8 DUP2 SWAP3 PUSH2 0x1333 DUP6 PUSH2 0x37B8 JUMP JUMPDEST DUP2 MSTORE ADD SWAP3 ADD SWAP3 ADD SWAP2 SWAP1 PUSH2 0x12A3 JUMP JUMPDEST CALLVALUE PUSH2 0x394 JUMPI PUSH1 0x0 CALLDATASIZE PUSH1 0x3 NOT ADD SLT PUSH2 0x394 JUMPI PUSH1 0x20 PUSH1 0x8 SLOAD PUSH1 0x40 MLOAD SWAP1 DUP2 MSTORE RETURN JUMPDEST CALLVALUE PUSH2 0x394 JUMPI PUSH1 0x40 CALLDATASIZE PUSH1 0x3 NOT ADD SLT PUSH2 0x394 JUMPI PUSH2 0x1378 PUSH2 0x3638 JUMP JUMPDEST PUSH1 0x24 CALLDATALOAD PUSH2 0x1383 PUSH2 0x38DC JUMP JUMPDEST PUSH1 0x1 PUSH1 0x1 PUSH1 0xA0 SHL SUB DUP3 DUP2 AND SWAP3 SWAP1 SWAP2 SWAP1 PUSH2 0x139D DUP5 ISZERO ISZERO PUSH2 0x3FA5 JUMP JUMPDEST PUSH1 0x7 SLOAD SWAP3 DUP4 DUP4 GT PUSH2 0x1525 JUMPI PUSH1 0x40 MLOAD PUSH4 0x70A08231 PUSH1 0xE0 SHL DUP2 MSTORE ADDRESS PUSH1 0x4 DUP3 ADD MSTORE PUSH1 0x20 SWAP5 SWAP2 PUSH32 0x0 AND DUP6 DUP3 PUSH1 0x24 DUP2 DUP5 GAS STATICCALL SWAP3 DUP4 ISZERO PUSH2 0xADA JUMPI DUP7 SWAP4 DUP7 SWAP4 PUSH1 0x0 SWAP2 PUSH2 0x14F1 JUMPI JUMPDEST POP DUP4 PUSH2 0x1452 SWAP7 SWAP3 PUSH2 0x1412 DUP3 PUSH2 0x1417 SWAP5 LT ISZERO PUSH2 0x3F4F JUMP JUMPDEST PUSH2 0x399B JUMP JUMPDEST PUSH1 0x7 SSTORE PUSH1 0x40 MLOAD PUSH4 0xA9059CBB PUSH1 0xE0 SHL DUP2 MSTORE PUSH1 0x1 PUSH1 0x1 PUSH1 0xA0 SHL SUB SWAP1 SWAP2 AND PUSH1 0x4 DUP3 ADD MSTORE PUSH1 0x24 DUP2 ADD SWAP3 SWAP1 SWAP3 MSTORE SWAP1 SWAP3 DUP4 SWAP2 SWAP1 DUP3 SWAP1 PUSH1 0x0 SWAP1 DUP3 SWAP1 PUSH1 0x44 DUP3 ADD SWAP1 JUMP JUMPDEST SUB SWAP3 GAS CALL SWAP1 DUP2 ISZERO PUSH2 0xADA JUMPI PUSH1 0x0 SWAP2 PUSH2 0x14D4 JUMPI JUMPDEST POP ISZERO PUSH2 0x1497 JUMPI SWAP1 PUSH32 0xC0819C13BE868895EB93E40EACEB96DE976442FA1D404E5C55F14BB65A8C489A SWAP2 PUSH1 0x40 MLOAD SWAP1 DUP2 MSTORE LOG2 STOP JUMPDEST PUSH1 0x40 MLOAD PUSH3 0x461BCD PUSH1 0xE5 SHL DUP2 MSTORE PUSH1 0x4 DUP2 ADD DUP4 SWAP1 MSTORE PUSH1 0x15 PUSH1 0x24 DUP3 ADD MSTORE PUSH21 0x119959481DDA5D1A191C985DD85B0819985A5B1959 PUSH1 0x5A SHL PUSH1 0x44 DUP3 ADD MSTORE PUSH1 0x64 SWAP1 REVERT JUMPDEST PUSH2 0x14EB SWAP2 POP DUP4 RETURNDATASIZE DUP6 GT PUSH2 0xBE9 JUMPI PUSH2 0xBDB DUP2 DUP4 PUSH2 0x3695 JUMP JUMPDEST DUP5 PUSH2 0x1465 JUMP JUMPDEST SWAP4 POP POP SWAP3 DUP3 DUP2 RETURNDATASIZE DUP4 GT PUSH2 0x151E JUMPI JUMPDEST PUSH2 0x1509 DUP2 DUP4 PUSH2 0x3695 JUMP JUMPDEST DUP2 ADD SUB SLT PUSH2 0x394 JUMPI SWAP1 MLOAD DUP6 SWAP3 DUP6 SWAP3 SWAP2 DUP4 PUSH2 0x13FC JUMP JUMPDEST POP RETURNDATASIZE PUSH2 0x14FF JUMP JUMPDEST PUSH1 0x40 MLOAD PUSH3 0x461BCD PUSH1 0xE5 SHL DUP2 MSTORE PUSH1 0x20 PUSH1 0x4 DUP3 ADD MSTORE PUSH1 0x1F PUSH1 0x24 DUP3 ADD MSTORE PUSH32 0x416D6F756E74206578636565647320616363756D756C61746564206665657300 PUSH1 0x44 DUP3 ADD MSTORE PUSH1 0x64 SWAP1 REVERT JUMPDEST CALLVALUE PUSH2 0x394 JUMPI PUSH1 0x20 CALLDATASIZE PUSH1 0x3 NOT ADD SLT PUSH2 0x394 JUMPI PUSH1 0x4 CALLDATALOAD PUSH1 0x0 MSTORE PUSH1 0xE PUSH1 0x20 MSTORE PUSH1 0x20 PUSH1 0xFF PUSH1 0x40 PUSH1 0x0 KECCAK256 SLOAD AND PUSH1 0x40 MLOAD SWAP1 ISZERO ISZERO DUP2 MSTORE RETURN JUMPDEST CALLVALUE PUSH2 0x394 JUMPI PUSH1 0x20 CALLDATASIZE PUSH1 0x3 NOT ADD SLT PUSH2 0x394 JUMPI PUSH1 0x4 CALLDATALOAD PUSH1 0x0 MSTORE PUSH1 0x10 PUSH1 0x20 MSTORE PUSH1 0x20 PUSH1 0x40 PUSH1 0x0 KECCAK256 SLOAD PUSH1 0x40 MLOAD SWAP1 DUP2 MSTORE RETURN JUMPDEST CALLVALUE PUSH2 0x394 JUMPI PUSH1 0x20 DUP1 PUSH1 0x3 NOT CALLDATASIZE ADD SLT PUSH2 0x394 JUMPI PUSH1 0x4 CALLDATALOAD PUSH2 0x15E9 PUSH1 0x4 SLOAD DUP3 LT PUSH2 0x3E21 JUMP JUMPDEST PUSH1 0x0 DUP2 DUP2 MSTORE PUSH1 0x11 DUP4 MSTORE PUSH1 0x40 SWAP1 KECCAK256 PUSH1 0xE ADD SLOAD PUSH1 0x1 PUSH1 0x1 PUSH1 0xA0 SHL SUB AND CALLER SUB PUSH2 0x175F JUMPI CALLER PUSH1 0x0 MSTORE PUSH1 0xD DUP3 MSTORE PUSH1 0x64 PUSH1 0x40 PUSH1 0x0 KECCAK256 SLOAD LT PUSH2 0x1724 JUMPI DUP1 PUSH1 0x0 MSTORE PUSH1 0xE DUP3 MSTORE PUSH1 0xFF PUSH1 0x40 PUSH1 0x0 KECCAK256 SLOAD AND PUSH2 0x16E6 JUMPI CALLER PUSH1 0x0 MSTORE PUSH1 0xD DUP3 MSTORE PUSH1 0x40 PUSH1 0x0 KECCAK256 DUP1 SLOAD SWAP1 PUSH1 0x63 NOT DUP3 ADD SWAP2 DUP3 GT PUSH2 0x69B JUMPI SSTORE DUP1 PUSH1 0x0 MSTORE PUSH1 0xE DUP3 MSTORE PUSH1 0x40 PUSH1 0x0 KECCAK256 PUSH1 0x1 PUSH1 0xFF NOT DUP3 SLOAD AND OR SWAP1 SSTORE PUSH32 0xF55821CEBA42951B9AA03907B558E1375E504CED6C60BBDF3025384EB0D51318 DUP3 PUSH1 0x40 MLOAD PUSH1 0x1 DUP2 MSTORE LOG2 PUSH1 0x40 DUP1 MLOAD SWAP2 PUSH1 0x64 DUP4 MSTORE DUP3 ADD MSTORE PUSH1 0x10 PUSH1 0x40 DUP3 ADD MSTORE PUSH16 0x20B932B7309030B1BA34BB30BA34B7B7 PUSH1 0x81 SHL PUSH1 0x60 DUP3 ADD MSTORE PUSH32 0xF9D84DC8DBC1EC63030D63FE51EB9E84F59905783078B2F3D84F3FCEE1AE778F PUSH1 0x80 CALLER SWAP3 LOG2 STOP JUMPDEST PUSH1 0x40 MLOAD PUSH3 0x461BCD PUSH1 0xE5 SHL DUP2 MSTORE PUSH1 0x4 DUP2 ADD DUP4 SWAP1 MSTORE PUSH1 0x16 PUSH1 0x24 DUP3 ADD MSTORE PUSH22 0x416C7265616479206172656E6120656C696769626C65 PUSH1 0x50 SHL PUSH1 0x44 DUP3 ADD MSTORE PUSH1 0x64 SWAP1 REVERT JUMPDEST PUSH1 0x40 MLOAD PUSH3 0x461BCD PUSH1 0xE5 SHL DUP2 MSTORE PUSH1 0x4 DUP2 ADD DUP4 SWAP1 MSTORE PUSH1 0x13 PUSH1 0x24 DUP3 ADD MSTORE PUSH19 0x496E73756666696369656E7420706F696E7473 PUSH1 0x68 SHL PUSH1 0x44 DUP3 ADD MSTORE PUSH1 0x64 SWAP1 REVERT JUMPDEST PUSH1 0x40 MLOAD PUSH3 0x461BCD PUSH1 0xE5 SHL DUP2 MSTORE PUSH1 0x4 DUP2 ADD DUP4 SWAP1 MSTORE PUSH1 0x10 PUSH1 0x24 DUP3 ADD MSTORE PUSH16 0x2737BA10323AB2B61031B932B0BA37B9 PUSH1 0x81 SHL PUSH1 0x44 DUP3 ADD MSTORE PUSH1 0x64 SWAP1 REVERT JUMPDEST CALLVALUE PUSH2 0x394 JUMPI PUSH1 0x0 CALLDATASIZE PUSH1 0x3 NOT ADD SLT PUSH2 0x394 JUMPI PUSH1 0x0 SLOAD PUSH1 0x40 MLOAD PUSH1 0x1 PUSH1 0x1 PUSH1 0xA0 SHL SUB SWAP1 SWAP2 AND DUP2 MSTORE PUSH1 0x20 SWAP1 RETURN JUMPDEST CALLVALUE PUSH2 0x394 JUMPI PUSH1 0x0 CALLDATASIZE PUSH1 0x3 NOT ADD SLT PUSH2 0x394 JUMPI PUSH1 0x20 PUSH1 0x3 SLOAD PUSH1 0x40 MLOAD SWAP1 DUP2 MSTORE RETURN JUMPDEST CALLVALUE PUSH2 0x394 JUMPI PUSH1 0x20 CALLDATASIZE PUSH1 0x3 NOT ADD SLT PUSH2 0x394 JUMPI PUSH1 0x20 PUSH2 0x17FC PUSH1 0x4 CALLDATALOAD PUSH2 0x3AF3 JUMP JUMPDEST PUSH1 0x40 MLOAD SWAP1 ISZERO ISZERO DUP2 MSTORE RETURN JUMPDEST CALLVALUE PUSH2 0x394 JUMPI PUSH1 0x20 CALLDATASIZE PUSH1 0x3 NOT ADD SLT PUSH2 0x394 JUMPI PUSH1 0x4 CALLDATALOAD PUSH1 0x0 MSTORE PUSH1 0x11 PUSH1 0x20 MSTORE PUSH2 0x188D PUSH1 0x40 PUSH1 0x0 KECCAK256 PUSH2 0x1833 DUP2 PUSH2 0x37B8 JUMP JUMPDEST SWAP1 PUSH2 0x1840 PUSH1 0x1 DUP3 ADD PUSH2 0x37B8 JUMP JUMPDEST PUSH1 0xFF PUSH1 0x2 DUP4 ADD SLOAD AND SWAP2 PUSH1 0x6 DUP2 ADD SLOAD PUSH1 0x7 DUP3 ADD SLOAD PUSH1 0xFF PUSH1 0x8 DUP5 ADD SLOAD SWAP2 PUSH1 0x9 DUP6 ADD SLOAD SWAP4 PUSH2 0x189B PUSH1 0xA DUP8 ADD SLOAD SWAP7 PUSH1 0xE PUSH1 0x1 DUP1 PUSH1 0xA0 SHL SUB SWAP2 ADD SLOAD AND SWAP8 PUSH1 0x40 MLOAD SWAP12 DUP13 SWAP12 DUP13 PUSH2 0x140 DUP1 SWAP2 MSTORE DUP14 ADD SWAP1 PUSH2 0x385E JUMP JUMPDEST SWAP1 DUP12 DUP3 SUB PUSH1 0x20 DUP14 ADD MSTORE PUSH2 0x385E JUMP JUMPDEST SWAP8 ISZERO ISZERO PUSH1 0x40 DUP11 ADD MSTORE PUSH1 0x60 DUP10 ADD MSTORE DUP2 DUP2 AND ISZERO ISZERO PUSH1 0x80 DUP10 ADD MSTORE PUSH1 0x8 SHR AND ISZERO ISZERO PUSH1 0xA0 DUP8 ADD MSTORE PUSH1 0xC0 DUP7 ADD MSTORE PUSH1 0xE0 DUP6 ADD MSTORE PUSH2 0x100 DUP5 ADD MSTORE PUSH2 0x120 DUP4 ADD MSTORE SUB SWAP1 RETURN JUMPDEST CALLVALUE PUSH2 0x394 JUMPI PUSH1 0x0 CALLDATASIZE PUSH1 0x3 NOT ADD SLT PUSH2 0x394 JUMPI PUSH2 0x18F0 PUSH2 0x38DC JUMP JUMPDEST PUSH2 0x18F8 PUSH2 0x3D87 JUMP JUMPDEST PUSH1 0x1 PUSH1 0xFF NOT PUSH1 0x2 SLOAD AND OR PUSH1 0x2 SSTORE PUSH32 0x62E78CEA01BEE320CD4E420270B5EA74000D11B0C9F74754EBDBFC544B05A258 PUSH1 0x20 PUSH1 0x40 MLOAD CALLER DUP2 MSTORE LOG1 STOP JUMPDEST CALLVALUE PUSH2 0x394 JUMPI PUSH1 0x0 CALLDATASIZE PUSH1 0x3 NOT ADD SLT PUSH2 0x394 JUMPI PUSH1 0x20 PUSH1 0x40 MLOAD PUSH1 0xFF PUSH32 0x0 AND DUP2 MSTORE RETURN JUMPDEST CALLVALUE PUSH2 0x394 JUMPI PUSH1 0x20 CALLDATASIZE PUSH1 0x3 NOT ADD SLT PUSH2 0x394 JUMPI PUSH1 0x4 CALLDATALOAD DUP1 ISZERO ISZERO DUP1 SWAP2 SUB PUSH2 0x394 JUMPI PUSH2 0x1995 PUSH2 0x38DC JUMP JUMPDEST PUSH1 0xFF DUP1 NOT PUSH1 0x9 SLOAD AND SWAP2 AND OR PUSH1 0x9 SSTORE PUSH1 0x0 DUP1 RETURN JUMPDEST CALLVALUE PUSH2 0x394 JUMPI PUSH1 0x0 CALLDATASIZE PUSH1 0x3 NOT ADD SLT PUSH2 0x394 JUMPI PUSH1 0x20 PUSH1 0x40 MLOAD PUSH1 0x32 DUP2 MSTORE RETURN JUMPDEST CALLVALUE PUSH2 0x394 JUMPI PUSH1 0x20 CALLDATASIZE PUSH1 0x3 NOT ADD SLT PUSH2 0x394 JUMPI PUSH2 0x19DD PUSH2 0x38DC JUMP JUMPDEST PUSH1 0x4 CALLDATALOAD PUSH1 0xC SSTORE STOP JUMPDEST CALLVALUE PUSH2 0x394 JUMPI PUSH1 0x40 CALLDATASIZE PUSH1 0x3 NOT ADD SLT PUSH2 0x394 JUMPI PUSH2 0x19FE PUSH2 0x364E JUMP JUMPDEST PUSH1 0x4 CALLDATALOAD PUSH1 0x0 MSTORE PUSH1 0x12 PUSH1 0x20 MSTORE PUSH1 0x40 PUSH1 0x0 KECCAK256 SWAP1 PUSH1 0x1 DUP1 PUSH1 0xA0 SHL SUB AND PUSH1 0x0 MSTORE PUSH1 0x20 MSTORE PUSH1 0x20 PUSH1 0x40 PUSH1 0x0 KECCAK256 SLOAD PUSH1 0x40 MLOAD SWAP1 DUP2 MSTORE RETURN JUMPDEST CALLVALUE PUSH2 0x394 JUMPI PUSH1 0x0 CALLDATASIZE PUSH1 0x3 NOT ADD SLT PUSH2 0x394 JUMPI PUSH2 0x1A46 PUSH2 0x38DC JUMP JUMPDEST PUSH1 0x0 DUP1 SLOAD PUSH1 0x1 PUSH1 0x1 PUSH1 0xA0 SHL SUB NOT DUP2 AND DUP3 SSTORE PUSH1 0x1 PUSH1 0x1 PUSH1 0xA0 SHL SUB AND PUSH32 0x8BE0079C531659141344CD1FD0A4F28419497F9722A3DAAFE3B4186F6B6457E0 DUP3 DUP1 LOG3 STOP JUMPDEST CALLVALUE PUSH2 0x394 JUMPI PUSH1 0x80 CALLDATASIZE PUSH1 0x3 NOT ADD SLT PUSH2 0x394 JUMPI PUSH1 0x4 CALLDATALOAD PUSH1 0x1 PUSH1 0x1 PUSH1 0x40 SHL SUB DUP2 GT PUSH2 0x394 JUMPI PUSH2 0x1AB6 SWAP1 CALLDATASIZE SWAP1 PUSH1 0x4 ADD PUSH2 0x36B6 JUMP JUMPDEST PUSH1 0x24 CALLDATALOAD PUSH1 0x1 PUSH1 0x1 PUSH1 0x40 SHL SUB DUP2 GT PUSH2 0x394 JUMPI PUSH2 0x1AD5 SWAP1 CALLDATASIZE SWAP1 PUSH1 0x4 ADD PUSH2 0x36B6 JUMP JUMPDEST SWAP1 PUSH1 0x44 CALLDATALOAD PUSH1 0x1 PUSH1 0x1 PUSH1 0x40 SHL SUB DUP2 GT PUSH2 0x394 JUMPI PUSH2 0x1AF5 SWAP1 CALLDATASIZE SWAP1 PUSH1 0x4 ADD PUSH2 0x371B JUMP JUMPDEST PUSH2 0x1AFD PUSH2 0x3DCB JUMP JUMPDEST PUSH2 0x1B05 PUSH2 0x3D87 JUMP JUMPDEST PUSH1 0xFF PUSH1 0x9 SLOAD AND ISZERO PUSH2 0x22A5 JUMPI PUSH2 0xE10 TIMESTAMP ADD DUP1 TIMESTAMP GT PUSH2 0x69B JUMPI PUSH2 0x1B29 SWAP1 PUSH1 0x64 CALLDATALOAD GT PUSH2 0x3BD0 JUMP JUMPDEST PUSH3 0x278D00 TIMESTAMP ADD DUP1 TIMESTAMP GT PUSH2 0x69B JUMPI PUSH2 0x1B43 SWAP1 PUSH1 0x64 CALLDATALOAD LT PUSH2 0x3C10 JUMP JUMPDEST PUSH2 0x1B58 DUP3 MLOAD DUP1 ISZERO ISZERO SWAP1 DUP2 PUSH2 0x2299 JUMPI JUMPDEST POP PUSH2 0x3C4F JUMP JUMPDEST PUSH2 0x1B6D DUP4 MLOAD DUP1 ISZERO ISZERO SWAP1 DUP2 PUSH2 0x228D JUMPI JUMPDEST POP PUSH2 0x3C8B JUMP JUMPDEST PUSH1 0x0 JUMPDEST PUSH1 0x3 DUP2 LT PUSH2 0x2247 JUMPI POP PUSH1 0x8 SLOAD PUSH1 0x40 MLOAD PUSH4 0x70A08231 PUSH1 0xE0 SHL DUP1 DUP3 MSTORE CALLER PUSH1 0x4 DUP4 ADD MSTORE SWAP1 PUSH1 0x1 PUSH1 0x1 PUSH1 0xA0 SHL SUB SWAP1 PUSH1 0x20 DUP2 PUSH1 0x24 DUP2 PUSH32 0x0 DUP7 AND GAS STATICCALL SWAP1 DUP2 ISZERO PUSH2 0xADA JUMPI PUSH1 0x0 SWAP2 PUSH2 0x2215 JUMPI JUMPDEST POP PUSH1 0x6 SLOAD GT ISZERO PUSH2 0x220C JUMPI JUMPDEST DUP1 PUSH1 0xB SLOAD AND CALLER SUB PUSH2 0x21BA JUMPI JUMPDEST DUP3 PUSH2 0x2024 JUMPI JUMPDEST POP POP POP PUSH1 0x4 SLOAD SWAP2 DUP3 PUSH1 0x0 MSTORE PUSH1 0x11 PUSH1 0x20 MSTORE PUSH1 0x40 PUSH1 0x0 KECCAK256 DUP2 MLOAD PUSH1 0x1 PUSH1 0x1 PUSH1 0x40 SHL SUB DUP2 GT PUSH2 0x1EB5 JUMPI PUSH2 0x1C20 DUP3 SLOAD PUSH2 0x377E JUMP JUMPDEST PUSH1 0x1F DUP2 GT PUSH2 0x1FF2 JUMPI JUMPDEST POP DUP1 PUSH1 0x20 PUSH1 0x1F DUP3 GT PUSH1 0x1 EQ PUSH2 0x1F8E JUMPI PUSH1 0x0 SWAP2 PUSH2 0x1F83 JUMPI JUMPDEST POP DUP2 PUSH1 0x1 SHL SWAP2 PUSH1 0x0 NOT SWAP1 PUSH1 0x3 SHL SHR NOT AND OR DUP2 SSTORE JUMPDEST DUP5 MLOAD PUSH1 0x1 PUSH1 0x1 PUSH1 0x40 SHL SUB DUP2 GT PUSH2 0x1EB5 JUMPI PUSH2 0x1C71 PUSH1 0x1 DUP4 ADD SLOAD PUSH2 0x377E JUMP JUMPDEST PUSH1 0x1F DUP2 GT PUSH2 0x1F43 JUMPI JUMPDEST POP DUP1 PUSH1 0x20 PUSH1 0x1F DUP3 GT PUSH1 0x1 EQ PUSH2 0x1ED6 JUMPI PUSH1 0x0 SWAP2 PUSH2 0x1ECB JUMPI JUMPDEST POP DUP2 PUSH1 0x1 SHL SWAP2 PUSH1 0x0 NOT SWAP1 PUSH1 0x3 SHL SHR NOT AND OR PUSH1 0x1 DUP3 ADD SSTORE JUMPDEST PUSH1 0x3 DUP2 ADD PUSH1 0x0 DUP5 JUMPDEST PUSH1 0x3 DUP3 LT PUSH2 0x1D95 JUMPI POP POP POP PUSH1 0xE SWAP1 PUSH1 0x64 CALLDATALOAD PUSH1 0x6 DUP3 ADD SSTORE ADD CALLER PUSH1 0x1 PUSH1 0x1 PUSH1 0x60 SHL SUB PUSH1 0xA0 SHL DUP3 SLOAD AND OR SWAP1 SSTORE CALLER PUSH1 0x0 MSTORE PUSH1 0xD PUSH1 0x20 MSTORE PUSH1 0x40 PUSH1 0x0 KECCAK256 SWAP2 DUP3 SLOAD PUSH1 0x32 DUP2 ADD DUP1 SWAP2 GT PUSH2 0x69B JUMPI PUSH32 0x6E3A1184B10D42FD7CFA70094B21ECBD3BB215615FBB7EE4BFA7D1CD8B41C55A SWAP4 SSTORE PUSH1 0x40 MLOAD PUSH1 0x32 DUP2 MSTORE PUSH1 0x40 PUSH1 0x20 DUP3 ADD MSTORE PUSH1 0xD PUSH1 0x40 DUP3 ADD MSTORE PUSH13 0x223AB2B61031B932B0BA34B7B7 PUSH1 0x99 SHL PUSH1 0x60 DUP3 ADD MSTORE PUSH32 0x4C3089477CDA1AC100291A040B3AC97FF5F55B6D8B2ACFB56A59B9419D95CE04 PUSH1 0x80 CALLER SWAP3 LOG2 PUSH2 0x1D7E PUSH1 0x40 MLOAD SWAP3 DUP4 SWAP3 CALLER SWAP8 PUSH1 0x64 CALLDATALOAD SWAP3 DUP6 PUSH2 0x3D48 JUMP JUMPDEST SUB SWAP1 LOG3 PUSH2 0x1D8C PUSH1 0x4 SLOAD PUSH2 0x3AE4 JUMP JUMPDEST PUSH1 0x4 SSTORE PUSH1 0x1 DUP1 SSTORE STOP JUMPDEST DUP1 MLOAD DUP1 MLOAD SWAP1 PUSH1 0x1 PUSH1 0x1 PUSH1 0x40 SHL SUB DUP3 GT PUSH2 0x1EB5 JUMPI PUSH2 0x1DB2 DUP6 SLOAD PUSH2 0x377E JUMP JUMPDEST PUSH1 0x1F DUP2 GT PUSH2 0x1E78 JUMPI JUMPDEST POP PUSH1 0x20 SWAP1 PUSH1 0x1F DUP4 GT PUSH1 0x1 EQ PUSH2 0x1E08 JUMPI SWAP3 DUP3 PUSH1 0x1 SWAP5 SWAP4 PUSH1 0x20 SWAP4 DUP7 SWAP6 PUSH1 0x0 SWAP3 PUSH2 0x1DFD JUMPI JUMPDEST POP POP PUSH1 0x0 NOT PUSH1 0x3 DUP4 SWAP1 SHL SHR NOT AND SWAP1 DUP5 SHL OR DUP7 SSTORE JUMPDEST ADD SWAP4 ADD SWAP2 ADD SWAP1 SWAP2 PUSH2 0x1CB0 JUMP JUMPDEST ADD MLOAD SWAP1 POP DUP14 DUP1 PUSH2 0x1DDD JUMP JUMPDEST SWAP1 DUP6 PUSH1 0x0 MSTORE PUSH1 0x20 PUSH1 0x0 KECCAK256 SWAP2 PUSH1 0x0 JUMPDEST PUSH1 0x1F NOT DUP6 AND DUP2 LT PUSH2 0x1E60 JUMPI POP DUP4 PUSH1 0x20 SWAP4 PUSH1 0x1 SWAP7 SWAP4 DUP8 SWAP7 SWAP4 DUP8 SWAP5 PUSH1 0x1F NOT DUP2 AND LT PUSH2 0x1E47 JUMPI JUMPDEST POP POP POP DUP2 SHL ADD DUP7 SSTORE PUSH2 0x1DF1 JUMP JUMPDEST ADD MLOAD PUSH1 0x0 NOT PUSH1 0xF8 DUP5 PUSH1 0x3 SHL AND SHR NOT AND SWAP1 SSTORE DUP14 DUP1 DUP1 PUSH2 0x1E3A JUMP JUMPDEST SWAP2 SWAP3 PUSH1 0x20 PUSH1 0x1 DUP2 SWAP3 DUP7 DUP6 ADD MLOAD DUP2 SSTORE ADD SWAP5 ADD SWAP3 ADD PUSH2 0x1E16 JUMP JUMPDEST PUSH2 0x1EA5 SWAP1 DUP7 PUSH1 0x0 MSTORE PUSH1 0x20 PUSH1 0x0 KECCAK256 PUSH1 0x5 PUSH1 0x1F DUP7 ADD DUP2 SHR DUP3 ADD SWAP3 PUSH1 0x20 DUP8 LT PUSH2 0x1EAB JUMPI JUMPDEST PUSH1 0x1F ADD SWAP1 SHR ADD SWAP1 PUSH2 0x3D31 JUMP JUMPDEST DUP11 PUSH2 0x1DBB JUMP JUMPDEST SWAP2 SWAP3 POP DUP3 SWAP2 PUSH2 0x1E99 JUMP JUMPDEST PUSH4 0x4E487B71 PUSH1 0xE0 SHL PUSH1 0x0 MSTORE PUSH1 0x41 PUSH1 0x4 MSTORE PUSH1 0x24 PUSH1 0x0 REVERT JUMPDEST SWAP1 POP DUP7 ADD MLOAD DUP8 PUSH2 0x1C91 JUMP JUMPDEST SWAP2 POP PUSH1 0x1 DUP4 ADD PUSH1 0x0 MSTORE PUSH1 0x20 PUSH1 0x0 KECCAK256 PUSH1 0x0 SWAP3 JUMPDEST PUSH1 0x1F NOT DUP4 AND DUP5 LT PUSH2 0x1F2B JUMPI PUSH1 0x1 SWAP4 POP DUP3 PUSH1 0x1F NOT DUP2 AND LT PUSH2 0x1F12 JUMPI JUMPDEST POP POP DUP2 SHL ADD PUSH1 0x1 DUP3 ADD SSTORE PUSH2 0x1CA8 JUMP JUMPDEST DUP9 ADD MLOAD PUSH1 0x0 NOT PUSH1 0xF8 DUP5 PUSH1 0x3 SHL AND SHR NOT AND SWAP1 SSTORE DUP8 DUP1 PUSH2 0x1F03 JUMP JUMPDEST DUP9 DUP2 ADD MLOAD DUP3 SSTORE PUSH1 0x20 SWAP4 DUP5 ADD SWAP4 PUSH1 0x1 SWAP1 SWAP3 ADD SWAP2 ADD PUSH2 0x1EE8 JUMP JUMPDEST PUSH2 0x1F73 SWAP1 PUSH1 0x1 DUP5 ADD PUSH1 0x0 MSTORE PUSH1 0x20 PUSH1 0x0 KECCAK256 PUSH1 0x1F DUP5 ADD PUSH1 0x5 SHR DUP2 ADD SWAP2 PUSH1 0x20 DUP6 LT PUSH2 0x1F79 JUMPI JUMPDEST PUSH1 0x1F ADD PUSH1 0x5 SHR ADD SWAP1 PUSH2 0x3D31 JUMP JUMPDEST DUP7 PUSH2 0x1C7A JUMP JUMPDEST SWAP1 SWAP2 POP DUP2 SWAP1 PUSH2 0x1F66 JUMP JUMPDEST SWAP1 POP DUP4 ADD MLOAD DUP8 PUSH2 0x1C40 JUMP JUMPDEST PUSH1 0x0 DUP5 DUP2 MSTORE PUSH1 0x20 DUP2 KECCAK256 SWAP3 POP PUSH1 0x1F NOT DUP5 AND SWAP1 JUMPDEST DUP2 DUP2 LT PUSH2 0x1FDA JUMPI POP SWAP1 DUP4 PUSH1 0x1 SWAP5 SWAP4 SWAP3 LT PUSH2 0x1FC1 JUMPI JUMPDEST POP POP DUP2 SHL ADD DUP2 SSTORE PUSH2 0x1C54 JUMP JUMPDEST DUP6 ADD MLOAD PUSH1 0x0 NOT PUSH1 0xF8 DUP5 PUSH1 0x3 SHL AND SHR NOT AND SWAP1 SSTORE DUP8 DUP1 PUSH2 0x1FB5 JUMP JUMPDEST SWAP2 SWAP3 PUSH1 0x20 PUSH1 0x1 DUP2 SWAP3 DUP7 DUP11 ADD MLOAD DUP2 SSTORE ADD SWAP5 ADD SWAP3 ADD PUSH2 0x1FA0 JUMP JUMPDEST PUSH2 0x201E SWAP1 DUP4 PUSH1 0x0 MSTORE PUSH1 0x20 PUSH1 0x0 KECCAK256 PUSH1 0x1F DUP5 ADD PUSH1 0x5 SHR DUP2 ADD SWAP2 PUSH1 0x20 DUP6 LT PUSH2 0x1F79 JUMPI PUSH1 0x1F ADD PUSH1 0x5 SHR ADD SWAP1 PUSH2 0x3D31 JUMP JUMPDEST DUP7 PUSH2 0x1C29 JUMP JUMPDEST PUSH32 0x0 AND SWAP1 PUSH1 0x40 MLOAD SWAP1 DUP2 MSTORE CALLER PUSH1 0x4 DUP3 ADD MSTORE PUSH1 0x20 DUP2 PUSH1 0x24 DUP2 DUP6 GAS STATICCALL DUP1 ISZERO PUSH2 0xADA JUMPI DUP4 SWAP2 PUSH1 0x0 SWAP2 PUSH2 0x2185 JUMPI JUMPDEST POP LT PUSH2 0x2132 JUMPI PUSH1 0x40 MLOAD PUSH4 0x23B872DD PUSH1 0xE0 SHL DUP2 MSTORE CALLER PUSH1 0x4 DUP3 ADD MSTORE ADDRESS PUSH1 0x24 DUP3 ADD MSTORE PUSH1 0x44 DUP2 ADD DUP4 SWAP1 MSTORE SWAP1 PUSH1 0x20 SWAP1 DUP3 SWAP1 PUSH1 0x64 SWAP1 DUP3 SWAP1 PUSH1 0x0 SWAP1 GAS CALL SWAP1 DUP2 ISZERO PUSH2 0xADA JUMPI PUSH1 0x0 SWAP2 PUSH2 0x2113 JUMPI JUMPDEST POP ISZERO PUSH2 0x20CE JUMPI PUSH2 0x20C3 SWAP1 PUSH1 0x7 SLOAD PUSH2 0x3BC3 JUMP JUMPDEST PUSH1 0x7 SSTORE DUP4 DUP1 DUP1 PUSH2 0x1BF1 JUMP JUMPDEST PUSH1 0x40 MLOAD PUSH3 0x461BCD PUSH1 0xE5 SHL DUP2 MSTORE PUSH1 0x20 PUSH1 0x4 DUP3 ADD MSTORE PUSH1 0x1B PUSH1 0x24 DUP3 ADD MSTORE PUSH32 0x4372656174696F6E20666565207061796D656E74206661696C65640000000000 PUSH1 0x44 DUP3 ADD MSTORE PUSH1 0x64 SWAP1 REVERT JUMPDEST PUSH2 0x212C SWAP2 POP PUSH1 0x20 RETURNDATASIZE PUSH1 0x20 GT PUSH2 0xBE9 JUMPI PUSH2 0xBDB DUP2 DUP4 PUSH2 0x3695 JUMP JUMPDEST DUP6 PUSH2 0x20B1 JUMP JUMPDEST PUSH1 0x40 MLOAD PUSH3 0x461BCD PUSH1 0xE5 SHL DUP2 MSTORE PUSH1 0x20 PUSH1 0x4 DUP3 ADD MSTORE PUSH1 0x25 PUSH1 0x24 DUP3 ADD MSTORE PUSH32 0x496E73756666696369656E742062616C616E636520666F72206372656174696F PUSH1 0x44 DUP3 ADD MSTORE PUSH5 0x6E20666565 PUSH1 0xD8 SHL PUSH1 0x64 DUP3 ADD MSTORE PUSH1 0x84 SWAP1 REVERT JUMPDEST SWAP2 POP POP PUSH1 0x20 DUP2 RETURNDATASIZE PUSH1 0x20 GT PUSH2 0x21B2 JUMPI JUMPDEST DUP2 PUSH2 0x21A1 PUSH1 0x20 SWAP4 DUP4 PUSH2 0x3695 JUMP JUMPDEST DUP2 ADD SUB SLT PUSH2 0x394 JUMPI DUP3 SWAP1 MLOAD DUP8 PUSH2 0x206C JUMP JUMPDEST RETURNDATASIZE SWAP2 POP PUSH2 0x2194 JUMP JUMPDEST PUSH1 0xC SLOAD CALLER PUSH1 0x0 MSTORE PUSH1 0xA PUSH1 0x20 MSTORE PUSH2 0x21D6 PUSH1 0x40 PUSH1 0x0 KECCAK256 SWAP2 DUP3 SLOAD PUSH2 0x3BC3 JUMP JUMPDEST SWAP1 SSTORE PUSH1 0xC SLOAD PUSH1 0x40 MLOAD SWAP1 DUP2 MSTORE PUSH32 0x532998721044F84020F751072EC6511AE7B0A6CF587F02A5CEA3AF0C3EDF3C96 PUSH1 0x20 CALLER SWAP3 LOG2 PUSH2 0x1BEB JUMP JUMPDEST PUSH1 0x0 SWAP3 POP PUSH2 0x1BDF JUMP JUMPDEST SWAP1 POP PUSH1 0x20 DUP2 RETURNDATASIZE PUSH1 0x20 GT PUSH2 0x223F JUMPI JUMPDEST DUP2 PUSH2 0x2230 PUSH1 0x20 SWAP4 DUP4 PUSH2 0x3695 JUMP JUMPDEST DUP2 ADD SUB SLT PUSH2 0x394 JUMPI MLOAD DUP8 PUSH2 0x1BD4 JUMP JUMPDEST RETURNDATASIZE SWAP2 POP PUSH2 0x2223 JUMP JUMPDEST DUP1 PUSH2 0x2255 PUSH2 0x226D SWAP3 DUP5 PUSH2 0x3CCA JUMP JUMPDEST MLOAD MLOAD ISZERO ISZERO DUP1 PUSH2 0x2272 JUMPI JUMPDEST PUSH2 0x2268 SWAP1 PUSH2 0x3CDB JUMP JUMPDEST PUSH2 0x3AE4 JUMP JUMPDEST PUSH2 0x1B70 JUMP JUMPDEST POP PUSH2 0x2268 PUSH1 0x32 PUSH2 0x2282 DUP4 DUP7 PUSH2 0x3CCA JUMP JUMPDEST MLOAD MLOAD GT ISZERO SWAP1 POP PUSH2 0x225F JUMP JUMPDEST PUSH1 0x32 SWAP2 POP GT ISZERO DUP6 PUSH2 0x1B67 JUMP JUMPDEST PUSH1 0x64 SWAP2 POP GT ISZERO DUP6 PUSH2 0x1B52 JUMP JUMPDEST PUSH1 0x40 MLOAD PUSH3 0x461BCD PUSH1 0xE5 SHL DUP2 MSTORE PUSH1 0x20 PUSH1 0x4 DUP3 ADD MSTORE PUSH1 0x19 PUSH1 0x24 DUP3 ADD MSTORE PUSH32 0x55736572206372656174696F6E2069732064697361626C656400000000000000 PUSH1 0x44 DUP3 ADD MSTORE PUSH1 0x64 SWAP1 REVERT JUMPDEST CALLVALUE PUSH2 0x394 JUMPI PUSH1 0x0 CALLDATASIZE PUSH1 0x3 NOT ADD SLT PUSH2 0x394 JUMPI PUSH1 0x20 PUSH1 0x40 MLOAD PUSH3 0x15180 DUP2 MSTORE RETURN JUMPDEST CALLVALUE PUSH2 0x394 JUMPI PUSH1 0x0 CALLDATASIZE PUSH1 0x3 NOT ADD SLT PUSH2 0x394 JUMPI PUSH1 0x20 PUSH1 0x40 MLOAD PUSH2 0x3E8 DUP2 MSTORE RETURN JUMPDEST CALLVALUE PUSH2 0x394 JUMPI PUSH1 0x20 CALLDATASIZE PUSH1 0x3 NOT ADD SLT PUSH2 0x394 JUMPI PUSH2 0x233E PUSH2 0x3638 JUMP JUMPDEST PUSH2 0x2346 PUSH2 0x38DC JUMP JUMPDEST PUSH1 0x1 PUSH1 0x1 PUSH1 0xA0 SHL SUB AND DUP1 ISZERO PUSH2 0x236D JUMPI PUSH1 0x1 PUSH1 0x1 PUSH1 0x60 SHL SUB PUSH1 0xA0 SHL PUSH1 0xB SLOAD AND OR PUSH1 0xB SSTORE PUSH1 0x0 DUP1 RETURN JUMPDEST PUSH1 0x40 MLOAD PUSH3 0x461BCD PUSH1 0xE5 SHL DUP2 MSTORE PUSH1 0x20 PUSH1 0x4 DUP3 ADD MSTORE PUSH1 0x17 PUSH1 0x24 DUP3 ADD MSTORE PUSH32 0x496E76616C69642072656C617965722061646472657373000000000000000000 PUSH1 0x44 DUP3 ADD MSTORE PUSH1 0x64 SWAP1 REVERT JUMPDEST CALLVALUE PUSH2 0x394 JUMPI PUSH1 0x0 CALLDATASIZE PUSH1 0x3 NOT ADD SLT PUSH2 0x394 JUMPI PUSH1 0x20 PUSH1 0xFF PUSH1 0x2 SLOAD AND PUSH1 0x40 MLOAD SWAP1 ISZERO ISZERO DUP2 MSTORE RETURN JUMPDEST CALLVALUE PUSH2 0x394 JUMPI PUSH1 0x20 DUP1 PUSH1 0x3 NOT CALLDATASIZE ADD SLT PUSH2 0x394 JUMPI PUSH1 0x4 CALLDATALOAD PUSH2 0x23F2 PUSH2 0x3DCB JUMP JUMPDEST DUP1 PUSH1 0x0 MSTORE PUSH1 0x11 DUP3 MSTORE PUSH1 0x40 PUSH1 0x0 KECCAK256 SWAP2 PUSH1 0xFF PUSH1 0x7 DUP5 ADD SLOAD PUSH1 0x8 SHR AND ISZERO PUSH2 0x264B JUMPI PUSH1 0x11 DUP4 ADD SWAP3 CALLER PUSH1 0x0 MSTORE DUP4 DUP3 MSTORE PUSH1 0xFF PUSH1 0x40 PUSH1 0x0 KECCAK256 SLOAD AND PUSH2 0x260D JUMPI PUSH1 0xF PUSH2 0x2462 SWAP2 ADD CALLER PUSH1 0x0 MSTORE DUP1 DUP4 MSTORE PUSH2 0x244C PUSH1 0x40 PUSH1 0x0 KECCAK256 PUSH1 0x1 DUP2 SLOAD SWAP2 ADD SLOAD SWAP1 PUSH2 0x3BC3 JUMP JUMPDEST SWAP1 CALLER PUSH1 0x0 MSTORE DUP4 MSTORE PUSH1 0x2 PUSH1 0x40 PUSH1 0x0 KECCAK256 ADD SLOAD SWAP1 PUSH2 0x3BC3 JUMP JUMPDEST SWAP3 DUP4 ISZERO PUSH2 0x25D4 JUMPI CALLER PUSH1 0x0 SWAP1 DUP2 MSTORE SWAP1 DUP3 MSTORE PUSH1 0x40 SWAP1 DUP2 SWAP1 KECCAK256 DUP1 SLOAD PUSH1 0xFF NOT AND PUSH1 0x1 OR SWAP1 SSTORE MLOAD PUSH4 0x70A08231 PUSH1 0xE0 SHL DUP2 MSTORE ADDRESS PUSH1 0x4 DUP3 ADD MSTORE PUSH32 0x0 PUSH1 0x1 PUSH1 0x1 PUSH1 0xA0 SHL SUB AND SWAP1 DUP3 DUP2 PUSH1 0x24 DUP2 DUP6 GAS STATICCALL DUP1 ISZERO PUSH2 0xADA JUMPI DUP6 SWAP1 PUSH1 0x0 SWAP1 PUSH2 0x25A3 JUMPI JUMPDEST PUSH2 0x24E3 SWAP3 POP LT ISZERO PUSH2 0x3F4F JUMP JUMPDEST PUSH1 0x40 MLOAD PUSH4 0xA9059CBB PUSH1 0xE0 SHL DUP2 MSTORE CALLER PUSH1 0x4 DUP3 ADD MSTORE PUSH1 0x24 DUP2 ADD DUP6 SWAP1 MSTORE SWAP1 DUP3 SWAP1 DUP3 SWAP1 PUSH1 0x44 SWAP1 DUP3 SWAP1 PUSH1 0x0 SWAP1 GAS CALL SWAP1 DUP2 ISZERO PUSH2 0xADA JUMPI PUSH1 0x0 SWAP2 PUSH2 0x2586 JUMPI JUMPDEST POP ISZERO PUSH2 0x2552 JUMPI PUSH32 0x7A482FDEB6BC9A1376F597068A214A7A39472BB2EFF1B8CAD21BA04F49DDCA1B SWAP1 PUSH1 0x40 MLOAD SWAP4 DUP5 MSTORE CALLER SWAP4 LOG3 PUSH1 0x1 DUP1 SSTORE STOP JUMPDEST PUSH1 0x64 SWAP1 PUSH1 0x40 MLOAD SWAP1 PUSH3 0x461BCD PUSH1 0xE5 SHL DUP3 MSTORE PUSH1 0x4 DUP3 ADD MSTORE PUSH1 0xD PUSH1 0x24 DUP3 ADD MSTORE PUSH13 0x1499599D5B990819985A5B1959 PUSH1 0x9A SHL PUSH1 0x44 DUP3 ADD MSTORE REVERT JUMPDEST PUSH2 0x259D SWAP2 POP DUP3 RETURNDATASIZE DUP5 GT PUSH2 0xBE9 JUMPI PUSH2 0xBDB DUP2 DUP4 PUSH2 0x3695 JUMP JUMPDEST DUP5 PUSH2 0x251B JUMP JUMPDEST POP POP DUP3 DUP2 DUP2 RETURNDATASIZE DUP4 GT PUSH2 0x25CD JUMPI JUMPDEST PUSH2 0x25BA DUP2 DUP4 PUSH2 0x3695 JUMP JUMPDEST DUP2 ADD SUB SLT PUSH2 0x394 JUMPI DUP5 PUSH2 0x24E3 SWAP2 MLOAD PUSH2 0x24D7 JUMP JUMPDEST POP RETURNDATASIZE PUSH2 0x25B0 JUMP JUMPDEST PUSH1 0x40 MLOAD PUSH3 0x461BCD PUSH1 0xE5 SHL DUP2 MSTORE PUSH1 0x4 DUP2 ADD DUP4 SWAP1 MSTORE PUSH1 0x11 PUSH1 0x24 DUP3 ADD MSTORE PUSH17 0x139BC818995D1CC81D1BC81C99599D5B99 PUSH1 0x7A SHL PUSH1 0x44 DUP3 ADD MSTORE PUSH1 0x64 SWAP1 REVERT JUMPDEST PUSH1 0x40 MLOAD PUSH3 0x461BCD PUSH1 0xE5 SHL DUP2 MSTORE PUSH1 0x4 DUP2 ADD DUP4 SWAP1 MSTORE PUSH1 0x16 PUSH1 0x24 DUP3 ADD MSTORE PUSH22 0x105B1C9958591E4818DB185A5B5959081C99599D5B99 PUSH1 0x52 SHL PUSH1 0x44 DUP3 ADD MSTORE PUSH1 0x64 SWAP1 REVERT JUMPDEST PUSH1 0x64 SWAP1 PUSH1 0x40 MLOAD SWAP1 PUSH3 0x461BCD PUSH1 0xE5 SHL DUP3 MSTORE PUSH1 0x4 DUP3 ADD MSTORE PUSH1 0x14 PUSH1 0x24 DUP3 ADD MSTORE PUSH20 0x111D595B081A5CC81B9BDD0818D85B98D95B1959 PUSH1 0x62 SHL PUSH1 0x44 DUP3 ADD MSTORE REVERT JUMPDEST CALLVALUE PUSH2 0x394 JUMPI PUSH1 0x0 CALLDATASIZE PUSH1 0x3 NOT ADD SLT PUSH2 0x394 JUMPI PUSH1 0x20 PUSH1 0x4 SLOAD PUSH1 0x40 MLOAD SWAP1 DUP2 MSTORE RETURN JUMPDEST CALLVALUE PUSH2 0x394 JUMPI PUSH1 0x20 CALLDATASIZE PUSH1 0x3 NOT ADD SLT PUSH2 0x394 JUMPI PUSH1 0x1 PUSH1 0x1 PUSH1 0xA0 SHL SUB PUSH2 0x26C5 PUSH2 0x3638 JUMP JUMPDEST AND PUSH1 0x0 MSTORE PUSH1 0xD PUSH1 0x20 MSTORE PUSH1 0x20 PUSH1 0x64 PUSH1 0x40 PUSH1 0x0 KECCAK256 SLOAD LT ISZERO PUSH1 0x40 MLOAD SWAP1 DUP2 MSTORE RETURN JUMPDEST CALLVALUE PUSH2 0x394 JUMPI PUSH1 0x20 CALLDATASIZE PUSH1 0x3 NOT ADD SLT PUSH2 0x394 JUMPI PUSH32 0xECA1FF7C6CCE8E8F96D1079CE3963040ED0A17BDF364455EC36EE6836CC8448E PUSH1 0x20 PUSH1 0x4 CALLDATALOAD PUSH2 0x2721 PUSH2 0x38DC JUMP JUMPDEST DUP1 PUSH1 0x8 SSTORE PUSH1 0x40 MLOAD SWAP1 DUP2 MSTORE LOG1 STOP JUMPDEST CALLVALUE PUSH2 0x394 JUMPI PUSH1 0x0 CALLDATASIZE PUSH1 0x3 NOT ADD SLT PUSH2 0x394 JUMPI PUSH1 0x20 PUSH1 0x7 SLOAD PUSH1 0x40 MLOAD SWAP1 DUP2 MSTORE RETURN JUMPDEST CALLVALUE PUSH2 0x394 JUMPI PUSH1 0x20 PUSH2 0x2780 PUSH2 0x275F CALLDATASIZE PUSH2 0x3664 JUMP JUMPDEST SWAP1 PUSH2 0x276C PUSH1 0x3 DUP4 LT PUSH2 0x3934 JUMP JUMPDEST PUSH1 0x0 MSTORE PUSH1 0x11 DUP4 MSTORE PUSH1 0xB PUSH1 0x40 PUSH1 0x0 KECCAK256 ADD PUSH2 0x3975 JUMP JUMPDEST SWAP1 SLOAD SWAP1 PUSH1 0x3 SHL SHR PUSH1 0x40 MLOAD SWAP1 DUP2 MSTORE RETURN JUMPDEST CALLVALUE PUSH2 0x394 JUMPI PUSH1 0x0 CALLDATASIZE PUSH1 0x3 NOT ADD SLT PUSH2 0x394 JUMPI PUSH1 0x40 MLOAD PUSH32 0x0 PUSH1 0x1 PUSH1 0x1 PUSH1 0xA0 SHL SUB AND DUP2 MSTORE PUSH1 0x20 SWAP1 RETURN JUMPDEST CALLVALUE PUSH2 0x394 JUMPI PUSH1 0x0 CALLDATASIZE PUSH1 0x3 NOT ADD SLT PUSH2 0x394 JUMPI PUSH2 0x27ED PUSH2 0x38DC JUMP JUMPDEST PUSH1 0x2 SLOAD PUSH1 0xFF DUP2 AND ISZERO PUSH2 0x282C JUMPI PUSH1 0xFF NOT AND PUSH1 0x2 SSTORE PUSH32 0x5DB9EE0A495BF2E6FF9C91A7834C1BA4FDD244A5E8AA4E537BD38AEAE4B073AA PUSH1 0x20 PUSH1 0x40 MLOAD CALLER DUP2 MSTORE LOG1 STOP JUMPDEST PUSH1 0x40 MLOAD PUSH3 0x461BCD PUSH1 0xE5 SHL DUP2 MSTORE PUSH1 0x20 PUSH1 0x4 DUP3 ADD MSTORE PUSH1 0x14 PUSH1 0x24 DUP3 ADD MSTORE PUSH20 0x14185D5CD8589B194E881B9BDD081C185D5CD959 PUSH1 0x62 SHL PUSH1 0x44 DUP3 ADD MSTORE PUSH1 0x64 SWAP1 REVERT JUMPDEST CALLVALUE PUSH2 0x394 JUMPI PUSH1 0x40 CALLDATASIZE PUSH1 0x3 NOT ADD SLT PUSH2 0x394 JUMPI PUSH2 0x2881 PUSH2 0x3638 JUMP JUMPDEST PUSH2 0x2889 PUSH2 0x370C JUMP JUMPDEST SWAP1 PUSH2 0x2892 PUSH2 0x38DC JUMP JUMPDEST PUSH1 0x1 PUSH1 0x1 PUSH1 0xA0 SHL SUB AND SWAP1 DUP2 ISZERO PUSH2 0x28E8 JUMPI PUSH1 0x20 PUSH32 0xE1C45AFF1A1F4055C2BEE5EB0020BF064559E9BD1435A6CC044461AE0C68A1A SWAP2 DUP4 PUSH1 0x0 MSTORE PUSH1 0xF DUP3 MSTORE PUSH2 0x460 DUP2 PUSH1 0x40 PUSH1 0x0 KECCAK256 SWAP1 PUSH1 0xFF DUP1 NOT DUP4 SLOAD AND SWAP2 ISZERO ISZERO AND OR SWAP1 SSTORE JUMP JUMPDEST PUSH1 0x40 MLOAD PUSH3 0x461BCD PUSH1 0xE5 SHL DUP2 MSTORE PUSH1 0x20 PUSH1 0x4 DUP3 ADD MSTORE PUSH1 0x19 PUSH1 0x24 DUP3 ADD MSTORE PUSH32 0x496E76616C6964206D6F64657261746F72206164647265737300000000000000 PUSH1 0x44 DUP3 ADD MSTORE PUSH1 0x64 SWAP1 REVERT JUMPDEST CALLVALUE PUSH2 0x394 JUMPI PUSH1 0x20 DUP1 PUSH1 0x3 NOT CALLDATASIZE ADD SLT PUSH2 0x394 JUMPI PUSH1 0x4 CALLDATALOAD PUSH2 0x294A PUSH2 0x3DCB JUMP JUMPDEST DUP1 PUSH1 0x0 MSTORE PUSH1 0x11 DUP3 MSTORE PUSH1 0x40 PUSH1 0x0 KECCAK256 SWAP2 PUSH1 0x7 DUP4 ADD SLOAD PUSH1 0xFF DUP2 AND ISZERO PUSH2 0x2CE7 JUMPI PUSH1 0x8 SHR PUSH1 0xFF AND PUSH2 0x2CB0 JUMPI PUSH1 0x10 DUP4 ADD SWAP3 CALLER PUSH1 0x0 MSTORE DUP4 DUP3 MSTORE PUSH1 0xFF PUSH1 0x40 PUSH1 0x0 KECCAK256 SLOAD AND PUSH2 0x2C79 JUMPI PUSH1 0x8 DUP2 ADD SLOAD CALLER PUSH1 0x0 MSTORE PUSH1 0xF DUP3 ADD DUP4 MSTORE PUSH2 0x29A6 DUP2 PUSH1 0x40 PUSH1 0x0 KECCAK256 PUSH2 0x3975 JUMP JUMPDEST SWAP1 SLOAD SWAP1 PUSH1 0x3 SHL SHR SWAP5 DUP6 ISZERO PUSH2 0x2C42 JUMPI PUSH2 0x29FA PUSH2 0x29E2 PUSH2 0x2A05 SWAP5 SWAP4 PUSH2 0x2A00 SWAP4 CALLER PUSH1 0x0 MSTORE DUP8 MSTORE PUSH1 0x40 PUSH1 0x0 KECCAK256 PUSH1 0x1 PUSH1 0xFF NOT DUP3 SLOAD AND OR SWAP1 SSTORE PUSH1 0xB DUP6 ADD PUSH2 0x3975 JUMP JUMPDEST SWAP1 SLOAD SWAP1 PUSH1 0x3 SHL SHR SWAP3 PUSH1 0xA PUSH1 0x9 DUP3 ADD SLOAD SWAP2 ADD SLOAD SWAP1 PUSH2 0x399B JUMP JUMPDEST DUP7 PUSH2 0x39A8 JUMP JUMPDEST PUSH2 0x39BB JUMP JUMPDEST SWAP3 DUP1 DUP5 LT PUSH2 0x2C3A JUMPI JUMPDEST POP PUSH1 0x0 SWAP1 DUP3 PUSH1 0x0 MSTORE PUSH1 0x12 DUP2 MSTORE PUSH1 0x40 PUSH1 0x0 KECCAK256 CALLER PUSH1 0x0 MSTORE DUP2 MSTORE PUSH1 0x40 PUSH1 0x0 KECCAK256 SLOAD PUSH1 0x6 SLOAD GT ISZERO PUSH2 0x2C1A JUMPI JUMPDEST CALLER PUSH1 0x0 MSTORE PUSH1 0xA DUP2 MSTORE PUSH1 0x40 PUSH1 0x0 KECCAK256 DUP1 SLOAD SWAP1 DUP2 PUSH2 0x2BBB JUMPI JUMPDEST POP POP PUSH2 0x2A57 DUP3 DUP6 PUSH2 0x3BC3 JUMP JUMPDEST PUSH1 0x40 MLOAD PUSH4 0x70A08231 PUSH1 0xE0 SHL DUP2 MSTORE ADDRESS PUSH1 0x4 DUP3 ADD MSTORE PUSH32 0x0 PUSH1 0x1 PUSH1 0x1 PUSH1 0xA0 SHL SUB AND SWAP2 DUP4 DUP3 PUSH1 0x24 DUP2 DUP7 GAS STATICCALL DUP1 ISZERO PUSH2 0xADA JUMPI DUP5 SWAP3 PUSH1 0x0 SWAP2 PUSH2 0x2B8A JUMPI JUMPDEST POP SWAP3 DUP2 PUSH2 0x2AC1 PUSH2 0x2AEB SWAP4 PUSH1 0x0 SWAP7 LT ISZERO PUSH2 0x3F4F JUMP JUMPDEST PUSH1 0x40 MLOAD PUSH4 0xA9059CBB PUSH1 0xE0 SHL DUP2 MSTORE CALLER PUSH1 0x4 DUP3 ADD MSTORE PUSH1 0x24 DUP2 ADD SWAP2 SWAP1 SWAP2 MSTORE SWAP4 DUP5 SWAP3 DUP4 SWAP2 SWAP1 DUP3 SWAP1 PUSH1 0x44 DUP3 ADD SWAP1 JUMP JUMPDEST SUB SWAP3 GAS CALL SWAP1 DUP2 ISZERO PUSH2 0xADA JUMPI PUSH1 0x0 SWAP2 PUSH2 0x2B6D JUMPI JUMPDEST POP ISZERO PUSH2 0x2B39 JUMPI PUSH1 0x40 MLOAD SWAP4 DUP5 MSTORE DUP4 ADD MSTORE PUSH32 0x16EB6194EC5E287F7418C9784085DBBF1EEDD440C05DBB3C961F4A141E857BAF PUSH1 0x40 CALLER SWAP4 LOG3 PUSH1 0x1 DUP1 SSTORE STOP JUMPDEST PUSH1 0x64 SWAP1 PUSH1 0x40 MLOAD SWAP1 PUSH3 0x461BCD PUSH1 0xE5 SHL DUP3 MSTORE PUSH1 0x4 DUP3 ADD MSTORE PUSH1 0xD PUSH1 0x24 DUP3 ADD MSTORE PUSH13 0x14185E5BDD5D0819985A5B1959 PUSH1 0x9A SHL PUSH1 0x44 DUP3 ADD MSTORE REVERT JUMPDEST PUSH2 0x2B84 SWAP2 POP DUP3 RETURNDATASIZE DUP5 GT PUSH2 0xBE9 JUMPI PUSH2 0xBDB DUP2 DUP4 PUSH2 0x3695 JUMP JUMPDEST DUP6 PUSH2 0x2AFE JUMP JUMPDEST DUP4 DUP2 SWAP4 SWAP5 SWAP3 POP RETURNDATASIZE DUP4 GT PUSH2 0x2BB4 JUMPI JUMPDEST PUSH2 0x2BA2 DUP2 DUP4 PUSH2 0x3695 JUMP JUMPDEST DUP2 ADD SUB SLT PUSH2 0x394 JUMPI MLOAD DUP4 SWAP2 SWAP1 DUP2 PUSH2 0x2AAD JUMP JUMPDEST POP RETURNDATASIZE PUSH2 0x2B98 JUMP JUMPDEST PUSH2 0x2BD6 SWAP6 PUSH2 0x2BDD SWAP3 SWAP2 DUP2 DUP4 GT ISZERO PUSH2 0x2C10 JUMPI DUP2 SWAP8 DUP9 DUP1 SWAP5 PUSH2 0x399B JUMP JUMPDEST SWAP1 SSTORE PUSH2 0x399B JUMP JUMPDEST SWAP4 PUSH1 0x40 MLOAD SWAP1 DUP2 MSTORE PUSH32 0x8A073C194E1CCDF6688351AC0E3FA50683A2A88723662368BDB9C18064A0304E DUP3 CALLER SWAP3 LOG2 DUP5 DUP1 PUSH2 0x2A4B JUMP JUMPDEST DUP3 SWAP8 DUP9 DUP1 SWAP5 PUSH2 0x399B JUMP JUMPDEST SWAP1 POP PUSH2 0x1F4 DUP1 DUP5 MUL SWAP1 DUP5 DUP3 DIV EQ DUP5 ISZERO OR ISZERO PUSH2 0x69B JUMPI PUSH2 0x2710 SWAP1 DIV SWAP1 PUSH2 0x2A35 JUMP JUMPDEST SWAP3 POP DUP4 PUSH2 0x2A0E JUMP JUMPDEST PUSH1 0x40 MLOAD PUSH3 0x461BCD PUSH1 0xE5 SHL DUP2 MSTORE PUSH1 0x4 DUP2 ADD DUP6 SWAP1 MSTORE PUSH1 0xF PUSH1 0x24 DUP3 ADD MSTORE PUSH15 0x4E6F2077696E6E696E672062657473 PUSH1 0x88 SHL PUSH1 0x44 DUP3 ADD MSTORE PUSH1 0x64 SWAP1 REVERT JUMPDEST PUSH1 0x40 MLOAD PUSH3 0x461BCD PUSH1 0xE5 SHL DUP2 MSTORE PUSH1 0x4 DUP2 ADD DUP4 SWAP1 MSTORE PUSH1 0xF PUSH1 0x24 DUP3 ADD MSTORE PUSH15 0x105B1C9958591E4818DB185A5B5959 PUSH1 0x8A SHL PUSH1 0x44 DUP3 ADD MSTORE PUSH1 0x64 SWAP1 REVERT JUMPDEST PUSH1 0x64 SWAP1 PUSH1 0x40 MLOAD SWAP1 PUSH3 0x461BCD PUSH1 0xE5 SHL DUP3 MSTORE PUSH1 0x4 DUP3 ADD MSTORE PUSH1 0x10 PUSH1 0x24 DUP3 ADD MSTORE PUSH16 0x111D595B081A5CC818D85B98D95B1959 PUSH1 0x82 SHL PUSH1 0x44 DUP3 ADD MSTORE REVERT JUMPDEST PUSH1 0x40 MLOAD PUSH3 0x461BCD PUSH1 0xE5 SHL DUP2 MSTORE PUSH1 0x4 DUP2 ADD DUP4 SWAP1 MSTORE PUSH1 0x14 PUSH1 0x24 DUP3 ADD MSTORE PUSH20 0x111D595B081A5CC81B9BDD081C995CDBDB1D9959 PUSH1 0x62 SHL PUSH1 0x44 DUP3 ADD MSTORE PUSH1 0x64 SWAP1 REVERT JUMPDEST CALLVALUE PUSH2 0x394 JUMPI PUSH1 0xA0 CALLDATASIZE PUSH1 0x3 NOT ADD SLT PUSH2 0x394 JUMPI PUSH1 0x4 CALLDATALOAD PUSH1 0x1 PUSH1 0x1 PUSH1 0x40 SHL SUB DUP2 GT PUSH2 0x394 JUMPI PUSH2 0x2D53 SWAP1 CALLDATASIZE SWAP1 PUSH1 0x4 ADD PUSH2 0x36B6 JUMP JUMPDEST PUSH1 0x24 CALLDATALOAD PUSH1 0x1 PUSH1 0x1 PUSH1 0x40 SHL SUB DUP2 GT PUSH2 0x394 JUMPI PUSH2 0x2D72 SWAP1 CALLDATASIZE SWAP1 PUSH1 0x4 ADD PUSH2 0x36B6 JUMP JUMPDEST PUSH1 0x44 CALLDATALOAD ISZERO ISZERO PUSH1 0x44 CALLDATALOAD SUB PUSH2 0x394 JUMPI PUSH1 0x64 CALLDATALOAD PUSH1 0x1 PUSH1 0x1 PUSH1 0x40 SHL SUB DUP2 GT PUSH2 0x394 JUMPI PUSH2 0x2D9E SWAP1 CALLDATASIZE SWAP1 PUSH1 0x4 ADD PUSH2 0x371B JUMP JUMPDEST SWAP2 PUSH2 0x2DA7 PUSH2 0x38DC JUMP JUMPDEST PUSH2 0x2DAF PUSH2 0x3D87 JUMP JUMPDEST PUSH2 0xE10 TIMESTAMP ADD DUP1 TIMESTAMP GT PUSH2 0x69B JUMPI PUSH2 0x2DC8 SWAP1 PUSH1 0x84 CALLDATALOAD GT PUSH2 0x3BD0 JUMP JUMPDEST PUSH4 0x1E13380 TIMESTAMP ADD DUP1 TIMESTAMP GT PUSH2 0x69B JUMPI PUSH2 0x2DE3 SWAP1 PUSH1 0x84 CALLDATALOAD LT PUSH2 0x3C10 JUMP JUMPDEST PUSH2 0x2DF7 DUP2 MLOAD DUP1 ISZERO ISZERO SWAP1 DUP2 PUSH2 0x2299 JUMPI POP PUSH2 0x3C4F JUMP JUMPDEST PUSH2 0x2E0B DUP3 MLOAD DUP1 ISZERO ISZERO SWAP1 DUP2 PUSH2 0x228D JUMPI POP PUSH2 0x3C8B JUMP JUMPDEST PUSH1 0x0 JUMPDEST PUSH1 0x3 DUP2 LT PUSH2 0x3218 JUMPI POP PUSH1 0x4 SLOAD SWAP3 DUP4 PUSH1 0x0 MSTORE PUSH1 0x11 PUSH1 0x20 MSTORE PUSH1 0x40 PUSH1 0x0 KECCAK256 DUP3 MLOAD PUSH1 0x1 PUSH1 0x1 PUSH1 0x40 SHL SUB DUP2 GT PUSH2 0x1EB5 JUMPI PUSH2 0x2E43 DUP3 SLOAD PUSH2 0x377E JUMP JUMPDEST PUSH1 0x1F DUP2 GT PUSH2 0x31E6 JUMPI JUMPDEST POP DUP1 PUSH1 0x20 PUSH1 0x1F DUP3 GT PUSH1 0x1 EQ PUSH2 0x3182 JUMPI PUSH1 0x0 SWAP2 PUSH2 0x3177 JUMPI JUMPDEST POP DUP2 PUSH1 0x1 SHL SWAP2 PUSH1 0x0 NOT SWAP1 PUSH1 0x3 SHL SHR NOT AND OR DUP2 SSTORE JUMPDEST DUP4 MLOAD PUSH1 0x1 PUSH1 0x1 PUSH1 0x40 SHL SUB DUP2 GT PUSH2 0x1EB5 JUMPI PUSH2 0x2E94 PUSH1 0x1 DUP4 ADD SLOAD PUSH2 0x377E JUMP JUMPDEST PUSH1 0x1F DUP2 GT PUSH2 0x3142 JUMPI JUMPDEST POP DUP1 PUSH1 0x20 PUSH1 0x1F DUP3 GT PUSH1 0x1 EQ PUSH2 0x30D1 JUMPI PUSH1 0x0 SWAP2 PUSH2 0x30C6 JUMPI JUMPDEST POP DUP2 PUSH1 0x1 SHL SWAP2 PUSH1 0x0 NOT SWAP1 PUSH1 0x3 SHL SHR NOT AND OR PUSH1 0x1 DUP3 ADD SSTORE SWAP1 DUP5 SWAP3 SWAP2 JUMPDEST PUSH1 0x3 DUP2 ADD PUSH1 0x0 DUP4 JUMPDEST PUSH1 0x3 DUP3 LT PUSH2 0x2FA7 JUMPI POP POP POP PUSH1 0x84 CALLDATALOAD PUSH1 0x6 DUP3 ADD SSTORE PUSH1 0xE ADD DUP1 SLOAD PUSH1 0x1 PUSH1 0x1 PUSH1 0xA0 SHL SUB NOT AND CALLER OR SWAP1 SSTORE PUSH32 0x6E3A1184B10D42FD7CFA70094B21ECBD3BB215615FBB7EE4BFA7D1CD8B41C55A SWAP2 SWAP1 PUSH1 0x44 CALLDATALOAD PUSH2 0x2F89 JUMPI JUMPDEST PUSH2 0x2F3D PUSH1 0x40 MLOAD SWAP3 DUP4 SWAP3 CALLER SWAP8 PUSH1 0x84 CALLDATALOAD SWAP3 DUP6 PUSH2 0x3D48 JUMP JUMPDEST SUB SWAP1 LOG3 PUSH1 0x44 CALLDATALOAD PUSH2 0x2F58 JUMPI JUMPDEST PUSH2 0x2F53 PUSH1 0x4 SLOAD PUSH2 0x3AE4 JUMP JUMPDEST PUSH1 0x4 SSTORE STOP JUMPDEST PUSH32 0xF55821CEBA42951B9AA03907B558E1375E504CED6C60BBDF3025384EB0D51318 PUSH1 0x20 PUSH1 0x40 MLOAD PUSH1 0x1 DUP2 MSTORE LOG2 DUP1 PUSH2 0x2F48 JUMP JUMPDEST DUP4 PUSH1 0x0 MSTORE PUSH1 0xE PUSH1 0x20 MSTORE PUSH1 0x40 PUSH1 0x0 KECCAK256 PUSH1 0x1 PUSH1 0xFF NOT DUP3 SLOAD AND OR SWAP1 SSTORE PUSH2 0x2F28 JUMP JUMPDEST DUP1 SWAP2 SWAP3 SWAP4 SWAP5 SWAP6 SWAP7 POP MLOAD DUP1 MLOAD SWAP1 PUSH1 0x1 PUSH1 0x1 PUSH1 0x40 SHL SUB DUP3 GT PUSH2 0x1EB5 JUMPI PUSH2 0x2FCB DUP6 SLOAD PUSH2 0x377E JUMP JUMPDEST PUSH1 0x1F DUP2 GT PUSH2 0x3094 JUMPI JUMPDEST POP PUSH1 0x20 SWAP1 PUSH1 0x1F DUP4 GT PUSH1 0x1 EQ PUSH2 0x3024 JUMPI SWAP3 DUP3 PUSH1 0x1 SWAP5 SWAP4 PUSH1 0x20 SWAP4 DUP7 SWAP6 PUSH1 0x0 SWAP3 PUSH2 0x3019 JUMPI JUMPDEST POP POP PUSH1 0x0 NOT PUSH1 0x3 DUP4 SWAP1 SHL SHR NOT AND SWAP1 DUP5 SHL OR DUP7 SSTORE JUMPDEST ADD SWAP4 ADD SWAP2 ADD DUP8 SWAP6 SWAP5 SWAP4 SWAP3 PUSH2 0x2ED7 JUMP JUMPDEST ADD MLOAD SWAP1 POP DUP14 DUP1 PUSH2 0x2FF6 JUMP JUMPDEST SWAP1 DUP6 PUSH1 0x0 MSTORE PUSH1 0x20 PUSH1 0x0 KECCAK256 SWAP2 PUSH1 0x0 JUMPDEST PUSH1 0x1F NOT DUP6 AND DUP2 LT PUSH2 0x307C JUMPI POP DUP4 PUSH1 0x20 SWAP4 PUSH1 0x1 SWAP7 SWAP4 DUP8 SWAP7 SWAP4 DUP8 SWAP5 PUSH1 0x1F NOT DUP2 AND LT PUSH2 0x3063 JUMPI JUMPDEST POP POP POP DUP2 SHL ADD DUP7 SSTORE PUSH2 0x300A JUMP JUMPDEST ADD MLOAD PUSH1 0x0 NOT PUSH1 0xF8 DUP5 PUSH1 0x3 SHL AND SHR NOT AND SWAP1 SSTORE DUP14 DUP1 DUP1 PUSH2 0x3056 JUMP JUMPDEST SWAP2 SWAP3 PUSH1 0x20 PUSH1 0x1 DUP2 SWAP3 DUP7 DUP6 ADD MLOAD DUP2 SSTORE ADD SWAP5 ADD SWAP3 ADD PUSH2 0x3032 JUMP JUMPDEST PUSH2 0x30C0 SWAP1 DUP7 PUSH1 0x0 MSTORE PUSH1 0x20 PUSH1 0x0 KECCAK256 PUSH1 0x5 PUSH1 0x1F DUP7 ADD DUP2 SHR DUP3 ADD SWAP3 PUSH1 0x20 DUP8 LT PUSH2 0x1EAB JUMPI PUSH1 0x1F ADD SWAP1 SHR ADD SWAP1 PUSH2 0x3D31 JUMP JUMPDEST DUP11 PUSH2 0x2FD4 JUMP JUMPDEST SWAP1 POP DUP6 ADD MLOAD DUP8 PUSH2 0x2EB4 JUMP JUMPDEST SWAP2 POP PUSH1 0x1 DUP4 ADD PUSH1 0x0 MSTORE PUSH1 0x20 PUSH1 0x0 KECCAK256 PUSH1 0x0 SWAP3 JUMPDEST PUSH1 0x1F NOT DUP4 AND DUP5 LT PUSH2 0x312A JUMPI PUSH1 0x1 SWAP4 POP DUP3 PUSH1 0x1F NOT DUP2 AND LT PUSH2 0x3111 JUMPI JUMPDEST POP POP DUP2 SHL ADD PUSH1 0x1 DUP3 ADD SSTORE SWAP1 DUP5 SWAP3 SWAP2 PUSH2 0x2ECF JUMP JUMPDEST DUP8 ADD MLOAD PUSH1 0x0 NOT PUSH1 0xF8 DUP5 PUSH1 0x3 SHL AND SHR NOT AND SWAP1 SSTORE DUP8 DUP1 PUSH2 0x30FE JUMP JUMPDEST DUP8 DUP2 ADD MLOAD DUP3 SSTORE PUSH1 0x20 SWAP4 DUP5 ADD SWAP4 PUSH1 0x1 SWAP1 SWAP3 ADD SWAP2 ADD PUSH2 0x30E3 JUMP JUMPDEST PUSH2 0x3171 SWAP1 PUSH1 0x1 DUP5 ADD PUSH1 0x0 MSTORE PUSH1 0x20 PUSH1 0x0 KECCAK256 PUSH1 0x1F DUP5 ADD PUSH1 0x5 SHR DUP2 ADD SWAP2 PUSH1 0x20 DUP6 LT PUSH2 0x1F79 JUMPI PUSH1 0x1F ADD PUSH1 0x5 SHR ADD SWAP1 PUSH2 0x3D31 JUMP JUMPDEST DUP7 PUSH2 0x2E9D JUMP JUMPDEST SWAP1 POP DUP5 ADD MLOAD DUP8 PUSH2 0x2E63 JUMP JUMPDEST PUSH1 0x0 DUP5 DUP2 MSTORE PUSH1 0x20 DUP2 KECCAK256 SWAP3 POP PUSH1 0x1F NOT DUP5 AND SWAP1 JUMPDEST DUP2 DUP2 LT PUSH2 0x31CE JUMPI POP SWAP1 DUP4 PUSH1 0x1 SWAP5 SWAP4 SWAP3 LT PUSH2 0x31B5 JUMPI JUMPDEST POP POP DUP2 SHL ADD DUP2 SSTORE PUSH2 0x2E77 JUMP JUMPDEST DUP7 ADD MLOAD PUSH1 0x0 NOT PUSH1 0xF8 DUP5 PUSH1 0x3 SHL AND SHR NOT AND SWAP1 SSTORE DUP8 DUP1 PUSH2 0x31A9 JUMP JUMPDEST SWAP2 SWAP3 PUSH1 0x20 PUSH1 0x1 DUP2 SWAP3 DUP7 DUP12 ADD MLOAD DUP2 SSTORE ADD SWAP5 ADD SWAP3 ADD PUSH2 0x3194 JUMP JUMPDEST PUSH2 0x3212 SWAP1 DUP4 PUSH1 0x0 MSTORE PUSH1 0x20 PUSH1 0x0 KECCAK256 PUSH1 0x1F DUP5 ADD PUSH1 0x5 SHR DUP2 ADD SWAP2 PUSH1 0x20 DUP6 LT PUSH2 0x1F79 JUMPI PUSH1 0x1F ADD PUSH1 0x5 SHR ADD SWAP1 PUSH2 0x3D31 JUMP JUMPDEST DUP7 PUSH2 0x2E4C JUMP JUMPDEST DUP1 PUSH2 0x3226 PUSH2 0x3238 SWAP3 DUP7 PUSH2 0x3CCA JUMP JUMPDEST MLOAD MLOAD ISZERO ISZERO DUP1 PUSH2 0x323D JUMPI PUSH2 0x2268 SWAP1 PUSH2 0x3CDB JUMP JUMPDEST PUSH2 0x2E0E JUMP JUMPDEST POP PUSH2 0x2268 PUSH1 0x32 PUSH2 0x2282 DUP4 DUP9 PUSH2 0x3CCA JUMP JUMPDEST CALLVALUE PUSH2 0x394 JUMPI PUSH1 0x0 CALLDATASIZE PUSH1 0x3 NOT ADD SLT PUSH2 0x394 JUMPI PUSH1 0xB SLOAD PUSH1 0x40 MLOAD PUSH1 0x1 PUSH1 0x1 PUSH1 0xA0 SHL SUB SWAP1 SWAP2 AND DUP2 MSTORE PUSH1 0x20 SWAP1 RETURN JUMPDEST CALLVALUE PUSH2 0x394 JUMPI PUSH1 0x20 CALLDATASIZE PUSH1 0x3 NOT ADD SLT PUSH2 0x394 JUMPI PUSH1 0x4 CALLDATALOAD PUSH2 0x3292 PUSH2 0x38DC JUMP JUMPDEST DUP1 PUSH1 0x0 MSTORE PUSH1 0x11 PUSH1 0x20 MSTORE PUSH1 0x40 PUSH1 0x0 KECCAK256 PUSH1 0x7 DUP2 ADD SWAP1 DUP2 SLOAD SWAP1 PUSH1 0xFF DUP3 AND ISZERO DUP1 PUSH2 0x33AD JUMPI JUMPDEST ISZERO PUSH2 0x335C JUMPI PUSH1 0x6 PUSH2 0x32C8 SWAP2 ADD SLOAD TIMESTAMP LT ISZERO PUSH2 0x3F0C JUMP JUMPDEST PUSH2 0x32D1 DUP4 PUSH2 0x3AF3 JUMP JUMPDEST PUSH2 0x3307 JUMPI PUSH2 0xFF00 NOT AND PUSH2 0x100 OR SWAP1 SSTORE PUSH32 0xBB08ACBD04FEAFC2C9A5DBFBA32CD5488E51D178EBB70F355C6E0B00CDA5EF87 PUSH1 0x0 DUP1 LOG2 STOP JUMPDEST PUSH1 0x40 MLOAD PUSH3 0x461BCD PUSH1 0xE5 SHL DUP2 MSTORE PUSH1 0x20 PUSH1 0x4 DUP3 ADD MSTORE PUSH1 0x27 PUSH1 0x24 DUP3 ADD MSTORE PUSH32 0x4475656C2069732062616C616E63656420616E642063616E6E6F742062652063 PUSH1 0x44 DUP3 ADD MSTORE PUSH7 0x185B98D95B1959 PUSH1 0xCA SHL PUSH1 0x64 DUP3 ADD MSTORE PUSH1 0x84 SWAP1 REVERT JUMPDEST PUSH1 0x40 MLOAD PUSH3 0x461BCD PUSH1 0xE5 SHL DUP2 MSTORE PUSH1 0x20 PUSH1 0x4 DUP3 ADD MSTORE PUSH1 0x24 DUP1 DUP3 ADD MSTORE PUSH32 0x4475656C206973207265736F6C766564206F7220616C72656164792063616E63 PUSH1 0x44 DUP3 ADD MSTORE PUSH4 0x195B1959 PUSH1 0xE2 SHL PUSH1 0x64 DUP3 ADD MSTORE PUSH1 0x84 SWAP1 REVERT JUMPDEST POP PUSH1 0xFF DUP3 PUSH1 0x8 SHR AND ISZERO PUSH2 0x32B3 JUMP JUMPDEST CALLVALUE PUSH2 0x394 JUMPI PUSH1 0x0 CALLDATASIZE PUSH1 0x3 NOT ADD SLT PUSH2 0x394 JUMPI PUSH1 0x20 PUSH1 0xFF PUSH1 0x9 SLOAD AND PUSH1 0x40 MLOAD SWAP1 ISZERO ISZERO DUP2 MSTORE RETURN JUMPDEST CALLVALUE PUSH2 0x394 JUMPI PUSH2 0x33EC CALLDATASIZE PUSH2 0x3664 JUMP JUMPDEST CALLER PUSH1 0x0 MSTORE PUSH1 0x20 SWAP1 PUSH1 0x13 DUP3 MSTORE PUSH1 0xFF PUSH1 0x40 PUSH1 0x0 KECCAK256 SLOAD AND DUP1 ISZERO PUSH2 0x3579 JUMPI JUMPDEST PUSH2 0x3410 SWAP1 PUSH2 0x3EC0 JUMP JUMPDEST PUSH1 0x40 MLOAD DUP3 DUP2 ADD SWAP1 DUP5 DUP3 MSTORE DUP3 PUSH1 0x40 DUP3 ADD MSTORE PUSH1 0x40 DUP2 MSTORE PUSH2 0x342D DUP2 PUSH2 0x367A JUMP JUMPDEST MLOAD SWAP1 KECCAK256 DUP1 PUSH1 0x0 MSTORE PUSH1 0x10 DUP4 MSTORE PUSH1 0x40 PUSH1 0x0 KECCAK256 SLOAD ISZERO PUSH2 0x353C JUMPI DUP1 PUSH1 0x0 MSTORE PUSH1 0x10 DUP4 MSTORE PUSH1 0x40 PUSH1 0x0 KECCAK256 SLOAD TIMESTAMP LT PUSH2 0x3500 JUMPI SWAP1 PUSH32 0x147951699DA2828EEF91AD406D09DDD88BE2FBC13C15B98C3228C3D80E6999FF SWAP3 SWAP2 DUP5 PUSH1 0x0 MSTORE PUSH1 0x11 DUP4 MSTORE DUP2 PUSH1 0x8 PUSH1 0x40 PUSH1 0x0 KECCAK256 PUSH1 0x7 DUP2 ADD PUSH2 0x34A5 DUP2 SLOAD PUSH1 0xFF DUP2 AND ISZERO SWAP1 DUP2 PUSH2 0x34F2 JUMPI POP PUSH2 0x3E63 JUMP JUMPDEST PUSH2 0x34CB PUSH2 0x2710 PUSH2 0x34BC PUSH1 0x9 DUP6 ADD SLOAD PUSH1 0x3 SLOAD SWAP1 PUSH2 0x39A8 JUMP JUMPDEST DIV DUP1 PUSH1 0xA DUP6 ADD SSTORE PUSH1 0x7 SLOAD PUSH2 0x3BC3 JUMP JUMPDEST PUSH1 0x7 SSTORE PUSH1 0x1 PUSH1 0xFF NOT DUP3 SLOAD AND OR SWAP1 SSTORE ADD SSTORE PUSH1 0x0 MSTORE PUSH1 0x10 DUP3 MSTORE PUSH1 0x0 PUSH1 0x40 DUP2 KECCAK256 SSTORE PUSH1 0x40 MLOAD SWAP1 DUP2 MSTORE LOG2 STOP JUMPDEST PUSH1 0xFF SWAP2 POP DUP6 SHR AND ISZERO DUP12 PUSH2 0x5EA JUMP JUMPDEST PUSH1 0x40 MLOAD PUSH3 0x461BCD PUSH1 0xE5 SHL DUP2 MSTORE PUSH1 0x4 DUP2 ADD DUP5 SWAP1 MSTORE PUSH1 0x14 PUSH1 0x24 DUP3 ADD MSTORE PUSH20 0x151A5B595B1BD8DAC81B9BDD08195E1C1A5C9959 PUSH1 0x62 SHL PUSH1 0x44 DUP3 ADD MSTORE PUSH1 0x64 SWAP1 REVERT JUMPDEST PUSH1 0x40 MLOAD PUSH3 0x461BCD PUSH1 0xE5 SHL DUP2 MSTORE PUSH1 0x4 DUP2 ADD DUP5 SWAP1 MSTORE PUSH1 0x15 PUSH1 0x24 DUP3 ADD MSTORE PUSH21 0x2737903832B73234B733903932B9B7B63ABA34B7B7 PUSH1 0x59 SHL PUSH1 0x44 DUP3 ADD MSTORE PUSH1 0x64 SWAP1 REVERT JUMPDEST POP PUSH1 0x0 SLOAD PUSH1 0x1 PUSH1 0x1 PUSH1 0xA0 SHL SUB AND CALLER EQ PUSH2 0x3407 JUMP JUMPDEST CALLVALUE PUSH2 0x394 JUMPI PUSH1 0x0 CALLDATASIZE PUSH1 0x3 NOT ADD SLT PUSH2 0x394 JUMPI PUSH1 0x20 PUSH1 0x40 MLOAD PUSH1 0xFF PUSH32 0x0 AND DUP2 MSTORE RETURN JUMPDEST CALLVALUE PUSH2 0x394 JUMPI PUSH1 0x40 CALLDATASIZE PUSH1 0x3 NOT ADD SLT PUSH2 0x394 JUMPI PUSH1 0x40 PUSH2 0x35F1 PUSH2 0x35E9 PUSH2 0x364E JUMP JUMPDEST PUSH1 0x4 CALLDATALOAD PUSH2 0x39DB JUMP JUMPDEST DUP3 MLOAD SWAP2 DUP3 MSTORE PUSH1 0x20 DUP3 ADD MSTORE RETURN JUMPDEST CALLVALUE PUSH2 0x394 JUMPI PUSH1 0x20 CALLDATASIZE PUSH1 0x3 NOT ADD SLT PUSH2 0x394 JUMPI PUSH1 0x20 SWAP1 PUSH1 0x1 PUSH1 0x1 PUSH1 0xA0 SHL SUB PUSH2 0x3621 PUSH2 0x3638 JUMP JUMPDEST AND PUSH1 0x0 MSTORE PUSH1 0xF DUP3 MSTORE PUSH1 0xFF PUSH1 0x40 PUSH1 0x0 KECCAK256 SLOAD AND ISZERO ISZERO DUP2 MSTORE RETURN JUMPDEST PUSH1 0x4 CALLDATALOAD SWAP1 PUSH1 0x1 PUSH1 0x1 PUSH1 0xA0 SHL SUB DUP3 AND DUP3 SUB PUSH2 0x394 JUMPI JUMP JUMPDEST PUSH1 0x24 CALLDATALOAD SWAP1 PUSH1 0x1 PUSH1 0x1 PUSH1 0xA0 SHL SUB DUP3 AND DUP3 SUB PUSH2 0x394 JUMPI JUMP JUMPDEST PUSH1 0x40 SWAP1 PUSH1 0x3 NOT ADD SLT PUSH2 0x394 JUMPI PUSH1 0x4 CALLDATALOAD SWAP1 PUSH1 0x24 CALLDATALOAD SWAP1 JUMP JUMPDEST PUSH1 0x60 DUP2 ADD SWAP1 DUP2 LT PUSH1 0x1 PUSH1 0x1 PUSH1 0x40 SHL SUB DUP3 GT OR PUSH2 0x1EB5 JUMPI PUSH1 0x40 MSTORE JUMP JUMPDEST SWAP1 PUSH1 0x1F DUP1 NOT SWAP2 ADD AND DUP2 ADD SWAP1 DUP2 LT PUSH1 0x1 PUSH1 0x1 PUSH1 0x40 SHL SUB DUP3 GT OR PUSH2 0x1EB5 JUMPI PUSH1 0x40 MSTORE JUMP JUMPDEST DUP2 PUSH1 0x1F DUP3 ADD SLT ISZERO PUSH2 0x394 JUMPI DUP1 CALLDATALOAD SWAP1 PUSH1 0x1 PUSH1 0x1 PUSH1 0x40 SHL SUB DUP3 GT PUSH2 0x1EB5 JUMPI PUSH1 0x40 MLOAD SWAP3 PUSH2 0x36EA PUSH1 0x1F DUP5 ADD PUSH1 0x1F NOT AND PUSH1 0x20 ADD DUP6 PUSH2 0x3695 JUMP JUMPDEST DUP3 DUP5 MSTORE PUSH1 0x20 DUP4 DUP4 ADD ADD GT PUSH2 0x394 JUMPI DUP2 PUSH1 0x0 SWAP3 PUSH1 0x20 DUP1 SWAP4 ADD DUP4 DUP7 ADD CALLDATACOPY DUP4 ADD ADD MSTORE SWAP1 JUMP JUMPDEST PUSH1 0x24 CALLDATALOAD SWAP1 DUP2 ISZERO ISZERO DUP3 SUB PUSH2 0x394 JUMPI JUMP JUMPDEST SWAP1 DUP1 PUSH1 0x1F DUP4 ADD SLT ISZERO PUSH2 0x394 JUMPI PUSH1 0x40 MLOAD SWAP2 PUSH2 0x3734 DUP4 PUSH2 0x367A JUMP JUMPDEST PUSH1 0x60 DUP2 ADD SWAP1 DUP4 DUP4 DUP4 GT PUSH2 0x394 JUMPI DUP2 SWAP1 JUMPDEST DUP4 DUP3 LT PUSH2 0x3753 JUMPI POP POP POP POP POP SWAP1 JUMP JUMPDEST DUP2 CALLDATALOAD PUSH1 0x1 PUSH1 0x1 PUSH1 0x40 SHL SUB DUP2 GT PUSH2 0x394 JUMPI PUSH1 0x20 SWAP2 PUSH2 0x3773 DUP8 DUP5 SWAP4 DUP8 ADD PUSH2 0x36B6 JUMP JUMPDEST DUP2 MSTORE ADD SWAP2 ADD SWAP1 PUSH2 0x3744 JUMP JUMPDEST SWAP1 PUSH1 0x1 DUP3 DUP2 SHR SWAP3 AND DUP1 ISZERO PUSH2 0x37AE JUMPI JUMPDEST PUSH1 0x20 DUP4 LT EQ PUSH2 0x3798 JUMPI JUMP JUMPDEST PUSH4 0x4E487B71 PUSH1 0xE0 SHL PUSH1 0x0 MSTORE PUSH1 0x22 PUSH1 0x4 MSTORE PUSH1 0x24 PUSH1 0x0 REVERT JUMPDEST SWAP2 PUSH1 0x7F AND SWAP2 PUSH2 0x378D JUMP JUMPDEST SWAP1 PUSH1 0x40 MLOAD SWAP2 DUP3 PUSH1 0x0 DUP3 SLOAD SWAP3 PUSH2 0x37CC DUP5 PUSH2 0x377E JUMP JUMPDEST SWAP1 DUP2 DUP5 MSTORE PUSH1 0x1 SWAP5 DUP6 DUP2 AND SWAP1 DUP2 PUSH1 0x0 EQ PUSH2 0x383B JUMPI POP PUSH1 0x1 EQ PUSH2 0x37F8 JUMPI JUMPDEST POP POP PUSH2 0x37F6 SWAP3 POP SUB DUP4 PUSH2 0x3695 JUMP JUMPDEST JUMP JUMPDEST SWAP1 SWAP4 SWAP2 POP PUSH1 0x0 MSTORE PUSH1 0x20 SWAP1 DUP2 PUSH1 0x0 KECCAK256 SWAP4 PUSH1 0x0 SWAP2 JUMPDEST DUP2 DUP4 LT PUSH2 0x3823 JUMPI POP POP PUSH2 0x37F6 SWAP4 POP DUP3 ADD ADD CODESIZE DUP1 PUSH2 0x37E8 JUMP JUMPDEST DUP6 SLOAD DUP9 DUP5 ADD DUP6 ADD MSTORE SWAP5 DUP6 ADD SWAP5 DUP8 SWAP5 POP SWAP2 DUP4 ADD SWAP2 PUSH2 0x380B JUMP JUMPDEST SWAP2 POP POP PUSH2 0x37F6 SWAP5 POP PUSH1 0x20 SWAP3 POP PUSH1 0xFF NOT AND DUP3 DUP5 ADD MSTORE ISZERO ISZERO PUSH1 0x5 SHL DUP3 ADD ADD CODESIZE DUP1 PUSH2 0x37E8 JUMP JUMPDEST SWAP2 SWAP1 DUP3 MLOAD SWAP3 DUP4 DUP3 MSTORE PUSH1 0x0 JUMPDEST DUP5 DUP2 LT PUSH2 0x388A JUMPI POP POP DUP3 PUSH1 0x0 PUSH1 0x20 DUP1 SWAP5 SWAP6 DUP5 ADD ADD MSTORE PUSH1 0x1F DUP1 NOT SWAP2 ADD AND ADD ADD SWAP1 JUMP JUMPDEST PUSH1 0x20 DUP2 DUP4 ADD DUP2 ADD MLOAD DUP5 DUP4 ADD DUP3 ADD MSTORE ADD PUSH2 0x3869 JUMP JUMPDEST PUSH1 0x60 DUP3 ADD SWAP2 DUP1 PUSH1 0x0 JUMPDEST PUSH1 0x3 DUP2 LT PUSH2 0x38B6 JUMPI POP POP POP POP SWAP1 JUMP JUMPDEST SWAP1 SWAP2 SWAP3 SWAP4 PUSH2 0x38CC DUP2 DUP6 PUSH1 0x1 SWAP4 SUB DUP6 MSTORE DUP7 MLOAD PUSH2 0x385E JUMP JUMPDEST SWAP5 PUSH1 0x20 SWAP1 DUP2 ADD SWAP5 SWAP4 ADD SWAP2 ADD PUSH2 0x38A7 JUMP JUMPDEST PUSH1 0x0 SLOAD PUSH1 0x1 PUSH1 0x1 PUSH1 0xA0 SHL SUB AND CALLER SUB PUSH2 0x38F0 JUMPI JUMP JUMPDEST PUSH1 0x64 PUSH1 0x40 MLOAD PUSH3 0x461BCD PUSH1 0xE5 SHL DUP2 MSTORE PUSH1 0x20 PUSH1 0x4 DUP3 ADD MSTORE PUSH1 0x20 PUSH1 0x24 DUP3 ADD MSTORE PUSH32 0x4F776E61626C653A2063616C6C6572206973206E6F7420746865206F776E6572 PUSH1 0x44 DUP3 ADD MSTORE REVERT JUMPDEST ISZERO PUSH2 0x393B JUMPI JUMP JUMPDEST PUSH1 0x40 MLOAD PUSH3 0x461BCD PUSH1 0xE5 SHL DUP2 MSTORE PUSH1 0x20 PUSH1 0x4 DUP3 ADD MSTORE PUSH1 0x12 PUSH1 0x24 DUP3 ADD MSTORE PUSH18 0x125B9D985B1A59081BDD5D18DBDB59481251 PUSH1 0x72 SHL PUSH1 0x44 DUP3 ADD MSTORE PUSH1 0x64 SWAP1 REVERT JUMPDEST PUSH1 0x3 DUP3 LT ISZERO PUSH2 0x3985 JUMPI ADD SWAP1 PUSH1 0x0 SWAP1 JUMP JUMPDEST PUSH4 0x4E487B71 PUSH1 0xE0 SHL PUSH1 0x0 MSTORE PUSH1 0x32 PUSH1 0x4 MSTORE PUSH1 0x24 PUSH1 0x0 REVERT JUMPDEST SWAP2 SWAP1 DUP3 SUB SWAP2 DUP3 GT PUSH2 0x69B JUMPI JUMP JUMPDEST DUP2 DUP2 MUL SWAP3 SWAP2 DUP2 ISZERO SWAP2 DUP5 DIV EQ OR ISZERO PUSH2 0x69B JUMPI JUMP JUMPDEST DUP2 ISZERO PUSH2 0x39C5 JUMPI DIV SWAP1 JUMP JUMPDEST PUSH4 0x4E487B71 PUSH1 0xE0 SHL PUSH1 0x0 MSTORE PUSH1 0x12 PUSH1 0x4 MSTORE PUSH1 0x24 PUSH1 0x0 REVERT JUMPDEST SWAP1 SWAP2 PUSH1 0x0 SWAP2 PUSH1 0x0 SWAP1 DUP1 DUP3 MSTORE PUSH1 0x11 PUSH1 0x20 MSTORE PUSH1 0x40 DUP3 KECCAK256 SWAP1 PUSH1 0x7 DUP3 ADD SLOAD PUSH1 0xFF DUP2 AND ISZERO SWAP1 DUP2 ISZERO PUSH2 0x3AD6 JUMPI JUMPDEST POP PUSH2 0x3ACC JUMPI PUSH1 0x8 DUP3 ADD SLOAD SWAP6 PUSH1 0x1 DUP1 PUSH1 0xA0 SHL SUB AND SWAP2 DUP3 DUP5 MSTORE PUSH1 0xF DUP2 ADD PUSH1 0x20 MSTORE PUSH2 0x3A2D DUP8 PUSH1 0x40 DUP7 KECCAK256 PUSH2 0x3975 JUMP JUMPDEST SWAP1 SLOAD SWAP1 PUSH1 0x3 SHL SHR SWAP7 DUP8 ISZERO PUSH2 0x3AC0 JUMPI SWAP1 PUSH2 0x2A00 PUSH2 0x3A52 PUSH2 0x29E2 PUSH2 0x3A58 SWAP5 PUSH1 0xB DUP6 ADD PUSH2 0x3975 JUMP JUMPDEST DUP10 PUSH2 0x39A8 JUMP JUMPDEST SWAP6 DUP1 DUP8 LT PUSH2 0x3AB8 JUMPI JUMPDEST POP DUP3 MSTORE PUSH1 0x12 PUSH1 0x20 MSTORE PUSH1 0x40 DUP3 KECCAK256 SWAP1 DUP3 MSTORE PUSH1 0x20 MSTORE PUSH1 0x40 DUP2 KECCAK256 SLOAD PUSH1 0x6 SLOAD GT ISZERO PUSH2 0x3A84 JUMPI POP JUMP JUMPDEST SWAP1 SWAP2 POP PUSH2 0x1F4 SWAP1 DUP2 DUP5 MUL SWAP2 DUP5 DUP4 DIV EQ DUP5 ISZERO OR ISZERO PUSH2 0x3AA4 JUMPI POP PUSH2 0x2710 SWAP1 DIV SWAP1 JUMP JUMPDEST PUSH4 0x4E487B71 PUSH1 0xE0 SHL DUP2 MSTORE PUSH1 0x11 PUSH1 0x4 MSTORE PUSH1 0x24 SWAP1 REVERT JUMPDEST SWAP6 POP CODESIZE PUSH2 0x3A61 JUMP JUMPDEST POP POP POP POP SWAP3 POP SWAP1 POP DUP2 SWAP1 JUMP JUMPDEST POP POP SWAP3 POP SWAP1 POP DUP2 SWAP1 JUMP JUMPDEST PUSH1 0xFF SWAP2 POP PUSH1 0x8 SHR AND CODESIZE PUSH2 0x3A02 JUMP JUMPDEST PUSH1 0x0 NOT DUP2 EQ PUSH2 0x69B JUMPI PUSH1 0x1 ADD SWAP1 JUMP JUMPDEST PUSH1 0x0 SWAP1 DUP2 MSTORE PUSH1 0x11 PUSH1 0x20 MSTORE PUSH1 0x40 DUP2 KECCAK256 SWAP1 PUSH1 0x9 DUP3 ADD SLOAD SWAP1 DUP2 ISZERO PUSH2 0x3BBD JUMPI SWAP3 DUP4 SWAP3 PUSH1 0xB ADD SWAP1 DUP4 SWAP1 DUP2 JUMPDEST PUSH1 0x3 DUP1 DUP3 LT ISZERO PUSH2 0x3B85 JUMPI PUSH2 0x3B2D DUP3 DUP7 PUSH2 0x3975 JUMP JUMPDEST SWAP1 SLOAD SWAP1 DUP3 SHL SHR PUSH2 0x3B47 JUMPI JUMPDEST POP PUSH2 0x3B42 SWAP1 PUSH2 0x3AE4 JUMP JUMPDEST PUSH2 0x3B19 JUMP JUMPDEST SWAP3 PUSH2 0x3B51 SWAP1 PUSH2 0x3AE4 JUMP JUMPDEST SWAP3 DUP8 PUSH2 0x3B5D DUP4 DUP8 PUSH2 0x3975 JUMP JUMPDEST SWAP1 SLOAD SWAP1 DUP4 SHL SHR GT ISZERO PUSH2 0x3B38 JUMPI DUP2 SWAP8 POP PUSH2 0x3B79 PUSH2 0x3B42 SWAP3 DUP7 PUSH2 0x3975 JUMP JUMPDEST SWAP1 SLOAD SWAP2 SHL SHR SWAP7 SWAP1 PUSH2 0x3B38 JUMP JUMPDEST POP POP SWAP5 SWAP3 SWAP2 POP PUSH1 0x2 GT ISZERO SWAP3 DUP4 PUSH2 0x3B9C JUMPI JUMPDEST POP POP POP SWAP1 JUMP JUMPDEST SWAP1 SWAP2 SWAP3 POP PUSH2 0x1F40 DUP1 DUP4 MUL SWAP3 DUP4 DIV SUB PUSH2 0x3AA4 JUMPI POP PUSH2 0x2710 SWAP1 DIV GT CODESIZE DUP1 DUP1 PUSH2 0x3B96 JUMP JUMPDEST SWAP2 POP POP SWAP1 JUMP JUMPDEST SWAP2 SWAP1 DUP3 ADD DUP1 SWAP3 GT PUSH2 0x69B JUMPI JUMP JUMPDEST ISZERO PUSH2 0x3BD7 JUMPI JUMP JUMPDEST PUSH1 0x40 MLOAD PUSH3 0x461BCD PUSH1 0xE5 SHL DUP2 MSTORE PUSH1 0x20 PUSH1 0x4 DUP3 ADD MSTORE PUSH1 0x11 PUSH1 0x24 DUP3 ADD MSTORE PUSH17 0x2232B0B23634B732903A37B79039B7B7B7 PUSH1 0x79 SHL PUSH1 0x44 DUP3 ADD MSTORE PUSH1 0x64 SWAP1 REVERT JUMPDEST ISZERO PUSH2 0x3C17 JUMPI JUMP JUMPDEST PUSH1 0x40 MLOAD PUSH3 0x461BCD PUSH1 0xE5 SHL DUP2 MSTORE PUSH1 0x20 PUSH1 0x4 DUP3 ADD MSTORE PUSH1 0x10 PUSH1 0x24 DUP3 ADD MSTORE PUSH16 0x2232B0B23634B732903A37B7903330B9 PUSH1 0x81 SHL PUSH1 0x44 DUP3 ADD MSTORE PUSH1 0x64 SWAP1 REVERT JUMPDEST ISZERO PUSH2 0x3C56 JUMPI JUMP JUMPDEST PUSH1 0x40 MLOAD PUSH3 0x461BCD PUSH1 0xE5 SHL DUP2 MSTORE PUSH1 0x20 PUSH1 0x4 DUP3 ADD MSTORE PUSH1 0xD PUSH1 0x24 DUP3 ADD MSTORE PUSH13 0x496E76616C6964207469746C65 PUSH1 0x98 SHL PUSH1 0x44 DUP3 ADD MSTORE PUSH1 0x64 SWAP1 REVERT JUMPDEST ISZERO PUSH2 0x3C92 JUMPI JUMP JUMPDEST PUSH1 0x40 MLOAD PUSH3 0x461BCD PUSH1 0xE5 SHL DUP2 MSTORE PUSH1 0x20 PUSH1 0x4 DUP3 ADD MSTORE PUSH1 0x10 PUSH1 0x24 DUP3 ADD MSTORE PUSH16 0x496E76616C69642063617465676F7279 PUSH1 0x80 SHL PUSH1 0x44 DUP3 ADD MSTORE PUSH1 0x64 SWAP1 REVERT JUMPDEST SWAP1 PUSH1 0x3 DUP2 LT ISZERO PUSH2 0x3985 JUMPI PUSH1 0x5 SHL ADD SWAP1 JUMP JUMPDEST ISZERO PUSH2 0x3CE2 JUMPI JUMP JUMPDEST PUSH1 0x40 MLOAD PUSH3 0x461BCD PUSH1 0xE5 SHL DUP2 MSTORE PUSH1 0x20 PUSH1 0x4 DUP3 ADD MSTORE PUSH1 0xF PUSH1 0x24 DUP3 ADD MSTORE PUSH15 0x496E76616C6964206F7574636F6D65 PUSH1 0x88 SHL PUSH1 0x44 DUP3 ADD MSTORE PUSH1 0x64 SWAP1 REVERT JUMPDEST SWAP1 DUP2 PUSH1 0x20 SWAP2 SUB SLT PUSH2 0x394 JUMPI MLOAD DUP1 ISZERO ISZERO DUP2 SUB PUSH2 0x394 JUMPI SWAP1 JUMP JUMPDEST DUP2 DUP2 LT PUSH2 0x3D3C JUMPI POP POP JUMP JUMPDEST PUSH1 0x0 DUP2 SSTORE PUSH1 0x1 ADD PUSH2 0x3D31 JUMP JUMPDEST SWAP5 SWAP4 SWAP3 PUSH2 0x3D74 PUSH1 0x60 SWAP4 PUSH2 0x3D66 PUSH2 0x3D82 SWAP5 PUSH1 0x80 DUP11 MSTORE PUSH1 0x80 DUP11 ADD SWAP1 PUSH2 0x385E JUMP JUMPDEST SWAP1 DUP9 DUP3 SUB PUSH1 0x20 DUP11 ADD MSTORE PUSH2 0x385E JUMP JUMPDEST SWAP1 DUP7 DUP3 SUB PUSH1 0x40 DUP9 ADD MSTORE PUSH2 0x389E JUMP JUMPDEST SWAP4 ADD MSTORE JUMP JUMPDEST PUSH1 0xFF PUSH1 0x2 SLOAD AND PUSH2 0x3D93 JUMPI JUMP JUMPDEST PUSH1 0x40 MLOAD PUSH3 0x461BCD PUSH1 0xE5 SHL DUP2 MSTORE PUSH1 0x20 PUSH1 0x4 DUP3 ADD MSTORE PUSH1 0x10 PUSH1 0x24 DUP3 ADD MSTORE PUSH16 0x14185D5CD8589B194E881C185D5CD959 PUSH1 0x82 SHL PUSH1 0x44 DUP3 ADD MSTORE PUSH1 0x64 SWAP1 REVERT JUMPDEST PUSH1 0x2 PUSH1 0x1 SLOAD EQ PUSH2 0x3DDC JUMPI PUSH1 0x2 PUSH1 0x1 SSTORE JUMP JUMPDEST PUSH1 0x40 MLOAD PUSH3 0x461BCD PUSH1 0xE5 SHL DUP2 MSTORE PUSH1 0x20 PUSH1 0x4 DUP3 ADD MSTORE PUSH1 0x1F PUSH1 0x24 DUP3 ADD MSTORE PUSH32 0x5265656E7472616E637947756172643A207265656E7472616E742063616C6C00 PUSH1 0x44 DUP3 ADD MSTORE PUSH1 0x64 SWAP1 REVERT JUMPDEST ISZERO PUSH2 0x3E28 JUMPI JUMP JUMPDEST PUSH1 0x40 MLOAD PUSH3 0x461BCD PUSH1 0xE5 SHL DUP2 MSTORE PUSH1 0x20 PUSH1 0x4 DUP3 ADD MSTORE PUSH1 0x13 PUSH1 0x24 DUP3 ADD MSTORE PUSH19 0x111D595B08191BD95CC81B9BDD08195E1A5CDD PUSH1 0x6A SHL PUSH1 0x44 DUP3 ADD MSTORE PUSH1 0x64 SWAP1 REVERT JUMPDEST ISZERO PUSH2 0x3E6A JUMPI JUMP JUMPDEST PUSH1 0x40 MLOAD PUSH3 0x461BCD PUSH1 0xE5 SHL DUP2 MSTORE PUSH1 0x20 PUSH1 0x4 DUP3 ADD MSTORE PUSH1 0x1C PUSH1 0x24 DUP3 ADD MSTORE PUSH32 0x4475656C206973207265736F6C766564206F722063616E63656C656400000000 PUSH1 0x44 DUP3 ADD MSTORE PUSH1 0x64 SWAP1 REVERT JUMPDEST PUSH1 0xFF AND PUSH1 0x4D DUP2 GT PUSH2 0x69B JUMPI PUSH1 0xA EXP SWAP1 JUMP JUMPDEST ISZERO PUSH2 0x3EC7 JUMPI JUMP JUMPDEST PUSH1 0x40 MLOAD PUSH3 0x461BCD PUSH1 0xE5 SHL DUP2 MSTORE PUSH1 0x20 PUSH1 0x4 DUP3 ADD MSTORE PUSH1 0x19 PUSH1 0x24 DUP3 ADD MSTORE PUSH32 0x4E6F7420617574686F72697A656420746F207265736F6C766500000000000000 PUSH1 0x44 DUP3 ADD MSTORE PUSH1 0x64 SWAP1 REVERT JUMPDEST ISZERO PUSH2 0x3F13 JUMPI JUMP JUMPDEST PUSH1 0x40 MLOAD PUSH3 0x461BCD PUSH1 0xE5 SHL DUP2 MSTORE PUSH1 0x20 PUSH1 0x4 DUP3 ADD MSTORE PUSH1 0x14 PUSH1 0x24 DUP3 ADD MSTORE PUSH20 0x111958591B1A5B99481B9BDD081C995858DA1959 PUSH1 0x62 SHL PUSH1 0x44 DUP3 ADD MSTORE PUSH1 0x64 SWAP1 REVERT JUMPDEST ISZERO PUSH2 0x3F56 JUMPI JUMP JUMPDEST PUSH1 0x40 MLOAD PUSH3 0x461BCD PUSH1 0xE5 SHL DUP2 MSTORE PUSH1 0x20 PUSH1 0x4 DUP3 ADD MSTORE PUSH1 0x21 PUSH1 0x24 DUP3 ADD MSTORE PUSH32 0x436F6E74726163742068617320696E73756666696369656E742062616C616E63 PUSH1 0x44 DUP3 ADD MSTORE PUSH1 0x65 PUSH1 0xF8 SHL PUSH1 0x64 DUP3 ADD MSTORE PUSH1 0x84 SWAP1 REVERT JUMPDEST ISZERO PUSH2 0x3FAC JUMPI JUMP JUMPDEST PUSH1 0x40 MLOAD PUSH3 0x461BCD PUSH1 0xE5 SHL DUP2 MSTORE PUSH1 0x20 PUSH1 0x4 DUP3 ADD MSTORE PUSH1 0xF PUSH1 0x24 DUP3 ADD MSTORE PUSH15 0x496E76616C69642061646472657373 PUSH1 0x88 SHL PUSH1 0x44 DUP3 ADD MSTORE PUSH1 0x64 SWAP1 REVERT INVALID LOG2 PUSH5 0x6970667358 0x22 SLT KECCAK256 0x4E PUSH30 0xBF1AEE6B30693E56B294FD4B4E1775EDD1B8433376708331ADB7800AC4AB PUSH5 0x736F6C6343 STOP ADDMOD EQ STOP CALLER "},"methodIdentifiers":{"ARENA_ACTIVATION_POINTS()":"d860455b","MAX_FEE_PERCENT()":"67d81740","MAX_USER_DEADLINE()":"eac74039","POINTS_PER_DUEL()":"779db8aa","RESOLUTION_TIMELOCK()":"698a4957","activateArenaWithPoints(uint256)":"a08e25b4","adminCreateDuel(string,string,bool,string[3],uint256)":"36dc9ec6","authorizeResolver(address,bool)":"de2f6a4f","authorizedResolvers(address)":"d794d2d9","bettingToken()":"43425e88","bettingTokenDecimals()":"19ab9bd8","calculatePotentialGains(uint256,address)":"1713ecbc","canActivateArena(address)":"4e15aa67","claimGains(uint256)":"3809ae17","claimRefund(uint256)":"5b7baf64","createDuel(string,string,string[3],uint256)":"6fcb48a5","duelArenaEligible(uint256)":"a24aa6e0","duelCreationFee()":"ae5fd784","duels(uint256)":"859a62d0","emergencyWithdraw(address,address,uint256)":"e63ea408","executeResolution(uint256,uint256)":"1f528480","fanToken()":"75daa3de","fanTokenBalanceSnapshot(uint256,address)":"74c94bb9","fanTokenDecimals()":"7e06a617","fanTokenThreshold()":"ba973e44","gasAdvanceFee()":"edc68720","gasFeeDebt(address)":"cf2da5f3","gasRelayer()":"2f0c45fd","getBettingToken()":"29cf655b","getDuelInfo(uint256)":"af6f4bce","getFanToken()":"c8d5ba80","getGasFeeDebt(address)":"9b0d1036","getOutcomePot(uint256,uint256)":"4692c962","getPlatformFeePercent()":"4c9c3f85","getUserBets(uint256,address)":"fa744dd3","getUserPoints(address)":"aeefe31f","isDuelBalanced(uint256)":"8931ecd0","manualGasRepayment(address,uint256)":"ba263a0a","moderators(address)":"14d0f1ba","nextDuelId()":"549ec614","owner()":"8da5cb5b","pause()":"8456cb59","paused()":"5c975abb","pendingResolutions(bytes32)":"a24a27bc","placeBet(uint256,uint256,uint256)":"e71c9697","platformFeePercent()":"8c639a85","pointsPerBetUnit()":"daf19f2b","proposeResolution(uint256,uint256)":"ed798fec","renounceOwnership()":"715018a6","setArenaEligible(uint256,bool)":"f4365752","setDuelCreationFee(uint256)":"4d6d50c5","setFanTokenThreshold(uint256)":"dadad0f3","setGasAdvanceFee(uint256)":"7689279c","setGasRelayer(address)":"5fe6c08d","setModerator(address,bool)":"3ee2b01d","setPlatformFeePercent(uint256)":"cab230d2","setPointsPerBetUnit(uint256)":"c50809d3","toggleUserCreation(bool)":"79e92d25","totalFeesAccumulated()":"4952ce76","transferOwnership(address)":"f2fde38b","unpause()":"3f4ba83a","userCreationEnabled()":"20d8cbd0","userPoints(address)":"f50ddbc7","validateAndCancelDuel(uint256)":"253e35fc","withdrawFees(address,uint256)":"ad3b1b47"}}}}}