{"contracts/SeasonalNFTArena.sol":{"SeasonalNFTArena":{"abi":[{"inputs":[{"internalType":"address","name":"_chzToken","type":"address"},{"internalType":"address","name":"_usdcToken","type":"address"},{"internalType":"address","name":"_fanToken","type":"address"},{"internalType":"address","name":"_volatilityOracle","type":"address"}],"stateMutability":"nonpayable","type":"constructor"},{"anonymous":false,"inputs":[{"indexed":true,"internalType":"uint256","name":"arenaId","type":"uint256"},{"indexed":false,"internalType":"uint256","name":"chzConverted","type":"uint256"},{"indexed":false,"internalType":"uint256","name":"usdcReceived","type":"uint256"}],"name":"EmergencyConversionTriggered","type":"event"},{"anonymous":false,"inputs":[{"indexed":true,"internalType":"uint256","name":"arenaId","type":"uint256"},{"indexed":true,"internalType":"address","name":"winner","type":"address"},{"indexed":false,"internalType":"uint256","name":"chzAmount","type":"uint256"},{"indexed":false,"internalType":"uint256","name":"usdcAmount","type":"uint256"}],"name":"MegaPrizeWon","type":"event"},{"anonymous":false,"inputs":[{"indexed":true,"internalType":"address","name":"previousOwner","type":"address"},{"indexed":true,"internalType":"address","name":"newOwner","type":"address"}],"name":"OwnershipTransferred","type":"event"},{"anonymous":false,"inputs":[{"indexed":false,"internalType":"address","name":"account","type":"address"}],"name":"Paused","type":"event"},{"anonymous":false,"inputs":[{"indexed":true,"internalType":"uint256","name":"arenaId","type":"uint256"},{"indexed":false,"internalType":"uint256","name":"chzAmount","type":"uint256"},{"indexed":false,"internalType":"uint256","name":"newPotTotal","type":"uint256"}],"name":"PotAccumulated","type":"event"},{"anonymous":false,"inputs":[{"indexed":true,"internalType":"uint256","name":"arenaId","type":"uint256"},{"indexed":false,"internalType":"string","name":"title","type":"string"},{"indexed":false,"internalType":"enum SeasonalNFTArena.SeasonalType","name":"seasonalType","type":"uint8"},{"indexed":false,"internalType":"uint256","name":"entryFee","type":"uint256"},{"indexed":false,"internalType":"uint256","name":"deadline","type":"uint256"}],"name":"SeasonalArenaCreated","type":"event"},{"anonymous":false,"inputs":[{"indexed":true,"internalType":"uint256","name":"arenaId","type":"uint256"},{"indexed":true,"internalType":"address","name":"user","type":"address"},{"indexed":false,"internalType":"uint256","name":"outcomeId","type":"uint256"},{"indexed":false,"internalType":"uint256","name":"chzAmount","type":"uint256"},{"indexed":false,"internalType":"bool","name":"hasInsurance","type":"bool"}],"name":"SeasonalBetPlaced","type":"event"},{"anonymous":false,"inputs":[{"indexed":true,"internalType":"uint256","name":"arenaId","type":"uint256"},{"indexed":false,"internalType":"uint256","name":"winningOutcomeId","type":"uint256"},{"indexed":false,"internalType":"uint256","name":"totalPotCHZ","type":"uint256"},{"indexed":false,"internalType":"uint256","name":"totalPotUSDC","type":"uint256"}],"name":"SeasonalResolved","type":"event"},{"anonymous":false,"inputs":[{"indexed":false,"internalType":"address","name":"account","type":"address"}],"name":"Unpaused","type":"event"},{"anonymous":false,"inputs":[{"indexed":true,"internalType":"uint256","name":"arenaId","type":"uint256"},{"indexed":false,"internalType":"uint256","name":"chzConverted","type":"uint256"},{"indexed":false,"internalType":"uint256","name":"usdcReceived","type":"uint256"},{"indexed":false,"internalType":"uint256","name":"volatilityPercent","type":"uint256"}],"name":"VolatilityProtectionTriggered","type":"event"},{"inputs":[],"name":"EMERGENCY_THRESHOLD","outputs":[{"internalType":"uint256","name":"","type":"uint256"}],"stateMutability":"view","type":"function"},{"inputs":[],"name":"IMMEDIATE_POT","outputs":[{"internalType":"uint256","name":"","type":"uint256"}],"stateMutability":"view","type":"function"},{"inputs":[],"name":"INSURANCE_FEE","outputs":[{"internalType":"uint256","name":"","type":"uint256"}],"stateMutability":"view","type":"function"},{"inputs":[],"name":"MAX_DURATION","outputs":[{"internalType":"uint256","name":"","type":"uint256"}],"stateMutability":"view","type":"function"},{"inputs":[],"name":"MIN_FAN_TOKENS","outputs":[{"internalType":"uint256","name":"","type":"uint256"}],"stateMutability":"view","type":"function"},{"inputs":[],"name":"PARTNER_FEE","outputs":[{"internalType":"uint256","name":"","type":"uint256"}],"stateMutability":"view","type":"function"},{"inputs":[],"name":"PLATFORM_FEE","outputs":[{"internalType":"uint256","name":"","type":"uint256"}],"stateMutability":"view","type":"function"},{"inputs":[],"name":"REINVESTMENT_FEE","outputs":[{"internalType":"uint256","name":"","type":"uint256"}],"stateMutability":"view","type":"function"},{"inputs":[],"name":"VOLATILITY_THRESHOLD","outputs":[{"internalType":"uint256","name":"","type":"uint256"}],"stateMutability":"view","type":"function"},{"inputs":[{"internalType":"uint256","name":"_arenaId","type":"uint256"}],"name":"accumulateIntoPot","outputs":[],"stateMutability":"nonpayable","type":"function"},{"inputs":[{"internalType":"uint256","name":"","type":"uint256"}],"name":"arenaAccumulation","outputs":[{"internalType":"uint256","name":"","type":"uint256"}],"stateMutability":"view","type":"function"},{"inputs":[{"internalType":"uint256","name":"","type":"uint256"},{"internalType":"uint256","name":"","type":"uint256"},{"internalType":"address","name":"","type":"address"}],"name":"betPositions","outputs":[{"internalType":"uint256","name":"chzAmount","type":"uint256"},{"internalType":"uint256","name":"usdcAmount","type":"uint256"},{"internalType":"bool","name":"hasInsurance","type":"bool"},{"internalType":"uint256","name":"timestamp","type":"uint256"}],"stateMutability":"view","type":"function"},{"inputs":[],"name":"chzToken","outputs":[{"internalType":"contract IERC20","name":"","type":"address"}],"stateMutability":"view","type":"function"},{"inputs":[{"internalType":"uint256","name":"_arenaId","type":"uint256"}],"name":"claimSeasonalReward","outputs":[],"stateMutability":"nonpayable","type":"function"},{"inputs":[{"internalType":"string","name":"_title","type":"string"},{"internalType":"string[]","name":"_outcomeNames","type":"string[]"},{"internalType":"enum SeasonalNFTArena.SeasonalType","name":"_seasonalType","type":"uint8"},{"internalType":"uint256","name":"_entryFeeCHZ","type":"uint256"},{"internalType":"uint256","name":"_duration","type":"uint256"}],"name":"createSeasonalArena","outputs":[],"stateMutability":"nonpayable","type":"function"},{"inputs":[{"internalType":"uint256","name":"_arenaId","type":"uint256"}],"name":"emergencyConvert","outputs":[],"stateMutability":"nonpayable","type":"function"},{"inputs":[{"internalType":"address","name":"_token","type":"address"},{"internalType":"uint256","name":"_amount","type":"uint256"}],"name":"emergencyWithdraw","outputs":[],"stateMutability":"nonpayable","type":"function"},{"inputs":[{"internalType":"uint256","name":"_arenaId","type":"uint256"},{"internalType":"uint256","name":"_outcomeId","type":"uint256"},{"internalType":"bool","name":"_withInsurance","type":"bool"}],"name":"enterSeasonal","outputs":[],"stateMutability":"nonpayable","type":"function"},{"inputs":[],"name":"fanToken","outputs":[{"internalType":"contract IERC20","name":"","type":"address"}],"stateMutability":"view","type":"function"},{"inputs":[{"internalType":"uint256","name":"_arenaId","type":"uint256"}],"name":"getArenaDetails","outputs":[{"internalType":"string","name":"title","type":"string"},{"internalType":"enum SeasonalNFTArena.SeasonalType","name":"seasonalType","type":"uint8"},{"internalType":"uint256","name":"chzPot","type":"uint256"},{"internalType":"uint256","name":"usdcPot","type":"uint256"},{"internalType":"uint256","name":"deadline","type":"uint256"},{"internalType":"bool","name":"isResolved","type":"bool"},{"internalType":"bool","name":"isActive","type":"bool"}],"stateMutability":"view","type":"function"},{"inputs":[{"internalType":"uint256","name":"_arenaId","type":"uint256"},{"internalType":"uint256","name":"_outcomeId","type":"uint256"},{"internalType":"address","name":"_user","type":"address"}],"name":"getBetPosition","outputs":[{"internalType":"uint256","name":"chzAmount","type":"uint256"},{"internalType":"uint256","name":"usdcAmount","type":"uint256"},{"internalType":"bool","name":"hasInsurance","type":"bool"},{"internalType":"uint256","name":"timestamp","type":"uint256"}],"stateMutability":"view","type":"function"},{"inputs":[],"name":"nextArenaId","outputs":[{"internalType":"uint256","name":"","type":"uint256"}],"stateMutability":"view","type":"function"},{"inputs":[{"internalType":"uint256","name":"","type":"uint256"},{"internalType":"uint256","name":"","type":"uint256"}],"name":"outcomeCHZPots","outputs":[{"internalType":"uint256","name":"","type":"uint256"}],"stateMutability":"view","type":"function"},{"inputs":[{"internalType":"uint256","name":"","type":"uint256"},{"internalType":"uint256","name":"","type":"uint256"}],"name":"outcomeUSDCPots","outputs":[{"internalType":"uint256","name":"","type":"uint256"}],"stateMutability":"view","type":"function"},{"inputs":[],"name":"owner","outputs":[{"internalType":"address","name":"","type":"address"}],"stateMutability":"view","type":"function"},{"inputs":[],"name":"pause","outputs":[],"stateMutability":"nonpayable","type":"function"},{"inputs":[],"name":"paused","outputs":[{"internalType":"bool","name":"","type":"bool"}],"stateMutability":"view","type":"function"},{"inputs":[],"name":"renounceOwnership","outputs":[],"stateMutability":"nonpayable","type":"function"},{"inputs":[{"internalType":"uint256","name":"_arenaId","type":"uint256"},{"internalType":"uint256","name":"_winningOutcomeId","type":"uint256"}],"name":"resolveSeasonal","outputs":[],"stateMutability":"nonpayable","type":"function"},{"inputs":[{"internalType":"uint256","name":"","type":"uint256"}],"name":"seasonalArenas","outputs":[{"internalType":"string","name":"title","type":"string"},{"internalType":"enum SeasonalNFTArena.SeasonalType","name":"seasonalType","type":"uint8"},{"internalType":"uint256","name":"startTime","type":"uint256"},{"internalType":"uint256","name":"endTime","type":"uint256"},{"internalType":"uint256","name":"deadline","type":"uint256"},{"internalType":"bool","name":"isResolved","type":"bool"},{"internalType":"uint256","name":"winningOutcomeId","type":"uint256"},{"internalType":"uint256","name":"chzPot","type":"uint256"},{"internalType":"uint256","name":"usdcPot","type":"uint256"},{"internalType":"uint256","name":"totalAccumulated","type":"uint256"},{"internalType":"uint256","name":"entryFeeCHZ","type":"uint256"},{"internalType":"bool","name":"isActive","type":"bool"},{"internalType":"bool","name":"protectionTriggered","type":"bool"},{"internalType":"uint256","name":"lastVolatilityCheck","type":"uint256"}],"stateMutability":"view","type":"function"},{"inputs":[{"internalType":"address","name":"newOwner","type":"address"}],"name":"transferOwnership","outputs":[],"stateMutability":"nonpayable","type":"function"},{"inputs":[{"internalType":"uint256","name":"_arenaId","type":"uint256"}],"name":"triggerVolatilityProtection","outputs":[],"stateMutability":"nonpayable","type":"function"},{"inputs":[],"name":"unpause","outputs":[],"stateMutability":"nonpayable","type":"function"},{"inputs":[{"internalType":"address","name":"_newOracle","type":"address"}],"name":"updateVolatilityOracle","outputs":[],"stateMutability":"nonpayable","type":"function"},{"inputs":[],"name":"usdcToken","outputs":[{"internalType":"contract IERC20","name":"","type":"address"}],"stateMutability":"view","type":"function"},{"inputs":[],"name":"volatilityOracle","outputs":[{"internalType":"contract IVolatilityOracle","name":"","type":"address"}],"stateMutability":"view","type":"function"}],"evm":{"bytecode":{"linkReferences":{},"object":"60e0346200014757601f620026f238819003918201601f19168301916001600160401b038311848410176200014c5780849260809460405283398101031262000147576200004d8162000162565b6200005b6020830162000162565b6200007760606200006f6040860162000162565b940162000162565b60008054336001600160a01b03198216811783556040519693946001600160a01b03949385939192918416907f8be0079c531659141344cd1fd0a4f28419497f9722a3daafe3b4186f6b6457e09080a3600180805560028054600392909255968316608052911660a052911660c0526001600160a81b03191660089190911b610100600160a81b031617905561257a9081620001788239608051818181610d2d015281816113870152611e69015260a0518181816112ce0152611f31015260c051818181610c9e0152611a7c0152f35b600080fd5b634e487b7160e01b600052604160045260246000fd5b51906001600160a01b0382168203620001475756fe608080604052600436101561001357600080fd5b60003560e01c90816302bd529a14611fde575080630697f9a814611f60578063087d31b71461036e57806311eac85514611f1b5780631573b57714611ef7578063177c170814611ec45780631a6cc4af14611e985780632654d81f14611e535780632cd1088214611db9578063324cbdfc14611d7157806334fbc9a114611d545780633efe49ab14611be85780633f4ba83a14611b545780634967a9181461036957806355b13a4f14611b275780635c975abb14611b04578063715018a614611aab57806375daa3de14611a66578063814603f1146117ab57806381a1d880146117875780638456cb591461172d578063863b6724146116fa5780638da5cb5b146116d157806393a86a2a146115dd57806395ccea671461155f578063a45922dc14611133578063b1724b4614611115578063b8bd39d514610bfa578063c3ca7f3114610bdd578063c4f32746146104e8578063c9f6fa9e14610391578063cf8753b214610373578063d231dff41461036e578063da605f6414610369578063f2fde38b146102a05763fc842b10146101ab57600080fd5b3461029b57602036600319011261029b57600435600052600460205260406000206101d5816121e3565b600282015460ff16906003830154926004810154906005810154600682015460ff1660078301546008840154600985015491600a86015493600b87015495600c88015497600d0154986040519c8d9c8d9c8d6101c09081815201610238916120c6565b9c60200161024591612106565b60408d015260608c015260808b0152151560a08a015260c089015260e088015261010087015261012086015261014085015260ff8116151561016085015260081c60ff1615156101808401526101a08301520390f35b600080fd5b3461029b57602036600319011261029b576102b9612053565b6102c1612289565b6001600160a01b0390811690811561031557600054826bffffffffffffffffffffffff60a01b821617600055167f8be0079c531659141344cd1fd0a4f28419497f9722a3daafe3b4186f6b6457e0600080a3005b60405162461bcd60e51b815260206004820152602660248201527f4f776e61626c653a206e6577206f776e657220697320746865207a65726f206160448201526564647265737360d01b6064820152608490fd5b612113565b612093565b3461029b57600036600319011261029b576020600354604051908152f35b3461029b5760208060031936011261029b57600435906103af612289565b816000526004815260406000206103cc60ff600c83015416612318565b826000526008825260406000205480156104ac5761177081029261176f19828504016104965761046b60409360096127107fbd2dd45d3814d32df6382f322efccea7e1d8fb603966b10586311c5c16024edc970461042a8187612489565b610439600885019283546122e1565b8255600a840161044a8882546122e1565b905580610477575b50886000526008855260008781205554910154906122e1565b908351928352820152a2005b610480906124b6565b61048e8385019182546122e1565b905589610452565b634e487b7160e01b600052601160045260246000fd5b60405162461bcd60e51b81526004810184905260146024820152734e6f20616363756d756c617465642066756e647360601b6044820152606490fd5b3461029b5760a036600319011261029b5760043567ffffffffffffffff811161029b57610519903690600401612152565b60243567ffffffffffffffff811161029b573660238201121561029b5780600401359067ffffffffffffffff8211610992578160051b90604051926105616020840185612130565b8352602460208401928201019036821161029b5760248101925b828410610bad5785856004604435101561029b576084359161059b612289565b6276a7008311610b6857680821ab0d4414980000606435101580610b53575b15610b0e576002825110610ac957600354926000198414610496576105e69060018501600355426122e1565b9060405192836101e081011067ffffffffffffffff6101e086011117610992576101e08401604052818452602084015260443560408401524260608401528160808401528160a0840152600060c0840152600060e0840152600061010084015260006101208401526000610140840152606435610160840152600161018084015260006101a0840152426101c0840152836000526004602052604060002091835180519067ffffffffffffffff82116109925781906106a586546121a9565b601f8111610a97575b50602090601f8311600114610a2b57600092610a20575b50508160011b916000199060031b1c19161783555b60208401518051906801000000000000000082116109925760018501548260018701558083106109a8575b5060200190600185016000526020600020916000905b8282106108715750505050604084015192600484101561085b57600d6101c07f6c90ef3343d2352c96ff8f0f88f4b93e3ff099630ae09cae1951184c0ad067bf9661083996600285019060ff80198354169116179055606081015160038501556080810151600485015560a081015160058501556107ae60c08201511515600686019060ff801983541691151516179055565b60e0810151600785015561010081015160088501556101208101516009850155610140810151600a850155610160810151600b850155600c84016108056101808301511515829060ff801983541691151516179055565b6101a0820151151561ff0082549160081b169061ff00191617905501519101556040519283926080845260808401906120c6565b9061084960208401604435612106565b606435604084015260608301520390a2005b634e487b7160e01b600052602160045260246000fd5b805180519067ffffffffffffffff82116109925761088f86546121a9565b601f8111610955575b50602090601f83116001146108e55792826001949360209386956000926108da575b5050600019600383901b1c191690841b1787555b0194019101909261071b565b015190508e806108ba565b908660005260206000209160005b601f198516811061093d575083602093600196938796938794601f19811610610924575b505050811b0187556108ce565b015160001960f88460031b161c191690558e8080610917565b919260206001819286850151815501940192016108f3565b61098290876000526020600020601f850160051c81019160208610610988575b601f0160051c01906122ee565b8b610898565b9091508190610975565b634e487b7160e01b600052604160045260246000fd5b600186016000526020600020908382015b81830181106109c9575050610705565b806109d6600192546121a9565b806109e3575b50016109b9565b601f811183146109f95750600081555b8b6109dc565b600090828252610a17601f60208420920160051c82018583016122ee565b818355556109f3565b0151905087806106c5565b9250856000526020600020906000935b601f1984168510610a7c576001945083601f19811610610a63575b505050811b0183556106da565b015160001960f88460031b161c19169055878080610a56565b81810151835560209485019460019093019290910190610a3b565b610ac390876000526020600020601f850160051c8101916020861061098857601f0160051c01906122ee565b886106ae565b60405162461bcd60e51b815260206004820152601860248201527f4e656564206174206c656173742032206f7574636f6d657300000000000000006044820152606490fd5b60405162461bcd60e51b815260206004820152601760248201527f496e76616c696420656e747279206665652072616e67650000000000000000006044820152606490fd5b50681b1ae4d6e2ef50000060643511156105ba565b60405162461bcd60e51b815260206004820152601860248201527f4475726174696f6e2065786365656473206d6178696d756d00000000000000006044820152606490fd5b833567ffffffffffffffff811161029b57602091610bd2839260243691870101612152565b81520193019261057b565b3461029b57600036600319011261029b5760206040516103e88152f35b3461029b57606036600319011261029b57600435602490813591604435908115159182810361029b57610c2b612433565b610c336123ef565b8360005260209060048252604060002090610c5460ff600c84015416612318565b60ff6006830154166110d857600582015442101561109457610c7b60018301548810612357565b6040516370a0823160e01b81523360048201526001600160a01b039190848187817f000000000000000000000000000000000000000000000000000000000000000087165afa8015610fe95760009061105e575b686c6b935b8bbd40000091501061101a5783901561100a5750600b8201546801158e460913d000008101809111610ff55760009291606485925b60405195869384926323b872dd60e01b8452336004850152308b85015260448401527f0000000000000000000000000000000000000000000000000000000000000000165af1918215610fe957600b92610d6b91600091610fbc575b506123ad565b015491610fa08084029184159185840414821715610fa857612710809304610bb89283870293878504141715610f9357611770808202908282041482151715610f7e5784610dbb91048092612489565b908860005260048652604060002060088101610dd88382546122e1565b9055896000526005875260406000208b6000528752610dfc826040600020546122e1565b8a6000526005885260406000208c600052885260406000205560009280610f1f575b505060405192608084019084821067ffffffffffffffff831117610f0b575091600391610ec3969594936040528352868301908152610eab604084018a815260608501924284528c60005260078a528d6040600020906000528a526040600020336000528a52604060002095518655516001860155511515600285019060ff801983541691151516179055565b519101558660005260088452046040600020546122e1565b846000526008825260406000205560405194855284015260408301527f9234ad89f4d0546edc8c0f2ff5b90b01a91e5e4903be57de3382d9a25d96707160603393a360018055005b634e487b7160e01b60009081526041600452fd5b6009919350610f2d906124b6565b9201610f3a8382546122e1565b9055886000526006865260406000208a6000528652610f5e826040600020546122e1565b896000526006875260406000208b60005287526040600020558a80610e1e565b82634e487b7160e01b60005260116004526000fd5b50634e487b7160e01b60009081526011600452fd5b634e487b7160e01b60009081526011600452fd5b610fdc9150853d8711610fe2575b610fd48183612130565b810190612395565b89610d65565b503d610fca565b6040513d6000823e3d90fd5b84634e487b7160e01b60005260116004526000fd5b82916064600b6000950154610d09565b60405162461bcd60e51b8152600481018590526017818701527f496e73756666696369656e742066616e20746f6b656e730000000000000000006044820152606490fd5b508481813d831161108d575b6110748183612130565b8101031261029b57686c6b935b8bbd4000009051610ccf565b503d61106a565b60405162461bcd60e51b8152600481018490526017818601527f42657474696e6720646561646c696e65207061737365640000000000000000006044820152606490fd5b60405162461bcd60e51b81526004810184905260168186015275105c995b9848185b1c9958591e481c995cdbdb1d995960521b6044820152606490fd5b3461029b57600036600319011261029b5760206040516276a7008152f35b3461029b5760208060031936011261029b57600435611150612433565b8060005260048252604060002060ff60068201541615611525576007015481600052600783526040600020816000528352604060002033600052835260406000209283549182159283158094611518575b156114dd5760009560009486600052600485526040600020926005865260406000208560005286526040600020548860005260068752604060002086600052875260406000205492811590811580926114d4575b1561149e5781611496575b50611460575b505080151580611453575b61140e575b506002015460ff1690816113fc575b506113e2575b836000526007825260406000209060005281526040600020336000528152600060036040822082815582600182015582600282015501558361135c575b816112a3575b6040519384528301527f5f1a09a74f24f7ba0ba12d1ffb686430834ac3c81d36152133e45b4b61cc933e60403393a360018055005b60405163a9059cbb60e01b815233600482015260248101839052818160448160006001600160a01b037f0000000000000000000000000000000000000000000000000000000000000000165af1908115610fe95760009161133f575b5061126e576064906040519062461bcd60e51b8252600482015260146024820152731554d110c81d1c985b9cd9995c8819985a5b195960621b6044820152fd5b6113569150823d8411610fe257610fd48183612130565b856112ff565b60405163a9059cbb60e01b815233600482015260248101859052818160448160006001600160a01b037f0000000000000000000000000000000000000000000000000000000000000000165af18015610fe9576113c0916000916113c557506123ad565b611268565b6113dc9150833d8511610fe257610fd48183612130565b86610d65565b9368022b1c8c1227a000008101809111610496579361122b565b60ff9150600c015460081c1686611225565b909450600982015490611f40918281029281840414901517156104965761144b60029161144660ff9461271060018b01549104612305565b612496565b959150611216565b5060018201541515611211565b909198506008840154611f40908181029181830414901517156104965761148e926127106114469204612305565b968880611206565b90508b611200565b60405162461bcd60e51b8152600481018a9052600e60248201526d139bc81dda5b9b9a5b99c81c1bdd60921b6044820152606490fd5b508415156111f5565b60405162461bcd60e51b81526004810184905260136024820152722737903bb4b73734b733903837b9b4ba34b7b760691b6044820152606490fd5b50600186015415156111a1565b60405162461bcd60e51b8152600481018490526012602482015271105c995b98481b9bdd081c995cdbdb1d995960721b6044820152606490fd5b3461029b57604036600319011261029b57611578612053565b611580612289565b6000805460405163a9059cbb60e01b81526001600160a01b0391821660048201526024803590820152926020928492604492849291165af18015610fe9576115c457005b6115db9060203d8111610fe257610fd48183612130565b005b3461029b576115eb366120b0565b6115f3612289565b8160005260046020526040600020600c81019182549261161560ff8516612318565b600683019384549060ff8216611699577fa01cbc98dff92492b79c4a3474dcac678c697cfe2b0f60e5c7106d1c576702d89561165660018701548610612357565b600160ff1980941617905583600786015516905561169460096008840154930154604051938493846040919493926060820195825260208201520152565b0390a2005b60405162461bcd60e51b815260206004820152601060248201526f105b1c9958591e481c995cdbdb1d995960821b6044820152606490fd5b3461029b57600036600319011261029b576000546040516001600160a01b039091168152602090f35b3461029b57611708366120b0565b9060005260066020526040600020906000526020526020604060002054604051908152f35b3461029b57600036600319011261029b57611746612289565b61174e6123ef565b600160ff1960025416176002557f62e78cea01bee320cd4e420270b5ea74000d11b0c9f74754ebdbfc544b05a2586020604051338152a1005b3461029b57600036600319011261029b576020604051686c6b935b8bbd4000008152f35b3461029b5760208060031936011261029b576004359081600052600481526040600020600c810180549060ff821680611a57575b6117e890612318565b60ff8260081c16611a1257600d8301918254610e1081018091116104965742106119cd57600254604051637631f19360e01b8152610bb860048201526001600160a01b03949187908290602490829060081c89165afa908115610fe9576000916119b0575b501561196d57906101009142905561ff0019161790556008820190815492611388918285029285840414851517156104965760098692612710600495049561189e87611898816124b6565b99612489565b9055016118ac8682546122e1565b905560025460081c16604051928380926350fb62f960e11b82525afa938415610fe95760009461191b575b50506116947f91c91c6073186df47afc751e535d6f42fc7d67bf7df6162acaeaefe88907ed6193604051938493846040919493926060820195825260208201520152565b90809450813d8311611966575b6119328183612130565b8101031261029b576116947f91c91c6073186df47afc751e535d6f42fc7d67bf7df6162acaeaefe88907ed619351936118d7565b503d611928565b6064866040519062461bcd60e51b825280600483015260248201527f566f6c6174696c697479207468726573686f6c64206e6f7420726561636865646044820152fd5b6119c79150873d8911610fe257610fd48183612130565b8861184d565b60405162461bcd60e51b815260048101869052601c60248201527f546f6f20736f6f6e20746f20636865636b20766f6c6174696c697479000000006044820152606490fd5b60405162461bcd60e51b815260048101859052601c60248201527f50726f74656374696f6e20616c726561647920747269676765726564000000006044820152606490fd5b50600683015460ff16156117df565b3461029b57600036600319011261029b576040517f00000000000000000000000000000000000000000000000000000000000000006001600160a01b03168152602090f35b3461029b57600036600319011261029b57611ac4612289565b600080546001600160a01b0319811682556001600160a01b03167f8be0079c531659141344cd1fd0a4f28419497f9722a3daafe3b4186f6b6457e08280a3005b3461029b57600036600319011261029b57602060ff600254166040519015158152f35b3461029b57600036600319011261029b5760025460405160089190911c6001600160a01b03168152602090f35b3461029b57600036600319011261029b57611b6d612289565b60025460ff811615611bac5760ff19166002557f5db9ee0a495bf2e6ff9c91a7834c1ba4fdd244a5e8aa4e537bd38aeae4b073aa6020604051338152a1005b60405162461bcd60e51b815260206004820152601460248201527314185d5cd8589b194e881b9bdd081c185d5cd95960621b6044820152606490fd5b3461029b5760208060031936011261029b5760043590611c06612289565b8160005260048152604060002060ff600c8201541680611d45575b611c2a90612318565b60025460405163995e577960e01b8152610fa060048201529083908290602490829060081c6001600160a01b03165afa908115610fe957600091611d28575b5015611ce357600881018054611b58938482029482860414821517156104965760096040946127107f106c01595c524188a0b119c5d3c7ba69ae43e187b3c3bd001552611dfc9bb14e970494611cc886611cc2816124b6565b96612489565b905501611cd68382546122e1565b90558351928352820152a2005b60405162461bcd60e51b815260048101839052601f60248201527f456d657267656e6379207468726573686f6c64206e6f742072656163686564006044820152606490fd5b611d3f9150833d8511610fe257610fd48183612130565b84611c69565b50600681015460ff1615611c21565b3461029b57600036600319011261029b5760206040516107d08152f35b3461029b57602036600319011261029b57611d8a612053565b611d92612289565b60028054610100600160a81b03191660089290921b610100600160a81b0316919091179055005b3461029b57602036600319011261029b576004356000526004602052611e27604060002060ff6002820154166008820154916009810154600582015460ff60068401541691611e0f60ff600c86015416946121e3565b95611e3260405198899860e08a5260e08a01906120c6565b966020890190612106565b604087015260608601526080850152151560a0840152151560c08301520390f35b3461029b57600036600319011261029b576040517f00000000000000000000000000000000000000000000000000000000000000006001600160a01b03168152602090f35b3461029b57602036600319011261029b5760043560005260086020526020604060002054604051908152f35b3461029b57611ed2366120b0565b9060005260056020526040600020906000526020526020604060002054604051908152f35b3461029b57600036600319011261029b5760206040516801158e460913d000008152f35b3461029b57600036600319011261029b576040517f00000000000000000000000000000000000000000000000000000000000000006001600160a01b03168152602090f35b3461029b57611f6e36612069565b91600052600760205260406000209060005260205260406000209060018060a01b031660005260205260406000208054611fda600183015492600360ff600283015416910154906040519485948590949392606092608083019683526020830152151560408201520152565b0390f35b3461029b57611fec36612069565b91600052600760205260406000209060005260205260406000209060018060a01b031660005260205280611fda60406000208054906001810154600360ff600284015416920154928590949392606092608083019683526020830152151560408201520152565b600435906001600160a01b038216820361029b57565b606090600319011261029b5760043590602435906044356001600160a01b038116810361029b5790565b3461029b57600036600319011261029b576020604051610fa08152f35b604090600319011261029b576004359060243590565b919082519283825260005b8481106120f2575050826000602080949584010152601f8019910116010190565b6020818301810151848301820152016120d1565b90600482101561085b5752565b3461029b57600036600319011261029b576020604051610bb88152f35b90601f8019910116810190811067ffffffffffffffff82111761099257604052565b81601f8201121561029b5780359067ffffffffffffffff82116109925760405192612187601f8401601f191660200185612130565b8284526020838301011161029b57816000926020809301838601378301015290565b90600182811c921680156121d9575b60208310146121c357565b634e487b7160e01b600052602260045260246000fd5b91607f16916121b8565b90604051918260008254926121f7846121a9565b9081845260019485811690816000146122665750600114612223575b505061222192500383612130565b565b9093915060005260209081600020936000915b81831061224e57505061222193508201013880612213565b85548884018501529485019487945091830191612236565b91505061222194506020925060ff191682840152151560051b8201013880612213565b6000546001600160a01b0316330361229d57565b606460405162461bcd60e51b815260206004820152602060248201527f4f776e61626c653a2063616c6c6572206973206e6f7420746865206f776e65726044820152fd5b9190820180921161049657565b8181106122f9575050565b600081556001016122ee565b8181029291811591840414171561049657565b1561231f57565b60405162461bcd60e51b815260206004820152601060248201526f4172656e61206e6f742061637469766560801b6044820152606490fd5b1561235e57565b60405162461bcd60e51b815260206004820152600f60248201526e496e76616c6964206f7574636f6d6560881b6044820152606490fd5b9081602091031261029b5751801515810361029b5790565b156123b457565b60405162461bcd60e51b815260206004820152601360248201527210d216881d1c985b9cd9995c8819985a5b1959606a1b6044820152606490fd5b60ff600254166123fb57565b60405162461bcd60e51b815260206004820152601060248201526f14185d5cd8589b194e881c185d5cd95960821b6044820152606490fd5b600260015414612444576002600155565b60405162461bcd60e51b815260206004820152601f60248201527f5265656e7472616e637947756172643a207265656e7472616e742063616c6c006044820152606490fd5b9190820391821161049657565b81156124a0570490565b634e487b7160e01b600052601260045260246000fd5b60025460405163088b6a0760e21b8152906020908290600490829060081c6001600160a01b03165afa908115610fe957600091612507575b506125039068056bc75e2d6310000092612305565b0490565b906020823d821161253c575b8161252060209383612130565b8101031261253957505168056bc75e2d631000006124ee565b80fd5b3d915061251356fea264697066735822122036f7c719c8b1f1fb437668c7458d7d11afcdb587e43f54118f3ef51c9d6d87c164736f6c63430008140033","opcodes":"PUSH1 0xE0 CALLVALUE PUSH3 0x147 JUMPI PUSH1 0x1F PUSH3 0x26F2 CODESIZE DUP2 SWAP1 SUB SWAP2 DUP3 ADD PUSH1 0x1F NOT AND DUP4 ADD SWAP2 PUSH1 0x1 PUSH1 0x1 PUSH1 0x40 SHL SUB DUP4 GT DUP5 DUP5 LT OR PUSH3 0x14C JUMPI DUP1 DUP5 SWAP3 PUSH1 0x80 SWAP5 PUSH1 0x40 MSTORE DUP4 CODECOPY DUP2 ADD SUB SLT PUSH3 0x147 JUMPI PUSH3 0x4D DUP2 PUSH3 0x162 JUMP JUMPDEST PUSH3 0x5B PUSH1 0x20 DUP4 ADD PUSH3 0x162 JUMP JUMPDEST PUSH3 0x77 PUSH1 0x60 PUSH3 0x6F PUSH1 0x40 DUP7 ADD PUSH3 0x162 JUMP JUMPDEST SWAP5 ADD PUSH3 0x162 JUMP JUMPDEST PUSH1 0x0 DUP1 SLOAD CALLER PUSH1 0x1 PUSH1 0x1 PUSH1 0xA0 SHL SUB NOT DUP3 AND DUP2 OR DUP4 SSTORE PUSH1 0x40 MLOAD SWAP7 SWAP4 SWAP5 PUSH1 0x1 PUSH1 0x1 PUSH1 0xA0 SHL SUB SWAP5 SWAP4 DUP6 SWAP4 SWAP2 SWAP3 SWAP2 DUP5 AND SWAP1 PUSH32 0x8BE0079C531659141344CD1FD0A4F28419497F9722A3DAAFE3B4186F6B6457E0 SWAP1 DUP1 LOG3 PUSH1 0x1 DUP1 DUP1 SSTORE PUSH1 0x2 DUP1 SLOAD PUSH1 0x3 SWAP3 SWAP1 SWAP3 SSTORE SWAP7 DUP4 AND PUSH1 0x80 MSTORE SWAP2 AND PUSH1 0xA0 MSTORE SWAP2 AND PUSH1 0xC0 MSTORE PUSH1 0x1 PUSH1 0x1 PUSH1 0xA8 SHL SUB NOT AND PUSH1 0x8 SWAP2 SWAP1 SWAP2 SHL PUSH2 0x100 PUSH1 0x1 PUSH1 0xA8 SHL SUB AND OR SWAP1 SSTORE PUSH2 0x257A SWAP1 DUP2 PUSH3 0x178 DUP3 CODECOPY PUSH1 0x80 MLOAD DUP2 DUP2 DUP2 PUSH2 0xD2D ADD MSTORE DUP2 DUP2 PUSH2 0x1387 ADD MSTORE PUSH2 0x1E69 ADD MSTORE PUSH1 0xA0 MLOAD DUP2 DUP2 DUP2 PUSH2 0x12CE ADD MSTORE PUSH2 0x1F31 ADD MSTORE PUSH1 0xC0 MLOAD DUP2 DUP2 DUP2 PUSH2 0xC9E ADD MSTORE PUSH2 0x1A7C ADD MSTORE RETURN JUMPDEST PUSH1 0x0 DUP1 REVERT JUMPDEST PUSH4 0x4E487B71 PUSH1 0xE0 SHL PUSH1 0x0 MSTORE PUSH1 0x41 PUSH1 0x4 MSTORE PUSH1 0x24 PUSH1 0x0 REVERT JUMPDEST MLOAD SWAP1 PUSH1 0x1 PUSH1 0x1 PUSH1 0xA0 SHL SUB DUP3 AND DUP3 SUB PUSH3 0x147 JUMPI JUMP INVALID PUSH1 0x80 DUP1 PUSH1 0x40 MSTORE PUSH1 0x4 CALLDATASIZE LT ISZERO PUSH2 0x13 JUMPI PUSH1 0x0 DUP1 REVERT JUMPDEST PUSH1 0x0 CALLDATALOAD PUSH1 0xE0 SHR SWAP1 DUP2 PUSH4 0x2BD529A EQ PUSH2 0x1FDE JUMPI POP DUP1 PUSH4 0x697F9A8 EQ PUSH2 0x1F60 JUMPI DUP1 PUSH4 0x87D31B7 EQ PUSH2 0x36E JUMPI DUP1 PUSH4 0x11EAC855 EQ PUSH2 0x1F1B JUMPI DUP1 PUSH4 0x1573B577 EQ PUSH2 0x1EF7 JUMPI DUP1 PUSH4 0x177C1708 EQ PUSH2 0x1EC4 JUMPI DUP1 PUSH4 0x1A6CC4AF EQ PUSH2 0x1E98 JUMPI DUP1 PUSH4 0x2654D81F EQ PUSH2 0x1E53 JUMPI DUP1 PUSH4 0x2CD10882 EQ PUSH2 0x1DB9 JUMPI DUP1 PUSH4 0x324CBDFC EQ PUSH2 0x1D71 JUMPI DUP1 PUSH4 0x34FBC9A1 EQ PUSH2 0x1D54 JUMPI DUP1 PUSH4 0x3EFE49AB EQ PUSH2 0x1BE8 JUMPI DUP1 PUSH4 0x3F4BA83A EQ PUSH2 0x1B54 JUMPI DUP1 PUSH4 0x4967A918 EQ PUSH2 0x369 JUMPI DUP1 PUSH4 0x55B13A4F EQ PUSH2 0x1B27 JUMPI DUP1 PUSH4 0x5C975ABB EQ PUSH2 0x1B04 JUMPI DUP1 PUSH4 0x715018A6 EQ PUSH2 0x1AAB JUMPI DUP1 PUSH4 0x75DAA3DE EQ PUSH2 0x1A66 JUMPI DUP1 PUSH4 0x814603F1 EQ PUSH2 0x17AB JUMPI DUP1 PUSH4 0x81A1D880 EQ PUSH2 0x1787 JUMPI DUP1 PUSH4 0x8456CB59 EQ PUSH2 0x172D JUMPI DUP1 PUSH4 0x863B6724 EQ PUSH2 0x16FA JUMPI DUP1 PUSH4 0x8DA5CB5B EQ PUSH2 0x16D1 JUMPI DUP1 PUSH4 0x93A86A2A EQ PUSH2 0x15DD JUMPI DUP1 PUSH4 0x95CCEA67 EQ PUSH2 0x155F JUMPI DUP1 PUSH4 0xA45922DC EQ PUSH2 0x1133 JUMPI DUP1 PUSH4 0xB1724B46 EQ PUSH2 0x1115 JUMPI DUP1 PUSH4 0xB8BD39D5 EQ PUSH2 0xBFA JUMPI DUP1 PUSH4 0xC3CA7F31 EQ PUSH2 0xBDD JUMPI DUP1 PUSH4 0xC4F32746 EQ PUSH2 0x4E8 JUMPI DUP1 PUSH4 0xC9F6FA9E EQ PUSH2 0x391 JUMPI DUP1 PUSH4 0xCF8753B2 EQ PUSH2 0x373 JUMPI DUP1 PUSH4 0xD231DFF4 EQ PUSH2 0x36E JUMPI DUP1 PUSH4 0xDA605F64 EQ PUSH2 0x369 JUMPI DUP1 PUSH4 0xF2FDE38B EQ PUSH2 0x2A0 JUMPI PUSH4 0xFC842B10 EQ PUSH2 0x1AB JUMPI PUSH1 0x0 DUP1 REVERT JUMPDEST CALLVALUE PUSH2 0x29B JUMPI PUSH1 0x20 CALLDATASIZE PUSH1 0x3 NOT ADD SLT PUSH2 0x29B JUMPI PUSH1 0x4 CALLDATALOAD PUSH1 0x0 MSTORE PUSH1 0x4 PUSH1 0x20 MSTORE PUSH1 0x40 PUSH1 0x0 KECCAK256 PUSH2 0x1D5 DUP2 PUSH2 0x21E3 JUMP JUMPDEST PUSH1 0x2 DUP3 ADD SLOAD PUSH1 0xFF AND SWAP1 PUSH1 0x3 DUP4 ADD SLOAD SWAP3 PUSH1 0x4 DUP2 ADD SLOAD SWAP1 PUSH1 0x5 DUP2 ADD SLOAD PUSH1 0x6 DUP3 ADD SLOAD PUSH1 0xFF AND PUSH1 0x7 DUP4 ADD SLOAD PUSH1 0x8 DUP5 ADD SLOAD PUSH1 0x9 DUP6 ADD SLOAD SWAP2 PUSH1 0xA DUP7 ADD SLOAD SWAP4 PUSH1 0xB DUP8 ADD SLOAD SWAP6 PUSH1 0xC DUP9 ADD SLOAD SWAP8 PUSH1 0xD ADD SLOAD SWAP9 PUSH1 0x40 MLOAD SWAP13 DUP14 SWAP13 DUP14 SWAP13 DUP14 PUSH2 0x1C0 SWAP1 DUP2 DUP2 MSTORE ADD PUSH2 0x238 SWAP2 PUSH2 0x20C6 JUMP JUMPDEST SWAP13 PUSH1 0x20 ADD PUSH2 0x245 SWAP2 PUSH2 0x2106 JUMP JUMPDEST PUSH1 0x40 DUP14 ADD MSTORE PUSH1 0x60 DUP13 ADD MSTORE PUSH1 0x80 DUP12 ADD MSTORE ISZERO ISZERO PUSH1 0xA0 DUP11 ADD MSTORE PUSH1 0xC0 DUP10 ADD MSTORE PUSH1 0xE0 DUP9 ADD MSTORE PUSH2 0x100 DUP8 ADD MSTORE PUSH2 0x120 DUP7 ADD MSTORE PUSH2 0x140 DUP6 ADD MSTORE PUSH1 0xFF DUP2 AND ISZERO ISZERO PUSH2 0x160 DUP6 ADD MSTORE PUSH1 0x8 SHR PUSH1 0xFF AND ISZERO ISZERO PUSH2 0x180 DUP5 ADD MSTORE PUSH2 0x1A0 DUP4 ADD MSTORE SUB SWAP1 RETURN JUMPDEST PUSH1 0x0 DUP1 REVERT JUMPDEST CALLVALUE PUSH2 0x29B JUMPI PUSH1 0x20 CALLDATASIZE PUSH1 0x3 NOT ADD SLT PUSH2 0x29B JUMPI PUSH2 0x2B9 PUSH2 0x2053 JUMP JUMPDEST PUSH2 0x2C1 PUSH2 0x2289 JUMP JUMPDEST PUSH1 0x1 PUSH1 0x1 PUSH1 0xA0 SHL SUB SWAP1 DUP2 AND SWAP1 DUP2 ISZERO PUSH2 0x315 JUMPI PUSH1 0x0 SLOAD DUP3 PUSH12 0xFFFFFFFFFFFFFFFFFFFFFFFF PUSH1 0xA0 SHL DUP3 AND OR PUSH1 0x0 SSTORE AND PUSH32 0x8BE0079C531659141344CD1FD0A4F28419497F9722A3DAAFE3B4186F6B6457E0 PUSH1 0x0 DUP1 LOG3 STOP JUMPDEST PUSH1 0x40 MLOAD PUSH3 0x461BCD PUSH1 0xE5 SHL DUP2 MSTORE PUSH1 0x20 PUSH1 0x4 DUP3 ADD MSTORE PUSH1 0x26 PUSH1 0x24 DUP3 ADD MSTORE PUSH32 0x4F776E61626C653A206E6577206F776E657220697320746865207A65726F2061 PUSH1 0x44 DUP3 ADD MSTORE PUSH6 0x646472657373 PUSH1 0xD0 SHL PUSH1 0x64 DUP3 ADD MSTORE PUSH1 0x84 SWAP1 REVERT JUMPDEST PUSH2 0x2113 JUMP JUMPDEST PUSH2 0x2093 JUMP JUMPDEST CALLVALUE PUSH2 0x29B JUMPI PUSH1 0x0 CALLDATASIZE PUSH1 0x3 NOT ADD SLT PUSH2 0x29B JUMPI PUSH1 0x20 PUSH1 0x3 SLOAD PUSH1 0x40 MLOAD SWAP1 DUP2 MSTORE RETURN JUMPDEST CALLVALUE PUSH2 0x29B JUMPI PUSH1 0x20 DUP1 PUSH1 0x3 NOT CALLDATASIZE ADD SLT PUSH2 0x29B JUMPI PUSH1 0x4 CALLDATALOAD SWAP1 PUSH2 0x3AF PUSH2 0x2289 JUMP JUMPDEST DUP2 PUSH1 0x0 MSTORE PUSH1 0x4 DUP2 MSTORE PUSH1 0x40 PUSH1 0x0 KECCAK256 PUSH2 0x3CC PUSH1 0xFF PUSH1 0xC DUP4 ADD SLOAD AND PUSH2 0x2318 JUMP JUMPDEST DUP3 PUSH1 0x0 MSTORE PUSH1 0x8 DUP3 MSTORE PUSH1 0x40 PUSH1 0x0 KECCAK256 SLOAD DUP1 ISZERO PUSH2 0x4AC JUMPI PUSH2 0x1770 DUP2 MUL SWAP3 PUSH2 0x176F NOT DUP3 DUP6 DIV ADD PUSH2 0x496 JUMPI PUSH2 0x46B PUSH1 0x40 SWAP4 PUSH1 0x9 PUSH2 0x2710 PUSH32 0xBD2DD45D3814D32DF6382F322EFCCEA7E1D8FB603966B10586311C5C16024EDC SWAP8 DIV PUSH2 0x42A DUP2 DUP8 PUSH2 0x2489 JUMP JUMPDEST PUSH2 0x439 PUSH1 0x8 DUP6 ADD SWAP3 DUP4 SLOAD PUSH2 0x22E1 JUMP JUMPDEST DUP3 SSTORE PUSH1 0xA DUP5 ADD PUSH2 0x44A DUP9 DUP3 SLOAD PUSH2 0x22E1 JUMP JUMPDEST SWAP1 SSTORE DUP1 PUSH2 0x477 JUMPI JUMPDEST POP DUP9 PUSH1 0x0 MSTORE PUSH1 0x8 DUP6 MSTORE PUSH1 0x0 DUP8 DUP2 KECCAK256 SSTORE SLOAD SWAP2 ADD SLOAD SWAP1 PUSH2 0x22E1 JUMP JUMPDEST SWAP1 DUP4 MLOAD SWAP3 DUP4 MSTORE DUP3 ADD MSTORE LOG2 STOP JUMPDEST PUSH2 0x480 SWAP1 PUSH2 0x24B6 JUMP JUMPDEST PUSH2 0x48E DUP4 DUP6 ADD SWAP2 DUP3 SLOAD PUSH2 0x22E1 JUMP JUMPDEST SWAP1 SSTORE DUP10 PUSH2 0x452 JUMP JUMPDEST PUSH4 0x4E487B71 PUSH1 0xE0 SHL PUSH1 0x0 MSTORE PUSH1 0x11 PUSH1 0x4 MSTORE PUSH1 0x24 PUSH1 0x0 REVERT JUMPDEST PUSH1 0x40 MLOAD PUSH3 0x461BCD PUSH1 0xE5 SHL DUP2 MSTORE PUSH1 0x4 DUP2 ADD DUP5 SWAP1 MSTORE PUSH1 0x14 PUSH1 0x24 DUP3 ADD MSTORE PUSH20 0x4E6F20616363756D756C617465642066756E6473 PUSH1 0x60 SHL PUSH1 0x44 DUP3 ADD MSTORE PUSH1 0x64 SWAP1 REVERT JUMPDEST CALLVALUE PUSH2 0x29B JUMPI PUSH1 0xA0 CALLDATASIZE PUSH1 0x3 NOT ADD SLT PUSH2 0x29B JUMPI PUSH1 0x4 CALLDATALOAD PUSH8 0xFFFFFFFFFFFFFFFF DUP2 GT PUSH2 0x29B JUMPI PUSH2 0x519 SWAP1 CALLDATASIZE SWAP1 PUSH1 0x4 ADD PUSH2 0x2152 JUMP JUMPDEST PUSH1 0x24 CALLDATALOAD PUSH8 0xFFFFFFFFFFFFFFFF DUP2 GT PUSH2 0x29B JUMPI CALLDATASIZE PUSH1 0x23 DUP3 ADD SLT ISZERO PUSH2 0x29B JUMPI DUP1 PUSH1 0x4 ADD CALLDATALOAD SWAP1 PUSH8 0xFFFFFFFFFFFFFFFF DUP3 GT PUSH2 0x992 JUMPI DUP2 PUSH1 0x5 SHL SWAP1 PUSH1 0x40 MLOAD SWAP3 PUSH2 0x561 PUSH1 0x20 DUP5 ADD DUP6 PUSH2 0x2130 JUMP JUMPDEST DUP4 MSTORE PUSH1 0x24 PUSH1 0x20 DUP5 ADD SWAP3 DUP3 ADD ADD SWAP1 CALLDATASIZE DUP3 GT PUSH2 0x29B JUMPI PUSH1 0x24 DUP2 ADD SWAP3 JUMPDEST DUP3 DUP5 LT PUSH2 0xBAD JUMPI DUP6 DUP6 PUSH1 0x4 PUSH1 0x44 CALLDATALOAD LT ISZERO PUSH2 0x29B JUMPI PUSH1 0x84 CALLDATALOAD SWAP2 PUSH2 0x59B PUSH2 0x2289 JUMP JUMPDEST PUSH3 0x76A700 DUP4 GT PUSH2 0xB68 JUMPI PUSH9 0x821AB0D4414980000 PUSH1 0x64 CALLDATALOAD LT ISZERO DUP1 PUSH2 0xB53 JUMPI JUMPDEST ISZERO PUSH2 0xB0E JUMPI PUSH1 0x2 DUP3 MLOAD LT PUSH2 0xAC9 JUMPI PUSH1 0x3 SLOAD SWAP3 PUSH1 0x0 NOT DUP5 EQ PUSH2 0x496 JUMPI PUSH2 0x5E6 SWAP1 PUSH1 0x1 DUP6 ADD PUSH1 0x3 SSTORE TIMESTAMP PUSH2 0x22E1 JUMP JUMPDEST SWAP1 PUSH1 0x40 MLOAD SWAP3 DUP4 PUSH2 0x1E0 DUP2 ADD LT PUSH8 0xFFFFFFFFFFFFFFFF PUSH2 0x1E0 DUP7 ADD GT OR PUSH2 0x992 JUMPI PUSH2 0x1E0 DUP5 ADD PUSH1 0x40 MSTORE DUP2 DUP5 MSTORE PUSH1 0x20 DUP5 ADD MSTORE PUSH1 0x44 CALLDATALOAD PUSH1 0x40 DUP5 ADD MSTORE TIMESTAMP PUSH1 0x60 DUP5 ADD MSTORE DUP2 PUSH1 0x80 DUP5 ADD MSTORE DUP2 PUSH1 0xA0 DUP5 ADD MSTORE PUSH1 0x0 PUSH1 0xC0 DUP5 ADD MSTORE PUSH1 0x0 PUSH1 0xE0 DUP5 ADD MSTORE PUSH1 0x0 PUSH2 0x100 DUP5 ADD MSTORE PUSH1 0x0 PUSH2 0x120 DUP5 ADD MSTORE PUSH1 0x0 PUSH2 0x140 DUP5 ADD MSTORE PUSH1 0x64 CALLDATALOAD PUSH2 0x160 DUP5 ADD MSTORE PUSH1 0x1 PUSH2 0x180 DUP5 ADD MSTORE PUSH1 0x0 PUSH2 0x1A0 DUP5 ADD MSTORE TIMESTAMP PUSH2 0x1C0 DUP5 ADD MSTORE DUP4 PUSH1 0x0 MSTORE PUSH1 0x4 PUSH1 0x20 MSTORE PUSH1 0x40 PUSH1 0x0 KECCAK256 SWAP2 DUP4 MLOAD DUP1 MLOAD SWAP1 PUSH8 0xFFFFFFFFFFFFFFFF DUP3 GT PUSH2 0x992 JUMPI DUP2 SWAP1 PUSH2 0x6A5 DUP7 SLOAD PUSH2 0x21A9 JUMP JUMPDEST PUSH1 0x1F DUP2 GT PUSH2 0xA97 JUMPI JUMPDEST POP PUSH1 0x20 SWAP1 PUSH1 0x1F DUP4 GT PUSH1 0x1 EQ PUSH2 0xA2B JUMPI PUSH1 0x0 SWAP3 PUSH2 0xA20 JUMPI JUMPDEST POP POP DUP2 PUSH1 0x1 SHL SWAP2 PUSH1 0x0 NOT SWAP1 PUSH1 0x3 SHL SHR NOT AND OR DUP4 SSTORE JUMPDEST PUSH1 0x20 DUP5 ADD MLOAD DUP1 MLOAD SWAP1 PUSH9 0x10000000000000000 DUP3 GT PUSH2 0x992 JUMPI PUSH1 0x1 DUP6 ADD SLOAD DUP3 PUSH1 0x1 DUP8 ADD SSTORE DUP1 DUP4 LT PUSH2 0x9A8 JUMPI JUMPDEST POP PUSH1 0x20 ADD SWAP1 PUSH1 0x1 DUP6 ADD PUSH1 0x0 MSTORE PUSH1 0x20 PUSH1 0x0 KECCAK256 SWAP2 PUSH1 0x0 SWAP1 JUMPDEST DUP3 DUP3 LT PUSH2 0x871 JUMPI POP POP POP POP PUSH1 0x40 DUP5 ADD MLOAD SWAP3 PUSH1 0x4 DUP5 LT ISZERO PUSH2 0x85B JUMPI PUSH1 0xD PUSH2 0x1C0 PUSH32 0x6C90EF3343D2352C96FF8F0F88F4B93E3FF099630AE09CAE1951184C0AD067BF SWAP7 PUSH2 0x839 SWAP7 PUSH1 0x2 DUP6 ADD SWAP1 PUSH1 0xFF DUP1 NOT DUP4 SLOAD AND SWAP2 AND OR SWAP1 SSTORE PUSH1 0x60 DUP2 ADD MLOAD PUSH1 0x3 DUP6 ADD SSTORE PUSH1 0x80 DUP2 ADD MLOAD PUSH1 0x4 DUP6 ADD SSTORE PUSH1 0xA0 DUP2 ADD MLOAD PUSH1 0x5 DUP6 ADD SSTORE PUSH2 0x7AE PUSH1 0xC0 DUP3 ADD MLOAD ISZERO ISZERO PUSH1 0x6 DUP7 ADD SWAP1 PUSH1 0xFF DUP1 NOT DUP4 SLOAD AND SWAP2 ISZERO ISZERO AND OR SWAP1 SSTORE JUMP JUMPDEST PUSH1 0xE0 DUP2 ADD MLOAD PUSH1 0x7 DUP6 ADD SSTORE PUSH2 0x100 DUP2 ADD MLOAD PUSH1 0x8 DUP6 ADD SSTORE PUSH2 0x120 DUP2 ADD MLOAD PUSH1 0x9 DUP6 ADD SSTORE PUSH2 0x140 DUP2 ADD MLOAD PUSH1 0xA DUP6 ADD SSTORE PUSH2 0x160 DUP2 ADD MLOAD PUSH1 0xB DUP6 ADD SSTORE PUSH1 0xC DUP5 ADD PUSH2 0x805 PUSH2 0x180 DUP4 ADD MLOAD ISZERO ISZERO DUP3 SWAP1 PUSH1 0xFF DUP1 NOT DUP4 SLOAD AND SWAP2 ISZERO ISZERO AND OR SWAP1 SSTORE JUMP JUMPDEST PUSH2 0x1A0 DUP3 ADD MLOAD ISZERO ISZERO PUSH2 0xFF00 DUP3 SLOAD SWAP2 PUSH1 0x8 SHL AND SWAP1 PUSH2 0xFF00 NOT AND OR SWAP1 SSTORE ADD MLOAD SWAP2 ADD SSTORE PUSH1 0x40 MLOAD SWAP3 DUP4 SWAP3 PUSH1 0x80 DUP5 MSTORE PUSH1 0x80 DUP5 ADD SWAP1 PUSH2 0x20C6 JUMP JUMPDEST SWAP1 PUSH2 0x849 PUSH1 0x20 DUP5 ADD PUSH1 0x44 CALLDATALOAD PUSH2 0x2106 JUMP JUMPDEST PUSH1 0x64 CALLDATALOAD PUSH1 0x40 DUP5 ADD MSTORE PUSH1 0x60 DUP4 ADD MSTORE SUB SWAP1 LOG2 STOP JUMPDEST PUSH4 0x4E487B71 PUSH1 0xE0 SHL PUSH1 0x0 MSTORE PUSH1 0x21 PUSH1 0x4 MSTORE PUSH1 0x24 PUSH1 0x0 REVERT JUMPDEST DUP1 MLOAD DUP1 MLOAD SWAP1 PUSH8 0xFFFFFFFFFFFFFFFF DUP3 GT PUSH2 0x992 JUMPI PUSH2 0x88F DUP7 SLOAD PUSH2 0x21A9 JUMP JUMPDEST PUSH1 0x1F DUP2 GT PUSH2 0x955 JUMPI JUMPDEST POP PUSH1 0x20 SWAP1 PUSH1 0x1F DUP4 GT PUSH1 0x1 EQ PUSH2 0x8E5 JUMPI SWAP3 DUP3 PUSH1 0x1 SWAP5 SWAP4 PUSH1 0x20 SWAP4 DUP7 SWAP6 PUSH1 0x0 SWAP3 PUSH2 0x8DA JUMPI JUMPDEST POP POP PUSH1 0x0 NOT PUSH1 0x3 DUP4 SWAP1 SHL SHR NOT AND SWAP1 DUP5 SHL OR DUP8 SSTORE JUMPDEST ADD SWAP5 ADD SWAP2 ADD SWAP1 SWAP3 PUSH2 0x71B JUMP JUMPDEST ADD MLOAD SWAP1 POP DUP15 DUP1 PUSH2 0x8BA JUMP JUMPDEST SWAP1 DUP7 PUSH1 0x0 MSTORE PUSH1 0x20 PUSH1 0x0 KECCAK256 SWAP2 PUSH1 0x0 JUMPDEST PUSH1 0x1F NOT DUP6 AND DUP2 LT PUSH2 0x93D JUMPI POP DUP4 PUSH1 0x20 SWAP4 PUSH1 0x1 SWAP7 SWAP4 DUP8 SWAP7 SWAP4 DUP8 SWAP5 PUSH1 0x1F NOT DUP2 AND LT PUSH2 0x924 JUMPI JUMPDEST POP POP POP DUP2 SHL ADD DUP8 SSTORE PUSH2 0x8CE JUMP JUMPDEST ADD MLOAD PUSH1 0x0 NOT PUSH1 0xF8 DUP5 PUSH1 0x3 SHL AND SHR NOT AND SWAP1 SSTORE DUP15 DUP1 DUP1 PUSH2 0x917 JUMP JUMPDEST SWAP2 SWAP3 PUSH1 0x20 PUSH1 0x1 DUP2 SWAP3 DUP7 DUP6 ADD MLOAD DUP2 SSTORE ADD SWAP5 ADD SWAP3 ADD PUSH2 0x8F3 JUMP JUMPDEST PUSH2 0x982 SWAP1 DUP8 PUSH1 0x0 MSTORE PUSH1 0x20 PUSH1 0x0 KECCAK256 PUSH1 0x1F DUP6 ADD PUSH1 0x5 SHR DUP2 ADD SWAP2 PUSH1 0x20 DUP7 LT PUSH2 0x988 JUMPI JUMPDEST PUSH1 0x1F ADD PUSH1 0x5 SHR ADD SWAP1 PUSH2 0x22EE JUMP JUMPDEST DUP12 PUSH2 0x898 JUMP JUMPDEST SWAP1 SWAP2 POP DUP2 SWAP1 PUSH2 0x975 JUMP JUMPDEST PUSH4 0x4E487B71 PUSH1 0xE0 SHL PUSH1 0x0 MSTORE PUSH1 0x41 PUSH1 0x4 MSTORE PUSH1 0x24 PUSH1 0x0 REVERT JUMPDEST PUSH1 0x1 DUP7 ADD PUSH1 0x0 MSTORE PUSH1 0x20 PUSH1 0x0 KECCAK256 SWAP1 DUP4 DUP3 ADD JUMPDEST DUP2 DUP4 ADD DUP2 LT PUSH2 0x9C9 JUMPI POP POP PUSH2 0x705 JUMP JUMPDEST DUP1 PUSH2 0x9D6 PUSH1 0x1 SWAP3 SLOAD PUSH2 0x21A9 JUMP JUMPDEST DUP1 PUSH2 0x9E3 JUMPI JUMPDEST POP ADD PUSH2 0x9B9 JUMP JUMPDEST PUSH1 0x1F DUP2 GT DUP4 EQ PUSH2 0x9F9 JUMPI POP PUSH1 0x0 DUP2 SSTORE JUMPDEST DUP12 PUSH2 0x9DC JUMP JUMPDEST PUSH1 0x0 SWAP1 DUP3 DUP3 MSTORE PUSH2 0xA17 PUSH1 0x1F PUSH1 0x20 DUP5 KECCAK256 SWAP3 ADD PUSH1 0x5 SHR DUP3 ADD DUP6 DUP4 ADD PUSH2 0x22EE JUMP JUMPDEST DUP2 DUP4 SSTORE SSTORE PUSH2 0x9F3 JUMP JUMPDEST ADD MLOAD SWAP1 POP DUP8 DUP1 PUSH2 0x6C5 JUMP JUMPDEST SWAP3 POP DUP6 PUSH1 0x0 MSTORE PUSH1 0x20 PUSH1 0x0 KECCAK256 SWAP1 PUSH1 0x0 SWAP4 JUMPDEST PUSH1 0x1F NOT DUP5 AND DUP6 LT PUSH2 0xA7C JUMPI PUSH1 0x1 SWAP5 POP DUP4 PUSH1 0x1F NOT DUP2 AND LT PUSH2 0xA63 JUMPI JUMPDEST POP POP POP DUP2 SHL ADD DUP4 SSTORE PUSH2 0x6DA JUMP JUMPDEST ADD MLOAD PUSH1 0x0 NOT PUSH1 0xF8 DUP5 PUSH1 0x3 SHL AND SHR NOT AND SWAP1 SSTORE DUP8 DUP1 DUP1 PUSH2 0xA56 JUMP JUMPDEST DUP2 DUP2 ADD MLOAD DUP4 SSTORE PUSH1 0x20 SWAP5 DUP6 ADD SWAP5 PUSH1 0x1 SWAP1 SWAP4 ADD SWAP3 SWAP1 SWAP2 ADD SWAP1 PUSH2 0xA3B JUMP JUMPDEST PUSH2 0xAC3 SWAP1 DUP8 PUSH1 0x0 MSTORE PUSH1 0x20 PUSH1 0x0 KECCAK256 PUSH1 0x1F DUP6 ADD PUSH1 0x5 SHR DUP2 ADD SWAP2 PUSH1 0x20 DUP7 LT PUSH2 0x988 JUMPI PUSH1 0x1F ADD PUSH1 0x5 SHR ADD SWAP1 PUSH2 0x22EE JUMP JUMPDEST DUP9 PUSH2 0x6AE JUMP JUMPDEST PUSH1 0x40 MLOAD PUSH3 0x461BCD PUSH1 0xE5 SHL DUP2 MSTORE PUSH1 0x20 PUSH1 0x4 DUP3 ADD MSTORE PUSH1 0x18 PUSH1 0x24 DUP3 ADD MSTORE PUSH32 0x4E656564206174206C656173742032206F7574636F6D65730000000000000000 PUSH1 0x44 DUP3 ADD MSTORE PUSH1 0x64 SWAP1 REVERT JUMPDEST PUSH1 0x40 MLOAD PUSH3 0x461BCD PUSH1 0xE5 SHL DUP2 MSTORE PUSH1 0x20 PUSH1 0x4 DUP3 ADD MSTORE PUSH1 0x17 PUSH1 0x24 DUP3 ADD MSTORE PUSH32 0x496E76616C696420656E747279206665652072616E6765000000000000000000 PUSH1 0x44 DUP3 ADD MSTORE PUSH1 0x64 SWAP1 REVERT JUMPDEST POP PUSH9 0x1B1AE4D6E2EF500000 PUSH1 0x64 CALLDATALOAD GT ISZERO PUSH2 0x5BA JUMP JUMPDEST PUSH1 0x40 MLOAD PUSH3 0x461BCD PUSH1 0xE5 SHL DUP2 MSTORE PUSH1 0x20 PUSH1 0x4 DUP3 ADD MSTORE PUSH1 0x18 PUSH1 0x24 DUP3 ADD MSTORE PUSH32 0x4475726174696F6E2065786365656473206D6178696D756D0000000000000000 PUSH1 0x44 DUP3 ADD MSTORE PUSH1 0x64 SWAP1 REVERT JUMPDEST DUP4 CALLDATALOAD PUSH8 0xFFFFFFFFFFFFFFFF DUP2 GT PUSH2 0x29B JUMPI PUSH1 0x20 SWAP2 PUSH2 0xBD2 DUP4 SWAP3 PUSH1 0x24 CALLDATASIZE SWAP2 DUP8 ADD ADD PUSH2 0x2152 JUMP JUMPDEST DUP2 MSTORE ADD SWAP4 ADD SWAP3 PUSH2 0x57B JUMP JUMPDEST CALLVALUE PUSH2 0x29B JUMPI PUSH1 0x0 CALLDATASIZE PUSH1 0x3 NOT ADD SLT PUSH2 0x29B JUMPI PUSH1 0x20 PUSH1 0x40 MLOAD PUSH2 0x3E8 DUP2 MSTORE RETURN JUMPDEST CALLVALUE PUSH2 0x29B JUMPI PUSH1 0x60 CALLDATASIZE PUSH1 0x3 NOT ADD SLT PUSH2 0x29B JUMPI PUSH1 0x4 CALLDATALOAD PUSH1 0x24 SWAP1 DUP2 CALLDATALOAD SWAP2 PUSH1 0x44 CALLDATALOAD SWAP1 DUP2 ISZERO ISZERO SWAP2 DUP3 DUP2 SUB PUSH2 0x29B JUMPI PUSH2 0xC2B PUSH2 0x2433 JUMP JUMPDEST PUSH2 0xC33 PUSH2 0x23EF JUMP JUMPDEST DUP4 PUSH1 0x0 MSTORE PUSH1 0x20 SWAP1 PUSH1 0x4 DUP3 MSTORE PUSH1 0x40 PUSH1 0x0 KECCAK256 SWAP1 PUSH2 0xC54 PUSH1 0xFF PUSH1 0xC DUP5 ADD SLOAD AND PUSH2 0x2318 JUMP JUMPDEST PUSH1 0xFF PUSH1 0x6 DUP4 ADD SLOAD AND PUSH2 0x10D8 JUMPI PUSH1 0x5 DUP3 ADD SLOAD TIMESTAMP LT ISZERO PUSH2 0x1094 JUMPI PUSH2 0xC7B PUSH1 0x1 DUP4 ADD SLOAD DUP9 LT PUSH2 0x2357 JUMP JUMPDEST PUSH1 0x40 MLOAD PUSH4 0x70A08231 PUSH1 0xE0 SHL DUP2 MSTORE CALLER PUSH1 0x4 DUP3 ADD MSTORE PUSH1 0x1 PUSH1 0x1 PUSH1 0xA0 SHL SUB SWAP2 SWAP1 DUP5 DUP2 DUP8 DUP2 PUSH32 0x0 DUP8 AND GAS STATICCALL DUP1 ISZERO PUSH2 0xFE9 JUMPI PUSH1 0x0 SWAP1 PUSH2 0x105E JUMPI JUMPDEST PUSH9 0x6C6B935B8BBD400000 SWAP2 POP LT PUSH2 0x101A JUMPI DUP4 SWAP1 ISZERO PUSH2 0x100A JUMPI POP PUSH1 0xB DUP3 ADD SLOAD PUSH9 0x1158E460913D00000 DUP2 ADD DUP1 SWAP2 GT PUSH2 0xFF5 JUMPI PUSH1 0x0 SWAP3 SWAP2 PUSH1 0x64 DUP6 SWAP3 JUMPDEST PUSH1 0x40 MLOAD SWAP6 DUP7 SWAP4 DUP5 SWAP3 PUSH4 0x23B872DD PUSH1 0xE0 SHL DUP5 MSTORE CALLER PUSH1 0x4 DUP6 ADD MSTORE ADDRESS DUP12 DUP6 ADD MSTORE PUSH1 0x44 DUP5 ADD MSTORE PUSH32 0x0 AND GAS CALL SWAP2 DUP3 ISZERO PUSH2 0xFE9 JUMPI PUSH1 0xB SWAP3 PUSH2 0xD6B SWAP2 PUSH1 0x0 SWAP2 PUSH2 0xFBC JUMPI JUMPDEST POP PUSH2 0x23AD JUMP JUMPDEST ADD SLOAD SWAP2 PUSH2 0xFA0 DUP1 DUP5 MUL SWAP2 DUP5 ISZERO SWAP2 DUP6 DUP5 DIV EQ DUP3 OR ISZERO PUSH2 0xFA8 JUMPI PUSH2 0x2710 DUP1 SWAP4 DIV PUSH2 0xBB8 SWAP3 DUP4 DUP8 MUL SWAP4 DUP8 DUP6 DIV EQ OR ISZERO PUSH2 0xF93 JUMPI PUSH2 0x1770 DUP1 DUP3 MUL SWAP1 DUP3 DUP3 DIV EQ DUP3 ISZERO OR ISZERO PUSH2 0xF7E JUMPI DUP5 PUSH2 0xDBB SWAP2 DIV DUP1 SWAP3 PUSH2 0x2489 JUMP JUMPDEST SWAP1 DUP9 PUSH1 0x0 MSTORE PUSH1 0x4 DUP7 MSTORE PUSH1 0x40 PUSH1 0x0 KECCAK256 PUSH1 0x8 DUP2 ADD PUSH2 0xDD8 DUP4 DUP3 SLOAD PUSH2 0x22E1 JUMP JUMPDEST SWAP1 SSTORE DUP10 PUSH1 0x0 MSTORE PUSH1 0x5 DUP8 MSTORE PUSH1 0x40 PUSH1 0x0 KECCAK256 DUP12 PUSH1 0x0 MSTORE DUP8 MSTORE PUSH2 0xDFC DUP3 PUSH1 0x40 PUSH1 0x0 KECCAK256 SLOAD PUSH2 0x22E1 JUMP JUMPDEST DUP11 PUSH1 0x0 MSTORE PUSH1 0x5 DUP9 MSTORE PUSH1 0x40 PUSH1 0x0 KECCAK256 DUP13 PUSH1 0x0 MSTORE DUP9 MSTORE PUSH1 0x40 PUSH1 0x0 KECCAK256 SSTORE PUSH1 0x0 SWAP3 DUP1 PUSH2 0xF1F JUMPI JUMPDEST POP POP PUSH1 0x40 MLOAD SWAP3 PUSH1 0x80 DUP5 ADD SWAP1 DUP5 DUP3 LT PUSH8 0xFFFFFFFFFFFFFFFF DUP4 GT OR PUSH2 0xF0B JUMPI POP SWAP2 PUSH1 0x3 SWAP2 PUSH2 0xEC3 SWAP7 SWAP6 SWAP5 SWAP4 PUSH1 0x40 MSTORE DUP4 MSTORE DUP7 DUP4 ADD SWAP1 DUP2 MSTORE PUSH2 0xEAB PUSH1 0x40 DUP5 ADD DUP11 DUP2 MSTORE PUSH1 0x60 DUP6 ADD SWAP3 TIMESTAMP DUP5 MSTORE DUP13 PUSH1 0x0 MSTORE PUSH1 0x7 DUP11 MSTORE DUP14 PUSH1 0x40 PUSH1 0x0 KECCAK256 SWAP1 PUSH1 0x0 MSTORE DUP11 MSTORE PUSH1 0x40 PUSH1 0x0 KECCAK256 CALLER PUSH1 0x0 MSTORE DUP11 MSTORE PUSH1 0x40 PUSH1 0x0 KECCAK256 SWAP6 MLOAD DUP7 SSTORE MLOAD PUSH1 0x1 DUP7 ADD SSTORE MLOAD ISZERO ISZERO PUSH1 0x2 DUP6 ADD SWAP1 PUSH1 0xFF DUP1 NOT DUP4 SLOAD AND SWAP2 ISZERO ISZERO AND OR SWAP1 SSTORE JUMP JUMPDEST MLOAD SWAP2 ADD SSTORE DUP7 PUSH1 0x0 MSTORE PUSH1 0x8 DUP5 MSTORE DIV PUSH1 0x40 PUSH1 0x0 KECCAK256 SLOAD PUSH2 0x22E1 JUMP JUMPDEST DUP5 PUSH1 0x0 MSTORE PUSH1 0x8 DUP3 MSTORE PUSH1 0x40 PUSH1 0x0 KECCAK256 SSTORE PUSH1 0x40 MLOAD SWAP5 DUP6 MSTORE DUP5 ADD MSTORE PUSH1 0x40 DUP4 ADD MSTORE PUSH32 0x9234AD89F4D0546EDC8C0F2FF5B90B01A91E5E4903BE57DE3382D9A25D967071 PUSH1 0x60 CALLER SWAP4 LOG3 PUSH1 0x1 DUP1 SSTORE STOP JUMPDEST PUSH4 0x4E487B71 PUSH1 0xE0 SHL PUSH1 0x0 SWAP1 DUP2 MSTORE PUSH1 0x41 PUSH1 0x4 MSTORE REVERT JUMPDEST PUSH1 0x9 SWAP2 SWAP4 POP PUSH2 0xF2D SWAP1 PUSH2 0x24B6 JUMP JUMPDEST SWAP3 ADD PUSH2 0xF3A DUP4 DUP3 SLOAD PUSH2 0x22E1 JUMP JUMPDEST SWAP1 SSTORE DUP9 PUSH1 0x0 MSTORE PUSH1 0x6 DUP7 MSTORE PUSH1 0x40 PUSH1 0x0 KECCAK256 DUP11 PUSH1 0x0 MSTORE DUP7 MSTORE PUSH2 0xF5E DUP3 PUSH1 0x40 PUSH1 0x0 KECCAK256 SLOAD PUSH2 0x22E1 JUMP JUMPDEST DUP10 PUSH1 0x0 MSTORE PUSH1 0x6 DUP8 MSTORE PUSH1 0x40 PUSH1 0x0 KECCAK256 DUP12 PUSH1 0x0 MSTORE DUP8 MSTORE PUSH1 0x40 PUSH1 0x0 KECCAK256 SSTORE DUP11 DUP1 PUSH2 0xE1E JUMP JUMPDEST DUP3 PUSH4 0x4E487B71 PUSH1 0xE0 SHL PUSH1 0x0 MSTORE PUSH1 0x11 PUSH1 0x4 MSTORE PUSH1 0x0 REVERT JUMPDEST POP PUSH4 0x4E487B71 PUSH1 0xE0 SHL PUSH1 0x0 SWAP1 DUP2 MSTORE PUSH1 0x11 PUSH1 0x4 MSTORE REVERT JUMPDEST PUSH4 0x4E487B71 PUSH1 0xE0 SHL PUSH1 0x0 SWAP1 DUP2 MSTORE PUSH1 0x11 PUSH1 0x4 MSTORE REVERT JUMPDEST PUSH2 0xFDC SWAP2 POP DUP6 RETURNDATASIZE DUP8 GT PUSH2 0xFE2 JUMPI JUMPDEST PUSH2 0xFD4 DUP2 DUP4 PUSH2 0x2130 JUMP JUMPDEST DUP2 ADD SWAP1 PUSH2 0x2395 JUMP JUMPDEST DUP10 PUSH2 0xD65 JUMP JUMPDEST POP RETURNDATASIZE PUSH2 0xFCA JUMP JUMPDEST PUSH1 0x40 MLOAD RETURNDATASIZE PUSH1 0x0 DUP3 RETURNDATACOPY RETURNDATASIZE SWAP1 REVERT JUMPDEST DUP5 PUSH4 0x4E487B71 PUSH1 0xE0 SHL PUSH1 0x0 MSTORE PUSH1 0x11 PUSH1 0x4 MSTORE PUSH1 0x0 REVERT JUMPDEST DUP3 SWAP2 PUSH1 0x64 PUSH1 0xB PUSH1 0x0 SWAP6 ADD SLOAD PUSH2 0xD09 JUMP JUMPDEST PUSH1 0x40 MLOAD PUSH3 0x461BCD PUSH1 0xE5 SHL DUP2 MSTORE PUSH1 0x4 DUP2 ADD DUP6 SWAP1 MSTORE PUSH1 0x17 DUP2 DUP8 ADD MSTORE PUSH32 0x496E73756666696369656E742066616E20746F6B656E73000000000000000000 PUSH1 0x44 DUP3 ADD MSTORE PUSH1 0x64 SWAP1 REVERT JUMPDEST POP DUP5 DUP2 DUP2 RETURNDATASIZE DUP4 GT PUSH2 0x108D JUMPI JUMPDEST PUSH2 0x1074 DUP2 DUP4 PUSH2 0x2130 JUMP JUMPDEST DUP2 ADD SUB SLT PUSH2 0x29B JUMPI PUSH9 0x6C6B935B8BBD400000 SWAP1 MLOAD PUSH2 0xCCF JUMP JUMPDEST POP RETURNDATASIZE PUSH2 0x106A JUMP JUMPDEST PUSH1 0x40 MLOAD PUSH3 0x461BCD PUSH1 0xE5 SHL DUP2 MSTORE PUSH1 0x4 DUP2 ADD DUP5 SWAP1 MSTORE PUSH1 0x17 DUP2 DUP7 ADD MSTORE PUSH32 0x42657474696E6720646561646C696E6520706173736564000000000000000000 PUSH1 0x44 DUP3 ADD MSTORE PUSH1 0x64 SWAP1 REVERT JUMPDEST PUSH1 0x40 MLOAD PUSH3 0x461BCD PUSH1 0xE5 SHL DUP2 MSTORE PUSH1 0x4 DUP2 ADD DUP5 SWAP1 MSTORE PUSH1 0x16 DUP2 DUP7 ADD MSTORE PUSH22 0x105C995B9848185B1C9958591E481C995CDBDB1D9959 PUSH1 0x52 SHL PUSH1 0x44 DUP3 ADD MSTORE PUSH1 0x64 SWAP1 REVERT JUMPDEST CALLVALUE PUSH2 0x29B JUMPI PUSH1 0x0 CALLDATASIZE PUSH1 0x3 NOT ADD SLT PUSH2 0x29B JUMPI PUSH1 0x20 PUSH1 0x40 MLOAD PUSH3 0x76A700 DUP2 MSTORE RETURN JUMPDEST CALLVALUE PUSH2 0x29B JUMPI PUSH1 0x20 DUP1 PUSH1 0x3 NOT CALLDATASIZE ADD SLT PUSH2 0x29B JUMPI PUSH1 0x4 CALLDATALOAD PUSH2 0x1150 PUSH2 0x2433 JUMP JUMPDEST DUP1 PUSH1 0x0 MSTORE PUSH1 0x4 DUP3 MSTORE PUSH1 0x40 PUSH1 0x0 KECCAK256 PUSH1 0xFF PUSH1 0x6 DUP3 ADD SLOAD AND ISZERO PUSH2 0x1525 JUMPI PUSH1 0x7 ADD SLOAD DUP2 PUSH1 0x0 MSTORE PUSH1 0x7 DUP4 MSTORE PUSH1 0x40 PUSH1 0x0 KECCAK256 DUP2 PUSH1 0x0 MSTORE DUP4 MSTORE PUSH1 0x40 PUSH1 0x0 KECCAK256 CALLER PUSH1 0x0 MSTORE DUP4 MSTORE PUSH1 0x40 PUSH1 0x0 KECCAK256 SWAP3 DUP4 SLOAD SWAP2 DUP3 ISZERO SWAP3 DUP4 ISZERO DUP1 SWAP5 PUSH2 0x1518 JUMPI JUMPDEST ISZERO PUSH2 0x14DD JUMPI PUSH1 0x0 SWAP6 PUSH1 0x0 SWAP5 DUP7 PUSH1 0x0 MSTORE PUSH1 0x4 DUP6 MSTORE PUSH1 0x40 PUSH1 0x0 KECCAK256 SWAP3 PUSH1 0x5 DUP7 MSTORE PUSH1 0x40 PUSH1 0x0 KECCAK256 DUP6 PUSH1 0x0 MSTORE DUP7 MSTORE PUSH1 0x40 PUSH1 0x0 KECCAK256 SLOAD DUP9 PUSH1 0x0 MSTORE PUSH1 0x6 DUP8 MSTORE PUSH1 0x40 PUSH1 0x0 KECCAK256 DUP7 PUSH1 0x0 MSTORE DUP8 MSTORE PUSH1 0x40 PUSH1 0x0 KECCAK256 SLOAD SWAP3 DUP2 ISZERO SWAP1 DUP2 ISZERO DUP1 SWAP3 PUSH2 0x14D4 JUMPI JUMPDEST ISZERO PUSH2 0x149E JUMPI DUP2 PUSH2 0x1496 JUMPI JUMPDEST POP PUSH2 0x1460 JUMPI JUMPDEST POP POP DUP1 ISZERO ISZERO DUP1 PUSH2 0x1453 JUMPI JUMPDEST PUSH2 0x140E JUMPI JUMPDEST POP PUSH1 0x2 ADD SLOAD PUSH1 0xFF AND SWAP1 DUP2 PUSH2 0x13FC JUMPI JUMPDEST POP PUSH2 0x13E2 JUMPI JUMPDEST DUP4 PUSH1 0x0 MSTORE PUSH1 0x7 DUP3 MSTORE PUSH1 0x40 PUSH1 0x0 KECCAK256 SWAP1 PUSH1 0x0 MSTORE DUP2 MSTORE PUSH1 0x40 PUSH1 0x0 KECCAK256 CALLER PUSH1 0x0 MSTORE DUP2 MSTORE PUSH1 0x0 PUSH1 0x3 PUSH1 0x40 DUP3 KECCAK256 DUP3 DUP2 SSTORE DUP3 PUSH1 0x1 DUP3 ADD SSTORE DUP3 PUSH1 0x2 DUP3 ADD SSTORE ADD SSTORE DUP4 PUSH2 0x135C JUMPI JUMPDEST DUP2 PUSH2 0x12A3 JUMPI JUMPDEST PUSH1 0x40 MLOAD SWAP4 DUP5 MSTORE DUP4 ADD MSTORE PUSH32 0x5F1A09A74F24F7BA0BA12D1FFB686430834AC3C81D36152133E45B4B61CC933E PUSH1 0x40 CALLER SWAP4 LOG3 PUSH1 0x1 DUP1 SSTORE STOP JUMPDEST PUSH1 0x40 MLOAD PUSH4 0xA9059CBB PUSH1 0xE0 SHL DUP2 MSTORE CALLER PUSH1 0x4 DUP3 ADD MSTORE PUSH1 0x24 DUP2 ADD DUP4 SWAP1 MSTORE DUP2 DUP2 PUSH1 0x44 DUP2 PUSH1 0x0 PUSH1 0x1 PUSH1 0x1 PUSH1 0xA0 SHL SUB PUSH32 0x0 AND GAS CALL SWAP1 DUP2 ISZERO PUSH2 0xFE9 JUMPI PUSH1 0x0 SWAP2 PUSH2 0x133F JUMPI JUMPDEST POP PUSH2 0x126E JUMPI PUSH1 0x64 SWAP1 PUSH1 0x40 MLOAD SWAP1 PUSH3 0x461BCD PUSH1 0xE5 SHL DUP3 MSTORE PUSH1 0x4 DUP3 ADD MSTORE PUSH1 0x14 PUSH1 0x24 DUP3 ADD MSTORE PUSH20 0x1554D110C81D1C985B9CD9995C8819985A5B1959 PUSH1 0x62 SHL PUSH1 0x44 DUP3 ADD MSTORE REVERT JUMPDEST PUSH2 0x1356 SWAP2 POP DUP3 RETURNDATASIZE DUP5 GT PUSH2 0xFE2 JUMPI PUSH2 0xFD4 DUP2 DUP4 PUSH2 0x2130 JUMP JUMPDEST DUP6 PUSH2 0x12FF JUMP JUMPDEST PUSH1 0x40 MLOAD PUSH4 0xA9059CBB PUSH1 0xE0 SHL DUP2 MSTORE CALLER PUSH1 0x4 DUP3 ADD MSTORE PUSH1 0x24 DUP2 ADD DUP6 SWAP1 MSTORE DUP2 DUP2 PUSH1 0x44 DUP2 PUSH1 0x0 PUSH1 0x1 PUSH1 0x1 PUSH1 0xA0 SHL SUB PUSH32 0x0 AND GAS CALL DUP1 ISZERO PUSH2 0xFE9 JUMPI PUSH2 0x13C0 SWAP2 PUSH1 0x0 SWAP2 PUSH2 0x13C5 JUMPI POP PUSH2 0x23AD JUMP JUMPDEST PUSH2 0x1268 JUMP JUMPDEST PUSH2 0x13DC SWAP2 POP DUP4 RETURNDATASIZE DUP6 GT PUSH2 0xFE2 JUMPI PUSH2 0xFD4 DUP2 DUP4 PUSH2 0x2130 JUMP JUMPDEST DUP7 PUSH2 0xD65 JUMP JUMPDEST SWAP4 PUSH9 0x22B1C8C1227A00000 DUP2 ADD DUP1 SWAP2 GT PUSH2 0x496 JUMPI SWAP4 PUSH2 0x122B JUMP JUMPDEST PUSH1 0xFF SWAP2 POP PUSH1 0xC ADD SLOAD PUSH1 0x8 SHR AND DUP7 PUSH2 0x1225 JUMP JUMPDEST SWAP1 SWAP5 POP PUSH1 0x9 DUP3 ADD SLOAD SWAP1 PUSH2 0x1F40 SWAP2 DUP3 DUP2 MUL SWAP3 DUP2 DUP5 DIV EQ SWAP1 ISZERO OR ISZERO PUSH2 0x496 JUMPI PUSH2 0x144B PUSH1 0x2 SWAP2 PUSH2 0x1446 PUSH1 0xFF SWAP5 PUSH2 0x2710 PUSH1 0x1 DUP12 ADD SLOAD SWAP2 DIV PUSH2 0x2305 JUMP JUMPDEST PUSH2 0x2496 JUMP JUMPDEST SWAP6 SWAP2 POP PUSH2 0x1216 JUMP JUMPDEST POP PUSH1 0x1 DUP3 ADD SLOAD ISZERO ISZERO PUSH2 0x1211 JUMP JUMPDEST SWAP1 SWAP2 SWAP9 POP PUSH1 0x8 DUP5 ADD SLOAD PUSH2 0x1F40 SWAP1 DUP2 DUP2 MUL SWAP2 DUP2 DUP4 DIV EQ SWAP1 ISZERO OR ISZERO PUSH2 0x496 JUMPI PUSH2 0x148E SWAP3 PUSH2 0x2710 PUSH2 0x1446 SWAP3 DIV PUSH2 0x2305 JUMP JUMPDEST SWAP7 DUP9 DUP1 PUSH2 0x1206 JUMP JUMPDEST SWAP1 POP DUP12 PUSH2 0x1200 JUMP JUMPDEST PUSH1 0x40 MLOAD PUSH3 0x461BCD PUSH1 0xE5 SHL DUP2 MSTORE PUSH1 0x4 DUP2 ADD DUP11 SWAP1 MSTORE PUSH1 0xE PUSH1 0x24 DUP3 ADD MSTORE PUSH14 0x139BC81DDA5B9B9A5B99C81C1BDD PUSH1 0x92 SHL PUSH1 0x44 DUP3 ADD MSTORE PUSH1 0x64 SWAP1 REVERT JUMPDEST POP DUP5 ISZERO ISZERO PUSH2 0x11F5 JUMP JUMPDEST PUSH1 0x40 MLOAD PUSH3 0x461BCD PUSH1 0xE5 SHL DUP2 MSTORE PUSH1 0x4 DUP2 ADD DUP5 SWAP1 MSTORE PUSH1 0x13 PUSH1 0x24 DUP3 ADD MSTORE PUSH19 0x2737903BB4B73734B733903837B9B4BA34B7B7 PUSH1 0x69 SHL PUSH1 0x44 DUP3 ADD MSTORE PUSH1 0x64 SWAP1 REVERT JUMPDEST POP PUSH1 0x1 DUP7 ADD SLOAD ISZERO ISZERO PUSH2 0x11A1 JUMP JUMPDEST PUSH1 0x40 MLOAD PUSH3 0x461BCD PUSH1 0xE5 SHL DUP2 MSTORE PUSH1 0x4 DUP2 ADD DUP5 SWAP1 MSTORE PUSH1 0x12 PUSH1 0x24 DUP3 ADD MSTORE PUSH18 0x105C995B98481B9BDD081C995CDBDB1D9959 PUSH1 0x72 SHL PUSH1 0x44 DUP3 ADD MSTORE PUSH1 0x64 SWAP1 REVERT JUMPDEST CALLVALUE PUSH2 0x29B JUMPI PUSH1 0x40 CALLDATASIZE PUSH1 0x3 NOT ADD SLT PUSH2 0x29B JUMPI PUSH2 0x1578 PUSH2 0x2053 JUMP JUMPDEST PUSH2 0x1580 PUSH2 0x2289 JUMP JUMPDEST PUSH1 0x0 DUP1 SLOAD PUSH1 0x40 MLOAD PUSH4 0xA9059CBB PUSH1 0xE0 SHL DUP2 MSTORE PUSH1 0x1 PUSH1 0x1 PUSH1 0xA0 SHL SUB SWAP2 DUP3 AND PUSH1 0x4 DUP3 ADD MSTORE PUSH1 0x24 DUP1 CALLDATALOAD SWAP1 DUP3 ADD MSTORE SWAP3 PUSH1 0x20 SWAP3 DUP5 SWAP3 PUSH1 0x44 SWAP3 DUP5 SWAP3 SWAP2 AND GAS CALL DUP1 ISZERO PUSH2 0xFE9 JUMPI PUSH2 0x15C4 JUMPI STOP JUMPDEST PUSH2 0x15DB SWAP1 PUSH1 0x20 RETURNDATASIZE DUP2 GT PUSH2 0xFE2 JUMPI PUSH2 0xFD4 DUP2 DUP4 PUSH2 0x2130 JUMP JUMPDEST STOP JUMPDEST CALLVALUE PUSH2 0x29B JUMPI PUSH2 0x15EB CALLDATASIZE PUSH2 0x20B0 JUMP JUMPDEST PUSH2 0x15F3 PUSH2 0x2289 JUMP JUMPDEST DUP2 PUSH1 0x0 MSTORE PUSH1 0x4 PUSH1 0x20 MSTORE PUSH1 0x40 PUSH1 0x0 KECCAK256 PUSH1 0xC DUP2 ADD SWAP2 DUP3 SLOAD SWAP3 PUSH2 0x1615 PUSH1 0xFF DUP6 AND PUSH2 0x2318 JUMP JUMPDEST PUSH1 0x6 DUP4 ADD SWAP4 DUP5 SLOAD SWAP1 PUSH1 0xFF DUP3 AND PUSH2 0x1699 JUMPI PUSH32 0xA01CBC98DFF92492B79C4A3474DCAC678C697CFE2B0F60E5C7106D1C576702D8 SWAP6 PUSH2 0x1656 PUSH1 0x1 DUP8 ADD SLOAD DUP7 LT PUSH2 0x2357 JUMP JUMPDEST PUSH1 0x1 PUSH1 0xFF NOT DUP1 SWAP5 AND OR SWAP1 SSTORE DUP4 PUSH1 0x7 DUP7 ADD SSTORE AND SWAP1 SSTORE PUSH2 0x1694 PUSH1 0x9 PUSH1 0x8 DUP5 ADD SLOAD SWAP4 ADD SLOAD PUSH1 0x40 MLOAD SWAP4 DUP5 SWAP4 DUP5 PUSH1 0x40 SWAP2 SWAP5 SWAP4 SWAP3 PUSH1 0x60 DUP3 ADD SWAP6 DUP3 MSTORE PUSH1 0x20 DUP3 ADD MSTORE ADD MSTORE JUMP JUMPDEST SUB SWAP1 LOG2 STOP JUMPDEST PUSH1 0x40 MLOAD PUSH3 0x461BCD PUSH1 0xE5 SHL DUP2 MSTORE PUSH1 0x20 PUSH1 0x4 DUP3 ADD MSTORE PUSH1 0x10 PUSH1 0x24 DUP3 ADD MSTORE PUSH16 0x105B1C9958591E481C995CDBDB1D9959 PUSH1 0x82 SHL PUSH1 0x44 DUP3 ADD MSTORE PUSH1 0x64 SWAP1 REVERT JUMPDEST CALLVALUE PUSH2 0x29B JUMPI PUSH1 0x0 CALLDATASIZE PUSH1 0x3 NOT ADD SLT PUSH2 0x29B JUMPI PUSH1 0x0 SLOAD PUSH1 0x40 MLOAD PUSH1 0x1 PUSH1 0x1 PUSH1 0xA0 SHL SUB SWAP1 SWAP2 AND DUP2 MSTORE PUSH1 0x20 SWAP1 RETURN JUMPDEST CALLVALUE PUSH2 0x29B JUMPI PUSH2 0x1708 CALLDATASIZE PUSH2 0x20B0 JUMP JUMPDEST SWAP1 PUSH1 0x0 MSTORE PUSH1 0x6 PUSH1 0x20 MSTORE PUSH1 0x40 PUSH1 0x0 KECCAK256 SWAP1 PUSH1 0x0 MSTORE PUSH1 0x20 MSTORE PUSH1 0x20 PUSH1 0x40 PUSH1 0x0 KECCAK256 SLOAD PUSH1 0x40 MLOAD SWAP1 DUP2 MSTORE RETURN JUMPDEST CALLVALUE PUSH2 0x29B JUMPI PUSH1 0x0 CALLDATASIZE PUSH1 0x3 NOT ADD SLT PUSH2 0x29B JUMPI PUSH2 0x1746 PUSH2 0x2289 JUMP JUMPDEST PUSH2 0x174E PUSH2 0x23EF JUMP JUMPDEST PUSH1 0x1 PUSH1 0xFF NOT PUSH1 0x2 SLOAD AND OR PUSH1 0x2 SSTORE PUSH32 0x62E78CEA01BEE320CD4E420270B5EA74000D11B0C9F74754EBDBFC544B05A258 PUSH1 0x20 PUSH1 0x40 MLOAD CALLER DUP2 MSTORE LOG1 STOP JUMPDEST CALLVALUE PUSH2 0x29B JUMPI PUSH1 0x0 CALLDATASIZE PUSH1 0x3 NOT ADD SLT PUSH2 0x29B JUMPI PUSH1 0x20 PUSH1 0x40 MLOAD PUSH9 0x6C6B935B8BBD400000 DUP2 MSTORE RETURN JUMPDEST CALLVALUE PUSH2 0x29B JUMPI PUSH1 0x20 DUP1 PUSH1 0x3 NOT CALLDATASIZE ADD SLT PUSH2 0x29B JUMPI PUSH1 0x4 CALLDATALOAD SWAP1 DUP2 PUSH1 0x0 MSTORE PUSH1 0x4 DUP2 MSTORE PUSH1 0x40 PUSH1 0x0 KECCAK256 PUSH1 0xC DUP2 ADD DUP1 SLOAD SWAP1 PUSH1 0xFF DUP3 AND DUP1 PUSH2 0x1A57 JUMPI JUMPDEST PUSH2 0x17E8 SWAP1 PUSH2 0x2318 JUMP JUMPDEST PUSH1 0xFF DUP3 PUSH1 0x8 SHR AND PUSH2 0x1A12 JUMPI PUSH1 0xD DUP4 ADD SWAP2 DUP3 SLOAD PUSH2 0xE10 DUP2 ADD DUP1 SWAP2 GT PUSH2 0x496 JUMPI TIMESTAMP LT PUSH2 0x19CD JUMPI PUSH1 0x2 SLOAD PUSH1 0x40 MLOAD PUSH4 0x7631F193 PUSH1 0xE0 SHL DUP2 MSTORE PUSH2 0xBB8 PUSH1 0x4 DUP3 ADD MSTORE PUSH1 0x1 PUSH1 0x1 PUSH1 0xA0 SHL SUB SWAP5 SWAP2 DUP8 SWAP1 DUP3 SWAP1 PUSH1 0x24 SWAP1 DUP3 SWAP1 PUSH1 0x8 SHR DUP10 AND GAS STATICCALL SWAP1 DUP2 ISZERO PUSH2 0xFE9 JUMPI PUSH1 0x0 SWAP2 PUSH2 0x19B0 JUMPI JUMPDEST POP ISZERO PUSH2 0x196D JUMPI SWAP1 PUSH2 0x100 SWAP2 TIMESTAMP SWAP1 SSTORE PUSH2 0xFF00 NOT AND OR SWAP1 SSTORE PUSH1 0x8 DUP3 ADD SWAP1 DUP2 SLOAD SWAP3 PUSH2 0x1388 SWAP2 DUP3 DUP6 MUL SWAP3 DUP6 DUP5 DIV EQ DUP6 ISZERO OR ISZERO PUSH2 0x496 JUMPI PUSH1 0x9 DUP7 SWAP3 PUSH2 0x2710 PUSH1 0x4 SWAP6 DIV SWAP6 PUSH2 0x189E DUP8 PUSH2 0x1898 DUP2 PUSH2 0x24B6 JUMP JUMPDEST SWAP10 PUSH2 0x2489 JUMP JUMPDEST SWAP1 SSTORE ADD PUSH2 0x18AC DUP7 DUP3 SLOAD PUSH2 0x22E1 JUMP JUMPDEST SWAP1 SSTORE PUSH1 0x2 SLOAD PUSH1 0x8 SHR AND PUSH1 0x40 MLOAD SWAP3 DUP4 DUP1 SWAP3 PUSH4 0x50FB62F9 PUSH1 0xE1 SHL DUP3 MSTORE GAS STATICCALL SWAP4 DUP5 ISZERO PUSH2 0xFE9 JUMPI PUSH1 0x0 SWAP5 PUSH2 0x191B JUMPI JUMPDEST POP POP PUSH2 0x1694 PUSH32 0x91C91C6073186DF47AFC751E535D6F42FC7D67BF7DF6162ACAEAEFE88907ED61 SWAP4 PUSH1 0x40 MLOAD SWAP4 DUP5 SWAP4 DUP5 PUSH1 0x40 SWAP2 SWAP5 SWAP4 SWAP3 PUSH1 0x60 DUP3 ADD SWAP6 DUP3 MSTORE PUSH1 0x20 DUP3 ADD MSTORE ADD MSTORE JUMP JUMPDEST SWAP1 DUP1 SWAP5 POP DUP2 RETURNDATASIZE DUP4 GT PUSH2 0x1966 JUMPI JUMPDEST PUSH2 0x1932 DUP2 DUP4 PUSH2 0x2130 JUMP JUMPDEST DUP2 ADD SUB SLT PUSH2 0x29B JUMPI PUSH2 0x1694 PUSH32 0x91C91C6073186DF47AFC751E535D6F42FC7D67BF7DF6162ACAEAEFE88907ED61 SWAP4 MLOAD SWAP4 PUSH2 0x18D7 JUMP JUMPDEST POP RETURNDATASIZE PUSH2 0x1928 JUMP JUMPDEST PUSH1 0x64 DUP7 PUSH1 0x40 MLOAD SWAP1 PUSH3 0x461BCD PUSH1 0xE5 SHL DUP3 MSTORE DUP1 PUSH1 0x4 DUP4 ADD MSTORE PUSH1 0x24 DUP3 ADD MSTORE PUSH32 0x566F6C6174696C697479207468726573686F6C64206E6F742072656163686564 PUSH1 0x44 DUP3 ADD MSTORE REVERT JUMPDEST PUSH2 0x19C7 SWAP2 POP DUP8 RETURNDATASIZE DUP10 GT PUSH2 0xFE2 JUMPI PUSH2 0xFD4 DUP2 DUP4 PUSH2 0x2130 JUMP JUMPDEST DUP9 PUSH2 0x184D JUMP JUMPDEST PUSH1 0x40 MLOAD PUSH3 0x461BCD PUSH1 0xE5 SHL DUP2 MSTORE PUSH1 0x4 DUP2 ADD DUP7 SWAP1 MSTORE PUSH1 0x1C PUSH1 0x24 DUP3 ADD MSTORE PUSH32 0x546F6F20736F6F6E20746F20636865636B20766F6C6174696C69747900000000 PUSH1 0x44 DUP3 ADD MSTORE PUSH1 0x64 SWAP1 REVERT JUMPDEST PUSH1 0x40 MLOAD PUSH3 0x461BCD PUSH1 0xE5 SHL DUP2 MSTORE PUSH1 0x4 DUP2 ADD DUP6 SWAP1 MSTORE PUSH1 0x1C PUSH1 0x24 DUP3 ADD MSTORE PUSH32 0x50726F74656374696F6E20616C72656164792074726967676572656400000000 PUSH1 0x44 DUP3 ADD MSTORE PUSH1 0x64 SWAP1 REVERT JUMPDEST POP PUSH1 0x6 DUP4 ADD SLOAD PUSH1 0xFF AND ISZERO PUSH2 0x17DF JUMP JUMPDEST CALLVALUE PUSH2 0x29B JUMPI PUSH1 0x0 CALLDATASIZE PUSH1 0x3 NOT ADD SLT PUSH2 0x29B JUMPI PUSH1 0x40 MLOAD PUSH32 0x0 PUSH1 0x1 PUSH1 0x1 PUSH1 0xA0 SHL SUB AND DUP2 MSTORE PUSH1 0x20 SWAP1 RETURN JUMPDEST CALLVALUE PUSH2 0x29B JUMPI PUSH1 0x0 CALLDATASIZE PUSH1 0x3 NOT ADD SLT PUSH2 0x29B JUMPI PUSH2 0x1AC4 PUSH2 0x2289 JUMP JUMPDEST PUSH1 0x0 DUP1 SLOAD PUSH1 0x1 PUSH1 0x1 PUSH1 0xA0 SHL SUB NOT DUP2 AND DUP3 SSTORE PUSH1 0x1 PUSH1 0x1 PUSH1 0xA0 SHL SUB AND PUSH32 0x8BE0079C531659141344CD1FD0A4F28419497F9722A3DAAFE3B4186F6B6457E0 DUP3 DUP1 LOG3 STOP JUMPDEST CALLVALUE PUSH2 0x29B JUMPI PUSH1 0x0 CALLDATASIZE PUSH1 0x3 NOT ADD SLT PUSH2 0x29B JUMPI PUSH1 0x20 PUSH1 0xFF PUSH1 0x2 SLOAD AND PUSH1 0x40 MLOAD SWAP1 ISZERO ISZERO DUP2 MSTORE RETURN JUMPDEST CALLVALUE PUSH2 0x29B JUMPI PUSH1 0x0 CALLDATASIZE PUSH1 0x3 NOT ADD SLT PUSH2 0x29B JUMPI PUSH1 0x2 SLOAD PUSH1 0x40 MLOAD PUSH1 0x8 SWAP2 SWAP1 SWAP2 SHR PUSH1 0x1 PUSH1 0x1 PUSH1 0xA0 SHL SUB AND DUP2 MSTORE PUSH1 0x20 SWAP1 RETURN JUMPDEST CALLVALUE PUSH2 0x29B JUMPI PUSH1 0x0 CALLDATASIZE PUSH1 0x3 NOT ADD SLT PUSH2 0x29B JUMPI PUSH2 0x1B6D PUSH2 0x2289 JUMP JUMPDEST PUSH1 0x2 SLOAD PUSH1 0xFF DUP2 AND ISZERO PUSH2 0x1BAC JUMPI PUSH1 0xFF NOT AND PUSH1 0x2 SSTORE PUSH32 0x5DB9EE0A495BF2E6FF9C91A7834C1BA4FDD244A5E8AA4E537BD38AEAE4B073AA PUSH1 0x20 PUSH1 0x40 MLOAD CALLER DUP2 MSTORE LOG1 STOP JUMPDEST PUSH1 0x40 MLOAD PUSH3 0x461BCD PUSH1 0xE5 SHL DUP2 MSTORE PUSH1 0x20 PUSH1 0x4 DUP3 ADD MSTORE PUSH1 0x14 PUSH1 0x24 DUP3 ADD MSTORE PUSH20 0x14185D5CD8589B194E881B9BDD081C185D5CD959 PUSH1 0x62 SHL PUSH1 0x44 DUP3 ADD MSTORE PUSH1 0x64 SWAP1 REVERT JUMPDEST CALLVALUE PUSH2 0x29B JUMPI PUSH1 0x20 DUP1 PUSH1 0x3 NOT CALLDATASIZE ADD SLT PUSH2 0x29B JUMPI PUSH1 0x4 CALLDATALOAD SWAP1 PUSH2 0x1C06 PUSH2 0x2289 JUMP JUMPDEST DUP2 PUSH1 0x0 MSTORE PUSH1 0x4 DUP2 MSTORE PUSH1 0x40 PUSH1 0x0 KECCAK256 PUSH1 0xFF PUSH1 0xC DUP3 ADD SLOAD AND DUP1 PUSH2 0x1D45 JUMPI JUMPDEST PUSH2 0x1C2A SWAP1 PUSH2 0x2318 JUMP JUMPDEST PUSH1 0x2 SLOAD PUSH1 0x40 MLOAD PUSH4 0x995E5779 PUSH1 0xE0 SHL DUP2 MSTORE PUSH2 0xFA0 PUSH1 0x4 DUP3 ADD MSTORE SWAP1 DUP4 SWAP1 DUP3 SWAP1 PUSH1 0x24 SWAP1 DUP3 SWAP1 PUSH1 0x8 SHR PUSH1 0x1 PUSH1 0x1 PUSH1 0xA0 SHL SUB AND GAS STATICCALL SWAP1 DUP2 ISZERO PUSH2 0xFE9 JUMPI PUSH1 0x0 SWAP2 PUSH2 0x1D28 JUMPI JUMPDEST POP ISZERO PUSH2 0x1CE3 JUMPI PUSH1 0x8 DUP2 ADD DUP1 SLOAD PUSH2 0x1B58 SWAP4 DUP5 DUP3 MUL SWAP5 DUP3 DUP7 DIV EQ DUP3 ISZERO OR ISZERO PUSH2 0x496 JUMPI PUSH1 0x9 PUSH1 0x40 SWAP5 PUSH2 0x2710 PUSH32 0x106C01595C524188A0B119C5D3C7BA69AE43E187B3C3BD001552611DFC9BB14E SWAP8 DIV SWAP5 PUSH2 0x1CC8 DUP7 PUSH2 0x1CC2 DUP2 PUSH2 0x24B6 JUMP JUMPDEST SWAP7 PUSH2 0x2489 JUMP JUMPDEST SWAP1 SSTORE ADD PUSH2 0x1CD6 DUP4 DUP3 SLOAD PUSH2 0x22E1 JUMP JUMPDEST SWAP1 SSTORE DUP4 MLOAD SWAP3 DUP4 MSTORE DUP3 ADD MSTORE LOG2 STOP JUMPDEST PUSH1 0x40 MLOAD PUSH3 0x461BCD PUSH1 0xE5 SHL DUP2 MSTORE PUSH1 0x4 DUP2 ADD DUP4 SWAP1 MSTORE PUSH1 0x1F PUSH1 0x24 DUP3 ADD MSTORE PUSH32 0x456D657267656E6379207468726573686F6C64206E6F74207265616368656400 PUSH1 0x44 DUP3 ADD MSTORE PUSH1 0x64 SWAP1 REVERT JUMPDEST PUSH2 0x1D3F SWAP2 POP DUP4 RETURNDATASIZE DUP6 GT PUSH2 0xFE2 JUMPI PUSH2 0xFD4 DUP2 DUP4 PUSH2 0x2130 JUMP JUMPDEST DUP5 PUSH2 0x1C69 JUMP JUMPDEST POP PUSH1 0x6 DUP2 ADD SLOAD PUSH1 0xFF AND ISZERO PUSH2 0x1C21 JUMP JUMPDEST CALLVALUE PUSH2 0x29B JUMPI PUSH1 0x0 CALLDATASIZE PUSH1 0x3 NOT ADD SLT PUSH2 0x29B JUMPI PUSH1 0x20 PUSH1 0x40 MLOAD PUSH2 0x7D0 DUP2 MSTORE RETURN JUMPDEST CALLVALUE PUSH2 0x29B JUMPI PUSH1 0x20 CALLDATASIZE PUSH1 0x3 NOT ADD SLT PUSH2 0x29B JUMPI PUSH2 0x1D8A PUSH2 0x2053 JUMP JUMPDEST PUSH2 0x1D92 PUSH2 0x2289 JUMP JUMPDEST PUSH1 0x2 DUP1 SLOAD PUSH2 0x100 PUSH1 0x1 PUSH1 0xA8 SHL SUB NOT AND PUSH1 0x8 SWAP3 SWAP1 SWAP3 SHL PUSH2 0x100 PUSH1 0x1 PUSH1 0xA8 SHL SUB AND SWAP2 SWAP1 SWAP2 OR SWAP1 SSTORE STOP JUMPDEST CALLVALUE PUSH2 0x29B JUMPI PUSH1 0x20 CALLDATASIZE PUSH1 0x3 NOT ADD SLT PUSH2 0x29B JUMPI PUSH1 0x4 CALLDATALOAD PUSH1 0x0 MSTORE PUSH1 0x4 PUSH1 0x20 MSTORE PUSH2 0x1E27 PUSH1 0x40 PUSH1 0x0 KECCAK256 PUSH1 0xFF PUSH1 0x2 DUP3 ADD SLOAD AND PUSH1 0x8 DUP3 ADD SLOAD SWAP2 PUSH1 0x9 DUP2 ADD SLOAD PUSH1 0x5 DUP3 ADD SLOAD PUSH1 0xFF PUSH1 0x6 DUP5 ADD SLOAD AND SWAP2 PUSH2 0x1E0F PUSH1 0xFF PUSH1 0xC DUP7 ADD SLOAD AND SWAP5 PUSH2 0x21E3 JUMP JUMPDEST SWAP6 PUSH2 0x1E32 PUSH1 0x40 MLOAD SWAP9 DUP10 SWAP9 PUSH1 0xE0 DUP11 MSTORE PUSH1 0xE0 DUP11 ADD SWAP1 PUSH2 0x20C6 JUMP JUMPDEST SWAP7 PUSH1 0x20 DUP10 ADD SWAP1 PUSH2 0x2106 JUMP JUMPDEST PUSH1 0x40 DUP8 ADD MSTORE PUSH1 0x60 DUP7 ADD MSTORE PUSH1 0x80 DUP6 ADD MSTORE ISZERO ISZERO PUSH1 0xA0 DUP5 ADD MSTORE ISZERO ISZERO PUSH1 0xC0 DUP4 ADD MSTORE SUB SWAP1 RETURN JUMPDEST CALLVALUE PUSH2 0x29B JUMPI PUSH1 0x0 CALLDATASIZE PUSH1 0x3 NOT ADD SLT PUSH2 0x29B JUMPI PUSH1 0x40 MLOAD PUSH32 0x0 PUSH1 0x1 PUSH1 0x1 PUSH1 0xA0 SHL SUB AND DUP2 MSTORE PUSH1 0x20 SWAP1 RETURN JUMPDEST CALLVALUE PUSH2 0x29B JUMPI PUSH1 0x20 CALLDATASIZE PUSH1 0x3 NOT ADD SLT PUSH2 0x29B JUMPI PUSH1 0x4 CALLDATALOAD PUSH1 0x0 MSTORE PUSH1 0x8 PUSH1 0x20 MSTORE PUSH1 0x20 PUSH1 0x40 PUSH1 0x0 KECCAK256 SLOAD PUSH1 0x40 MLOAD SWAP1 DUP2 MSTORE RETURN JUMPDEST CALLVALUE PUSH2 0x29B JUMPI PUSH2 0x1ED2 CALLDATASIZE PUSH2 0x20B0 JUMP JUMPDEST SWAP1 PUSH1 0x0 MSTORE PUSH1 0x5 PUSH1 0x20 MSTORE PUSH1 0x40 PUSH1 0x0 KECCAK256 SWAP1 PUSH1 0x0 MSTORE PUSH1 0x20 MSTORE PUSH1 0x20 PUSH1 0x40 PUSH1 0x0 KECCAK256 SLOAD PUSH1 0x40 MLOAD SWAP1 DUP2 MSTORE RETURN JUMPDEST CALLVALUE PUSH2 0x29B JUMPI PUSH1 0x0 CALLDATASIZE PUSH1 0x3 NOT ADD SLT PUSH2 0x29B JUMPI PUSH1 0x20 PUSH1 0x40 MLOAD PUSH9 0x1158E460913D00000 DUP2 MSTORE RETURN JUMPDEST CALLVALUE PUSH2 0x29B JUMPI PUSH1 0x0 CALLDATASIZE PUSH1 0x3 NOT ADD SLT PUSH2 0x29B JUMPI PUSH1 0x40 MLOAD PUSH32 0x0 PUSH1 0x1 PUSH1 0x1 PUSH1 0xA0 SHL SUB AND DUP2 MSTORE PUSH1 0x20 SWAP1 RETURN JUMPDEST CALLVALUE PUSH2 0x29B JUMPI PUSH2 0x1F6E CALLDATASIZE PUSH2 0x2069 JUMP JUMPDEST SWAP2 PUSH1 0x0 MSTORE PUSH1 0x7 PUSH1 0x20 MSTORE PUSH1 0x40 PUSH1 0x0 KECCAK256 SWAP1 PUSH1 0x0 MSTORE PUSH1 0x20 MSTORE PUSH1 0x40 PUSH1 0x0 KECCAK256 SWAP1 PUSH1 0x1 DUP1 PUSH1 0xA0 SHL SUB AND PUSH1 0x0 MSTORE PUSH1 0x20 MSTORE PUSH1 0x40 PUSH1 0x0 KECCAK256 DUP1 SLOAD PUSH2 0x1FDA PUSH1 0x1 DUP4 ADD SLOAD SWAP3 PUSH1 0x3 PUSH1 0xFF PUSH1 0x2 DUP4 ADD SLOAD AND SWAP2 ADD SLOAD SWAP1 PUSH1 0x40 MLOAD SWAP5 DUP6 SWAP5 DUP6 SWAP1 SWAP5 SWAP4 SWAP3 PUSH1 0x60 SWAP3 PUSH1 0x80 DUP4 ADD SWAP7 DUP4 MSTORE PUSH1 0x20 DUP4 ADD MSTORE ISZERO ISZERO PUSH1 0x40 DUP3 ADD MSTORE ADD MSTORE JUMP JUMPDEST SUB SWAP1 RETURN JUMPDEST CALLVALUE PUSH2 0x29B JUMPI PUSH2 0x1FEC CALLDATASIZE PUSH2 0x2069 JUMP JUMPDEST SWAP2 PUSH1 0x0 MSTORE PUSH1 0x7 PUSH1 0x20 MSTORE PUSH1 0x40 PUSH1 0x0 KECCAK256 SWAP1 PUSH1 0x0 MSTORE PUSH1 0x20 MSTORE PUSH1 0x40 PUSH1 0x0 KECCAK256 SWAP1 PUSH1 0x1 DUP1 PUSH1 0xA0 SHL SUB AND PUSH1 0x0 MSTORE PUSH1 0x20 MSTORE DUP1 PUSH2 0x1FDA PUSH1 0x40 PUSH1 0x0 KECCAK256 DUP1 SLOAD SWAP1 PUSH1 0x1 DUP2 ADD SLOAD PUSH1 0x3 PUSH1 0xFF PUSH1 0x2 DUP5 ADD SLOAD AND SWAP3 ADD SLOAD SWAP3 DUP6 SWAP1 SWAP5 SWAP4 SWAP3 PUSH1 0x60 SWAP3 PUSH1 0x80 DUP4 ADD SWAP7 DUP4 MSTORE PUSH1 0x20 DUP4 ADD MSTORE ISZERO ISZERO PUSH1 0x40 DUP3 ADD MSTORE ADD MSTORE JUMP JUMPDEST PUSH1 0x4 CALLDATALOAD SWAP1 PUSH1 0x1 PUSH1 0x1 PUSH1 0xA0 SHL SUB DUP3 AND DUP3 SUB PUSH2 0x29B JUMPI JUMP JUMPDEST PUSH1 0x60 SWAP1 PUSH1 0x3 NOT ADD SLT PUSH2 0x29B JUMPI PUSH1 0x4 CALLDATALOAD SWAP1 PUSH1 0x24 CALLDATALOAD SWAP1 PUSH1 0x44 CALLDATALOAD PUSH1 0x1 PUSH1 0x1 PUSH1 0xA0 SHL SUB DUP2 AND DUP2 SUB PUSH2 0x29B JUMPI SWAP1 JUMP JUMPDEST CALLVALUE PUSH2 0x29B JUMPI PUSH1 0x0 CALLDATASIZE PUSH1 0x3 NOT ADD SLT PUSH2 0x29B JUMPI PUSH1 0x20 PUSH1 0x40 MLOAD PUSH2 0xFA0 DUP2 MSTORE RETURN JUMPDEST PUSH1 0x40 SWAP1 PUSH1 0x3 NOT ADD SLT PUSH2 0x29B JUMPI PUSH1 0x4 CALLDATALOAD SWAP1 PUSH1 0x24 CALLDATALOAD SWAP1 JUMP JUMPDEST SWAP2 SWAP1 DUP3 MLOAD SWAP3 DUP4 DUP3 MSTORE PUSH1 0x0 JUMPDEST DUP5 DUP2 LT PUSH2 0x20F2 JUMPI POP POP DUP3 PUSH1 0x0 PUSH1 0x20 DUP1 SWAP5 SWAP6 DUP5 ADD ADD MSTORE PUSH1 0x1F DUP1 NOT SWAP2 ADD AND ADD ADD SWAP1 JUMP JUMPDEST PUSH1 0x20 DUP2 DUP4 ADD DUP2 ADD MLOAD DUP5 DUP4 ADD DUP3 ADD MSTORE ADD PUSH2 0x20D1 JUMP JUMPDEST SWAP1 PUSH1 0x4 DUP3 LT ISZERO PUSH2 0x85B JUMPI MSTORE JUMP JUMPDEST CALLVALUE PUSH2 0x29B JUMPI PUSH1 0x0 CALLDATASIZE PUSH1 0x3 NOT ADD SLT PUSH2 0x29B JUMPI PUSH1 0x20 PUSH1 0x40 MLOAD PUSH2 0xBB8 DUP2 MSTORE RETURN JUMPDEST SWAP1 PUSH1 0x1F DUP1 NOT SWAP2 ADD AND DUP2 ADD SWAP1 DUP2 LT PUSH8 0xFFFFFFFFFFFFFFFF DUP3 GT OR PUSH2 0x992 JUMPI PUSH1 0x40 MSTORE JUMP JUMPDEST DUP2 PUSH1 0x1F DUP3 ADD SLT ISZERO PUSH2 0x29B JUMPI DUP1 CALLDATALOAD SWAP1 PUSH8 0xFFFFFFFFFFFFFFFF DUP3 GT PUSH2 0x992 JUMPI PUSH1 0x40 MLOAD SWAP3 PUSH2 0x2187 PUSH1 0x1F DUP5 ADD PUSH1 0x1F NOT AND PUSH1 0x20 ADD DUP6 PUSH2 0x2130 JUMP JUMPDEST DUP3 DUP5 MSTORE PUSH1 0x20 DUP4 DUP4 ADD ADD GT PUSH2 0x29B JUMPI DUP2 PUSH1 0x0 SWAP3 PUSH1 0x20 DUP1 SWAP4 ADD DUP4 DUP7 ADD CALLDATACOPY DUP4 ADD ADD MSTORE SWAP1 JUMP JUMPDEST SWAP1 PUSH1 0x1 DUP3 DUP2 SHR SWAP3 AND DUP1 ISZERO PUSH2 0x21D9 JUMPI JUMPDEST PUSH1 0x20 DUP4 LT EQ PUSH2 0x21C3 JUMPI JUMP JUMPDEST PUSH4 0x4E487B71 PUSH1 0xE0 SHL PUSH1 0x0 MSTORE PUSH1 0x22 PUSH1 0x4 MSTORE PUSH1 0x24 PUSH1 0x0 REVERT JUMPDEST SWAP2 PUSH1 0x7F AND SWAP2 PUSH2 0x21B8 JUMP JUMPDEST SWAP1 PUSH1 0x40 MLOAD SWAP2 DUP3 PUSH1 0x0 DUP3 SLOAD SWAP3 PUSH2 0x21F7 DUP5 PUSH2 0x21A9 JUMP JUMPDEST SWAP1 DUP2 DUP5 MSTORE PUSH1 0x1 SWAP5 DUP6 DUP2 AND SWAP1 DUP2 PUSH1 0x0 EQ PUSH2 0x2266 JUMPI POP PUSH1 0x1 EQ PUSH2 0x2223 JUMPI JUMPDEST POP POP PUSH2 0x2221 SWAP3 POP SUB DUP4 PUSH2 0x2130 JUMP JUMPDEST JUMP JUMPDEST SWAP1 SWAP4 SWAP2 POP PUSH1 0x0 MSTORE PUSH1 0x20 SWAP1 DUP2 PUSH1 0x0 KECCAK256 SWAP4 PUSH1 0x0 SWAP2 JUMPDEST DUP2 DUP4 LT PUSH2 0x224E JUMPI POP POP PUSH2 0x2221 SWAP4 POP DUP3 ADD ADD CODESIZE DUP1 PUSH2 0x2213 JUMP JUMPDEST DUP6 SLOAD DUP9 DUP5 ADD DUP6 ADD MSTORE SWAP5 DUP6 ADD SWAP5 DUP8 SWAP5 POP SWAP2 DUP4 ADD SWAP2 PUSH2 0x2236 JUMP JUMPDEST SWAP2 POP POP PUSH2 0x2221 SWAP5 POP PUSH1 0x20 SWAP3 POP PUSH1 0xFF NOT AND DUP3 DUP5 ADD MSTORE ISZERO ISZERO PUSH1 0x5 SHL DUP3 ADD ADD CODESIZE DUP1 PUSH2 0x2213 JUMP JUMPDEST PUSH1 0x0 SLOAD PUSH1 0x1 PUSH1 0x1 PUSH1 0xA0 SHL SUB AND CALLER SUB PUSH2 0x229D JUMPI JUMP JUMPDEST PUSH1 0x64 PUSH1 0x40 MLOAD PUSH3 0x461BCD PUSH1 0xE5 SHL DUP2 MSTORE PUSH1 0x20 PUSH1 0x4 DUP3 ADD MSTORE PUSH1 0x20 PUSH1 0x24 DUP3 ADD MSTORE PUSH32 0x4F776E61626C653A2063616C6C6572206973206E6F7420746865206F776E6572 PUSH1 0x44 DUP3 ADD MSTORE REVERT JUMPDEST SWAP2 SWAP1 DUP3 ADD DUP1 SWAP3 GT PUSH2 0x496 JUMPI JUMP JUMPDEST DUP2 DUP2 LT PUSH2 0x22F9 JUMPI POP POP JUMP JUMPDEST PUSH1 0x0 DUP2 SSTORE PUSH1 0x1 ADD PUSH2 0x22EE JUMP JUMPDEST DUP2 DUP2 MUL SWAP3 SWAP2 DUP2 ISZERO SWAP2 DUP5 DIV EQ OR ISZERO PUSH2 0x496 JUMPI JUMP JUMPDEST ISZERO PUSH2 0x231F JUMPI JUMP JUMPDEST PUSH1 0x40 MLOAD PUSH3 0x461BCD PUSH1 0xE5 SHL DUP2 MSTORE PUSH1 0x20 PUSH1 0x4 DUP3 ADD MSTORE PUSH1 0x10 PUSH1 0x24 DUP3 ADD MSTORE PUSH16 0x4172656E61206E6F7420616374697665 PUSH1 0x80 SHL PUSH1 0x44 DUP3 ADD MSTORE PUSH1 0x64 SWAP1 REVERT JUMPDEST ISZERO PUSH2 0x235E JUMPI JUMP JUMPDEST PUSH1 0x40 MLOAD PUSH3 0x461BCD PUSH1 0xE5 SHL DUP2 MSTORE PUSH1 0x20 PUSH1 0x4 DUP3 ADD MSTORE PUSH1 0xF PUSH1 0x24 DUP3 ADD MSTORE PUSH15 0x496E76616C6964206F7574636F6D65 PUSH1 0x88 SHL PUSH1 0x44 DUP3 ADD MSTORE PUSH1 0x64 SWAP1 REVERT JUMPDEST SWAP1 DUP2 PUSH1 0x20 SWAP2 SUB SLT PUSH2 0x29B JUMPI MLOAD DUP1 ISZERO ISZERO DUP2 SUB PUSH2 0x29B JUMPI SWAP1 JUMP JUMPDEST ISZERO PUSH2 0x23B4 JUMPI JUMP JUMPDEST PUSH1 0x40 MLOAD PUSH3 0x461BCD PUSH1 0xE5 SHL DUP2 MSTORE PUSH1 0x20 PUSH1 0x4 DUP3 ADD MSTORE PUSH1 0x13 PUSH1 0x24 DUP3 ADD MSTORE PUSH19 0x10D216881D1C985B9CD9995C8819985A5B1959 PUSH1 0x6A SHL PUSH1 0x44 DUP3 ADD MSTORE PUSH1 0x64 SWAP1 REVERT JUMPDEST PUSH1 0xFF PUSH1 0x2 SLOAD AND PUSH2 0x23FB JUMPI JUMP JUMPDEST PUSH1 0x40 MLOAD PUSH3 0x461BCD PUSH1 0xE5 SHL DUP2 MSTORE PUSH1 0x20 PUSH1 0x4 DUP3 ADD MSTORE PUSH1 0x10 PUSH1 0x24 DUP3 ADD MSTORE PUSH16 0x14185D5CD8589B194E881C185D5CD959 PUSH1 0x82 SHL PUSH1 0x44 DUP3 ADD MSTORE PUSH1 0x64 SWAP1 REVERT JUMPDEST PUSH1 0x2 PUSH1 0x1 SLOAD EQ PUSH2 0x2444 JUMPI PUSH1 0x2 PUSH1 0x1 SSTORE JUMP JUMPDEST PUSH1 0x40 MLOAD PUSH3 0x461BCD PUSH1 0xE5 SHL DUP2 MSTORE PUSH1 0x20 PUSH1 0x4 DUP3 ADD MSTORE PUSH1 0x1F PUSH1 0x24 DUP3 ADD MSTORE PUSH32 0x5265656E7472616E637947756172643A207265656E7472616E742063616C6C00 PUSH1 0x44 DUP3 ADD MSTORE PUSH1 0x64 SWAP1 REVERT JUMPDEST SWAP2 SWAP1 DUP3 SUB SWAP2 DUP3 GT PUSH2 0x496 JUMPI JUMP JUMPDEST DUP2 ISZERO PUSH2 0x24A0 JUMPI DIV SWAP1 JUMP JUMPDEST PUSH4 0x4E487B71 PUSH1 0xE0 SHL PUSH1 0x0 MSTORE PUSH1 0x12 PUSH1 0x4 MSTORE PUSH1 0x24 PUSH1 0x0 REVERT JUMPDEST PUSH1 0x2 SLOAD PUSH1 0x40 MLOAD PUSH4 0x88B6A07 PUSH1 0xE2 SHL DUP2 MSTORE SWAP1 PUSH1 0x20 SWAP1 DUP3 SWAP1 PUSH1 0x4 SWAP1 DUP3 SWAP1 PUSH1 0x8 SHR PUSH1 0x1 PUSH1 0x1 PUSH1 0xA0 SHL SUB AND GAS STATICCALL SWAP1 DUP2 ISZERO PUSH2 0xFE9 JUMPI PUSH1 0x0 SWAP2 PUSH2 0x2507 JUMPI JUMPDEST POP PUSH2 0x2503 SWAP1 PUSH9 0x56BC75E2D63100000 SWAP3 PUSH2 0x2305 JUMP JUMPDEST DIV SWAP1 JUMP JUMPDEST SWAP1 PUSH1 0x20 DUP3 RETURNDATASIZE DUP3 GT PUSH2 0x253C JUMPI JUMPDEST DUP2 PUSH2 0x2520 PUSH1 0x20 SWAP4 DUP4 PUSH2 0x2130 JUMP JUMPDEST DUP2 ADD SUB SLT PUSH2 0x2539 JUMPI POP MLOAD PUSH9 0x56BC75E2D63100000 PUSH2 0x24EE JUMP JUMPDEST DUP1 REVERT JUMPDEST RETURNDATASIZE SWAP2 POP PUSH2 0x2513 JUMP INVALID LOG2 PUSH5 0x6970667358 0x22 SLT KECCAK256 CALLDATASIZE 0xF7 0xC7 NOT 0xC8 0xB1 CALL 0xFB NUMBER PUSH23 0x68C7458D7D11AFCDB587E43F54118F3EF51C9D6D87C164 PUSH20 0x6F6C634300081400330000000000000000000000 "},"methodIdentifiers":{"EMERGENCY_THRESHOLD()":"087d31b7","IMMEDIATE_POT()":"d231dff4","INSURANCE_FEE()":"1573b577","MAX_DURATION()":"b1724b46","MIN_FAN_TOKENS()":"81a1d880","PARTNER_FEE()":"c3ca7f31","PLATFORM_FEE()":"34fbc9a1","REINVESTMENT_FEE()":"4967a918","VOLATILITY_THRESHOLD()":"da605f64","accumulateIntoPot(uint256)":"c9f6fa9e","arenaAccumulation(uint256)":"1a6cc4af","betPositions(uint256,uint256,address)":"02bd529a","chzToken()":"2654d81f","claimSeasonalReward(uint256)":"a45922dc","createSeasonalArena(string,string[],uint8,uint256,uint256)":"c4f32746","emergencyConvert(uint256)":"3efe49ab","emergencyWithdraw(address,uint256)":"95ccea67","enterSeasonal(uint256,uint256,bool)":"b8bd39d5","fanToken()":"75daa3de","getArenaDetails(uint256)":"2cd10882","getBetPosition(uint256,uint256,address)":"0697f9a8","nextArenaId()":"cf8753b2","outcomeCHZPots(uint256,uint256)":"177c1708","outcomeUSDCPots(uint256,uint256)":"863b6724","owner()":"8da5cb5b","pause()":"8456cb59","paused()":"5c975abb","renounceOwnership()":"715018a6","resolveSeasonal(uint256,uint256)":"93a86a2a","seasonalArenas(uint256)":"fc842b10","transferOwnership(address)":"f2fde38b","triggerVolatilityProtection(uint256)":"814603f1","unpause()":"3f4ba83a","updateVolatilityOracle(address)":"324cbdfc","usdcToken()":"11eac855","volatilityOracle()":"55b13a4f"}}}}}