{
  "_format": "hh-sol-artifact-1",
  "contractName": "BetFiArenaV2",
  "sourceName": "contracts/Arena.sol",
  "abi": [
    {
      "inputs": [
        {
          "internalType": "address",
          "name": "_bettingTokenAddress",
          "type": "address"
        },
        {
          "internalType": "address",
          "name": "_fanTokenBonusAddress",
          "type": "address"
        }
      ],
      "stateMutability": "nonpayable",
      "type": "constructor"
    },
    {
      "anonymous": false,
      "inputs": [
        {
          "indexed": true,
          "internalType": "uint256",
          "name": "arenaId",
          "type": "uint256"
        },
        {
          "indexed": false,
          "internalType": "string",
          "name": "title",
          "type": "string"
        },
        {
          "indexed": false,
          "internalType": "string[]",
          "name": "outcomeNames",
          "type": "string[]"
        }
      ],
      "name": "ArenaCreated",
      "type": "event"
    },
    {
      "anonymous": false,
      "inputs": [
        {
          "indexed": true,
          "internalType": "uint256",
          "name": "arenaId",
          "type": "uint256"
        },
        {
          "indexed": false,
          "internalType": "uint256",
          "name": "winningOutcomeId",
          "type": "uint256"
        }
      ],
      "name": "ArenaResolved",
      "type": "event"
    },
    {
      "anonymous": false,
      "inputs": [
        {
          "indexed": true,
          "internalType": "uint256",
          "name": "arenaId",
          "type": "uint256"
        },
        {
          "indexed": true,
          "internalType": "address",
          "name": "user",
          "type": "address"
        },
        {
          "indexed": false,
          "internalType": "uint256",
          "name": "outcomeId",
          "type": "uint256"
        },
        {
          "indexed": false,
          "internalType": "uint256",
          "name": "amount",
          "type": "uint256"
        }
      ],
      "name": "BetPlaced",
      "type": "event"
    },
    {
      "anonymous": false,
      "inputs": [
        {
          "indexed": true,
          "internalType": "uint256",
          "name": "arenaId",
          "type": "uint256"
        },
        {
          "indexed": true,
          "internalType": "address",
          "name": "user",
          "type": "address"
        },
        {
          "indexed": false,
          "internalType": "uint256",
          "name": "amount",
          "type": "uint256"
        }
      ],
      "name": "GainsClaimed",
      "type": "event"
    },
    {
      "anonymous": false,
      "inputs": [
        {
          "indexed": true,
          "internalType": "address",
          "name": "previousOwner",
          "type": "address"
        },
        {
          "indexed": true,
          "internalType": "address",
          "name": "newOwner",
          "type": "address"
        }
      ],
      "name": "OwnershipTransferred",
      "type": "event"
    },
    {
      "inputs": [
        {
          "internalType": "uint256",
          "name": "",
          "type": "uint256"
        }
      ],
      "name": "arenas",
      "outputs": [
        {
          "internalType": "string",
          "name": "title",
          "type": "string"
        },
        {
          "internalType": "uint256",
          "name": "potTotal",
          "type": "uint256"
        },
        {
          "internalType": "uint256",
          "name": "deadline",
          "type": "uint256"
        },
        {
          "internalType": "bool",
          "name": "isResolved",
          "type": "bool"
        },
        {
          "internalType": "uint256",
          "name": "winningOutcomeId",
          "type": "uint256"
        }
      ],
      "stateMutability": "view",
      "type": "function"
    },
    {
      "inputs": [
        {
          "internalType": "uint256",
          "name": "",
          "type": "uint256"
        },
        {
          "internalType": "uint256",
          "name": "",
          "type": "uint256"
        },
        {
          "internalType": "address",
          "name": "",
          "type": "address"
        }
      ],
      "name": "betsPerOutcome",
      "outputs": [
        {
          "internalType": "uint256",
          "name": "",
          "type": "uint256"
        }
      ],
      "stateMutability": "view",
      "type": "function"
    },
    {
      "inputs": [],
      "name": "bettingToken",
      "outputs": [
        {
          "internalType": "contract IERC20",
          "name": "",
          "type": "address"
        }
      ],
      "stateMutability": "view",
      "type": "function"
    },
    {
      "inputs": [
        {
          "internalType": "uint256",
          "name": "_arenaId",
          "type": "uint256"
        }
      ],
      "name": "claimGains",
      "outputs": [],
      "stateMutability": "nonpayable",
      "type": "function"
    },
    {
      "inputs": [
        {
          "internalType": "string",
          "name": "_title",
          "type": "string"
        },
        {
          "internalType": "string[]",
          "name": "_outcomeNames",
          "type": "string[]"
        },
        {
          "internalType": "uint256",
          "name": "_deadline",
          "type": "uint256"
        }
      ],
      "name": "createArena",
      "outputs": [],
      "stateMutability": "nonpayable",
      "type": "function"
    },
    {
      "inputs": [],
      "name": "fanTokenForBonus",
      "outputs": [
        {
          "internalType": "contract IERC20",
          "name": "",
          "type": "address"
        }
      ],
      "stateMutability": "view",
      "type": "function"
    },
    {
      "inputs": [],
      "name": "nextArenaId",
      "outputs": [
        {
          "internalType": "uint256",
          "name": "",
          "type": "uint256"
        }
      ],
      "stateMutability": "view",
      "type": "function"
    },
    {
      "inputs": [
        {
          "internalType": "uint256",
          "name": "",
          "type": "uint256"
        },
        {
          "internalType": "uint256",
          "name": "",
          "type": "uint256"
        }
      ],
      "name": "outcomePots",
      "outputs": [
        {
          "internalType": "uint256",
          "name": "",
          "type": "uint256"
        }
      ],
      "stateMutability": "view",
      "type": "function"
    },
    {
      "inputs": [],
      "name": "owner",
      "outputs": [
        {
          "internalType": "address",
          "name": "",
          "type": "address"
        }
      ],
      "stateMutability": "view",
      "type": "function"
    },
    {
      "inputs": [
        {
          "internalType": "uint256",
          "name": "_arenaId",
          "type": "uint256"
        },
        {
          "internalType": "uint256",
          "name": "_outcomeId",
          "type": "uint256"
        },
        {
          "internalType": "uint256",
          "name": "_amount",
          "type": "uint256"
        }
      ],
      "name": "placeBet",
      "outputs": [],
      "stateMutability": "nonpayable",
      "type": "function"
    },
    {
      "inputs": [],
      "name": "platformFeePercent",
      "outputs": [
        {
          "internalType": "uint256",
          "name": "",
          "type": "uint256"
        }
      ],
      "stateMutability": "view",
      "type": "function"
    },
    {
      "inputs": [],
      "name": "renounceOwnership",
      "outputs": [],
      "stateMutability": "nonpayable",
      "type": "function"
    },
    {
      "inputs": [
        {
          "internalType": "uint256",
          "name": "_arenaId",
          "type": "uint256"
        },
        {
          "internalType": "uint256",
          "name": "_winningOutcomeId",
          "type": "uint256"
        }
      ],
      "name": "resolveArena",
      "outputs": [],
      "stateMutability": "nonpayable",
      "type": "function"
    },
    {
      "inputs": [
        {
          "internalType": "address",
          "name": "newOwner",
          "type": "address"
        }
      ],
      "name": "transferOwnership",
      "outputs": [],
      "stateMutability": "nonpayable",
      "type": "function"
    }
  ],
  "bytecode": "0x60806040526004805534801561001457600080fd5b50604051620014d1380380620014d1833981016040819052610035916100df565b61003e33610073565b60018055600280546001600160a01b039384166001600160a01b03199182161790915560038054929093169116179055610112565b600080546001600160a01b038381166001600160a01b0319831681178455604051919092169283917f8be0079c531659141344cd1fd0a4f28419497f9722a3daafe3b4186f6b6457e09190a35050565b80516001600160a01b03811681146100da57600080fd5b919050565b600080604083850312156100f257600080fd5b6100fb836100c3565b9150610109602084016100c3565b90509250929050565b6113af80620001226000396000f3fe608060405234801561001057600080fd5b50600436106100e95760003560e01c80638f634af31161008c578063cf8753b211610066578063cf8753b214610209578063e71c969714610212578063f2fde38b14610225578063f61e13a61461023857600080fd5b80638f634af3146101b2578063939706da146101c5578063cf1a0fc9146101f657600080fd5b8063715018a6116100c8578063715018a61461016c57806384f4319c146101745780638c639a85146101985780638da5cb5b146101a157600080fd5b8062033d63146100ee5780633809ae171461012c57806343425e8814610141575b600080fd5b6101196100fc366004610df3565b600760209081526000928352604080842090915290825290205481565b6040519081526020015b60405180910390f35b61013f61013a366004610e15565b61024b565b005b600254610154906001600160a01b031681565b6040516001600160a01b039091168152602001610123565b61013f6105e9565b610187610182366004610e15565b6105fd565b604051610123959493929190610e74565b61011960045481565b6000546001600160a01b0316610154565b600354610154906001600160a01b031681565b6101196101d3366004610ec7565b600860209081526000938452604080852082529284528284209052825290205481565b61013f610204366004610df3565b6106ba565b61011960055481565b61013f610220366004610efc565b6107e7565b61013f610233366004610f28565b610ab9565b61013f610246366004611001565b610b2f565b610253610c33565b6000818152600660205260409020600481015460ff166102ba5760405162461bcd60e51b815260206004820152601960248201527f4172656e61206973206e6f74207265736f6c766564207965740000000000000060448201526064015b60405180910390fd5b600581015460008381526008602090815260408083208484528252808320338452909152902054806103475760405162461bcd60e51b815260206004820152603060248201527f596f752068617665206e6f2077696e6e696e672062657473206f72206861766560448201526f08185b1c9958591e4818db185a5b595960821b60648201526084016102b1565b6000848152600760209081526040808320858452909152902054806103ae5760405162461bcd60e51b815260206004820152601a60248201527f57696e6e696e6720706f742063616e6e6f74206265207a65726f00000000000060448201526064016102b1565b6000606460045460646103c19190611106565b86600201546103d0919061111f565b6103da9190611136565b90506000826103e9838661111f565b6103f39190611136565b6003546040516370a0823160e01b81523360048201529192506000916001600160a01b03909116906370a0823190602401602060405180830381865afa158015610441573d6000803e3d6000fd5b505050506040513d601f19601f820116820180604052508101906104659190611158565b9050600061271061047783600a61111f565b6104819190611136565b9050600061048f8486611106565b90506000606461049f848761111f565b6104a99190611136565b9050818111156104b65750805b60006104c28287611171565b60008d81526008602090815260408083208e8452825280832033808552925280832092909255600254915163a9059cbb60e01b81526004810191909152602481018390529192506001600160a01b03169063a9059cbb906044016020604051808303816000875af115801561053b573d6000803e3d6000fd5b505050506040513d601f19601f8201168201806040525081019061055f9190611184565b61059b5760405162461bcd60e51b815260206004820152600d60248201526c14185e5bdd5d0819985a5b1959609a1b60448201526064016102b1565b60405181815233908d907f2c30ec5c789dca917990cfe87e4b590e15af3ca94f29d554167f595c3d9cf4259060200160405180910390a350505050505050505050506105e660018055565b50565b6105f1610c8c565b6105fb6000610ce6565b565b600660205260009081526040902080548190610618906111a6565b80601f0160208091040260200160405190810160405280929190818152602001828054610644906111a6565b80156106915780601f1061066657610100808354040283529160200191610691565b820191906000526020600020905b81548152906001019060200180831161067457829003601f168201915b5050506002840154600385015460048601546005909601549495919490935060ff909116915085565b6106c2610c8c565b60008281526006602052604090206004015460ff16156107245760405162461bcd60e51b815260206004820152601960248201527f4172656e6120697320616c7265616479207265736f6c7665640000000000000060448201526064016102b1565b60008281526006602052604090206001015481106107845760405162461bcd60e51b815260206004820152601760248201527f496e76616c69642077696e6e696e67206f7574636f6d6500000000000000000060448201526064016102b1565b6000828152600660205260409081902060048101805460ff191660011790556005018290555182907ff3798c69d53d98ebc0fb735d8eb097b51c6c903aeaee51178a58c0130e178f06906107db9084815260200190565b60405180910390a25050565b6107ef610c33565b6000838152600660205260409020600481015460ff16156108465760405162461bcd60e51b8152602060048201526011602482015270105c995b98481a5cc81c995cdbdb1d9959607a1b60448201526064016102b1565b806003015442106108995760405162461bcd60e51b815260206004820152601b60248201527f42657474696e6720646561646c696e652068617320706173736564000000000060448201526064016102b1565b600181015483106108e15760405162461bcd60e51b8152602060048201526012602482015271125b9d985b1a59081bdd5d18dbdb5948125160721b60448201526064016102b1565b600082116109315760405162461bcd60e51b815260206004820152601760248201527f416d6f756e74206d75737420626520706f73697469766500000000000000000060448201526064016102b1565b6002546040516323b872dd60e01b8152336004820152306024820152604481018490526001600160a01b03909116906323b872dd906064016020604051808303816000875af1158015610988573d6000803e3d6000fd5b505050506040513d601f19601f820116820180604052508101906109ac9190611184565b6109f05760405162461bcd60e51b8152602060048201526015602482015274151bdad95b881d1c985b9cd9995c8819985a5b1959605a1b60448201526064016102b1565b81816002016000828254610a049190611171565b9091555050600084815260076020908152604080832086845290915281208054849290610a32908490611171565b90915550506000848152600860209081526040808320868452825280832033845290915281208054849290610a68908490611171565b90915550506040805184815260208101849052339186917f1b8a9031cb9351278d70a994f81536e9e08c91162e64f92b2fe4766fb7a891b4910160405180910390a350610ab460018055565b505050565b610ac1610c8c565b6001600160a01b038116610b265760405162461bcd60e51b815260206004820152602660248201527f4f776e61626c653a206e6577206f776e657220697320746865207a65726f206160448201526564647265737360d01b60648201526084016102b1565b6105e681610ce6565b610b37610c8c565b428111610b865760405162461bcd60e51b815260206004820152601e60248201527f446561646c696e65206d75737420626520696e2074686520667574757265000060448201526064016102b1565b6005546000818152600660205260409020610ba1858261122e565b5060008181526006602090815260409091208451610bc792600190920191860190610d36565b50600081815260066020526040908190206003018390555181907f03426bdf26cbc6f1082f97d9315fd0fdd3bb999ac86a8ebfbc56250659abf38d90610c1090879087906112ee565b60405180910390a260058054906000610c2883611360565b919050555050505050565b600260015403610c855760405162461bcd60e51b815260206004820152601f60248201527f5265656e7472616e637947756172643a207265656e7472616e742063616c6c0060448201526064016102b1565b6002600155565b6000546001600160a01b031633146105fb5760405162461bcd60e51b815260206004820181905260248201527f4f776e61626c653a2063616c6c6572206973206e6f7420746865206f776e657260448201526064016102b1565b600080546001600160a01b038381166001600160a01b0319831681178455604051919092169283917f8be0079c531659141344cd1fd0a4f28419497f9722a3daafe3b4186f6b6457e09190a35050565b828054828255906000526020600020908101928215610d7c579160200282015b82811115610d7c5782518290610d6c908261122e565b5091602001919060010190610d56565b50610d88929150610d8c565b5090565b80821115610d88576000610da08282610da9565b50600101610d8c565b508054610db5906111a6565b6000825580601f10610dc5575050565b601f0160209004906000526020600020908101906105e691905b80821115610d885760008155600101610ddf565b60008060408385031215610e0657600080fd5b50508035926020909101359150565b600060208284031215610e2757600080fd5b5035919050565b6000815180845260005b81811015610e5457602081850181015186830182015201610e38565b506000602082860101526020601f19601f83011685010191505092915050565b60a081526000610e8760a0830188610e2e565b60208301969096525060408101939093529015156060830152608090910152919050565b80356001600160a01b0381168114610ec257600080fd5b919050565b600080600060608486031215610edc57600080fd5b8335925060208401359150610ef360408501610eab565b90509250925092565b600080600060608486031215610f1157600080fd5b505081359360208301359350604090920135919050565b600060208284031215610f3a57600080fd5b610f4382610eab565b9392505050565b634e487b7160e01b600052604160045260246000fd5b604051601f8201601f1916810167ffffffffffffffff81118282101715610f8957610f89610f4a565b604052919050565b600082601f830112610fa257600080fd5b813567ffffffffffffffff811115610fbc57610fbc610f4a565b610fcf601f8201601f1916602001610f60565b818152846020838601011115610fe457600080fd5b816020850160208301376000918101602001919091529392505050565b60008060006060848603121561101657600080fd5b833567ffffffffffffffff8082111561102e57600080fd5b61103a87838801610f91565b945060209150818601358181111561105157600080fd5b8601601f8101881361106257600080fd5b80358281111561107457611074610f4a565b8060051b611083858201610f60565b918252828101850191858101908b84111561109d57600080fd5b86850192505b838310156110d9578235868111156110bb5760008081fd5b6110c98d8983890101610f91565b83525091860191908601906110a3565b989b989a5050505060409690960135955050505050565b634e487b7160e01b600052601160045260246000fd5b81810381811115611119576111196110f0565b92915050565b8082028115828204841417611119576111196110f0565b60008261115357634e487b7160e01b600052601260045260246000fd5b500490565b60006020828403121561116a57600080fd5b5051919050565b80820180821115611119576111196110f0565b60006020828403121561119657600080fd5b81518015158114610f4357600080fd5b600181811c908216806111ba57607f821691505b6020821081036111da57634e487b7160e01b600052602260045260246000fd5b50919050565b601f821115610ab457600081815260208120601f850160051c810160208610156112075750805b601f850160051c820191505b8181101561122657828155600101611213565b505050505050565b815167ffffffffffffffff81111561124857611248610f4a565b61125c8161125684546111a6565b846111e0565b602080601f83116001811461129157600084156112795750858301515b600019600386901b1c1916600185901b178555611226565b600085815260208120601f198616915b828110156112c0578886015182559484019460019091019084016112a1565b50858210156112de5787850151600019600388901b60f8161c191681555b5050505050600190811b01905550565b6040815260006113016040830185610e2e565b6020838203818501528185518084528284019150828160051b85010183880160005b8381101561135157601f1987840301855261133f838351610e2e565b94860194925090850190600101611323565b50909998505050505050505050565b600060018201611372576113726110f0565b506001019056fea2646970667358221220a90971bb1fd63376fcca98adf46deda106c8e5faf65a4cb295fbe25674197f6964736f6c63430008140033",
  "linkReferences": {},
  "deployedLinkReferences": {}
}